{
	"@chainlink/contracts/src/v0.7/Operator.sol": {
		"Operator": {
			"abi": [
				{
					"inputs": [
						{
							"internalType": "address",
							"name": "link",
							"type": "address"
						},
						{
							"internalType": "address",
							"name": "owner",
							"type": "address"
						}
					],
					"stateMutability": "nonpayable",
					"type": "constructor"
				},
				{
					"anonymous": false,
					"inputs": [
						{
							"indexed": false,
							"internalType": "address[]",
							"name": "senders",
							"type": "address[]"
						},
						{
							"indexed": false,
							"internalType": "address",
							"name": "changedBy",
							"type": "address"
						}
					],
					"name": "AuthorizedSendersChanged",
					"type": "event"
				},
				{
					"anonymous": false,
					"inputs": [
						{
							"indexed": true,
							"internalType": "bytes32",
							"name": "requestId",
							"type": "bytes32"
						}
					],
					"name": "CancelOracleRequest",
					"type": "event"
				},
				{
					"anonymous": false,
					"inputs": [
						{
							"indexed": true,
							"internalType": "bytes32",
							"name": "specId",
							"type": "bytes32"
						},
						{
							"indexed": false,
							"internalType": "address",
							"name": "requester",
							"type": "address"
						},
						{
							"indexed": false,
							"internalType": "bytes32",
							"name": "requestId",
							"type": "bytes32"
						},
						{
							"indexed": false,
							"internalType": "uint256",
							"name": "payment",
							"type": "uint256"
						},
						{
							"indexed": false,
							"internalType": "address",
							"name": "callbackAddr",
							"type": "address"
						},
						{
							"indexed": false,
							"internalType": "bytes4",
							"name": "callbackFunctionId",
							"type": "bytes4"
						},
						{
							"indexed": false,
							"internalType": "uint256",
							"name": "cancelExpiration",
							"type": "uint256"
						},
						{
							"indexed": false,
							"internalType": "uint256",
							"name": "dataVersion",
							"type": "uint256"
						},
						{
							"indexed": false,
							"internalType": "bytes",
							"name": "data",
							"type": "bytes"
						}
					],
					"name": "OracleRequest",
					"type": "event"
				},
				{
					"anonymous": false,
					"inputs": [
						{
							"indexed": true,
							"internalType": "bytes32",
							"name": "requestId",
							"type": "bytes32"
						}
					],
					"name": "OracleResponse",
					"type": "event"
				},
				{
					"anonymous": false,
					"inputs": [
						{
							"indexed": true,
							"internalType": "address",
							"name": "acceptedContract",
							"type": "address"
						}
					],
					"name": "OwnableContractAccepted",
					"type": "event"
				},
				{
					"anonymous": false,
					"inputs": [
						{
							"indexed": true,
							"internalType": "address",
							"name": "from",
							"type": "address"
						},
						{
							"indexed": true,
							"internalType": "address",
							"name": "to",
							"type": "address"
						}
					],
					"name": "OwnershipTransferRequested",
					"type": "event"
				},
				{
					"anonymous": false,
					"inputs": [
						{
							"indexed": true,
							"internalType": "address",
							"name": "from",
							"type": "address"
						},
						{
							"indexed": true,
							"internalType": "address",
							"name": "to",
							"type": "address"
						}
					],
					"name": "OwnershipTransferred",
					"type": "event"
				},
				{
					"anonymous": false,
					"inputs": [
						{
							"indexed": false,
							"internalType": "address[]",
							"name": "targets",
							"type": "address[]"
						},
						{
							"indexed": false,
							"internalType": "address[]",
							"name": "senders",
							"type": "address[]"
						},
						{
							"indexed": false,
							"internalType": "address",
							"name": "changedBy",
							"type": "address"
						}
					],
					"name": "TargetsUpdatedAuthorizedSenders",
					"type": "event"
				},
				{
					"inputs": [
						{
							"internalType": "address[]",
							"name": "targets",
							"type": "address[]"
						},
						{
							"internalType": "address[]",
							"name": "senders",
							"type": "address[]"
						}
					],
					"name": "acceptAuthorizedReceivers",
					"outputs": [],
					"stateMutability": "nonpayable",
					"type": "function"
				},
				{
					"inputs": [
						{
							"internalType": "address[]",
							"name": "ownable",
							"type": "address[]"
						}
					],
					"name": "acceptOwnableContracts",
					"outputs": [],
					"stateMutability": "nonpayable",
					"type": "function"
				},
				{
					"inputs": [],
					"name": "acceptOwnership",
					"outputs": [],
					"stateMutability": "nonpayable",
					"type": "function"
				},
				{
					"inputs": [
						{
							"internalType": "bytes32",
							"name": "requestId",
							"type": "bytes32"
						},
						{
							"internalType": "uint256",
							"name": "payment",
							"type": "uint256"
						},
						{
							"internalType": "bytes4",
							"name": "callbackFunc",
							"type": "bytes4"
						},
						{
							"internalType": "uint256",
							"name": "expiration",
							"type": "uint256"
						}
					],
					"name": "cancelOracleRequest",
					"outputs": [],
					"stateMutability": "nonpayable",
					"type": "function"
				},
				{
					"inputs": [
						{
							"internalType": "uint256",
							"name": "nonce",
							"type": "uint256"
						},
						{
							"internalType": "uint256",
							"name": "payment",
							"type": "uint256"
						},
						{
							"internalType": "bytes4",
							"name": "callbackFunc",
							"type": "bytes4"
						},
						{
							"internalType": "uint256",
							"name": "expiration",
							"type": "uint256"
						}
					],
					"name": "cancelOracleRequestByRequester",
					"outputs": [],
					"stateMutability": "nonpayable",
					"type": "function"
				},
				{
					"inputs": [
						{
							"internalType": "address payable[]",
							"name": "receivers",
							"type": "address[]"
						},
						{
							"internalType": "uint256[]",
							"name": "amounts",
							"type": "uint256[]"
						}
					],
					"name": "distributeFunds",
					"outputs": [],
					"stateMutability": "payable",
					"type": "function"
				},
				{
					"inputs": [
						{
							"internalType": "bytes32",
							"name": "requestId",
							"type": "bytes32"
						},
						{
							"internalType": "uint256",
							"name": "payment",
							"type": "uint256"
						},
						{
							"internalType": "address",
							"name": "callbackAddress",
							"type": "address"
						},
						{
							"internalType": "bytes4",
							"name": "callbackFunctionId",
							"type": "bytes4"
						},
						{
							"internalType": "uint256",
							"name": "expiration",
							"type": "uint256"
						},
						{
							"internalType": "bytes32",
							"name": "data",
							"type": "bytes32"
						}
					],
					"name": "fulfillOracleRequest",
					"outputs": [
						{
							"internalType": "bool",
							"name": "",
							"type": "bool"
						}
					],
					"stateMutability": "nonpayable",
					"type": "function"
				},
				{
					"inputs": [
						{
							"internalType": "bytes32",
							"name": "requestId",
							"type": "bytes32"
						},
						{
							"internalType": "uint256",
							"name": "payment",
							"type": "uint256"
						},
						{
							"internalType": "address",
							"name": "callbackAddress",
							"type": "address"
						},
						{
							"internalType": "bytes4",
							"name": "callbackFunctionId",
							"type": "bytes4"
						},
						{
							"internalType": "uint256",
							"name": "expiration",
							"type": "uint256"
						},
						{
							"internalType": "bytes",
							"name": "data",
							"type": "bytes"
						}
					],
					"name": "fulfillOracleRequest2",
					"outputs": [
						{
							"internalType": "bool",
							"name": "",
							"type": "bool"
						}
					],
					"stateMutability": "nonpayable",
					"type": "function"
				},
				{
					"inputs": [],
					"name": "getAuthorizedSenders",
					"outputs": [
						{
							"internalType": "address[]",
							"name": "",
							"type": "address[]"
						}
					],
					"stateMutability": "view",
					"type": "function"
				},
				{
					"inputs": [],
					"name": "getChainlinkToken",
					"outputs": [
						{
							"internalType": "address",
							"name": "",
							"type": "address"
						}
					],
					"stateMutability": "view",
					"type": "function"
				},
				{
					"inputs": [],
					"name": "getExpiryTime",
					"outputs": [
						{
							"internalType": "uint256",
							"name": "",
							"type": "uint256"
						}
					],
					"stateMutability": "view",
					"type": "function"
				},
				{
					"inputs": [
						{
							"internalType": "address",
							"name": "sender",
							"type": "address"
						}
					],
					"name": "isAuthorizedSender",
					"outputs": [
						{
							"internalType": "bool",
							"name": "",
							"type": "bool"
						}
					],
					"stateMutability": "view",
					"type": "function"
				},
				{
					"inputs": [
						{
							"internalType": "address",
							"name": "sender",
							"type": "address"
						},
						{
							"internalType": "uint256",
							"name": "amount",
							"type": "uint256"
						},
						{
							"internalType": "bytes",
							"name": "data",
							"type": "bytes"
						}
					],
					"name": "onTokenTransfer",
					"outputs": [],
					"stateMutability": "nonpayable",
					"type": "function"
				},
				{
					"inputs": [
						{
							"internalType": "address",
							"name": "sender",
							"type": "address"
						},
						{
							"internalType": "uint256",
							"name": "payment",
							"type": "uint256"
						},
						{
							"internalType": "bytes32",
							"name": "specId",
							"type": "bytes32"
						},
						{
							"internalType": "bytes4",
							"name": "callbackFunctionId",
							"type": "bytes4"
						},
						{
							"internalType": "uint256",
							"name": "nonce",
							"type": "uint256"
						},
						{
							"internalType": "uint256",
							"name": "dataVersion",
							"type": "uint256"
						},
						{
							"internalType": "bytes",
							"name": "data",
							"type": "bytes"
						}
					],
					"name": "operatorRequest",
					"outputs": [],
					"stateMutability": "nonpayable",
					"type": "function"
				},
				{
					"inputs": [
						{
							"internalType": "address",
							"name": "sender",
							"type": "address"
						},
						{
							"internalType": "uint256",
							"name": "payment",
							"type": "uint256"
						},
						{
							"internalType": "bytes32",
							"name": "specId",
							"type": "bytes32"
						},
						{
							"internalType": "address",
							"name": "callbackAddress",
							"type": "address"
						},
						{
							"internalType": "bytes4",
							"name": "callbackFunctionId",
							"type": "bytes4"
						},
						{
							"internalType": "uint256",
							"name": "nonce",
							"type": "uint256"
						},
						{
							"internalType": "uint256",
							"name": "dataVersion",
							"type": "uint256"
						},
						{
							"internalType": "bytes",
							"name": "data",
							"type": "bytes"
						}
					],
					"name": "oracleRequest",
					"outputs": [],
					"stateMutability": "nonpayable",
					"type": "function"
				},
				{
					"inputs": [],
					"name": "owner",
					"outputs": [
						{
							"internalType": "address",
							"name": "",
							"type": "address"
						}
					],
					"stateMutability": "view",
					"type": "function"
				},
				{
					"inputs": [
						{
							"internalType": "address",
							"name": "to",
							"type": "address"
						},
						{
							"internalType": "bytes",
							"name": "data",
							"type": "bytes"
						}
					],
					"name": "ownerForward",
					"outputs": [],
					"stateMutability": "nonpayable",
					"type": "function"
				},
				{
					"inputs": [
						{
							"internalType": "address",
							"name": "to",
							"type": "address"
						},
						{
							"internalType": "uint256",
							"name": "value",
							"type": "uint256"
						},
						{
							"internalType": "bytes",
							"name": "data",
							"type": "bytes"
						}
					],
					"name": "ownerTransferAndCall",
					"outputs": [
						{
							"internalType": "bool",
							"name": "success",
							"type": "bool"
						}
					],
					"stateMutability": "nonpayable",
					"type": "function"
				},
				{
					"inputs": [
						{
							"internalType": "address[]",
							"name": "senders",
							"type": "address[]"
						}
					],
					"name": "setAuthorizedSenders",
					"outputs": [],
					"stateMutability": "nonpayable",
					"type": "function"
				},
				{
					"inputs": [
						{
							"internalType": "address[]",
							"name": "targets",
							"type": "address[]"
						},
						{
							"internalType": "address[]",
							"name": "senders",
							"type": "address[]"
						}
					],
					"name": "setAuthorizedSendersOn",
					"outputs": [],
					"stateMutability": "nonpayable",
					"type": "function"
				},
				{
					"inputs": [
						{
							"internalType": "address[]",
							"name": "ownable",
							"type": "address[]"
						},
						{
							"internalType": "address",
							"name": "newOwner",
							"type": "address"
						}
					],
					"name": "transferOwnableContracts",
					"outputs": [],
					"stateMutability": "nonpayable",
					"type": "function"
				},
				{
					"inputs": [
						{
							"internalType": "address",
							"name": "to",
							"type": "address"
						}
					],
					"name": "transferOwnership",
					"outputs": [],
					"stateMutability": "nonpayable",
					"type": "function"
				},
				{
					"inputs": [],
					"name": "typeAndVersion",
					"outputs": [
						{
							"internalType": "string",
							"name": "",
							"type": "string"
						}
					],
					"stateMutability": "pure",
					"type": "function"
				},
				{
					"inputs": [
						{
							"internalType": "address",
							"name": "recipient",
							"type": "address"
						},
						{
							"internalType": "uint256",
							"name": "amount",
							"type": "uint256"
						}
					],
					"name": "withdraw",
					"outputs": [],
					"stateMutability": "nonpayable",
					"type": "function"
				},
				{
					"inputs": [],
					"name": "withdrawable",
					"outputs": [
						{
							"internalType": "uint256",
							"name": "",
							"type": "uint256"
						}
					],
					"stateMutability": "view",
					"type": "function"
				}
			],
			"devdoc": {
				"kind": "dev",
				"methods": {
					"acceptAuthorizedReceivers(address[],address[])": {
						"params": {
							"senders": "The addresses that are allowed to send updates",
							"targets": "The addresses to set permissions on"
						}
					},
					"acceptOwnableContracts(address[])": {
						"details": "Must be the pending owner on the contract",
						"params": {
							"ownable": "list of addresses of Ownable contracts to accept"
						}
					},
					"cancelOracleRequest(bytes32,uint256,bytes4,uint256)": {
						"details": "Given params must hash to a commitment stored on the contract in order for the request to be valid. Emits CancelOracleRequest event.",
						"params": {
							"callbackFunc": "The requester's specified callback function selector",
							"expiration": "The time of the expiration for the request",
							"payment": "The amount of payment given (specified in wei)",
							"requestId": "The request ID"
						}
					},
					"cancelOracleRequestByRequester(uint256,uint256,bytes4,uint256)": {
						"details": "Given params must hash to a commitment stored on the contract in order for the request to be valid. Emits CancelOracleRequest event.",
						"params": {
							"callbackFunc": "The requester's specified callback function selector",
							"expiration": "The time of the expiration for the request",
							"nonce": "The nonce used to generate the request ID",
							"payment": "The amount of payment given (specified in wei)"
						}
					},
					"constructor": {
						"details": "Sets the LinkToken address for the imported LinkTokenInterface",
						"params": {
							"link": "The address of the LINK token",
							"owner": "The address of the owner"
						}
					},
					"distributeFunds(address[],uint256[])": {
						"details": "Array length must be equal, ETH sent must equal the sum of amounts. A malicious receiver could cause the distribution to revert, in which case it is expected that the address is removed from the list.",
						"params": {
							"amounts": "list of amounts",
							"receivers": "list of addresses"
						}
					},
					"fulfillOracleRequest(bytes32,uint256,address,bytes4,uint256,bytes32)": {
						"details": "Given params must hash back to the commitment stored from `oracleRequest`. Will call the callback address' callback function without bubbling up error checking in a `require` so that the node can get paid.",
						"params": {
							"callbackAddress": "The callback address to call for fulfillment",
							"callbackFunctionId": "The callback function ID to use for fulfillment",
							"data": "The data to return to the consuming contract",
							"expiration": "The expiration that the node should respond by before the requester can cancel",
							"payment": "The payment amount that will be released for the oracle (specified in wei)",
							"requestId": "The fulfillment request ID that must match the requester's"
						},
						"returns": {
							"_0": "Status if the external call was successful"
						}
					},
					"fulfillOracleRequest2(bytes32,uint256,address,bytes4,uint256,bytes)": {
						"details": "Given params must hash back to the commitment stored from `oracleRequest`. Will call the callback address' callback function without bubbling up error checking in a `require` so that the node can get paid.",
						"params": {
							"callbackAddress": "The callback address to call for fulfillment",
							"callbackFunctionId": "The callback function ID to use for fulfillment",
							"data": "The data to return to the consuming contract",
							"expiration": "The expiration that the node should respond by before the requester can cancel",
							"payment": "The payment amount that will be released for the oracle (specified in wei)",
							"requestId": "The fulfillment request ID that must match the requester's"
						},
						"returns": {
							"_0": "Status if the external call was successful"
						}
					},
					"getAuthorizedSenders()": {
						"returns": {
							"_0": "array of addresses"
						}
					},
					"getChainlinkToken()": {
						"details": "This is the public implementation for chainlinkTokenAddress, which is an internal method of the ChainlinkClient contract"
					},
					"isAuthorizedSender(address)": {
						"params": {
							"sender": "The address of the Chainlink node"
						},
						"returns": {
							"_0": "The authorization status of the node"
						}
					},
					"onTokenTransfer(address,uint256,bytes)": {
						"details": "The data payload's first 2 words will be overwritten by the `sender` and `amount` values to ensure correctness. Calls oracleRequest.",
						"params": {
							"amount": "Amount of LINK sent (specified in wei)",
							"data": "Payload of the transaction",
							"sender": "Address of the sender"
						}
					},
					"operatorRequest(address,uint256,bytes32,bytes4,uint256,uint256,bytes)": {
						"details": "Stores the hash of the params as the on-chain commitment for the request. Emits OracleRequest event for the Chainlink node to detect.",
						"params": {
							"callbackFunctionId": "The callback function ID for the response",
							"data": "The extra request parameters",
							"dataVersion": "The specified data version",
							"nonce": "The nonce sent by the requester",
							"payment": "The amount of payment given (specified in wei)",
							"sender": "The sender of the request",
							"specId": "The Job Specification ID"
						}
					},
					"oracleRequest(address,uint256,bytes32,address,bytes4,uint256,uint256,bytes)": {
						"params": {
							"callbackAddress": "The address the oracle data will be sent to",
							"callbackFunctionId": "The callback function ID for the response",
							"data": "The extra request parameters",
							"dataVersion": "The specified data version",
							"nonce": "The nonce sent by the requester",
							"payment": "The amount of payment given (specified in wei)",
							"specId": "The Job Specification ID"
						}
					},
					"ownerForward(address,bytes)": {
						"details": "Only callable by the owner",
						"params": {
							"data": "to forward",
							"to": "address"
						}
					},
					"ownerTransferAndCall(address,uint256,bytes)": {
						"params": {
							"data": "The extra data to be passed to the receiving contract.",
							"to": "The address to transfer to.",
							"value": "The amount to be transferred."
						},
						"returns": {
							"success": "bool"
						}
					},
					"setAuthorizedSenders(address[])": {
						"params": {
							"senders": "The addresses of the authorized Chainlink node"
						}
					},
					"setAuthorizedSendersOn(address[],address[])": {
						"params": {
							"senders": "The addresses that are allowed to send updates",
							"targets": "The addresses to set permissions on"
						}
					},
					"transferOwnableContracts(address[],address)": {
						"params": {
							"newOwner": "address to transfer ownership to",
							"ownable": "list of addresses to transfer"
						}
					},
					"typeAndVersion()": {
						"returns": {
							"_0": "Type and version string"
						}
					},
					"withdraw(address,uint256)": {
						"details": "The owner of the contract can be another wallet and does not have to be a Chainlink node",
						"params": {
							"amount": "The amount to send (specified in wei)",
							"recipient": "The address to send the LINK token to"
						}
					},
					"withdrawable()": {
						"details": "We use `ONE_FOR_CONSISTENT_GAS_COST` in place of 0 in storage",
						"returns": {
							"_0": "The amount of withdrawable LINK on the contract"
						}
					}
				},
				"title": "The Chainlink Operator contract",
				"version": 1
			},
			"evm": {
				"assembly": "    /* \"@chainlink/contracts/src/v0.7/Operator.sol\":546:23067  contract Operator is AuthorizedReceiver, ConfirmedOwner, LinkTokenReceiver, OperatorInterface, WithdrawalInterface {... */\n  mstore(0x40, 0xa0)\n    /* \"@chainlink/contracts/src/v0.7/Operator.sol\":1341:1342  1 */\n  0x01\n    /* \"@chainlink/contracts/src/v0.7/Operator.sol\":1882:1944  uint256 private s_tokensInEscrow = ONE_FOR_CONSISTENT_GAS_COST */\n  0x06\n  sstore\n    /* \"@chainlink/contracts/src/v0.7/Operator.sol\":2706:2865  constructor(address link, address owner) ConfirmedOwner(owner) {... */\n  callvalue\n  dup1\n  iszero\n  tag_1\n  jumpi\n  0x00\n  dup1\n  revert\ntag_1:\n  pop\n  mload(0x40)\n  sub(codesize, bytecodeSize)\n  dup1\n  bytecodeSize\n  dup4\n  codecopy\n  dup2\n  dup2\n  add\n  0x40\n  mstore\n  0x40\n  dup2\n  lt\n  iszero\n  tag_2\n  jumpi\n  0x00\n  dup1\n  revert\ntag_2:\n  pop\n  dup1\n  mload\n  0x20\n  swap1\n  swap2\n  add\n  mload\n  dup1\n  dup1\n    /* \"@chainlink/contracts/src/v0.7/ConfirmedOwner.sol\":345:346  0 */\n  0x00\n  sub(shl(0xa0, 0x01), 0x01)\n    /* \"@chainlink/contracts/src/v0.7/ConfirmedOwnerWithProposal.sol\":552:574  newOwner != address(0) */\n  dup3\n  and\n    /* \"@chainlink/contracts/src/v0.7/ConfirmedOwnerWithProposal.sol\":544:603  require(newOwner != address(0), \"Cannot set owner to zero\") */\n  tag_7\n  jumpi\n  0x40\n  dup1\n  mload\n  shl(0xe5, 0x461bcd)\n  dup2\n  mstore\n  0x20\n  0x04\n  dup3\n  add\n  mstore\n  0x18\n  0x24\n  dup3\n  add\n  mstore\n  0x43616e6e6f7420736574206f776e657220746f207a65726f0000000000000000\n  0x44\n  dup3\n  add\n  mstore\n  swap1\n  mload\n  swap1\n  dup2\n  swap1\n  sub\n  0x64\n  add\n  swap1\n  revert\ntag_7:\n    /* \"@chainlink/contracts/src/v0.7/ConfirmedOwnerWithProposal.sol\":610:617  s_owner */\n  0x02\n    /* \"@chainlink/contracts/src/v0.7/ConfirmedOwnerWithProposal.sol\":610:628  s_owner = newOwner */\n  dup1\n  sload\n  not(sub(shl(0xa0, 0x01), 0x01))\n  and\n  sub(shl(0xa0, 0x01), 0x01)\n  dup5\n  dup2\n  and\n  swap2\n  swap1\n  swap2\n  or\n  swap1\n  swap2\n  sstore\n    /* \"@chainlink/contracts/src/v0.7/ConfirmedOwnerWithProposal.sol\":638:664  pendingOwner != address(0) */\n  dup2\n  and\n  iszero\n    /* \"@chainlink/contracts/src/v0.7/ConfirmedOwnerWithProposal.sol\":634:713  if (pendingOwner != address(0)) {... */\n  tag_9\n  jumpi\n    /* \"@chainlink/contracts/src/v0.7/ConfirmedOwnerWithProposal.sol\":674:706  _transferOwnership(pendingOwner) */\n  tag_9\n    /* \"@chainlink/contracts/src/v0.7/ConfirmedOwnerWithProposal.sol\":693:705  pendingOwner */\n  dup2\n    /* \"@chainlink/contracts/src/v0.7/ConfirmedOwnerWithProposal.sol\":674:692  _transferOwnership */\n  tag_10\n    /* \"@chainlink/contracts/src/v0.7/ConfirmedOwnerWithProposal.sol\":674:706  _transferOwnership(pendingOwner) */\n  jump\t// in\ntag_9:\n  pop\n  pop\n  pop\n  pop\n    /* \"@chainlink/contracts/src/v0.7/Operator.sol\":2775:2811  linkToken = LinkTokenInterface(link) */\n  0x60\n  shl\n  not(sub(shl(0x60, 0x01), 0x01))\n  and\n  0x80\n  mstore\n    /* \"@chainlink/contracts/src/v0.7/Operator.sol\":546:23067  contract Operator is AuthorizedReceiver, ConfirmedOwner, LinkTokenReceiver, OperatorInterface, WithdrawalInterface {... */\n  jump(tag_13)\n    /* \"@chainlink/contracts/src/v0.7/ConfirmedOwnerWithProposal.sol\":1497:1685  function _transferOwnership(address to) private {... */\ntag_10:\n  sub(shl(0xa0, 0x01), 0x01)\n    /* \"@chainlink/contracts/src/v0.7/ConfirmedOwnerWithProposal.sol\":1559:1575  to != msg.sender */\n  dup2\n  and\n    /* \"@chainlink/contracts/src/v0.7/ConfirmedOwnerWithProposal.sol\":1565:1575  msg.sender */\n  caller\n    /* \"@chainlink/contracts/src/v0.7/ConfirmedOwnerWithProposal.sol\":1559:1575  to != msg.sender */\n  eq\n  iszero\n    /* \"@chainlink/contracts/src/v0.7/ConfirmedOwnerWithProposal.sol\":1551:1603  require(to != msg.sender, \"Cannot transfer to self\") */\n  tag_15\n  jumpi\n  0x40\n  dup1\n  mload\n  shl(0xe5, 0x461bcd)\n  dup2\n  mstore\n  0x20\n  0x04\n  dup3\n  add\n  mstore\n  0x17\n  0x24\n  dup3\n  add\n  mstore\n  0x43616e6e6f74207472616e7366657220746f2073656c66000000000000000000\n  0x44\n  dup3\n  add\n  mstore\n  swap1\n  mload\n  swap1\n  dup2\n  swap1\n  sub\n  0x64\n  add\n  swap1\n  revert\ntag_15:\n    /* \"@chainlink/contracts/src/v0.7/ConfirmedOwnerWithProposal.sol\":1610:1624  s_pendingOwner */\n  0x03\n    /* \"@chainlink/contracts/src/v0.7/ConfirmedOwnerWithProposal.sol\":1610:1629  s_pendingOwner = to */\n  dup1\n  sload\n  not(sub(shl(0xa0, 0x01), 0x01))\n  and\n  sub(shl(0xa0, 0x01), 0x01)\n  dup4\n  dup2\n  and\n  swap2\n  dup3\n  or\n  swap1\n  swap3\n  sstore\n    /* \"@chainlink/contracts/src/v0.7/ConfirmedOwnerWithProposal.sol\":1668:1675  s_owner */\n  sload(0x02)\n    /* \"@chainlink/contracts/src/v0.7/ConfirmedOwnerWithProposal.sol\":1641:1680  OwnershipTransferRequested(s_owner, to) */\n  mload(0x40)\n    /* \"@chainlink/contracts/src/v0.7/ConfirmedOwnerWithProposal.sol\":1610:1629  s_pendingOwner = to */\n  swap2\n  swap3\n    /* \"@chainlink/contracts/src/v0.7/ConfirmedOwnerWithProposal.sol\":1668:1675  s_owner */\n  and\n  swap1\n    /* \"@chainlink/contracts/src/v0.7/ConfirmedOwnerWithProposal.sol\":1641:1680  OwnershipTransferRequested(s_owner, to) */\n  0xed8889f560326eb138920d842192f0eb3dd22b4f139c87a2c57538e05bae1278\n  swap1\n  0x00\n  swap1\n  log3\n    /* \"@chainlink/contracts/src/v0.7/ConfirmedOwnerWithProposal.sol\":1497:1685  function _transferOwnership(address to) private {... */\n  pop\n  jump\t// out\n    /* \"@chainlink/contracts/src/v0.7/Operator.sol\":546:23067  contract Operator is AuthorizedReceiver, ConfirmedOwner, LinkTokenReceiver, OperatorInterface, WithdrawalInterface {... */\ntag_13:\n  shr(0x60, mload(0x80))\n  codecopy(0x00, dataOffset(sub_0), dataSize(sub_0))\n  assignImmutable(\"0x3a6b057b9d48186986616a0f5b0622760f50f4bcc4f1fc92ab446a90a1025914\")\n  return(0x00, dataSize(sub_0))\nstop\n\nsub_0: assembly {\n        /* \"@chainlink/contracts/src/v0.7/Operator.sol\":546:23067  contract Operator is AuthorizedReceiver, ConfirmedOwner, LinkTokenReceiver, OperatorInterface, WithdrawalInterface {... */\n      mstore(0x40, 0x80)\n      jumpi(tag_1, lt(calldatasize, 0x04))\n      shr(0xe0, calldataload(0x00))\n      dup1\n      0x6ae0bc76\n      gt\n      tag_27\n      jumpi\n      dup1\n      0xa4c0ed36\n      gt\n      tag_28\n      jumpi\n      dup1\n      0xf2fde38b\n      gt\n      tag_29\n      jumpi\n      dup1\n      0xf2fde38b\n      eq\n      tag_23\n      jumpi\n      dup1\n      0xf3fef3a3\n      eq\n      tag_24\n      jumpi\n      dup1\n      0xfa00763a\n      eq\n      tag_25\n      jumpi\n      dup1\n      0xfc4a03ed\n      eq\n      tag_26\n      jumpi\n      jump(tag_1)\n    tag_29:\n      dup1\n      0xa4c0ed36\n      eq\n      tag_20\n      jumpi\n      dup1\n      0xeb007d99\n      eq\n      tag_21\n      jumpi\n      dup1\n      0xee56997b\n      eq\n      tag_22\n      jumpi\n      jump(tag_1)\n    tag_28:\n      dup1\n      0x6ae0bc76\n      eq\n      tag_14\n      jumpi\n      dup1\n      0x6bd59ec0\n      eq\n      tag_15\n      jumpi\n      dup1\n      0x6ee4d553\n      eq\n      tag_16\n      jumpi\n      dup1\n      0x79ba5097\n      eq\n      tag_17\n      jumpi\n      dup1\n      0x8da5cb5b\n      eq\n      tag_18\n      jumpi\n      dup1\n      0x902fc370\n      eq\n      tag_19\n      jumpi\n      jump(tag_1)\n    tag_27:\n      dup1\n      0x3c6d41b9\n      gt\n      tag_30\n      jumpi\n      dup1\n      0x3c6d41b9\n      eq\n      tag_8\n      jumpi\n      dup1\n      0x3ec5bc14\n      eq\n      tag_9\n      jumpi\n      dup1\n      0x40429946\n      eq\n      tag_10\n      jumpi\n      dup1\n      0x4ab0d190\n      eq\n      tag_11\n      jumpi\n      dup1\n      0x50188301\n      eq\n      tag_12\n      jumpi\n      dup1\n      0x5ffa6288\n      eq\n      tag_13\n      jumpi\n      jump(tag_1)\n    tag_30:\n      dup1\n      0x01994b99\n      eq\n      tag_2\n      jumpi\n      dup1\n      0x033f49f7\n      eq\n      tag_3\n      jumpi\n      dup1\n      0x165d35e1\n      eq\n      tag_4\n      jumpi\n      dup1\n      0x181f5a77\n      eq\n      tag_5\n      jumpi\n      dup1\n      0x2408afaa\n      eq\n      tag_6\n      jumpi\n      dup1\n      0x25cb5bc0\n      eq\n      tag_7\n      jumpi\n    tag_1:\n      0x00\n      dup1\n      revert\n        /* \"@chainlink/contracts/src/v0.7/Operator.sol\":10128:10424  function acceptOwnableContracts(address[] calldata ownable) public validateAuthorizedSenderSetter {... */\n    tag_2:\n      callvalue\n      dup1\n      iszero\n      tag_31\n      jumpi\n      0x00\n      dup1\n      revert\n    tag_31:\n      pop\n      tag_32\n      0x04\n      dup1\n      calldatasize\n      sub\n      0x20\n      dup2\n      lt\n      iszero\n      tag_33\n      jumpi\n      0x00\n      dup1\n      revert\n    tag_33:\n      dup2\n      add\n      swap1\n      0x20\n      dup2\n      add\n      dup2\n      calldataload\n      shl(0x20, 0x01)\n      dup2\n      gt\n      iszero\n      tag_34\n      jumpi\n      0x00\n      dup1\n      revert\n    tag_34:\n      dup3\n      add\n      dup4\n      0x20\n      dup3\n      add\n      gt\n      iszero\n      tag_35\n      jumpi\n      0x00\n      dup1\n      revert\n    tag_35:\n      dup1\n      calldataload\n      swap1\n      0x20\n      add\n      swap2\n      dup5\n      0x20\n      dup4\n      mul\n      dup5\n      add\n      gt\n      shl(0x20, 0x01)\n      dup4\n      gt\n      or\n      iszero\n      tag_36\n      jumpi\n      0x00\n      dup1\n      revert\n    tag_36:\n      pop\n      swap1\n      swap3\n      pop\n      swap1\n      pop\n      tag_37\n      jump\t// in\n    tag_32:\n      stop\n        /* \"@chainlink/contracts/src/v0.7/Operator.sol\":12665:12909  function ownerForward(address to, bytes calldata data) external onlyOwner validateNotToLINK(to) {... */\n    tag_3:\n      callvalue\n      dup1\n      iszero\n      tag_38\n      jumpi\n      0x00\n      dup1\n      revert\n    tag_38:\n      pop\n      tag_32\n      0x04\n      dup1\n      calldatasize\n      sub\n      0x40\n      dup2\n      lt\n      iszero\n      tag_40\n      jumpi\n      0x00\n      dup1\n      revert\n    tag_40:\n      sub(shl(0xa0, 0x01), 0x01)\n      dup3\n      calldataload\n      and\n      swap2\n      swap1\n      dup2\n      add\n      swap1\n      0x40\n      dup2\n      add\n      0x20\n      dup3\n      add\n      calldataload\n      shl(0x20, 0x01)\n      dup2\n      gt\n      iszero\n      tag_41\n      jumpi\n      0x00\n      dup1\n      revert\n    tag_41:\n      dup3\n      add\n      dup4\n      0x20\n      dup3\n      add\n      gt\n      iszero\n      tag_42\n      jumpi\n      0x00\n      dup1\n      revert\n    tag_42:\n      dup1\n      calldataload\n      swap1\n      0x20\n      add\n      swap2\n      dup5\n      0x01\n      dup4\n      mul\n      dup5\n      add\n      gt\n      shl(0x20, 0x01)\n      dup4\n      gt\n      or\n      iszero\n      tag_43\n      jumpi\n      0x00\n      dup1\n      revert\n    tag_43:\n      pop\n      swap1\n      swap3\n      pop\n      swap1\n      pop\n      tag_44\n      jump\t// in\n        /* \"@chainlink/contracts/src/v0.7/Operator.sol\":16952:17056  function getChainlinkToken() public view override returns (address) {... */\n    tag_4:\n      callvalue\n      dup1\n      iszero\n      tag_45\n      jumpi\n      0x00\n      dup1\n      revert\n    tag_45:\n      pop\n      tag_46\n      tag_47\n      jump\t// in\n    tag_46:\n      0x40\n      dup1\n      mload\n      sub(shl(0xa0, 0x01), 0x01)\n      swap1\n      swap3\n      and\n      dup3\n      mstore\n      mload\n      swap1\n      dup2\n      swap1\n      sub\n      0x20\n      add\n      swap1\n      return\n        /* \"@chainlink/contracts/src/v0.7/Operator.sol\":2969:3075  function typeAndVersion() external pure virtual returns (string memory) {... */\n    tag_5:\n      callvalue\n      dup1\n      iszero\n      tag_48\n      jumpi\n      0x00\n      dup1\n      revert\n    tag_48:\n      pop\n      tag_49\n      tag_50\n      jump\t// in\n    tag_49:\n      0x40\n      dup1\n      mload\n      0x20\n      dup1\n      dup3\n      mstore\n      dup4\n      mload\n      dup2\n      dup4\n      add\n      mstore\n      dup4\n      mload\n      swap2\n      swap3\n      dup4\n      swap3\n      swap1\n      dup4\n      add\n      swap2\n      dup6\n      add\n      swap1\n      dup1\n      dup4\n      dup4\n      0x00\n    tag_51:\n      dup4\n      dup2\n      lt\n      iszero\n      tag_53\n      jumpi\n      dup2\n      dup2\n      add\n      mload\n      dup4\n      dup3\n      add\n      mstore\n      0x20\n      add\n      jump(tag_51)\n    tag_53:\n      pop\n      pop\n      pop\n      pop\n      swap1\n      pop\n      swap1\n      dup2\n      add\n      swap1\n      0x1f\n      and\n      dup1\n      iszero\n      tag_54\n      jumpi\n      dup1\n      dup3\n      sub\n      dup1\n      mload\n      0x01\n      dup4\n      0x20\n      sub\n      0x0100\n      exp\n      sub\n      not\n      and\n      dup2\n      mstore\n      0x20\n      add\n      swap2\n      pop\n    tag_54:\n      pop\n      swap3\n      pop\n      pop\n      pop\n      mload(0x40)\n      dup1\n      swap2\n      sub\n      swap1\n      return\n        /* \"@chainlink/contracts/src/v0.7/AuthorizedReceiver.sol\":1314:1436  function getAuthorizedSenders() external view override returns (address[] memory) {... */\n    tag_6:\n      callvalue\n      dup1\n      iszero\n      tag_55\n      jumpi\n      0x00\n      dup1\n      revert\n    tag_55:\n      pop\n      tag_56\n      tag_57\n      jump\t// in\n    tag_56:\n      0x40\n      dup1\n      mload\n      0x20\n      dup1\n      dup3\n      mstore\n      dup4\n      mload\n      dup2\n      dup4\n      add\n      mstore\n      dup4\n      mload\n      swap2\n      swap3\n      dup4\n      swap3\n      swap1\n      dup4\n      add\n      swap2\n      dup6\n      dup2\n      add\n      swap2\n      mul\n      dup1\n      dup4\n      dup4\n      0x00\n    tag_58:\n      dup4\n      dup2\n      lt\n      iszero\n      tag_60\n      jumpi\n      dup2\n      dup2\n      add\n      mload\n      dup4\n      dup3\n      add\n      mstore\n      0x20\n      add\n      jump(tag_58)\n    tag_60:\n      pop\n      pop\n      pop\n      pop\n      swap1\n      pop\n      add\n      swap3\n      pop\n      pop\n      pop\n      mload(0x40)\n      dup1\n      swap2\n      sub\n      swap1\n      return\n        /* \"@chainlink/contracts/src/v0.7/Operator.sol\":808:857  uint256 public constant getExpiryTime = 5 minutes */\n    tag_7:\n      callvalue\n      dup1\n      iszero\n      tag_61\n      jumpi\n      0x00\n      dup1\n      revert\n    tag_61:\n      pop\n      tag_62\n      tag_63\n      jump\t// in\n    tag_62:\n      0x40\n      dup1\n      mload\n      swap2\n      dup3\n      mstore\n      mload\n      swap1\n      dup2\n      swap1\n      sub\n      0x20\n      add\n      swap1\n      return\n        /* \"@chainlink/contracts/src/v0.7/Operator.sol\":4921:5455  function operatorRequest(... */\n    tag_8:\n      callvalue\n      dup1\n      iszero\n      tag_64\n      jumpi\n      0x00\n      dup1\n      revert\n    tag_64:\n      pop\n      tag_32\n      0x04\n      dup1\n      calldatasize\n      sub\n      0xe0\n      dup2\n      lt\n      iszero\n      tag_66\n      jumpi\n      0x00\n      dup1\n      revert\n    tag_66:\n      sub(shl(0xa0, 0x01), 0x01)\n      dup3\n      calldataload\n      and\n      swap2\n      0x20\n      dup2\n      add\n      calldataload\n      swap2\n      0x40\n      dup3\n      add\n      calldataload\n      swap2\n      not(sub(shl(0xe0, 0x01), 0x01))\n      0x60\n      dup3\n      add\n      calldataload\n      and\n      swap2\n      0x80\n      dup3\n      add\n      calldataload\n      swap2\n      0xa0\n      dup2\n      add\n      calldataload\n      swap2\n      dup2\n      add\n      swap1\n      0xe0\n      dup2\n      add\n      0xc0\n      dup3\n      add\n      calldataload\n      shl(0x20, 0x01)\n      dup2\n      gt\n      iszero\n      tag_67\n      jumpi\n      0x00\n      dup1\n      revert\n    tag_67:\n      dup3\n      add\n      dup4\n      0x20\n      dup3\n      add\n      gt\n      iszero\n      tag_68\n      jumpi\n      0x00\n      dup1\n      revert\n    tag_68:\n      dup1\n      calldataload\n      swap1\n      0x20\n      add\n      swap2\n      dup5\n      0x01\n      dup4\n      mul\n      dup5\n      add\n      gt\n      shl(0x20, 0x01)\n      dup4\n      gt\n      or\n      iszero\n      tag_69\n      jumpi\n      0x00\n      dup1\n      revert\n    tag_69:\n      pop\n      swap1\n      swap3\n      pop\n      swap1\n      pop\n      tag_70\n      jump\t// in\n        /* \"@chainlink/contracts/src/v0.7/Operator.sol\":9548:9808  function transferOwnableContracts(address[] calldata ownable, address newOwner) external onlyOwner {... */\n    tag_9:\n      callvalue\n      dup1\n      iszero\n      tag_71\n      jumpi\n      0x00\n      dup1\n      revert\n    tag_71:\n      pop\n      tag_32\n      0x04\n      dup1\n      calldatasize\n      sub\n      0x40\n      dup2\n      lt\n      iszero\n      tag_73\n      jumpi\n      0x00\n      dup1\n      revert\n    tag_73:\n      dup2\n      add\n      swap1\n      0x20\n      dup2\n      add\n      dup2\n      calldataload\n      shl(0x20, 0x01)\n      dup2\n      gt\n      iszero\n      tag_74\n      jumpi\n      0x00\n      dup1\n      revert\n    tag_74:\n      dup3\n      add\n      dup4\n      0x20\n      dup3\n      add\n      gt\n      iszero\n      tag_75\n      jumpi\n      0x00\n      dup1\n      revert\n    tag_75:\n      dup1\n      calldataload\n      swap1\n      0x20\n      add\n      swap2\n      dup5\n      0x20\n      dup4\n      mul\n      dup5\n      add\n      gt\n      shl(0x20, 0x01)\n      dup4\n      gt\n      or\n      iszero\n      tag_76\n      jumpi\n      0x00\n      dup1\n      revert\n    tag_76:\n      swap2\n      swap4\n      pop\n      swap2\n      pop\n      calldataload\n      sub(shl(0xa0, 0x01), 0x01)\n      and\n      tag_77\n      jump\t// in\n        /* \"@chainlink/contracts/src/v0.7/Operator.sol\":3767:4337  function oracleRequest(... */\n    tag_10:\n      callvalue\n      dup1\n      iszero\n      tag_78\n      jumpi\n      0x00\n      dup1\n      revert\n    tag_78:\n      pop\n      tag_32\n      0x04\n      dup1\n      calldatasize\n      sub\n      0x0100\n      dup2\n      lt\n      iszero\n      tag_80\n      jumpi\n      0x00\n      dup1\n      revert\n    tag_80:\n      sub(shl(0xa0, 0x01), 0x01)\n      dup3\n      calldataload\n      dup2\n      and\n      swap3\n      0x20\n      dup2\n      add\n      calldataload\n      swap3\n      0x40\n      dup3\n      add\n      calldataload\n      swap3\n      0x60\n      dup4\n      add\n      calldataload\n      and\n      swap2\n      not(sub(shl(0xe0, 0x01), 0x01))\n      0x80\n      dup3\n      add\n      calldataload\n      and\n      swap2\n      0xa0\n      dup3\n      add\n      calldataload\n      swap2\n      0xc0\n      dup2\n      add\n      calldataload\n      swap2\n      dup2\n      add\n      swap1\n      0x0100\n      dup2\n      add\n      0xe0\n      dup3\n      add\n      calldataload\n      shl(0x20, 0x01)\n      dup2\n      gt\n      iszero\n      tag_81\n      jumpi\n      0x00\n      dup1\n      revert\n    tag_81:\n      dup3\n      add\n      dup4\n      0x20\n      dup3\n      add\n      gt\n      iszero\n      tag_82\n      jumpi\n      0x00\n      dup1\n      revert\n    tag_82:\n      dup1\n      calldataload\n      swap1\n      0x20\n      add\n      swap2\n      dup5\n      0x01\n      dup4\n      mul\n      dup5\n      add\n      gt\n      shl(0x20, 0x01)\n      dup4\n      gt\n      or\n      iszero\n      tag_83\n      jumpi\n      0x00\n      dup1\n      revert\n    tag_83:\n      pop\n      swap1\n      swap3\n      pop\n      swap1\n      pop\n      tag_84\n      jump\t// in\n        /* \"@chainlink/contracts/src/v0.7/Operator.sol\":6307:7318  function fulfillOracleRequest(... */\n    tag_11:\n      callvalue\n      dup1\n      iszero\n      tag_85\n      jumpi\n      0x00\n      dup1\n      revert\n    tag_85:\n      pop\n      tag_86\n      0x04\n      dup1\n      calldatasize\n      sub\n      0xc0\n      dup2\n      lt\n      iszero\n      tag_87\n      jumpi\n      0x00\n      dup1\n      revert\n    tag_87:\n      pop\n      dup1\n      calldataload\n      swap1\n      0x20\n      dup2\n      add\n      calldataload\n      swap1\n      sub(shl(0xa0, 0x01), 0x01)\n      0x40\n      dup3\n      add\n      calldataload\n      and\n      swap1\n      not(sub(shl(0xe0, 0x01), 0x01))\n      0x60\n      dup3\n      add\n      calldataload\n      and\n      swap1\n      0x80\n      dup2\n      add\n      calldataload\n      swap1\n      0xa0\n      add\n      calldataload\n      tag_88\n      jump\t// in\n    tag_86:\n      0x40\n      dup1\n      mload\n      swap2\n      iszero\n      iszero\n      dup3\n      mstore\n      mload\n      swap1\n      dup2\n      swap1\n      sub\n      0x20\n      add\n      swap1\n      return\n        /* \"@chainlink/contracts/src/v0.7/Operator.sol\":12375:12513  function withdrawable() external view override(OracleInterface, WithdrawalInterface) returns (uint256) {... */\n    tag_12:\n      callvalue\n      dup1\n      iszero\n      tag_89\n      jumpi\n      0x00\n      dup1\n      revert\n    tag_89:\n      pop\n      tag_62\n      tag_91\n      jump\t// in\n        /* \"@chainlink/contracts/src/v0.7/Operator.sol\":11367:11596  function acceptAuthorizedReceivers(address[] calldata targets, address[] calldata senders)... */\n    tag_13:\n      callvalue\n      dup1\n      iszero\n      tag_92\n      jumpi\n      0x00\n      dup1\n      revert\n    tag_92:\n      pop\n      tag_32\n      0x04\n      dup1\n      calldatasize\n      sub\n      0x40\n      dup2\n      lt\n      iszero\n      tag_94\n      jumpi\n      0x00\n      dup1\n      revert\n    tag_94:\n      dup2\n      add\n      swap1\n      0x20\n      dup2\n      add\n      dup2\n      calldataload\n      shl(0x20, 0x01)\n      dup2\n      gt\n      iszero\n      tag_95\n      jumpi\n      0x00\n      dup1\n      revert\n    tag_95:\n      dup3\n      add\n      dup4\n      0x20\n      dup3\n      add\n      gt\n      iszero\n      tag_96\n      jumpi\n      0x00\n      dup1\n      revert\n    tag_96:\n      dup1\n      calldataload\n      swap1\n      0x20\n      add\n      swap2\n      dup5\n      0x20\n      dup4\n      mul\n      dup5\n      add\n      gt\n      shl(0x20, 0x01)\n      dup4\n      gt\n      or\n      iszero\n      tag_97\n      jumpi\n      0x00\n      dup1\n      revert\n    tag_97:\n      swap2\n      swap4\n      swap1\n      swap3\n      swap1\n      swap2\n      0x20\n      dup2\n      add\n      swap1\n      calldataload\n      shl(0x20, 0x01)\n      dup2\n      gt\n      iszero\n      tag_98\n      jumpi\n      0x00\n      dup1\n      revert\n    tag_98:\n      dup3\n      add\n      dup4\n      0x20\n      dup3\n      add\n      gt\n      iszero\n      tag_99\n      jumpi\n      0x00\n      dup1\n      revert\n    tag_99:\n      dup1\n      calldataload\n      swap1\n      0x20\n      add\n      swap2\n      dup5\n      0x20\n      dup4\n      mul\n      dup5\n      add\n      gt\n      shl(0x20, 0x01)\n      dup4\n      gt\n      or\n      iszero\n      tag_100\n      jumpi\n      0x00\n      dup1\n      revert\n    tag_100:\n      pop\n      swap1\n      swap3\n      pop\n      swap1\n      pop\n      tag_101\n      jump\t// in\n        /* \"@chainlink/contracts/src/v0.7/Operator.sol\":8194:9245  function fulfillOracleRequest2(... */\n    tag_14:\n      callvalue\n      dup1\n      iszero\n      tag_102\n      jumpi\n      0x00\n      dup1\n      revert\n    tag_102:\n      pop\n      tag_86\n      0x04\n      dup1\n      calldatasize\n      sub\n      0xc0\n      dup2\n      lt\n      iszero\n      tag_104\n      jumpi\n      0x00\n      dup1\n      revert\n    tag_104:\n      dup2\n      calldataload\n      swap2\n      0x20\n      dup2\n      add\n      calldataload\n      swap2\n      sub(shl(0xa0, 0x01), 0x01)\n      0x40\n      dup4\n      add\n      calldataload\n      and\n      swap2\n      not(sub(shl(0xe0, 0x01), 0x01))\n      0x60\n      dup3\n      add\n      calldataload\n      and\n      swap2\n      0x80\n      dup3\n      add\n      calldataload\n      swap2\n      swap1\n      dup2\n      add\n      swap1\n      0xc0\n      dup2\n      add\n      0xa0\n      dup3\n      add\n      calldataload\n      shl(0x20, 0x01)\n      dup2\n      gt\n      iszero\n      tag_105\n      jumpi\n      0x00\n      dup1\n      revert\n    tag_105:\n      dup3\n      add\n      dup4\n      0x20\n      dup3\n      add\n      gt\n      iszero\n      tag_106\n      jumpi\n      0x00\n      dup1\n      revert\n    tag_106:\n      dup1\n      calldataload\n      swap1\n      0x20\n      add\n      swap2\n      dup5\n      0x01\n      dup4\n      mul\n      dup5\n      add\n      gt\n      shl(0x20, 0x01)\n      dup4\n      gt\n      or\n      iszero\n      tag_107\n      jumpi\n      0x00\n      dup1\n      revert\n    tag_107:\n      pop\n      swap1\n      swap3\n      pop\n      swap1\n      pop\n      tag_108\n      jump\t// in\n        /* \"@chainlink/contracts/src/v0.7/Operator.sol\":13848:14350  function distributeFunds(address payable[] calldata receivers, uint256[] calldata amounts) external payable {... */\n    tag_15:\n      tag_32\n      0x04\n      dup1\n      calldatasize\n      sub\n      0x40\n      dup2\n      lt\n      iszero\n      tag_110\n      jumpi\n      0x00\n      dup1\n      revert\n    tag_110:\n      dup2\n      add\n      swap1\n      0x20\n      dup2\n      add\n      dup2\n      calldataload\n      shl(0x20, 0x01)\n      dup2\n      gt\n      iszero\n      tag_111\n      jumpi\n      0x00\n      dup1\n      revert\n    tag_111:\n      dup3\n      add\n      dup4\n      0x20\n      dup3\n      add\n      gt\n      iszero\n      tag_112\n      jumpi\n      0x00\n      dup1\n      revert\n    tag_112:\n      dup1\n      calldataload\n      swap1\n      0x20\n      add\n      swap2\n      dup5\n      0x20\n      dup4\n      mul\n      dup5\n      add\n      gt\n      shl(0x20, 0x01)\n      dup4\n      gt\n      or\n      iszero\n      tag_113\n      jumpi\n      0x00\n      dup1\n      revert\n    tag_113:\n      swap2\n      swap4\n      swap1\n      swap3\n      swap1\n      swap2\n      0x20\n      dup2\n      add\n      swap1\n      calldataload\n      shl(0x20, 0x01)\n      dup2\n      gt\n      iszero\n      tag_114\n      jumpi\n      0x00\n      dup1\n      revert\n    tag_114:\n      dup3\n      add\n      dup4\n      0x20\n      dup3\n      add\n      gt\n      iszero\n      tag_115\n      jumpi\n      0x00\n      dup1\n      revert\n    tag_115:\n      dup1\n      calldataload\n      swap1\n      0x20\n      add\n      swap2\n      dup5\n      0x20\n      dup4\n      mul\n      dup5\n      add\n      gt\n      shl(0x20, 0x01)\n      dup4\n      gt\n      or\n      iszero\n      tag_116\n      jumpi\n      0x00\n      dup1\n      revert\n    tag_116:\n      pop\n      swap1\n      swap3\n      pop\n      swap1\n      pop\n      tag_117\n      jump\t// in\n        /* \"@chainlink/contracts/src/v0.7/Operator.sol\":14921:15503  function cancelOracleRequest(... */\n    tag_16:\n      callvalue\n      dup1\n      iszero\n      tag_118\n      jumpi\n      0x00\n      dup1\n      revert\n    tag_118:\n      pop\n      tag_32\n      0x04\n      dup1\n      calldatasize\n      sub\n      0x80\n      dup2\n      lt\n      iszero\n      tag_120\n      jumpi\n      0x00\n      dup1\n      revert\n    tag_120:\n      pop\n      dup1\n      calldataload\n      swap1\n      0x20\n      dup2\n      add\n      calldataload\n      swap1\n      not(sub(shl(0xe0, 0x01), 0x01))\n      0x40\n      dup3\n      add\n      calldataload\n      and\n      swap1\n      0x60\n      add\n      calldataload\n      tag_121\n      jump\t// in\n        /* \"@chainlink/contracts/src/v0.7/ConfirmedOwnerWithProposal.sol\":1016:1281  function acceptOwnership() external override {... */\n    tag_17:\n      callvalue\n      dup1\n      iszero\n      tag_122\n      jumpi\n      0x00\n      dup1\n      revert\n    tag_122:\n      pop\n      tag_32\n      tag_124\n      jump\t// in\n        /* \"@chainlink/contracts/src/v0.7/ConfirmedOwnerWithProposal.sol\":1332:1413  function owner() public view override returns (address) {... */\n    tag_18:\n      callvalue\n      dup1\n      iszero\n      tag_125\n      jumpi\n      0x00\n      dup1\n      revert\n    tag_125:\n      pop\n      tag_46\n      tag_127\n      jump\t// in\n        /* \"@chainlink/contracts/src/v0.7/Operator.sol\":13202:13437  function ownerTransferAndCall(... */\n    tag_19:\n      callvalue\n      dup1\n      iszero\n      tag_128\n      jumpi\n      0x00\n      dup1\n      revert\n    tag_128:\n      pop\n      tag_86\n      0x04\n      dup1\n      calldatasize\n      sub\n      0x60\n      dup2\n      lt\n      iszero\n      tag_130\n      jumpi\n      0x00\n      dup1\n      revert\n    tag_130:\n      sub(shl(0xa0, 0x01), 0x01)\n      dup3\n      calldataload\n      and\n      swap2\n      0x20\n      dup2\n      add\n      calldataload\n      swap2\n      dup2\n      add\n      swap1\n      0x60\n      dup2\n      add\n      0x40\n      dup3\n      add\n      calldataload\n      shl(0x20, 0x01)\n      dup2\n      gt\n      iszero\n      tag_131\n      jumpi\n      0x00\n      dup1\n      revert\n    tag_131:\n      dup3\n      add\n      dup4\n      0x20\n      dup3\n      add\n      gt\n      iszero\n      tag_132\n      jumpi\n      0x00\n      dup1\n      revert\n    tag_132:\n      dup1\n      calldataload\n      swap1\n      0x20\n      add\n      swap2\n      dup5\n      0x01\n      dup4\n      mul\n      dup5\n      add\n      gt\n      shl(0x20, 0x01)\n      dup4\n      gt\n      or\n      iszero\n      tag_133\n      jumpi\n      0x00\n      dup1\n      revert\n    tag_133:\n      pop\n      swap1\n      swap3\n      pop\n      swap1\n      pop\n      tag_134\n      jump\t// in\n        /* \"@chainlink/contracts/src/v0.7/LinkTokenReceiver.sol\":476:1091  function onTokenTransfer(... */\n    tag_20:\n      callvalue\n      dup1\n      iszero\n      tag_135\n      jumpi\n      0x00\n      dup1\n      revert\n    tag_135:\n      pop\n      tag_32\n      0x04\n      dup1\n      calldatasize\n      sub\n      0x60\n      dup2\n      lt\n      iszero\n      tag_137\n      jumpi\n      0x00\n      dup1\n      revert\n    tag_137:\n      sub(shl(0xa0, 0x01), 0x01)\n      dup3\n      calldataload\n      and\n      swap2\n      0x20\n      dup2\n      add\n      calldataload\n      swap2\n      dup2\n      add\n      swap1\n      0x60\n      dup2\n      add\n      0x40\n      dup3\n      add\n      calldataload\n      shl(0x20, 0x01)\n      dup2\n      gt\n      iszero\n      tag_138\n      jumpi\n      0x00\n      dup1\n      revert\n    tag_138:\n      dup3\n      add\n      dup4\n      0x20\n      dup3\n      add\n      gt\n      iszero\n      tag_139\n      jumpi\n      0x00\n      dup1\n      revert\n    tag_139:\n      dup1\n      calldataload\n      swap1\n      0x20\n      add\n      swap2\n      dup5\n      0x01\n      dup4\n      mul\n      dup5\n      add\n      gt\n      shl(0x20, 0x01)\n      dup4\n      gt\n      or\n      iszero\n      tag_140\n      jumpi\n      0x00\n      dup1\n      revert\n    tag_140:\n      swap2\n      swap1\n      dup1\n      dup1\n      0x1f\n      add\n      0x20\n      dup1\n      swap2\n      div\n      mul\n      0x20\n      add\n      mload(0x40)\n      swap1\n      dup2\n      add\n      0x40\n      mstore\n      dup1\n      swap4\n      swap3\n      swap2\n      swap1\n      dup2\n      dup2\n      mstore\n      0x20\n      add\n      dup4\n      dup4\n      dup1\n      dup3\n      dup5\n      calldatacopy\n      0x00\n      swap3\n      add\n      swap2\n      swap1\n      swap2\n      mstore\n      pop\n      swap3\n      swap6\n      pop\n      tag_141\n      swap5\n      pop\n      pop\n      pop\n      pop\n      pop\n      jump\t// in\n        /* \"@chainlink/contracts/src/v0.7/Operator.sol\":16097:16749  function cancelOracleRequestByRequester(... */\n    tag_21:\n      callvalue\n      dup1\n      iszero\n      tag_142\n      jumpi\n      0x00\n      dup1\n      revert\n    tag_142:\n      pop\n      tag_32\n      0x04\n      dup1\n      calldatasize\n      sub\n      0x80\n      dup2\n      lt\n      iszero\n      tag_144\n      jumpi\n      0x00\n      dup1\n      revert\n    tag_144:\n      pop\n      dup1\n      calldataload\n      swap1\n      0x20\n      dup2\n      add\n      calldataload\n      swap1\n      not(sub(shl(0xe0, 0x01), 0x01))\n      0x40\n      dup3\n      add\n      calldataload\n      and\n      swap1\n      0x60\n      add\n      calldataload\n      tag_145\n      jump\t// in\n        /* \"@chainlink/contracts/src/v0.7/AuthorizedReceiver.sol\":543:1215  function setAuthorizedSenders(address[] calldata senders) external override validateAuthorizedSenderSetter {... */\n    tag_22:\n      callvalue\n      dup1\n      iszero\n      tag_146\n      jumpi\n      0x00\n      dup1\n      revert\n    tag_146:\n      pop\n      tag_32\n      0x04\n      dup1\n      calldatasize\n      sub\n      0x20\n      dup2\n      lt\n      iszero\n      tag_148\n      jumpi\n      0x00\n      dup1\n      revert\n    tag_148:\n      dup2\n      add\n      swap1\n      0x20\n      dup2\n      add\n      dup2\n      calldataload\n      shl(0x20, 0x01)\n      dup2\n      gt\n      iszero\n      tag_149\n      jumpi\n      0x00\n      dup1\n      revert\n    tag_149:\n      dup3\n      add\n      dup4\n      0x20\n      dup3\n      add\n      gt\n      iszero\n      tag_150\n      jumpi\n      0x00\n      dup1\n      revert\n    tag_150:\n      dup1\n      calldataload\n      swap1\n      0x20\n      add\n      swap2\n      dup5\n      0x20\n      dup4\n      mul\n      dup5\n      add\n      gt\n      shl(0x20, 0x01)\n      dup4\n      gt\n      or\n      iszero\n      tag_151\n      jumpi\n      0x00\n      dup1\n      revert\n    tag_151:\n      pop\n      swap1\n      swap3\n      pop\n      swap1\n      pop\n      tag_152\n      jump\t// in\n        /* \"@chainlink/contracts/src/v0.7/ConfirmedOwnerWithProposal.sol\":826:924  function transferOwnership(address to) public override onlyOwner {... */\n    tag_23:\n      callvalue\n      dup1\n      iszero\n      tag_153\n      jumpi\n      0x00\n      dup1\n      revert\n    tag_153:\n      pop\n      tag_32\n      0x04\n      dup1\n      calldatasize\n      sub\n      0x20\n      dup2\n      lt\n      iszero\n      tag_155\n      jumpi\n      0x00\n      dup1\n      revert\n    tag_155:\n      pop\n      calldataload\n      sub(shl(0xa0, 0x01), 0x01)\n      and\n      tag_156\n      jump\t// in\n        /* \"@chainlink/contracts/src/v0.7/Operator.sol\":11909:12133  function withdraw(address recipient, uint256 amount)... */\n    tag_24:\n      callvalue\n      dup1\n      iszero\n      tag_157\n      jumpi\n      0x00\n      dup1\n      revert\n    tag_157:\n      pop\n      tag_32\n      0x04\n      dup1\n      calldatasize\n      sub\n      0x40\n      dup2\n      lt\n      iszero\n      tag_159\n      jumpi\n      0x00\n      dup1\n      revert\n    tag_159:\n      pop\n      sub(shl(0xa0, 0x01), 0x01)\n      dup2\n      calldataload\n      and\n      swap1\n      0x20\n      add\n      calldataload\n      tag_160\n      jump\t// in\n        /* \"@chainlink/contracts/src/v0.7/AuthorizedReceiver.sol\":1634:1759  function isAuthorizedSender(address sender) public view override returns (bool) {... */\n    tag_25:\n      callvalue\n      dup1\n      iszero\n      tag_161\n      jumpi\n      0x00\n      dup1\n      revert\n    tag_161:\n      pop\n      tag_86\n      0x04\n      dup1\n      calldatasize\n      sub\n      0x20\n      dup2\n      lt\n      iszero\n      tag_163\n      jumpi\n      0x00\n      dup1\n      revert\n    tag_163:\n      pop\n      calldataload\n      sub(shl(0xa0, 0x01), 0x01)\n      and\n      tag_164\n      jump\t// in\n        /* \"@chainlink/contracts/src/v0.7/Operator.sol\":10612:10955  function setAuthorizedSendersOn(address[] calldata targets, address[] calldata senders)... */\n    tag_26:\n      callvalue\n      dup1\n      iszero\n      tag_165\n      jumpi\n      0x00\n      dup1\n      revert\n    tag_165:\n      pop\n      tag_32\n      0x04\n      dup1\n      calldatasize\n      sub\n      0x40\n      dup2\n      lt\n      iszero\n      tag_167\n      jumpi\n      0x00\n      dup1\n      revert\n    tag_167:\n      dup2\n      add\n      swap1\n      0x20\n      dup2\n      add\n      dup2\n      calldataload\n      shl(0x20, 0x01)\n      dup2\n      gt\n      iszero\n      tag_168\n      jumpi\n      0x00\n      dup1\n      revert\n    tag_168:\n      dup3\n      add\n      dup4\n      0x20\n      dup3\n      add\n      gt\n      iszero\n      tag_169\n      jumpi\n      0x00\n      dup1\n      revert\n    tag_169:\n      dup1\n      calldataload\n      swap1\n      0x20\n      add\n      swap2\n      dup5\n      0x20\n      dup4\n      mul\n      dup5\n      add\n      gt\n      shl(0x20, 0x01)\n      dup4\n      gt\n      or\n      iszero\n      tag_170\n      jumpi\n      0x00\n      dup1\n      revert\n    tag_170:\n      swap2\n      swap4\n      swap1\n      swap3\n      swap1\n      swap2\n      0x20\n      dup2\n      add\n      swap1\n      calldataload\n      shl(0x20, 0x01)\n      dup2\n      gt\n      iszero\n      tag_171\n      jumpi\n      0x00\n      dup1\n      revert\n    tag_171:\n      dup3\n      add\n      dup4\n      0x20\n      dup3\n      add\n      gt\n      iszero\n      tag_172\n      jumpi\n      0x00\n      dup1\n      revert\n    tag_172:\n      dup1\n      calldataload\n      swap1\n      0x20\n      add\n      swap2\n      dup5\n      0x20\n      dup4\n      mul\n      dup5\n      add\n      gt\n      shl(0x20, 0x01)\n      dup4\n      gt\n      or\n      iszero\n      tag_173\n      jumpi\n      0x00\n      dup1\n      revert\n    tag_173:\n      pop\n      swap1\n      swap3\n      pop\n      swap1\n      pop\n      tag_174\n      jump\t// in\n        /* \"@chainlink/contracts/src/v0.7/Operator.sol\":10128:10424  function acceptOwnableContracts(address[] calldata ownable) public validateAuthorizedSenderSetter {... */\n    tag_37:\n        /* \"@chainlink/contracts/src/v0.7/AuthorizedReceiver.sol\":2504:2530  _canSetAuthorizedSenders() */\n      tag_176\n        /* \"@chainlink/contracts/src/v0.7/AuthorizedReceiver.sol\":2504:2528  _canSetAuthorizedSenders */\n      tag_177\n        /* \"@chainlink/contracts/src/v0.7/AuthorizedReceiver.sol\":2504:2530  _canSetAuthorizedSenders() */\n      jump\t// in\n    tag_176:\n        /* \"@chainlink/contracts/src/v0.7/AuthorizedReceiver.sol\":2496:2564  require(_canSetAuthorizedSenders(), \"Cannot set authorized senders\") */\n      tag_178\n      jumpi\n      0x40\n      dup1\n      mload\n      shl(0xe5, 0x461bcd)\n      dup2\n      mstore\n      0x20\n      0x04\n      dup3\n      add\n      mstore\n      0x1d\n      0x24\n      dup3\n      add\n      mstore\n      0x00\n      dup1\n      mload\n      0x20\n      data_079032fd9b86c16fcb0f8244dac8a4e899ee4a34a2e7f6cd2fb0f6c233f00b83\n      dup4\n      codecopy\n      dup2\n      mload\n      swap2\n      mstore\n      0x44\n      dup3\n      add\n      mstore\n      swap1\n      mload\n      swap1\n      dup2\n      swap1\n      sub\n      0x64\n      add\n      swap1\n      revert\n    tag_178:\n        /* \"@chainlink/contracts/src/v0.7/Operator.sol\":10237:10246  uint256 i */\n      0x00\n        /* \"@chainlink/contracts/src/v0.7/Operator.sol\":10232:10420  for (uint256 i = 0; i < ownable.length; i++) {... */\n    tag_180:\n        /* \"@chainlink/contracts/src/v0.7/Operator.sol\":10252:10270  i < ownable.length */\n      dup2\n      dup2\n      lt\n        /* \"@chainlink/contracts/src/v0.7/Operator.sol\":10232:10420  for (uint256 i = 0; i < ownable.length; i++) {... */\n      iszero\n      tag_181\n      jumpi\n        /* \"@chainlink/contracts/src/v0.7/Operator.sol\":10307:10311  true */\n      0x01\n        /* \"@chainlink/contracts/src/v0.7/Operator.sol\":10285:10292  s_owned */\n      0x05\n        /* \"@chainlink/contracts/src/v0.7/Operator.sol\":10285:10304  s_owned[ownable[i]] */\n      0x00\n        /* \"@chainlink/contracts/src/v0.7/Operator.sol\":10293:10300  ownable */\n      dup6\n      dup6\n        /* \"@chainlink/contracts/src/v0.7/Operator.sol\":10301:10302  i */\n      dup6\n        /* \"@chainlink/contracts/src/v0.7/Operator.sol\":10293:10303  ownable[i] */\n      dup2\n      dup2\n      lt\n      tag_183\n      jumpi\n      invalid\n    tag_183:\n      swap1\n      pop\n      0x20\n      mul\n      add\n      calldataload\n      sub(shl(0xa0, 0x01), 0x01)\n      and\n      sub(shl(0xa0, 0x01), 0x01)\n        /* \"@chainlink/contracts/src/v0.7/Operator.sol\":10285:10304  s_owned[ownable[i]] */\n      and\n      sub(shl(0xa0, 0x01), 0x01)\n      and\n      dup2\n      mstore\n      0x20\n      add\n      swap1\n      dup2\n      mstore\n      0x20\n      add\n      0x00\n      keccak256\n      0x00\n        /* \"@chainlink/contracts/src/v0.7/Operator.sol\":10285:10311  s_owned[ownable[i]] = true */\n      0x0100\n      exp\n      dup2\n      sload\n      dup2\n      0xff\n      mul\n      not\n      and\n      swap1\n      dup4\n      iszero\n      iszero\n      mul\n      or\n      swap1\n      sstore\n      pop\n        /* \"@chainlink/contracts/src/v0.7/Operator.sol\":10348:10355  ownable */\n      dup3\n      dup3\n        /* \"@chainlink/contracts/src/v0.7/Operator.sol\":10356:10357  i */\n      dup3\n        /* \"@chainlink/contracts/src/v0.7/Operator.sol\":10348:10358  ownable[i] */\n      dup2\n      dup2\n      lt\n      tag_184\n      jumpi\n      invalid\n    tag_184:\n      swap1\n      pop\n      0x20\n      mul\n      add\n      calldataload\n      sub(shl(0xa0, 0x01), 0x01)\n      and\n      sub(shl(0xa0, 0x01), 0x01)\n        /* \"@chainlink/contracts/src/v0.7/Operator.sol\":10324:10359  OwnableContractAccepted(ownable[i]) */\n      and\n      0x615a0c1cb00a60d4acd77ec67acf2f17f223ef0932d591052fabc33643fe7e82\n      mload(0x40)\n      mload(0x40)\n      dup1\n      swap2\n      sub\n      swap1\n      log2\n        /* \"@chainlink/contracts/src/v0.7/Operator.sol\":10384:10391  ownable */\n      dup3\n      dup3\n        /* \"@chainlink/contracts/src/v0.7/Operator.sol\":10392:10393  i */\n      dup3\n        /* \"@chainlink/contracts/src/v0.7/Operator.sol\":10384:10394  ownable[i] */\n      dup2\n      dup2\n      lt\n      tag_185\n      jumpi\n      invalid\n    tag_185:\n      swap1\n      pop\n      0x20\n      mul\n      add\n      calldataload\n      sub(shl(0xa0, 0x01), 0x01)\n      and\n      sub(shl(0xa0, 0x01), 0x01)\n        /* \"@chainlink/contracts/src/v0.7/Operator.sol\":10367:10411  OwnableInterface(ownable[i]).acceptOwnership */\n      and\n      0x79ba5097\n        /* \"@chainlink/contracts/src/v0.7/Operator.sol\":10367:10413  OwnableInterface(ownable[i]).acceptOwnership() */\n      mload(0x40)\n      dup2\n      0xffffffff\n      and\n      0xe0\n      shl\n      dup2\n      mstore\n      0x04\n      add\n      0x00\n      mload(0x40)\n      dup1\n      dup4\n      sub\n      dup2\n      0x00\n      dup8\n      dup1\n      extcodesize\n      iszero\n      dup1\n      iszero\n      tag_186\n      jumpi\n      0x00\n      dup1\n      revert\n    tag_186:\n      pop\n      gas\n      call\n      iszero\n      dup1\n      iszero\n      tag_188\n      jumpi\n      returndatasize\n      0x00\n      dup1\n      returndatacopy\n      revert(0x00, returndatasize)\n    tag_188:\n      pop\n      pop\n        /* \"@chainlink/contracts/src/v0.7/Operator.sol\":10272:10275  i++ */\n      0x01\n      swap1\n      swap3\n      add\n      swap2\n      pop\n        /* \"@chainlink/contracts/src/v0.7/Operator.sol\":10232:10420  for (uint256 i = 0; i < ownable.length; i++) {... */\n      tag_180\n      swap1\n      pop\n      jump\n    tag_181:\n      pop\n        /* \"@chainlink/contracts/src/v0.7/Operator.sol\":10128:10424  function acceptOwnableContracts(address[] calldata ownable) public validateAuthorizedSenderSetter {... */\n      pop\n      pop\n      jump\t// out\n        /* \"@chainlink/contracts/src/v0.7/Operator.sol\":12665:12909  function ownerForward(address to, bytes calldata data) external onlyOwner validateNotToLINK(to) {... */\n    tag_44:\n        /* \"@chainlink/contracts/src/v0.7/ConfirmedOwnerWithProposal.sol\":1956:1976  _validateOwnership() */\n      tag_190\n        /* \"@chainlink/contracts/src/v0.7/ConfirmedOwnerWithProposal.sol\":1956:1974  _validateOwnership */\n      tag_191\n        /* \"@chainlink/contracts/src/v0.7/ConfirmedOwnerWithProposal.sol\":1956:1976  _validateOwnership() */\n      jump\t// in\n    tag_190:\n        /* \"@chainlink/contracts/src/v0.7/Operator.sol\":12757:12759  to */\n      dup3\n        /* \"@chainlink/contracts/src/v0.7/Operator.sol\":22798:22807  linkToken */\n      immutable(\"0x3a6b057b9d48186986616a0f5b0622760f50f4bcc4f1fc92ab446a90a1025914\")\n      sub(shl(0xa0, 0x01), 0x01)\n        /* \"@chainlink/contracts/src/v0.7/Operator.sol\":22784:22808  to != address(linkToken) */\n      and\n        /* \"@chainlink/contracts/src/v0.7/Operator.sol\":22784:22786  to */\n      dup2\n      sub(shl(0xa0, 0x01), 0x01)\n        /* \"@chainlink/contracts/src/v0.7/Operator.sol\":22784:22808  to != address(linkToken) */\n      and\n      eq\n      iszero\n        /* \"@chainlink/contracts/src/v0.7/Operator.sol\":22776:22832  require(to != address(linkToken), \"Cannot call to LINK\") */\n      tag_193\n      jumpi\n      0x40\n      dup1\n      mload\n      shl(0xe5, 0x461bcd)\n      dup2\n      mstore\n      0x20\n      0x04\n      dup3\n      add\n      mstore\n      0x13\n      0x24\n      dup3\n      add\n      mstore\n      shl(0x68, 0x43616e6e6f742063616c6c20746f204c494e4b)\n      0x44\n      dup3\n      add\n      mstore\n      swap1\n      mload\n      swap1\n      dup2\n      swap1\n      sub\n      0x64\n      add\n      swap1\n      revert\n    tag_193:\n        /* \"@chainlink/contracts/src/v0.7/Operator.sol\":12775:12790  to.isContract() */\n      tag_195\n        /* \"@chainlink/contracts/src/v0.7/Operator.sol\":12775:12777  to */\n      dup5\n      sub(shl(0xa0, 0x01), 0x01)\n        /* \"@chainlink/contracts/src/v0.7/Operator.sol\":12775:12788  to.isContract */\n      and\n      tag_196\n        /* \"@chainlink/contracts/src/v0.7/Operator.sol\":12775:12790  to.isContract() */\n      jump\t// in\n    tag_195:\n        /* \"@chainlink/contracts/src/v0.7/Operator.sol\":12767:12821  require(to.isContract(), \"Must forward to a contract\") */\n      tag_197\n      jumpi\n      0x40\n      dup1\n      mload\n      shl(0xe5, 0x461bcd)\n      dup2\n      mstore\n      0x20\n      0x04\n      dup3\n      add\n      mstore\n      0x1a\n      0x24\n      dup3\n      add\n      mstore\n      0x4d75737420666f727761726420746f206120636f6e7472616374000000000000\n      0x44\n      dup3\n      add\n      mstore\n      swap1\n      mload\n      swap1\n      dup2\n      swap1\n      sub\n      0x64\n      add\n      swap1\n      revert\n    tag_197:\n        /* \"@chainlink/contracts/src/v0.7/Operator.sol\":12828:12839  bool status */\n      0x00\n        /* \"@chainlink/contracts/src/v0.7/Operator.sol\":12845:12847  to */\n      dup5\n      sub(shl(0xa0, 0x01), 0x01)\n        /* \"@chainlink/contracts/src/v0.7/Operator.sol\":12845:12852  to.call */\n      and\n        /* \"@chainlink/contracts/src/v0.7/Operator.sol\":12853:12857  data */\n      dup5\n      dup5\n        /* \"@chainlink/contracts/src/v0.7/Operator.sol\":12845:12858  to.call(data) */\n      mload(0x40)\n      dup1\n      dup4\n      dup4\n      dup1\n      dup3\n      dup5\n      calldatacopy\n      mload(0x40)\n      swap3\n      add\n      swap5\n      pop\n      0x00\n      swap4\n      pop\n      swap1\n      swap2\n      pop\n      pop\n      dup1\n      dup4\n      sub\n      dup2\n      dup4\n      dup7\n      gas\n      call\n      swap2\n      pop\n      pop\n      returndatasize\n      dup1\n      0x00\n      dup2\n      eq\n      tag_200\n      jumpi\n      mload(0x40)\n      swap2\n      pop\n      and(add(returndatasize, 0x3f), not(0x1f))\n      dup3\n      add\n      0x40\n      mstore\n      returndatasize\n      dup3\n      mstore\n      returndatasize\n      0x00\n      0x20\n      dup5\n      add\n      returndatacopy\n      jump(tag_199)\n    tag_200:\n      0x60\n      swap2\n      pop\n    tag_199:\n      pop\n        /* \"@chainlink/contracts/src/v0.7/Operator.sol\":12827:12858  (bool status, ) = to.call(data) */\n      pop\n      swap1\n      pop\n        /* \"@chainlink/contracts/src/v0.7/Operator.sol\":12872:12878  status */\n      dup1\n        /* \"@chainlink/contracts/src/v0.7/Operator.sol\":12864:12904  require(status, \"Forwarded call failed\") */\n      tag_201\n      jumpi\n      0x40\n      dup1\n      mload\n      shl(0xe5, 0x461bcd)\n      dup2\n      mstore\n      0x20\n      0x04\n      dup3\n      add\n      mstore\n      0x15\n      0x24\n      dup3\n      add\n      mstore\n      shl(0x5a, 0x119bdc9dd85c9919590818d85b1b0819985a5b1959)\n      0x44\n      dup3\n      add\n      mstore\n      swap1\n      mload\n      swap1\n      dup2\n      swap1\n      sub\n      0x64\n      add\n      swap1\n      revert\n    tag_201:\n        /* \"@chainlink/contracts/src/v0.7/Operator.sol\":22838:22839  _ */\n      pop\n        /* \"@chainlink/contracts/src/v0.7/ConfirmedOwnerWithProposal.sol\":1982:1983  _ */\n      pop\n        /* \"@chainlink/contracts/src/v0.7/Operator.sol\":12665:12909  function ownerForward(address to, bytes calldata data) external onlyOwner validateNotToLINK(to) {... */\n      pop\n      pop\n      pop\n      jump\t// out\n        /* \"@chainlink/contracts/src/v0.7/Operator.sol\":16952:17056  function getChainlinkToken() public view override returns (address) {... */\n    tag_47:\n        /* \"@chainlink/contracts/src/v0.7/Operator.sol\":17041:17050  linkToken */\n      immutable(\"0x3a6b057b9d48186986616a0f5b0622760f50f4bcc4f1fc92ab446a90a1025914\")\n        /* \"@chainlink/contracts/src/v0.7/Operator.sol\":16952:17056  function getChainlinkToken() public view override returns (address) {... */\n      swap1\n      jump\t// out\n        /* \"@chainlink/contracts/src/v0.7/Operator.sol\":2969:3075  function typeAndVersion() external pure virtual returns (string memory) {... */\n    tag_50:\n        /* \"@chainlink/contracts/src/v0.7/Operator.sol\":3047:3070  return \"Operator 1.0.0\" */\n      0x40\n      dup1\n      mload\n      dup1\n      dup3\n      add\n      swap1\n      swap2\n      mstore\n      0x0e\n      dup2\n      mstore\n      shl(0x94, 0x04f70657261746f7220312e302e3)\n      0x20\n      dup3\n      add\n      mstore\n        /* \"@chainlink/contracts/src/v0.7/Operator.sol\":2969:3075  function typeAndVersion() external pure virtual returns (string memory) {... */\n      swap1\n      jump\t// out\n        /* \"@chainlink/contracts/src/v0.7/AuthorizedReceiver.sol\":1314:1436  function getAuthorizedSenders() external view override returns (address[] memory) {... */\n    tag_57:\n        /* \"@chainlink/contracts/src/v0.7/AuthorizedReceiver.sol\":1378:1394  address[] memory */\n      0x60\n        /* \"@chainlink/contracts/src/v0.7/AuthorizedReceiver.sol\":1409:1431  s_authorizedSenderList */\n      0x01\n        /* \"@chainlink/contracts/src/v0.7/AuthorizedReceiver.sol\":1402:1431  return s_authorizedSenderList */\n      dup1\n      sload\n      dup1\n      0x20\n      mul\n      0x20\n      add\n      mload(0x40)\n      swap1\n      dup2\n      add\n      0x40\n      mstore\n      dup1\n      swap3\n      swap2\n      swap1\n      dup2\n      dup2\n      mstore\n      0x20\n      add\n      dup3\n      dup1\n      sload\n      dup1\n      iszero\n      tag_205\n      jumpi\n      0x20\n      mul\n      dup3\n      add\n      swap2\n      swap1\n      0x00\n      mstore\n      keccak256(0x00, 0x20)\n      swap1\n    tag_206:\n      dup2\n      sload\n      sub(shl(0xa0, 0x01), 0x01)\n      and\n      dup2\n      mstore\n      0x01\n      swap1\n      swap2\n      add\n      swap1\n      0x20\n      add\n      dup1\n      dup4\n      gt\n      tag_206\n      jumpi\n    tag_205:\n      pop\n      pop\n      pop\n      pop\n      pop\n      swap1\n      pop\n        /* \"@chainlink/contracts/src/v0.7/AuthorizedReceiver.sol\":1314:1436  function getAuthorizedSenders() external view override returns (address[] memory) {... */\n      swap1\n      jump\t// out\n        /* \"@chainlink/contracts/src/v0.7/Operator.sol\":808:857  uint256 public constant getExpiryTime = 5 minutes */\n    tag_63:\n        /* \"@chainlink/contracts/src/v0.7/Operator.sol\":848:857  5 minutes */\n      0x012c\n        /* \"@chainlink/contracts/src/v0.7/Operator.sol\":808:857  uint256 public constant getExpiryTime = 5 minutes */\n      dup2\n      jump\t// out\n        /* \"@chainlink/contracts/src/v0.7/Operator.sol\":4921:5455  function operatorRequest(... */\n    tag_70:\n        /* \"@chainlink/contracts/src/v0.7/LinkTokenReceiver.sol\":1455:1474  getChainlinkToken() */\n      tag_208\n        /* \"@chainlink/contracts/src/v0.7/LinkTokenReceiver.sol\":1455:1472  getChainlinkToken */\n      tag_47\n        /* \"@chainlink/contracts/src/v0.7/LinkTokenReceiver.sol\":1455:1474  getChainlinkToken() */\n      jump\t// in\n    tag_208:\n      sub(shl(0xa0, 0x01), 0x01)\n        /* \"@chainlink/contracts/src/v0.7/LinkTokenReceiver.sol\":1441:1474  msg.sender == getChainlinkToken() */\n      and\n        /* \"@chainlink/contracts/src/v0.7/LinkTokenReceiver.sol\":1441:1451  msg.sender */\n      caller\n      sub(shl(0xa0, 0x01), 0x01)\n        /* \"@chainlink/contracts/src/v0.7/LinkTokenReceiver.sol\":1441:1474  msg.sender == getChainlinkToken() */\n      and\n      eq\n        /* \"@chainlink/contracts/src/v0.7/LinkTokenReceiver.sol\":1433:1498  require(msg.sender == getChainlinkToken(), \"Must use LINK token\") */\n      tag_209\n      jumpi\n      0x40\n      dup1\n      mload\n      shl(0xe5, 0x461bcd)\n      dup2\n      mstore\n      0x20\n      0x04\n      dup3\n      add\n      mstore\n      0x13\n      0x24\n      dup3\n      add\n      mstore\n      shl(0x69, 0x26bab9ba103ab9b2902624a725903a37b5b2b7)\n      0x44\n      dup3\n      add\n      mstore\n      swap1\n      mload\n      swap1\n      dup2\n      swap1\n      sub\n      0x64\n      add\n      swap1\n      revert\n    tag_209:\n        /* \"@chainlink/contracts/src/v0.7/Operator.sol\":5153:5170  bytes32 requestId */\n      0x00\n        /* \"@chainlink/contracts/src/v0.7/Operator.sol\":5172:5190  uint256 expiration */\n      dup1\n        /* \"@chainlink/contracts/src/v0.7/Operator.sol\":5194:5331  _verifyAndProcessOracleRequest(... */\n      tag_211\n        /* \"@chainlink/contracts/src/v0.7/Operator.sol\":5232:5238  sender */\n      dup11\n        /* \"@chainlink/contracts/src/v0.7/Operator.sol\":5246:5253  payment */\n      dup11\n        /* \"@chainlink/contracts/src/v0.7/Operator.sol\":5261:5267  sender */\n      dup13\n        /* \"@chainlink/contracts/src/v0.7/Operator.sol\":5275:5293  callbackFunctionId */\n      dup11\n        /* \"@chainlink/contracts/src/v0.7/Operator.sol\":5301:5306  nonce */\n      dup11\n        /* \"@chainlink/contracts/src/v0.7/Operator.sol\":5314:5325  dataVersion */\n      dup11\n        /* \"@chainlink/contracts/src/v0.7/Operator.sol\":5194:5224  _verifyAndProcessOracleRequest */\n      tag_212\n        /* \"@chainlink/contracts/src/v0.7/Operator.sol\":5194:5331  _verifyAndProcessOracleRequest(... */\n      jump\t// in\n    tag_211:\n        /* \"@chainlink/contracts/src/v0.7/Operator.sol\":5152:5331  (bytes32 requestId, uint256 expiration) = _verifyAndProcessOracleRequest(... */\n      swap2\n      pop\n      swap2\n      pop\n        /* \"@chainlink/contracts/src/v0.7/Operator.sol\":5356:5362  specId */\n      dup8\n        /* \"@chainlink/contracts/src/v0.7/Operator.sol\":5342:5450  OracleRequest(specId, sender, requestId, payment, sender, callbackFunctionId, expiration, dataVersion, data) */\n      0xd8d7ecc4800d25fa53ce0372f13a416d98907a7ef3d8d3bdd79cf4fe75529c65\n        /* \"@chainlink/contracts/src/v0.7/Operator.sol\":5364:5370  sender */\n      dup12\n        /* \"@chainlink/contracts/src/v0.7/Operator.sol\":5372:5381  requestId */\n      dup5\n        /* \"@chainlink/contracts/src/v0.7/Operator.sol\":5383:5390  payment */\n      dup13\n        /* \"@chainlink/contracts/src/v0.7/Operator.sol\":5392:5398  sender */\n      dup15\n        /* \"@chainlink/contracts/src/v0.7/Operator.sol\":5400:5418  callbackFunctionId */\n      dup13\n        /* \"@chainlink/contracts/src/v0.7/Operator.sol\":5420:5430  expiration */\n      dup8\n        /* \"@chainlink/contracts/src/v0.7/Operator.sol\":5432:5443  dataVersion */\n      dup13\n        /* \"@chainlink/contracts/src/v0.7/Operator.sol\":5445:5449  data */\n      dup13\n      dup13\n        /* \"@chainlink/contracts/src/v0.7/Operator.sol\":5342:5450  OracleRequest(specId, sender, requestId, payment, sender, callbackFunctionId, expiration, dataVersion, data) */\n      mload(0x40)\n      dup1\n      dup11\n      sub(shl(0xa0, 0x01), 0x01)\n      and\n      dup2\n      mstore\n      0x20\n      add\n      dup10\n      dup2\n      mstore\n      0x20\n      add\n      dup9\n      dup2\n      mstore\n      0x20\n      add\n      dup8\n      sub(shl(0xa0, 0x01), 0x01)\n      and\n      dup2\n      mstore\n      0x20\n      add\n      dup7\n      not(sub(shl(0xe0, 0x01), 0x01))\n      and\n      dup2\n      mstore\n      0x20\n      add\n      dup6\n      dup2\n      mstore\n      0x20\n      add\n      dup5\n      dup2\n      mstore\n      0x20\n      add\n      dup1\n      0x20\n      add\n      dup3\n      dup2\n      sub\n      dup3\n      mstore\n      dup5\n      dup5\n      dup3\n      dup2\n      dup2\n      mstore\n      0x20\n      add\n      swap3\n      pop\n      dup1\n      dup3\n      dup5\n      calldatacopy\n      0x00\n      dup4\n      dup3\n      add\n      mstore\n      mload(0x40)\n      0x1f\n      swap1\n      swap2\n      add\n      not(0x1f)\n      and\n      swap1\n      swap3\n      add\n      dup3\n      swap1\n      sub\n      swap13\n      pop\n      swap1\n      swap11\n      pop\n      pop\n      pop\n      pop\n      pop\n      pop\n      pop\n      pop\n      pop\n      pop\n      pop\n      log2\n        /* \"@chainlink/contracts/src/v0.7/LinkTokenReceiver.sol\":1504:1505  _ */\n      pop\n      pop\n        /* \"@chainlink/contracts/src/v0.7/Operator.sol\":4921:5455  function operatorRequest(... */\n      pop\n      pop\n      pop\n      pop\n      pop\n      pop\n      pop\n      pop\n      jump\t// out\n        /* \"@chainlink/contracts/src/v0.7/Operator.sol\":9548:9808  function transferOwnableContracts(address[] calldata ownable, address newOwner) external onlyOwner {... */\n    tag_77:\n        /* \"@chainlink/contracts/src/v0.7/ConfirmedOwnerWithProposal.sol\":1956:1976  _validateOwnership() */\n      tag_214\n        /* \"@chainlink/contracts/src/v0.7/ConfirmedOwnerWithProposal.sol\":1956:1974  _validateOwnership */\n      tag_191\n        /* \"@chainlink/contracts/src/v0.7/ConfirmedOwnerWithProposal.sol\":1956:1976  _validateOwnership() */\n      jump\t// in\n    tag_214:\n        /* \"@chainlink/contracts/src/v0.7/Operator.sol\":9658:9667  uint256 i */\n      0x00\n        /* \"@chainlink/contracts/src/v0.7/Operator.sol\":9653:9804  for (uint256 i = 0; i < ownable.length; i++) {... */\n    tag_216:\n        /* \"@chainlink/contracts/src/v0.7/Operator.sol\":9673:9691  i < ownable.length */\n      dup3\n      dup2\n      lt\n        /* \"@chainlink/contracts/src/v0.7/Operator.sol\":9653:9804  for (uint256 i = 0; i < ownable.length; i++) {... */\n      iszero\n      tag_217\n      jumpi\n        /* \"@chainlink/contracts/src/v0.7/Operator.sol\":9728:9733  false */\n      0x00\n        /* \"@chainlink/contracts/src/v0.7/Operator.sol\":9706:9713  s_owned */\n      0x05\n        /* \"@chainlink/contracts/src/v0.7/Operator.sol\":9706:9725  s_owned[ownable[i]] */\n      0x00\n        /* \"@chainlink/contracts/src/v0.7/Operator.sol\":9714:9721  ownable */\n      dup7\n      dup7\n        /* \"@chainlink/contracts/src/v0.7/Operator.sol\":9722:9723  i */\n      dup6\n        /* \"@chainlink/contracts/src/v0.7/Operator.sol\":9714:9724  ownable[i] */\n      dup2\n      dup2\n      lt\n      tag_219\n      jumpi\n      invalid\n    tag_219:\n      swap1\n      pop\n      0x20\n      mul\n      add\n      calldataload\n      sub(shl(0xa0, 0x01), 0x01)\n      and\n      sub(shl(0xa0, 0x01), 0x01)\n        /* \"@chainlink/contracts/src/v0.7/Operator.sol\":9706:9725  s_owned[ownable[i]] */\n      and\n      sub(shl(0xa0, 0x01), 0x01)\n      and\n      dup2\n      mstore\n      0x20\n      add\n      swap1\n      dup2\n      mstore\n      0x20\n      add\n      0x00\n      keccak256\n      0x00\n        /* \"@chainlink/contracts/src/v0.7/Operator.sol\":9706:9733  s_owned[ownable[i]] = false */\n      0x0100\n      exp\n      dup2\n      sload\n      dup2\n      0xff\n      mul\n      not\n      and\n      swap1\n      dup4\n      iszero\n      iszero\n      mul\n      or\n      swap1\n      sstore\n      pop\n        /* \"@chainlink/contracts/src/v0.7/Operator.sol\":9758:9765  ownable */\n      dup4\n      dup4\n        /* \"@chainlink/contracts/src/v0.7/Operator.sol\":9766:9767  i */\n      dup3\n        /* \"@chainlink/contracts/src/v0.7/Operator.sol\":9758:9768  ownable[i] */\n      dup2\n      dup2\n      lt\n      tag_220\n      jumpi\n      invalid\n    tag_220:\n      swap1\n      pop\n      0x20\n      mul\n      add\n      calldataload\n      sub(shl(0xa0, 0x01), 0x01)\n      and\n      sub(shl(0xa0, 0x01), 0x01)\n        /* \"@chainlink/contracts/src/v0.7/Operator.sol\":9741:9787  OwnableInterface(ownable[i]).transferOwnership */\n      and\n      0xf2fde38b\n        /* \"@chainlink/contracts/src/v0.7/Operator.sol\":9788:9796  newOwner */\n      dup4\n        /* \"@chainlink/contracts/src/v0.7/Operator.sol\":9741:9797  OwnableInterface(ownable[i]).transferOwnership(newOwner) */\n      mload(0x40)\n      dup3\n      0xffffffff\n      and\n      0xe0\n      shl\n      dup2\n      mstore\n      0x04\n      add\n      dup1\n      dup3\n      sub(shl(0xa0, 0x01), 0x01)\n      and\n      dup2\n      mstore\n      0x20\n      add\n      swap2\n      pop\n      pop\n      0x00\n      mload(0x40)\n      dup1\n      dup4\n      sub\n      dup2\n      0x00\n      dup8\n      dup1\n      extcodesize\n      iszero\n      dup1\n      iszero\n      tag_221\n      jumpi\n      0x00\n      dup1\n      revert\n    tag_221:\n      pop\n      gas\n      call\n      iszero\n      dup1\n      iszero\n      tag_223\n      jumpi\n      returndatasize\n      0x00\n      dup1\n      returndatacopy\n      revert(0x00, returndatasize)\n    tag_223:\n      pop\n      pop\n        /* \"@chainlink/contracts/src/v0.7/Operator.sol\":9693:9696  i++ */\n      0x01\n      swap1\n      swap3\n      add\n      swap2\n      pop\n        /* \"@chainlink/contracts/src/v0.7/Operator.sol\":9653:9804  for (uint256 i = 0; i < ownable.length; i++) {... */\n      tag_216\n      swap1\n      pop\n      jump\n    tag_217:\n      pop\n        /* \"@chainlink/contracts/src/v0.7/Operator.sol\":9548:9808  function transferOwnableContracts(address[] calldata ownable, address newOwner) external onlyOwner {... */\n      pop\n      pop\n      pop\n      jump\t// out\n        /* \"@chainlink/contracts/src/v0.7/Operator.sol\":3767:4337  function oracleRequest(... */\n    tag_84:\n        /* \"@chainlink/contracts/src/v0.7/LinkTokenReceiver.sol\":1455:1474  getChainlinkToken() */\n      tag_225\n        /* \"@chainlink/contracts/src/v0.7/LinkTokenReceiver.sol\":1455:1472  getChainlinkToken */\n      tag_47\n        /* \"@chainlink/contracts/src/v0.7/LinkTokenReceiver.sol\":1455:1474  getChainlinkToken() */\n      jump\t// in\n    tag_225:\n      sub(shl(0xa0, 0x01), 0x01)\n        /* \"@chainlink/contracts/src/v0.7/LinkTokenReceiver.sol\":1441:1474  msg.sender == getChainlinkToken() */\n      and\n        /* \"@chainlink/contracts/src/v0.7/LinkTokenReceiver.sol\":1441:1451  msg.sender */\n      caller\n      sub(shl(0xa0, 0x01), 0x01)\n        /* \"@chainlink/contracts/src/v0.7/LinkTokenReceiver.sol\":1441:1474  msg.sender == getChainlinkToken() */\n      and\n      eq\n        /* \"@chainlink/contracts/src/v0.7/LinkTokenReceiver.sol\":1433:1498  require(msg.sender == getChainlinkToken(), \"Must use LINK token\") */\n      tag_226\n      jumpi\n      0x40\n      dup1\n      mload\n      shl(0xe5, 0x461bcd)\n      dup2\n      mstore\n      0x20\n      0x04\n      dup3\n      add\n      mstore\n      0x13\n      0x24\n      dup3\n      add\n      mstore\n      shl(0x69, 0x26bab9ba103ab9b2902624a725903a37b5b2b7)\n      0x44\n      dup3\n      add\n      mstore\n      swap1\n      mload\n      swap1\n      dup2\n      swap1\n      sub\n      0x64\n      add\n      swap1\n      revert\n    tag_226:\n        /* \"@chainlink/contracts/src/v0.7/Operator.sol\":4026:4043  bytes32 requestId */\n      0x00\n        /* \"@chainlink/contracts/src/v0.7/Operator.sol\":4045:4063  uint256 expiration */\n      dup1\n        /* \"@chainlink/contracts/src/v0.7/Operator.sol\":4067:4213  _verifyAndProcessOracleRequest(... */\n      tag_228\n        /* \"@chainlink/contracts/src/v0.7/Operator.sol\":4105:4111  sender */\n      dup12\n        /* \"@chainlink/contracts/src/v0.7/Operator.sol\":4119:4126  payment */\n      dup12\n        /* \"@chainlink/contracts/src/v0.7/Operator.sol\":4134:4149  callbackAddress */\n      dup11\n        /* \"@chainlink/contracts/src/v0.7/Operator.sol\":4157:4175  callbackFunctionId */\n      dup11\n        /* \"@chainlink/contracts/src/v0.7/Operator.sol\":4183:4188  nonce */\n      dup11\n        /* \"@chainlink/contracts/src/v0.7/Operator.sol\":4196:4207  dataVersion */\n      dup11\n        /* \"@chainlink/contracts/src/v0.7/Operator.sol\":4067:4097  _verifyAndProcessOracleRequest */\n      tag_212\n        /* \"@chainlink/contracts/src/v0.7/Operator.sol\":4067:4213  _verifyAndProcessOracleRequest(... */\n      jump\t// in\n    tag_228:\n        /* \"@chainlink/contracts/src/v0.7/Operator.sol\":4025:4213  (bytes32 requestId, uint256 expiration) = _verifyAndProcessOracleRequest(... */\n      swap2\n      pop\n      swap2\n      pop\n        /* \"@chainlink/contracts/src/v0.7/Operator.sol\":4238:4244  specId */\n      dup9\n        /* \"@chainlink/contracts/src/v0.7/Operator.sol\":4224:4332  OracleRequest(specId, sender, requestId, payment, sender, callbackFunctionId, expiration, dataVersion, data) */\n      0xd8d7ecc4800d25fa53ce0372f13a416d98907a7ef3d8d3bdd79cf4fe75529c65\n        /* \"@chainlink/contracts/src/v0.7/Operator.sol\":4246:4252  sender */\n      dup13\n        /* \"@chainlink/contracts/src/v0.7/Operator.sol\":4254:4263  requestId */\n      dup5\n        /* \"@chainlink/contracts/src/v0.7/Operator.sol\":4265:4272  payment */\n      dup14\n        /* \"@chainlink/contracts/src/v0.7/Operator.sol\":4274:4280  sender */\n      dup16\n        /* \"@chainlink/contracts/src/v0.7/Operator.sol\":4282:4300  callbackFunctionId */\n      dup13\n        /* \"@chainlink/contracts/src/v0.7/Operator.sol\":4302:4312  expiration */\n      dup8\n        /* \"@chainlink/contracts/src/v0.7/Operator.sol\":4314:4325  dataVersion */\n      dup13\n        /* \"@chainlink/contracts/src/v0.7/Operator.sol\":4327:4331  data */\n      dup13\n      dup13\n        /* \"@chainlink/contracts/src/v0.7/Operator.sol\":4224:4332  OracleRequest(specId, sender, requestId, payment, sender, callbackFunctionId, expiration, dataVersion, data) */\n      mload(0x40)\n      dup1\n      dup11\n      sub(shl(0xa0, 0x01), 0x01)\n      and\n      dup2\n      mstore\n      0x20\n      add\n      dup10\n      dup2\n      mstore\n      0x20\n      add\n      dup9\n      dup2\n      mstore\n      0x20\n      add\n      dup8\n      sub(shl(0xa0, 0x01), 0x01)\n      and\n      dup2\n      mstore\n      0x20\n      add\n      dup7\n      not(sub(shl(0xe0, 0x01), 0x01))\n      and\n      dup2\n      mstore\n      0x20\n      add\n      dup6\n      dup2\n      mstore\n      0x20\n      add\n      dup5\n      dup2\n      mstore\n      0x20\n      add\n      dup1\n      0x20\n      add\n      dup3\n      dup2\n      sub\n      dup3\n      mstore\n      dup5\n      dup5\n      dup3\n      dup2\n      dup2\n      mstore\n      0x20\n      add\n      swap3\n      pop\n      dup1\n      dup3\n      dup5\n      calldatacopy\n      0x00\n      dup4\n      dup3\n      add\n      mstore\n      mload(0x40)\n      0x1f\n      swap1\n      swap2\n      add\n      not(0x1f)\n      and\n      swap1\n      swap3\n      add\n      dup3\n      swap1\n      sub\n      swap13\n      pop\n      swap1\n      swap11\n      pop\n      pop\n      pop\n      pop\n      pop\n      pop\n      pop\n      pop\n      pop\n      pop\n      pop\n      log2\n        /* \"@chainlink/contracts/src/v0.7/LinkTokenReceiver.sol\":1504:1505  _ */\n      pop\n      pop\n        /* \"@chainlink/contracts/src/v0.7/Operator.sol\":3767:4337  function oracleRequest(... */\n      pop\n      pop\n      pop\n      pop\n      pop\n      pop\n      pop\n      pop\n      pop\n      jump\t// out\n        /* \"@chainlink/contracts/src/v0.7/Operator.sol\":6307:7318  function fulfillOracleRequest(... */\n    tag_88:\n        /* \"@chainlink/contracts/src/v0.7/Operator.sol\":6633:6637  bool */\n      0x00\n        /* \"@chainlink/contracts/src/v0.7/AuthorizedReceiver.sol\":2319:2348  _validateIsAuthorizedSender() */\n      tag_230\n        /* \"@chainlink/contracts/src/v0.7/AuthorizedReceiver.sol\":2319:2346  _validateIsAuthorizedSender */\n      tag_231\n        /* \"@chainlink/contracts/src/v0.7/AuthorizedReceiver.sol\":2319:2348  _validateIsAuthorizedSender() */\n      jump\t// in\n    tag_230:\n        /* \"@chainlink/contracts/src/v0.7/Operator.sol\":22535:22559  s_commitments[requestId] */\n      0x00\n      dup8\n      dup2\n      mstore\n        /* \"@chainlink/contracts/src/v0.7/Operator.sol\":22535:22548  s_commitments */\n      0x04\n        /* \"@chainlink/contracts/src/v0.7/Operator.sol\":22535:22559  s_commitments[requestId] */\n      0x20\n      mstore\n      0x40\n      swap1\n      keccak256\n        /* \"@chainlink/contracts/src/v0.7/Operator.sol\":22535:22570  s_commitments[requestId].paramsHash */\n      sload\n        /* \"@chainlink/contracts/src/v0.7/Operator.sol\":22535:22559  s_commitments[requestId] */\n      dup8\n      swap1\n        /* \"@chainlink/contracts/src/v0.7/Operator.sol\":22535:22570  s_commitments[requestId].paramsHash */\n      0x08\n      shl\n      not(0xff)\n        /* \"@chainlink/contracts/src/v0.7/Operator.sol\":22535:22575  s_commitments[requestId].paramsHash != 0 */\n      and\n        /* \"@chainlink/contracts/src/v0.7/Operator.sol\":22527:22607  require(s_commitments[requestId].paramsHash != 0, \"Must have a valid requestId\") */\n      tag_233\n      jumpi\n      0x40\n      dup1\n      mload\n      shl(0xe5, 0x461bcd)\n      dup2\n      mstore\n      0x20\n      0x04\n      dup3\n      add\n      mstore\n      0x1b\n      0x24\n      dup3\n      add\n      mstore\n      0x4d757374206861766520612076616c6964207265717565737449640000000000\n      0x44\n      dup3\n      add\n      mstore\n      swap1\n      mload\n      swap1\n      dup2\n      swap1\n      sub\n      0x64\n      add\n      swap1\n      revert\n    tag_233:\n      sub(shl(0xa0, 0x01), 0x01)\n        /* \"@chainlink/contracts/src/v0.7/Operator.sol\":22998:23022  s_owned[callbackAddress] */\n      dup7\n      and\n      0x00\n      swap1\n      dup2\n      mstore\n        /* \"@chainlink/contracts/src/v0.7/Operator.sol\":22998:23005  s_owned */\n      0x05\n        /* \"@chainlink/contracts/src/v0.7/Operator.sol\":22998:23022  s_owned[callbackAddress] */\n      0x20\n      mstore\n      0x40\n      swap1\n      keccak256\n      sload\n        /* \"@chainlink/contracts/src/v0.7/Operator.sol\":6603:6618  callbackAddress */\n      dup7\n      swap1\n        /* \"@chainlink/contracts/src/v0.7/Operator.sol\":22998:23022  s_owned[callbackAddress] */\n      0xff\n      and\n        /* \"@chainlink/contracts/src/v0.7/Operator.sol\":22997:23022  !s_owned[callbackAddress] */\n      iszero\n        /* \"@chainlink/contracts/src/v0.7/Operator.sol\":22989:23053  require(!s_owned[callbackAddress], \"Cannot call owned contract\") */\n      tag_235\n      jumpi\n      0x40\n      dup1\n      mload\n      shl(0xe5, 0x461bcd)\n      dup2\n      mstore\n      0x20\n      0x04\n      dup3\n      add\n      mstore\n      0x1a\n      0x24\n      dup3\n      add\n      mstore\n      0x43616e6e6f742063616c6c206f776e656420636f6e7472616374000000000000\n      0x44\n      dup3\n      add\n      mstore\n      swap1\n      mload\n      swap1\n      dup2\n      swap1\n      sub\n      0x64\n      add\n      swap1\n      revert\n    tag_235:\n        /* \"@chainlink/contracts/src/v0.7/Operator.sol\":6647:6756  _verifyOracleRequestAndProcessPayment(requestId, payment, callbackAddress, callbackFunctionId, expiration, 1) */\n      tag_237\n        /* \"@chainlink/contracts/src/v0.7/Operator.sol\":6685:6694  requestId */\n      dup10\n        /* \"@chainlink/contracts/src/v0.7/Operator.sol\":6696:6703  payment */\n      dup10\n        /* \"@chainlink/contracts/src/v0.7/Operator.sol\":6705:6720  callbackAddress */\n      dup10\n        /* \"@chainlink/contracts/src/v0.7/Operator.sol\":6722:6740  callbackFunctionId */\n      dup10\n        /* \"@chainlink/contracts/src/v0.7/Operator.sol\":6742:6752  expiration */\n      dup10\n        /* \"@chainlink/contracts/src/v0.7/Operator.sol\":6754:6755  1 */\n      0x01\n        /* \"@chainlink/contracts/src/v0.7/Operator.sol\":6647:6684  _verifyOracleRequestAndProcessPayment */\n      tag_238\n        /* \"@chainlink/contracts/src/v0.7/Operator.sol\":6647:6756  _verifyOracleRequestAndProcessPayment(requestId, payment, callbackAddress, callbackFunctionId, expiration, 1) */\n      jump\t// in\n    tag_237:\n        /* \"@chainlink/contracts/src/v0.7/Operator.sol\":6767:6792  OracleResponse(requestId) */\n      mload(0x40)\n        /* \"@chainlink/contracts/src/v0.7/Operator.sol\":6782:6791  requestId */\n      dup10\n      swap1\n        /* \"@chainlink/contracts/src/v0.7/Operator.sol\":6767:6792  OracleResponse(requestId) */\n      0x9e9bc7616d42c2835d05ae617e508454e63b30b934be8aa932ebc125e0e58a64\n      swap1\n      0x00\n      swap1\n      log2\n        /* \"@chainlink/contracts/src/v0.7/Operator.sol\":970:976  400000 */\n      0x061a80\n        /* \"@chainlink/contracts/src/v0.7/Operator.sol\":6806:6815  gasleft() */\n      gas\n        /* \"@chainlink/contracts/src/v0.7/Operator.sol\":6806:6845  gasleft() >= MINIMUM_CONSUMER_GAS_LIMIT */\n      lt\n      iszero\n        /* \"@chainlink/contracts/src/v0.7/Operator.sol\":6798:6882  require(gasleft() >= MINIMUM_CONSUMER_GAS_LIMIT, \"Must provide consumer enough gas\") */\n      tag_239\n      jumpi\n      0x40\n      dup1\n      mload\n      shl(0xe5, 0x461bcd)\n      dup2\n      mstore\n      0x20\n      0x04\n      dup3\n      add\n      dup2\n      swap1\n      mstore\n      0x24\n      dup3\n      add\n      mstore\n      0x4d7573742070726f7669646520636f6e73756d657220656e6f75676820676173\n      0x44\n      dup3\n      add\n      mstore\n      swap1\n      mload\n      swap1\n      dup2\n      swap1\n      sub\n      0x64\n      add\n      swap1\n      revert\n    tag_239:\n        /* \"@chainlink/contracts/src/v0.7/Operator.sol\":7187:7246  abi.encodeWithSelector(callbackFunctionId, requestId, data) */\n      0x40\n      dup1\n      mload\n      0x24\n      dup2\n      add\n      dup12\n      swap1\n      mstore\n      0x44\n      dup1\n      dup3\n      add\n      dup8\n      swap1\n      mstore\n      dup3\n      mload\n      dup1\n      dup4\n      sub\n      swap1\n      swap2\n      add\n      dup2\n      mstore\n      0x64\n      swap1\n      swap2\n      add\n      dup3\n      mstore\n      0x20\n      dup2\n      add\n      dup1\n      mload\n      sub(shl(0xe0, 0x01), 0x01)\n      and\n      not(sub(shl(0xe0, 0x01), 0x01))\n      dup11\n      and\n      or\n      dup2\n      mstore\n        /* \"@chainlink/contracts/src/v0.7/Operator.sol\":7166:7247  callbackAddress.call(abi.encodeWithSelector(callbackFunctionId, requestId, data)) */\n      swap2\n      mload\n      dup2\n      mload\n        /* \"@chainlink/contracts/src/v0.7/Operator.sol\":7148:7160  bool success */\n      0x00\n      swap4\n      sub(shl(0xa0, 0x01), 0x01)\n        /* \"@chainlink/contracts/src/v0.7/Operator.sol\":7166:7186  callbackAddress.call */\n      dup13\n      and\n      swap4\n        /* \"@chainlink/contracts/src/v0.7/Operator.sol\":7187:7246  abi.encodeWithSelector(callbackFunctionId, requestId, data) */\n      swap3\n        /* \"@chainlink/contracts/src/v0.7/Operator.sol\":7166:7247  callbackAddress.call(abi.encodeWithSelector(callbackFunctionId, requestId, data)) */\n      swap2\n      dup3\n      swap2\n        /* \"@chainlink/contracts/src/v0.7/Operator.sol\":7187:7246  abi.encodeWithSelector(callbackFunctionId, requestId, data) */\n      swap1\n        /* \"@chainlink/contracts/src/v0.7/Operator.sol\":7166:7247  callbackAddress.call(abi.encodeWithSelector(callbackFunctionId, requestId, data)) */\n      dup1\n      dup4\n        /* \"@chainlink/contracts/src/v0.7/Operator.sol\":7187:7246  abi.encodeWithSelector(callbackFunctionId, requestId, data) */\n      dup4\n        /* \"@chainlink/contracts/src/v0.7/Operator.sol\":7166:7247  callbackAddress.call(abi.encodeWithSelector(callbackFunctionId, requestId, data)) */\n    tag_240:\n      0x20\n      dup4\n      lt\n      tag_242\n      jumpi\n      dup1\n      mload\n      dup3\n      mstore\n      not(0x1f)\n      swap1\n      swap3\n      add\n      swap2\n      0x20\n      swap2\n      dup3\n      add\n      swap2\n      add\n      jump(tag_240)\n    tag_242:\n      0x01\n      dup4\n      0x20\n      sub\n      0x0100\n      exp\n      sub\n      dup1\n      not\n      dup3\n      mload\n      and\n      dup2\n      dup5\n      mload\n      and\n      dup1\n      dup3\n      or\n      dup6\n      mstore\n      pop\n      pop\n      pop\n      pop\n      pop\n      pop\n      swap1\n      pop\n      add\n      swap2\n      pop\n      pop\n      0x00\n      mload(0x40)\n      dup1\n      dup4\n      sub\n      dup2\n      0x00\n      dup7\n      gas\n      call\n      swap2\n      pop\n      pop\n      returndatasize\n      dup1\n      0x00\n      dup2\n      eq\n      tag_245\n      jumpi\n      mload(0x40)\n      swap2\n      pop\n      and(add(returndatasize, 0x3f), not(0x1f))\n      dup3\n      add\n      0x40\n      mstore\n      returndatasize\n      dup3\n      mstore\n      returndatasize\n      0x00\n      0x20\n      dup5\n      add\n      returndatacopy\n      jump(tag_244)\n    tag_245:\n      0x60\n      swap2\n      pop\n    tag_244:\n      pop\n        /* \"@chainlink/contracts/src/v0.7/Operator.sol\":7147:7247  (bool success, ) = callbackAddress.call(abi.encodeWithSelector(callbackFunctionId, requestId, data)) */\n      swap1\n      swap12\n        /* \"@chainlink/contracts/src/v0.7/Operator.sol\":6307:7318  function fulfillOracleRequest(... */\n      swap11\n      pop\n      pop\n      pop\n      pop\n      pop\n      pop\n      pop\n      pop\n      pop\n      pop\n      pop\n      jump\t// out\n        /* \"@chainlink/contracts/src/v0.7/Operator.sol\":12375:12513  function withdrawable() external view override(OracleInterface, WithdrawalInterface) returns (uint256) {... */\n    tag_91:\n        /* \"@chainlink/contracts/src/v0.7/Operator.sol\":12469:12476  uint256 */\n      0x00\n        /* \"@chainlink/contracts/src/v0.7/Operator.sol\":12491:12508  _fundsAvailable() */\n      tag_247\n        /* \"@chainlink/contracts/src/v0.7/Operator.sol\":12491:12506  _fundsAvailable */\n      tag_248\n        /* \"@chainlink/contracts/src/v0.7/Operator.sol\":12491:12508  _fundsAvailable() */\n      jump\t// in\n    tag_247:\n        /* \"@chainlink/contracts/src/v0.7/Operator.sol\":12484:12508  return _fundsAvailable() */\n      swap1\n      pop\n        /* \"@chainlink/contracts/src/v0.7/Operator.sol\":12375:12513  function withdrawable() external view override(OracleInterface, WithdrawalInterface) returns (uint256) {... */\n      swap1\n      jump\t// out\n        /* \"@chainlink/contracts/src/v0.7/Operator.sol\":11367:11596  function acceptAuthorizedReceivers(address[] calldata targets, address[] calldata senders)... */\n    tag_101:\n        /* \"@chainlink/contracts/src/v0.7/AuthorizedReceiver.sol\":2504:2530  _canSetAuthorizedSenders() */\n      tag_250\n        /* \"@chainlink/contracts/src/v0.7/AuthorizedReceiver.sol\":2504:2528  _canSetAuthorizedSenders */\n      tag_177\n        /* \"@chainlink/contracts/src/v0.7/AuthorizedReceiver.sol\":2504:2530  _canSetAuthorizedSenders() */\n      jump\t// in\n    tag_250:\n        /* \"@chainlink/contracts/src/v0.7/AuthorizedReceiver.sol\":2496:2564  require(_canSetAuthorizedSenders(), \"Cannot set authorized senders\") */\n      tag_251\n      jumpi\n      0x40\n      dup1\n      mload\n      shl(0xe5, 0x461bcd)\n      dup2\n      mstore\n      0x20\n      0x04\n      dup3\n      add\n      mstore\n      0x1d\n      0x24\n      dup3\n      add\n      mstore\n      0x00\n      dup1\n      mload\n      0x20\n      data_079032fd9b86c16fcb0f8244dac8a4e899ee4a34a2e7f6cd2fb0f6c233f00b83\n      dup4\n      codecopy\n      dup2\n      mload\n      swap2\n      mstore\n      0x44\n      dup3\n      add\n      mstore\n      swap1\n      mload\n      swap1\n      dup2\n      swap1\n      sub\n      0x64\n      add\n      swap1\n      revert\n    tag_251:\n        /* \"@chainlink/contracts/src/v0.7/Operator.sol\":11514:11545  acceptOwnableContracts(targets) */\n      tag_253\n        /* \"@chainlink/contracts/src/v0.7/Operator.sol\":11537:11544  targets */\n      dup5\n      dup5\n        /* \"@chainlink/contracts/src/v0.7/Operator.sol\":11514:11536  acceptOwnableContracts */\n      tag_37\n        /* \"@chainlink/contracts/src/v0.7/Operator.sol\":11514:11545  acceptOwnableContracts(targets) */\n      jump\t// in\n    tag_253:\n        /* \"@chainlink/contracts/src/v0.7/Operator.sol\":11551:11591  setAuthorizedSendersOn(targets, senders) */\n      tag_217\n        /* \"@chainlink/contracts/src/v0.7/Operator.sol\":11574:11581  targets */\n      dup5\n      dup5\n        /* \"@chainlink/contracts/src/v0.7/Operator.sol\":11583:11590  senders */\n      dup5\n      dup5\n        /* \"@chainlink/contracts/src/v0.7/Operator.sol\":11551:11573  setAuthorizedSendersOn */\n      tag_174\n        /* \"@chainlink/contracts/src/v0.7/Operator.sol\":11551:11591  setAuthorizedSendersOn(targets, senders) */\n      jump\t// in\n        /* \"@chainlink/contracts/src/v0.7/Operator.sol\":8194:9245  function fulfillOracleRequest2(... */\n    tag_108:\n        /* \"@chainlink/contracts/src/v0.7/Operator.sol\":8577:8581  bool */\n      0x00\n        /* \"@chainlink/contracts/src/v0.7/AuthorizedReceiver.sol\":2319:2348  _validateIsAuthorizedSender() */\n      tag_256\n        /* \"@chainlink/contracts/src/v0.7/AuthorizedReceiver.sol\":2319:2346  _validateIsAuthorizedSender */\n      tag_231\n        /* \"@chainlink/contracts/src/v0.7/AuthorizedReceiver.sol\":2319:2348  _validateIsAuthorizedSender() */\n      jump\t// in\n    tag_256:\n        /* \"@chainlink/contracts/src/v0.7/Operator.sol\":22535:22559  s_commitments[requestId] */\n      0x00\n      dup9\n      dup2\n      mstore\n        /* \"@chainlink/contracts/src/v0.7/Operator.sol\":22535:22548  s_commitments */\n      0x04\n        /* \"@chainlink/contracts/src/v0.7/Operator.sol\":22535:22559  s_commitments[requestId] */\n      0x20\n      mstore\n      0x40\n      swap1\n      keccak256\n        /* \"@chainlink/contracts/src/v0.7/Operator.sol\":22535:22570  s_commitments[requestId].paramsHash */\n      sload\n        /* \"@chainlink/contracts/src/v0.7/Operator.sol\":22535:22559  s_commitments[requestId] */\n      dup9\n      swap1\n        /* \"@chainlink/contracts/src/v0.7/Operator.sol\":22535:22570  s_commitments[requestId].paramsHash */\n      0x08\n      shl\n      not(0xff)\n        /* \"@chainlink/contracts/src/v0.7/Operator.sol\":22535:22575  s_commitments[requestId].paramsHash != 0 */\n      and\n        /* \"@chainlink/contracts/src/v0.7/Operator.sol\":22527:22607  require(s_commitments[requestId].paramsHash != 0, \"Must have a valid requestId\") */\n      tag_258\n      jumpi\n      0x40\n      dup1\n      mload\n      shl(0xe5, 0x461bcd)\n      dup2\n      mstore\n      0x20\n      0x04\n      dup3\n      add\n      mstore\n      0x1b\n      0x24\n      dup3\n      add\n      mstore\n      0x4d757374206861766520612076616c6964207265717565737449640000000000\n      0x44\n      dup3\n      add\n      mstore\n      swap1\n      mload\n      swap1\n      dup2\n      swap1\n      sub\n      0x64\n      add\n      swap1\n      revert\n    tag_258:\n      sub(shl(0xa0, 0x01), 0x01)\n        /* \"@chainlink/contracts/src/v0.7/Operator.sol\":22998:23022  s_owned[callbackAddress] */\n      dup8\n      and\n      0x00\n      swap1\n      dup2\n      mstore\n        /* \"@chainlink/contracts/src/v0.7/Operator.sol\":22998:23005  s_owned */\n      0x05\n        /* \"@chainlink/contracts/src/v0.7/Operator.sol\":22998:23022  s_owned[callbackAddress] */\n      0x20\n      mstore\n      0x40\n      swap1\n      keccak256\n      sload\n        /* \"@chainlink/contracts/src/v0.7/Operator.sol\":8498:8513  callbackAddress */\n      dup8\n      swap1\n        /* \"@chainlink/contracts/src/v0.7/Operator.sol\":22998:23022  s_owned[callbackAddress] */\n      0xff\n      and\n        /* \"@chainlink/contracts/src/v0.7/Operator.sol\":22997:23022  !s_owned[callbackAddress] */\n      iszero\n        /* \"@chainlink/contracts/src/v0.7/Operator.sol\":22989:23053  require(!s_owned[callbackAddress], \"Cannot call owned contract\") */\n      tag_260\n      jumpi\n      0x40\n      dup1\n      mload\n      shl(0xe5, 0x461bcd)\n      dup2\n      mstore\n      0x20\n      0x04\n      dup3\n      add\n      mstore\n      0x1a\n      0x24\n      dup3\n      add\n      mstore\n      0x43616e6e6f742063616c6c206f776e656420636f6e7472616374000000000000\n      0x44\n      dup3\n      add\n      mstore\n      swap1\n      mload\n      swap1\n      dup2\n      swap1\n      sub\n      0x64\n      add\n      swap1\n      revert\n    tag_260:\n        /* \"@chainlink/contracts/src/v0.7/Operator.sol\":8547:8556  requestId */\n      dup10\n        /* \"@chainlink/contracts/src/v0.7/Operator.sol\":8558:8562  data */\n      dup6\n      dup6\n        /* \"@chainlink/contracts/src/v0.7/Operator.sol\":21797:21799  32 */\n      0x20\n        /* \"@chainlink/contracts/src/v0.7/Operator.sol\":21782:21799  data.length >= 32 */\n      dup2\n      lt\n      iszero\n        /* \"@chainlink/contracts/src/v0.7/Operator.sol\":21774:21831  require(data.length >= 32, \"Response must be > 32 bytes\") */\n      tag_262\n      jumpi\n      0x40\n      dup1\n      mload\n      shl(0xe5, 0x461bcd)\n      dup2\n      mstore\n      0x20\n      0x04\n      dup3\n      add\n      mstore\n      0x1b\n      0x24\n      dup3\n      add\n      mstore\n      0x526573706f6e7365206d757374206265203e2033322062797465730000000000\n      0x44\n      dup3\n      add\n      mstore\n      swap1\n      mload\n      swap1\n      dup2\n      swap1\n      sub\n      0x64\n      add\n      swap1\n      revert\n    tag_262:\n        /* \"@chainlink/contracts/src/v0.7/Operator.sol\":21898:21923  calldataload(data.offset) */\n      dup2\n      calldataload\n        /* \"@chainlink/contracts/src/v0.7/Operator.sol\":21942:21968  requestId == firstDataWord */\n      dup4\n      dup2\n      eq\n        /* \"@chainlink/contracts/src/v0.7/Operator.sol\":21934:22001  require(requestId == firstDataWord, \"First word must be requestId\") */\n      tag_263\n      jumpi\n      0x40\n      dup1\n      mload\n      shl(0xe5, 0x461bcd)\n      dup2\n      mstore\n      0x20\n      0x04\n      dup3\n      add\n      mstore\n      0x1c\n      0x24\n      dup3\n      add\n      mstore\n      0x466972737420776f7264206d7573742062652072657175657374496400000000\n      0x44\n      dup3\n      add\n      mstore\n      swap1\n      mload\n      swap1\n      dup2\n      swap1\n      sub\n      0x64\n      add\n      swap1\n      revert\n    tag_263:\n        /* \"@chainlink/contracts/src/v0.7/Operator.sol\":8591:8700  _verifyOracleRequestAndProcessPayment(requestId, payment, callbackAddress, callbackFunctionId, expiration, 2) */\n      tag_265\n        /* \"@chainlink/contracts/src/v0.7/Operator.sol\":8629:8638  requestId */\n      dup15\n        /* \"@chainlink/contracts/src/v0.7/Operator.sol\":8640:8647  payment */\n      dup15\n        /* \"@chainlink/contracts/src/v0.7/Operator.sol\":8649:8664  callbackAddress */\n      dup15\n        /* \"@chainlink/contracts/src/v0.7/Operator.sol\":8666:8684  callbackFunctionId */\n      dup15\n        /* \"@chainlink/contracts/src/v0.7/Operator.sol\":8686:8696  expiration */\n      dup15\n        /* \"@chainlink/contracts/src/v0.7/Operator.sol\":8698:8699  2 */\n      0x02\n        /* \"@chainlink/contracts/src/v0.7/Operator.sol\":8591:8628  _verifyOracleRequestAndProcessPayment */\n      tag_238\n        /* \"@chainlink/contracts/src/v0.7/Operator.sol\":8591:8700  _verifyOracleRequestAndProcessPayment(requestId, payment, callbackAddress, callbackFunctionId, expiration, 2) */\n      jump\t// in\n    tag_265:\n        /* \"@chainlink/contracts/src/v0.7/Operator.sol\":8711:8736  OracleResponse(requestId) */\n      mload(0x40)\n        /* \"@chainlink/contracts/src/v0.7/Operator.sol\":8726:8735  requestId */\n      dup15\n      swap1\n        /* \"@chainlink/contracts/src/v0.7/Operator.sol\":8711:8736  OracleResponse(requestId) */\n      0x9e9bc7616d42c2835d05ae617e508454e63b30b934be8aa932ebc125e0e58a64\n      swap1\n      0x00\n      swap1\n      log2\n        /* \"@chainlink/contracts/src/v0.7/Operator.sol\":970:976  400000 */\n      0x061a80\n        /* \"@chainlink/contracts/src/v0.7/Operator.sol\":8750:8759  gasleft() */\n      gas\n        /* \"@chainlink/contracts/src/v0.7/Operator.sol\":8750:8789  gasleft() >= MINIMUM_CONSUMER_GAS_LIMIT */\n      lt\n      iszero\n        /* \"@chainlink/contracts/src/v0.7/Operator.sol\":8742:8826  require(gasleft() >= MINIMUM_CONSUMER_GAS_LIMIT, \"Must provide consumer enough gas\") */\n      tag_266\n      jumpi\n      0x40\n      dup1\n      mload\n      shl(0xe5, 0x461bcd)\n      dup2\n      mstore\n      0x20\n      0x04\n      dup3\n      add\n      dup2\n      swap1\n      mstore\n      0x24\n      dup3\n      add\n      mstore\n      0x4d7573742070726f7669646520636f6e73756d657220656e6f75676820676173\n      0x44\n      dup3\n      add\n      mstore\n      swap1\n      mload\n      swap1\n      dup2\n      swap1\n      sub\n      0x64\n      add\n      swap1\n      revert\n    tag_266:\n        /* \"@chainlink/contracts/src/v0.7/Operator.sol\":9092:9104  bool success */\n      0x00\n        /* \"@chainlink/contracts/src/v0.7/Operator.sol\":9110:9125  callbackAddress */\n      dup13\n      sub(shl(0xa0, 0x01), 0x01)\n        /* \"@chainlink/contracts/src/v0.7/Operator.sol\":9110:9130  callbackAddress.call */\n      and\n        /* \"@chainlink/contracts/src/v0.7/Operator.sol\":9148:9166  callbackFunctionId */\n      dup13\n        /* \"@chainlink/contracts/src/v0.7/Operator.sol\":9168:9172  data */\n      dup12\n      dup12\n        /* \"@chainlink/contracts/src/v0.7/Operator.sol\":9131:9173  abi.encodePacked(callbackFunctionId, data) */\n      add(0x20, mload(0x40))\n      dup1\n      dup5\n      not(sub(shl(0xe0, 0x01), 0x01))\n      and\n      dup2\n      mstore\n      0x04\n      add\n      dup4\n      dup4\n      dup1\n      dup3\n      dup5\n      calldatacopy\n      dup1\n      dup4\n      add\n      swap3\n      pop\n      pop\n      pop\n      swap4\n      pop\n      pop\n      pop\n      pop\n      mload(0x40)\n      0x20\n      dup2\n      dup4\n      sub\n      sub\n      dup2\n      mstore\n      swap1\n      0x40\n      mstore\n        /* \"@chainlink/contracts/src/v0.7/Operator.sol\":9110:9174  callbackAddress.call(abi.encodePacked(callbackFunctionId, data)) */\n      mload(0x40)\n      dup1\n      dup3\n      dup1\n      mload\n      swap1\n      0x20\n      add\n      swap1\n      dup1\n      dup4\n      dup4\n    tag_267:\n      0x20\n      dup4\n      lt\n      tag_269\n      jumpi\n      dup1\n      mload\n      dup3\n      mstore\n      not(0x1f)\n      swap1\n      swap3\n      add\n      swap2\n      0x20\n      swap2\n      dup3\n      add\n      swap2\n      add\n      jump(tag_267)\n    tag_269:\n      0x01\n      dup4\n      0x20\n      sub\n      0x0100\n      exp\n      sub\n      dup1\n      not\n      dup3\n      mload\n      and\n      dup2\n      dup5\n      mload\n      and\n      dup1\n      dup3\n      or\n      dup6\n      mstore\n      pop\n      pop\n      pop\n      pop\n      pop\n      pop\n      swap1\n      pop\n      add\n      swap2\n      pop\n      pop\n      0x00\n      mload(0x40)\n      dup1\n      dup4\n      sub\n      dup2\n      0x00\n      dup7\n      gas\n      call\n      swap2\n      pop\n      pop\n      returndatasize\n      dup1\n      0x00\n      dup2\n      eq\n      tag_272\n      jumpi\n      mload(0x40)\n      swap2\n      pop\n      and(add(returndatasize, 0x3f), not(0x1f))\n      dup3\n      add\n      0x40\n      mstore\n      returndatasize\n      dup3\n      mstore\n      returndatasize\n      0x00\n      0x20\n      dup5\n      add\n      returndatacopy\n      jump(tag_271)\n    tag_272:\n      0x60\n      swap2\n      pop\n    tag_271:\n      pop\n        /* \"@chainlink/contracts/src/v0.7/Operator.sol\":9091:9174  (bool success, ) = callbackAddress.call(abi.encodePacked(callbackFunctionId, data)) */\n      swap1\n      swap9\n      pop\n      pop\n      pop\n        /* \"@chainlink/contracts/src/v0.7/Operator.sol\":23059:23060  _ */\n      pop\n      pop\n      pop\n      pop\n        /* \"@chainlink/contracts/src/v0.7/Operator.sol\":22613:22614  _ */\n      pop\n        /* \"@chainlink/contracts/src/v0.7/AuthorizedReceiver.sol\":2354:2355  _ */\n      pop\n        /* \"@chainlink/contracts/src/v0.7/Operator.sol\":8194:9245  function fulfillOracleRequest2(... */\n      swap8\n      swap7\n      pop\n      pop\n      pop\n      pop\n      pop\n      pop\n      pop\n      jump\t// out\n        /* \"@chainlink/contracts/src/v0.7/Operator.sol\":13848:14350  function distributeFunds(address payable[] calldata receivers, uint256[] calldata amounts) external payable {... */\n    tag_117:\n        /* \"@chainlink/contracts/src/v0.7/Operator.sol\":13970:13990  receivers.length > 0 */\n      dup3\n      iszero\n      dup1\n      iszero\n      swap1\n        /* \"@chainlink/contracts/src/v0.7/Operator.sol\":13970:14028  receivers.length > 0 && receivers.length == amounts.length */\n      tag_274\n      jumpi\n      pop\n        /* \"@chainlink/contracts/src/v0.7/Operator.sol\":13994:14028  receivers.length == amounts.length */\n      dup3\n      dup2\n      eq\n        /* \"@chainlink/contracts/src/v0.7/Operator.sol\":13970:14028  receivers.length > 0 && receivers.length == amounts.length */\n    tag_274:\n        /* \"@chainlink/contracts/src/v0.7/Operator.sol\":13962:14056  require(receivers.length > 0 && receivers.length == amounts.length, \"Invalid array length(s)\") */\n      tag_275\n      jumpi\n      0x40\n      dup1\n      mload\n      shl(0xe5, 0x461bcd)\n      dup2\n      mstore\n      0x20\n      0x04\n      dup3\n      add\n      mstore\n      0x17\n      0x24\n      dup3\n      add\n      mstore\n      0x496e76616c6964206172726179206c656e677468287329000000000000000000\n      0x44\n      dup3\n      add\n      mstore\n      swap1\n      mload\n      swap1\n      dup2\n      swap1\n      sub\n      0x64\n      add\n      swap1\n      revert\n    tag_275:\n        /* \"@chainlink/contracts/src/v0.7/Operator.sol\":14087:14096  msg.value */\n      callvalue\n        /* \"@chainlink/contracts/src/v0.7/Operator.sol\":14062:14084  uint256 valueRemaining */\n      0x00\n        /* \"@chainlink/contracts/src/v0.7/Operator.sol\":14102:14291  for (uint256 i = 0; i < receivers.length; i++) {... */\n    tag_276:\n        /* \"@chainlink/contracts/src/v0.7/Operator.sol\":14122:14142  i < receivers.length */\n      dup5\n      dup2\n      lt\n        /* \"@chainlink/contracts/src/v0.7/Operator.sol\":14102:14291  for (uint256 i = 0; i < receivers.length; i++) {... */\n      iszero\n      tag_277\n      jumpi\n        /* \"@chainlink/contracts/src/v0.7/Operator.sol\":14157:14175  uint256 sendAmount */\n      0x00\n        /* \"@chainlink/contracts/src/v0.7/Operator.sol\":14178:14185  amounts */\n      dup5\n      dup5\n        /* \"@chainlink/contracts/src/v0.7/Operator.sol\":14186:14187  i */\n      dup4\n        /* \"@chainlink/contracts/src/v0.7/Operator.sol\":14178:14188  amounts[i] */\n      dup2\n      dup2\n      lt\n      tag_279\n      jumpi\n      invalid\n    tag_279:\n      swap1\n      pop\n      0x20\n      mul\n      add\n      calldataload\n        /* \"@chainlink/contracts/src/v0.7/Operator.sol\":14157:14188  uint256 sendAmount = amounts[i] */\n      swap1\n      pop\n        /* \"@chainlink/contracts/src/v0.7/Operator.sol\":14213:14243  valueRemaining.sub(sendAmount) */\n      tag_280\n        /* \"@chainlink/contracts/src/v0.7/Operator.sol\":14232:14242  sendAmount */\n      dup2\n        /* \"@chainlink/contracts/src/v0.7/Operator.sol\":14213:14227  valueRemaining */\n      dup5\n        /* \"@chainlink/contracts/src/v0.7/Operator.sol\":14213:14231  valueRemaining.sub */\n      tag_281\n      swap1\n        /* \"@chainlink/contracts/src/v0.7/Operator.sol\":14213:14243  valueRemaining.sub(sendAmount) */\n      swap2\n      swap1\n      0xffffffff\n      and\n      jump\t// in\n    tag_280:\n        /* \"@chainlink/contracts/src/v0.7/Operator.sol\":14196:14243  valueRemaining = valueRemaining.sub(sendAmount) */\n      swap3\n      pop\n        /* \"@chainlink/contracts/src/v0.7/Operator.sol\":14251:14260  receivers */\n      dup7\n      dup7\n        /* \"@chainlink/contracts/src/v0.7/Operator.sol\":14261:14262  i */\n      dup4\n        /* \"@chainlink/contracts/src/v0.7/Operator.sol\":14251:14263  receivers[i] */\n      dup2\n      dup2\n      lt\n      tag_282\n      jumpi\n      invalid\n    tag_282:\n      swap1\n      pop\n      0x20\n      mul\n      add\n      calldataload\n      sub(shl(0xa0, 0x01), 0x01)\n      and\n      sub(shl(0xa0, 0x01), 0x01)\n        /* \"@chainlink/contracts/src/v0.7/Operator.sol\":14251:14272  receivers[i].transfer */\n      and\n        /* \"@chainlink/contracts/src/v0.7/Operator.sol\":14251:14284  receivers[i].transfer(sendAmount) */\n      0x08fc\n        /* \"@chainlink/contracts/src/v0.7/Operator.sol\":14273:14283  sendAmount */\n      dup3\n        /* \"@chainlink/contracts/src/v0.7/Operator.sol\":14251:14284  receivers[i].transfer(sendAmount) */\n      swap1\n      dup2\n      iszero\n      mul\n      swap1\n      mload(0x40)\n      0x00\n      mload(0x40)\n      dup1\n      dup4\n      sub\n      dup2\n      dup6\n      dup9\n      dup9\n      call\n      swap4\n      pop\n      pop\n      pop\n      pop\n      iszero\n      dup1\n      iszero\n      tag_284\n      jumpi\n      returndatasize\n      0x00\n      dup1\n      returndatacopy\n      revert(0x00, returndatasize)\n    tag_284:\n      pop\n      pop\n        /* \"@chainlink/contracts/src/v0.7/Operator.sol\":14144:14147  i++ */\n      0x01\n      add\n        /* \"@chainlink/contracts/src/v0.7/Operator.sol\":14102:14291  for (uint256 i = 0; i < receivers.length; i++) {... */\n      jump(tag_276)\n    tag_277:\n      pop\n        /* \"@chainlink/contracts/src/v0.7/Operator.sol\":14304:14323  valueRemaining == 0 */\n      dup1\n      iszero\n        /* \"@chainlink/contracts/src/v0.7/Operator.sol\":14296:14345  require(valueRemaining == 0, \"Too much ETH sent\") */\n      tag_201\n      jumpi\n      0x40\n      dup1\n      mload\n      shl(0xe5, 0x461bcd)\n      dup2\n      mstore\n      0x20\n      0x04\n      dup3\n      add\n      mstore\n      0x11\n      0x24\n      dup3\n      add\n      mstore\n      shl(0x7a, 0x151bdbc81b5d58da08115512081cd95b9d)\n      0x44\n      dup3\n      add\n      mstore\n      swap1\n      mload\n      swap1\n      dup2\n      swap1\n      sub\n      0x64\n      add\n      swap1\n      revert\n        /* \"@chainlink/contracts/src/v0.7/Operator.sol\":14921:15503  function cancelOracleRequest(... */\n    tag_121:\n        /* \"@chainlink/contracts/src/v0.7/Operator.sol\":15071:15089  bytes31 paramsHash */\n      0x00\n        /* \"@chainlink/contracts/src/v0.7/Operator.sol\":15092:15155  _buildParamsHash(payment, msg.sender, callbackFunc, expiration) */\n      tag_287\n        /* \"@chainlink/contracts/src/v0.7/Operator.sol\":15109:15116  payment */\n      dup5\n        /* \"@chainlink/contracts/src/v0.7/Operator.sol\":15118:15128  msg.sender */\n      caller\n        /* \"@chainlink/contracts/src/v0.7/Operator.sol\":15130:15142  callbackFunc */\n      dup6\n        /* \"@chainlink/contracts/src/v0.7/Operator.sol\":15144:15154  expiration */\n      dup6\n        /* \"@chainlink/contracts/src/v0.7/Operator.sol\":15092:15108  _buildParamsHash */\n      tag_288\n        /* \"@chainlink/contracts/src/v0.7/Operator.sol\":15092:15155  _buildParamsHash(payment, msg.sender, callbackFunc, expiration) */\n      jump\t// in\n    tag_287:\n        /* \"@chainlink/contracts/src/v0.7/Operator.sol\":15169:15193  s_commitments[requestId] */\n      0x00\n      dup7\n      dup2\n      mstore\n        /* \"@chainlink/contracts/src/v0.7/Operator.sol\":15169:15182  s_commitments */\n      0x04\n        /* \"@chainlink/contracts/src/v0.7/Operator.sol\":15169:15193  s_commitments[requestId] */\n      0x20\n      mstore\n      0x40\n      swap1\n      keccak256\n        /* \"@chainlink/contracts/src/v0.7/Operator.sol\":15169:15204  s_commitments[requestId].paramsHash */\n      sload\n        /* \"@chainlink/contracts/src/v0.7/Operator.sol\":15071:15155  bytes31 paramsHash = _buildParamsHash(payment, msg.sender, callbackFunc, expiration) */\n      swap1\n      swap2\n      pop\n        /* \"@chainlink/contracts/src/v0.7/Operator.sol\":15169:15204  s_commitments[requestId].paramsHash */\n      0x08\n      shl\n      not(0xff)\n        /* \"@chainlink/contracts/src/v0.7/Operator.sol\":15169:15218  s_commitments[requestId].paramsHash == paramsHash */\n      swap1\n      dup2\n      and\n      swap1\n      dup3\n      and\n      eq\n        /* \"@chainlink/contracts/src/v0.7/Operator.sol\":15161:15253  require(s_commitments[requestId].paramsHash == paramsHash, \"Params do not match request ID\") */\n      tag_289\n      jumpi\n      0x40\n      dup1\n      mload\n      shl(0xe5, 0x461bcd)\n      dup2\n      mstore\n      0x20\n      0x04\n      dup3\n      add\n      mstore\n      0x1e\n      0x24\n      dup3\n      add\n      mstore\n      0x506172616d7320646f206e6f74206d6174636820726571756573742049440000\n      0x44\n      dup3\n      add\n      mstore\n      swap1\n      mload\n      swap1\n      dup2\n      swap1\n      sub\n      0x64\n      add\n      swap1\n      revert\n    tag_289:\n        /* \"@chainlink/contracts/src/v0.7/Operator.sol\":15331:15346  block.timestamp */\n      timestamp\n        /* \"@chainlink/contracts/src/v0.7/Operator.sol\":15317:15327  expiration */\n      dup3\n        /* \"@chainlink/contracts/src/v0.7/Operator.sol\":15317:15346  expiration <= block.timestamp */\n      gt\n      iszero\n        /* \"@chainlink/contracts/src/v0.7/Operator.sol\":15309:15373  require(expiration <= block.timestamp, \"Request is not expired\") */\n      tag_290\n      jumpi\n      0x40\n      dup1\n      mload\n      shl(0xe5, 0x461bcd)\n      dup2\n      mstore\n      0x20\n      0x04\n      dup3\n      add\n      mstore\n      0x16\n      0x24\n      dup3\n      add\n      mstore\n      shl(0x52, 0x14995c5d595cdd081a5cc81b9bdd08195e1c1a5c9959)\n      0x44\n      dup3\n      add\n      mstore\n      swap1\n      mload\n      swap1\n      dup2\n      swap1\n      sub\n      0x64\n      add\n      swap1\n      revert\n    tag_290:\n        /* \"@chainlink/contracts/src/v0.7/Operator.sol\":15387:15411  s_commitments[requestId] */\n      0x00\n      dup6\n      dup2\n      mstore\n        /* \"@chainlink/contracts/src/v0.7/Operator.sol\":15387:15400  s_commitments */\n      0x04\n        /* \"@chainlink/contracts/src/v0.7/Operator.sol\":15387:15411  s_commitments[requestId] */\n      0x20\n      mstore\n      0x40\n      dup1\n      dup3\n      keccak256\n        /* \"@chainlink/contracts/src/v0.7/Operator.sol\":15380:15411  delete s_commitments[requestId] */\n      dup3\n      swap1\n      sstore\n        /* \"@chainlink/contracts/src/v0.7/Operator.sol\":15422:15452  CancelOracleRequest(requestId) */\n      mload\n        /* \"@chainlink/contracts/src/v0.7/Operator.sol\":15401:15410  requestId */\n      dup7\n      swap2\n        /* \"@chainlink/contracts/src/v0.7/Operator.sol\":15422:15452  CancelOracleRequest(requestId) */\n      0xa7842b9ec549398102c0d91b1b9919b2f20558aefdadf57528a95c6cd3292e93\n      swap2\n      log2\n        /* \"@chainlink/contracts/src/v0.7/Operator.sol\":15459:15498  linkToken.transfer(msg.sender, payment) */\n      0x40\n      dup1\n      mload\n      shl(0xe0, 0xa9059cbb)\n      dup2\n      mstore\n        /* \"@chainlink/contracts/src/v0.7/Operator.sol\":15478:15488  msg.sender */\n      caller\n        /* \"@chainlink/contracts/src/v0.7/Operator.sol\":15459:15498  linkToken.transfer(msg.sender, payment) */\n      0x04\n      dup3\n      add\n      mstore\n      0x24\n      dup2\n      add\n      dup7\n      swap1\n      mstore\n      swap1\n      mload\n      sub(shl(0xa0, 0x01), 0x01)\n        /* \"@chainlink/contracts/src/v0.7/Operator.sol\":15459:15468  linkToken */\n      immutable(\"0x3a6b057b9d48186986616a0f5b0622760f50f4bcc4f1fc92ab446a90a1025914\")\n        /* \"@chainlink/contracts/src/v0.7/Operator.sol\":15459:15477  linkToken.transfer */\n      and\n      swap2\n      0xa9059cbb\n      swap2\n        /* \"@chainlink/contracts/src/v0.7/Operator.sol\":15459:15498  linkToken.transfer(msg.sender, payment) */\n      0x44\n      dup1\n      dup4\n      add\n      swap3\n      0x20\n      swap3\n      swap2\n      swap1\n      dup3\n      swap1\n      sub\n      add\n      dup2\n      0x00\n        /* \"@chainlink/contracts/src/v0.7/Operator.sol\":15459:15477  linkToken.transfer */\n      dup8\n        /* \"@chainlink/contracts/src/v0.7/Operator.sol\":15459:15498  linkToken.transfer(msg.sender, payment) */\n      dup1\n      extcodesize\n      iszero\n      dup1\n      iszero\n      tag_291\n      jumpi\n      0x00\n      dup1\n      revert\n    tag_291:\n      pop\n      gas\n      call\n      iszero\n      dup1\n      iszero\n      tag_293\n      jumpi\n      returndatasize\n      0x00\n      dup1\n      returndatacopy\n      revert(0x00, returndatasize)\n    tag_293:\n      pop\n      pop\n      pop\n      pop\n      mload(0x40)\n      returndatasize\n      0x20\n      dup2\n      lt\n      iszero\n      tag_294\n      jumpi\n      0x00\n      dup1\n      revert\n    tag_294:\n      pop\n      pop\n      pop\n      pop\n      pop\n      pop\n      pop\n        /* \"@chainlink/contracts/src/v0.7/Operator.sol\":14921:15503  function cancelOracleRequest(... */\n      jump\t// out\n        /* \"@chainlink/contracts/src/v0.7/ConfirmedOwnerWithProposal.sol\":1016:1281  function acceptOwnership() external override {... */\n    tag_124:\n        /* \"@chainlink/contracts/src/v0.7/ConfirmedOwnerWithProposal.sol\":1089:1103  s_pendingOwner */\n      and(sub(shl(0xa0, 0x01), 0x01), sload(0x03))\n        /* \"@chainlink/contracts/src/v0.7/ConfirmedOwnerWithProposal.sol\":1075:1085  msg.sender */\n      caller\n        /* \"@chainlink/contracts/src/v0.7/ConfirmedOwnerWithProposal.sol\":1075:1103  msg.sender == s_pendingOwner */\n      eq\n        /* \"@chainlink/contracts/src/v0.7/ConfirmedOwnerWithProposal.sol\":1067:1130  require(msg.sender == s_pendingOwner, \"Must be proposed owner\") */\n      tag_296\n      jumpi\n      0x40\n      dup1\n      mload\n      shl(0xe5, 0x461bcd)\n      dup2\n      mstore\n      0x20\n      0x04\n      dup3\n      add\n      mstore\n      0x16\n      0x24\n      dup3\n      add\n      mstore\n      shl(0x51, 0x26bab9ba10313290383937b837b9b2b21037bbb732b9)\n      0x44\n      dup3\n      add\n      mstore\n      swap1\n      mload\n      swap1\n      dup2\n      swap1\n      sub\n      0x64\n      add\n      swap1\n      revert\n    tag_296:\n        /* \"@chainlink/contracts/src/v0.7/ConfirmedOwnerWithProposal.sol\":1156:1163  s_owner */\n      0x02\n      dup1\n      sload\n      not(sub(shl(0xa0, 0x01), 0x01))\n        /* \"@chainlink/contracts/src/v0.7/ConfirmedOwnerWithProposal.sol\":1169:1189  s_owner = msg.sender */\n      dup1\n      dup3\n      and\n        /* \"@chainlink/contracts/src/v0.7/ConfirmedOwnerWithProposal.sol\":1179:1189  msg.sender */\n      caller\n        /* \"@chainlink/contracts/src/v0.7/ConfirmedOwnerWithProposal.sol\":1169:1189  s_owner = msg.sender */\n      swap1\n      dup2\n      or\n      swap1\n      swap4\n      sstore\n        /* \"@chainlink/contracts/src/v0.7/ConfirmedOwnerWithProposal.sol\":1195:1209  s_pendingOwner */\n      0x03\n        /* \"@chainlink/contracts/src/v0.7/ConfirmedOwnerWithProposal.sol\":1195:1222  s_pendingOwner = address(0) */\n      dup1\n      sload\n      swap1\n      swap2\n      and\n      swap1\n      sstore\n        /* \"@chainlink/contracts/src/v0.7/ConfirmedOwnerWithProposal.sol\":1234:1276  OwnershipTransferred(oldOwner, msg.sender) */\n      mload(0x40)\n      sub(shl(0xa0, 0x01), 0x01)\n        /* \"@chainlink/contracts/src/v0.7/ConfirmedOwnerWithProposal.sol\":1156:1163  s_owner */\n      swap1\n      swap2\n      and\n      swap2\n        /* \"@chainlink/contracts/src/v0.7/ConfirmedOwnerWithProposal.sol\":1179:1189  msg.sender */\n      swap1\n        /* \"@chainlink/contracts/src/v0.7/ConfirmedOwnerWithProposal.sol\":1156:1163  s_owner */\n      dup3\n      swap1\n        /* \"@chainlink/contracts/src/v0.7/ConfirmedOwnerWithProposal.sol\":1234:1276  OwnershipTransferred(oldOwner, msg.sender) */\n      0x8be0079c531659141344cd1fd0a4f28419497f9722a3daafe3b4186f6b6457e0\n      swap1\n        /* \"@chainlink/contracts/src/v0.7/ConfirmedOwnerWithProposal.sol\":1137:1153  address oldOwner */\n      0x00\n      swap1\n        /* \"@chainlink/contracts/src/v0.7/ConfirmedOwnerWithProposal.sol\":1234:1276  OwnershipTransferred(oldOwner, msg.sender) */\n      log3\n        /* \"@chainlink/contracts/src/v0.7/ConfirmedOwnerWithProposal.sol\":1016:1281  function acceptOwnership() external override {... */\n      pop\n      jump\t// out\n        /* \"@chainlink/contracts/src/v0.7/ConfirmedOwnerWithProposal.sol\":1332:1413  function owner() public view override returns (address) {... */\n    tag_127:\n        /* \"@chainlink/contracts/src/v0.7/ConfirmedOwnerWithProposal.sol\":1401:1408  s_owner */\n      and(sub(shl(0xa0, 0x01), 0x01), sload(0x02))\n        /* \"@chainlink/contracts/src/v0.7/ConfirmedOwnerWithProposal.sol\":1332:1413  function owner() public view override returns (address) {... */\n      swap1\n      jump\t// out\n        /* \"@chainlink/contracts/src/v0.7/Operator.sol\":13202:13437  function ownerTransferAndCall(... */\n    tag_134:\n        /* \"@chainlink/contracts/src/v0.7/Operator.sol\":13363:13375  bool success */\n      0x00\n        /* \"@chainlink/contracts/src/v0.7/ConfirmedOwnerWithProposal.sol\":1956:1976  _validateOwnership() */\n      tag_299\n        /* \"@chainlink/contracts/src/v0.7/ConfirmedOwnerWithProposal.sol\":1956:1974  _validateOwnership */\n      tag_191\n        /* \"@chainlink/contracts/src/v0.7/ConfirmedOwnerWithProposal.sol\":1956:1976  _validateOwnership() */\n      jump\t// in\n    tag_299:\n        /* \"@chainlink/contracts/src/v0.7/Operator.sol\":13347:13352  value */\n      dup4\n        /* \"@chainlink/contracts/src/v0.7/Operator.sol\":22260:22266  amount */\n      dup1\n        /* \"@chainlink/contracts/src/v0.7/Operator.sol\":22239:22256  _fundsAvailable() */\n      tag_301\n        /* \"@chainlink/contracts/src/v0.7/Operator.sol\":22239:22254  _fundsAvailable */\n      tag_248\n        /* \"@chainlink/contracts/src/v0.7/Operator.sol\":22239:22256  _fundsAvailable() */\n      jump\t// in\n    tag_301:\n        /* \"@chainlink/contracts/src/v0.7/Operator.sol\":22239:22266  _fundsAvailable() >= amount */\n      lt\n      iszero\n        /* \"@chainlink/contracts/src/v0.7/Operator.sol\":22231:22324  require(_fundsAvailable() >= amount, \"Amount requested is greater than withdrawable balance\") */\n      tag_302\n      jumpi\n      mload(0x40)\n      shl(0xe5, 0x461bcd)\n      dup2\n      mstore\n      0x04\n      add\n      dup1\n      dup1\n      0x20\n      add\n      dup3\n      dup2\n      sub\n      dup3\n      mstore\n      0x35\n      dup2\n      mstore\n      0x20\n      add\n      dup1\n      data_87cfc663fcf6403059a83571137d56c7da4a1aa2a371627fe8ecf960f50e10c2\n      0x35\n      swap2\n      codecopy\n      0x40\n      add\n      swap2\n      pop\n      pop\n      mload(0x40)\n      dup1\n      swap2\n      sub\n      swap1\n      revert\n    tag_302:\n        /* \"@chainlink/contracts/src/v0.7/Operator.sol\":13390:13399  linkToken */\n      immutable(\"0x3a6b057b9d48186986616a0f5b0622760f50f4bcc4f1fc92ab446a90a1025914\")\n      sub(shl(0xa0, 0x01), 0x01)\n        /* \"@chainlink/contracts/src/v0.7/Operator.sol\":13390:13415  linkToken.transferAndCall */\n      and\n      0x4000aea0\n        /* \"@chainlink/contracts/src/v0.7/Operator.sol\":13416:13418  to */\n      dup8\n        /* \"@chainlink/contracts/src/v0.7/Operator.sol\":13420:13425  value */\n      dup8\n        /* \"@chainlink/contracts/src/v0.7/Operator.sol\":13427:13431  data */\n      dup8\n      dup8\n        /* \"@chainlink/contracts/src/v0.7/Operator.sol\":13390:13432  linkToken.transferAndCall(to, value, data) */\n      mload(0x40)\n      dup6\n      0xffffffff\n      and\n      0xe0\n      shl\n      dup2\n      mstore\n      0x04\n      add\n      dup1\n      dup6\n      sub(shl(0xa0, 0x01), 0x01)\n      and\n      dup2\n      mstore\n      0x20\n      add\n      dup5\n      dup2\n      mstore\n      0x20\n      add\n      dup1\n      0x20\n      add\n      dup3\n      dup2\n      sub\n      dup3\n      mstore\n      dup5\n      dup5\n      dup3\n      dup2\n      dup2\n      mstore\n      0x20\n      add\n      swap3\n      pop\n      dup1\n      dup3\n      dup5\n      calldatacopy\n      0x00\n      dup2\n      dup5\n      add\n      mstore\n      not(0x1f)\n      0x1f\n      dup3\n      add\n      and\n      swap1\n      pop\n      dup1\n      dup4\n      add\n      swap3\n      pop\n      pop\n      pop\n      swap6\n      pop\n      pop\n      pop\n      pop\n      pop\n      pop\n      0x20\n      mload(0x40)\n      dup1\n      dup4\n      sub\n      dup2\n      0x00\n      dup8\n      dup1\n      extcodesize\n      iszero\n      dup1\n      iszero\n      tag_304\n      jumpi\n      0x00\n      dup1\n      revert\n    tag_304:\n      pop\n      gas\n      call\n      iszero\n      dup1\n      iszero\n      tag_306\n      jumpi\n      returndatasize\n      0x00\n      dup1\n      returndatacopy\n      revert(0x00, returndatasize)\n    tag_306:\n      pop\n      pop\n      pop\n      pop\n      mload(0x40)\n      returndatasize\n      0x20\n      dup2\n      lt\n      iszero\n      tag_307\n      jumpi\n      0x00\n      dup1\n      revert\n    tag_307:\n      pop\n      mload\n      swap7\n        /* \"@chainlink/contracts/src/v0.7/Operator.sol\":13202:13437  function ownerTransferAndCall(... */\n      swap6\n      pop\n      pop\n      pop\n      pop\n      pop\n      pop\n      jump\t// out\n        /* \"@chainlink/contracts/src/v0.7/LinkTokenReceiver.sol\":476:1091  function onTokenTransfer(... */\n    tag_141:\n        /* \"@chainlink/contracts/src/v0.7/LinkTokenReceiver.sol\":1455:1474  getChainlinkToken() */\n      tag_309\n        /* \"@chainlink/contracts/src/v0.7/LinkTokenReceiver.sol\":1455:1472  getChainlinkToken */\n      tag_47\n        /* \"@chainlink/contracts/src/v0.7/LinkTokenReceiver.sol\":1455:1474  getChainlinkToken() */\n      jump\t// in\n    tag_309:\n      sub(shl(0xa0, 0x01), 0x01)\n        /* \"@chainlink/contracts/src/v0.7/LinkTokenReceiver.sol\":1441:1474  msg.sender == getChainlinkToken() */\n      and\n        /* \"@chainlink/contracts/src/v0.7/LinkTokenReceiver.sol\":1441:1451  msg.sender */\n      caller\n      sub(shl(0xa0, 0x01), 0x01)\n        /* \"@chainlink/contracts/src/v0.7/LinkTokenReceiver.sol\":1441:1474  msg.sender == getChainlinkToken() */\n      and\n      eq\n        /* \"@chainlink/contracts/src/v0.7/LinkTokenReceiver.sol\":1433:1498  require(msg.sender == getChainlinkToken(), \"Must use LINK token\") */\n      tag_310\n      jumpi\n      0x40\n      dup1\n      mload\n      shl(0xe5, 0x461bcd)\n      dup2\n      mstore\n      0x20\n      0x04\n      dup3\n      add\n      mstore\n      0x13\n      0x24\n      dup3\n      add\n      mstore\n      shl(0x69, 0x26bab9ba103ab9b2902624a725903a37b5b2b7)\n      0x44\n      dup3\n      add\n      mstore\n      swap1\n      mload\n      swap1\n      dup2\n      swap1\n      sub\n      0x64\n      add\n      swap1\n      revert\n    tag_310:\n        /* \"@chainlink/contracts/src/v0.7/LinkTokenReceiver.sol\":1860:1862  32 */\n      0x20\n        /* \"@chainlink/contracts/src/v0.7/LinkTokenReceiver.sol\":1850:1863  add(data, 32) */\n      dup2\n      add\n        /* \"@chainlink/contracts/src/v0.7/LinkTokenReceiver.sol\":1844:1864  mload(add(data, 32)) */\n      mload\n        /* \"@chainlink/contracts/src/v0.7/LinkTokenReceiver.sol\":618:622  data */\n      dup2\n      swap1\n        /* \"@chainlink/contracts/src/v0.7/LinkTokenReceiver.sol\":1875:1923  _validateTokenTransferAction(funcSelector, data) */\n      tag_312\n        /* \"@chainlink/contracts/src/v0.7/LinkTokenReceiver.sol\":1844:1864  mload(add(data, 32)) */\n      dup2\n        /* \"@chainlink/contracts/src/v0.7/LinkTokenReceiver.sol\":618:622  data */\n      dup4\n        /* \"@chainlink/contracts/src/v0.7/LinkTokenReceiver.sol\":1875:1903  _validateTokenTransferAction */\n      tag_313\n        /* \"@chainlink/contracts/src/v0.7/LinkTokenReceiver.sol\":1875:1923  _validateTokenTransferAction(funcSelector, data) */\n      jump\t// in\n    tag_312:\n        /* \"@chainlink/contracts/src/v0.7/LinkTokenReceiver.sol\":726:732  sender */\n      dup5\n        /* \"@chainlink/contracts/src/v0.7/LinkTokenReceiver.sol\":721:723  36 */\n      0x24\n        /* \"@chainlink/contracts/src/v0.7/LinkTokenReceiver.sol\":715:719  data */\n      dup5\n        /* \"@chainlink/contracts/src/v0.7/LinkTokenReceiver.sol\":711:724  add(data, 36) */\n      add\n        /* \"@chainlink/contracts/src/v0.7/LinkTokenReceiver.sol\":704:733  mstore(add(data, 36), sender) */\n      mstore\n        /* \"@chainlink/contracts/src/v0.7/LinkTokenReceiver.sol\":854:860  amount */\n      dup4\n        /* \"@chainlink/contracts/src/v0.7/LinkTokenReceiver.sol\":849:851  68 */\n      0x44\n        /* \"@chainlink/contracts/src/v0.7/LinkTokenReceiver.sol\":843:847  data */\n      dup5\n        /* \"@chainlink/contracts/src/v0.7/LinkTokenReceiver.sol\":839:852  add(data, 68) */\n      add\n        /* \"@chainlink/contracts/src/v0.7/LinkTokenReceiver.sol\":832:861  mstore(add(data, 68), amount) */\n      mstore\n        /* \"@chainlink/contracts/src/v0.7/LinkTokenReceiver.sol\":963:975  bool success */\n      0x00\n        /* \"@chainlink/contracts/src/v0.7/LinkTokenReceiver.sol\":989:993  this */\n      address\n      sub(shl(0xa0, 0x01), 0x01)\n        /* \"@chainlink/contracts/src/v0.7/LinkTokenReceiver.sol\":981:1007  address(this).delegatecall */\n      and\n        /* \"@chainlink/contracts/src/v0.7/LinkTokenReceiver.sol\":1008:1012  data */\n      dup5\n        /* \"@chainlink/contracts/src/v0.7/LinkTokenReceiver.sol\":981:1013  address(this).delegatecall(data) */\n      mload(0x40)\n      dup1\n      dup3\n      dup1\n      mload\n      swap1\n      0x20\n      add\n      swap1\n      dup1\n      dup4\n      dup4\n    tag_315:\n      0x20\n      dup4\n      lt\n      tag_317\n      jumpi\n      dup1\n      mload\n      dup3\n      mstore\n      not(0x1f)\n      swap1\n      swap3\n      add\n      swap2\n      0x20\n      swap2\n      dup3\n      add\n      swap2\n      add\n      jump(tag_315)\n    tag_317:\n      0x01\n      dup4\n      0x20\n      sub\n      0x0100\n      exp\n      sub\n      dup1\n      not\n      dup3\n      mload\n      and\n      dup2\n      dup5\n      mload\n      and\n      dup1\n      dup3\n      or\n      dup6\n      mstore\n      pop\n      pop\n      pop\n      pop\n      pop\n      pop\n      swap1\n      pop\n      add\n      swap2\n      pop\n      pop\n      0x00\n      mload(0x40)\n      dup1\n      dup4\n      sub\n      dup2\n      dup6\n      gas\n      delegatecall\n      swap2\n      pop\n      pop\n      returndatasize\n      dup1\n      0x00\n      dup2\n      eq\n      tag_320\n      jumpi\n      mload(0x40)\n      swap2\n      pop\n      and(add(returndatasize, 0x3f), not(0x1f))\n      dup3\n      add\n      0x40\n      mstore\n      returndatasize\n      dup3\n      mstore\n      returndatasize\n      0x00\n      0x20\n      dup5\n      add\n      returndatacopy\n      jump(tag_319)\n    tag_320:\n      0x60\n      swap2\n      pop\n    tag_319:\n      pop\n        /* \"@chainlink/contracts/src/v0.7/LinkTokenReceiver.sol\":962:1013  (bool success, ) = address(this).delegatecall(data) */\n      pop\n      swap1\n      pop\n        /* \"@chainlink/contracts/src/v0.7/LinkTokenReceiver.sol\":1050:1057  success */\n      dup1\n        /* \"@chainlink/contracts/src/v0.7/LinkTokenReceiver.sol\":1042:1086  require(success, \"Unable to create request\") */\n      tag_321\n      jumpi\n      0x40\n      dup1\n      mload\n      shl(0xe5, 0x461bcd)\n      dup2\n      mstore\n      0x20\n      0x04\n      dup3\n      add\n      mstore\n      0x18\n      0x24\n      dup3\n      add\n      mstore\n      0x556e61626c6520746f2063726561746520726571756573740000000000000000\n      0x44\n      dup3\n      add\n      mstore\n      swap1\n      mload\n      swap1\n      dup2\n      swap1\n      sub\n      0x64\n      add\n      swap1\n      revert\n    tag_321:\n        /* \"@chainlink/contracts/src/v0.7/LinkTokenReceiver.sol\":1929:1930  _ */\n      pop\n        /* \"@chainlink/contracts/src/v0.7/LinkTokenReceiver.sol\":1504:1505  _ */\n      pop\n      pop\n        /* \"@chainlink/contracts/src/v0.7/LinkTokenReceiver.sol\":476:1091  function onTokenTransfer(... */\n      pop\n      pop\n      pop\n      jump\t// out\n        /* \"@chainlink/contracts/src/v0.7/Operator.sol\":16097:16749  function cancelOracleRequestByRequester(... */\n    tag_145:\n        /* \"@chainlink/contracts/src/v0.7/Operator.sol\":16245:16262  bytes32 requestId */\n      0x00\n        /* \"@chainlink/contracts/src/v0.7/Operator.sol\":16292:16302  msg.sender */\n      caller\n        /* \"@chainlink/contracts/src/v0.7/Operator.sol\":16304:16309  nonce */\n      dup6\n        /* \"@chainlink/contracts/src/v0.7/Operator.sol\":16275:16310  abi.encodePacked(msg.sender, nonce) */\n      add(0x20, mload(0x40))\n      dup1\n      dup4\n      sub(shl(0xa0, 0x01), 0x01)\n      and\n      0x60\n      shl\n      dup2\n      mstore\n      0x14\n      add\n      dup3\n      dup2\n      mstore\n      0x20\n      add\n      swap3\n      pop\n      pop\n      pop\n      mload(0x40)\n      0x20\n      dup2\n      dup4\n      sub\n      sub\n      dup2\n      mstore\n      swap1\n      0x40\n      mstore\n        /* \"@chainlink/contracts/src/v0.7/Operator.sol\":16265:16311  keccak256(abi.encodePacked(msg.sender, nonce)) */\n      dup1\n      mload\n      swap1\n      0x20\n      add\n      keccak256\n        /* \"@chainlink/contracts/src/v0.7/Operator.sol\":16245:16311  bytes32 requestId = keccak256(abi.encodePacked(msg.sender, nonce)) */\n      swap1\n      pop\n        /* \"@chainlink/contracts/src/v0.7/Operator.sol\":16317:16335  bytes31 paramsHash */\n      0x00\n        /* \"@chainlink/contracts/src/v0.7/Operator.sol\":16338:16401  _buildParamsHash(payment, msg.sender, callbackFunc, expiration) */\n      tag_323\n        /* \"@chainlink/contracts/src/v0.7/Operator.sol\":16355:16362  payment */\n      dup6\n        /* \"@chainlink/contracts/src/v0.7/Operator.sol\":16364:16374  msg.sender */\n      caller\n        /* \"@chainlink/contracts/src/v0.7/Operator.sol\":16376:16388  callbackFunc */\n      dup7\n        /* \"@chainlink/contracts/src/v0.7/Operator.sol\":16390:16400  expiration */\n      dup7\n        /* \"@chainlink/contracts/src/v0.7/Operator.sol\":16338:16354  _buildParamsHash */\n      tag_288\n        /* \"@chainlink/contracts/src/v0.7/Operator.sol\":16338:16401  _buildParamsHash(payment, msg.sender, callbackFunc, expiration) */\n      jump\t// in\n    tag_323:\n        /* \"@chainlink/contracts/src/v0.7/Operator.sol\":16415:16439  s_commitments[requestId] */\n      0x00\n      dup4\n      dup2\n      mstore\n        /* \"@chainlink/contracts/src/v0.7/Operator.sol\":16415:16428  s_commitments */\n      0x04\n        /* \"@chainlink/contracts/src/v0.7/Operator.sol\":16415:16439  s_commitments[requestId] */\n      0x20\n      mstore\n      0x40\n      swap1\n      keccak256\n        /* \"@chainlink/contracts/src/v0.7/Operator.sol\":16415:16450  s_commitments[requestId].paramsHash */\n      sload\n        /* \"@chainlink/contracts/src/v0.7/Operator.sol\":16317:16401  bytes31 paramsHash = _buildParamsHash(payment, msg.sender, callbackFunc, expiration) */\n      swap1\n      swap2\n      pop\n        /* \"@chainlink/contracts/src/v0.7/Operator.sol\":16415:16450  s_commitments[requestId].paramsHash */\n      0x08\n      shl\n      not(0xff)\n        /* \"@chainlink/contracts/src/v0.7/Operator.sol\":16415:16464  s_commitments[requestId].paramsHash == paramsHash */\n      swap1\n      dup2\n      and\n      swap1\n      dup3\n      and\n      eq\n        /* \"@chainlink/contracts/src/v0.7/Operator.sol\":16407:16499  require(s_commitments[requestId].paramsHash == paramsHash, \"Params do not match request ID\") */\n      tag_324\n      jumpi\n      0x40\n      dup1\n      mload\n      shl(0xe5, 0x461bcd)\n      dup2\n      mstore\n      0x20\n      0x04\n      dup3\n      add\n      mstore\n      0x1e\n      0x24\n      dup3\n      add\n      mstore\n      0x506172616d7320646f206e6f74206d6174636820726571756573742049440000\n      0x44\n      dup3\n      add\n      mstore\n      swap1\n      mload\n      swap1\n      dup2\n      swap1\n      sub\n      0x64\n      add\n      swap1\n      revert\n    tag_324:\n        /* \"@chainlink/contracts/src/v0.7/Operator.sol\":16577:16592  block.timestamp */\n      timestamp\n        /* \"@chainlink/contracts/src/v0.7/Operator.sol\":16563:16573  expiration */\n      dup4\n        /* \"@chainlink/contracts/src/v0.7/Operator.sol\":16563:16592  expiration <= block.timestamp */\n      gt\n      iszero\n        /* \"@chainlink/contracts/src/v0.7/Operator.sol\":16555:16619  require(expiration <= block.timestamp, \"Request is not expired\") */\n      tag_325\n      jumpi\n      0x40\n      dup1\n      mload\n      shl(0xe5, 0x461bcd)\n      dup2\n      mstore\n      0x20\n      0x04\n      dup3\n      add\n      mstore\n      0x16\n      0x24\n      dup3\n      add\n      mstore\n      shl(0x52, 0x14995c5d595cdd081a5cc81b9bdd08195e1c1a5c9959)\n      0x44\n      dup3\n      add\n      mstore\n      swap1\n      mload\n      swap1\n      dup2\n      swap1\n      sub\n      0x64\n      add\n      swap1\n      revert\n    tag_325:\n        /* \"@chainlink/contracts/src/v0.7/Operator.sol\":16633:16657  s_commitments[requestId] */\n      0x00\n      dup3\n      dup2\n      mstore\n        /* \"@chainlink/contracts/src/v0.7/Operator.sol\":16633:16646  s_commitments */\n      0x04\n        /* \"@chainlink/contracts/src/v0.7/Operator.sol\":16633:16657  s_commitments[requestId] */\n      0x20\n      mstore\n      0x40\n      dup1\n      dup3\n      keccak256\n        /* \"@chainlink/contracts/src/v0.7/Operator.sol\":16626:16657  delete s_commitments[requestId] */\n      dup3\n      swap1\n      sstore\n        /* \"@chainlink/contracts/src/v0.7/Operator.sol\":16668:16698  CancelOracleRequest(requestId) */\n      mload\n        /* \"@chainlink/contracts/src/v0.7/Operator.sol\":16647:16656  requestId */\n      dup4\n      swap2\n        /* \"@chainlink/contracts/src/v0.7/Operator.sol\":16668:16698  CancelOracleRequest(requestId) */\n      0xa7842b9ec549398102c0d91b1b9919b2f20558aefdadf57528a95c6cd3292e93\n      swap2\n      log2\n        /* \"@chainlink/contracts/src/v0.7/Operator.sol\":16705:16744  linkToken.transfer(msg.sender, payment) */\n      0x40\n      dup1\n      mload\n      shl(0xe0, 0xa9059cbb)\n      dup2\n      mstore\n        /* \"@chainlink/contracts/src/v0.7/Operator.sol\":16724:16734  msg.sender */\n      caller\n        /* \"@chainlink/contracts/src/v0.7/Operator.sol\":16705:16744  linkToken.transfer(msg.sender, payment) */\n      0x04\n      dup3\n      add\n      mstore\n      0x24\n      dup2\n      add\n      dup8\n      swap1\n      mstore\n      swap1\n      mload\n      sub(shl(0xa0, 0x01), 0x01)\n        /* \"@chainlink/contracts/src/v0.7/Operator.sol\":16705:16714  linkToken */\n      immutable(\"0x3a6b057b9d48186986616a0f5b0622760f50f4bcc4f1fc92ab446a90a1025914\")\n        /* \"@chainlink/contracts/src/v0.7/Operator.sol\":16705:16723  linkToken.transfer */\n      and\n      swap2\n      0xa9059cbb\n      swap2\n        /* \"@chainlink/contracts/src/v0.7/Operator.sol\":16705:16744  linkToken.transfer(msg.sender, payment) */\n      0x44\n      dup1\n      dup4\n      add\n      swap3\n      0x20\n      swap3\n      swap2\n      swap1\n      dup3\n      swap1\n      sub\n      add\n      dup2\n      0x00\n        /* \"@chainlink/contracts/src/v0.7/Operator.sol\":16705:16723  linkToken.transfer */\n      dup8\n        /* \"@chainlink/contracts/src/v0.7/Operator.sol\":16705:16744  linkToken.transfer(msg.sender, payment) */\n      dup1\n      extcodesize\n      iszero\n      dup1\n      iszero\n      tag_326\n      jumpi\n      0x00\n      dup1\n      revert\n    tag_326:\n      pop\n      gas\n      call\n      iszero\n      dup1\n      iszero\n      tag_328\n      jumpi\n      returndatasize\n      0x00\n      dup1\n      returndatacopy\n      revert(0x00, returndatasize)\n    tag_328:\n      pop\n      pop\n      pop\n      pop\n      mload(0x40)\n      returndatasize\n      0x20\n      dup2\n      lt\n      iszero\n      tag_329\n      jumpi\n      0x00\n      dup1\n      revert\n    tag_329:\n      pop\n      pop\n      pop\n      pop\n      pop\n      pop\n      pop\n      pop\n        /* \"@chainlink/contracts/src/v0.7/Operator.sol\":16097:16749  function cancelOracleRequestByRequester(... */\n      jump\t// out\n        /* \"@chainlink/contracts/src/v0.7/AuthorizedReceiver.sol\":543:1215  function setAuthorizedSenders(address[] calldata senders) external override validateAuthorizedSenderSetter {... */\n    tag_152:\n        /* \"@chainlink/contracts/src/v0.7/AuthorizedReceiver.sol\":2504:2530  _canSetAuthorizedSenders() */\n      tag_331\n        /* \"@chainlink/contracts/src/v0.7/AuthorizedReceiver.sol\":2504:2528  _canSetAuthorizedSenders */\n      tag_177\n        /* \"@chainlink/contracts/src/v0.7/AuthorizedReceiver.sol\":2504:2530  _canSetAuthorizedSenders() */\n      jump\t// in\n    tag_331:\n        /* \"@chainlink/contracts/src/v0.7/AuthorizedReceiver.sol\":2496:2564  require(_canSetAuthorizedSenders(), \"Cannot set authorized senders\") */\n      tag_332\n      jumpi\n      0x40\n      dup1\n      mload\n      shl(0xe5, 0x461bcd)\n      dup2\n      mstore\n      0x20\n      0x04\n      dup3\n      add\n      mstore\n      0x1d\n      0x24\n      dup3\n      add\n      mstore\n      0x00\n      dup1\n      mload\n      0x20\n      data_079032fd9b86c16fcb0f8244dac8a4e899ee4a34a2e7f6cd2fb0f6c233f00b83\n      dup4\n      codecopy\n      dup2\n      mload\n      swap2\n      mstore\n      0x44\n      dup3\n      add\n      mstore\n      swap1\n      mload\n      swap1\n      dup2\n      swap1\n      sub\n      0x64\n      add\n      swap1\n      revert\n    tag_332:\n        /* \"@chainlink/contracts/src/v0.7/AuthorizedReceiver.sol\":664:682  senders.length > 0 */\n      dup1\n        /* \"@chainlink/contracts/src/v0.7/AuthorizedReceiver.sol\":656:725  require(senders.length > 0, \"Must have at least 1 authorized sender\") */\n      tag_334\n      jumpi\n      mload(0x40)\n      shl(0xe5, 0x461bcd)\n      dup2\n      mstore\n      0x04\n      add\n      dup1\n      dup1\n      0x20\n      add\n      dup3\n      dup2\n      sub\n      dup3\n      mstore\n      0x26\n      dup2\n      mstore\n      0x20\n      add\n      dup1\n      data_14acbd13c311ce77adbf2abb2c29118807e2efa37eb8080b0a33366f8bd4c4af\n      0x26\n      swap2\n      codecopy\n      0x40\n      add\n      swap2\n      pop\n      pop\n      mload(0x40)\n      dup1\n      swap2\n      sub\n      swap1\n      revert\n    tag_334:\n        /* \"@chainlink/contracts/src/v0.7/AuthorizedReceiver.sol\":813:835  s_authorizedSenderList */\n      0x01\n        /* \"@chainlink/contracts/src/v0.7/AuthorizedReceiver.sol\":813:842  s_authorizedSenderList.length */\n      sload\n        /* \"@chainlink/contracts/src/v0.7/AuthorizedReceiver.sol\":779:810  uint256 authorizedSendersLength */\n      0x00\n        /* \"@chainlink/contracts/src/v0.7/AuthorizedReceiver.sol\":848:971  for (uint256 i = 0; i < authorizedSendersLength; i++) {... */\n    tag_335:\n        /* \"@chainlink/contracts/src/v0.7/AuthorizedReceiver.sol\":872:895  authorizedSendersLength */\n      dup2\n        /* \"@chainlink/contracts/src/v0.7/AuthorizedReceiver.sol\":868:869  i */\n      dup2\n        /* \"@chainlink/contracts/src/v0.7/AuthorizedReceiver.sol\":868:895  i < authorizedSendersLength */\n      lt\n        /* \"@chainlink/contracts/src/v0.7/AuthorizedReceiver.sol\":848:971  for (uint256 i = 0; i < authorizedSendersLength; i++) {... */\n      iszero\n      tag_336\n      jumpi\n        /* \"@chainlink/contracts/src/v0.7/AuthorizedReceiver.sol\":959:964  false */\n      0x00\n        /* \"@chainlink/contracts/src/v0.7/AuthorizedReceiver.sol\":910:929  s_authorizedSenders */\n      dup1\n        /* \"@chainlink/contracts/src/v0.7/AuthorizedReceiver.sol\":910:956  s_authorizedSenders[s_authorizedSenderList[i]] */\n      0x00\n        /* \"@chainlink/contracts/src/v0.7/AuthorizedReceiver.sol\":930:952  s_authorizedSenderList */\n      0x01\n        /* \"@chainlink/contracts/src/v0.7/AuthorizedReceiver.sol\":953:954  i */\n      dup5\n        /* \"@chainlink/contracts/src/v0.7/AuthorizedReceiver.sol\":930:955  s_authorizedSenderList[i] */\n      dup2\n      sload\n      dup2\n      lt\n      tag_338\n      jumpi\n      invalid\n    tag_338:\n      0x00\n      swap2\n      dup3\n      mstore\n      0x20\n      dup1\n      dup4\n      keccak256\n      swap2\n      swap1\n      swap2\n      add\n      sload\n      sub(shl(0xa0, 0x01), 0x01)\n      and\n        /* \"@chainlink/contracts/src/v0.7/AuthorizedReceiver.sol\":910:956  s_authorizedSenders[s_authorizedSenderList[i]] */\n      dup4\n      mstore\n      dup3\n      add\n      swap3\n      swap1\n      swap3\n      mstore\n      0x40\n      add\n      swap1\n      keccak256\n        /* \"@chainlink/contracts/src/v0.7/AuthorizedReceiver.sol\":910:964  s_authorizedSenders[s_authorizedSenderList[i]] = false */\n      dup1\n      sload\n      not(0xff)\n      and\n      swap2\n      iszero\n      iszero\n      swap2\n      swap1\n      swap2\n      or\n      swap1\n      sstore\n      0x01\n        /* \"@chainlink/contracts/src/v0.7/AuthorizedReceiver.sol\":897:900  i++ */\n      add\n        /* \"@chainlink/contracts/src/v0.7/AuthorizedReceiver.sol\":848:971  for (uint256 i = 0; i < authorizedSendersLength; i++) {... */\n      jump(tag_335)\n    tag_336:\n      pop\n        /* \"@chainlink/contracts/src/v0.7/AuthorizedReceiver.sol\":1004:1013  uint256 i */\n      0x00\n        /* \"@chainlink/contracts/src/v0.7/AuthorizedReceiver.sol\":999:1097  for (uint256 i = 0; i < senders.length; i++) {... */\n    tag_340:\n        /* \"@chainlink/contracts/src/v0.7/AuthorizedReceiver.sol\":1019:1037  i < senders.length */\n      dup3\n      dup2\n      lt\n        /* \"@chainlink/contracts/src/v0.7/AuthorizedReceiver.sol\":999:1097  for (uint256 i = 0; i < senders.length; i++) {... */\n      iszero\n      tag_341\n      jumpi\n        /* \"@chainlink/contracts/src/v0.7/AuthorizedReceiver.sol\":1086:1090  true */\n      0x01\n        /* \"@chainlink/contracts/src/v0.7/AuthorizedReceiver.sol\":1052:1071  s_authorizedSenders */\n      0x00\n        /* \"@chainlink/contracts/src/v0.7/AuthorizedReceiver.sol\":1052:1083  s_authorizedSenders[senders[i]] */\n      dup1\n        /* \"@chainlink/contracts/src/v0.7/AuthorizedReceiver.sol\":1072:1079  senders */\n      dup7\n      dup7\n        /* \"@chainlink/contracts/src/v0.7/AuthorizedReceiver.sol\":1080:1081  i */\n      dup6\n        /* \"@chainlink/contracts/src/v0.7/AuthorizedReceiver.sol\":1072:1082  senders[i] */\n      dup2\n      dup2\n      lt\n      tag_343\n      jumpi\n      invalid\n    tag_343:\n      0x20\n      swap1\n      dup2\n      mul\n      swap3\n      swap1\n      swap3\n      add\n      calldataload\n      sub(shl(0xa0, 0x01), 0x01)\n      and\n        /* \"@chainlink/contracts/src/v0.7/AuthorizedReceiver.sol\":1052:1083  s_authorizedSenders[senders[i]] */\n      dup4\n      mstore\n      pop\n      dup2\n      add\n      swap2\n      swap1\n      swap2\n      mstore\n      0x40\n      add\n      0x00\n      keccak256\n        /* \"@chainlink/contracts/src/v0.7/AuthorizedReceiver.sol\":1052:1090  s_authorizedSenders[senders[i]] = true */\n      dup1\n      sload\n      not(0xff)\n      and\n      swap2\n      iszero\n      iszero\n      swap2\n      swap1\n      swap2\n      or\n      swap1\n      sstore\n      0x01\n        /* \"@chainlink/contracts/src/v0.7/AuthorizedReceiver.sol\":1039:1042  i++ */\n      add\n        /* \"@chainlink/contracts/src/v0.7/AuthorizedReceiver.sol\":999:1097  for (uint256 i = 0; i < senders.length; i++) {... */\n      jump(tag_340)\n    tag_341:\n      pop\n        /* \"@chainlink/contracts/src/v0.7/AuthorizedReceiver.sol\":1122:1154  s_authorizedSenderList = senders */\n      tag_344\n        /* \"@chainlink/contracts/src/v0.7/AuthorizedReceiver.sol\":1122:1144  s_authorizedSenderList */\n      0x01\n        /* \"@chainlink/contracts/src/v0.7/AuthorizedReceiver.sol\":1147:1154  senders */\n      dup5\n      dup5\n        /* \"@chainlink/contracts/src/v0.7/AuthorizedReceiver.sol\":1122:1154  s_authorizedSenderList = senders */\n      tag_345\n      jump\t// in\n    tag_344:\n      pop\n        /* \"@chainlink/contracts/src/v0.7/AuthorizedReceiver.sol\":1165:1210  AuthorizedSendersChanged(senders, msg.sender) */\n      0xf263cfb3e4298332e776194610cf9fdc09ccb3ada8b9aa39764d882e11fbf0a0\n        /* \"@chainlink/contracts/src/v0.7/AuthorizedReceiver.sol\":1190:1197  senders */\n      dup4\n      dup4\n        /* \"@chainlink/contracts/src/v0.7/AuthorizedReceiver.sol\":1199:1209  msg.sender */\n      caller\n        /* \"@chainlink/contracts/src/v0.7/AuthorizedReceiver.sol\":1165:1210  AuthorizedSendersChanged(senders, msg.sender) */\n      mload(0x40)\n      dup1\n      dup1\n      0x20\n      add\n      dup4\n      sub(shl(0xa0, 0x01), 0x01)\n      and\n      dup2\n      mstore\n      0x20\n      add\n      dup3\n      dup2\n      sub\n      dup3\n      mstore\n      dup6\n      dup6\n      dup3\n      dup2\n      dup2\n      mstore\n      0x20\n      add\n      swap3\n      pop\n      0x20\n      mul\n      dup1\n      dup3\n      dup5\n      calldatacopy\n      0x00\n      dup4\n      dup3\n      add\n      mstore\n      mload(0x40)\n      0x1f\n      swap1\n      swap2\n      add\n      not(0x1f)\n      and\n      swap1\n      swap3\n      add\n      dup3\n      swap1\n      sub\n      swap7\n      pop\n      swap1\n      swap5\n      pop\n      pop\n      pop\n      pop\n      pop\n      log1\n        /* \"@chainlink/contracts/src/v0.7/AuthorizedReceiver.sol\":2570:2571  _ */\n      pop\n        /* \"@chainlink/contracts/src/v0.7/AuthorizedReceiver.sol\":543:1215  function setAuthorizedSenders(address[] calldata senders) external override validateAuthorizedSenderSetter {... */\n      pop\n      pop\n      jump\t// out\n        /* \"@chainlink/contracts/src/v0.7/ConfirmedOwnerWithProposal.sol\":826:924  function transferOwnership(address to) public override onlyOwner {... */\n    tag_156:\n        /* \"@chainlink/contracts/src/v0.7/ConfirmedOwnerWithProposal.sol\":1956:1976  _validateOwnership() */\n      tag_347\n        /* \"@chainlink/contracts/src/v0.7/ConfirmedOwnerWithProposal.sol\":1956:1974  _validateOwnership */\n      tag_191\n        /* \"@chainlink/contracts/src/v0.7/ConfirmedOwnerWithProposal.sol\":1956:1976  _validateOwnership() */\n      jump\t// in\n    tag_347:\n        /* \"@chainlink/contracts/src/v0.7/ConfirmedOwnerWithProposal.sol\":897:919  _transferOwnership(to) */\n      tag_349\n        /* \"@chainlink/contracts/src/v0.7/ConfirmedOwnerWithProposal.sol\":916:918  to */\n      dup2\n        /* \"@chainlink/contracts/src/v0.7/ConfirmedOwnerWithProposal.sol\":897:915  _transferOwnership */\n      tag_350\n        /* \"@chainlink/contracts/src/v0.7/ConfirmedOwnerWithProposal.sol\":897:919  _transferOwnership(to) */\n      jump\t// in\n    tag_349:\n        /* \"@chainlink/contracts/src/v0.7/ConfirmedOwnerWithProposal.sol\":826:924  function transferOwnership(address to) public override onlyOwner {... */\n      pop\n      jump\t// out\n        /* \"@chainlink/contracts/src/v0.7/Operator.sol\":11909:12133  function withdraw(address recipient, uint256 amount)... */\n    tag_160:\n        /* \"@chainlink/contracts/src/v0.7/ConfirmedOwnerWithProposal.sol\":1956:1976  _validateOwnership() */\n      tag_352\n        /* \"@chainlink/contracts/src/v0.7/ConfirmedOwnerWithProposal.sol\":1956:1974  _validateOwnership */\n      tag_191\n        /* \"@chainlink/contracts/src/v0.7/ConfirmedOwnerWithProposal.sol\":1956:1976  _validateOwnership() */\n      jump\t// in\n    tag_352:\n        /* \"@chainlink/contracts/src/v0.7/Operator.sol\":12067:12073  amount */\n      dup1\n        /* \"@chainlink/contracts/src/v0.7/Operator.sol\":22260:22266  amount */\n      dup1\n        /* \"@chainlink/contracts/src/v0.7/Operator.sol\":22239:22256  _fundsAvailable() */\n      tag_354\n        /* \"@chainlink/contracts/src/v0.7/Operator.sol\":22239:22254  _fundsAvailable */\n      tag_248\n        /* \"@chainlink/contracts/src/v0.7/Operator.sol\":22239:22256  _fundsAvailable() */\n      jump\t// in\n    tag_354:\n        /* \"@chainlink/contracts/src/v0.7/Operator.sol\":22239:22266  _fundsAvailable() >= amount */\n      lt\n      iszero\n        /* \"@chainlink/contracts/src/v0.7/Operator.sol\":22231:22324  require(_fundsAvailable() >= amount, \"Amount requested is greater than withdrawable balance\") */\n      tag_355\n      jumpi\n      mload(0x40)\n      shl(0xe5, 0x461bcd)\n      dup2\n      mstore\n      0x04\n      add\n      dup1\n      dup1\n      0x20\n      add\n      dup3\n      dup2\n      sub\n      dup3\n      mstore\n      0x35\n      dup2\n      mstore\n      0x20\n      add\n      dup1\n      data_87cfc663fcf6403059a83571137d56c7da4a1aa2a371627fe8ecf960f50e10c2\n      0x35\n      swap2\n      codecopy\n      0x40\n      add\n      swap2\n      pop\n      pop\n      mload(0x40)\n      dup1\n      swap2\n      sub\n      swap1\n      revert\n    tag_355:\n        /* \"@chainlink/contracts/src/v0.7/Operator.sol\":12090:12099  linkToken */\n      immutable(\"0x3a6b057b9d48186986616a0f5b0622760f50f4bcc4f1fc92ab446a90a1025914\")\n      sub(shl(0xa0, 0x01), 0x01)\n        /* \"@chainlink/contracts/src/v0.7/Operator.sol\":12090:12108  linkToken.transfer */\n      and\n      0xa9059cbb\n        /* \"@chainlink/contracts/src/v0.7/Operator.sol\":12109:12118  recipient */\n      dup5\n        /* \"@chainlink/contracts/src/v0.7/Operator.sol\":12120:12126  amount */\n      dup5\n        /* \"@chainlink/contracts/src/v0.7/Operator.sol\":12090:12127  linkToken.transfer(recipient, amount) */\n      mload(0x40)\n      dup4\n      0xffffffff\n      and\n      0xe0\n      shl\n      dup2\n      mstore\n      0x04\n      add\n      dup1\n      dup4\n      sub(shl(0xa0, 0x01), 0x01)\n      and\n      dup2\n      mstore\n      0x20\n      add\n      dup3\n      dup2\n      mstore\n      0x20\n      add\n      swap3\n      pop\n      pop\n      pop\n      0x20\n      mload(0x40)\n      dup1\n      dup4\n      sub\n      dup2\n      0x00\n      dup8\n      dup1\n      extcodesize\n      iszero\n      dup1\n      iszero\n      tag_357\n      jumpi\n      0x00\n      dup1\n      revert\n    tag_357:\n      pop\n      gas\n      call\n      iszero\n      dup1\n      iszero\n      tag_359\n      jumpi\n      returndatasize\n      0x00\n      dup1\n      returndatacopy\n      revert(0x00, returndatasize)\n    tag_359:\n      pop\n      pop\n      pop\n      pop\n      mload(0x40)\n      returndatasize\n      0x20\n      dup2\n      lt\n      iszero\n      tag_360\n      jumpi\n      0x00\n      dup1\n      revert\n    tag_360:\n      pop\n      mload\n        /* \"@chainlink/contracts/src/v0.7/Operator.sol\":12083:12128  assert(linkToken.transfer(recipient, amount)) */\n      tag_181\n      jumpi\n      invalid\n        /* \"@chainlink/contracts/src/v0.7/AuthorizedReceiver.sol\":1634:1759  function isAuthorizedSender(address sender) public view override returns (bool) {... */\n    tag_164:\n      sub(shl(0xa0, 0x01), 0x01)\n        /* \"@chainlink/contracts/src/v0.7/AuthorizedReceiver.sol\":1727:1754  s_authorizedSenders[sender] */\n      and\n        /* \"@chainlink/contracts/src/v0.7/AuthorizedReceiver.sol\":1708:1712  bool */\n      0x00\n        /* \"@chainlink/contracts/src/v0.7/AuthorizedReceiver.sol\":1727:1754  s_authorizedSenders[sender] */\n      swap1\n      dup2\n      mstore\n      0x20\n      dup2\n      swap1\n      mstore\n      0x40\n      swap1\n      keccak256\n      sload\n      0xff\n      and\n      swap1\n        /* \"@chainlink/contracts/src/v0.7/AuthorizedReceiver.sol\":1634:1759  function isAuthorizedSender(address sender) public view override returns (bool) {... */\n      jump\t// out\n        /* \"@chainlink/contracts/src/v0.7/Operator.sol\":10612:10955  function setAuthorizedSendersOn(address[] calldata targets, address[] calldata senders)... */\n    tag_174:\n        /* \"@chainlink/contracts/src/v0.7/AuthorizedReceiver.sol\":2504:2530  _canSetAuthorizedSenders() */\n      tag_364\n        /* \"@chainlink/contracts/src/v0.7/AuthorizedReceiver.sol\":2504:2528  _canSetAuthorizedSenders */\n      tag_177\n        /* \"@chainlink/contracts/src/v0.7/AuthorizedReceiver.sol\":2504:2530  _canSetAuthorizedSenders() */\n      jump\t// in\n    tag_364:\n        /* \"@chainlink/contracts/src/v0.7/AuthorizedReceiver.sol\":2496:2564  require(_canSetAuthorizedSenders(), \"Cannot set authorized senders\") */\n      tag_365\n      jumpi\n      0x40\n      dup1\n      mload\n      shl(0xe5, 0x461bcd)\n      dup2\n      mstore\n      0x20\n      0x04\n      dup3\n      add\n      mstore\n      0x1d\n      0x24\n      dup3\n      add\n      mstore\n      0x00\n      dup1\n      mload\n      0x20\n      data_079032fd9b86c16fcb0f8244dac8a4e899ee4a34a2e7f6cd2fb0f6c233f00b83\n      dup4\n      codecopy\n      dup2\n      mload\n      swap2\n      mstore\n      0x44\n      dup3\n      add\n      mstore\n      swap1\n      mload\n      swap1\n      dup2\n      swap1\n      sub\n      0x64\n      add\n      swap1\n      revert\n    tag_365:\n        /* \"@chainlink/contracts/src/v0.7/Operator.sol\":10754:10815  TargetsUpdatedAuthorizedSenders(targets, senders, msg.sender) */\n      0x1bb185903e2cb2f1b303523128b60e314dea81df4f8d9b7351cadd344f6e7727\n        /* \"@chainlink/contracts/src/v0.7/Operator.sol\":10786:10793  targets */\n      dup5\n      dup5\n        /* \"@chainlink/contracts/src/v0.7/Operator.sol\":10795:10802  senders */\n      dup5\n      dup5\n        /* \"@chainlink/contracts/src/v0.7/Operator.sol\":10804:10814  msg.sender */\n      caller\n        /* \"@chainlink/contracts/src/v0.7/Operator.sol\":10754:10815  TargetsUpdatedAuthorizedSenders(targets, senders, msg.sender) */\n      mload(0x40)\n      dup1\n      dup1\n      0x20\n      add\n      dup1\n      0x20\n      add\n      dup5\n      sub(shl(0xa0, 0x01), 0x01)\n      and\n      dup2\n      mstore\n      0x20\n      add\n      dup4\n      dup2\n      sub\n      dup4\n      mstore\n      dup9\n      dup9\n      dup3\n      dup2\n      dup2\n      mstore\n      0x20\n      add\n      swap3\n      pop\n      0x20\n      mul\n      dup1\n      dup3\n      dup5\n      calldatacopy\n      0x00\n      dup4\n      dup3\n      add\n      mstore\n      0x1f\n      add\n      not(0x1f)\n      and\n      swap1\n      swap2\n      add\n      dup5\n      dup2\n      sub\n      dup4\n      mstore\n      dup7\n      dup2\n      mstore\n      0x20\n      swap1\n      dup2\n      add\n      swap2\n      pop\n      dup8\n      swap1\n      dup8\n      mul\n      dup1\n      dup3\n      dup5\n      calldatacopy\n      0x00\n      dup4\n      dup3\n      add\n      mstore\n      mload(0x40)\n      0x1f\n      swap1\n      swap2\n      add\n      not(0x1f)\n      and\n      swap1\n      swap3\n      add\n      dup3\n      swap1\n      sub\n      swap10\n      pop\n      swap1\n      swap8\n      pop\n      pop\n      pop\n      pop\n      pop\n      pop\n      pop\n      pop\n      log1\n        /* \"@chainlink/contracts/src/v0.7/Operator.sol\":10827:10836  uint256 i */\n      0x00\n        /* \"@chainlink/contracts/src/v0.7/Operator.sol\":10822:10951  for (uint256 i = 0; i < targets.length; i++) {... */\n    tag_367:\n        /* \"@chainlink/contracts/src/v0.7/Operator.sol\":10842:10860  i < targets.length */\n      dup4\n      dup2\n      lt\n        /* \"@chainlink/contracts/src/v0.7/Operator.sol\":10822:10951  for (uint256 i = 0; i < targets.length; i++) {... */\n      iszero\n      tag_201\n      jumpi\n        /* \"@chainlink/contracts/src/v0.7/Operator.sol\":10903:10910  targets */\n      dup5\n      dup5\n        /* \"@chainlink/contracts/src/v0.7/Operator.sol\":10911:10912  i */\n      dup3\n        /* \"@chainlink/contracts/src/v0.7/Operator.sol\":10903:10913  targets[i] */\n      dup2\n      dup2\n      lt\n      tag_370\n      jumpi\n      invalid\n    tag_370:\n      swap1\n      pop\n      0x20\n      mul\n      add\n      calldataload\n      sub(shl(0xa0, 0x01), 0x01)\n      and\n      sub(shl(0xa0, 0x01), 0x01)\n        /* \"@chainlink/contracts/src/v0.7/Operator.sol\":10875:10935  AuthorizedReceiverInterface(targets[i]).setAuthorizedSenders */\n      and\n      0xee56997b\n        /* \"@chainlink/contracts/src/v0.7/Operator.sol\":10936:10943  senders */\n      dup5\n      dup5\n        /* \"@chainlink/contracts/src/v0.7/Operator.sol\":10875:10944  AuthorizedReceiverInterface(targets[i]).setAuthorizedSenders(senders) */\n      mload(0x40)\n      dup4\n      0xffffffff\n      and\n      0xe0\n      shl\n      dup2\n      mstore\n      0x04\n      add\n      dup1\n      dup1\n      0x20\n      add\n      dup3\n      dup2\n      sub\n      dup3\n      mstore\n      dup5\n      dup5\n      dup3\n      dup2\n      dup2\n      mstore\n      0x20\n      add\n      swap3\n      pop\n      0x20\n      mul\n      dup1\n      dup3\n      dup5\n      calldatacopy\n      0x00\n      dup2\n      dup5\n      add\n      mstore\n      not(0x1f)\n      0x1f\n      dup3\n      add\n      and\n      swap1\n      pop\n      dup1\n      dup4\n      add\n      swap3\n      pop\n      pop\n      pop\n      swap4\n      pop\n      pop\n      pop\n      pop\n      0x00\n      mload(0x40)\n      dup1\n      dup4\n      sub\n      dup2\n      0x00\n      dup8\n      dup1\n      extcodesize\n      iszero\n      dup1\n      iszero\n      tag_371\n      jumpi\n      0x00\n      dup1\n      revert\n    tag_371:\n      pop\n      gas\n      call\n      iszero\n      dup1\n      iszero\n      tag_373\n      jumpi\n      returndatasize\n      0x00\n      dup1\n      returndatacopy\n      revert(0x00, returndatasize)\n    tag_373:\n      pop\n      pop\n        /* \"@chainlink/contracts/src/v0.7/Operator.sol\":10862:10865  i++ */\n      0x01\n      swap1\n      swap3\n      add\n      swap2\n      pop\n        /* \"@chainlink/contracts/src/v0.7/Operator.sol\":10822:10951  for (uint256 i = 0; i < targets.length; i++) {... */\n      tag_367\n      swap1\n      pop\n      jump\n        /* \"@chainlink/contracts/src/v0.7/Operator.sol\":21374:21521  function _canSetAuthorizedSenders() internal view override returns (bool) {... */\n    tag_177:\n        /* \"@chainlink/contracts/src/v0.7/Operator.sol\":21442:21446  bool */\n      0x00\n        /* \"@chainlink/contracts/src/v0.7/Operator.sol\":21461:21491  isAuthorizedSender(msg.sender) */\n      tag_375\n        /* \"@chainlink/contracts/src/v0.7/Operator.sol\":21480:21490  msg.sender */\n      caller\n        /* \"@chainlink/contracts/src/v0.7/Operator.sol\":21461:21479  isAuthorizedSender */\n      tag_164\n        /* \"@chainlink/contracts/src/v0.7/Operator.sol\":21461:21491  isAuthorizedSender(msg.sender) */\n      jump\t// in\n    tag_375:\n        /* \"@chainlink/contracts/src/v0.7/Operator.sol\":21461:21516  isAuthorizedSender(msg.sender) || owner() == msg.sender */\n      dup1\n      tag_247\n      jumpi\n      pop\n        /* \"@chainlink/contracts/src/v0.7/Operator.sol\":21506:21516  msg.sender */\n      caller\n        /* \"@chainlink/contracts/src/v0.7/Operator.sol\":21495:21502  owner() */\n      tag_377\n        /* \"@chainlink/contracts/src/v0.7/Operator.sol\":21495:21500  owner */\n      tag_127\n        /* \"@chainlink/contracts/src/v0.7/Operator.sol\":21495:21502  owner() */\n      jump\t// in\n    tag_377:\n      sub(shl(0xa0, 0x01), 0x01)\n        /* \"@chainlink/contracts/src/v0.7/Operator.sol\":21495:21516  owner() == msg.sender */\n      and\n      eq\n        /* \"@chainlink/contracts/src/v0.7/Operator.sol\":21454:21516  return isAuthorizedSender(msg.sender) || owner() == msg.sender */\n      swap1\n      pop\n        /* \"@chainlink/contracts/src/v0.7/Operator.sol\":21374:21521  function _canSetAuthorizedSenders() internal view override returns (bool) {... */\n      swap1\n      jump\t// out\n        /* \"@chainlink/contracts/src/v0.7/ConfirmedOwnerWithProposal.sol\":1730:1841  function _validateOwnership() internal view {... */\n    tag_191:\n        /* \"@chainlink/contracts/src/v0.7/ConfirmedOwnerWithProposal.sol\":1802:1809  s_owner */\n      and(sub(shl(0xa0, 0x01), 0x01), sload(0x02))\n        /* \"@chainlink/contracts/src/v0.7/ConfirmedOwnerWithProposal.sol\":1788:1798  msg.sender */\n      caller\n        /* \"@chainlink/contracts/src/v0.7/ConfirmedOwnerWithProposal.sol\":1788:1809  msg.sender == s_owner */\n      eq\n        /* \"@chainlink/contracts/src/v0.7/ConfirmedOwnerWithProposal.sol\":1780:1836  require(msg.sender == s_owner, \"Only callable by owner\") */\n      tag_379\n      jumpi\n      0x40\n      dup1\n      mload\n      shl(0xe5, 0x461bcd)\n      dup2\n      mstore\n      0x20\n      0x04\n      dup3\n      add\n      mstore\n      0x16\n      0x24\n      dup3\n      add\n      mstore\n      shl(0x51, 0x27b7363c9031b0b63630b1363290313c9037bbb732b9)\n      0x44\n      dup3\n      add\n      mstore\n      swap1\n      mload\n      swap1\n      dup2\n      swap1\n      sub\n      0x64\n      add\n      swap1\n      revert\n    tag_379:\n        /* \"@chainlink/contracts/src/v0.7/ConfirmedOwnerWithProposal.sol\":1730:1841  function _validateOwnership() internal view {... */\n      jump\t// out\n        /* \"@chainlink/contracts/src/v0.7/vendor/Address.sol\":802:1195  function isContract(address account) internal view returns (bool) {... */\n    tag_196:\n        /* \"@chainlink/contracts/src/v0.7/vendor/Address.sol\":1144:1164  extcodesize(account) */\n      extcodesize\n        /* \"@chainlink/contracts/src/v0.7/vendor/Address.sol\":1182:1190  size > 0 */\n      iszero\n      iszero\n      swap1\n        /* \"@chainlink/contracts/src/v0.7/vendor/Address.sol\":802:1195  function isContract(address account) internal view returns (bool) {... */\n      jump\t// out\n        /* \"@chainlink/contracts/src/v0.7/Operator.sol\":17943:18747  function _verifyAndProcessOracleRequest(... */\n    tag_212:\n        /* \"@chainlink/contracts/src/v0.7/Operator.sol\":18184:18201  bytes32 requestId */\n      0x00\n        /* \"@chainlink/contracts/src/v0.7/Operator.sol\":18203:18221  uint256 expiration */\n      dup1\n        /* \"@chainlink/contracts/src/v0.7/Operator.sol\":18158:18173  callbackAddress */\n      dup6\n        /* \"@chainlink/contracts/src/v0.7/Operator.sol\":22798:22807  linkToken */\n      immutable(\"0x3a6b057b9d48186986616a0f5b0622760f50f4bcc4f1fc92ab446a90a1025914\")\n      sub(shl(0xa0, 0x01), 0x01)\n        /* \"@chainlink/contracts/src/v0.7/Operator.sol\":22784:22808  to != address(linkToken) */\n      and\n        /* \"@chainlink/contracts/src/v0.7/Operator.sol\":22784:22786  to */\n      dup2\n      sub(shl(0xa0, 0x01), 0x01)\n        /* \"@chainlink/contracts/src/v0.7/Operator.sol\":22784:22808  to != address(linkToken) */\n      and\n      eq\n      iszero\n        /* \"@chainlink/contracts/src/v0.7/Operator.sol\":22776:22832  require(to != address(linkToken), \"Cannot call to LINK\") */\n      tag_382\n      jumpi\n      0x40\n      dup1\n      mload\n      shl(0xe5, 0x461bcd)\n      dup2\n      mstore\n      0x20\n      0x04\n      dup3\n      add\n      mstore\n      0x13\n      0x24\n      dup3\n      add\n      mstore\n      shl(0x68, 0x43616e6e6f742063616c6c20746f204c494e4b)\n      0x44\n      dup3\n      add\n      mstore\n      swap1\n      mload\n      swap1\n      dup2\n      swap1\n      sub\n      0x64\n      add\n      swap1\n      revert\n    tag_382:\n        /* \"@chainlink/contracts/src/v0.7/Operator.sol\":18251:18282  abi.encodePacked(sender, nonce) */\n      0x40\n      dup1\n      mload\n      0x60\n      dup12\n      swap1\n      shl\n      not(0xffffffffffffffffffffffff)\n      and\n      0x20\n      dup1\n      dup4\n      add\n      swap2\n      swap1\n      swap2\n      mstore\n      0x34\n      dup1\n      dup4\n      add\n      dup10\n      swap1\n      mstore\n      dup4\n      mload\n      dup1\n      dup5\n      sub\n      swap1\n      swap2\n      add\n      dup2\n      mstore\n      0x54\n      swap1\n      swap3\n      add\n      dup4\n      mstore\n        /* \"@chainlink/contracts/src/v0.7/Operator.sol\":18241:18283  keccak256(abi.encodePacked(sender, nonce)) */\n      dup2\n      mload\n      swap2\n      dup2\n      add\n      swap2\n      swap1\n      swap2\n      keccak256\n      0x00\n        /* \"@chainlink/contracts/src/v0.7/Operator.sol\":18297:18321  s_commitments[requestId] */\n      dup2\n      dup2\n      mstore\n        /* \"@chainlink/contracts/src/v0.7/Operator.sol\":18297:18310  s_commitments */\n      0x04\n        /* \"@chainlink/contracts/src/v0.7/Operator.sol\":18297:18321  s_commitments[requestId] */\n      swap1\n      swap3\n      mstore\n      swap2\n      swap1\n      keccak256\n        /* \"@chainlink/contracts/src/v0.7/Operator.sol\":18297:18332  s_commitments[requestId].paramsHash */\n      sload\n        /* \"@chainlink/contracts/src/v0.7/Operator.sol\":18241:18283  keccak256(abi.encodePacked(sender, nonce)) */\n      swap1\n      swap4\n      pop\n        /* \"@chainlink/contracts/src/v0.7/Operator.sol\":18297:18332  s_commitments[requestId].paramsHash */\n      0x08\n      shl\n      not(0xff)\n        /* \"@chainlink/contracts/src/v0.7/Operator.sol\":18297:18337  s_commitments[requestId].paramsHash == 0 */\n      and\n      iszero\n        /* \"@chainlink/contracts/src/v0.7/Operator.sol\":18289:18362  require(s_commitments[requestId].paramsHash == 0, \"Must use a unique ID\") */\n      tag_384\n      jumpi\n      0x40\n      dup1\n      mload\n      shl(0xe5, 0x461bcd)\n      dup2\n      mstore\n      0x20\n      0x04\n      dup3\n      add\n      mstore\n      0x14\n      0x24\n      dup3\n      add\n      mstore\n      shl(0x62, 0x135d5cdd081d5cd94818481d5b9a5c5d59481251)\n      0x44\n      dup3\n      add\n      mstore\n      swap1\n      mload\n      swap1\n      dup2\n      swap1\n      sub\n      0x64\n      add\n      swap1\n      revert\n    tag_384:\n        /* \"@chainlink/contracts/src/v0.7/Operator.sol\":18431:18465  block.timestamp.add(getExpiryTime) */\n      tag_385\n        /* \"@chainlink/contracts/src/v0.7/Operator.sol\":18431:18446  block.timestamp */\n      timestamp\n        /* \"@chainlink/contracts/src/v0.7/Operator.sol\":848:857  5 minutes */\n      0x012c\n        /* \"@chainlink/contracts/src/v0.7/Operator.sol\":18431:18450  block.timestamp.add */\n      tag_386\n        /* \"@chainlink/contracts/src/v0.7/Operator.sol\":18431:18465  block.timestamp.add(getExpiryTime) */\n      jump\t// in\n    tag_385:\n        /* \"@chainlink/contracts/src/v0.7/Operator.sol\":18418:18465  expiration = block.timestamp.add(getExpiryTime) */\n      swap2\n      pop\n        /* \"@chainlink/contracts/src/v0.7/Operator.sol\":18471:18489  bytes31 paramsHash */\n      0x00\n        /* \"@chainlink/contracts/src/v0.7/Operator.sol\":18492:18566  _buildParamsHash(payment, callbackAddress, callbackFunctionId, expiration) */\n      tag_387\n        /* \"@chainlink/contracts/src/v0.7/Operator.sol\":18509:18516  payment */\n      dup10\n        /* \"@chainlink/contracts/src/v0.7/Operator.sol\":18518:18533  callbackAddress */\n      dup10\n        /* \"@chainlink/contracts/src/v0.7/Operator.sol\":18535:18553  callbackFunctionId */\n      dup10\n        /* \"@chainlink/contracts/src/v0.7/Operator.sol\":18555:18565  expiration */\n      dup7\n        /* \"@chainlink/contracts/src/v0.7/Operator.sol\":18492:18508  _buildParamsHash */\n      tag_288\n        /* \"@chainlink/contracts/src/v0.7/Operator.sol\":18492:18566  _buildParamsHash(payment, callbackAddress, callbackFunctionId, expiration) */\n      jump\t// in\n    tag_387:\n        /* \"@chainlink/contracts/src/v0.7/Operator.sol\":18471:18566  bytes31 paramsHash = _buildParamsHash(payment, callbackAddress, callbackFunctionId, expiration) */\n      swap1\n      pop\n        /* \"@chainlink/contracts/src/v0.7/Operator.sol\":18599:18652  Commitment(paramsHash, _safeCastToUint8(dataVersion)) */\n      mload(0x40)\n      dup1\n      0x40\n      add\n      0x40\n      mstore\n      dup1\n        /* \"@chainlink/contracts/src/v0.7/Operator.sol\":18610:18620  paramsHash */\n      dup3\n        /* \"@chainlink/contracts/src/v0.7/Operator.sol\":18599:18652  Commitment(paramsHash, _safeCastToUint8(dataVersion)) */\n      not(0xff)\n      and\n      dup2\n      mstore\n      0x20\n      add\n        /* \"@chainlink/contracts/src/v0.7/Operator.sol\":18622:18651  _safeCastToUint8(dataVersion) */\n      tag_388\n        /* \"@chainlink/contracts/src/v0.7/Operator.sol\":18639:18650  dataVersion */\n      dup8\n        /* \"@chainlink/contracts/src/v0.7/Operator.sol\":18622:18638  _safeCastToUint8 */\n      tag_389\n        /* \"@chainlink/contracts/src/v0.7/Operator.sol\":18622:18651  _safeCastToUint8(dataVersion) */\n      jump\t// in\n    tag_388:\n        /* \"@chainlink/contracts/src/v0.7/Operator.sol\":18599:18652  Commitment(paramsHash, _safeCastToUint8(dataVersion)) */\n      0xff\n      swap1\n      dup2\n      and\n      swap1\n      swap2\n      mstore\n        /* \"@chainlink/contracts/src/v0.7/Operator.sol\":18572:18596  s_commitments[requestId] */\n      0x00\n      dup7\n      dup2\n      mstore\n        /* \"@chainlink/contracts/src/v0.7/Operator.sol\":18572:18585  s_commitments */\n      0x04\n        /* \"@chainlink/contracts/src/v0.7/Operator.sol\":18572:18596  s_commitments[requestId] */\n      0x20\n      swap1\n      dup2\n      mstore\n      0x40\n      swap1\n      swap2\n      keccak256\n        /* \"@chainlink/contracts/src/v0.7/Operator.sol\":18572:18652  s_commitments[requestId] = Commitment(paramsHash, _safeCastToUint8(dataVersion)) */\n      dup4\n      mload\n      dup2\n      sload\n      swap5\n      swap1\n      swap3\n      add\n      mload\n      swap1\n      swap3\n      and\n      shl(0xf8, 0x01)\n      mul\n      0x08\n      swap2\n      swap1\n      swap2\n      shr\n      not(sub(shl(0xf8, 0x01), 0x01))\n      swap1\n      swap4\n      and\n      swap3\n      swap1\n      swap3\n      or\n      sub(shl(0xf8, 0x01), 0x01)\n      and\n      swap2\n      swap1\n      swap2\n      or\n      swap1\n      sstore\n        /* \"@chainlink/contracts/src/v0.7/Operator.sol\":18677:18693  s_tokensInEscrow */\n      sload(0x06)\n        /* \"@chainlink/contracts/src/v0.7/Operator.sol\":18677:18706  s_tokensInEscrow.add(payment) */\n      tag_390\n      swap1\n        /* \"@chainlink/contracts/src/v0.7/Operator.sol\":18698:18705  payment */\n      dup11\n        /* \"@chainlink/contracts/src/v0.7/Operator.sol\":18677:18697  s_tokensInEscrow.add */\n      tag_386\n        /* \"@chainlink/contracts/src/v0.7/Operator.sol\":18677:18706  s_tokensInEscrow.add(payment) */\n      jump\t// in\n    tag_390:\n        /* \"@chainlink/contracts/src/v0.7/Operator.sol\":18658:18674  s_tokensInEscrow */\n      0x06\n        /* \"@chainlink/contracts/src/v0.7/Operator.sol\":18658:18706  s_tokensInEscrow = s_tokensInEscrow.add(payment) */\n      sstore\n      pop\n        /* \"@chainlink/contracts/src/v0.7/Operator.sol\":17943:18747  function _verifyAndProcessOracleRequest(... */\n      pop\n      swap7\n      pop\n      swap7\n      swap5\n      pop\n      pop\n      pop\n      pop\n      pop\n      jump\t// out\n        /* \"@chainlink/contracts/src/v0.7/AuthorizedReceiver.sol\":2061:2189  function _validateIsAuthorizedSender() internal view {... */\n    tag_231:\n        /* \"@chainlink/contracts/src/v0.7/AuthorizedReceiver.sol\":2128:2158  isAuthorizedSender(msg.sender) */\n      tag_392\n        /* \"@chainlink/contracts/src/v0.7/AuthorizedReceiver.sol\":2147:2157  msg.sender */\n      caller\n        /* \"@chainlink/contracts/src/v0.7/AuthorizedReceiver.sol\":2128:2146  isAuthorizedSender */\n      tag_164\n        /* \"@chainlink/contracts/src/v0.7/AuthorizedReceiver.sol\":2128:2158  isAuthorizedSender(msg.sender) */\n      jump\t// in\n    tag_392:\n        /* \"@chainlink/contracts/src/v0.7/AuthorizedReceiver.sol\":2120:2184  require(isAuthorizedSender(msg.sender), \"Not authorized sender\") */\n      tag_379\n      jumpi\n      0x40\n      dup1\n      mload\n      shl(0xe5, 0x461bcd)\n      dup2\n      mstore\n      0x20\n      0x04\n      dup3\n      add\n      mstore\n      0x15\n      0x24\n      dup3\n      add\n      mstore\n      shl(0x59, 0x2737ba1030baba3437b934bd32b21039b2b73232b9)\n      0x44\n      dup3\n      add\n      mstore\n      swap1\n      mload\n      swap1\n      dup2\n      swap1\n      sub\n      0x64\n      add\n      swap1\n      revert\n        /* \"@chainlink/contracts/src/v0.7/Operator.sol\":19260:19880  function _verifyOracleRequestAndProcessPayment(... */\n    tag_238:\n        /* \"@chainlink/contracts/src/v0.7/Operator.sol\":19479:19497  bytes31 paramsHash */\n      0x00\n        /* \"@chainlink/contracts/src/v0.7/Operator.sol\":19500:19574  _buildParamsHash(payment, callbackAddress, callbackFunctionId, expiration) */\n      tag_395\n        /* \"@chainlink/contracts/src/v0.7/Operator.sol\":19517:19524  payment */\n      dup7\n        /* \"@chainlink/contracts/src/v0.7/Operator.sol\":19526:19541  callbackAddress */\n      dup7\n        /* \"@chainlink/contracts/src/v0.7/Operator.sol\":19543:19561  callbackFunctionId */\n      dup7\n        /* \"@chainlink/contracts/src/v0.7/Operator.sol\":19563:19573  expiration */\n      dup7\n        /* \"@chainlink/contracts/src/v0.7/Operator.sol\":19500:19516  _buildParamsHash */\n      tag_288\n        /* \"@chainlink/contracts/src/v0.7/Operator.sol\":19500:19574  _buildParamsHash(payment, callbackAddress, callbackFunctionId, expiration) */\n      jump\t// in\n    tag_395:\n        /* \"@chainlink/contracts/src/v0.7/Operator.sol\":19588:19612  s_commitments[requestId] */\n      0x00\n      dup9\n      dup2\n      mstore\n        /* \"@chainlink/contracts/src/v0.7/Operator.sol\":19588:19601  s_commitments */\n      0x04\n        /* \"@chainlink/contracts/src/v0.7/Operator.sol\":19588:19612  s_commitments[requestId] */\n      0x20\n      mstore\n      0x40\n      swap1\n      keccak256\n        /* \"@chainlink/contracts/src/v0.7/Operator.sol\":19588:19623  s_commitments[requestId].paramsHash */\n      sload\n        /* \"@chainlink/contracts/src/v0.7/Operator.sol\":19479:19574  bytes31 paramsHash = _buildParamsHash(payment, callbackAddress, callbackFunctionId, expiration) */\n      swap1\n      swap2\n      pop\n        /* \"@chainlink/contracts/src/v0.7/Operator.sol\":19588:19623  s_commitments[requestId].paramsHash */\n      0x08\n      shl\n      not(0xff)\n        /* \"@chainlink/contracts/src/v0.7/Operator.sol\":19588:19637  s_commitments[requestId].paramsHash == paramsHash */\n      swap1\n      dup2\n      and\n      swap1\n      dup3\n      and\n      eq\n        /* \"@chainlink/contracts/src/v0.7/Operator.sol\":19580:19672  require(s_commitments[requestId].paramsHash == paramsHash, \"Params do not match request ID\") */\n      tag_396\n      jumpi\n      0x40\n      dup1\n      mload\n      shl(0xe5, 0x461bcd)\n      dup2\n      mstore\n      0x20\n      0x04\n      dup3\n      add\n      mstore\n      0x1e\n      0x24\n      dup3\n      add\n      mstore\n      0x506172616d7320646f206e6f74206d6174636820726571756573742049440000\n      0x44\n      dup3\n      add\n      mstore\n      swap1\n      mload\n      swap1\n      dup2\n      swap1\n      sub\n      0x64\n      add\n      swap1\n      revert\n    tag_396:\n        /* \"@chainlink/contracts/src/v0.7/Operator.sol\":19726:19755  _safeCastToUint8(dataVersion) */\n      tag_397\n        /* \"@chainlink/contracts/src/v0.7/Operator.sol\":19743:19754  dataVersion */\n      dup3\n        /* \"@chainlink/contracts/src/v0.7/Operator.sol\":19726:19742  _safeCastToUint8 */\n      tag_389\n        /* \"@chainlink/contracts/src/v0.7/Operator.sol\":19726:19755  _safeCastToUint8(dataVersion) */\n      jump\t// in\n    tag_397:\n        /* \"@chainlink/contracts/src/v0.7/Operator.sol\":19686:19710  s_commitments[requestId] */\n      0x00\n      dup9\n      dup2\n      mstore\n        /* \"@chainlink/contracts/src/v0.7/Operator.sol\":19686:19699  s_commitments */\n      0x04\n        /* \"@chainlink/contracts/src/v0.7/Operator.sol\":19686:19710  s_commitments[requestId] */\n      0x20\n      mstore\n      0x40\n      swap1\n      keccak256\n        /* \"@chainlink/contracts/src/v0.7/Operator.sol\":19686:19722  s_commitments[requestId].dataVersion */\n      sload\n        /* \"@chainlink/contracts/src/v0.7/Operator.sol\":19686:19755  s_commitments[requestId].dataVersion <= _safeCastToUint8(dataVersion) */\n      0xff\n      swap2\n      dup3\n      and\n      shl(0xf8, 0x01)\n        /* \"@chainlink/contracts/src/v0.7/Operator.sol\":19686:19722  s_commitments[requestId].dataVersion */\n      swap1\n      swap2\n      div\n      swap1\n      swap2\n      and\n        /* \"@chainlink/contracts/src/v0.7/Operator.sol\":19686:19755  s_commitments[requestId].dataVersion <= _safeCastToUint8(dataVersion) */\n      gt\n      iszero\n        /* \"@chainlink/contracts/src/v0.7/Operator.sol\":19678:19784  require(s_commitments[requestId].dataVersion <= _safeCastToUint8(dataVersion), \"Data versions must match\") */\n      tag_398\n      jumpi\n      0x40\n      dup1\n      mload\n      shl(0xe5, 0x461bcd)\n      dup2\n      mstore\n      0x20\n      0x04\n      dup3\n      add\n      mstore\n      0x18\n      0x24\n      dup3\n      add\n      mstore\n      0x446174612076657273696f6e73206d757374206d617463680000000000000000\n      0x44\n      dup3\n      add\n      mstore\n      swap1\n      mload\n      swap1\n      dup2\n      swap1\n      sub\n      0x64\n      add\n      swap1\n      revert\n    tag_398:\n        /* \"@chainlink/contracts/src/v0.7/Operator.sol\":19809:19825  s_tokensInEscrow */\n      sload(0x06)\n        /* \"@chainlink/contracts/src/v0.7/Operator.sol\":19809:19838  s_tokensInEscrow.sub(payment) */\n      tag_399\n      swap1\n        /* \"@chainlink/contracts/src/v0.7/Operator.sol\":19830:19837  payment */\n      dup8\n        /* \"@chainlink/contracts/src/v0.7/Operator.sol\":19809:19829  s_tokensInEscrow.sub */\n      tag_281\n        /* \"@chainlink/contracts/src/v0.7/Operator.sol\":19809:19838  s_tokensInEscrow.sub(payment) */\n      jump\t// in\n    tag_399:\n        /* \"@chainlink/contracts/src/v0.7/Operator.sol\":19790:19806  s_tokensInEscrow */\n      0x06\n        /* \"@chainlink/contracts/src/v0.7/Operator.sol\":19790:19838  s_tokensInEscrow = s_tokensInEscrow.sub(payment) */\n      sstore\n      pop\n      pop\n      pop\n        /* \"@chainlink/contracts/src/v0.7/Operator.sol\":19851:19875  s_commitments[requestId] */\n      0x00\n      swap4\n      dup5\n      mstore\n      pop\n      pop\n        /* \"@chainlink/contracts/src/v0.7/Operator.sol\":19851:19864  s_commitments */\n      0x04\n        /* \"@chainlink/contracts/src/v0.7/Operator.sol\":19851:19875  s_commitments[requestId] */\n      0x20\n      mstore\n      pop\n      0x40\n      dup2\n      keccak256\n        /* \"@chainlink/contracts/src/v0.7/Operator.sol\":19844:19875  delete s_commitments[requestId] */\n      sstore\n        /* \"@chainlink/contracts/src/v0.7/Operator.sol\":19260:19880  function _verifyOracleRequestAndProcessPayment(... */\n      jump\t// out\n        /* \"@chainlink/contracts/src/v0.7/Operator.sol\":21051:21249  function _fundsAvailable() private view returns (uint256) {... */\n    tag_248:\n        /* \"@chainlink/contracts/src/v0.7/Operator.sol\":21100:21107  uint256 */\n      0x00\n        /* \"@chainlink/contracts/src/v0.7/Operator.sol\":21115:21131  uint256 inEscrow */\n      dup1\n        /* \"@chainlink/contracts/src/v0.7/Operator.sol\":21134:21183  s_tokensInEscrow.sub(ONE_FOR_CONSISTENT_GAS_COST) */\n      tag_401\n        /* \"@chainlink/contracts/src/v0.7/Operator.sol\":1341:1342  1 */\n      0x01\n        /* \"@chainlink/contracts/src/v0.7/Operator.sol\":21134:21150  s_tokensInEscrow */\n      sload(0x06)\n        /* \"@chainlink/contracts/src/v0.7/Operator.sol\":21134:21154  s_tokensInEscrow.sub */\n      tag_281\n      swap1\n        /* \"@chainlink/contracts/src/v0.7/Operator.sol\":21134:21183  s_tokensInEscrow.sub(ONE_FOR_CONSISTENT_GAS_COST) */\n      swap2\n      swap1\n      0xffffffff\n      and\n      jump\t// in\n    tag_401:\n        /* \"@chainlink/contracts/src/v0.7/Operator.sol\":21115:21183  uint256 inEscrow = s_tokensInEscrow.sub(ONE_FOR_CONSISTENT_GAS_COST) */\n      swap1\n      pop\n        /* \"@chainlink/contracts/src/v0.7/Operator.sol\":21196:21244  linkToken.balanceOf(address(this)).sub(inEscrow) */\n      tag_402\n        /* \"@chainlink/contracts/src/v0.7/Operator.sol\":21235:21243  inEscrow */\n      dup2\n        /* \"@chainlink/contracts/src/v0.7/Operator.sol\":21196:21205  linkToken */\n      immutable(\"0x3a6b057b9d48186986616a0f5b0622760f50f4bcc4f1fc92ab446a90a1025914\")\n      sub(shl(0xa0, 0x01), 0x01)\n        /* \"@chainlink/contracts/src/v0.7/Operator.sol\":21196:21215  linkToken.balanceOf */\n      and\n      0x70a08231\n        /* \"@chainlink/contracts/src/v0.7/Operator.sol\":21224:21228  this */\n      address\n        /* \"@chainlink/contracts/src/v0.7/Operator.sol\":21196:21230  linkToken.balanceOf(address(this)) */\n      mload(0x40)\n      dup3\n      0xffffffff\n      and\n      0xe0\n      shl\n      dup2\n      mstore\n      0x04\n      add\n      dup1\n      dup3\n      sub(shl(0xa0, 0x01), 0x01)\n      and\n      dup2\n      mstore\n      0x20\n      add\n      swap2\n      pop\n      pop\n      0x20\n      mload(0x40)\n      dup1\n      dup4\n      sub\n      dup2\n      dup7\n      dup1\n      extcodesize\n      iszero\n      dup1\n      iszero\n      tag_403\n      jumpi\n      0x00\n      dup1\n      revert\n    tag_403:\n      pop\n      gas\n      staticcall\n      iszero\n      dup1\n      iszero\n      tag_405\n      jumpi\n      returndatasize\n      0x00\n      dup1\n      returndatacopy\n      revert(0x00, returndatasize)\n    tag_405:\n      pop\n      pop\n      pop\n      pop\n      mload(0x40)\n      returndatasize\n      0x20\n      dup2\n      lt\n      iszero\n      tag_406\n      jumpi\n      0x00\n      dup1\n      revert\n    tag_406:\n      pop\n      mload\n      swap1\n        /* \"@chainlink/contracts/src/v0.7/Operator.sol\":21196:21234  linkToken.balanceOf(address(this)).sub */\n      tag_281\n        /* \"@chainlink/contracts/src/v0.7/Operator.sol\":21196:21244  linkToken.balanceOf(address(this)).sub(inEscrow) */\n      jump\t// in\n    tag_402:\n        /* \"@chainlink/contracts/src/v0.7/Operator.sol\":21189:21244  return linkToken.balanceOf(address(this)).sub(inEscrow) */\n      swap2\n      pop\n      pop\n        /* \"@chainlink/contracts/src/v0.7/Operator.sol\":21051:21249  function _fundsAvailable() private view returns (uint256) {... */\n      swap1\n      jump\t// out\n        /* \"@chainlink/contracts/src/v0.7/vendor/SafeMathChainlink.sol\":1261:1426  function sub(uint256 a, uint256 b) internal pure returns (uint256) {... */\n    tag_281:\n        /* \"@chainlink/contracts/src/v0.7/vendor/SafeMathChainlink.sol\":1319:1326  uint256 */\n      0x00\n        /* \"@chainlink/contracts/src/v0.7/vendor/SafeMathChainlink.sol\":1347:1348  a */\n      dup3\n        /* \"@chainlink/contracts/src/v0.7/vendor/SafeMathChainlink.sol\":1342:1343  b */\n      dup3\n        /* \"@chainlink/contracts/src/v0.7/vendor/SafeMathChainlink.sol\":1342:1348  b <= a */\n      gt\n      iszero\n        /* \"@chainlink/contracts/src/v0.7/vendor/SafeMathChainlink.sol\":1334:1383  require(b <= a, \"SafeMath: subtraction overflow\") */\n      tag_408\n      jumpi\n      0x40\n      dup1\n      mload\n      shl(0xe5, 0x461bcd)\n      dup2\n      mstore\n      0x20\n      0x04\n      dup3\n      add\n      mstore\n      0x1e\n      0x24\n      dup3\n      add\n      mstore\n      0x536166654d6174683a207375627472616374696f6e206f766572666c6f770000\n      0x44\n      dup3\n      add\n      mstore\n      swap1\n      mload\n      swap1\n      dup2\n      swap1\n      sub\n      0x64\n      add\n      swap1\n      revert\n    tag_408:\n      pop\n        /* \"@chainlink/contracts/src/v0.7/vendor/SafeMathChainlink.sol\":1401:1406  a - b */\n      swap1\n      sub\n      swap1\n        /* \"@chainlink/contracts/src/v0.7/vendor/SafeMathChainlink.sol\":1261:1426  function sub(uint256 a, uint256 b) internal pure returns (uint256) {... */\n      jump\t// out\n        /* \"@chainlink/contracts/src/v0.7/Operator.sol\":20350:20629  function _buildParamsHash(... */\n    tag_288:\n        /* \"@chainlink/contracts/src/v0.7/Operator.sol\":20548:20622  abi.encodePacked(payment, callbackAddress, callbackFunctionId, expiration) */\n      0x40\n      dup1\n      mload\n      0x20\n      dup1\n      dup3\n      add\n      swap7\n      swap1\n      swap7\n      mstore\n      0x60\n      swap5\n      swap1\n      swap5\n      shl\n      not(0xffffffffffffffffffffffff)\n      and\n      dup5\n      dup3\n      add\n      mstore\n      not(sub(shl(0xe0, 0x01), 0x01))\n      swap3\n      swap1\n      swap3\n      and\n      0x54\n      dup5\n      add\n      mstore\n      0x58\n      dup1\n      dup5\n      add\n      swap2\n      swap1\n      swap2\n      mstore\n      dup2\n      mload\n      dup1\n      dup5\n      sub\n      swap1\n      swap2\n      add\n      dup2\n      mstore\n      0x78\n      swap1\n      swap3\n      add\n      swap1\n      mstore\n        /* \"@chainlink/contracts/src/v0.7/Operator.sol\":20538:20623  keccak256(abi.encodePacked(payment, callbackAddress, callbackFunctionId, expiration)) */\n      dup1\n      mload\n      swap2\n      add\n      keccak256\n      swap1\n        /* \"@chainlink/contracts/src/v0.7/Operator.sol\":20350:20629  function _buildParamsHash(... */\n      jump\t// out\n        /* \"@chainlink/contracts/src/v0.7/Operator.sol\":17219:17554  function _validateTokenTransferAction(bytes4 funcSelector, bytes memory data) internal pure override {... */\n    tag_313:\n        /* \"@chainlink/contracts/src/v0.7/Operator.sol\":17334:17345  data.length */\n      dup1\n      mload\n        /* \"@chainlink/contracts/src/v0.7/Operator.sol\":1133:1180  SELECTOR_LENGTH + (32 * EXPECTED_REQUEST_WORDS) */\n      0x44\n      gt\n        /* \"@chainlink/contracts/src/v0.7/Operator.sol\":17334:17371  data.length >= MINIMUM_REQUEST_LENGTH */\n      iszero\n        /* \"@chainlink/contracts/src/v0.7/Operator.sol\":17326:17398  require(data.length >= MINIMUM_REQUEST_LENGTH, \"Invalid request length\") */\n      tag_411\n      jumpi\n      0x40\n      dup1\n      mload\n      shl(0xe5, 0x461bcd)\n      dup2\n      mstore\n      0x20\n      0x04\n      dup3\n      add\n      mstore\n      0x16\n      0x24\n      dup3\n      add\n      mstore\n      shl(0x53, 0x092dcecc2d8d2c840e4cae2eacae6e840d8cadccee8d)\n      0x44\n      dup3\n      add\n      mstore\n      swap1\n      mload\n      swap1\n      dup2\n      swap1\n      sub\n      0x64\n      add\n      swap1\n      revert\n    tag_411:\n      not(sub(shl(0xe0, 0x01), 0x01))\n        /* \"@chainlink/contracts/src/v0.7/Operator.sol\":17419:17460  funcSelector == OPERATOR_REQUEST_SELECTOR */\n      dup3\n      and\n      shl(0xe0, 0x3c6d41b9)\n      eq\n      dup1\n        /* \"@chainlink/contracts/src/v0.7/Operator.sol\":17419:17503  funcSelector == OPERATOR_REQUEST_SELECTOR || funcSelector == ORACLE_REQUEST_SELECTOR */\n      tag_412\n      jumpi\n      pop\n      not(sub(shl(0xe0, 0x01), 0x01))\n        /* \"@chainlink/contracts/src/v0.7/Operator.sol\":17464:17503  funcSelector == ORACLE_REQUEST_SELECTOR */\n      dup3\n      and\n      shl(0xe1, 0x20214ca3)\n      eq\n        /* \"@chainlink/contracts/src/v0.7/Operator.sol\":17419:17503  funcSelector == OPERATOR_REQUEST_SELECTOR || funcSelector == ORACLE_REQUEST_SELECTOR */\n    tag_412:\n        /* \"@chainlink/contracts/src/v0.7/Operator.sol\":17404:17549  require(... */\n      tag_413\n      jumpi\n      0x40\n      dup1\n      mload\n      shl(0xe5, 0x461bcd)\n      dup2\n      mstore\n      0x20\n      0x04\n      dup3\n      add\n      mstore\n      0x1e\n      0x24\n      dup3\n      add\n      mstore\n      0x4d757374207573652077686974656c69737465642066756e6374696f6e730000\n      0x44\n      dup3\n      add\n      mstore\n      swap1\n      mload\n      swap1\n      dup2\n      swap1\n      sub\n      0x64\n      add\n      swap1\n      revert\n    tag_413:\n        /* \"@chainlink/contracts/src/v0.7/Operator.sol\":17219:17554  function _validateTokenTransferAction(bytes4 funcSelector, bytes memory data) internal pure override {... */\n      pop\n      pop\n      jump\t// out\n        /* \"@chainlink/contracts/src/v0.7/ConfirmedOwnerWithProposal.sol\":1497:1685  function _transferOwnership(address to) private {... */\n    tag_350:\n      sub(shl(0xa0, 0x01), 0x01)\n        /* \"@chainlink/contracts/src/v0.7/ConfirmedOwnerWithProposal.sol\":1559:1575  to != msg.sender */\n      dup2\n      and\n        /* \"@chainlink/contracts/src/v0.7/ConfirmedOwnerWithProposal.sol\":1565:1575  msg.sender */\n      caller\n        /* \"@chainlink/contracts/src/v0.7/ConfirmedOwnerWithProposal.sol\":1559:1575  to != msg.sender */\n      eq\n      iszero\n        /* \"@chainlink/contracts/src/v0.7/ConfirmedOwnerWithProposal.sol\":1551:1603  require(to != msg.sender, \"Cannot transfer to self\") */\n      tag_415\n      jumpi\n      0x40\n      dup1\n      mload\n      shl(0xe5, 0x461bcd)\n      dup2\n      mstore\n      0x20\n      0x04\n      dup3\n      add\n      mstore\n      0x17\n      0x24\n      dup3\n      add\n      mstore\n      0x43616e6e6f74207472616e7366657220746f2073656c66000000000000000000\n      0x44\n      dup3\n      add\n      mstore\n      swap1\n      mload\n      swap1\n      dup2\n      swap1\n      sub\n      0x64\n      add\n      swap1\n      revert\n    tag_415:\n        /* \"@chainlink/contracts/src/v0.7/ConfirmedOwnerWithProposal.sol\":1610:1624  s_pendingOwner */\n      0x03\n        /* \"@chainlink/contracts/src/v0.7/ConfirmedOwnerWithProposal.sol\":1610:1629  s_pendingOwner = to */\n      dup1\n      sload\n      not(sub(shl(0xa0, 0x01), 0x01))\n      and\n      sub(shl(0xa0, 0x01), 0x01)\n      dup4\n      dup2\n      and\n      swap2\n      dup3\n      or\n      swap1\n      swap3\n      sstore\n        /* \"@chainlink/contracts/src/v0.7/ConfirmedOwnerWithProposal.sol\":1668:1675  s_owner */\n      sload(0x02)\n        /* \"@chainlink/contracts/src/v0.7/ConfirmedOwnerWithProposal.sol\":1641:1680  OwnershipTransferRequested(s_owner, to) */\n      mload(0x40)\n        /* \"@chainlink/contracts/src/v0.7/ConfirmedOwnerWithProposal.sol\":1610:1629  s_pendingOwner = to */\n      swap2\n      swap3\n        /* \"@chainlink/contracts/src/v0.7/ConfirmedOwnerWithProposal.sol\":1668:1675  s_owner */\n      and\n      swap1\n        /* \"@chainlink/contracts/src/v0.7/ConfirmedOwnerWithProposal.sol\":1641:1680  OwnershipTransferRequested(s_owner, to) */\n      0xed8889f560326eb138920d842192f0eb3dd22b4f139c87a2c57538e05bae1278\n      swap1\n      0x00\n      swap1\n      log3\n        /* \"@chainlink/contracts/src/v0.7/ConfirmedOwnerWithProposal.sol\":1497:1685  function _transferOwnership(address to) private {... */\n      pop\n      jump\t// out\n        /* \"@chainlink/contracts/src/v0.7/vendor/SafeMathChainlink.sol\":855:1017  function add(uint256 a, uint256 b) internal pure returns (uint256) {... */\n    tag_386:\n        /* \"@chainlink/contracts/src/v0.7/vendor/SafeMathChainlink.sol\":913:920  uint256 */\n      0x00\n        /* \"@chainlink/contracts/src/v0.7/vendor/SafeMathChainlink.sol\":940:945  a + b */\n      dup3\n      dup3\n      add\n        /* \"@chainlink/contracts/src/v0.7/vendor/SafeMathChainlink.sol\":959:965  c >= a */\n      dup4\n      dup2\n      lt\n      iszero\n        /* \"@chainlink/contracts/src/v0.7/vendor/SafeMathChainlink.sol\":951:997  require(c >= a, \"SafeMath: addition overflow\") */\n      tag_417\n      jumpi\n      0x40\n      dup1\n      mload\n      shl(0xe5, 0x461bcd)\n      dup2\n      mstore\n      0x20\n      0x04\n      dup3\n      add\n      mstore\n      0x1b\n      0x24\n      dup3\n      add\n      mstore\n      0x536166654d6174683a206164646974696f6e206f766572666c6f770000000000\n      0x44\n      dup3\n      add\n      mstore\n      swap1\n      mload\n      swap1\n      dup2\n      swap1\n      sub\n      0x64\n      add\n      swap1\n      revert\n    tag_417:\n        /* \"@chainlink/contracts/src/v0.7/vendor/SafeMathChainlink.sol\":1011:1012  c */\n      swap4\n        /* \"@chainlink/contracts/src/v0.7/vendor/SafeMathChainlink.sol\":855:1017  function add(uint256 a, uint256 b) internal pure returns (uint256) {... */\n      swap3\n      pop\n      pop\n      pop\n      jump\t// out\n        /* \"@chainlink/contracts/src/v0.7/Operator.sol\":20740:20913  function _safeCastToUint8(uint256 number) internal pure returns (uint8) {... */\n    tag_389:\n        /* \"@chainlink/contracts/src/v0.7/Operator.sol\":20805:20810  uint8 */\n      0x00\n        /* \"@chainlink/contracts/src/v0.7/Operator.sol\":909:912  256 */\n      0x0100\n        /* \"@chainlink/contracts/src/v0.7/Operator.sol\":20826:20832  number */\n      dup3\n        /* \"@chainlink/contracts/src/v0.7/Operator.sol\":20826:20855  number < MAXIMUM_DATA_VERSION */\n      lt\n        /* \"@chainlink/contracts/src/v0.7/Operator.sol\":20818:20882  require(number < MAXIMUM_DATA_VERSION, \"number too big to cast\") */\n      tag_419\n      jumpi\n      0x40\n      dup1\n      mload\n      shl(0xe5, 0x461bcd)\n      dup2\n      mstore\n      0x20\n      0x04\n      dup3\n      add\n      mstore\n      0x16\n      0x24\n      dup3\n      add\n      mstore\n      shl(0x52, 0x1b9d5b58995c881d1bdbc8189a59c81d1bc818d85cdd)\n      0x44\n      dup3\n      add\n      mstore\n      swap1\n      mload\n      swap1\n      dup2\n      swap1\n      sub\n      0x64\n      add\n      swap1\n      revert\n    tag_419:\n      pop\n        /* \"@chainlink/contracts/src/v0.7/Operator.sol\":20901:20907  number */\n      swap1\n        /* \"@chainlink/contracts/src/v0.7/Operator.sol\":20740:20913  function _safeCastToUint8(uint256 number) internal pure returns (uint8) {... */\n      jump\t// out\n    tag_345:\n      dup3\n      dup1\n      sload\n      dup3\n      dup3\n      sstore\n      swap1\n      0x00\n      mstore\n      keccak256(0x00, 0x20)\n      swap1\n      dup2\n      add\n      swap3\n      dup3\n      iszero\n      tag_422\n      jumpi\n      swap2\n      0x20\n      mul\n      dup3\n      add\n    tag_421:\n      dup3\n      dup2\n      gt\n      iszero\n      tag_422\n      jumpi\n      dup2\n      sload\n      not(sub(shl(0xa0, 0x01), 0x01))\n      and\n      sub(shl(0xa0, 0x01), 0x01)\n      dup5\n      calldataload\n      and\n      or\n      dup3\n      sstore\n      0x20\n      swap1\n      swap3\n      add\n      swap2\n      0x01\n      swap1\n      swap2\n      add\n      swap1\n      jump(tag_421)\n    tag_422:\n      pop\n      tag_419\n      swap3\n      swap2\n      pop\n    tag_425:\n      dup1\n      dup3\n      gt\n      iszero\n      tag_419\n      jumpi\n      0x00\n      dup2\n      sstore\n      0x01\n      add\n      jump(tag_425)\n    stop\n    data_079032fd9b86c16fcb0f8244dac8a4e899ee4a34a2e7f6cd2fb0f6c233f00b83 43616e6e6f742073657420617574686f72697a65642073656e64657273000000\n    data_14acbd13c311ce77adbf2abb2c29118807e2efa37eb8080b0a33366f8bd4c4af 4d7573742068617665206174206c65617374203120617574686f72697a65642073656e646572\n    data_87cfc663fcf6403059a83571137d56c7da4a1aa2a371627fe8ecf960f50e10c2 416d6f756e74207265717565737465642069732067726561746572207468616e20776974686472617761626c652062616c616e6365\n\n    auxdata: 0xa26469706673582212205c422981ccab6a552b1ea053384675c30a56e21fa3c922040b62501f56da241664736f6c63430007060033\n}\n",
				"bytecode": {
					"linkReferences": {},
					"object": "60a060405260016006553480156200001657600080fd5b50604051620030d4380380620030d4833981810160405260408110156200003c57600080fd5b508051602090910151808060006001600160a01b038216620000a5576040805162461bcd60e51b815260206004820152601860248201527f43616e6e6f7420736574206f776e657220746f207a65726f0000000000000000604482015290519081900360640190fd5b600280546001600160a01b0319166001600160a01b0384811691909117909155811615620000d857620000d881620000f2565b5050505060601b6001600160601b031916608052620001a3565b6001600160a01b03811633141562000151576040805162461bcd60e51b815260206004820152601760248201527f43616e6e6f74207472616e7366657220746f2073656c66000000000000000000604482015290519081900360640190fd5b600380546001600160a01b0319166001600160a01b03838116918217909255600254604051919216907fed8889f560326eb138920d842192f0eb3dd22b4f139c87a2c57538e05bae127890600090a350565b60805160601c612ef0620001e460003980610ddd5280610f755280611bee5280611d7e528061214652806123e352806126e15280612a3c5250612ef06000f3fe6080604052600436106101665760003560e01c80636ae0bc76116100d1578063a4c0ed361161008a578063f2fde38b11610064578063f2fde38b14610aed578063f3fef3a314610b20578063fa00763a14610b59578063fc4a03ed14610b8c57610166565b8063a4c0ed3614610966578063eb007d9914610a2c578063ee56997b14610a7257610166565b80636ae0bc76146106fb5780636bd59ec0146107a85780636ee4d5531461086657806379ba5097146108ac5780638da5cb5b146108c1578063902fc370146108d657610166565b80633c6d41b9116101235780633c6d41b9146103ba5780633ec5bc141461046c57806340429946146104f05780634ab0d190146105ac578063501883011461061b5780635ffa62881461063057610166565b806301994b991461016b578063033f49f7146101e8578063165d35e114610273578063181f5a77146102a45780632408afaa1461032e57806325cb5bc014610393575b600080fd5b34801561017757600080fd5b506101e66004803603602081101561018e57600080fd5b810190602081018135600160201b8111156101a857600080fd5b8201836020820111156101ba57600080fd5b803590602001918460208302840111600160201b831117156101db57600080fd5b509092509050610c57565b005b3480156101f457600080fd5b506101e66004803603604081101561020b57600080fd5b6001600160a01b038235169190810190604081016020820135600160201b81111561023557600080fd5b82018360208201111561024757600080fd5b803590602001918460018302840111600160201b8311171561026857600080fd5b509092509050610dd2565b34801561027f57600080fd5b50610288610f73565b604080516001600160a01b039092168252519081900360200190f35b3480156102b057600080fd5b506102b9610f97565b6040805160208082528351818301528351919283929083019185019080838360005b838110156102f35781810151838201526020016102db565b50505050905090810190601f1680156103205780820380516001836020036101000a031916815260200191505b509250505060405180910390f35b34801561033a57600080fd5b50610343610fbf565b60408051602080825283518183015283519192839290830191858101910280838360005b8381101561037f578181015183820152602001610367565b505050509050019250505060405180910390f35b34801561039f57600080fd5b506103a8611021565b60408051918252519081900360200190f35b3480156103c657600080fd5b506101e6600480360360e08110156103dd57600080fd5b6001600160a01b03823516916020810135916040820135916001600160e01b03196060820135169160808201359160a08101359181019060e0810160c0820135600160201b81111561042e57600080fd5b82018360208201111561044057600080fd5b803590602001918460018302840111600160201b8311171561046157600080fd5b509092509050611027565b34801561047857600080fd5b506101e66004803603604081101561048f57600080fd5b810190602081018135600160201b8111156104a957600080fd5b8201836020820111156104bb57600080fd5b803590602001918460208302840111600160201b831117156104dc57600080fd5b9193509150356001600160a01b0316611160565b3480156104fc57600080fd5b506101e6600480360361010081101561051457600080fd5b6001600160a01b038235811692602081013592604082013592606083013516916001600160e01b03196080820135169160a08201359160c081013591810190610100810160e0820135600160201b81111561056e57600080fd5b82018360208201111561058057600080fd5b803590602001918460018302840111600160201b831117156105a157600080fd5b509092509050611260565b3480156105b857600080fd5b50610607600480360360c08110156105cf57600080fd5b508035906020810135906001600160a01b03604082013516906001600160e01b03196060820135169060808101359060a0013561139a565b604080519115158252519081900360200190f35b34801561062757600080fd5b506103a8611602565b34801561063c57600080fd5b506101e66004803603604081101561065357600080fd5b810190602081018135600160201b81111561066d57600080fd5b82018360208201111561067f57600080fd5b803590602001918460208302840111600160201b831117156106a057600080fd5b919390929091602081019035600160201b8111156106bd57600080fd5b8201836020820111156106cf57600080fd5b803590602001918460208302840111600160201b831117156106f057600080fd5b509092509050611611565b34801561070757600080fd5b50610607600480360360c081101561071e57600080fd5b8135916020810135916001600160a01b03604083013516916001600160e01b0319606082013516916080820135919081019060c0810160a0820135600160201b81111561076a57600080fd5b82018360208201111561077c57600080fd5b803590602001918460018302840111600160201b8311171561079d57600080fd5b50909250905061166e565b6101e6600480360360408110156107be57600080fd5b810190602081018135600160201b8111156107d857600080fd5b8201836020820111156107ea57600080fd5b803590602001918460208302840111600160201b8311171561080b57600080fd5b919390929091602081019035600160201b81111561082857600080fd5b82018360208201111561083a57600080fd5b803590602001918460208302840111600160201b8311171561085b57600080fd5b509092509050611986565b34801561087257600080fd5b506101e66004803603608081101561088957600080fd5b508035906020810135906001600160e01b03196040820135169060600135611ac3565b3480156108b857600080fd5b506101e6611c69565b3480156108cd57600080fd5b50610288611d1c565b3480156108e257600080fd5b50610607600480360360608110156108f957600080fd5b6001600160a01b0382351691602081013591810190606081016040820135600160201b81111561092857600080fd5b82018360208201111561093a57600080fd5b803590602001918460018302840111600160201b8311171561095b57600080fd5b509092509050611d2b565b34801561097257600080fd5b506101e66004803603606081101561098957600080fd5b6001600160a01b0382351691602081013591810190606081016040820135600160201b8111156109b857600080fd5b8201836020820111156109ca57600080fd5b803590602001918460018302840111600160201b831117156109eb57600080fd5b91908080601f016020809104026020016040519081016040528093929190818152602001838380828437600092019190915250929550611e5d945050505050565b348015610a3857600080fd5b506101e660048036036080811015610a4f57600080fd5b508035906020810135906001600160e01b03196040820135169060600135611fdc565b348015610a7e57600080fd5b506101e660048036036020811015610a9557600080fd5b810190602081018135600160201b811115610aaf57600080fd5b820183602082011115610ac157600080fd5b803590602001918460208302840111600160201b83111715610ae257600080fd5b5090925090506121c2565b348015610af957600080fd5b506101e660048036036020811015610b1057600080fd5b50356001600160a01b031661237e565b348015610b2c57600080fd5b506101e660048036036040811015610b4357600080fd5b506001600160a01b038135169060200135612392565b348015610b6557600080fd5b5061060760048036036020811015610b7c57600080fd5b50356001600160a01b031661248a565b348015610b9857600080fd5b506101e660048036036040811015610baf57600080fd5b810190602081018135600160201b811115610bc957600080fd5b820183602082011115610bdb57600080fd5b803590602001918460208302840111600160201b83111715610bfc57600080fd5b919390929091602081019035600160201b811115610c1957600080fd5b820183602082011115610c2b57600080fd5b803590602001918460208302840111600160201b83111715610c4c57600080fd5b5090925090506124a8565b610c5f612652565b610c9e576040805162461bcd60e51b815260206004820152601d6024820152600080516020612e40833981519152604482015290519081900360640190fd5b60005b81811015610dcd57600160056000858585818110610cbb57fe5b905060200201356001600160a01b03166001600160a01b03166001600160a01b0316815260200190815260200160002060006101000a81548160ff021916908315150217905550828282818110610d0e57fe5b905060200201356001600160a01b03166001600160a01b03167f615a0c1cb00a60d4acd77ec67acf2f17f223ef0932d591052fabc33643fe7e8260405160405180910390a2828282818110610d5f57fe5b905060200201356001600160a01b03166001600160a01b03166379ba50976040518163ffffffff1660e01b8152600401600060405180830381600087803b158015610da957600080fd5b505af1158015610dbd573d6000803e3d6000fd5b505060019092019150610ca19050565b505050565b610dda61267b565b827f00000000000000000000000000000000000000000000000000000000000000006001600160a01b0316816001600160a01b03161415610e58576040805162461bcd60e51b815260206004820152601360248201527243616e6e6f742063616c6c20746f204c494e4b60681b604482015290519081900360640190fd5b610e6a846001600160a01b03166126d5565b610ebb576040805162461bcd60e51b815260206004820152601a60248201527f4d75737420666f727761726420746f206120636f6e7472616374000000000000604482015290519081900360640190fd5b6000846001600160a01b03168484604051808383808284376040519201945060009350909150508083038183865af19150503d8060008114610f19576040519150601f19603f3d011682016040523d82523d6000602084013e610f1e565b606091505b5050905080610f6c576040805162461bcd60e51b8152602060048201526015602482015274119bdc9dd85c9919590818d85b1b0819985a5b1959605a1b604482015290519081900360640190fd5b5050505050565b7f000000000000000000000000000000000000000000000000000000000000000090565b60408051808201909152600e81526d04f70657261746f7220312e302e360941b602082015290565b6060600180548060200260200160405190810160405280929190818152602001828054801561101757602002820191906000526020600020905b81546001600160a01b03168152600190910190602001808311610ff9575b5050505050905090565b61012c81565b61102f610f73565b6001600160a01b0316336001600160a01b03161461108a576040805162461bcd60e51b815260206004820152601360248201527226bab9ba103ab9b2902624a725903a37b5b2b760691b604482015290519081900360640190fd5b60008061109b8a8a8c8a8a8a6126db565b91509150877fd8d7ecc4800d25fa53ce0372f13a416d98907a7ef3d8d3bdd79cf4fe75529c658b848c8e8c878c8c8c604051808a6001600160a01b03168152602001898152602001888152602001876001600160a01b03168152602001866001600160e01b0319168152602001858152602001848152602001806020018281038252848482818152602001925080828437600083820152604051601f909101601f19169092018290039c50909a5050505050505050505050a250505050505050505050565b61116861267b565b60005b8281101561125a5760006005600086868581811061118557fe5b905060200201356001600160a01b03166001600160a01b03166001600160a01b0316815260200190815260200160002060006101000a81548160ff0219169083151502179055508383828181106111d857fe5b905060200201356001600160a01b03166001600160a01b031663f2fde38b836040518263ffffffff1660e01b815260040180826001600160a01b03168152602001915050600060405180830381600087803b15801561123657600080fd5b505af115801561124a573d6000803e3d6000fd5b50506001909201915061116b9050565b50505050565b611268610f73565b6001600160a01b0316336001600160a01b0316146112c3576040805162461bcd60e51b815260206004820152601360248201527226bab9ba103ab9b2902624a725903a37b5b2b760691b604482015290519081900360640190fd5b6000806112d48b8b8a8a8a8a6126db565b91509150887fd8d7ecc4800d25fa53ce0372f13a416d98907a7ef3d8d3bdd79cf4fe75529c658c848d8f8c878c8c8c604051808a6001600160a01b03168152602001898152602001888152602001876001600160a01b03168152602001866001600160e01b0319168152602001858152602001848152602001806020018281038252848482818152602001925080828437600083820152604051601f909101601f19169092018290039c50909a5050505050505050505050a25050505050505050505050565b60006113a46128a9565b600087815260046020526040902054879060081b60ff191661140d576040805162461bcd60e51b815260206004820152601b60248201527f4d757374206861766520612076616c6964207265717565737449640000000000604482015290519081900360640190fd5b6001600160a01b038616600090815260056020526040902054869060ff161561147d576040805162461bcd60e51b815260206004820152601a60248201527f43616e6e6f742063616c6c206f776e656420636f6e7472616374000000000000604482015290519081900360640190fd5b61148c898989898960016128fb565b60405189907f9e9bc7616d42c2835d05ae617e508454e63b30b934be8aa932ebc125e0e58a6490600090a262061a805a101561150f576040805162461bcd60e51b815260206004820181905260248201527f4d7573742070726f7669646520636f6e73756d657220656e6f75676820676173604482015290519081900360640190fd5b60408051602481018b9052604480820187905282518083039091018152606490910182526020810180516001600160e01b03166001600160e01b03198a16178152915181516000936001600160a01b038c169392918291908083835b6020831061158a5780518252601f19909201916020918201910161156b565b6001836020036101000a0380198251168184511680821785525050505050509050019150506000604051808303816000865af19150503d80600081146115ec576040519150601f19603f3d011682016040523d82523d6000602084013e6115f1565b606091505b50909b9a5050505050505050505050565b600061160c612a1b565b905090565b611619612652565b611658576040805162461bcd60e51b815260206004820152601d6024820152600080516020612e40833981519152604482015290519081900360640190fd5b6116628484610c57565b61125a848484846124a8565b60006116786128a9565b600088815260046020526040902054889060081b60ff19166116e1576040805162461bcd60e51b815260206004820152601b60248201527f4d757374206861766520612076616c6964207265717565737449640000000000604482015290519081900360640190fd5b6001600160a01b038716600090815260056020526040902054879060ff1615611751576040805162461bcd60e51b815260206004820152601a60248201527f43616e6e6f742063616c6c206f776e656420636f6e7472616374000000000000604482015290519081900360640190fd5b89858560208110156117aa576040805162461bcd60e51b815260206004820152601b60248201527f526573706f6e7365206d757374206265203e2033322062797465730000000000604482015290519081900360640190fd5b8135838114611800576040805162461bcd60e51b815260206004820152601c60248201527f466972737420776f7264206d7573742062652072657175657374496400000000604482015290519081900360640190fd5b61180f8e8e8e8e8e60026128fb565b6040518e907f9e9bc7616d42c2835d05ae617e508454e63b30b934be8aa932ebc125e0e58a6490600090a262061a805a1015611892576040805162461bcd60e51b815260206004820181905260248201527f4d7573742070726f7669646520636f6e73756d657220656e6f75676820676173604482015290519081900360640190fd5b60008c6001600160a01b03168c8b8b60405160200180846001600160e01b03191681526004018383808284378083019250505093505050506040516020818303038152906040526040518082805190602001908083835b602083106119085780518252601f1990920191602091820191016118e9565b6001836020036101000a0380198251168184511680821785525050505050509050019150506000604051808303816000865af19150503d806000811461196a576040519150601f19603f3d011682016040523d82523d6000602084013e61196f565b606091505b509098505050505050505050979650505050505050565b821580159061199457508281145b6119e5576040805162461bcd60e51b815260206004820152601760248201527f496e76616c6964206172726179206c656e677468287329000000000000000000604482015290519081900360640190fd5b3460005b84811015611a7b5760008484838181106119ff57fe5b905060200201359050611a1b8184612adf90919063ffffffff16565b9250868683818110611a2957fe5b905060200201356001600160a01b03166001600160a01b03166108fc829081150290604051600060405180830381858888f19350505050158015611a71573d6000803e3d6000fd5b50506001016119e9565b508015610f6c576040805162461bcd60e51b8152602060048201526011602482015270151bdbc81b5d58da08115512081cd95b9d607a1b604482015290519081900360640190fd5b6000611ad184338585612b3c565b60008681526004602052604090205490915060081b60ff1990811690821614611b41576040805162461bcd60e51b815260206004820152601e60248201527f506172616d7320646f206e6f74206d6174636820726571756573742049440000604482015290519081900360640190fd5b42821115611b8f576040805162461bcd60e51b815260206004820152601660248201527514995c5d595cdd081a5cc81b9bdd08195e1c1a5c995960521b604482015290519081900360640190fd5b6000858152600460205260408082208290555186917fa7842b9ec549398102c0d91b1b9919b2f20558aefdadf57528a95c6cd3292e9391a26040805163a9059cbb60e01b81523360048201526024810186905290516001600160a01b037f0000000000000000000000000000000000000000000000000000000000000000169163a9059cbb9160448083019260209291908290030181600087803b158015611c3657600080fd5b505af1158015611c4a573d6000803e3d6000fd5b505050506040513d6020811015611c6057600080fd5b50505050505050565b6003546001600160a01b03163314611cc1576040805162461bcd60e51b815260206004820152601660248201527526bab9ba10313290383937b837b9b2b21037bbb732b960511b604482015290519081900360640190fd5b600280546001600160a01b0319808216339081179093556003805490911690556040516001600160a01b03909116919082907f8be0079c531659141344cd1fd0a4f28419497f9722a3daafe3b4186f6b6457e090600090a350565b6002546001600160a01b031690565b6000611d3561267b565b8380611d3f612a1b565b1015611d7c5760405162461bcd60e51b8152600401808060200182810382526035815260200180612e866035913960400191505060405180910390fd5b7f00000000000000000000000000000000000000000000000000000000000000006001600160a01b0316634000aea0878787876040518563ffffffff1660e01b815260040180856001600160a01b03168152602001848152602001806020018281038252848482818152602001925080828437600081840152601f19601f82011690508083019250505095505050505050602060405180830381600087803b158015611e2757600080fd5b505af1158015611e3b573d6000803e3d6000fd5b505050506040513d6020811015611e5157600080fd5b50519695505050505050565b611e65610f73565b6001600160a01b0316336001600160a01b031614611ec0576040805162461bcd60e51b815260206004820152601360248201527226bab9ba103ab9b2902624a725903a37b5b2b760691b604482015290519081900360640190fd5b60208101518190611ed18183612b96565b8460248401528360448401526000306001600160a01b0316846040518082805190602001908083835b60208310611f195780518252601f199092019160209182019101611efa565b6001836020036101000a038019825116818451168082178552505050505050905001915050600060405180830381855af49150503d8060008114611f79576040519150601f19603f3d011682016040523d82523d6000602084013e611f7e565b606091505b5050905080611fd4576040805162461bcd60e51b815260206004820152601860248201527f556e61626c6520746f2063726561746520726571756573740000000000000000604482015290519081900360640190fd5b505050505050565b6000338560405160200180836001600160a01b031660601b815260140182815260200192505050604051602081830303815290604052805190602001209050600061202985338686612b3c565b60008381526004602052604090205490915060081b60ff1990811690821614612099576040805162461bcd60e51b815260206004820152601e60248201527f506172616d7320646f206e6f74206d6174636820726571756573742049440000604482015290519081900360640190fd5b428311156120e7576040805162461bcd60e51b815260206004820152601660248201527514995c5d595cdd081a5cc81b9bdd08195e1c1a5c995960521b604482015290519081900360640190fd5b6000828152600460205260408082208290555183917fa7842b9ec549398102c0d91b1b9919b2f20558aefdadf57528a95c6cd3292e9391a26040805163a9059cbb60e01b81523360048201526024810187905290516001600160a01b037f0000000000000000000000000000000000000000000000000000000000000000169163a9059cbb9160448083019260209291908290030181600087803b15801561218e57600080fd5b505af11580156121a2573d6000803e3d6000fd5b505050506040513d60208110156121b857600080fd5b5050505050505050565b6121ca612652565b612209576040805162461bcd60e51b815260206004820152601d6024820152600080516020612e40833981519152604482015290519081900360640190fd5b806122455760405162461bcd60e51b8152600401808060200182810382526026815260200180612e606026913960400191505060405180910390fd5b60015460005b818110156122a15760008060006001848154811061226557fe5b6000918252602080832091909101546001600160a01b031683528201929092526040019020805460ff191691151591909117905560010161224b565b5060005b828110156122f75760016000808686858181106122be57fe5b602090810292909201356001600160a01b0316835250810191909152604001600020805460ff19169115159190911790556001016122a5565b5061230460018484612dd0565b507ff263cfb3e4298332e776194610cf9fdc09ccb3ada8b9aa39764d882e11fbf0a08383336040518080602001836001600160a01b031681526020018281038252858582818152602001925060200280828437600083820152604051601f909101601f1916909201829003965090945050505050a1505050565b61238661267b565b61238f81612c6a565b50565b61239a61267b565b80806123a4612a1b565b10156123e15760405162461bcd60e51b8152600401808060200182810382526035815260200180612e866035913960400191505060405180910390fd5b7f00000000000000000000000000000000000000000000000000000000000000006001600160a01b031663a9059cbb84846040518363ffffffff1660e01b815260040180836001600160a01b0316815260200182815260200192505050602060405180830381600087803b15801561245857600080fd5b505af115801561246c573d6000803e3d6000fd5b505050506040513d602081101561248257600080fd5b5051610dcd57fe5b6001600160a01b031660009081526020819052604090205460ff1690565b6124b0612652565b6124ef576040805162461bcd60e51b815260206004820152601d6024820152600080516020612e40833981519152604482015290519081900360640190fd5b7f1bb185903e2cb2f1b303523128b60e314dea81df4f8d9b7351cadd344f6e77278484848433604051808060200180602001846001600160a01b031681526020018381038352888882818152602001925060200280828437600083820152601f01601f19169091018481038352868152602090810191508790870280828437600083820152604051601f909101601f1916909201829003995090975050505050505050a160005b83811015610f6c578484828181106125aa57fe5b905060200201356001600160a01b03166001600160a01b031663ee56997b84846040518363ffffffff1660e01b815260040180806020018281038252848482818152602001925060200280828437600081840152601f19601f8201169050808301925050509350505050600060405180830381600087803b15801561262e57600080fd5b505af1158015612642573d6000803e3d6000fd5b5050600190920191506125969050565b600061265d3361248a565b8061160c57503361266c611d1c565b6001600160a01b031614905090565b6002546001600160a01b031633146126d3576040805162461bcd60e51b815260206004820152601660248201527527b7363c9031b0b63630b1363290313c9037bbb732b960511b604482015290519081900360640190fd5b565b3b151590565b600080857f00000000000000000000000000000000000000000000000000000000000000006001600160a01b0316816001600160a01b0316141561275c576040805162461bcd60e51b815260206004820152601360248201527243616e6e6f742063616c6c20746f204c494e4b60681b604482015290519081900360640190fd5b6040805160608b901b6bffffffffffffffffffffffff191660208083019190915260348083018990528351808403909101815260549092018352815191810191909120600081815260049092529190205490935060081b60ff191615612800576040805162461bcd60e51b8152602060048201526014602482015273135d5cdd081d5cd94818481d5b9a5c5d5948125160621b604482015290519081900360640190fd5b61280c4261012c612d1a565b9150600061281c89898986612b3c565b905060405180604001604052808260ff1916815260200161283c87612d7b565b60ff9081169091526000868152600460209081526040909120835181549490920151909216600160f81b0260089190911c6001600160f81b0319909316929092176001600160f81b0316919091179055600654612899908a612d1a565b6006555050965096945050505050565b6128b23361248a565b6126d3576040805162461bcd60e51b81526020600482015260156024820152742737ba1030baba3437b934bd32b21039b2b73232b960591b604482015290519081900360640190fd5b600061290986868686612b3c565b60008881526004602052604090205490915060081b60ff1990811690821614612979576040805162461bcd60e51b815260206004820152601e60248201527f506172616d7320646f206e6f74206d6174636820726571756573742049440000604482015290519081900360640190fd5b61298282612d7b565b60008881526004602052604090205460ff918216600160f81b90910490911611156129f4576040805162461bcd60e51b815260206004820152601860248201527f446174612076657273696f6e73206d757374206d617463680000000000000000604482015290519081900360640190fd5b600654612a019087612adf565b600655505050600093845250506004602052506040812055565b600080612a346001600654612adf90919063ffffffff16565b9050612ad9817f00000000000000000000000000000000000000000000000000000000000000006001600160a01b03166370a08231306040518263ffffffff1660e01b815260040180826001600160a01b0316815260200191505060206040518083038186803b158015612aa757600080fd5b505afa158015612abb573d6000803e3d6000fd5b505050506040513d6020811015612ad157600080fd5b505190612adf565b91505090565b600082821115612b36576040805162461bcd60e51b815260206004820152601e60248201527f536166654d6174683a207375627472616374696f6e206f766572666c6f770000604482015290519081900360640190fd5b50900390565b6040805160208082019690965260609490941b6bffffffffffffffffffffffff1916848201526001600160e01b03199290921660548401526058808401919091528151808403909101815260789092019052805191012090565b805160441115612be6576040805162461bcd60e51b8152602060048201526016602482015275092dcecc2d8d2c840e4cae2eacae6e840d8cadccee8d60531b604482015290519081900360640190fd5b6001600160e01b03198216633c6d41b960e01b1480612c1557506001600160e01b031982166320214ca360e11b145b612c66576040805162461bcd60e51b815260206004820152601e60248201527f4d757374207573652077686974656c69737465642066756e6374696f6e730000604482015290519081900360640190fd5b5050565b6001600160a01b038116331415612cc8576040805162461bcd60e51b815260206004820152601760248201527f43616e6e6f74207472616e7366657220746f2073656c66000000000000000000604482015290519081900360640190fd5b600380546001600160a01b0319166001600160a01b03838116918217909255600254604051919216907fed8889f560326eb138920d842192f0eb3dd22b4f139c87a2c57538e05bae127890600090a350565b600082820183811015612d74576040805162461bcd60e51b815260206004820152601b60248201527f536166654d6174683a206164646974696f6e206f766572666c6f770000000000604482015290519081900360640190fd5b9392505050565b60006101008210612dcc576040805162461bcd60e51b81526020600482015260166024820152751b9d5b58995c881d1bdbc8189a59c81d1bc818d85cdd60521b604482015290519081900360640190fd5b5090565b828054828255906000526020600020908101928215612e23579160200282015b82811115612e235781546001600160a01b0319166001600160a01b03843516178255602090920191600190910190612df0565b50612dcc9291505b80821115612dcc5760008155600101612e2b56fe43616e6e6f742073657420617574686f72697a65642073656e646572730000004d7573742068617665206174206c65617374203120617574686f72697a65642073656e646572416d6f756e74207265717565737465642069732067726561746572207468616e20776974686472617761626c652062616c616e6365a26469706673582212205c422981ccab6a552b1ea053384675c30a56e21fa3c922040b62501f56da241664736f6c63430007060033",
					"opcodes": "PUSH1 0xA0 PUSH1 0x40 MSTORE PUSH1 0x1 PUSH1 0x6 SSTORE CALLVALUE DUP1 ISZERO PUSH3 0x16 JUMPI PUSH1 0x0 DUP1 REVERT JUMPDEST POP PUSH1 0x40 MLOAD PUSH3 0x30D4 CODESIZE SUB DUP1 PUSH3 0x30D4 DUP4 CODECOPY DUP2 DUP2 ADD PUSH1 0x40 MSTORE PUSH1 0x40 DUP2 LT ISZERO PUSH3 0x3C JUMPI PUSH1 0x0 DUP1 REVERT JUMPDEST POP DUP1 MLOAD PUSH1 0x20 SWAP1 SWAP2 ADD MLOAD DUP1 DUP1 PUSH1 0x0 PUSH1 0x1 PUSH1 0x1 PUSH1 0xA0 SHL SUB DUP3 AND PUSH3 0xA5 JUMPI PUSH1 0x40 DUP1 MLOAD PUSH3 0x461BCD PUSH1 0xE5 SHL DUP2 MSTORE PUSH1 0x20 PUSH1 0x4 DUP3 ADD MSTORE PUSH1 0x18 PUSH1 0x24 DUP3 ADD MSTORE PUSH32 0x43616E6E6F7420736574206F776E657220746F207A65726F0000000000000000 PUSH1 0x44 DUP3 ADD MSTORE SWAP1 MLOAD SWAP1 DUP2 SWAP1 SUB PUSH1 0x64 ADD SWAP1 REVERT JUMPDEST PUSH1 0x2 DUP1 SLOAD PUSH1 0x1 PUSH1 0x1 PUSH1 0xA0 SHL SUB NOT AND PUSH1 0x1 PUSH1 0x1 PUSH1 0xA0 SHL SUB DUP5 DUP2 AND SWAP2 SWAP1 SWAP2 OR SWAP1 SWAP2 SSTORE DUP2 AND ISZERO PUSH3 0xD8 JUMPI PUSH3 0xD8 DUP2 PUSH3 0xF2 JUMP JUMPDEST POP POP POP POP PUSH1 0x60 SHL PUSH1 0x1 PUSH1 0x1 PUSH1 0x60 SHL SUB NOT AND PUSH1 0x80 MSTORE PUSH3 0x1A3 JUMP JUMPDEST PUSH1 0x1 PUSH1 0x1 PUSH1 0xA0 SHL SUB DUP2 AND CALLER EQ ISZERO PUSH3 0x151 JUMPI PUSH1 0x40 DUP1 MLOAD PUSH3 0x461BCD PUSH1 0xE5 SHL DUP2 MSTORE PUSH1 0x20 PUSH1 0x4 DUP3 ADD MSTORE PUSH1 0x17 PUSH1 0x24 DUP3 ADD MSTORE PUSH32 0x43616E6E6F74207472616E7366657220746F2073656C66000000000000000000 PUSH1 0x44 DUP3 ADD MSTORE SWAP1 MLOAD SWAP1 DUP2 SWAP1 SUB PUSH1 0x64 ADD SWAP1 REVERT JUMPDEST PUSH1 0x3 DUP1 SLOAD PUSH1 0x1 PUSH1 0x1 PUSH1 0xA0 SHL SUB NOT AND PUSH1 0x1 PUSH1 0x1 PUSH1 0xA0 SHL SUB DUP4 DUP2 AND SWAP2 DUP3 OR SWAP1 SWAP3 SSTORE PUSH1 0x2 SLOAD PUSH1 0x40 MLOAD SWAP2 SWAP3 AND SWAP1 PUSH32 0xED8889F560326EB138920D842192F0EB3DD22B4F139C87A2C57538E05BAE1278 SWAP1 PUSH1 0x0 SWAP1 LOG3 POP JUMP JUMPDEST PUSH1 0x80 MLOAD PUSH1 0x60 SHR PUSH2 0x2EF0 PUSH3 0x1E4 PUSH1 0x0 CODECOPY DUP1 PUSH2 0xDDD MSTORE DUP1 PUSH2 0xF75 MSTORE DUP1 PUSH2 0x1BEE MSTORE DUP1 PUSH2 0x1D7E MSTORE DUP1 PUSH2 0x2146 MSTORE DUP1 PUSH2 0x23E3 MSTORE DUP1 PUSH2 0x26E1 MSTORE DUP1 PUSH2 0x2A3C MSTORE POP PUSH2 0x2EF0 PUSH1 0x0 RETURN INVALID PUSH1 0x80 PUSH1 0x40 MSTORE PUSH1 0x4 CALLDATASIZE LT PUSH2 0x166 JUMPI PUSH1 0x0 CALLDATALOAD PUSH1 0xE0 SHR DUP1 PUSH4 0x6AE0BC76 GT PUSH2 0xD1 JUMPI DUP1 PUSH4 0xA4C0ED36 GT PUSH2 0x8A JUMPI DUP1 PUSH4 0xF2FDE38B GT PUSH2 0x64 JUMPI DUP1 PUSH4 0xF2FDE38B EQ PUSH2 0xAED JUMPI DUP1 PUSH4 0xF3FEF3A3 EQ PUSH2 0xB20 JUMPI DUP1 PUSH4 0xFA00763A EQ PUSH2 0xB59 JUMPI DUP1 PUSH4 0xFC4A03ED EQ PUSH2 0xB8C JUMPI PUSH2 0x166 JUMP JUMPDEST DUP1 PUSH4 0xA4C0ED36 EQ PUSH2 0x966 JUMPI DUP1 PUSH4 0xEB007D99 EQ PUSH2 0xA2C JUMPI DUP1 PUSH4 0xEE56997B EQ PUSH2 0xA72 JUMPI PUSH2 0x166 JUMP JUMPDEST DUP1 PUSH4 0x6AE0BC76 EQ PUSH2 0x6FB JUMPI DUP1 PUSH4 0x6BD59EC0 EQ PUSH2 0x7A8 JUMPI DUP1 PUSH4 0x6EE4D553 EQ PUSH2 0x866 JUMPI DUP1 PUSH4 0x79BA5097 EQ PUSH2 0x8AC JUMPI DUP1 PUSH4 0x8DA5CB5B EQ PUSH2 0x8C1 JUMPI DUP1 PUSH4 0x902FC370 EQ PUSH2 0x8D6 JUMPI PUSH2 0x166 JUMP JUMPDEST DUP1 PUSH4 0x3C6D41B9 GT PUSH2 0x123 JUMPI DUP1 PUSH4 0x3C6D41B9 EQ PUSH2 0x3BA JUMPI DUP1 PUSH4 0x3EC5BC14 EQ PUSH2 0x46C JUMPI DUP1 PUSH4 0x40429946 EQ PUSH2 0x4F0 JUMPI DUP1 PUSH4 0x4AB0D190 EQ PUSH2 0x5AC JUMPI DUP1 PUSH4 0x50188301 EQ PUSH2 0x61B JUMPI DUP1 PUSH4 0x5FFA6288 EQ PUSH2 0x630 JUMPI PUSH2 0x166 JUMP JUMPDEST DUP1 PUSH4 0x1994B99 EQ PUSH2 0x16B JUMPI DUP1 PUSH4 0x33F49F7 EQ PUSH2 0x1E8 JUMPI DUP1 PUSH4 0x165D35E1 EQ PUSH2 0x273 JUMPI DUP1 PUSH4 0x181F5A77 EQ PUSH2 0x2A4 JUMPI DUP1 PUSH4 0x2408AFAA EQ PUSH2 0x32E JUMPI DUP1 PUSH4 0x25CB5BC0 EQ PUSH2 0x393 JUMPI JUMPDEST PUSH1 0x0 DUP1 REVERT JUMPDEST CALLVALUE DUP1 ISZERO PUSH2 0x177 JUMPI PUSH1 0x0 DUP1 REVERT JUMPDEST POP PUSH2 0x1E6 PUSH1 0x4 DUP1 CALLDATASIZE SUB PUSH1 0x20 DUP2 LT ISZERO PUSH2 0x18E JUMPI PUSH1 0x0 DUP1 REVERT JUMPDEST DUP2 ADD SWAP1 PUSH1 0x20 DUP2 ADD DUP2 CALLDATALOAD PUSH1 0x1 PUSH1 0x20 SHL DUP2 GT ISZERO PUSH2 0x1A8 JUMPI PUSH1 0x0 DUP1 REVERT JUMPDEST DUP3 ADD DUP4 PUSH1 0x20 DUP3 ADD GT ISZERO PUSH2 0x1BA JUMPI PUSH1 0x0 DUP1 REVERT JUMPDEST DUP1 CALLDATALOAD SWAP1 PUSH1 0x20 ADD SWAP2 DUP5 PUSH1 0x20 DUP4 MUL DUP5 ADD GT PUSH1 0x1 PUSH1 0x20 SHL DUP4 GT OR ISZERO PUSH2 0x1DB JUMPI PUSH1 0x0 DUP1 REVERT JUMPDEST POP SWAP1 SWAP3 POP SWAP1 POP PUSH2 0xC57 JUMP JUMPDEST STOP JUMPDEST CALLVALUE DUP1 ISZERO PUSH2 0x1F4 JUMPI PUSH1 0x0 DUP1 REVERT JUMPDEST POP PUSH2 0x1E6 PUSH1 0x4 DUP1 CALLDATASIZE SUB PUSH1 0x40 DUP2 LT ISZERO PUSH2 0x20B JUMPI PUSH1 0x0 DUP1 REVERT JUMPDEST PUSH1 0x1 PUSH1 0x1 PUSH1 0xA0 SHL SUB DUP3 CALLDATALOAD AND SWAP2 SWAP1 DUP2 ADD SWAP1 PUSH1 0x40 DUP2 ADD PUSH1 0x20 DUP3 ADD CALLDATALOAD PUSH1 0x1 PUSH1 0x20 SHL DUP2 GT ISZERO PUSH2 0x235 JUMPI PUSH1 0x0 DUP1 REVERT JUMPDEST DUP3 ADD DUP4 PUSH1 0x20 DUP3 ADD GT ISZERO PUSH2 0x247 JUMPI PUSH1 0x0 DUP1 REVERT JUMPDEST DUP1 CALLDATALOAD SWAP1 PUSH1 0x20 ADD SWAP2 DUP5 PUSH1 0x1 DUP4 MUL DUP5 ADD GT PUSH1 0x1 PUSH1 0x20 SHL DUP4 GT OR ISZERO PUSH2 0x268 JUMPI PUSH1 0x0 DUP1 REVERT JUMPDEST POP SWAP1 SWAP3 POP SWAP1 POP PUSH2 0xDD2 JUMP JUMPDEST CALLVALUE DUP1 ISZERO PUSH2 0x27F JUMPI PUSH1 0x0 DUP1 REVERT JUMPDEST POP PUSH2 0x288 PUSH2 0xF73 JUMP JUMPDEST PUSH1 0x40 DUP1 MLOAD PUSH1 0x1 PUSH1 0x1 PUSH1 0xA0 SHL SUB SWAP1 SWAP3 AND DUP3 MSTORE MLOAD SWAP1 DUP2 SWAP1 SUB PUSH1 0x20 ADD SWAP1 RETURN JUMPDEST CALLVALUE DUP1 ISZERO PUSH2 0x2B0 JUMPI PUSH1 0x0 DUP1 REVERT JUMPDEST POP PUSH2 0x2B9 PUSH2 0xF97 JUMP JUMPDEST PUSH1 0x40 DUP1 MLOAD PUSH1 0x20 DUP1 DUP3 MSTORE DUP4 MLOAD DUP2 DUP4 ADD MSTORE DUP4 MLOAD SWAP2 SWAP3 DUP4 SWAP3 SWAP1 DUP4 ADD SWAP2 DUP6 ADD SWAP1 DUP1 DUP4 DUP4 PUSH1 0x0 JUMPDEST DUP4 DUP2 LT ISZERO PUSH2 0x2F3 JUMPI DUP2 DUP2 ADD MLOAD DUP4 DUP3 ADD MSTORE PUSH1 0x20 ADD PUSH2 0x2DB JUMP JUMPDEST POP POP POP POP SWAP1 POP SWAP1 DUP2 ADD SWAP1 PUSH1 0x1F AND DUP1 ISZERO PUSH2 0x320 JUMPI DUP1 DUP3 SUB DUP1 MLOAD PUSH1 0x1 DUP4 PUSH1 0x20 SUB PUSH2 0x100 EXP SUB NOT AND DUP2 MSTORE PUSH1 0x20 ADD SWAP2 POP JUMPDEST POP SWAP3 POP POP POP PUSH1 0x40 MLOAD DUP1 SWAP2 SUB SWAP1 RETURN JUMPDEST CALLVALUE DUP1 ISZERO PUSH2 0x33A JUMPI PUSH1 0x0 DUP1 REVERT JUMPDEST POP PUSH2 0x343 PUSH2 0xFBF JUMP JUMPDEST PUSH1 0x40 DUP1 MLOAD PUSH1 0x20 DUP1 DUP3 MSTORE DUP4 MLOAD DUP2 DUP4 ADD MSTORE DUP4 MLOAD SWAP2 SWAP3 DUP4 SWAP3 SWAP1 DUP4 ADD SWAP2 DUP6 DUP2 ADD SWAP2 MUL DUP1 DUP4 DUP4 PUSH1 0x0 JUMPDEST DUP4 DUP2 LT ISZERO PUSH2 0x37F JUMPI DUP2 DUP2 ADD MLOAD DUP4 DUP3 ADD MSTORE PUSH1 0x20 ADD PUSH2 0x367 JUMP JUMPDEST POP POP POP POP SWAP1 POP ADD SWAP3 POP POP POP PUSH1 0x40 MLOAD DUP1 SWAP2 SUB SWAP1 RETURN JUMPDEST CALLVALUE DUP1 ISZERO PUSH2 0x39F JUMPI PUSH1 0x0 DUP1 REVERT JUMPDEST POP PUSH2 0x3A8 PUSH2 0x1021 JUMP JUMPDEST PUSH1 0x40 DUP1 MLOAD SWAP2 DUP3 MSTORE MLOAD SWAP1 DUP2 SWAP1 SUB PUSH1 0x20 ADD SWAP1 RETURN JUMPDEST CALLVALUE DUP1 ISZERO PUSH2 0x3C6 JUMPI PUSH1 0x0 DUP1 REVERT JUMPDEST POP PUSH2 0x1E6 PUSH1 0x4 DUP1 CALLDATASIZE SUB PUSH1 0xE0 DUP2 LT ISZERO PUSH2 0x3DD JUMPI PUSH1 0x0 DUP1 REVERT JUMPDEST PUSH1 0x1 PUSH1 0x1 PUSH1 0xA0 SHL SUB DUP3 CALLDATALOAD AND SWAP2 PUSH1 0x20 DUP2 ADD CALLDATALOAD SWAP2 PUSH1 0x40 DUP3 ADD CALLDATALOAD SWAP2 PUSH1 0x1 PUSH1 0x1 PUSH1 0xE0 SHL SUB NOT PUSH1 0x60 DUP3 ADD CALLDATALOAD AND SWAP2 PUSH1 0x80 DUP3 ADD CALLDATALOAD SWAP2 PUSH1 0xA0 DUP2 ADD CALLDATALOAD SWAP2 DUP2 ADD SWAP1 PUSH1 0xE0 DUP2 ADD PUSH1 0xC0 DUP3 ADD CALLDATALOAD PUSH1 0x1 PUSH1 0x20 SHL DUP2 GT ISZERO PUSH2 0x42E JUMPI PUSH1 0x0 DUP1 REVERT JUMPDEST DUP3 ADD DUP4 PUSH1 0x20 DUP3 ADD GT ISZERO PUSH2 0x440 JUMPI PUSH1 0x0 DUP1 REVERT JUMPDEST DUP1 CALLDATALOAD SWAP1 PUSH1 0x20 ADD SWAP2 DUP5 PUSH1 0x1 DUP4 MUL DUP5 ADD GT PUSH1 0x1 PUSH1 0x20 SHL DUP4 GT OR ISZERO PUSH2 0x461 JUMPI PUSH1 0x0 DUP1 REVERT JUMPDEST POP SWAP1 SWAP3 POP SWAP1 POP PUSH2 0x1027 JUMP JUMPDEST CALLVALUE DUP1 ISZERO PUSH2 0x478 JUMPI PUSH1 0x0 DUP1 REVERT JUMPDEST POP PUSH2 0x1E6 PUSH1 0x4 DUP1 CALLDATASIZE SUB PUSH1 0x40 DUP2 LT ISZERO PUSH2 0x48F JUMPI PUSH1 0x0 DUP1 REVERT JUMPDEST DUP2 ADD SWAP1 PUSH1 0x20 DUP2 ADD DUP2 CALLDATALOAD PUSH1 0x1 PUSH1 0x20 SHL DUP2 GT ISZERO PUSH2 0x4A9 JUMPI PUSH1 0x0 DUP1 REVERT JUMPDEST DUP3 ADD DUP4 PUSH1 0x20 DUP3 ADD GT ISZERO PUSH2 0x4BB JUMPI PUSH1 0x0 DUP1 REVERT JUMPDEST DUP1 CALLDATALOAD SWAP1 PUSH1 0x20 ADD SWAP2 DUP5 PUSH1 0x20 DUP4 MUL DUP5 ADD GT PUSH1 0x1 PUSH1 0x20 SHL DUP4 GT OR ISZERO PUSH2 0x4DC JUMPI PUSH1 0x0 DUP1 REVERT JUMPDEST SWAP2 SWAP4 POP SWAP2 POP CALLDATALOAD PUSH1 0x1 PUSH1 0x1 PUSH1 0xA0 SHL SUB AND PUSH2 0x1160 JUMP JUMPDEST CALLVALUE DUP1 ISZERO PUSH2 0x4FC JUMPI PUSH1 0x0 DUP1 REVERT JUMPDEST POP PUSH2 0x1E6 PUSH1 0x4 DUP1 CALLDATASIZE SUB PUSH2 0x100 DUP2 LT ISZERO PUSH2 0x514 JUMPI PUSH1 0x0 DUP1 REVERT JUMPDEST PUSH1 0x1 PUSH1 0x1 PUSH1 0xA0 SHL SUB DUP3 CALLDATALOAD DUP2 AND SWAP3 PUSH1 0x20 DUP2 ADD CALLDATALOAD SWAP3 PUSH1 0x40 DUP3 ADD CALLDATALOAD SWAP3 PUSH1 0x60 DUP4 ADD CALLDATALOAD AND SWAP2 PUSH1 0x1 PUSH1 0x1 PUSH1 0xE0 SHL SUB NOT PUSH1 0x80 DUP3 ADD CALLDATALOAD AND SWAP2 PUSH1 0xA0 DUP3 ADD CALLDATALOAD SWAP2 PUSH1 0xC0 DUP2 ADD CALLDATALOAD SWAP2 DUP2 ADD SWAP1 PUSH2 0x100 DUP2 ADD PUSH1 0xE0 DUP3 ADD CALLDATALOAD PUSH1 0x1 PUSH1 0x20 SHL DUP2 GT ISZERO PUSH2 0x56E JUMPI PUSH1 0x0 DUP1 REVERT JUMPDEST DUP3 ADD DUP4 PUSH1 0x20 DUP3 ADD GT ISZERO PUSH2 0x580 JUMPI PUSH1 0x0 DUP1 REVERT JUMPDEST DUP1 CALLDATALOAD SWAP1 PUSH1 0x20 ADD SWAP2 DUP5 PUSH1 0x1 DUP4 MUL DUP5 ADD GT PUSH1 0x1 PUSH1 0x20 SHL DUP4 GT OR ISZERO PUSH2 0x5A1 JUMPI PUSH1 0x0 DUP1 REVERT JUMPDEST POP SWAP1 SWAP3 POP SWAP1 POP PUSH2 0x1260 JUMP JUMPDEST CALLVALUE DUP1 ISZERO PUSH2 0x5B8 JUMPI PUSH1 0x0 DUP1 REVERT JUMPDEST POP PUSH2 0x607 PUSH1 0x4 DUP1 CALLDATASIZE SUB PUSH1 0xC0 DUP2 LT ISZERO PUSH2 0x5CF JUMPI PUSH1 0x0 DUP1 REVERT JUMPDEST POP DUP1 CALLDATALOAD SWAP1 PUSH1 0x20 DUP2 ADD CALLDATALOAD SWAP1 PUSH1 0x1 PUSH1 0x1 PUSH1 0xA0 SHL SUB PUSH1 0x40 DUP3 ADD CALLDATALOAD AND SWAP1 PUSH1 0x1 PUSH1 0x1 PUSH1 0xE0 SHL SUB NOT PUSH1 0x60 DUP3 ADD CALLDATALOAD AND SWAP1 PUSH1 0x80 DUP2 ADD CALLDATALOAD SWAP1 PUSH1 0xA0 ADD CALLDATALOAD PUSH2 0x139A JUMP JUMPDEST PUSH1 0x40 DUP1 MLOAD SWAP2 ISZERO ISZERO DUP3 MSTORE MLOAD SWAP1 DUP2 SWAP1 SUB PUSH1 0x20 ADD SWAP1 RETURN JUMPDEST CALLVALUE DUP1 ISZERO PUSH2 0x627 JUMPI PUSH1 0x0 DUP1 REVERT JUMPDEST POP PUSH2 0x3A8 PUSH2 0x1602 JUMP JUMPDEST CALLVALUE DUP1 ISZERO PUSH2 0x63C JUMPI PUSH1 0x0 DUP1 REVERT JUMPDEST POP PUSH2 0x1E6 PUSH1 0x4 DUP1 CALLDATASIZE SUB PUSH1 0x40 DUP2 LT ISZERO PUSH2 0x653 JUMPI PUSH1 0x0 DUP1 REVERT JUMPDEST DUP2 ADD SWAP1 PUSH1 0x20 DUP2 ADD DUP2 CALLDATALOAD PUSH1 0x1 PUSH1 0x20 SHL DUP2 GT ISZERO PUSH2 0x66D JUMPI PUSH1 0x0 DUP1 REVERT JUMPDEST DUP3 ADD DUP4 PUSH1 0x20 DUP3 ADD GT ISZERO PUSH2 0x67F JUMPI PUSH1 0x0 DUP1 REVERT JUMPDEST DUP1 CALLDATALOAD SWAP1 PUSH1 0x20 ADD SWAP2 DUP5 PUSH1 0x20 DUP4 MUL DUP5 ADD GT PUSH1 0x1 PUSH1 0x20 SHL DUP4 GT OR ISZERO PUSH2 0x6A0 JUMPI PUSH1 0x0 DUP1 REVERT JUMPDEST SWAP2 SWAP4 SWAP1 SWAP3 SWAP1 SWAP2 PUSH1 0x20 DUP2 ADD SWAP1 CALLDATALOAD PUSH1 0x1 PUSH1 0x20 SHL DUP2 GT ISZERO PUSH2 0x6BD JUMPI PUSH1 0x0 DUP1 REVERT JUMPDEST DUP3 ADD DUP4 PUSH1 0x20 DUP3 ADD GT ISZERO PUSH2 0x6CF JUMPI PUSH1 0x0 DUP1 REVERT JUMPDEST DUP1 CALLDATALOAD SWAP1 PUSH1 0x20 ADD SWAP2 DUP5 PUSH1 0x20 DUP4 MUL DUP5 ADD GT PUSH1 0x1 PUSH1 0x20 SHL DUP4 GT OR ISZERO PUSH2 0x6F0 JUMPI PUSH1 0x0 DUP1 REVERT JUMPDEST POP SWAP1 SWAP3 POP SWAP1 POP PUSH2 0x1611 JUMP JUMPDEST CALLVALUE DUP1 ISZERO PUSH2 0x707 JUMPI PUSH1 0x0 DUP1 REVERT JUMPDEST POP PUSH2 0x607 PUSH1 0x4 DUP1 CALLDATASIZE SUB PUSH1 0xC0 DUP2 LT ISZERO PUSH2 0x71E JUMPI PUSH1 0x0 DUP1 REVERT JUMPDEST DUP2 CALLDATALOAD SWAP2 PUSH1 0x20 DUP2 ADD CALLDATALOAD SWAP2 PUSH1 0x1 PUSH1 0x1 PUSH1 0xA0 SHL SUB PUSH1 0x40 DUP4 ADD CALLDATALOAD AND SWAP2 PUSH1 0x1 PUSH1 0x1 PUSH1 0xE0 SHL SUB NOT PUSH1 0x60 DUP3 ADD CALLDATALOAD AND SWAP2 PUSH1 0x80 DUP3 ADD CALLDATALOAD SWAP2 SWAP1 DUP2 ADD SWAP1 PUSH1 0xC0 DUP2 ADD PUSH1 0xA0 DUP3 ADD CALLDATALOAD PUSH1 0x1 PUSH1 0x20 SHL DUP2 GT ISZERO PUSH2 0x76A JUMPI PUSH1 0x0 DUP1 REVERT JUMPDEST DUP3 ADD DUP4 PUSH1 0x20 DUP3 ADD GT ISZERO PUSH2 0x77C JUMPI PUSH1 0x0 DUP1 REVERT JUMPDEST DUP1 CALLDATALOAD SWAP1 PUSH1 0x20 ADD SWAP2 DUP5 PUSH1 0x1 DUP4 MUL DUP5 ADD GT PUSH1 0x1 PUSH1 0x20 SHL DUP4 GT OR ISZERO PUSH2 0x79D JUMPI PUSH1 0x0 DUP1 REVERT JUMPDEST POP SWAP1 SWAP3 POP SWAP1 POP PUSH2 0x166E JUMP JUMPDEST PUSH2 0x1E6 PUSH1 0x4 DUP1 CALLDATASIZE SUB PUSH1 0x40 DUP2 LT ISZERO PUSH2 0x7BE JUMPI PUSH1 0x0 DUP1 REVERT JUMPDEST DUP2 ADD SWAP1 PUSH1 0x20 DUP2 ADD DUP2 CALLDATALOAD PUSH1 0x1 PUSH1 0x20 SHL DUP2 GT ISZERO PUSH2 0x7D8 JUMPI PUSH1 0x0 DUP1 REVERT JUMPDEST DUP3 ADD DUP4 PUSH1 0x20 DUP3 ADD GT ISZERO PUSH2 0x7EA JUMPI PUSH1 0x0 DUP1 REVERT JUMPDEST DUP1 CALLDATALOAD SWAP1 PUSH1 0x20 ADD SWAP2 DUP5 PUSH1 0x20 DUP4 MUL DUP5 ADD GT PUSH1 0x1 PUSH1 0x20 SHL DUP4 GT OR ISZERO PUSH2 0x80B JUMPI PUSH1 0x0 DUP1 REVERT JUMPDEST SWAP2 SWAP4 SWAP1 SWAP3 SWAP1 SWAP2 PUSH1 0x20 DUP2 ADD SWAP1 CALLDATALOAD PUSH1 0x1 PUSH1 0x20 SHL DUP2 GT ISZERO PUSH2 0x828 JUMPI PUSH1 0x0 DUP1 REVERT JUMPDEST DUP3 ADD DUP4 PUSH1 0x20 DUP3 ADD GT ISZERO PUSH2 0x83A JUMPI PUSH1 0x0 DUP1 REVERT JUMPDEST DUP1 CALLDATALOAD SWAP1 PUSH1 0x20 ADD SWAP2 DUP5 PUSH1 0x20 DUP4 MUL DUP5 ADD GT PUSH1 0x1 PUSH1 0x20 SHL DUP4 GT OR ISZERO PUSH2 0x85B JUMPI PUSH1 0x0 DUP1 REVERT JUMPDEST POP SWAP1 SWAP3 POP SWAP1 POP PUSH2 0x1986 JUMP JUMPDEST CALLVALUE DUP1 ISZERO PUSH2 0x872 JUMPI PUSH1 0x0 DUP1 REVERT JUMPDEST POP PUSH2 0x1E6 PUSH1 0x4 DUP1 CALLDATASIZE SUB PUSH1 0x80 DUP2 LT ISZERO PUSH2 0x889 JUMPI PUSH1 0x0 DUP1 REVERT JUMPDEST POP DUP1 CALLDATALOAD SWAP1 PUSH1 0x20 DUP2 ADD CALLDATALOAD SWAP1 PUSH1 0x1 PUSH1 0x1 PUSH1 0xE0 SHL SUB NOT PUSH1 0x40 DUP3 ADD CALLDATALOAD AND SWAP1 PUSH1 0x60 ADD CALLDATALOAD PUSH2 0x1AC3 JUMP JUMPDEST CALLVALUE DUP1 ISZERO PUSH2 0x8B8 JUMPI PUSH1 0x0 DUP1 REVERT JUMPDEST POP PUSH2 0x1E6 PUSH2 0x1C69 JUMP JUMPDEST CALLVALUE DUP1 ISZERO PUSH2 0x8CD JUMPI PUSH1 0x0 DUP1 REVERT JUMPDEST POP PUSH2 0x288 PUSH2 0x1D1C JUMP JUMPDEST CALLVALUE DUP1 ISZERO PUSH2 0x8E2 JUMPI PUSH1 0x0 DUP1 REVERT JUMPDEST POP PUSH2 0x607 PUSH1 0x4 DUP1 CALLDATASIZE SUB PUSH1 0x60 DUP2 LT ISZERO PUSH2 0x8F9 JUMPI PUSH1 0x0 DUP1 REVERT JUMPDEST PUSH1 0x1 PUSH1 0x1 PUSH1 0xA0 SHL SUB DUP3 CALLDATALOAD AND SWAP2 PUSH1 0x20 DUP2 ADD CALLDATALOAD SWAP2 DUP2 ADD SWAP1 PUSH1 0x60 DUP2 ADD PUSH1 0x40 DUP3 ADD CALLDATALOAD PUSH1 0x1 PUSH1 0x20 SHL DUP2 GT ISZERO PUSH2 0x928 JUMPI PUSH1 0x0 DUP1 REVERT JUMPDEST DUP3 ADD DUP4 PUSH1 0x20 DUP3 ADD GT ISZERO PUSH2 0x93A JUMPI PUSH1 0x0 DUP1 REVERT JUMPDEST DUP1 CALLDATALOAD SWAP1 PUSH1 0x20 ADD SWAP2 DUP5 PUSH1 0x1 DUP4 MUL DUP5 ADD GT PUSH1 0x1 PUSH1 0x20 SHL DUP4 GT OR ISZERO PUSH2 0x95B JUMPI PUSH1 0x0 DUP1 REVERT JUMPDEST POP SWAP1 SWAP3 POP SWAP1 POP PUSH2 0x1D2B JUMP JUMPDEST CALLVALUE DUP1 ISZERO PUSH2 0x972 JUMPI PUSH1 0x0 DUP1 REVERT JUMPDEST POP PUSH2 0x1E6 PUSH1 0x4 DUP1 CALLDATASIZE SUB PUSH1 0x60 DUP2 LT ISZERO PUSH2 0x989 JUMPI PUSH1 0x0 DUP1 REVERT JUMPDEST PUSH1 0x1 PUSH1 0x1 PUSH1 0xA0 SHL SUB DUP3 CALLDATALOAD AND SWAP2 PUSH1 0x20 DUP2 ADD CALLDATALOAD SWAP2 DUP2 ADD SWAP1 PUSH1 0x60 DUP2 ADD PUSH1 0x40 DUP3 ADD CALLDATALOAD PUSH1 0x1 PUSH1 0x20 SHL DUP2 GT ISZERO PUSH2 0x9B8 JUMPI PUSH1 0x0 DUP1 REVERT JUMPDEST DUP3 ADD DUP4 PUSH1 0x20 DUP3 ADD GT ISZERO PUSH2 0x9CA JUMPI PUSH1 0x0 DUP1 REVERT JUMPDEST DUP1 CALLDATALOAD SWAP1 PUSH1 0x20 ADD SWAP2 DUP5 PUSH1 0x1 DUP4 MUL DUP5 ADD GT PUSH1 0x1 PUSH1 0x20 SHL DUP4 GT OR ISZERO PUSH2 0x9EB JUMPI PUSH1 0x0 DUP1 REVERT JUMPDEST SWAP2 SWAP1 DUP1 DUP1 PUSH1 0x1F ADD PUSH1 0x20 DUP1 SWAP2 DIV MUL PUSH1 0x20 ADD PUSH1 0x40 MLOAD SWAP1 DUP2 ADD PUSH1 0x40 MSTORE DUP1 SWAP4 SWAP3 SWAP2 SWAP1 DUP2 DUP2 MSTORE PUSH1 0x20 ADD DUP4 DUP4 DUP1 DUP3 DUP5 CALLDATACOPY PUSH1 0x0 SWAP3 ADD SWAP2 SWAP1 SWAP2 MSTORE POP SWAP3 SWAP6 POP PUSH2 0x1E5D SWAP5 POP POP POP POP POP JUMP JUMPDEST CALLVALUE DUP1 ISZERO PUSH2 0xA38 JUMPI PUSH1 0x0 DUP1 REVERT JUMPDEST POP PUSH2 0x1E6 PUSH1 0x4 DUP1 CALLDATASIZE SUB PUSH1 0x80 DUP2 LT ISZERO PUSH2 0xA4F JUMPI PUSH1 0x0 DUP1 REVERT JUMPDEST POP DUP1 CALLDATALOAD SWAP1 PUSH1 0x20 DUP2 ADD CALLDATALOAD SWAP1 PUSH1 0x1 PUSH1 0x1 PUSH1 0xE0 SHL SUB NOT PUSH1 0x40 DUP3 ADD CALLDATALOAD AND SWAP1 PUSH1 0x60 ADD CALLDATALOAD PUSH2 0x1FDC JUMP JUMPDEST CALLVALUE DUP1 ISZERO PUSH2 0xA7E JUMPI PUSH1 0x0 DUP1 REVERT JUMPDEST POP PUSH2 0x1E6 PUSH1 0x4 DUP1 CALLDATASIZE SUB PUSH1 0x20 DUP2 LT ISZERO PUSH2 0xA95 JUMPI PUSH1 0x0 DUP1 REVERT JUMPDEST DUP2 ADD SWAP1 PUSH1 0x20 DUP2 ADD DUP2 CALLDATALOAD PUSH1 0x1 PUSH1 0x20 SHL DUP2 GT ISZERO PUSH2 0xAAF JUMPI PUSH1 0x0 DUP1 REVERT JUMPDEST DUP3 ADD DUP4 PUSH1 0x20 DUP3 ADD GT ISZERO PUSH2 0xAC1 JUMPI PUSH1 0x0 DUP1 REVERT JUMPDEST DUP1 CALLDATALOAD SWAP1 PUSH1 0x20 ADD SWAP2 DUP5 PUSH1 0x20 DUP4 MUL DUP5 ADD GT PUSH1 0x1 PUSH1 0x20 SHL DUP4 GT OR ISZERO PUSH2 0xAE2 JUMPI PUSH1 0x0 DUP1 REVERT JUMPDEST POP SWAP1 SWAP3 POP SWAP1 POP PUSH2 0x21C2 JUMP JUMPDEST CALLVALUE DUP1 ISZERO PUSH2 0xAF9 JUMPI PUSH1 0x0 DUP1 REVERT JUMPDEST POP PUSH2 0x1E6 PUSH1 0x4 DUP1 CALLDATASIZE SUB PUSH1 0x20 DUP2 LT ISZERO PUSH2 0xB10 JUMPI PUSH1 0x0 DUP1 REVERT JUMPDEST POP CALLDATALOAD PUSH1 0x1 PUSH1 0x1 PUSH1 0xA0 SHL SUB AND PUSH2 0x237E JUMP JUMPDEST CALLVALUE DUP1 ISZERO PUSH2 0xB2C JUMPI PUSH1 0x0 DUP1 REVERT JUMPDEST POP PUSH2 0x1E6 PUSH1 0x4 DUP1 CALLDATASIZE SUB PUSH1 0x40 DUP2 LT ISZERO PUSH2 0xB43 JUMPI PUSH1 0x0 DUP1 REVERT JUMPDEST POP PUSH1 0x1 PUSH1 0x1 PUSH1 0xA0 SHL SUB DUP2 CALLDATALOAD AND SWAP1 PUSH1 0x20 ADD CALLDATALOAD PUSH2 0x2392 JUMP JUMPDEST CALLVALUE DUP1 ISZERO PUSH2 0xB65 JUMPI PUSH1 0x0 DUP1 REVERT JUMPDEST POP PUSH2 0x607 PUSH1 0x4 DUP1 CALLDATASIZE SUB PUSH1 0x20 DUP2 LT ISZERO PUSH2 0xB7C JUMPI PUSH1 0x0 DUP1 REVERT JUMPDEST POP CALLDATALOAD PUSH1 0x1 PUSH1 0x1 PUSH1 0xA0 SHL SUB AND PUSH2 0x248A JUMP JUMPDEST CALLVALUE DUP1 ISZERO PUSH2 0xB98 JUMPI PUSH1 0x0 DUP1 REVERT JUMPDEST POP PUSH2 0x1E6 PUSH1 0x4 DUP1 CALLDATASIZE SUB PUSH1 0x40 DUP2 LT ISZERO PUSH2 0xBAF JUMPI PUSH1 0x0 DUP1 REVERT JUMPDEST DUP2 ADD SWAP1 PUSH1 0x20 DUP2 ADD DUP2 CALLDATALOAD PUSH1 0x1 PUSH1 0x20 SHL DUP2 GT ISZERO PUSH2 0xBC9 JUMPI PUSH1 0x0 DUP1 REVERT JUMPDEST DUP3 ADD DUP4 PUSH1 0x20 DUP3 ADD GT ISZERO PUSH2 0xBDB JUMPI PUSH1 0x0 DUP1 REVERT JUMPDEST DUP1 CALLDATALOAD SWAP1 PUSH1 0x20 ADD SWAP2 DUP5 PUSH1 0x20 DUP4 MUL DUP5 ADD GT PUSH1 0x1 PUSH1 0x20 SHL DUP4 GT OR ISZERO PUSH2 0xBFC JUMPI PUSH1 0x0 DUP1 REVERT JUMPDEST SWAP2 SWAP4 SWAP1 SWAP3 SWAP1 SWAP2 PUSH1 0x20 DUP2 ADD SWAP1 CALLDATALOAD PUSH1 0x1 PUSH1 0x20 SHL DUP2 GT ISZERO PUSH2 0xC19 JUMPI PUSH1 0x0 DUP1 REVERT JUMPDEST DUP3 ADD DUP4 PUSH1 0x20 DUP3 ADD GT ISZERO PUSH2 0xC2B JUMPI PUSH1 0x0 DUP1 REVERT JUMPDEST DUP1 CALLDATALOAD SWAP1 PUSH1 0x20 ADD SWAP2 DUP5 PUSH1 0x20 DUP4 MUL DUP5 ADD GT PUSH1 0x1 PUSH1 0x20 SHL DUP4 GT OR ISZERO PUSH2 0xC4C JUMPI PUSH1 0x0 DUP1 REVERT JUMPDEST POP SWAP1 SWAP3 POP SWAP1 POP PUSH2 0x24A8 JUMP JUMPDEST PUSH2 0xC5F PUSH2 0x2652 JUMP JUMPDEST PUSH2 0xC9E JUMPI PUSH1 0x40 DUP1 MLOAD PUSH3 0x461BCD PUSH1 0xE5 SHL DUP2 MSTORE PUSH1 0x20 PUSH1 0x4 DUP3 ADD MSTORE PUSH1 0x1D PUSH1 0x24 DUP3 ADD MSTORE PUSH1 0x0 DUP1 MLOAD PUSH1 0x20 PUSH2 0x2E40 DUP4 CODECOPY DUP2 MLOAD SWAP2 MSTORE PUSH1 0x44 DUP3 ADD MSTORE SWAP1 MLOAD SWAP1 DUP2 SWAP1 SUB PUSH1 0x64 ADD SWAP1 REVERT JUMPDEST PUSH1 0x0 JUMPDEST DUP2 DUP2 LT ISZERO PUSH2 0xDCD JUMPI PUSH1 0x1 PUSH1 0x5 PUSH1 0x0 DUP6 DUP6 DUP6 DUP2 DUP2 LT PUSH2 0xCBB JUMPI INVALID JUMPDEST SWAP1 POP PUSH1 0x20 MUL ADD CALLDATALOAD PUSH1 0x1 PUSH1 0x1 PUSH1 0xA0 SHL SUB AND PUSH1 0x1 PUSH1 0x1 PUSH1 0xA0 SHL SUB AND PUSH1 0x1 PUSH1 0x1 PUSH1 0xA0 SHL SUB AND DUP2 MSTORE PUSH1 0x20 ADD SWAP1 DUP2 MSTORE PUSH1 0x20 ADD PUSH1 0x0 KECCAK256 PUSH1 0x0 PUSH2 0x100 EXP DUP2 SLOAD DUP2 PUSH1 0xFF MUL NOT AND SWAP1 DUP4 ISZERO ISZERO MUL OR SWAP1 SSTORE POP DUP3 DUP3 DUP3 DUP2 DUP2 LT PUSH2 0xD0E JUMPI INVALID JUMPDEST SWAP1 POP PUSH1 0x20 MUL ADD CALLDATALOAD PUSH1 0x1 PUSH1 0x1 PUSH1 0xA0 SHL SUB AND PUSH1 0x1 PUSH1 0x1 PUSH1 0xA0 SHL SUB AND PUSH32 0x615A0C1CB00A60D4ACD77EC67ACF2F17F223EF0932D591052FABC33643FE7E82 PUSH1 0x40 MLOAD PUSH1 0x40 MLOAD DUP1 SWAP2 SUB SWAP1 LOG2 DUP3 DUP3 DUP3 DUP2 DUP2 LT PUSH2 0xD5F JUMPI INVALID JUMPDEST SWAP1 POP PUSH1 0x20 MUL ADD CALLDATALOAD PUSH1 0x1 PUSH1 0x1 PUSH1 0xA0 SHL SUB AND PUSH1 0x1 PUSH1 0x1 PUSH1 0xA0 SHL SUB AND PUSH4 0x79BA5097 PUSH1 0x40 MLOAD DUP2 PUSH4 0xFFFFFFFF AND PUSH1 0xE0 SHL DUP2 MSTORE PUSH1 0x4 ADD PUSH1 0x0 PUSH1 0x40 MLOAD DUP1 DUP4 SUB DUP2 PUSH1 0x0 DUP8 DUP1 EXTCODESIZE ISZERO DUP1 ISZERO PUSH2 0xDA9 JUMPI PUSH1 0x0 DUP1 REVERT JUMPDEST POP GAS CALL ISZERO DUP1 ISZERO PUSH2 0xDBD JUMPI RETURNDATASIZE PUSH1 0x0 DUP1 RETURNDATACOPY RETURNDATASIZE PUSH1 0x0 REVERT JUMPDEST POP POP PUSH1 0x1 SWAP1 SWAP3 ADD SWAP2 POP PUSH2 0xCA1 SWAP1 POP JUMP JUMPDEST POP POP POP JUMP JUMPDEST PUSH2 0xDDA PUSH2 0x267B JUMP JUMPDEST DUP3 PUSH32 0x0 PUSH1 0x1 PUSH1 0x1 PUSH1 0xA0 SHL SUB AND DUP2 PUSH1 0x1 PUSH1 0x1 PUSH1 0xA0 SHL SUB AND EQ ISZERO PUSH2 0xE58 JUMPI PUSH1 0x40 DUP1 MLOAD PUSH3 0x461BCD PUSH1 0xE5 SHL DUP2 MSTORE PUSH1 0x20 PUSH1 0x4 DUP3 ADD MSTORE PUSH1 0x13 PUSH1 0x24 DUP3 ADD MSTORE PUSH19 0x43616E6E6F742063616C6C20746F204C494E4B PUSH1 0x68 SHL PUSH1 0x44 DUP3 ADD MSTORE SWAP1 MLOAD SWAP1 DUP2 SWAP1 SUB PUSH1 0x64 ADD SWAP1 REVERT JUMPDEST PUSH2 0xE6A DUP5 PUSH1 0x1 PUSH1 0x1 PUSH1 0xA0 SHL SUB AND PUSH2 0x26D5 JUMP JUMPDEST PUSH2 0xEBB JUMPI PUSH1 0x40 DUP1 MLOAD PUSH3 0x461BCD PUSH1 0xE5 SHL DUP2 MSTORE PUSH1 0x20 PUSH1 0x4 DUP3 ADD MSTORE PUSH1 0x1A PUSH1 0x24 DUP3 ADD MSTORE PUSH32 0x4D75737420666F727761726420746F206120636F6E7472616374000000000000 PUSH1 0x44 DUP3 ADD MSTORE SWAP1 MLOAD SWAP1 DUP2 SWAP1 SUB PUSH1 0x64 ADD SWAP1 REVERT JUMPDEST PUSH1 0x0 DUP5 PUSH1 0x1 PUSH1 0x1 PUSH1 0xA0 SHL SUB AND DUP5 DUP5 PUSH1 0x40 MLOAD DUP1 DUP4 DUP4 DUP1 DUP3 DUP5 CALLDATACOPY PUSH1 0x40 MLOAD SWAP3 ADD SWAP5 POP PUSH1 0x0 SWAP4 POP SWAP1 SWAP2 POP POP DUP1 DUP4 SUB DUP2 DUP4 DUP7 GAS CALL SWAP2 POP POP RETURNDATASIZE DUP1 PUSH1 0x0 DUP2 EQ PUSH2 0xF19 JUMPI PUSH1 0x40 MLOAD SWAP2 POP PUSH1 0x1F NOT PUSH1 0x3F RETURNDATASIZE ADD AND DUP3 ADD PUSH1 0x40 MSTORE RETURNDATASIZE DUP3 MSTORE RETURNDATASIZE PUSH1 0x0 PUSH1 0x20 DUP5 ADD RETURNDATACOPY PUSH2 0xF1E JUMP JUMPDEST PUSH1 0x60 SWAP2 POP JUMPDEST POP POP SWAP1 POP DUP1 PUSH2 0xF6C JUMPI PUSH1 0x40 DUP1 MLOAD PUSH3 0x461BCD PUSH1 0xE5 SHL DUP2 MSTORE PUSH1 0x20 PUSH1 0x4 DUP3 ADD MSTORE PUSH1 0x15 PUSH1 0x24 DUP3 ADD MSTORE PUSH21 0x119BDC9DD85C9919590818D85B1B0819985A5B1959 PUSH1 0x5A SHL PUSH1 0x44 DUP3 ADD MSTORE SWAP1 MLOAD SWAP1 DUP2 SWAP1 SUB PUSH1 0x64 ADD SWAP1 REVERT JUMPDEST POP POP POP POP POP JUMP JUMPDEST PUSH32 0x0 SWAP1 JUMP JUMPDEST PUSH1 0x40 DUP1 MLOAD DUP1 DUP3 ADD SWAP1 SWAP2 MSTORE PUSH1 0xE DUP2 MSTORE PUSH14 0x4F70657261746F7220312E302E3 PUSH1 0x94 SHL PUSH1 0x20 DUP3 ADD MSTORE SWAP1 JUMP JUMPDEST PUSH1 0x60 PUSH1 0x1 DUP1 SLOAD DUP1 PUSH1 0x20 MUL PUSH1 0x20 ADD PUSH1 0x40 MLOAD SWAP1 DUP2 ADD PUSH1 0x40 MSTORE DUP1 SWAP3 SWAP2 SWAP1 DUP2 DUP2 MSTORE PUSH1 0x20 ADD DUP3 DUP1 SLOAD DUP1 ISZERO PUSH2 0x1017 JUMPI PUSH1 0x20 MUL DUP3 ADD SWAP2 SWAP1 PUSH1 0x0 MSTORE PUSH1 0x20 PUSH1 0x0 KECCAK256 SWAP1 JUMPDEST DUP2 SLOAD PUSH1 0x1 PUSH1 0x1 PUSH1 0xA0 SHL SUB AND DUP2 MSTORE PUSH1 0x1 SWAP1 SWAP2 ADD SWAP1 PUSH1 0x20 ADD DUP1 DUP4 GT PUSH2 0xFF9 JUMPI JUMPDEST POP POP POP POP POP SWAP1 POP SWAP1 JUMP JUMPDEST PUSH2 0x12C DUP2 JUMP JUMPDEST PUSH2 0x102F PUSH2 0xF73 JUMP JUMPDEST PUSH1 0x1 PUSH1 0x1 PUSH1 0xA0 SHL SUB AND CALLER PUSH1 0x1 PUSH1 0x1 PUSH1 0xA0 SHL SUB AND EQ PUSH2 0x108A JUMPI PUSH1 0x40 DUP1 MLOAD PUSH3 0x461BCD PUSH1 0xE5 SHL DUP2 MSTORE PUSH1 0x20 PUSH1 0x4 DUP3 ADD MSTORE PUSH1 0x13 PUSH1 0x24 DUP3 ADD MSTORE PUSH19 0x26BAB9BA103AB9B2902624A725903A37B5B2B7 PUSH1 0x69 SHL PUSH1 0x44 DUP3 ADD MSTORE SWAP1 MLOAD SWAP1 DUP2 SWAP1 SUB PUSH1 0x64 ADD SWAP1 REVERT JUMPDEST PUSH1 0x0 DUP1 PUSH2 0x109B DUP11 DUP11 DUP13 DUP11 DUP11 DUP11 PUSH2 0x26DB JUMP JUMPDEST SWAP2 POP SWAP2 POP DUP8 PUSH32 0xD8D7ECC4800D25FA53CE0372F13A416D98907A7EF3D8D3BDD79CF4FE75529C65 DUP12 DUP5 DUP13 DUP15 DUP13 DUP8 DUP13 DUP13 DUP13 PUSH1 0x40 MLOAD DUP1 DUP11 PUSH1 0x1 PUSH1 0x1 PUSH1 0xA0 SHL SUB AND DUP2 MSTORE PUSH1 0x20 ADD DUP10 DUP2 MSTORE PUSH1 0x20 ADD DUP9 DUP2 MSTORE PUSH1 0x20 ADD DUP8 PUSH1 0x1 PUSH1 0x1 PUSH1 0xA0 SHL SUB AND DUP2 MSTORE PUSH1 0x20 ADD DUP7 PUSH1 0x1 PUSH1 0x1 PUSH1 0xE0 SHL SUB NOT AND DUP2 MSTORE PUSH1 0x20 ADD DUP6 DUP2 MSTORE PUSH1 0x20 ADD DUP5 DUP2 MSTORE PUSH1 0x20 ADD DUP1 PUSH1 0x20 ADD DUP3 DUP2 SUB DUP3 MSTORE DUP5 DUP5 DUP3 DUP2 DUP2 MSTORE PUSH1 0x20 ADD SWAP3 POP DUP1 DUP3 DUP5 CALLDATACOPY PUSH1 0x0 DUP4 DUP3 ADD MSTORE PUSH1 0x40 MLOAD PUSH1 0x1F SWAP1 SWAP2 ADD PUSH1 0x1F NOT AND SWAP1 SWAP3 ADD DUP3 SWAP1 SUB SWAP13 POP SWAP1 SWAP11 POP POP POP POP POP POP POP POP POP POP POP LOG2 POP POP POP POP POP POP POP POP POP POP JUMP JUMPDEST PUSH2 0x1168 PUSH2 0x267B JUMP JUMPDEST PUSH1 0x0 JUMPDEST DUP3 DUP2 LT ISZERO PUSH2 0x125A JUMPI PUSH1 0x0 PUSH1 0x5 PUSH1 0x0 DUP7 DUP7 DUP6 DUP2 DUP2 LT PUSH2 0x1185 JUMPI INVALID JUMPDEST SWAP1 POP PUSH1 0x20 MUL ADD CALLDATALOAD PUSH1 0x1 PUSH1 0x1 PUSH1 0xA0 SHL SUB AND PUSH1 0x1 PUSH1 0x1 PUSH1 0xA0 SHL SUB AND PUSH1 0x1 PUSH1 0x1 PUSH1 0xA0 SHL SUB AND DUP2 MSTORE PUSH1 0x20 ADD SWAP1 DUP2 MSTORE PUSH1 0x20 ADD PUSH1 0x0 KECCAK256 PUSH1 0x0 PUSH2 0x100 EXP DUP2 SLOAD DUP2 PUSH1 0xFF MUL NOT AND SWAP1 DUP4 ISZERO ISZERO MUL OR SWAP1 SSTORE POP DUP4 DUP4 DUP3 DUP2 DUP2 LT PUSH2 0x11D8 JUMPI INVALID JUMPDEST SWAP1 POP PUSH1 0x20 MUL ADD CALLDATALOAD PUSH1 0x1 PUSH1 0x1 PUSH1 0xA0 SHL SUB AND PUSH1 0x1 PUSH1 0x1 PUSH1 0xA0 SHL SUB AND PUSH4 0xF2FDE38B DUP4 PUSH1 0x40 MLOAD DUP3 PUSH4 0xFFFFFFFF AND PUSH1 0xE0 SHL DUP2 MSTORE PUSH1 0x4 ADD DUP1 DUP3 PUSH1 0x1 PUSH1 0x1 PUSH1 0xA0 SHL SUB AND DUP2 MSTORE PUSH1 0x20 ADD SWAP2 POP POP PUSH1 0x0 PUSH1 0x40 MLOAD DUP1 DUP4 SUB DUP2 PUSH1 0x0 DUP8 DUP1 EXTCODESIZE ISZERO DUP1 ISZERO PUSH2 0x1236 JUMPI PUSH1 0x0 DUP1 REVERT JUMPDEST POP GAS CALL ISZERO DUP1 ISZERO PUSH2 0x124A JUMPI RETURNDATASIZE PUSH1 0x0 DUP1 RETURNDATACOPY RETURNDATASIZE PUSH1 0x0 REVERT JUMPDEST POP POP PUSH1 0x1 SWAP1 SWAP3 ADD SWAP2 POP PUSH2 0x116B SWAP1 POP JUMP JUMPDEST POP POP POP POP JUMP JUMPDEST PUSH2 0x1268 PUSH2 0xF73 JUMP JUMPDEST PUSH1 0x1 PUSH1 0x1 PUSH1 0xA0 SHL SUB AND CALLER PUSH1 0x1 PUSH1 0x1 PUSH1 0xA0 SHL SUB AND EQ PUSH2 0x12C3 JUMPI PUSH1 0x40 DUP1 MLOAD PUSH3 0x461BCD PUSH1 0xE5 SHL DUP2 MSTORE PUSH1 0x20 PUSH1 0x4 DUP3 ADD MSTORE PUSH1 0x13 PUSH1 0x24 DUP3 ADD MSTORE PUSH19 0x26BAB9BA103AB9B2902624A725903A37B5B2B7 PUSH1 0x69 SHL PUSH1 0x44 DUP3 ADD MSTORE SWAP1 MLOAD SWAP1 DUP2 SWAP1 SUB PUSH1 0x64 ADD SWAP1 REVERT JUMPDEST PUSH1 0x0 DUP1 PUSH2 0x12D4 DUP12 DUP12 DUP11 DUP11 DUP11 DUP11 PUSH2 0x26DB JUMP JUMPDEST SWAP2 POP SWAP2 POP DUP9 PUSH32 0xD8D7ECC4800D25FA53CE0372F13A416D98907A7EF3D8D3BDD79CF4FE75529C65 DUP13 DUP5 DUP14 DUP16 DUP13 DUP8 DUP13 DUP13 DUP13 PUSH1 0x40 MLOAD DUP1 DUP11 PUSH1 0x1 PUSH1 0x1 PUSH1 0xA0 SHL SUB AND DUP2 MSTORE PUSH1 0x20 ADD DUP10 DUP2 MSTORE PUSH1 0x20 ADD DUP9 DUP2 MSTORE PUSH1 0x20 ADD DUP8 PUSH1 0x1 PUSH1 0x1 PUSH1 0xA0 SHL SUB AND DUP2 MSTORE PUSH1 0x20 ADD DUP7 PUSH1 0x1 PUSH1 0x1 PUSH1 0xE0 SHL SUB NOT AND DUP2 MSTORE PUSH1 0x20 ADD DUP6 DUP2 MSTORE PUSH1 0x20 ADD DUP5 DUP2 MSTORE PUSH1 0x20 ADD DUP1 PUSH1 0x20 ADD DUP3 DUP2 SUB DUP3 MSTORE DUP5 DUP5 DUP3 DUP2 DUP2 MSTORE PUSH1 0x20 ADD SWAP3 POP DUP1 DUP3 DUP5 CALLDATACOPY PUSH1 0x0 DUP4 DUP3 ADD MSTORE PUSH1 0x40 MLOAD PUSH1 0x1F SWAP1 SWAP2 ADD PUSH1 0x1F NOT AND SWAP1 SWAP3 ADD DUP3 SWAP1 SUB SWAP13 POP SWAP1 SWAP11 POP POP POP POP POP POP POP POP POP POP POP LOG2 POP POP POP POP POP POP POP POP POP POP POP JUMP JUMPDEST PUSH1 0x0 PUSH2 0x13A4 PUSH2 0x28A9 JUMP JUMPDEST PUSH1 0x0 DUP8 DUP2 MSTORE PUSH1 0x4 PUSH1 0x20 MSTORE PUSH1 0x40 SWAP1 KECCAK256 SLOAD DUP8 SWAP1 PUSH1 0x8 SHL PUSH1 0xFF NOT AND PUSH2 0x140D JUMPI PUSH1 0x40 DUP1 MLOAD PUSH3 0x461BCD PUSH1 0xE5 SHL DUP2 MSTORE PUSH1 0x20 PUSH1 0x4 DUP3 ADD MSTORE PUSH1 0x1B PUSH1 0x24 DUP3 ADD MSTORE PUSH32 0x4D757374206861766520612076616C6964207265717565737449640000000000 PUSH1 0x44 DUP3 ADD MSTORE SWAP1 MLOAD SWAP1 DUP2 SWAP1 SUB PUSH1 0x64 ADD SWAP1 REVERT JUMPDEST PUSH1 0x1 PUSH1 0x1 PUSH1 0xA0 SHL SUB DUP7 AND PUSH1 0x0 SWAP1 DUP2 MSTORE PUSH1 0x5 PUSH1 0x20 MSTORE PUSH1 0x40 SWAP1 KECCAK256 SLOAD DUP7 SWAP1 PUSH1 0xFF AND ISZERO PUSH2 0x147D JUMPI PUSH1 0x40 DUP1 MLOAD PUSH3 0x461BCD PUSH1 0xE5 SHL DUP2 MSTORE PUSH1 0x20 PUSH1 0x4 DUP3 ADD MSTORE PUSH1 0x1A PUSH1 0x24 DUP3 ADD MSTORE PUSH32 0x43616E6E6F742063616C6C206F776E656420636F6E7472616374000000000000 PUSH1 0x44 DUP3 ADD MSTORE SWAP1 MLOAD SWAP1 DUP2 SWAP1 SUB PUSH1 0x64 ADD SWAP1 REVERT JUMPDEST PUSH2 0x148C DUP10 DUP10 DUP10 DUP10 DUP10 PUSH1 0x1 PUSH2 0x28FB JUMP JUMPDEST PUSH1 0x40 MLOAD DUP10 SWAP1 PUSH32 0x9E9BC7616D42C2835D05AE617E508454E63B30B934BE8AA932EBC125E0E58A64 SWAP1 PUSH1 0x0 SWAP1 LOG2 PUSH3 0x61A80 GAS LT ISZERO PUSH2 0x150F JUMPI PUSH1 0x40 DUP1 MLOAD PUSH3 0x461BCD PUSH1 0xE5 SHL DUP2 MSTORE PUSH1 0x20 PUSH1 0x4 DUP3 ADD DUP2 SWAP1 MSTORE PUSH1 0x24 DUP3 ADD MSTORE PUSH32 0x4D7573742070726F7669646520636F6E73756D657220656E6F75676820676173 PUSH1 0x44 DUP3 ADD MSTORE SWAP1 MLOAD SWAP1 DUP2 SWAP1 SUB PUSH1 0x64 ADD SWAP1 REVERT JUMPDEST PUSH1 0x40 DUP1 MLOAD PUSH1 0x24 DUP2 ADD DUP12 SWAP1 MSTORE PUSH1 0x44 DUP1 DUP3 ADD DUP8 SWAP1 MSTORE DUP3 MLOAD DUP1 DUP4 SUB SWAP1 SWAP2 ADD DUP2 MSTORE PUSH1 0x64 SWAP1 SWAP2 ADD DUP3 MSTORE PUSH1 0x20 DUP2 ADD DUP1 MLOAD PUSH1 0x1 PUSH1 0x1 PUSH1 0xE0 SHL SUB AND PUSH1 0x1 PUSH1 0x1 PUSH1 0xE0 SHL SUB NOT DUP11 AND OR DUP2 MSTORE SWAP2 MLOAD DUP2 MLOAD PUSH1 0x0 SWAP4 PUSH1 0x1 PUSH1 0x1 PUSH1 0xA0 SHL SUB DUP13 AND SWAP4 SWAP3 SWAP2 DUP3 SWAP2 SWAP1 DUP1 DUP4 DUP4 JUMPDEST PUSH1 0x20 DUP4 LT PUSH2 0x158A JUMPI DUP1 MLOAD DUP3 MSTORE PUSH1 0x1F NOT SWAP1 SWAP3 ADD SWAP2 PUSH1 0x20 SWAP2 DUP3 ADD SWAP2 ADD PUSH2 0x156B JUMP JUMPDEST PUSH1 0x1 DUP4 PUSH1 0x20 SUB PUSH2 0x100 EXP SUB DUP1 NOT DUP3 MLOAD AND DUP2 DUP5 MLOAD AND DUP1 DUP3 OR DUP6 MSTORE POP POP POP POP POP POP SWAP1 POP ADD SWAP2 POP POP PUSH1 0x0 PUSH1 0x40 MLOAD DUP1 DUP4 SUB DUP2 PUSH1 0x0 DUP7 GAS CALL SWAP2 POP POP RETURNDATASIZE DUP1 PUSH1 0x0 DUP2 EQ PUSH2 0x15EC JUMPI PUSH1 0x40 MLOAD SWAP2 POP PUSH1 0x1F NOT PUSH1 0x3F RETURNDATASIZE ADD AND DUP3 ADD PUSH1 0x40 MSTORE RETURNDATASIZE DUP3 MSTORE RETURNDATASIZE PUSH1 0x0 PUSH1 0x20 DUP5 ADD RETURNDATACOPY PUSH2 0x15F1 JUMP JUMPDEST PUSH1 0x60 SWAP2 POP JUMPDEST POP SWAP1 SWAP12 SWAP11 POP POP POP POP POP POP POP POP POP POP POP JUMP JUMPDEST PUSH1 0x0 PUSH2 0x160C PUSH2 0x2A1B JUMP JUMPDEST SWAP1 POP SWAP1 JUMP JUMPDEST PUSH2 0x1619 PUSH2 0x2652 JUMP JUMPDEST PUSH2 0x1658 JUMPI PUSH1 0x40 DUP1 MLOAD PUSH3 0x461BCD PUSH1 0xE5 SHL DUP2 MSTORE PUSH1 0x20 PUSH1 0x4 DUP3 ADD MSTORE PUSH1 0x1D PUSH1 0x24 DUP3 ADD MSTORE PUSH1 0x0 DUP1 MLOAD PUSH1 0x20 PUSH2 0x2E40 DUP4 CODECOPY DUP2 MLOAD SWAP2 MSTORE PUSH1 0x44 DUP3 ADD MSTORE SWAP1 MLOAD SWAP1 DUP2 SWAP1 SUB PUSH1 0x64 ADD SWAP1 REVERT JUMPDEST PUSH2 0x1662 DUP5 DUP5 PUSH2 0xC57 JUMP JUMPDEST PUSH2 0x125A DUP5 DUP5 DUP5 DUP5 PUSH2 0x24A8 JUMP JUMPDEST PUSH1 0x0 PUSH2 0x1678 PUSH2 0x28A9 JUMP JUMPDEST PUSH1 0x0 DUP9 DUP2 MSTORE PUSH1 0x4 PUSH1 0x20 MSTORE PUSH1 0x40 SWAP1 KECCAK256 SLOAD DUP9 SWAP1 PUSH1 0x8 SHL PUSH1 0xFF NOT AND PUSH2 0x16E1 JUMPI PUSH1 0x40 DUP1 MLOAD PUSH3 0x461BCD PUSH1 0xE5 SHL DUP2 MSTORE PUSH1 0x20 PUSH1 0x4 DUP3 ADD MSTORE PUSH1 0x1B PUSH1 0x24 DUP3 ADD MSTORE PUSH32 0x4D757374206861766520612076616C6964207265717565737449640000000000 PUSH1 0x44 DUP3 ADD MSTORE SWAP1 MLOAD SWAP1 DUP2 SWAP1 SUB PUSH1 0x64 ADD SWAP1 REVERT JUMPDEST PUSH1 0x1 PUSH1 0x1 PUSH1 0xA0 SHL SUB DUP8 AND PUSH1 0x0 SWAP1 DUP2 MSTORE PUSH1 0x5 PUSH1 0x20 MSTORE PUSH1 0x40 SWAP1 KECCAK256 SLOAD DUP8 SWAP1 PUSH1 0xFF AND ISZERO PUSH2 0x1751 JUMPI PUSH1 0x40 DUP1 MLOAD PUSH3 0x461BCD PUSH1 0xE5 SHL DUP2 MSTORE PUSH1 0x20 PUSH1 0x4 DUP3 ADD MSTORE PUSH1 0x1A PUSH1 0x24 DUP3 ADD MSTORE PUSH32 0x43616E6E6F742063616C6C206F776E656420636F6E7472616374000000000000 PUSH1 0x44 DUP3 ADD MSTORE SWAP1 MLOAD SWAP1 DUP2 SWAP1 SUB PUSH1 0x64 ADD SWAP1 REVERT JUMPDEST DUP10 DUP6 DUP6 PUSH1 0x20 DUP2 LT ISZERO PUSH2 0x17AA JUMPI PUSH1 0x40 DUP1 MLOAD PUSH3 0x461BCD PUSH1 0xE5 SHL DUP2 MSTORE PUSH1 0x20 PUSH1 0x4 DUP3 ADD MSTORE PUSH1 0x1B PUSH1 0x24 DUP3 ADD MSTORE PUSH32 0x526573706F6E7365206D757374206265203E2033322062797465730000000000 PUSH1 0x44 DUP3 ADD MSTORE SWAP1 MLOAD SWAP1 DUP2 SWAP1 SUB PUSH1 0x64 ADD SWAP1 REVERT JUMPDEST DUP2 CALLDATALOAD DUP4 DUP2 EQ PUSH2 0x1800 JUMPI PUSH1 0x40 DUP1 MLOAD PUSH3 0x461BCD PUSH1 0xE5 SHL DUP2 MSTORE PUSH1 0x20 PUSH1 0x4 DUP3 ADD MSTORE PUSH1 0x1C PUSH1 0x24 DUP3 ADD MSTORE PUSH32 0x466972737420776F7264206D7573742062652072657175657374496400000000 PUSH1 0x44 DUP3 ADD MSTORE SWAP1 MLOAD SWAP1 DUP2 SWAP1 SUB PUSH1 0x64 ADD SWAP1 REVERT JUMPDEST PUSH2 0x180F DUP15 DUP15 DUP15 DUP15 DUP15 PUSH1 0x2 PUSH2 0x28FB JUMP JUMPDEST PUSH1 0x40 MLOAD DUP15 SWAP1 PUSH32 0x9E9BC7616D42C2835D05AE617E508454E63B30B934BE8AA932EBC125E0E58A64 SWAP1 PUSH1 0x0 SWAP1 LOG2 PUSH3 0x61A80 GAS LT ISZERO PUSH2 0x1892 JUMPI PUSH1 0x40 DUP1 MLOAD PUSH3 0x461BCD PUSH1 0xE5 SHL DUP2 MSTORE PUSH1 0x20 PUSH1 0x4 DUP3 ADD DUP2 SWAP1 MSTORE PUSH1 0x24 DUP3 ADD MSTORE PUSH32 0x4D7573742070726F7669646520636F6E73756D657220656E6F75676820676173 PUSH1 0x44 DUP3 ADD MSTORE SWAP1 MLOAD SWAP1 DUP2 SWAP1 SUB PUSH1 0x64 ADD SWAP1 REVERT JUMPDEST PUSH1 0x0 DUP13 PUSH1 0x1 PUSH1 0x1 PUSH1 0xA0 SHL SUB AND DUP13 DUP12 DUP12 PUSH1 0x40 MLOAD PUSH1 0x20 ADD DUP1 DUP5 PUSH1 0x1 PUSH1 0x1 PUSH1 0xE0 SHL SUB NOT AND DUP2 MSTORE PUSH1 0x4 ADD DUP4 DUP4 DUP1 DUP3 DUP5 CALLDATACOPY DUP1 DUP4 ADD SWAP3 POP POP POP SWAP4 POP POP POP POP PUSH1 0x40 MLOAD PUSH1 0x20 DUP2 DUP4 SUB SUB DUP2 MSTORE SWAP1 PUSH1 0x40 MSTORE PUSH1 0x40 MLOAD DUP1 DUP3 DUP1 MLOAD SWAP1 PUSH1 0x20 ADD SWAP1 DUP1 DUP4 DUP4 JUMPDEST PUSH1 0x20 DUP4 LT PUSH2 0x1908 JUMPI DUP1 MLOAD DUP3 MSTORE PUSH1 0x1F NOT SWAP1 SWAP3 ADD SWAP2 PUSH1 0x20 SWAP2 DUP3 ADD SWAP2 ADD PUSH2 0x18E9 JUMP JUMPDEST PUSH1 0x1 DUP4 PUSH1 0x20 SUB PUSH2 0x100 EXP SUB DUP1 NOT DUP3 MLOAD AND DUP2 DUP5 MLOAD AND DUP1 DUP3 OR DUP6 MSTORE POP POP POP POP POP POP SWAP1 POP ADD SWAP2 POP POP PUSH1 0x0 PUSH1 0x40 MLOAD DUP1 DUP4 SUB DUP2 PUSH1 0x0 DUP7 GAS CALL SWAP2 POP POP RETURNDATASIZE DUP1 PUSH1 0x0 DUP2 EQ PUSH2 0x196A JUMPI PUSH1 0x40 MLOAD SWAP2 POP PUSH1 0x1F NOT PUSH1 0x3F RETURNDATASIZE ADD AND DUP3 ADD PUSH1 0x40 MSTORE RETURNDATASIZE DUP3 MSTORE RETURNDATASIZE PUSH1 0x0 PUSH1 0x20 DUP5 ADD RETURNDATACOPY PUSH2 0x196F JUMP JUMPDEST PUSH1 0x60 SWAP2 POP JUMPDEST POP SWAP1 SWAP9 POP POP POP POP POP POP POP POP POP SWAP8 SWAP7 POP POP POP POP POP POP POP JUMP JUMPDEST DUP3 ISZERO DUP1 ISZERO SWAP1 PUSH2 0x1994 JUMPI POP DUP3 DUP2 EQ JUMPDEST PUSH2 0x19E5 JUMPI PUSH1 0x40 DUP1 MLOAD PUSH3 0x461BCD PUSH1 0xE5 SHL DUP2 MSTORE PUSH1 0x20 PUSH1 0x4 DUP3 ADD MSTORE PUSH1 0x17 PUSH1 0x24 DUP3 ADD MSTORE PUSH32 0x496E76616C6964206172726179206C656E677468287329000000000000000000 PUSH1 0x44 DUP3 ADD MSTORE SWAP1 MLOAD SWAP1 DUP2 SWAP1 SUB PUSH1 0x64 ADD SWAP1 REVERT JUMPDEST CALLVALUE PUSH1 0x0 JUMPDEST DUP5 DUP2 LT ISZERO PUSH2 0x1A7B JUMPI PUSH1 0x0 DUP5 DUP5 DUP4 DUP2 DUP2 LT PUSH2 0x19FF JUMPI INVALID JUMPDEST SWAP1 POP PUSH1 0x20 MUL ADD CALLDATALOAD SWAP1 POP PUSH2 0x1A1B DUP2 DUP5 PUSH2 0x2ADF SWAP1 SWAP2 SWAP1 PUSH4 0xFFFFFFFF AND JUMP JUMPDEST SWAP3 POP DUP7 DUP7 DUP4 DUP2 DUP2 LT PUSH2 0x1A29 JUMPI INVALID JUMPDEST SWAP1 POP PUSH1 0x20 MUL ADD CALLDATALOAD PUSH1 0x1 PUSH1 0x1 PUSH1 0xA0 SHL SUB AND PUSH1 0x1 PUSH1 0x1 PUSH1 0xA0 SHL SUB AND PUSH2 0x8FC DUP3 SWAP1 DUP2 ISZERO MUL SWAP1 PUSH1 0x40 MLOAD PUSH1 0x0 PUSH1 0x40 MLOAD DUP1 DUP4 SUB DUP2 DUP6 DUP9 DUP9 CALL SWAP4 POP POP POP POP ISZERO DUP1 ISZERO PUSH2 0x1A71 JUMPI RETURNDATASIZE PUSH1 0x0 DUP1 RETURNDATACOPY RETURNDATASIZE PUSH1 0x0 REVERT JUMPDEST POP POP PUSH1 0x1 ADD PUSH2 0x19E9 JUMP JUMPDEST POP DUP1 ISZERO PUSH2 0xF6C JUMPI PUSH1 0x40 DUP1 MLOAD PUSH3 0x461BCD PUSH1 0xE5 SHL DUP2 MSTORE PUSH1 0x20 PUSH1 0x4 DUP3 ADD MSTORE PUSH1 0x11 PUSH1 0x24 DUP3 ADD MSTORE PUSH17 0x151BDBC81B5D58DA08115512081CD95B9D PUSH1 0x7A SHL PUSH1 0x44 DUP3 ADD MSTORE SWAP1 MLOAD SWAP1 DUP2 SWAP1 SUB PUSH1 0x64 ADD SWAP1 REVERT JUMPDEST PUSH1 0x0 PUSH2 0x1AD1 DUP5 CALLER DUP6 DUP6 PUSH2 0x2B3C JUMP JUMPDEST PUSH1 0x0 DUP7 DUP2 MSTORE PUSH1 0x4 PUSH1 0x20 MSTORE PUSH1 0x40 SWAP1 KECCAK256 SLOAD SWAP1 SWAP2 POP PUSH1 0x8 SHL PUSH1 0xFF NOT SWAP1 DUP2 AND SWAP1 DUP3 AND EQ PUSH2 0x1B41 JUMPI PUSH1 0x40 DUP1 MLOAD PUSH3 0x461BCD PUSH1 0xE5 SHL DUP2 MSTORE PUSH1 0x20 PUSH1 0x4 DUP3 ADD MSTORE PUSH1 0x1E PUSH1 0x24 DUP3 ADD MSTORE PUSH32 0x506172616D7320646F206E6F74206D6174636820726571756573742049440000 PUSH1 0x44 DUP3 ADD MSTORE SWAP1 MLOAD SWAP1 DUP2 SWAP1 SUB PUSH1 0x64 ADD SWAP1 REVERT JUMPDEST TIMESTAMP DUP3 GT ISZERO PUSH2 0x1B8F JUMPI PUSH1 0x40 DUP1 MLOAD PUSH3 0x461BCD PUSH1 0xE5 SHL DUP2 MSTORE PUSH1 0x20 PUSH1 0x4 DUP3 ADD MSTORE PUSH1 0x16 PUSH1 0x24 DUP3 ADD MSTORE PUSH22 0x14995C5D595CDD081A5CC81B9BDD08195E1C1A5C9959 PUSH1 0x52 SHL PUSH1 0x44 DUP3 ADD MSTORE SWAP1 MLOAD SWAP1 DUP2 SWAP1 SUB PUSH1 0x64 ADD SWAP1 REVERT JUMPDEST PUSH1 0x0 DUP6 DUP2 MSTORE PUSH1 0x4 PUSH1 0x20 MSTORE PUSH1 0x40 DUP1 DUP3 KECCAK256 DUP3 SWAP1 SSTORE MLOAD DUP7 SWAP2 PUSH32 0xA7842B9EC549398102C0D91B1B9919B2F20558AEFDADF57528A95C6CD3292E93 SWAP2 LOG2 PUSH1 0x40 DUP1 MLOAD PUSH4 0xA9059CBB PUSH1 0xE0 SHL DUP2 MSTORE CALLER PUSH1 0x4 DUP3 ADD MSTORE PUSH1 0x24 DUP2 ADD DUP7 SWAP1 MSTORE SWAP1 MLOAD PUSH1 0x1 PUSH1 0x1 PUSH1 0xA0 SHL SUB PUSH32 0x0 AND SWAP2 PUSH4 0xA9059CBB SWAP2 PUSH1 0x44 DUP1 DUP4 ADD SWAP3 PUSH1 0x20 SWAP3 SWAP2 SWAP1 DUP3 SWAP1 SUB ADD DUP2 PUSH1 0x0 DUP8 DUP1 EXTCODESIZE ISZERO DUP1 ISZERO PUSH2 0x1C36 JUMPI PUSH1 0x0 DUP1 REVERT JUMPDEST POP GAS CALL ISZERO DUP1 ISZERO PUSH2 0x1C4A JUMPI RETURNDATASIZE PUSH1 0x0 DUP1 RETURNDATACOPY RETURNDATASIZE PUSH1 0x0 REVERT JUMPDEST POP POP POP POP PUSH1 0x40 MLOAD RETURNDATASIZE PUSH1 0x20 DUP2 LT ISZERO PUSH2 0x1C60 JUMPI PUSH1 0x0 DUP1 REVERT JUMPDEST POP POP POP POP POP POP POP JUMP JUMPDEST PUSH1 0x3 SLOAD PUSH1 0x1 PUSH1 0x1 PUSH1 0xA0 SHL SUB AND CALLER EQ PUSH2 0x1CC1 JUMPI PUSH1 0x40 DUP1 MLOAD PUSH3 0x461BCD PUSH1 0xE5 SHL DUP2 MSTORE PUSH1 0x20 PUSH1 0x4 DUP3 ADD MSTORE PUSH1 0x16 PUSH1 0x24 DUP3 ADD MSTORE PUSH22 0x26BAB9BA10313290383937B837B9B2B21037BBB732B9 PUSH1 0x51 SHL PUSH1 0x44 DUP3 ADD MSTORE SWAP1 MLOAD SWAP1 DUP2 SWAP1 SUB PUSH1 0x64 ADD SWAP1 REVERT JUMPDEST PUSH1 0x2 DUP1 SLOAD PUSH1 0x1 PUSH1 0x1 PUSH1 0xA0 SHL SUB NOT DUP1 DUP3 AND CALLER SWAP1 DUP2 OR SWAP1 SWAP4 SSTORE PUSH1 0x3 DUP1 SLOAD SWAP1 SWAP2 AND SWAP1 SSTORE PUSH1 0x40 MLOAD PUSH1 0x1 PUSH1 0x1 PUSH1 0xA0 SHL SUB SWAP1 SWAP2 AND SWAP2 SWAP1 DUP3 SWAP1 PUSH32 0x8BE0079C531659141344CD1FD0A4F28419497F9722A3DAAFE3B4186F6B6457E0 SWAP1 PUSH1 0x0 SWAP1 LOG3 POP JUMP JUMPDEST PUSH1 0x2 SLOAD PUSH1 0x1 PUSH1 0x1 PUSH1 0xA0 SHL SUB AND SWAP1 JUMP JUMPDEST PUSH1 0x0 PUSH2 0x1D35 PUSH2 0x267B JUMP JUMPDEST DUP4 DUP1 PUSH2 0x1D3F PUSH2 0x2A1B JUMP JUMPDEST LT ISZERO PUSH2 0x1D7C JUMPI PUSH1 0x40 MLOAD PUSH3 0x461BCD PUSH1 0xE5 SHL DUP2 MSTORE PUSH1 0x4 ADD DUP1 DUP1 PUSH1 0x20 ADD DUP3 DUP2 SUB DUP3 MSTORE PUSH1 0x35 DUP2 MSTORE PUSH1 0x20 ADD DUP1 PUSH2 0x2E86 PUSH1 0x35 SWAP2 CODECOPY PUSH1 0x40 ADD SWAP2 POP POP PUSH1 0x40 MLOAD DUP1 SWAP2 SUB SWAP1 REVERT JUMPDEST PUSH32 0x0 PUSH1 0x1 PUSH1 0x1 PUSH1 0xA0 SHL SUB AND PUSH4 0x4000AEA0 DUP8 DUP8 DUP8 DUP8 PUSH1 0x40 MLOAD DUP6 PUSH4 0xFFFFFFFF AND PUSH1 0xE0 SHL DUP2 MSTORE PUSH1 0x4 ADD DUP1 DUP6 PUSH1 0x1 PUSH1 0x1 PUSH1 0xA0 SHL SUB AND DUP2 MSTORE PUSH1 0x20 ADD DUP5 DUP2 MSTORE PUSH1 0x20 ADD DUP1 PUSH1 0x20 ADD DUP3 DUP2 SUB DUP3 MSTORE DUP5 DUP5 DUP3 DUP2 DUP2 MSTORE PUSH1 0x20 ADD SWAP3 POP DUP1 DUP3 DUP5 CALLDATACOPY PUSH1 0x0 DUP2 DUP5 ADD MSTORE PUSH1 0x1F NOT PUSH1 0x1F DUP3 ADD AND SWAP1 POP DUP1 DUP4 ADD SWAP3 POP POP POP SWAP6 POP POP POP POP POP POP PUSH1 0x20 PUSH1 0x40 MLOAD DUP1 DUP4 SUB DUP2 PUSH1 0x0 DUP8 DUP1 EXTCODESIZE ISZERO DUP1 ISZERO PUSH2 0x1E27 JUMPI PUSH1 0x0 DUP1 REVERT JUMPDEST POP GAS CALL ISZERO DUP1 ISZERO PUSH2 0x1E3B JUMPI RETURNDATASIZE PUSH1 0x0 DUP1 RETURNDATACOPY RETURNDATASIZE PUSH1 0x0 REVERT JUMPDEST POP POP POP POP PUSH1 0x40 MLOAD RETURNDATASIZE PUSH1 0x20 DUP2 LT ISZERO PUSH2 0x1E51 JUMPI PUSH1 0x0 DUP1 REVERT JUMPDEST POP MLOAD SWAP7 SWAP6 POP POP POP POP POP POP JUMP JUMPDEST PUSH2 0x1E65 PUSH2 0xF73 JUMP JUMPDEST PUSH1 0x1 PUSH1 0x1 PUSH1 0xA0 SHL SUB AND CALLER PUSH1 0x1 PUSH1 0x1 PUSH1 0xA0 SHL SUB AND EQ PUSH2 0x1EC0 JUMPI PUSH1 0x40 DUP1 MLOAD PUSH3 0x461BCD PUSH1 0xE5 SHL DUP2 MSTORE PUSH1 0x20 PUSH1 0x4 DUP3 ADD MSTORE PUSH1 0x13 PUSH1 0x24 DUP3 ADD MSTORE PUSH19 0x26BAB9BA103AB9B2902624A725903A37B5B2B7 PUSH1 0x69 SHL PUSH1 0x44 DUP3 ADD MSTORE SWAP1 MLOAD SWAP1 DUP2 SWAP1 SUB PUSH1 0x64 ADD SWAP1 REVERT JUMPDEST PUSH1 0x20 DUP2 ADD MLOAD DUP2 SWAP1 PUSH2 0x1ED1 DUP2 DUP4 PUSH2 0x2B96 JUMP JUMPDEST DUP5 PUSH1 0x24 DUP5 ADD MSTORE DUP4 PUSH1 0x44 DUP5 ADD MSTORE PUSH1 0x0 ADDRESS PUSH1 0x1 PUSH1 0x1 PUSH1 0xA0 SHL SUB AND DUP5 PUSH1 0x40 MLOAD DUP1 DUP3 DUP1 MLOAD SWAP1 PUSH1 0x20 ADD SWAP1 DUP1 DUP4 DUP4 JUMPDEST PUSH1 0x20 DUP4 LT PUSH2 0x1F19 JUMPI DUP1 MLOAD DUP3 MSTORE PUSH1 0x1F NOT SWAP1 SWAP3 ADD SWAP2 PUSH1 0x20 SWAP2 DUP3 ADD SWAP2 ADD PUSH2 0x1EFA JUMP JUMPDEST PUSH1 0x1 DUP4 PUSH1 0x20 SUB PUSH2 0x100 EXP SUB DUP1 NOT DUP3 MLOAD AND DUP2 DUP5 MLOAD AND DUP1 DUP3 OR DUP6 MSTORE POP POP POP POP POP POP SWAP1 POP ADD SWAP2 POP POP PUSH1 0x0 PUSH1 0x40 MLOAD DUP1 DUP4 SUB DUP2 DUP6 GAS DELEGATECALL SWAP2 POP POP RETURNDATASIZE DUP1 PUSH1 0x0 DUP2 EQ PUSH2 0x1F79 JUMPI PUSH1 0x40 MLOAD SWAP2 POP PUSH1 0x1F NOT PUSH1 0x3F RETURNDATASIZE ADD AND DUP3 ADD PUSH1 0x40 MSTORE RETURNDATASIZE DUP3 MSTORE RETURNDATASIZE PUSH1 0x0 PUSH1 0x20 DUP5 ADD RETURNDATACOPY PUSH2 0x1F7E JUMP JUMPDEST PUSH1 0x60 SWAP2 POP JUMPDEST POP POP SWAP1 POP DUP1 PUSH2 0x1FD4 JUMPI PUSH1 0x40 DUP1 MLOAD PUSH3 0x461BCD PUSH1 0xE5 SHL DUP2 MSTORE PUSH1 0x20 PUSH1 0x4 DUP3 ADD MSTORE PUSH1 0x18 PUSH1 0x24 DUP3 ADD MSTORE PUSH32 0x556E61626C6520746F2063726561746520726571756573740000000000000000 PUSH1 0x44 DUP3 ADD MSTORE SWAP1 MLOAD SWAP1 DUP2 SWAP1 SUB PUSH1 0x64 ADD SWAP1 REVERT JUMPDEST POP POP POP POP POP POP JUMP JUMPDEST PUSH1 0x0 CALLER DUP6 PUSH1 0x40 MLOAD PUSH1 0x20 ADD DUP1 DUP4 PUSH1 0x1 PUSH1 0x1 PUSH1 0xA0 SHL SUB AND PUSH1 0x60 SHL DUP2 MSTORE PUSH1 0x14 ADD DUP3 DUP2 MSTORE PUSH1 0x20 ADD SWAP3 POP POP POP PUSH1 0x40 MLOAD PUSH1 0x20 DUP2 DUP4 SUB SUB DUP2 MSTORE SWAP1 PUSH1 0x40 MSTORE DUP1 MLOAD SWAP1 PUSH1 0x20 ADD KECCAK256 SWAP1 POP PUSH1 0x0 PUSH2 0x2029 DUP6 CALLER DUP7 DUP7 PUSH2 0x2B3C JUMP JUMPDEST PUSH1 0x0 DUP4 DUP2 MSTORE PUSH1 0x4 PUSH1 0x20 MSTORE PUSH1 0x40 SWAP1 KECCAK256 SLOAD SWAP1 SWAP2 POP PUSH1 0x8 SHL PUSH1 0xFF NOT SWAP1 DUP2 AND SWAP1 DUP3 AND EQ PUSH2 0x2099 JUMPI PUSH1 0x40 DUP1 MLOAD PUSH3 0x461BCD PUSH1 0xE5 SHL DUP2 MSTORE PUSH1 0x20 PUSH1 0x4 DUP3 ADD MSTORE PUSH1 0x1E PUSH1 0x24 DUP3 ADD MSTORE PUSH32 0x506172616D7320646F206E6F74206D6174636820726571756573742049440000 PUSH1 0x44 DUP3 ADD MSTORE SWAP1 MLOAD SWAP1 DUP2 SWAP1 SUB PUSH1 0x64 ADD SWAP1 REVERT JUMPDEST TIMESTAMP DUP4 GT ISZERO PUSH2 0x20E7 JUMPI PUSH1 0x40 DUP1 MLOAD PUSH3 0x461BCD PUSH1 0xE5 SHL DUP2 MSTORE PUSH1 0x20 PUSH1 0x4 DUP3 ADD MSTORE PUSH1 0x16 PUSH1 0x24 DUP3 ADD MSTORE PUSH22 0x14995C5D595CDD081A5CC81B9BDD08195E1C1A5C9959 PUSH1 0x52 SHL PUSH1 0x44 DUP3 ADD MSTORE SWAP1 MLOAD SWAP1 DUP2 SWAP1 SUB PUSH1 0x64 ADD SWAP1 REVERT JUMPDEST PUSH1 0x0 DUP3 DUP2 MSTORE PUSH1 0x4 PUSH1 0x20 MSTORE PUSH1 0x40 DUP1 DUP3 KECCAK256 DUP3 SWAP1 SSTORE MLOAD DUP4 SWAP2 PUSH32 0xA7842B9EC549398102C0D91B1B9919B2F20558AEFDADF57528A95C6CD3292E93 SWAP2 LOG2 PUSH1 0x40 DUP1 MLOAD PUSH4 0xA9059CBB PUSH1 0xE0 SHL DUP2 MSTORE CALLER PUSH1 0x4 DUP3 ADD MSTORE PUSH1 0x24 DUP2 ADD DUP8 SWAP1 MSTORE SWAP1 MLOAD PUSH1 0x1 PUSH1 0x1 PUSH1 0xA0 SHL SUB PUSH32 0x0 AND SWAP2 PUSH4 0xA9059CBB SWAP2 PUSH1 0x44 DUP1 DUP4 ADD SWAP3 PUSH1 0x20 SWAP3 SWAP2 SWAP1 DUP3 SWAP1 SUB ADD DUP2 PUSH1 0x0 DUP8 DUP1 EXTCODESIZE ISZERO DUP1 ISZERO PUSH2 0x218E JUMPI PUSH1 0x0 DUP1 REVERT JUMPDEST POP GAS CALL ISZERO DUP1 ISZERO PUSH2 0x21A2 JUMPI RETURNDATASIZE PUSH1 0x0 DUP1 RETURNDATACOPY RETURNDATASIZE PUSH1 0x0 REVERT JUMPDEST POP POP POP POP PUSH1 0x40 MLOAD RETURNDATASIZE PUSH1 0x20 DUP2 LT ISZERO PUSH2 0x21B8 JUMPI PUSH1 0x0 DUP1 REVERT JUMPDEST POP POP POP POP POP POP POP POP JUMP JUMPDEST PUSH2 0x21CA PUSH2 0x2652 JUMP JUMPDEST PUSH2 0x2209 JUMPI PUSH1 0x40 DUP1 MLOAD PUSH3 0x461BCD PUSH1 0xE5 SHL DUP2 MSTORE PUSH1 0x20 PUSH1 0x4 DUP3 ADD MSTORE PUSH1 0x1D PUSH1 0x24 DUP3 ADD MSTORE PUSH1 0x0 DUP1 MLOAD PUSH1 0x20 PUSH2 0x2E40 DUP4 CODECOPY DUP2 MLOAD SWAP2 MSTORE PUSH1 0x44 DUP3 ADD MSTORE SWAP1 MLOAD SWAP1 DUP2 SWAP1 SUB PUSH1 0x64 ADD SWAP1 REVERT JUMPDEST DUP1 PUSH2 0x2245 JUMPI PUSH1 0x40 MLOAD PUSH3 0x461BCD PUSH1 0xE5 SHL DUP2 MSTORE PUSH1 0x4 ADD DUP1 DUP1 PUSH1 0x20 ADD DUP3 DUP2 SUB DUP3 MSTORE PUSH1 0x26 DUP2 MSTORE PUSH1 0x20 ADD DUP1 PUSH2 0x2E60 PUSH1 0x26 SWAP2 CODECOPY PUSH1 0x40 ADD SWAP2 POP POP PUSH1 0x40 MLOAD DUP1 SWAP2 SUB SWAP1 REVERT JUMPDEST PUSH1 0x1 SLOAD PUSH1 0x0 JUMPDEST DUP2 DUP2 LT ISZERO PUSH2 0x22A1 JUMPI PUSH1 0x0 DUP1 PUSH1 0x0 PUSH1 0x1 DUP5 DUP2 SLOAD DUP2 LT PUSH2 0x2265 JUMPI INVALID JUMPDEST PUSH1 0x0 SWAP2 DUP3 MSTORE PUSH1 0x20 DUP1 DUP4 KECCAK256 SWAP2 SWAP1 SWAP2 ADD SLOAD PUSH1 0x1 PUSH1 0x1 PUSH1 0xA0 SHL SUB AND DUP4 MSTORE DUP3 ADD SWAP3 SWAP1 SWAP3 MSTORE PUSH1 0x40 ADD SWAP1 KECCAK256 DUP1 SLOAD PUSH1 0xFF NOT AND SWAP2 ISZERO ISZERO SWAP2 SWAP1 SWAP2 OR SWAP1 SSTORE PUSH1 0x1 ADD PUSH2 0x224B JUMP JUMPDEST POP PUSH1 0x0 JUMPDEST DUP3 DUP2 LT ISZERO PUSH2 0x22F7 JUMPI PUSH1 0x1 PUSH1 0x0 DUP1 DUP7 DUP7 DUP6 DUP2 DUP2 LT PUSH2 0x22BE JUMPI INVALID JUMPDEST PUSH1 0x20 SWAP1 DUP2 MUL SWAP3 SWAP1 SWAP3 ADD CALLDATALOAD PUSH1 0x1 PUSH1 0x1 PUSH1 0xA0 SHL SUB AND DUP4 MSTORE POP DUP2 ADD SWAP2 SWAP1 SWAP2 MSTORE PUSH1 0x40 ADD PUSH1 0x0 KECCAK256 DUP1 SLOAD PUSH1 0xFF NOT AND SWAP2 ISZERO ISZERO SWAP2 SWAP1 SWAP2 OR SWAP1 SSTORE PUSH1 0x1 ADD PUSH2 0x22A5 JUMP JUMPDEST POP PUSH2 0x2304 PUSH1 0x1 DUP5 DUP5 PUSH2 0x2DD0 JUMP JUMPDEST POP PUSH32 0xF263CFB3E4298332E776194610CF9FDC09CCB3ADA8B9AA39764D882E11FBF0A0 DUP4 DUP4 CALLER PUSH1 0x40 MLOAD DUP1 DUP1 PUSH1 0x20 ADD DUP4 PUSH1 0x1 PUSH1 0x1 PUSH1 0xA0 SHL SUB AND DUP2 MSTORE PUSH1 0x20 ADD DUP3 DUP2 SUB DUP3 MSTORE DUP6 DUP6 DUP3 DUP2 DUP2 MSTORE PUSH1 0x20 ADD SWAP3 POP PUSH1 0x20 MUL DUP1 DUP3 DUP5 CALLDATACOPY PUSH1 0x0 DUP4 DUP3 ADD MSTORE PUSH1 0x40 MLOAD PUSH1 0x1F SWAP1 SWAP2 ADD PUSH1 0x1F NOT AND SWAP1 SWAP3 ADD DUP3 SWAP1 SUB SWAP7 POP SWAP1 SWAP5 POP POP POP POP POP LOG1 POP POP POP JUMP JUMPDEST PUSH2 0x2386 PUSH2 0x267B JUMP JUMPDEST PUSH2 0x238F DUP2 PUSH2 0x2C6A JUMP JUMPDEST POP JUMP JUMPDEST PUSH2 0x239A PUSH2 0x267B JUMP JUMPDEST DUP1 DUP1 PUSH2 0x23A4 PUSH2 0x2A1B JUMP JUMPDEST LT ISZERO PUSH2 0x23E1 JUMPI PUSH1 0x40 MLOAD PUSH3 0x461BCD PUSH1 0xE5 SHL DUP2 MSTORE PUSH1 0x4 ADD DUP1 DUP1 PUSH1 0x20 ADD DUP3 DUP2 SUB DUP3 MSTORE PUSH1 0x35 DUP2 MSTORE PUSH1 0x20 ADD DUP1 PUSH2 0x2E86 PUSH1 0x35 SWAP2 CODECOPY PUSH1 0x40 ADD SWAP2 POP POP PUSH1 0x40 MLOAD DUP1 SWAP2 SUB SWAP1 REVERT JUMPDEST PUSH32 0x0 PUSH1 0x1 PUSH1 0x1 PUSH1 0xA0 SHL SUB AND PUSH4 0xA9059CBB DUP5 DUP5 PUSH1 0x40 MLOAD DUP4 PUSH4 0xFFFFFFFF AND PUSH1 0xE0 SHL DUP2 MSTORE PUSH1 0x4 ADD DUP1 DUP4 PUSH1 0x1 PUSH1 0x1 PUSH1 0xA0 SHL SUB AND DUP2 MSTORE PUSH1 0x20 ADD DUP3 DUP2 MSTORE PUSH1 0x20 ADD SWAP3 POP POP POP PUSH1 0x20 PUSH1 0x40 MLOAD DUP1 DUP4 SUB DUP2 PUSH1 0x0 DUP8 DUP1 EXTCODESIZE ISZERO DUP1 ISZERO PUSH2 0x2458 JUMPI PUSH1 0x0 DUP1 REVERT JUMPDEST POP GAS CALL ISZERO DUP1 ISZERO PUSH2 0x246C JUMPI RETURNDATASIZE PUSH1 0x0 DUP1 RETURNDATACOPY RETURNDATASIZE PUSH1 0x0 REVERT JUMPDEST POP POP POP POP PUSH1 0x40 MLOAD RETURNDATASIZE PUSH1 0x20 DUP2 LT ISZERO PUSH2 0x2482 JUMPI PUSH1 0x0 DUP1 REVERT JUMPDEST POP MLOAD PUSH2 0xDCD JUMPI INVALID JUMPDEST PUSH1 0x1 PUSH1 0x1 PUSH1 0xA0 SHL SUB AND PUSH1 0x0 SWAP1 DUP2 MSTORE PUSH1 0x20 DUP2 SWAP1 MSTORE PUSH1 0x40 SWAP1 KECCAK256 SLOAD PUSH1 0xFF AND SWAP1 JUMP JUMPDEST PUSH2 0x24B0 PUSH2 0x2652 JUMP JUMPDEST PUSH2 0x24EF JUMPI PUSH1 0x40 DUP1 MLOAD PUSH3 0x461BCD PUSH1 0xE5 SHL DUP2 MSTORE PUSH1 0x20 PUSH1 0x4 DUP3 ADD MSTORE PUSH1 0x1D PUSH1 0x24 DUP3 ADD MSTORE PUSH1 0x0 DUP1 MLOAD PUSH1 0x20 PUSH2 0x2E40 DUP4 CODECOPY DUP2 MLOAD SWAP2 MSTORE PUSH1 0x44 DUP3 ADD MSTORE SWAP1 MLOAD SWAP1 DUP2 SWAP1 SUB PUSH1 0x64 ADD SWAP1 REVERT JUMPDEST PUSH32 0x1BB185903E2CB2F1B303523128B60E314DEA81DF4F8D9B7351CADD344F6E7727 DUP5 DUP5 DUP5 DUP5 CALLER PUSH1 0x40 MLOAD DUP1 DUP1 PUSH1 0x20 ADD DUP1 PUSH1 0x20 ADD DUP5 PUSH1 0x1 PUSH1 0x1 PUSH1 0xA0 SHL SUB AND DUP2 MSTORE PUSH1 0x20 ADD DUP4 DUP2 SUB DUP4 MSTORE DUP9 DUP9 DUP3 DUP2 DUP2 MSTORE PUSH1 0x20 ADD SWAP3 POP PUSH1 0x20 MUL DUP1 DUP3 DUP5 CALLDATACOPY PUSH1 0x0 DUP4 DUP3 ADD MSTORE PUSH1 0x1F ADD PUSH1 0x1F NOT AND SWAP1 SWAP2 ADD DUP5 DUP2 SUB DUP4 MSTORE DUP7 DUP2 MSTORE PUSH1 0x20 SWAP1 DUP2 ADD SWAP2 POP DUP8 SWAP1 DUP8 MUL DUP1 DUP3 DUP5 CALLDATACOPY PUSH1 0x0 DUP4 DUP3 ADD MSTORE PUSH1 0x40 MLOAD PUSH1 0x1F SWAP1 SWAP2 ADD PUSH1 0x1F NOT AND SWAP1 SWAP3 ADD DUP3 SWAP1 SUB SWAP10 POP SWAP1 SWAP8 POP POP POP POP POP POP POP POP LOG1 PUSH1 0x0 JUMPDEST DUP4 DUP2 LT ISZERO PUSH2 0xF6C JUMPI DUP5 DUP5 DUP3 DUP2 DUP2 LT PUSH2 0x25AA JUMPI INVALID JUMPDEST SWAP1 POP PUSH1 0x20 MUL ADD CALLDATALOAD PUSH1 0x1 PUSH1 0x1 PUSH1 0xA0 SHL SUB AND PUSH1 0x1 PUSH1 0x1 PUSH1 0xA0 SHL SUB AND PUSH4 0xEE56997B DUP5 DUP5 PUSH1 0x40 MLOAD DUP4 PUSH4 0xFFFFFFFF AND PUSH1 0xE0 SHL DUP2 MSTORE PUSH1 0x4 ADD DUP1 DUP1 PUSH1 0x20 ADD DUP3 DUP2 SUB DUP3 MSTORE DUP5 DUP5 DUP3 DUP2 DUP2 MSTORE PUSH1 0x20 ADD SWAP3 POP PUSH1 0x20 MUL DUP1 DUP3 DUP5 CALLDATACOPY PUSH1 0x0 DUP2 DUP5 ADD MSTORE PUSH1 0x1F NOT PUSH1 0x1F DUP3 ADD AND SWAP1 POP DUP1 DUP4 ADD SWAP3 POP POP POP SWAP4 POP POP POP POP PUSH1 0x0 PUSH1 0x40 MLOAD DUP1 DUP4 SUB DUP2 PUSH1 0x0 DUP8 DUP1 EXTCODESIZE ISZERO DUP1 ISZERO PUSH2 0x262E JUMPI PUSH1 0x0 DUP1 REVERT JUMPDEST POP GAS CALL ISZERO DUP1 ISZERO PUSH2 0x2642 JUMPI RETURNDATASIZE PUSH1 0x0 DUP1 RETURNDATACOPY RETURNDATASIZE PUSH1 0x0 REVERT JUMPDEST POP POP PUSH1 0x1 SWAP1 SWAP3 ADD SWAP2 POP PUSH2 0x2596 SWAP1 POP JUMP JUMPDEST PUSH1 0x0 PUSH2 0x265D CALLER PUSH2 0x248A JUMP JUMPDEST DUP1 PUSH2 0x160C JUMPI POP CALLER PUSH2 0x266C PUSH2 0x1D1C JUMP JUMPDEST PUSH1 0x1 PUSH1 0x1 PUSH1 0xA0 SHL SUB AND EQ SWAP1 POP SWAP1 JUMP JUMPDEST PUSH1 0x2 SLOAD PUSH1 0x1 PUSH1 0x1 PUSH1 0xA0 SHL SUB AND CALLER EQ PUSH2 0x26D3 JUMPI PUSH1 0x40 DUP1 MLOAD PUSH3 0x461BCD PUSH1 0xE5 SHL DUP2 MSTORE PUSH1 0x20 PUSH1 0x4 DUP3 ADD MSTORE PUSH1 0x16 PUSH1 0x24 DUP3 ADD MSTORE PUSH22 0x27B7363C9031B0B63630B1363290313C9037BBB732B9 PUSH1 0x51 SHL PUSH1 0x44 DUP3 ADD MSTORE SWAP1 MLOAD SWAP1 DUP2 SWAP1 SUB PUSH1 0x64 ADD SWAP1 REVERT JUMPDEST JUMP JUMPDEST EXTCODESIZE ISZERO ISZERO SWAP1 JUMP JUMPDEST PUSH1 0x0 DUP1 DUP6 PUSH32 0x0 PUSH1 0x1 PUSH1 0x1 PUSH1 0xA0 SHL SUB AND DUP2 PUSH1 0x1 PUSH1 0x1 PUSH1 0xA0 SHL SUB AND EQ ISZERO PUSH2 0x275C JUMPI PUSH1 0x40 DUP1 MLOAD PUSH3 0x461BCD PUSH1 0xE5 SHL DUP2 MSTORE PUSH1 0x20 PUSH1 0x4 DUP3 ADD MSTORE PUSH1 0x13 PUSH1 0x24 DUP3 ADD MSTORE PUSH19 0x43616E6E6F742063616C6C20746F204C494E4B PUSH1 0x68 SHL PUSH1 0x44 DUP3 ADD MSTORE SWAP1 MLOAD SWAP1 DUP2 SWAP1 SUB PUSH1 0x64 ADD SWAP1 REVERT JUMPDEST PUSH1 0x40 DUP1 MLOAD PUSH1 0x60 DUP12 SWAP1 SHL PUSH12 0xFFFFFFFFFFFFFFFFFFFFFFFF NOT AND PUSH1 0x20 DUP1 DUP4 ADD SWAP2 SWAP1 SWAP2 MSTORE PUSH1 0x34 DUP1 DUP4 ADD DUP10 SWAP1 MSTORE DUP4 MLOAD DUP1 DUP5 SUB SWAP1 SWAP2 ADD DUP2 MSTORE PUSH1 0x54 SWAP1 SWAP3 ADD DUP4 MSTORE DUP2 MLOAD SWAP2 DUP2 ADD SWAP2 SWAP1 SWAP2 KECCAK256 PUSH1 0x0 DUP2 DUP2 MSTORE PUSH1 0x4 SWAP1 SWAP3 MSTORE SWAP2 SWAP1 KECCAK256 SLOAD SWAP1 SWAP4 POP PUSH1 0x8 SHL PUSH1 0xFF NOT AND ISZERO PUSH2 0x2800 JUMPI PUSH1 0x40 DUP1 MLOAD PUSH3 0x461BCD PUSH1 0xE5 SHL DUP2 MSTORE PUSH1 0x20 PUSH1 0x4 DUP3 ADD MSTORE PUSH1 0x14 PUSH1 0x24 DUP3 ADD MSTORE PUSH20 0x135D5CDD081D5CD94818481D5B9A5C5D59481251 PUSH1 0x62 SHL PUSH1 0x44 DUP3 ADD MSTORE SWAP1 MLOAD SWAP1 DUP2 SWAP1 SUB PUSH1 0x64 ADD SWAP1 REVERT JUMPDEST PUSH2 0x280C TIMESTAMP PUSH2 0x12C PUSH2 0x2D1A JUMP JUMPDEST SWAP2 POP PUSH1 0x0 PUSH2 0x281C DUP10 DUP10 DUP10 DUP7 PUSH2 0x2B3C JUMP JUMPDEST SWAP1 POP PUSH1 0x40 MLOAD DUP1 PUSH1 0x40 ADD PUSH1 0x40 MSTORE DUP1 DUP3 PUSH1 0xFF NOT AND DUP2 MSTORE PUSH1 0x20 ADD PUSH2 0x283C DUP8 PUSH2 0x2D7B JUMP JUMPDEST PUSH1 0xFF SWAP1 DUP2 AND SWAP1 SWAP2 MSTORE PUSH1 0x0 DUP7 DUP2 MSTORE PUSH1 0x4 PUSH1 0x20 SWAP1 DUP2 MSTORE PUSH1 0x40 SWAP1 SWAP2 KECCAK256 DUP4 MLOAD DUP2 SLOAD SWAP5 SWAP1 SWAP3 ADD MLOAD SWAP1 SWAP3 AND PUSH1 0x1 PUSH1 0xF8 SHL MUL PUSH1 0x8 SWAP2 SWAP1 SWAP2 SHR PUSH1 0x1 PUSH1 0x1 PUSH1 0xF8 SHL SUB NOT SWAP1 SWAP4 AND SWAP3 SWAP1 SWAP3 OR PUSH1 0x1 PUSH1 0x1 PUSH1 0xF8 SHL SUB AND SWAP2 SWAP1 SWAP2 OR SWAP1 SSTORE PUSH1 0x6 SLOAD PUSH2 0x2899 SWAP1 DUP11 PUSH2 0x2D1A JUMP JUMPDEST PUSH1 0x6 SSTORE POP POP SWAP7 POP SWAP7 SWAP5 POP POP POP POP POP JUMP JUMPDEST PUSH2 0x28B2 CALLER PUSH2 0x248A JUMP JUMPDEST PUSH2 0x26D3 JUMPI PUSH1 0x40 DUP1 MLOAD PUSH3 0x461BCD PUSH1 0xE5 SHL DUP2 MSTORE PUSH1 0x20 PUSH1 0x4 DUP3 ADD MSTORE PUSH1 0x15 PUSH1 0x24 DUP3 ADD MSTORE PUSH21 0x2737BA1030BABA3437B934BD32B21039B2B73232B9 PUSH1 0x59 SHL PUSH1 0x44 DUP3 ADD MSTORE SWAP1 MLOAD SWAP1 DUP2 SWAP1 SUB PUSH1 0x64 ADD SWAP1 REVERT JUMPDEST PUSH1 0x0 PUSH2 0x2909 DUP7 DUP7 DUP7 DUP7 PUSH2 0x2B3C JUMP JUMPDEST PUSH1 0x0 DUP9 DUP2 MSTORE PUSH1 0x4 PUSH1 0x20 MSTORE PUSH1 0x40 SWAP1 KECCAK256 SLOAD SWAP1 SWAP2 POP PUSH1 0x8 SHL PUSH1 0xFF NOT SWAP1 DUP2 AND SWAP1 DUP3 AND EQ PUSH2 0x2979 JUMPI PUSH1 0x40 DUP1 MLOAD PUSH3 0x461BCD PUSH1 0xE5 SHL DUP2 MSTORE PUSH1 0x20 PUSH1 0x4 DUP3 ADD MSTORE PUSH1 0x1E PUSH1 0x24 DUP3 ADD MSTORE PUSH32 0x506172616D7320646F206E6F74206D6174636820726571756573742049440000 PUSH1 0x44 DUP3 ADD MSTORE SWAP1 MLOAD SWAP1 DUP2 SWAP1 SUB PUSH1 0x64 ADD SWAP1 REVERT JUMPDEST PUSH2 0x2982 DUP3 PUSH2 0x2D7B JUMP JUMPDEST PUSH1 0x0 DUP9 DUP2 MSTORE PUSH1 0x4 PUSH1 0x20 MSTORE PUSH1 0x40 SWAP1 KECCAK256 SLOAD PUSH1 0xFF SWAP2 DUP3 AND PUSH1 0x1 PUSH1 0xF8 SHL SWAP1 SWAP2 DIV SWAP1 SWAP2 AND GT ISZERO PUSH2 0x29F4 JUMPI PUSH1 0x40 DUP1 MLOAD PUSH3 0x461BCD PUSH1 0xE5 SHL DUP2 MSTORE PUSH1 0x20 PUSH1 0x4 DUP3 ADD MSTORE PUSH1 0x18 PUSH1 0x24 DUP3 ADD MSTORE PUSH32 0x446174612076657273696F6E73206D757374206D617463680000000000000000 PUSH1 0x44 DUP3 ADD MSTORE SWAP1 MLOAD SWAP1 DUP2 SWAP1 SUB PUSH1 0x64 ADD SWAP1 REVERT JUMPDEST PUSH1 0x6 SLOAD PUSH2 0x2A01 SWAP1 DUP8 PUSH2 0x2ADF JUMP JUMPDEST PUSH1 0x6 SSTORE POP POP POP PUSH1 0x0 SWAP4 DUP5 MSTORE POP POP PUSH1 0x4 PUSH1 0x20 MSTORE POP PUSH1 0x40 DUP2 KECCAK256 SSTORE JUMP JUMPDEST PUSH1 0x0 DUP1 PUSH2 0x2A34 PUSH1 0x1 PUSH1 0x6 SLOAD PUSH2 0x2ADF SWAP1 SWAP2 SWAP1 PUSH4 0xFFFFFFFF AND JUMP JUMPDEST SWAP1 POP PUSH2 0x2AD9 DUP2 PUSH32 0x0 PUSH1 0x1 PUSH1 0x1 PUSH1 0xA0 SHL SUB AND PUSH4 0x70A08231 ADDRESS PUSH1 0x40 MLOAD DUP3 PUSH4 0xFFFFFFFF AND PUSH1 0xE0 SHL DUP2 MSTORE PUSH1 0x4 ADD DUP1 DUP3 PUSH1 0x1 PUSH1 0x1 PUSH1 0xA0 SHL SUB AND DUP2 MSTORE PUSH1 0x20 ADD SWAP2 POP POP PUSH1 0x20 PUSH1 0x40 MLOAD DUP1 DUP4 SUB DUP2 DUP7 DUP1 EXTCODESIZE ISZERO DUP1 ISZERO PUSH2 0x2AA7 JUMPI PUSH1 0x0 DUP1 REVERT JUMPDEST POP GAS STATICCALL ISZERO DUP1 ISZERO PUSH2 0x2ABB JUMPI RETURNDATASIZE PUSH1 0x0 DUP1 RETURNDATACOPY RETURNDATASIZE PUSH1 0x0 REVERT JUMPDEST POP POP POP POP PUSH1 0x40 MLOAD RETURNDATASIZE PUSH1 0x20 DUP2 LT ISZERO PUSH2 0x2AD1 JUMPI PUSH1 0x0 DUP1 REVERT JUMPDEST POP MLOAD SWAP1 PUSH2 0x2ADF JUMP JUMPDEST SWAP2 POP POP SWAP1 JUMP JUMPDEST PUSH1 0x0 DUP3 DUP3 GT ISZERO PUSH2 0x2B36 JUMPI PUSH1 0x40 DUP1 MLOAD PUSH3 0x461BCD PUSH1 0xE5 SHL DUP2 MSTORE PUSH1 0x20 PUSH1 0x4 DUP3 ADD MSTORE PUSH1 0x1E PUSH1 0x24 DUP3 ADD MSTORE PUSH32 0x536166654D6174683A207375627472616374696F6E206F766572666C6F770000 PUSH1 0x44 DUP3 ADD MSTORE SWAP1 MLOAD SWAP1 DUP2 SWAP1 SUB PUSH1 0x64 ADD SWAP1 REVERT JUMPDEST POP SWAP1 SUB SWAP1 JUMP JUMPDEST PUSH1 0x40 DUP1 MLOAD PUSH1 0x20 DUP1 DUP3 ADD SWAP7 SWAP1 SWAP7 MSTORE PUSH1 0x60 SWAP5 SWAP1 SWAP5 SHL PUSH12 0xFFFFFFFFFFFFFFFFFFFFFFFF NOT AND DUP5 DUP3 ADD MSTORE PUSH1 0x1 PUSH1 0x1 PUSH1 0xE0 SHL SUB NOT SWAP3 SWAP1 SWAP3 AND PUSH1 0x54 DUP5 ADD MSTORE PUSH1 0x58 DUP1 DUP5 ADD SWAP2 SWAP1 SWAP2 MSTORE DUP2 MLOAD DUP1 DUP5 SUB SWAP1 SWAP2 ADD DUP2 MSTORE PUSH1 0x78 SWAP1 SWAP3 ADD SWAP1 MSTORE DUP1 MLOAD SWAP2 ADD KECCAK256 SWAP1 JUMP JUMPDEST DUP1 MLOAD PUSH1 0x44 GT ISZERO PUSH2 0x2BE6 JUMPI PUSH1 0x40 DUP1 MLOAD PUSH3 0x461BCD PUSH1 0xE5 SHL DUP2 MSTORE PUSH1 0x20 PUSH1 0x4 DUP3 ADD MSTORE PUSH1 0x16 PUSH1 0x24 DUP3 ADD MSTORE PUSH22 0x92DCECC2D8D2C840E4CAE2EACAE6E840D8CADCCEE8D PUSH1 0x53 SHL PUSH1 0x44 DUP3 ADD MSTORE SWAP1 MLOAD SWAP1 DUP2 SWAP1 SUB PUSH1 0x64 ADD SWAP1 REVERT JUMPDEST PUSH1 0x1 PUSH1 0x1 PUSH1 0xE0 SHL SUB NOT DUP3 AND PUSH4 0x3C6D41B9 PUSH1 0xE0 SHL EQ DUP1 PUSH2 0x2C15 JUMPI POP PUSH1 0x1 PUSH1 0x1 PUSH1 0xE0 SHL SUB NOT DUP3 AND PUSH4 0x20214CA3 PUSH1 0xE1 SHL EQ JUMPDEST PUSH2 0x2C66 JUMPI PUSH1 0x40 DUP1 MLOAD PUSH3 0x461BCD PUSH1 0xE5 SHL DUP2 MSTORE PUSH1 0x20 PUSH1 0x4 DUP3 ADD MSTORE PUSH1 0x1E PUSH1 0x24 DUP3 ADD MSTORE PUSH32 0x4D757374207573652077686974656C69737465642066756E6374696F6E730000 PUSH1 0x44 DUP3 ADD MSTORE SWAP1 MLOAD SWAP1 DUP2 SWAP1 SUB PUSH1 0x64 ADD SWAP1 REVERT JUMPDEST POP POP JUMP JUMPDEST PUSH1 0x1 PUSH1 0x1 PUSH1 0xA0 SHL SUB DUP2 AND CALLER EQ ISZERO PUSH2 0x2CC8 JUMPI PUSH1 0x40 DUP1 MLOAD PUSH3 0x461BCD PUSH1 0xE5 SHL DUP2 MSTORE PUSH1 0x20 PUSH1 0x4 DUP3 ADD MSTORE PUSH1 0x17 PUSH1 0x24 DUP3 ADD MSTORE PUSH32 0x43616E6E6F74207472616E7366657220746F2073656C66000000000000000000 PUSH1 0x44 DUP3 ADD MSTORE SWAP1 MLOAD SWAP1 DUP2 SWAP1 SUB PUSH1 0x64 ADD SWAP1 REVERT JUMPDEST PUSH1 0x3 DUP1 SLOAD PUSH1 0x1 PUSH1 0x1 PUSH1 0xA0 SHL SUB NOT AND PUSH1 0x1 PUSH1 0x1 PUSH1 0xA0 SHL SUB DUP4 DUP2 AND SWAP2 DUP3 OR SWAP1 SWAP3 SSTORE PUSH1 0x2 SLOAD PUSH1 0x40 MLOAD SWAP2 SWAP3 AND SWAP1 PUSH32 0xED8889F560326EB138920D842192F0EB3DD22B4F139C87A2C57538E05BAE1278 SWAP1 PUSH1 0x0 SWAP1 LOG3 POP JUMP JUMPDEST PUSH1 0x0 DUP3 DUP3 ADD DUP4 DUP2 LT ISZERO PUSH2 0x2D74 JUMPI PUSH1 0x40 DUP1 MLOAD PUSH3 0x461BCD PUSH1 0xE5 SHL DUP2 MSTORE PUSH1 0x20 PUSH1 0x4 DUP3 ADD MSTORE PUSH1 0x1B PUSH1 0x24 DUP3 ADD MSTORE PUSH32 0x536166654D6174683A206164646974696F6E206F766572666C6F770000000000 PUSH1 0x44 DUP3 ADD MSTORE SWAP1 MLOAD SWAP1 DUP2 SWAP1 SUB PUSH1 0x64 ADD SWAP1 REVERT JUMPDEST SWAP4 SWAP3 POP POP POP JUMP JUMPDEST PUSH1 0x0 PUSH2 0x100 DUP3 LT PUSH2 0x2DCC JUMPI PUSH1 0x40 DUP1 MLOAD PUSH3 0x461BCD PUSH1 0xE5 SHL DUP2 MSTORE PUSH1 0x20 PUSH1 0x4 DUP3 ADD MSTORE PUSH1 0x16 PUSH1 0x24 DUP3 ADD MSTORE PUSH22 0x1B9D5B58995C881D1BDBC8189A59C81D1BC818D85CDD PUSH1 0x52 SHL PUSH1 0x44 DUP3 ADD MSTORE SWAP1 MLOAD SWAP1 DUP2 SWAP1 SUB PUSH1 0x64 ADD SWAP1 REVERT JUMPDEST POP SWAP1 JUMP JUMPDEST DUP3 DUP1 SLOAD DUP3 DUP3 SSTORE SWAP1 PUSH1 0x0 MSTORE PUSH1 0x20 PUSH1 0x0 KECCAK256 SWAP1 DUP2 ADD SWAP3 DUP3 ISZERO PUSH2 0x2E23 JUMPI SWAP2 PUSH1 0x20 MUL DUP3 ADD JUMPDEST DUP3 DUP2 GT ISZERO PUSH2 0x2E23 JUMPI DUP2 SLOAD PUSH1 0x1 PUSH1 0x1 PUSH1 0xA0 SHL SUB NOT AND PUSH1 0x1 PUSH1 0x1 PUSH1 0xA0 SHL SUB DUP5 CALLDATALOAD AND OR DUP3 SSTORE PUSH1 0x20 SWAP1 SWAP3 ADD SWAP2 PUSH1 0x1 SWAP1 SWAP2 ADD SWAP1 PUSH2 0x2DF0 JUMP JUMPDEST POP PUSH2 0x2DCC SWAP3 SWAP2 POP JUMPDEST DUP1 DUP3 GT ISZERO PUSH2 0x2DCC JUMPI PUSH1 0x0 DUP2 SSTORE PUSH1 0x1 ADD PUSH2 0x2E2B JUMP INVALID NUMBER PUSH2 0x6E6E PUSH16 0x742073657420617574686F72697A6564 KECCAK256 PUSH20 0x656E646572730000004D75737420686176652061 PUSH21 0x206C65617374203120617574686F72697A65642073 PUSH6 0x6E646572416D PUSH16 0x756E7420726571756573746564206973 KECCAK256 PUSH8 0x7265617465722074 PUSH9 0x616E20776974686472 PUSH2 0x7761 PUSH3 0x6C6520 PUSH3 0x616C61 PUSH15 0x6365A26469706673582212205C4229 DUP2 0xCC 0xAB PUSH11 0x552B1EA053384675C30A56 0xE2 0x1F LOG3 0xC9 0x22 DIV SIGNEXTEND PUSH3 0x501F56 0xDA 0x24 AND PUSH5 0x736F6C6343 STOP SMOD MOD STOP CALLER "
				},
				"gasEstimates": {
					"creation": {
						"codeDepositCost": "2403200",
						"executionCost": "infinite",
						"totalCost": "infinite"
					},
					"external": {
						"acceptAuthorizedReceivers(address[],address[])": "infinite",
						"acceptOwnableContracts(address[])": "infinite",
						"acceptOwnership()": "44297",
						"cancelOracleRequest(bytes32,uint256,bytes4,uint256)": "infinite",
						"cancelOracleRequestByRequester(uint256,uint256,bytes4,uint256)": "infinite",
						"distributeFunds(address[],uint256[])": "infinite",
						"fulfillOracleRequest(bytes32,uint256,address,bytes4,uint256,bytes32)": "infinite",
						"fulfillOracleRequest2(bytes32,uint256,address,bytes4,uint256,bytes)": "infinite",
						"getAuthorizedSenders()": "infinite",
						"getChainlinkToken()": "infinite",
						"getExpiryTime()": "332",
						"isAuthorizedSender(address)": "1245",
						"onTokenTransfer(address,uint256,bytes)": "infinite",
						"operatorRequest(address,uint256,bytes32,bytes4,uint256,uint256,bytes)": "infinite",
						"oracleRequest(address,uint256,bytes32,address,bytes4,uint256,uint256,bytes)": "infinite",
						"owner()": "1148",
						"ownerForward(address,bytes)": "infinite",
						"ownerTransferAndCall(address,uint256,bytes)": "infinite",
						"setAuthorizedSenders(address[])": "infinite",
						"setAuthorizedSendersOn(address[],address[])": "infinite",
						"transferOwnableContracts(address[],address)": "infinite",
						"transferOwnership(address)": "24385",
						"typeAndVersion()": "infinite",
						"withdraw(address,uint256)": "infinite",
						"withdrawable()": "infinite"
					},
					"internal": {
						"_buildParamsHash(uint256,address,bytes4,uint256)": "infinite",
						"_canSetAuthorizedSenders()": "1840",
						"_fundsAvailable()": "infinite",
						"_safeCastToUint8(uint256)": "infinite",
						"_validateTokenTransferAction(bytes4,bytes memory)": "infinite",
						"_verifyAndProcessOracleRequest(address,uint256,address,bytes4,uint256,uint256)": "infinite",
						"_verifyOracleRequestAndProcessPayment(bytes32,uint256,address,bytes4,uint256,uint256)": "infinite"
					}
				},
				"methodIdentifiers": {
					"acceptAuthorizedReceivers(address[],address[])": "5ffa6288",
					"acceptOwnableContracts(address[])": "01994b99",
					"acceptOwnership()": "79ba5097",
					"cancelOracleRequest(bytes32,uint256,bytes4,uint256)": "6ee4d553",
					"cancelOracleRequestByRequester(uint256,uint256,bytes4,uint256)": "eb007d99",
					"distributeFunds(address[],uint256[])": "6bd59ec0",
					"fulfillOracleRequest(bytes32,uint256,address,bytes4,uint256,bytes32)": "4ab0d190",
					"fulfillOracleRequest2(bytes32,uint256,address,bytes4,uint256,bytes)": "6ae0bc76",
					"getAuthorizedSenders()": "2408afaa",
					"getChainlinkToken()": "165d35e1",
					"getExpiryTime()": "25cb5bc0",
					"isAuthorizedSender(address)": "fa00763a",
					"onTokenTransfer(address,uint256,bytes)": "a4c0ed36",
					"operatorRequest(address,uint256,bytes32,bytes4,uint256,uint256,bytes)": "3c6d41b9",
					"oracleRequest(address,uint256,bytes32,address,bytes4,uint256,uint256,bytes)": "40429946",
					"owner()": "8da5cb5b",
					"ownerForward(address,bytes)": "033f49f7",
					"ownerTransferAndCall(address,uint256,bytes)": "902fc370",
					"setAuthorizedSenders(address[])": "ee56997b",
					"setAuthorizedSendersOn(address[],address[])": "fc4a03ed",
					"transferOwnableContracts(address[],address)": "3ec5bc14",
					"transferOwnership(address)": "f2fde38b",
					"typeAndVersion()": "181f5a77",
					"withdraw(address,uint256)": "f3fef3a3",
					"withdrawable()": "50188301"
				}
			},
			"storageLayout": {
				"storage": [
					{
						"astId": 8,
						"contract": "@chainlink/contracts/src/v0.7/Operator.sol:Operator",
						"label": "s_authorizedSenders",
						"offset": 0,
						"slot": "0",
						"type": "t_mapping(t_address,t_bool)"
					},
					{
						"astId": 11,
						"contract": "@chainlink/contracts/src/v0.7/Operator.sol:Operator",
						"label": "s_authorizedSenderList",
						"offset": 0,
						"slot": "1",
						"type": "t_array(t_address)dyn_storage"
					},
					{
						"astId": 185,
						"contract": "@chainlink/contracts/src/v0.7/Operator.sol:Operator",
						"label": "s_owner",
						"offset": 0,
						"slot": "2",
						"type": "t_address"
					},
					{
						"astId": 187,
						"contract": "@chainlink/contracts/src/v0.7/Operator.sol:Operator",
						"label": "s_pendingOwner",
						"offset": 0,
						"slot": "3",
						"type": "t_address"
					},
					{
						"astId": 492,
						"contract": "@chainlink/contracts/src/v0.7/Operator.sol:Operator",
						"label": "s_commitments",
						"offset": 0,
						"slot": "4",
						"type": "t_mapping(t_bytes32,t_struct(Commitment)450_storage)"
					},
					{
						"astId": 496,
						"contract": "@chainlink/contracts/src/v0.7/Operator.sol:Operator",
						"label": "s_owned",
						"offset": 0,
						"slot": "5",
						"type": "t_mapping(t_address,t_bool)"
					},
					{
						"astId": 499,
						"contract": "@chainlink/contracts/src/v0.7/Operator.sol:Operator",
						"label": "s_tokensInEscrow",
						"offset": 0,
						"slot": "6",
						"type": "t_uint256"
					}
				],
				"types": {
					"t_address": {
						"encoding": "inplace",
						"label": "address",
						"numberOfBytes": "20"
					},
					"t_array(t_address)dyn_storage": {
						"base": "t_address",
						"encoding": "dynamic_array",
						"label": "address[]",
						"numberOfBytes": "32"
					},
					"t_bool": {
						"encoding": "inplace",
						"label": "bool",
						"numberOfBytes": "1"
					},
					"t_bytes31": {
						"encoding": "inplace",
						"label": "bytes31",
						"numberOfBytes": "31"
					},
					"t_bytes32": {
						"encoding": "inplace",
						"label": "bytes32",
						"numberOfBytes": "32"
					},
					"t_mapping(t_address,t_bool)": {
						"encoding": "mapping",
						"key": "t_address",
						"label": "mapping(address => bool)",
						"numberOfBytes": "32",
						"value": "t_bool"
					},
					"t_mapping(t_bytes32,t_struct(Commitment)450_storage)": {
						"encoding": "mapping",
						"key": "t_bytes32",
						"label": "mapping(bytes32 => struct Operator.Commitment)",
						"numberOfBytes": "32",
						"value": "t_struct(Commitment)450_storage"
					},
					"t_struct(Commitment)450_storage": {
						"encoding": "inplace",
						"label": "struct Operator.Commitment",
						"members": [
							{
								"astId": 447,
								"contract": "@chainlink/contracts/src/v0.7/Operator.sol:Operator",
								"label": "paramsHash",
								"offset": 0,
								"slot": "0",
								"type": "t_bytes31"
							},
							{
								"astId": 449,
								"contract": "@chainlink/contracts/src/v0.7/Operator.sol:Operator",
								"label": "dataVersion",
								"offset": 31,
								"slot": "0",
								"type": "t_uint8"
							}
						],
						"numberOfBytes": "32"
					},
					"t_uint256": {
						"encoding": "inplace",
						"label": "uint256",
						"numberOfBytes": "32"
					},
					"t_uint8": {
						"encoding": "inplace",
						"label": "uint8",
						"numberOfBytes": "1"
					}
				}
			},
			"userdoc": {
				"kind": "user",
				"methods": {
					"acceptAuthorizedReceivers(address[],address[])": {
						"notice": "Accepts ownership of ownable contracts and then immediately sets the authorized sender list on each of the newly owned contracts. This is primarily intended for Authorized Forwarders but could possibly be extended to work with future contracts."
					},
					"acceptOwnableContracts(address[])": {
						"notice": "Accept the ownership of an ownable contract. This is primarily intended for Authorized Forwarders but could possibly be extended to work with future contracts."
					},
					"acceptOwnership()": {
						"notice": "Allows an ownership transfer to be completed by the recipient."
					},
					"cancelOracleRequest(bytes32,uint256,bytes4,uint256)": {
						"notice": "Allows recipient to cancel requests sent to this oracle contract. Will transfer the LINK sent for the request back to the recipient address."
					},
					"cancelOracleRequestByRequester(uint256,uint256,bytes4,uint256)": {
						"notice": "Allows requester to cancel requests sent to this oracle contract. Will transfer the LINK sent for the request back to the recipient address."
					},
					"constructor": {
						"notice": "Deploy with the address of the LINK token"
					},
					"distributeFunds(address[],uint256[])": {
						"notice": "Distribute funds to multiple addresses using ETH send to this payable function."
					},
					"fulfillOracleRequest(bytes32,uint256,address,bytes4,uint256,bytes32)": {
						"notice": "Called by the Chainlink node to fulfill requests"
					},
					"fulfillOracleRequest2(bytes32,uint256,address,bytes4,uint256,bytes)": {
						"notice": "Called by the Chainlink node to fulfill requests with multi-word support"
					},
					"getAuthorizedSenders()": {
						"notice": "Retrieve a list of authorized senders"
					},
					"getChainlinkToken()": {
						"notice": "Returns the address of the LINK token"
					},
					"isAuthorizedSender(address)": {
						"notice": "Use this to check if a node is authorized for fulfilling requests"
					},
					"onTokenTransfer(address,uint256,bytes)": {
						"notice": "Called when LINK is sent to the contract via `transferAndCall`"
					},
					"operatorRequest(address,uint256,bytes32,bytes4,uint256,uint256,bytes)": {
						"notice": "Creates the Chainlink request"
					},
					"oracleRequest(address,uint256,bytes32,address,bytes4,uint256,uint256,bytes)": {
						"notice": "Creates the Chainlink request. This is a backwards compatible API with the Oracle.sol contract, but the behavior changes because callbackAddress is assumed to be the same as the request sender."
					},
					"owner()": {
						"notice": "Get the current owner"
					},
					"ownerForward(address,bytes)": {
						"notice": "Forward a call to another contract"
					},
					"ownerTransferAndCall(address,uint256,bytes)": {
						"notice": "Interact with other LinkTokenReceiver contracts by calling transferAndCall"
					},
					"setAuthorizedSenders(address[])": {
						"notice": "Sets the fulfillment permission for a given node. Use `true` to allow, `false` to disallow."
					},
					"setAuthorizedSendersOn(address[],address[])": {
						"notice": "Sets the fulfillment permission for"
					},
					"transferOwnableContracts(address[],address)": {
						"notice": "Transfer the ownership of ownable contracts. This is primarily intended for Authorized Forwarders but could possibly be extended to work with future contracts."
					},
					"transferOwnership(address)": {
						"notice": "Allows an owner to begin transferring ownership to a new address, pending."
					},
					"typeAndVersion()": {
						"notice": "The type and version of this contract"
					},
					"withdraw(address,uint256)": {
						"notice": "Allows the node operator to withdraw earned LINK to a given address"
					},
					"withdrawable()": {
						"notice": "Displays the amount of LINK that is available for the node operator to withdraw"
					}
				},
				"notice": "Node operators can deploy this contract to fulfill requests sent to them",
				"version": 1
			}
		}
	}
}