{
	"contracts/ChainlinkConsumer.sol": {
		"APIConsumer": {
			"abi": [
				{
					"inputs": [
						{
							"internalType": "string",
							"name": "_league",
							"type": "string"
						}
					],
					"stateMutability": "nonpayable",
					"type": "constructor"
				},
				{
					"anonymous": false,
					"inputs": [
						{
							"indexed": true,
							"internalType": "bytes32",
							"name": "id",
							"type": "bytes32"
						}
					],
					"name": "ChainlinkCancelled",
					"type": "event"
				},
				{
					"anonymous": false,
					"inputs": [
						{
							"indexed": true,
							"internalType": "bytes32",
							"name": "id",
							"type": "bytes32"
						}
					],
					"name": "ChainlinkFulfilled",
					"type": "event"
				},
				{
					"anonymous": false,
					"inputs": [
						{
							"indexed": true,
							"internalType": "bytes32",
							"name": "id",
							"type": "bytes32"
						}
					],
					"name": "ChainlinkRequested",
					"type": "event"
				},
				{
					"anonymous": false,
					"inputs": [
						{
							"indexed": true,
							"internalType": "address",
							"name": "from",
							"type": "address"
						},
						{
							"indexed": true,
							"internalType": "address",
							"name": "to",
							"type": "address"
						}
					],
					"name": "OwnershipTransferRequested",
					"type": "event"
				},
				{
					"anonymous": false,
					"inputs": [
						{
							"indexed": true,
							"internalType": "address",
							"name": "from",
							"type": "address"
						},
						{
							"indexed": true,
							"internalType": "address",
							"name": "to",
							"type": "address"
						}
					],
					"name": "OwnershipTransferred",
					"type": "event"
				},
				{
					"anonymous": false,
					"inputs": [
						{
							"indexed": true,
							"internalType": "bytes32",
							"name": "requestId",
							"type": "bytes32"
						},
						{
							"indexed": false,
							"internalType": "uint256",
							"name": "winner",
							"type": "uint256"
						},
						{
							"indexed": false,
							"internalType": "uint256",
							"name": "winner2",
							"type": "uint256"
						},
						{
							"indexed": false,
							"internalType": "uint256",
							"name": "winner3",
							"type": "uint256"
						}
					],
					"name": "RequestWinner",
					"type": "event"
				},
				{
					"inputs": [],
					"name": "acceptOwnership",
					"outputs": [],
					"stateMutability": "nonpayable",
					"type": "function"
				},
				{
					"inputs": [
						{
							"internalType": "bytes32",
							"name": "_requestId",
							"type": "bytes32"
						},
						{
							"internalType": "uint256",
							"name": "_winner",
							"type": "uint256"
						},
						{
							"internalType": "uint256",
							"name": "_winner2",
							"type": "uint256"
						},
						{
							"internalType": "uint256",
							"name": "_winner3",
							"type": "uint256"
						}
					],
					"name": "fulfillOracleRequest",
					"outputs": [],
					"stateMutability": "nonpayable",
					"type": "function"
				},
				{
					"inputs": [],
					"name": "league",
					"outputs": [
						{
							"internalType": "string",
							"name": "",
							"type": "string"
						}
					],
					"stateMutability": "view",
					"type": "function"
				},
				{
					"inputs": [],
					"name": "owner",
					"outputs": [
						{
							"internalType": "address",
							"name": "",
							"type": "address"
						}
					],
					"stateMutability": "view",
					"type": "function"
				},
				{
					"inputs": [],
					"name": "requestWinner",
					"outputs": [
						{
							"internalType": "bytes32",
							"name": "requestId",
							"type": "bytes32"
						}
					],
					"stateMutability": "nonpayable",
					"type": "function"
				},
				{
					"inputs": [
						{
							"internalType": "uint256",
							"name": "id",
							"type": "uint256"
						}
					],
					"name": "setWinner",
					"outputs": [],
					"stateMutability": "nonpayable",
					"type": "function"
				},
				{
					"inputs": [
						{
							"internalType": "uint256",
							"name": "id",
							"type": "uint256"
						}
					],
					"name": "setWinner2",
					"outputs": [],
					"stateMutability": "nonpayable",
					"type": "function"
				},
				{
					"inputs": [
						{
							"internalType": "uint256",
							"name": "id",
							"type": "uint256"
						}
					],
					"name": "setWinner3",
					"outputs": [],
					"stateMutability": "nonpayable",
					"type": "function"
				},
				{
					"inputs": [
						{
							"internalType": "address",
							"name": "to",
							"type": "address"
						}
					],
					"name": "transferOwnership",
					"outputs": [],
					"stateMutability": "nonpayable",
					"type": "function"
				},
				{
					"inputs": [],
					"name": "winner",
					"outputs": [
						{
							"internalType": "uint256",
							"name": "",
							"type": "uint256"
						}
					],
					"stateMutability": "view",
					"type": "function"
				},
				{
					"inputs": [],
					"name": "winner2",
					"outputs": [
						{
							"internalType": "uint256",
							"name": "",
							"type": "uint256"
						}
					],
					"stateMutability": "view",
					"type": "function"
				},
				{
					"inputs": [],
					"name": "winner3",
					"outputs": [
						{
							"internalType": "uint256",
							"name": "",
							"type": "uint256"
						}
					],
					"stateMutability": "view",
					"type": "function"
				},
				{
					"inputs": [],
					"name": "withdrawLink",
					"outputs": [],
					"stateMutability": "nonpayable",
					"type": "function"
				}
			],
			"devdoc": {
				"kind": "dev",
				"methods": {},
				"version": 1
			},
			"evm": {
				"assembly": "    /* \"contracts/ChainlinkConsumer.sol\":362:3350  contract APIConsumer is ChainlinkClient, ConfirmedOwner {... */\n  mstore(0x40, 0x80)\n    /* \"@chainlink/contracts/src/v0.8/ChainlinkClient.sol\":1291:1292  1 */\n  0x01\n    /* \"@chainlink/contracts/src/v0.8/ChainlinkClient.sol\":1258:1292  uint256 private s_requestCount = 1 */\n  0x04\n  sstore\n    /* \"contracts/ChainlinkConsumer.sol\":805:1706  constructor(string memory _league) ConfirmedOwner(msg.sender) {... */\n  callvalue\n  dup1\n  iszero\n  tag_1\n  jumpi\n  0x00\n  dup1\n  revert\ntag_1:\n  pop\n  mload(0x40)\n  sub(codesize, bytecodeSize)\n  dup1\n  bytecodeSize\n  dup4\n  codecopy\n  dup2\n  add\n  0x40\n  dup2\n  swap1\n  mstore\n  tag_2\n  swap2\n  tag_3\n  jump\t// in\ntag_2:\n    /* \"contracts/ChainlinkConsumer.sol\":855:865  msg.sender */\n  caller\n  dup1\n    /* \"@chainlink/contracts/src/v0.8/ConfirmedOwner.sol\":345:346  0 */\n  0x00\n    /* \"contracts/ChainlinkConsumer.sol\":855:865  msg.sender */\n  dup2\n    /* \"@chainlink/contracts/src/v0.8/ConfirmedOwnerWithProposal.sol\":544:603  require(newOwner != address(0), \"Cannot set owner to zero\") */\n  tag_8\n  jumpi\n  mload(0x40)\n  shl(0xe5, 0x461bcd)\n  dup2\n  mstore\n    /* \"#utility.yul\":1500:1502   */\n  0x20\n    /* \"@chainlink/contracts/src/v0.8/ConfirmedOwnerWithProposal.sol\":544:603  require(newOwner != address(0), \"Cannot set owner to zero\") */\n  0x04\n  dup3\n  add\n    /* \"#utility.yul\":1482:1503   */\n  mstore\n    /* \"#utility.yul\":1539:1541   */\n  0x18\n    /* \"#utility.yul\":1519:1537   */\n  0x24\n  dup3\n  add\n    /* \"#utility.yul\":1512:1542   */\n  mstore\n    /* \"#utility.yul\":1578:1604   */\n  0x43616e6e6f7420736574206f776e657220746f207a65726f0000000000000000\n    /* \"#utility.yul\":1558:1576   */\n  0x44\n  dup3\n  add\n    /* \"#utility.yul\":1551:1605   */\n  mstore\n    /* \"#utility.yul\":1622:1640   */\n  0x64\n  add\n    /* \"@chainlink/contracts/src/v0.8/ConfirmedOwnerWithProposal.sol\":544:603  require(newOwner != address(0), \"Cannot set owner to zero\") */\ntag_9:\n  mload(0x40)\n  dup1\n  swap2\n  sub\n  swap1\n  revert\ntag_8:\n    /* \"@chainlink/contracts/src/v0.8/ConfirmedOwnerWithProposal.sol\":610:617  s_owner */\n  0x06\n    /* \"@chainlink/contracts/src/v0.8/ConfirmedOwnerWithProposal.sol\":610:628  s_owner = newOwner */\n  dup1\n  sload\n  not(sub(shl(0xa0, 0x01), 0x01))\n  and\n  sub(shl(0xa0, 0x01), 0x01)\n  dup5\n  dup2\n  and\n  swap2\n  swap1\n  swap2\n  or\n  swap1\n  swap2\n  sstore\n    /* \"@chainlink/contracts/src/v0.8/ConfirmedOwnerWithProposal.sol\":638:664  pendingOwner != address(0) */\n  dup2\n  and\n  iszero\n    /* \"@chainlink/contracts/src/v0.8/ConfirmedOwnerWithProposal.sol\":634:713  if (pendingOwner != address(0)) {... */\n  tag_12\n  jumpi\n    /* \"@chainlink/contracts/src/v0.8/ConfirmedOwnerWithProposal.sol\":674:706  _transferOwnership(pendingOwner) */\n  tag_12\n    /* \"@chainlink/contracts/src/v0.8/ConfirmedOwnerWithProposal.sol\":693:705  pendingOwner */\n  dup2\n    /* \"@chainlink/contracts/src/v0.8/ConfirmedOwnerWithProposal.sol\":674:692  _transferOwnership */\n  tag_13\n    /* \"@chainlink/contracts/src/v0.8/ConfirmedOwnerWithProposal.sol\":674:706  _transferOwnership(pendingOwner) */\n  jump\t// in\ntag_12:\n    /* \"@chainlink/contracts/src/v0.8/ConfirmedOwnerWithProposal.sol\":486:717  constructor(address newOwner, address pendingOwner) {... */\n  pop\n  pop\n    /* \"@chainlink/contracts/src/v0.8/ConfirmedOwner.sol\":270:351  constructor(address newOwner) ConfirmedOwnerWithProposal(newOwner, address(0)) {} */\n  pop\n    /* \"contracts/ChainlinkConsumer.sol\":878:899  string memory baseURL */\n  0x00\n    /* \"contracts/ChainlinkConsumer.sol\":878:949  string memory baseURL = \"http://api.football-data.org/v4/competitions/\" */\n  mload(0x40)\n  dup1\n  0x60\n  add\n  0x40\n  mstore\n  dup1\n  0x2d\n  dup2\n  mstore\n  0x20\n  add\n  data_6fc87d337cfc4c898418b7cabed453d3744888e14c12ece71e04efd1e2f026fb\n  0x2d\n  swap2\n  codecopy\n  swap1\n  pop\n    /* \"contracts/ChainlinkConsumer.sol\":960:982  string memory endpoint */\n  0x00\n    /* \"contracts/ChainlinkConsumer.sol\":960:997  string memory endpoint = \"/standings\" */\n  mload(0x40)\n  dup1\n  0x40\n  add\n  0x40\n  mstore\n  dup1\n  0x0a\n  dup2\n  mstore\n  0x20\n  add\n  shl(0xb0, 0x2f7374616e64696e6773)\n  dup2\n  mstore\n  pop\n  swap1\n  pop\n    /* \"contracts/ChainlinkConsumer.sol\":1018:1025  _league */\n  dup3\n    /* \"contracts/ChainlinkConsumer.sol\":1009:1015  league */\n  0x0e\n    /* \"contracts/ChainlinkConsumer.sol\":1009:1025  league = _league */\n  swap1\n  dup1\n  mload\n  swap1\n  0x20\n  add\n  swap1\n  tag_16\n  swap3\n  swap2\n  swap1\n  tag_17\n  jump\t// in\ntag_16:\n  pop\n    /* \"contracts/ChainlinkConsumer.sol\":1042:1081  baseURL.concat(league).concat(endpoint) */\n  tag_18\n    /* \"contracts/ChainlinkConsumer.sol\":1072:1080  endpoint */\n  dup2\n    /* \"contracts/ChainlinkConsumer.sol\":1042:1064  baseURL.concat(league) */\n  tag_19\n    /* \"contracts/ChainlinkConsumer.sol\":1057:1063  league */\n  0x0e\n    /* \"contracts/ChainlinkConsumer.sol\":1042:1064  baseURL.concat(league) */\n  dup1\n  sload\n  tag_20\n  swap1\n  tag_21\n  jump\t// in\ntag_20:\n  dup1\n  0x1f\n  add\n  0x20\n  dup1\n  swap2\n  div\n  mul\n  0x20\n  add\n  mload(0x40)\n  swap1\n  dup2\n  add\n  0x40\n  mstore\n  dup1\n  swap3\n  swap2\n  swap1\n  dup2\n  dup2\n  mstore\n  0x20\n  add\n  dup3\n  dup1\n  sload\n  tag_22\n  swap1\n  tag_21\n  jump\t// in\ntag_22:\n  dup1\n  iszero\n  tag_23\n  jumpi\n  dup1\n  0x1f\n  lt\n  tag_24\n  jumpi\n  0x0100\n  dup1\n  dup4\n  sload\n  div\n  mul\n  dup4\n  mstore\n  swap2\n  0x20\n  add\n  swap2\n  jump(tag_23)\ntag_24:\n  dup3\n  add\n  swap2\n  swap1\n  0x00\n  mstore\n  keccak256(0x00, 0x20)\n  swap1\ntag_25:\n  dup2\n  sload\n  dup2\n  mstore\n  swap1\n  0x01\n  add\n  swap1\n  0x20\n  add\n  dup1\n  dup4\n  gt\n  tag_25\n  jumpi\n  dup3\n  swap1\n  sub\n  0x1f\n  and\n  dup3\n  add\n  swap2\ntag_23:\n  pop\n  pop\n  pop\n  pop\n  pop\n    /* \"contracts/ChainlinkConsumer.sol\":1042:1049  baseURL */\n  dup6\n    /* \"contracts/ChainlinkConsumer.sol\":1042:1056  baseURL.concat */\n  or(tag_0_63, shl(0x20, tag_26))\n  swap1\n    /* \"contracts/ChainlinkConsumer.sol\":1042:1064  baseURL.concat(league) */\n  swap2\n  swap1\n  0x20\n  shr\n  jump\t// in\ntag_19:\n    /* \"contracts/ChainlinkConsumer.sol\":1042:1071  baseURL.concat(league).concat */\n  or(tag_0_63, shl(0x20, tag_26))\n  swap1\n    /* \"contracts/ChainlinkConsumer.sol\":1042:1081  baseURL.concat(league).concat(endpoint) */\n  swap2\n  swap1\n  0x20\n  shr\n  jump\t// in\ntag_18:\n    /* \"contracts/ChainlinkConsumer.sol\":1036:1081  URL = baseURL.concat(league).concat(endpoint) */\n  dup1\n  mload\n  tag_27\n  swap2\n    /* \"contracts/ChainlinkConsumer.sol\":1036:1039  URL */\n  0x0d\n  swap2\n    /* \"contracts/ChainlinkConsumer.sol\":1036:1081  URL = baseURL.concat(league).concat(endpoint) */\n  0x20\n  swap1\n  swap2\n  add\n  swap1\n  tag_17\n  jump\t// in\ntag_27:\n  pop\n    /* \"@chainlink/contracts/src/v0.8/ChainlinkClient.sol\":8457:8465  s_oracle */\n  0x03\n    /* \"@chainlink/contracts/src/v0.8/ChainlinkClient.sol\":8457:8500  s_oracle = OperatorInterface(oracleAddress) */\n  dup1\n  sload\n  not(sub(shl(0xa0, 0x01), 0x01))\n  and\n    /* \"contracts/ChainlinkConsumer.sol\":1111:1153  0x7ca7215c6B8013f249A195cc107F97c4e623e5F5 */\n  0x7ca7215c6b8013f249a195cc107f97c4e623e5f5\n    /* \"@chainlink/contracts/src/v0.8/ChainlinkClient.sol\":8457:8500  s_oracle = OperatorInterface(oracleAddress) */\n  or\n  swap1\n  sstore\n    /* \"@chainlink/contracts/src/v0.8/ChainlinkClient.sol\":8688:8694  s_link */\n  0x02\n    /* \"@chainlink/contracts/src/v0.8/ChainlinkClient.sol\":8688:8728  s_link = LinkTokenInterface(linkAddress) */\n  dup1\n  sload\n  not(sub(shl(0xa0, 0x01), 0x01))\n  and\n    /* \"contracts/ChainlinkConsumer.sol\":1422:1464  0x326C977E6efc84E512bB9C30f76E30c160eD06FB */\n  0x326c977e6efc84e512bb9c30f76e30c160ed06fb\n    /* \"@chainlink/contracts/src/v0.8/ChainlinkClient.sol\":8688:8728  s_link = LinkTokenInterface(linkAddress) */\n  or\n  swap1\n  sstore\n    /* \"contracts/ChainlinkConsumer.sol\":1573:1615  jobId = \"cd3a5f8dcac245e9a3ff58d59b445595\" */\n  0x6364336135663864636163323435653961336666353864353962343435353935\n    /* \"contracts/ChainlinkConsumer.sol\":1573:1578  jobId */\n  0x0b\n    /* \"contracts/ChainlinkConsumer.sol\":1573:1615  jobId = \"cd3a5f8dcac245e9a3ff58d59b445595\" */\n  sstore\n    /* \"contracts/ChainlinkConsumer.sol\":1679:1681  20 */\n  0x14\n    /* \"contracts/ChainlinkConsumer.sol\":1654:1675  1 * LINK_DIVISIBILITY */\n  tag_32\n    /* \"@chainlink/contracts/src/v0.8/ChainlinkClient.sol\":675:681  10**18 */\n  0x0de0b6b3a7640000\n    /* \"contracts/ChainlinkConsumer.sol\":1654:1655  1 */\n  0x01\n    /* \"contracts/ChainlinkConsumer.sol\":1654:1675  1 * LINK_DIVISIBILITY */\n  tag_33\n  jump\t// in\ntag_32:\n    /* \"contracts/ChainlinkConsumer.sol\":1653:1681  (1 * LINK_DIVISIBILITY) / 20 */\n  tag_34\n  swap2\n  swap1\n  tag_35\n  jump\t// in\ntag_34:\n    /* \"contracts/ChainlinkConsumer.sol\":1647:1650  fee */\n  0x0c\n    /* \"contracts/ChainlinkConsumer.sol\":1647:1681  fee = (1 * LINK_DIVISIBILITY) / 20 */\n  sstore\n  pop\n    /* \"contracts/ChainlinkConsumer.sol\":362:3350  contract APIConsumer is ChainlinkClient, ConfirmedOwner {... */\n  tag_58\n  swap2\n  pop\n  pop\n  jump\n    /* \"@chainlink/contracts/src/v0.8/ConfirmedOwnerWithProposal.sol\":1497:1685  function _transferOwnership(address to) private {... */\ntag_13:\n    /* \"@chainlink/contracts/src/v0.8/ConfirmedOwnerWithProposal.sol\":1565:1575  msg.sender */\n  caller\n  sub(shl(0xa0, 0x01), 0x01)\n    /* \"@chainlink/contracts/src/v0.8/ConfirmedOwnerWithProposal.sol\":1559:1575  to != msg.sender */\n  dup3\n  and\n  sub\n    /* \"@chainlink/contracts/src/v0.8/ConfirmedOwnerWithProposal.sol\":1551:1603  require(to != msg.sender, \"Cannot transfer to self\") */\n  tag_38\n  jumpi\n  mload(0x40)\n  shl(0xe5, 0x461bcd)\n  dup2\n  mstore\n    /* \"#utility.yul\":2730:2732   */\n  0x20\n    /* \"@chainlink/contracts/src/v0.8/ConfirmedOwnerWithProposal.sol\":1551:1603  require(to != msg.sender, \"Cannot transfer to self\") */\n  0x04\n  dup3\n  add\n    /* \"#utility.yul\":2712:2733   */\n  mstore\n    /* \"#utility.yul\":2769:2771   */\n  0x17\n    /* \"#utility.yul\":2749:2767   */\n  0x24\n  dup3\n  add\n    /* \"#utility.yul\":2742:2772   */\n  mstore\n    /* \"#utility.yul\":2808:2833   */\n  0x43616e6e6f74207472616e7366657220746f2073656c66000000000000000000\n    /* \"#utility.yul\":2788:2806   */\n  0x44\n  dup3\n  add\n    /* \"#utility.yul\":2781:2834   */\n  mstore\n    /* \"#utility.yul\":2851:2869   */\n  0x64\n  add\n    /* \"@chainlink/contracts/src/v0.8/ConfirmedOwnerWithProposal.sol\":1551:1603  require(to != msg.sender, \"Cannot transfer to self\") */\n  tag_9\n    /* \"#utility.yul\":2528:2875   */\n  jump\n    /* \"@chainlink/contracts/src/v0.8/ConfirmedOwnerWithProposal.sol\":1551:1603  require(to != msg.sender, \"Cannot transfer to self\") */\ntag_38:\n    /* \"@chainlink/contracts/src/v0.8/ConfirmedOwnerWithProposal.sol\":1610:1624  s_pendingOwner */\n  0x07\n    /* \"@chainlink/contracts/src/v0.8/ConfirmedOwnerWithProposal.sol\":1610:1629  s_pendingOwner = to */\n  dup1\n  sload\n  not(sub(shl(0xa0, 0x01), 0x01))\n  and\n  sub(shl(0xa0, 0x01), 0x01)\n  dup4\n  dup2\n  and\n  swap2\n  dup3\n  or\n  swap1\n  swap3\n  sstore\n    /* \"@chainlink/contracts/src/v0.8/ConfirmedOwnerWithProposal.sol\":1668:1675  s_owner */\n  sload(0x06)\n    /* \"@chainlink/contracts/src/v0.8/ConfirmedOwnerWithProposal.sol\":1641:1680  OwnershipTransferRequested(s_owner, to) */\n  mload(0x40)\n    /* \"@chainlink/contracts/src/v0.8/ConfirmedOwnerWithProposal.sol\":1610:1629  s_pendingOwner = to */\n  swap2\n  swap3\n    /* \"@chainlink/contracts/src/v0.8/ConfirmedOwnerWithProposal.sol\":1668:1675  s_owner */\n  and\n  swap1\n    /* \"@chainlink/contracts/src/v0.8/ConfirmedOwnerWithProposal.sol\":1641:1680  OwnershipTransferRequested(s_owner, to) */\n  0xed8889f560326eb138920d842192f0eb3dd22b4f139c87a2c57538e05bae1278\n  swap1\n  0x00\n  swap1\n  log3\n    /* \"@chainlink/contracts/src/v0.8/ConfirmedOwnerWithProposal.sol\":1497:1685  function _transferOwnership(address to) private {... */\n  pop\n  jump\t// out\n    /* \"contracts/ChainlinkConsumer.sol\":211:355  function concat(string memory a, string memory b) internal pure returns (string memory) {... */\ntag_26:\n    /* \"contracts/ChainlinkConsumer.sol\":284:297  string memory */\n  0x60\n    /* \"contracts/ChainlinkConsumer.sol\":341:342  a */\n  dup3\n    /* \"contracts/ChainlinkConsumer.sol\":344:345  b */\n  dup3\n    /* \"contracts/ChainlinkConsumer.sol\":324:346  abi.encodePacked(a, b) */\n  add(0x20, mload(0x40))\n  tag_42\n  swap3\n  swap2\n  swap1\n  tag_43\n  jump\t// in\ntag_42:\n  mload(0x40)\n  0x20\n  dup2\n  dup4\n  sub\n  sub\n  dup2\n  mstore\n  swap1\n  0x40\n  mstore\n    /* \"contracts/ChainlinkConsumer.sol\":310:347  return string(abi.encodePacked(a, b)) */\n  swap1\n  pop\n    /* \"contracts/ChainlinkConsumer.sol\":211:355  function concat(string memory a, string memory b) internal pure returns (string memory) {... */\n  swap3\n  swap2\n  pop\n  pop\n  jump\t// out\n    /* \"contracts/ChainlinkConsumer.sol\":362:3350  contract APIConsumer is ChainlinkClient, ConfirmedOwner {... */\ntag_17:\n  dup3\n  dup1\n  sload\n  tag_46\n  swap1\n  tag_21\n  jump\t// in\ntag_46:\n  swap1\n  0x00\n  mstore\n  keccak256(0x00, 0x20)\n  swap1\n  0x1f\n  add\n  0x20\n  swap1\n  div\n  dup2\n  add\n  swap3\n  dup3\n  tag_48\n  jumpi\n  0x00\n  dup6\n  sstore\n  jump(tag_51)\ntag_48:\n  dup3\n  0x1f\n  lt\n  tag_49\n  jumpi\n  dup1\n  mload\n  not(0xff)\n  and\n  dup4\n  dup1\n  add\n  or\n  dup6\n  sstore\n  jump(tag_51)\ntag_49:\n  dup3\n  dup1\n  add\n  0x01\n  add\n  dup6\n  sstore\n  dup3\n  iszero\n  tag_51\n  jumpi\n  swap2\n  dup3\n  add\ntag_50:\n  dup3\n  dup2\n  gt\n  iszero\n  tag_51\n  jumpi\n  dup3\n  mload\n  dup3\n  sstore\n  swap2\n  0x20\n  add\n  swap2\n  swap1\n  0x01\n  add\n  swap1\n  jump(tag_50)\ntag_51:\n  pop\n  tag_52\n  swap3\n  swap2\n  pop\n  tag_53\n  jump\t// in\ntag_52:\n  pop\n  swap1\n  jump\t// out\ntag_53:\ntag_54:\n  dup1\n  dup3\n  gt\n  iszero\n  tag_52\n  jumpi\n  0x00\n  dup2\n  sstore\n  0x01\n  add\n  jump(tag_54)\n    /* \"#utility.yul\":14:141   */\ntag_56:\n    /* \"#utility.yul\":75:85   */\n  0x4e487b71\n    /* \"#utility.yul\":70:73   */\n  0xe0\n    /* \"#utility.yul\":66:86   */\n  shl\n    /* \"#utility.yul\":63:64   */\n  0x00\n    /* \"#utility.yul\":56:87   */\n  mstore\n    /* \"#utility.yul\":106:110   */\n  0x41\n    /* \"#utility.yul\":103:104   */\n  0x04\n    /* \"#utility.yul\":96:111   */\n  mstore\n    /* \"#utility.yul\":130:134   */\n  0x24\n    /* \"#utility.yul\":127:128   */\n  0x00\n    /* \"#utility.yul\":120:135   */\n  revert\n    /* \"#utility.yul\":146:404   */\ntag_57:\n    /* \"#utility.yul\":218:219   */\n  0x00\n    /* \"#utility.yul\":228:341   */\ntag_61:\n    /* \"#utility.yul\":242:248   */\n  dup4\n    /* \"#utility.yul\":239:240   */\n  dup2\n    /* \"#utility.yul\":236:249   */\n  lt\n    /* \"#utility.yul\":228:341   */\n  iszero\n  tag_63\n  jumpi\n    /* \"#utility.yul\":318:329   */\n  dup2\n  dup2\n  add\n    /* \"#utility.yul\":312:330   */\n  mload\n    /* \"#utility.yul\":299:310   */\n  dup4\n  dup3\n  add\n    /* \"#utility.yul\":292:331   */\n  mstore\n    /* \"#utility.yul\":264:266   */\n  0x20\n    /* \"#utility.yul\":257:267   */\n  add\n    /* \"#utility.yul\":228:341   */\n  jump(tag_61)\ntag_63:\n    /* \"#utility.yul\":359:365   */\n  dup4\n    /* \"#utility.yul\":356:357   */\n  dup2\n    /* \"#utility.yul\":353:366   */\n  gt\n    /* \"#utility.yul\":350:398   */\n  iszero\n  tag_64\n  jumpi\n    /* \"#utility.yul\":394:395   */\n  0x00\n    /* \"#utility.yul\":385:391   */\n  dup5\n    /* \"#utility.yul\":380:383   */\n  dup5\n    /* \"#utility.yul\":376:392   */\n  add\n    /* \"#utility.yul\":369:396   */\n  mstore\n    /* \"#utility.yul\":350:398   */\ntag_64:\n  pop\n    /* \"#utility.yul\":146:404   */\n  pop\n  pop\n  pop\n  jump\t// out\n    /* \"#utility.yul\":409:1293   */\ntag_3:\n    /* \"#utility.yul\":489:495   */\n  0x00\n    /* \"#utility.yul\":542:544   */\n  0x20\n    /* \"#utility.yul\":530:539   */\n  dup3\n    /* \"#utility.yul\":521:528   */\n  dup5\n    /* \"#utility.yul\":517:540   */\n  sub\n    /* \"#utility.yul\":513:545   */\n  slt\n    /* \"#utility.yul\":510:562   */\n  iszero\n  tag_66\n  jumpi\n    /* \"#utility.yul\":558:559   */\n  0x00\n    /* \"#utility.yul\":555:556   */\n  dup1\n    /* \"#utility.yul\":548:560   */\n  revert\n    /* \"#utility.yul\":510:562   */\ntag_66:\n    /* \"#utility.yul\":585:601   */\n  dup2\n  mload\n  sub(shl(0x40, 0x01), 0x01)\n    /* \"#utility.yul\":650:664   */\n  dup1\n  dup3\n  gt\n    /* \"#utility.yul\":647:681   */\n  iszero\n  tag_67\n  jumpi\n    /* \"#utility.yul\":677:678   */\n  0x00\n    /* \"#utility.yul\":674:675   */\n  dup1\n    /* \"#utility.yul\":667:679   */\n  revert\n    /* \"#utility.yul\":647:681   */\ntag_67:\n    /* \"#utility.yul\":715:721   */\n  dup2\n    /* \"#utility.yul\":704:713   */\n  dup5\n    /* \"#utility.yul\":700:722   */\n  add\n    /* \"#utility.yul\":690:722   */\n  swap2\n  pop\n    /* \"#utility.yul\":760:767   */\n  dup5\n    /* \"#utility.yul\":753:757   */\n  0x1f\n    /* \"#utility.yul\":749:751   */\n  dup4\n    /* \"#utility.yul\":745:758   */\n  add\n    /* \"#utility.yul\":741:768   */\n  slt\n    /* \"#utility.yul\":731:786   */\n  tag_68\n  jumpi\n    /* \"#utility.yul\":782:783   */\n  0x00\n    /* \"#utility.yul\":779:780   */\n  dup1\n    /* \"#utility.yul\":772:784   */\n  revert\n    /* \"#utility.yul\":731:786   */\ntag_68:\n    /* \"#utility.yul\":811:813   */\n  dup2\n    /* \"#utility.yul\":805:814   */\n  mload\n    /* \"#utility.yul\":833:835   */\n  dup2\n    /* \"#utility.yul\":829:831   */\n  dup2\n    /* \"#utility.yul\":826:836   */\n  gt\n    /* \"#utility.yul\":823:859   */\n  iszero\n  tag_70\n  jumpi\n    /* \"#utility.yul\":839:857   */\n  tag_70\n  tag_56\n  jump\t// in\ntag_70:\n    /* \"#utility.yul\":914:916   */\n  0x40\n    /* \"#utility.yul\":908:917   */\n  mload\n    /* \"#utility.yul\":882:884   */\n  0x1f\n    /* \"#utility.yul\":968:981   */\n  dup3\n  add\n  not(0x1f)\n    /* \"#utility.yul\":964:986   */\n  swap1\n  dup2\n  and\n    /* \"#utility.yul\":988:990   */\n  0x3f\n    /* \"#utility.yul\":960:991   */\n  add\n    /* \"#utility.yul\":956:996   */\n  and\n    /* \"#utility.yul\":944:997   */\n  dup2\n  add\n  swap1\n    /* \"#utility.yul\":1012:1030   */\n  dup4\n  dup3\n  gt\n    /* \"#utility.yul\":1032:1054   */\n  dup2\n  dup4\n  lt\n    /* \"#utility.yul\":1009:1055   */\n  or\n    /* \"#utility.yul\":1006:1078   */\n  iszero\n  tag_72\n  jumpi\n    /* \"#utility.yul\":1058:1076   */\n  tag_72\n  tag_56\n  jump\t// in\ntag_72:\n    /* \"#utility.yul\":1098:1108   */\n  dup2\n    /* \"#utility.yul\":1094:1096   */\n  0x40\n    /* \"#utility.yul\":1087:1109   */\n  mstore\n    /* \"#utility.yul\":1133:1135   */\n  dup3\n    /* \"#utility.yul\":1125:1131   */\n  dup2\n    /* \"#utility.yul\":1118:1136   */\n  mstore\n    /* \"#utility.yul\":1173:1180   */\n  dup8\n    /* \"#utility.yul\":1168:1170   */\n  0x20\n    /* \"#utility.yul\":1163:1165   */\n  dup5\n    /* \"#utility.yul\":1159:1161   */\n  dup8\n    /* \"#utility.yul\":1155:1166   */\n  add\n    /* \"#utility.yul\":1151:1171   */\n  add\n    /* \"#utility.yul\":1148:1181   */\n  gt\n    /* \"#utility.yul\":1145:1198   */\n  iszero\n  tag_73\n  jumpi\n    /* \"#utility.yul\":1194:1195   */\n  0x00\n    /* \"#utility.yul\":1191:1192   */\n  dup1\n    /* \"#utility.yul\":1184:1196   */\n  revert\n    /* \"#utility.yul\":1145:1198   */\ntag_73:\n    /* \"#utility.yul\":1207:1262   */\n  tag_74\n    /* \"#utility.yul\":1259:1261   */\n  dup4\n    /* \"#utility.yul\":1254:1256   */\n  0x20\n    /* \"#utility.yul\":1246:1252   */\n  dup4\n    /* \"#utility.yul\":1242:1257   */\n  add\n    /* \"#utility.yul\":1237:1239   */\n  0x20\n    /* \"#utility.yul\":1233:1235   */\n  dup9\n    /* \"#utility.yul\":1229:1240   */\n  add\n    /* \"#utility.yul\":1207:1262   */\n  tag_57\n  jump\t// in\ntag_74:\n    /* \"#utility.yul\":1281:1287   */\n  swap8\n    /* \"#utility.yul\":409:1293   */\n  swap7\n  pop\n  pop\n  pop\n  pop\n  pop\n  pop\n  pop\n  jump\t// out\n    /* \"#utility.yul\":1651:2031   */\ntag_21:\n    /* \"#utility.yul\":1730:1731   */\n  0x01\n    /* \"#utility.yul\":1726:1738   */\n  dup2\n  dup2\n  shr\n  swap1\n    /* \"#utility.yul\":1773:1785   */\n  dup3\n  and\n  dup1\n    /* \"#utility.yul\":1794:1855   */\n  tag_77\n  jumpi\n    /* \"#utility.yul\":1848:1852   */\n  0x7f\n    /* \"#utility.yul\":1840:1846   */\n  dup3\n    /* \"#utility.yul\":1836:1853   */\n  and\n    /* \"#utility.yul\":1826:1853   */\n  swap2\n  pop\n    /* \"#utility.yul\":1794:1855   */\ntag_77:\n    /* \"#utility.yul\":1901:1903   */\n  0x20\n    /* \"#utility.yul\":1893:1899   */\n  dup3\n    /* \"#utility.yul\":1890:1904   */\n  lt\n    /* \"#utility.yul\":1870:1888   */\n  dup2\n    /* \"#utility.yul\":1867:1905   */\n  sub\n    /* \"#utility.yul\":1864:2025   */\n  tag_78\n  jumpi\n    /* \"#utility.yul\":1947:1957   */\n  0x4e487b71\n    /* \"#utility.yul\":1942:1945   */\n  0xe0\n    /* \"#utility.yul\":1938:1958   */\n  shl\n    /* \"#utility.yul\":1935:1936   */\n  0x00\n    /* \"#utility.yul\":1928:1959   */\n  mstore\n    /* \"#utility.yul\":1982:1986   */\n  0x22\n    /* \"#utility.yul\":1979:1980   */\n  0x04\n    /* \"#utility.yul\":1972:1987   */\n  mstore\n    /* \"#utility.yul\":2010:2014   */\n  0x24\n    /* \"#utility.yul\":2007:2008   */\n  0x00\n    /* \"#utility.yul\":2000:2015   */\n  revert\n    /* \"#utility.yul\":1864:2025   */\ntag_78:\n  pop\n    /* \"#utility.yul\":1651:2031   */\n  swap2\n  swap1\n  pop\n  jump\t// out\n    /* \"#utility.yul\":2036:2301   */\ntag_33:\n    /* \"#utility.yul\":2076:2083   */\n  0x00\n    /* \"#utility.yul\":2142:2143   */\n  dup2\n    /* \"#utility.yul\":2138:2139   */\n  0x00\n    /* \"#utility.yul\":2134:2140   */\n  not\n    /* \"#utility.yul\":2130:2144   */\n  div\n    /* \"#utility.yul\":2127:2128   */\n  dup4\n    /* \"#utility.yul\":2124:2145   */\n  gt\n    /* \"#utility.yul\":2119:2120   */\n  dup3\n    /* \"#utility.yul\":2112:2121   */\n  iszero\n    /* \"#utility.yul\":2105:2122   */\n  iszero\n    /* \"#utility.yul\":2101:2146   */\n  and\n    /* \"#utility.yul\":2098:2266   */\n  iszero\n  tag_80\n  jumpi\n    /* \"#utility.yul\":2188:2198   */\n  0x4e487b71\n    /* \"#utility.yul\":2183:2186   */\n  0xe0\n    /* \"#utility.yul\":2179:2199   */\n  shl\n    /* \"#utility.yul\":2176:2177   */\n  0x00\n    /* \"#utility.yul\":2169:2200   */\n  mstore\n    /* \"#utility.yul\":2223:2227   */\n  0x11\n    /* \"#utility.yul\":2220:2221   */\n  0x04\n    /* \"#utility.yul\":2213:2228   */\n  mstore\n    /* \"#utility.yul\":2251:2255   */\n  0x24\n    /* \"#utility.yul\":2248:2249   */\n  0x00\n    /* \"#utility.yul\":2241:2256   */\n  revert\n    /* \"#utility.yul\":2098:2266   */\ntag_80:\n  pop\n    /* \"#utility.yul\":2286:2295   */\n  mul\n  swap1\n    /* \"#utility.yul\":2036:2301   */\n  jump\t// out\n    /* \"#utility.yul\":2306:2523   */\ntag_35:\n    /* \"#utility.yul\":2346:2347   */\n  0x00\n    /* \"#utility.yul\":2372:2373   */\n  dup3\n    /* \"#utility.yul\":2362:2494   */\n  tag_82\n  jumpi\n    /* \"#utility.yul\":2416:2426   */\n  0x4e487b71\n    /* \"#utility.yul\":2411:2414   */\n  0xe0\n    /* \"#utility.yul\":2407:2427   */\n  shl\n    /* \"#utility.yul\":2404:2405   */\n  0x00\n    /* \"#utility.yul\":2397:2428   */\n  mstore\n    /* \"#utility.yul\":2451:2455   */\n  0x12\n    /* \"#utility.yul\":2448:2449   */\n  0x04\n    /* \"#utility.yul\":2441:2456   */\n  mstore\n    /* \"#utility.yul\":2479:2483   */\n  0x24\n    /* \"#utility.yul\":2476:2477   */\n  0x00\n    /* \"#utility.yul\":2469:2484   */\n  revert\n    /* \"#utility.yul\":2362:2494   */\ntag_82:\n  pop\n    /* \"#utility.yul\":2508:2517   */\n  div\n  swap1\n    /* \"#utility.yul\":2306:2523   */\n  jump\t// out\n    /* \"#utility.yul\":2880:3350   */\ntag_43:\n    /* \"#utility.yul\":3059:3062   */\n  0x00\n    /* \"#utility.yul\":3097:3103   */\n  dup4\n    /* \"#utility.yul\":3091:3104   */\n  mload\n    /* \"#utility.yul\":3113:3166   */\n  tag_85\n    /* \"#utility.yul\":3159:3165   */\n  dup2\n    /* \"#utility.yul\":3154:3157   */\n  dup5\n    /* \"#utility.yul\":3147:3151   */\n  0x20\n    /* \"#utility.yul\":3139:3145   */\n  dup9\n    /* \"#utility.yul\":3135:3152   */\n  add\n    /* \"#utility.yul\":3113:3166   */\n  tag_57\n  jump\t// in\ntag_85:\n    /* \"#utility.yul\":3229:3242   */\n  dup4\n  mload\n    /* \"#utility.yul\":3188:3204   */\n  swap1\n  dup4\n  add\n  swap1\n    /* \"#utility.yul\":3251:3308   */\n  tag_86\n    /* \"#utility.yul\":3229:3242   */\n  dup2\n    /* \"#utility.yul\":3188:3204   */\n  dup4\n    /* \"#utility.yul\":3285:3289   */\n  0x20\n    /* \"#utility.yul\":3273:3290   */\n  dup9\n  add\n    /* \"#utility.yul\":3251:3308   */\n  tag_57\n  jump\t// in\ntag_86:\n    /* \"#utility.yul\":3324:3344   */\n  add\n  swap5\n    /* \"#utility.yul\":2880:3350   */\n  swap4\n  pop\n  pop\n  pop\n  pop\n  jump\t// out\ntag_58:\n    /* \"contracts/ChainlinkConsumer.sol\":362:3350  contract APIConsumer is ChainlinkClient, ConfirmedOwner {... */\n  dataSize(sub_0)\n  dup1\n  dataOffset(sub_0)\n  0x00\n  codecopy\n  0x00\n  return\nstop\ndata_6fc87d337cfc4c898418b7cabed453d3744888e14c12ece71e04efd1e2f026fb 687474703a2f2f6170692e666f6f7462616c6c2d646174612e6f72672f76342f636f6d7065746974696f6e732f\n\nsub_0: assembly {\n        /* \"contracts/ChainlinkConsumer.sol\":362:3350  contract APIConsumer is ChainlinkClient, ConfirmedOwner {... */\n      mstore(0x40, 0x80)\n      callvalue\n      dup1\n      iszero\n      tag_1\n      jumpi\n      0x00\n      dup1\n      revert\n    tag_1:\n      pop\n      jumpi(tag_2, lt(calldatasize, 0x04))\n      shr(0xe0, calldataload(0x00))\n      dup1\n      0x8dc654a2\n      gt\n      tag_16\n      jumpi\n      dup1\n      0xd9b29297\n      gt\n      tag_17\n      jumpi\n      dup1\n      0xd9b29297\n      eq\n      tag_12\n      jumpi\n      dup1\n      0xdfbf53ae\n      eq\n      tag_13\n      jumpi\n      dup1\n      0xf2fde38b\n      eq\n      tag_14\n      jumpi\n      dup1\n      0xf81b5c5b\n      eq\n      tag_15\n      jumpi\n      0x00\n      dup1\n      revert\n    tag_17:\n      dup1\n      0x8dc654a2\n      eq\n      tag_9\n      jumpi\n      dup1\n      0x9ae2c3c6\n      eq\n      tag_10\n      jumpi\n      dup1\n      0xa8d54261\n      eq\n      tag_11\n      jumpi\n      0x00\n      dup1\n      revert\n    tag_16:\n      dup1\n      0x78a7d3af\n      gt\n      tag_18\n      jumpi\n      dup1\n      0x78a7d3af\n      eq\n      tag_6\n      jumpi\n      dup1\n      0x79ba5097\n      eq\n      tag_7\n      jumpi\n      dup1\n      0x8da5cb5b\n      eq\n      tag_8\n      jumpi\n      0x00\n      dup1\n      revert\n    tag_18:\n      dup1\n      0x01a3694e\n      eq\n      tag_3\n      jumpi\n      dup1\n      0x0df71602\n      eq\n      tag_4\n      jumpi\n      dup1\n      0x3d5d3236\n      eq\n      tag_5\n      jumpi\n    tag_2:\n      0x00\n      dup1\n      revert\n        /* \"contracts/ChainlinkConsumer.sol\":534:556  uint256 public winner2 */\n    tag_3:\n      tag_19\n      sload(0x09)\n      dup2\n      jump\n    tag_19:\n      mload(0x40)\n        /* \"#utility.yul\":160:185   */\n      swap1\n      dup2\n      mstore\n        /* \"#utility.yul\":148:150   */\n      0x20\n        /* \"#utility.yul\":133:151   */\n      add\n        /* \"contracts/ChainlinkConsumer.sol\":534:556  uint256 public winner2 */\n    tag_21:\n      mload(0x40)\n      dup1\n      swap2\n      sub\n      swap1\n      return\n        /* \"contracts/ChainlinkConsumer.sol\":3134:3199  function setWinner(uint id) public {... */\n    tag_4:\n      tag_23\n      tag_24\n      calldatasize\n      0x04\n      tag_25\n      jump\t// in\n    tag_24:\n        /* \"contracts/ChainlinkConsumer.sol\":3180:3186  winner */\n      0x08\n        /* \"contracts/ChainlinkConsumer.sol\":3180:3191  winner = id */\n      sstore\n        /* \"contracts/ChainlinkConsumer.sol\":3134:3199  function setWinner(uint id) public {... */\n      jump\n    tag_23:\n      stop\n        /* \"contracts/ChainlinkConsumer.sol\":2423:2780  function fulfillOracleRequest(... */\n    tag_5:\n      tag_23\n      tag_28\n      calldatasize\n      0x04\n      tag_29\n      jump\t// in\n    tag_28:\n      tag_30\n      jump\t// in\n        /* \"contracts/ChainlinkConsumer.sol\":1828:2301  function requestWinner() public virtual returns (bytes32 requestId) {... */\n    tag_6:\n      tag_19\n      tag_32\n      jump\t// in\n        /* \"@chainlink/contracts/src/v0.8/ConfirmedOwnerWithProposal.sol\":1016:1281  function acceptOwnership() external override {... */\n    tag_7:\n      tag_23\n      tag_36\n      jump\t// in\n        /* \"@chainlink/contracts/src/v0.8/ConfirmedOwnerWithProposal.sol\":1332:1413  function owner() public view override returns (address) {... */\n    tag_8:\n        /* \"@chainlink/contracts/src/v0.8/ConfirmedOwnerWithProposal.sol\":1401:1408  s_owner */\n      sload(0x06)\n        /* \"@chainlink/contracts/src/v0.8/ConfirmedOwnerWithProposal.sol\":1332:1413  function owner() public view override returns (address) {... */\n      mload(0x40)\n        /* \"@chainlink/contracts/src/v0.8/ConfirmedOwnerWithProposal.sol\":1401:1408  s_owner */\n      0xffffffffffffffffffffffffffffffffffffffff\n      swap1\n      swap2\n      and\n        /* \"#utility.yul\":1099:1173   */\n      dup2\n      mstore\n        /* \"#utility.yul\":1087:1089   */\n      0x20\n        /* \"#utility.yul\":1072:1090   */\n      add\n        /* \"@chainlink/contracts/src/v0.8/ConfirmedOwnerWithProposal.sol\":1332:1413  function owner() public view override returns (address) {... */\n      tag_21\n        /* \"#utility.yul\":953:1179   */\n      jump\n        /* \"contracts/ChainlinkConsumer.sol\":2862:3126  function withdrawLink() public onlyOwner {... */\n    tag_9:\n      tag_23\n      tag_42\n      jump\t// in\n        /* \"contracts/ChainlinkConsumer.sol\":3280:3347  function setWinner3(uint id) public {... */\n    tag_10:\n      tag_23\n      tag_44\n      calldatasize\n      0x04\n      tag_25\n      jump\t// in\n    tag_44:\n        /* \"contracts/ChainlinkConsumer.sol\":3327:3334  winner3 */\n      0x0a\n        /* \"contracts/ChainlinkConsumer.sol\":3327:3339  winner3 = id */\n      sstore\n        /* \"contracts/ChainlinkConsumer.sol\":3280:3347  function setWinner3(uint id) public {... */\n      jump\n        /* \"contracts/ChainlinkConsumer.sol\":3207:3274  function setWinner2(uint id) public {... */\n    tag_11:\n      tag_23\n      tag_47\n      calldatasize\n      0x04\n      tag_25\n      jump\t// in\n    tag_47:\n        /* \"contracts/ChainlinkConsumer.sol\":3254:3261  winner2 */\n      0x09\n        /* \"contracts/ChainlinkConsumer.sol\":3254:3266  winner2 = id */\n      sstore\n        /* \"contracts/ChainlinkConsumer.sol\":3207:3274  function setWinner2(uint id) public {... */\n      jump\n        /* \"contracts/ChainlinkConsumer.sol\":673:693  string public league */\n    tag_12:\n      tag_49\n      tag_50\n      jump\t// in\n    tag_49:\n      mload(0x40)\n      tag_21\n      swap2\n      swap1\n      tag_52\n      jump\t// in\n        /* \"contracts/ChainlinkConsumer.sol\":506:527  uint256 public winner */\n    tag_13:\n      tag_19\n      sload(0x08)\n      dup2\n      jump\n        /* \"@chainlink/contracts/src/v0.8/ConfirmedOwnerWithProposal.sol\":826:924  function transferOwnership(address to) public override onlyOwner {... */\n    tag_14:\n      tag_23\n      tag_57\n      calldatasize\n      0x04\n      tag_58\n      jump\t// in\n    tag_57:\n      tag_59\n      jump\t// in\n        /* \"contracts/ChainlinkConsumer.sol\":563:585  uint256 public winner3 */\n    tag_15:\n      tag_19\n      sload(0x0a)\n      dup2\n      jump\n        /* \"contracts/ChainlinkConsumer.sol\":2423:2780  function fulfillOracleRequest(... */\n    tag_30:\n        /* \"@chainlink/contracts/src/v0.8/ChainlinkClient.sol\":11663:11691  s_pendingRequests[requestId] */\n      0x00\n      dup5\n      dup2\n      mstore\n        /* \"@chainlink/contracts/src/v0.8/ChainlinkClient.sol\":11663:11680  s_pendingRequests */\n      0x05\n        /* \"@chainlink/contracts/src/v0.8/ChainlinkClient.sol\":11663:11691  s_pendingRequests[requestId] */\n      0x20\n      mstore\n      0x40\n      swap1\n      keccak256\n      sload\n      dup5\n      swap1\n      0xffffffffffffffffffffffffffffffffffffffff\n      and\n        /* \"@chainlink/contracts/src/v0.8/ChainlinkClient.sol\":11649:11659  msg.sender */\n      caller\n        /* \"@chainlink/contracts/src/v0.8/ChainlinkClient.sol\":11649:11691  msg.sender == s_pendingRequests[requestId] */\n      eq\n        /* \"@chainlink/contracts/src/v0.8/ChainlinkClient.sol\":11641:11736  require(msg.sender == s_pendingRequests[requestId], \"Source must be the oracle of the request\") */\n      tag_66\n      jumpi\n      mload(0x40)\n      0x08c379a000000000000000000000000000000000000000000000000000000000\n      dup2\n      mstore\n        /* \"#utility.yul\":2510:2512   */\n      0x20\n        /* \"@chainlink/contracts/src/v0.8/ChainlinkClient.sol\":11641:11736  require(msg.sender == s_pendingRequests[requestId], \"Source must be the oracle of the request\") */\n      0x04\n      dup3\n      add\n        /* \"#utility.yul\":2492:2513   */\n      mstore\n        /* \"#utility.yul\":2549:2551   */\n      0x28\n        /* \"#utility.yul\":2529:2547   */\n      0x24\n      dup3\n      add\n        /* \"#utility.yul\":2522:2552   */\n      mstore\n        /* \"#utility.yul\":2588:2622   */\n      0x536f75726365206d75737420626520746865206f7261636c65206f6620746865\n        /* \"#utility.yul\":2568:2586   */\n      0x44\n      dup3\n      add\n        /* \"#utility.yul\":2561:2623   */\n      mstore\n        /* \"#utility.yul\":2659:2669   */\n      0x2072657175657374000000000000000000000000000000000000000000000000\n        /* \"#utility.yul\":2639:2657   */\n      0x64\n      dup3\n      add\n        /* \"#utility.yul\":2632:2670   */\n      mstore\n        /* \"#utility.yul\":2687:2706   */\n      0x84\n      add\n        /* \"@chainlink/contracts/src/v0.8/ChainlinkClient.sol\":11641:11736  require(msg.sender == s_pendingRequests[requestId], \"Source must be the oracle of the request\") */\n    tag_67:\n      mload(0x40)\n      dup1\n      swap2\n      sub\n      swap1\n      revert\n    tag_66:\n        /* \"@chainlink/contracts/src/v0.8/ChainlinkClient.sol\":11749:11777  s_pendingRequests[requestId] */\n      0x00\n      dup2\n      dup2\n      mstore\n        /* \"@chainlink/contracts/src/v0.8/ChainlinkClient.sol\":11749:11766  s_pendingRequests */\n      0x05\n        /* \"@chainlink/contracts/src/v0.8/ChainlinkClient.sol\":11749:11777  s_pendingRequests[requestId] */\n      0x20\n      mstore\n      0x40\n      dup1\n      dup3\n      keccak256\n        /* \"@chainlink/contracts/src/v0.8/ChainlinkClient.sol\":11742:11777  delete s_pendingRequests[requestId] */\n      dup1\n      sload\n      0xffffffffffffffffffffffff0000000000000000000000000000000000000000\n      and\n      swap1\n      sstore\n        /* \"@chainlink/contracts/src/v0.8/ChainlinkClient.sol\":11788:11817  ChainlinkFulfilled(requestId) */\n      mload\n        /* \"@chainlink/contracts/src/v0.8/ChainlinkClient.sol\":11767:11776  requestId */\n      dup3\n      swap2\n        /* \"@chainlink/contracts/src/v0.8/ChainlinkClient.sol\":11788:11817  ChainlinkFulfilled(requestId) */\n      0x7cc135e0cebb02c3480ae5d74d377283180a2601f8f644edf7987b009316c63a\n      swap2\n      log2\n        /* \"contracts/ChainlinkConsumer.sol\":2633:2687  RequestWinner(_requestId, _winner, _winner2, _winner3) */\n      0x40\n      dup1\n      mload\n        /* \"#utility.yul\":2919:2944   */\n      dup6\n      dup2\n      mstore\n        /* \"#utility.yul\":2975:2977   */\n      0x20\n        /* \"#utility.yul\":2960:2978   */\n      dup2\n      add\n        /* \"#utility.yul\":2953:2987   */\n      dup6\n      swap1\n      mstore\n        /* \"#utility.yul\":3003:3021   */\n      swap1\n      dup2\n      add\n        /* \"#utility.yul\":2996:3030   */\n      dup4\n      swap1\n      mstore\n        /* \"contracts/ChainlinkConsumer.sol\":2647:2657  _requestId */\n      dup6\n      swap1\n        /* \"contracts/ChainlinkConsumer.sol\":2633:2687  RequestWinner(_requestId, _winner, _winner2, _winner3) */\n      0x539e5682d95ed725b9a92ef19aefc24d6e1bc6aa39ab4f2ac96a3e48f1dd2e46\n      swap1\n        /* \"#utility.yul\":2907:2909   */\n      0x60\n        /* \"#utility.yul\":2892:2910   */\n      add\n        /* \"contracts/ChainlinkConsumer.sol\":2633:2687  RequestWinner(_requestId, _winner, _winner2, _winner3) */\n      mload(0x40)\n      dup1\n      swap2\n      sub\n      swap1\n      log2\n      pop\n        /* \"contracts/ChainlinkConsumer.sol\":2698:2704  winner */\n      0x08\n        /* \"contracts/ChainlinkConsumer.sol\":2698:2714  winner = _winner */\n      swap3\n      swap1\n      swap3\n      sstore\n        /* \"contracts/ChainlinkConsumer.sol\":2725:2732  winner2 */\n      0x09\n        /* \"contracts/ChainlinkConsumer.sol\":2725:2743  winner2 = _winner2 */\n      sstore\n        /* \"contracts/ChainlinkConsumer.sol\":2754:2761  winner3 */\n      0x0a\n        /* \"contracts/ChainlinkConsumer.sol\":2754:2772  winner3 = _winner3 */\n      sstore\n      pop\n        /* \"contracts/ChainlinkConsumer.sol\":2423:2780  function fulfillOracleRequest(... */\n      jump\t// out\n        /* \"contracts/ChainlinkConsumer.sol\":1828:2301  function requestWinner() public virtual returns (bytes32 requestId) {... */\n    tag_32:\n        /* \"contracts/ChainlinkConsumer.sol\":1877:1894  bytes32 requestId */\n      0x00\n        /* \"contracts/ChainlinkConsumer.sol\":1907:1935  Chainlink.Request memory req */\n      dup1\n        /* \"contracts/ChainlinkConsumer.sol\":1938:2067  buildChainlinkRequest(... */\n      tag_73\n        /* \"contracts/ChainlinkConsumer.sol\":1974:1979  jobId */\n      sload(0x0b)\n        /* \"contracts/ChainlinkConsumer.sol\":2002:2006  this */\n      address\n        /* \"contracts/ChainlinkConsumer.sol\":2022:2056  this.fulfillOracleRequest.selector */\n      shl(0xe0, 0x3d5d3236)\n        /* \"contracts/ChainlinkConsumer.sol\":1938:1959  buildChainlinkRequest */\n      tag_74\n        /* \"contracts/ChainlinkConsumer.sol\":1938:2067  buildChainlinkRequest(... */\n      jump\t// in\n    tag_73:\n        /* \"contracts/ChainlinkConsumer.sol\":1907:2067  Chainlink.Request memory req = buildChainlinkRequest(... */\n      swap1\n      pop\n        /* \"contracts/ChainlinkConsumer.sol\":2080:2136  req.add(... */\n      tag_75\n      mload(0x40)\n      dup1\n      0x40\n      add\n      0x40\n      mstore\n      dup1\n      0x03\n      dup2\n      mstore\n      0x20\n      add\n      0x6765740000000000000000000000000000000000000000000000000000000000\n      dup2\n      mstore\n      pop\n        /* \"contracts/ChainlinkConsumer.sol\":2122:2125  URL */\n      0x0d\n        /* \"contracts/ChainlinkConsumer.sol\":2080:2136  req.add(... */\n      dup1\n      sload\n      tag_76\n      swap1\n      tag_77\n      jump\t// in\n    tag_76:\n      dup1\n      0x1f\n      add\n      0x20\n      dup1\n      swap2\n      div\n      mul\n      0x20\n      add\n      mload(0x40)\n      swap1\n      dup2\n      add\n      0x40\n      mstore\n      dup1\n      swap3\n      swap2\n      swap1\n      dup2\n      dup2\n      mstore\n      0x20\n      add\n      dup3\n      dup1\n      sload\n      tag_78\n      swap1\n      tag_77\n      jump\t// in\n    tag_78:\n      dup1\n      iszero\n      tag_79\n      jumpi\n      dup1\n      0x1f\n      lt\n      tag_80\n      jumpi\n      0x0100\n      dup1\n      dup4\n      sload\n      div\n      mul\n      dup4\n      mstore\n      swap2\n      0x20\n      add\n      swap2\n      jump(tag_79)\n    tag_80:\n      dup3\n      add\n      swap2\n      swap1\n      0x00\n      mstore\n      keccak256(0x00, 0x20)\n      swap1\n    tag_81:\n      dup2\n      sload\n      dup2\n      mstore\n      swap1\n      0x01\n      add\n      swap1\n      0x20\n      add\n      dup1\n      dup4\n      gt\n      tag_81\n      jumpi\n      dup3\n      swap1\n      sub\n      0x1f\n      and\n      dup3\n      add\n      swap2\n    tag_79:\n      pop\n      pop\n      pop\n      pop\n      pop\n        /* \"contracts/ChainlinkConsumer.sol\":2080:2083  req */\n      dup4\n        /* \"contracts/ChainlinkConsumer.sol\":2080:2087  req.add */\n      tag_82\n      swap1\n        /* \"contracts/ChainlinkConsumer.sol\":2080:2136  req.add(... */\n      swap3\n      swap2\n      swap1\n      0xffffffff\n      and\n      jump\t// in\n    tag_75:\n        /* \"contracts/ChainlinkConsumer.sol\":2149:2211  req.add(... */\n      tag_83\n      mload(0x40)\n      dup1\n      0x40\n      add\n      0x40\n      mstore\n      dup1\n      0x06\n      dup2\n      mstore\n      0x20\n      add\n      0x6c65616775650000000000000000000000000000000000000000000000000000\n      dup2\n      mstore\n      pop\n        /* \"contracts/ChainlinkConsumer.sol\":2194:2200  league */\n      0x0e\n        /* \"contracts/ChainlinkConsumer.sol\":2149:2211  req.add(... */\n      dup1\n      sload\n      tag_76\n      swap1\n      tag_77\n      jump\t// in\n    tag_83:\n        /* \"contracts/ChainlinkConsumer.sol\":2263:2293  sendChainlinkRequest(req, fee) */\n      tag_89\n        /* \"contracts/ChainlinkConsumer.sol\":2284:2287  req */\n      dup2\n        /* \"contracts/ChainlinkConsumer.sol\":2289:2292  fee */\n      sload(0x0c)\n        /* \"contracts/ChainlinkConsumer.sol\":2263:2283  sendChainlinkRequest */\n      tag_90\n        /* \"contracts/ChainlinkConsumer.sol\":2263:2293  sendChainlinkRequest(req, fee) */\n      jump\t// in\n    tag_89:\n        /* \"contracts/ChainlinkConsumer.sol\":2256:2293  return sendChainlinkRequest(req, fee) */\n      swap2\n      pop\n      pop\n        /* \"contracts/ChainlinkConsumer.sol\":1828:2301  function requestWinner() public virtual returns (bytes32 requestId) {... */\n      swap1\n      jump\t// out\n        /* \"@chainlink/contracts/src/v0.8/ConfirmedOwnerWithProposal.sol\":1016:1281  function acceptOwnership() external override {... */\n    tag_36:\n        /* \"@chainlink/contracts/src/v0.8/ConfirmedOwnerWithProposal.sol\":1089:1103  s_pendingOwner */\n      and(0xffffffffffffffffffffffffffffffffffffffff, sload(0x07))\n        /* \"@chainlink/contracts/src/v0.8/ConfirmedOwnerWithProposal.sol\":1075:1085  msg.sender */\n      caller\n        /* \"@chainlink/contracts/src/v0.8/ConfirmedOwnerWithProposal.sol\":1075:1103  msg.sender == s_pendingOwner */\n      eq\n        /* \"@chainlink/contracts/src/v0.8/ConfirmedOwnerWithProposal.sol\":1067:1130  require(msg.sender == s_pendingOwner, \"Must be proposed owner\") */\n      tag_92\n      jumpi\n      mload(0x40)\n      0x08c379a000000000000000000000000000000000000000000000000000000000\n      dup2\n      mstore\n        /* \"#utility.yul\":3685:3687   */\n      0x20\n        /* \"@chainlink/contracts/src/v0.8/ConfirmedOwnerWithProposal.sol\":1067:1130  require(msg.sender == s_pendingOwner, \"Must be proposed owner\") */\n      0x04\n      dup3\n      add\n        /* \"#utility.yul\":3667:3688   */\n      mstore\n        /* \"#utility.yul\":3724:3726   */\n      0x16\n        /* \"#utility.yul\":3704:3722   */\n      0x24\n      dup3\n      add\n        /* \"#utility.yul\":3697:3727   */\n      mstore\n        /* \"#utility.yul\":3763:3787   */\n      0x4d7573742062652070726f706f736564206f776e657200000000000000000000\n        /* \"#utility.yul\":3743:3761   */\n      0x44\n      dup3\n      add\n        /* \"#utility.yul\":3736:3788   */\n      mstore\n        /* \"#utility.yul\":3805:3823   */\n      0x64\n      add\n        /* \"@chainlink/contracts/src/v0.8/ConfirmedOwnerWithProposal.sol\":1067:1130  require(msg.sender == s_pendingOwner, \"Must be proposed owner\") */\n      tag_67\n        /* \"#utility.yul\":3483:3829   */\n      jump\n        /* \"@chainlink/contracts/src/v0.8/ConfirmedOwnerWithProposal.sol\":1067:1130  require(msg.sender == s_pendingOwner, \"Must be proposed owner\") */\n    tag_92:\n        /* \"@chainlink/contracts/src/v0.8/ConfirmedOwnerWithProposal.sol\":1156:1163  s_owner */\n      0x06\n      dup1\n      sload\n        /* \"@chainlink/contracts/src/v0.8/ConfirmedOwnerWithProposal.sol\":1169:1189  s_owner = msg.sender */\n      0xffffffffffffffffffffffff0000000000000000000000000000000000000000\n      dup1\n      dup3\n      and\n        /* \"@chainlink/contracts/src/v0.8/ConfirmedOwnerWithProposal.sol\":1179:1189  msg.sender */\n      caller\n        /* \"@chainlink/contracts/src/v0.8/ConfirmedOwnerWithProposal.sol\":1169:1189  s_owner = msg.sender */\n      swap1\n      dup2\n      or\n      swap1\n      swap4\n      sstore\n        /* \"@chainlink/contracts/src/v0.8/ConfirmedOwnerWithProposal.sol\":1195:1209  s_pendingOwner */\n      0x07\n        /* \"@chainlink/contracts/src/v0.8/ConfirmedOwnerWithProposal.sol\":1195:1222  s_pendingOwner = address(0) */\n      dup1\n      sload\n      swap1\n      swap2\n      and\n      swap1\n      sstore\n        /* \"@chainlink/contracts/src/v0.8/ConfirmedOwnerWithProposal.sol\":1234:1276  OwnershipTransferred(oldOwner, msg.sender) */\n      mload(0x40)\n        /* \"@chainlink/contracts/src/v0.8/ConfirmedOwnerWithProposal.sol\":1156:1163  s_owner */\n      0xffffffffffffffffffffffffffffffffffffffff\n      swap1\n      swap2\n      and\n      swap2\n        /* \"@chainlink/contracts/src/v0.8/ConfirmedOwnerWithProposal.sol\":1179:1189  msg.sender */\n      swap1\n        /* \"@chainlink/contracts/src/v0.8/ConfirmedOwnerWithProposal.sol\":1156:1163  s_owner */\n      dup3\n      swap1\n        /* \"@chainlink/contracts/src/v0.8/ConfirmedOwnerWithProposal.sol\":1234:1276  OwnershipTransferred(oldOwner, msg.sender) */\n      0x8be0079c531659141344cd1fd0a4f28419497f9722a3daafe3b4186f6b6457e0\n      swap1\n        /* \"@chainlink/contracts/src/v0.8/ConfirmedOwnerWithProposal.sol\":1137:1153  address oldOwner */\n      0x00\n      swap1\n        /* \"@chainlink/contracts/src/v0.8/ConfirmedOwnerWithProposal.sol\":1234:1276  OwnershipTransferred(oldOwner, msg.sender) */\n      log3\n        /* \"@chainlink/contracts/src/v0.8/ConfirmedOwnerWithProposal.sol\":1061:1281  {... */\n      pop\n        /* \"@chainlink/contracts/src/v0.8/ConfirmedOwnerWithProposal.sol\":1016:1281  function acceptOwnership() external override {... */\n      jump\t// out\n        /* \"contracts/ChainlinkConsumer.sol\":2862:3126  function withdrawLink() public onlyOwner {... */\n    tag_42:\n        /* \"@chainlink/contracts/src/v0.8/ConfirmedOwnerWithProposal.sol\":1956:1976  _validateOwnership() */\n      tag_97\n        /* \"@chainlink/contracts/src/v0.8/ConfirmedOwnerWithProposal.sol\":1956:1974  _validateOwnership */\n      tag_98\n        /* \"@chainlink/contracts/src/v0.8/ConfirmedOwnerWithProposal.sol\":1956:1976  _validateOwnership() */\n      jump\t// in\n    tag_97:\n        /* \"contracts/ChainlinkConsumer.sol\":2914:2937  LinkTokenInterface link */\n      0x00\n        /* \"contracts/ChainlinkConsumer.sol\":2959:2982  chainlinkTokenAddress() */\n      tag_100\n        /* \"@chainlink/contracts/src/v0.8/ChainlinkClient.sol\":9184:9190  s_link */\n      and(0xffffffffffffffffffffffffffffffffffffffff, sload(0x02))\n      swap1\n        /* \"@chainlink/contracts/src/v0.8/ChainlinkClient.sol\":9098:9196  function chainlinkTokenAddress() internal view returns (address) {... */\n      jump\n        /* \"contracts/ChainlinkConsumer.sol\":2959:2982  chainlinkTokenAddress() */\n    tag_100:\n        /* \"contracts/ChainlinkConsumer.sol\":3042:3071  link.balanceOf(address(this)) */\n      mload(0x40)\n      0x70a0823100000000000000000000000000000000000000000000000000000000\n      dup2\n      mstore\n        /* \"contracts/ChainlinkConsumer.sol\":3065:3069  this */\n      address\n        /* \"contracts/ChainlinkConsumer.sol\":3042:3071  link.balanceOf(address(this)) */\n      0x04\n      dup3\n      add\n        /* \"#utility.yul\":1099:1173   */\n      mstore\n        /* \"contracts/ChainlinkConsumer.sol\":2914:2983  LinkTokenInterface link = LinkTokenInterface(chainlinkTokenAddress()) */\n      swap1\n      swap2\n      pop\n        /* \"contracts/ChainlinkConsumer.sol\":3016:3029  link.transfer */\n      0xffffffffffffffffffffffffffffffffffffffff\n      dup3\n      and\n      swap1\n      0xa9059cbb\n      swap1\n        /* \"contracts/ChainlinkConsumer.sol\":3030:3040  msg.sender */\n      caller\n      swap1\n        /* \"contracts/ChainlinkConsumer.sol\":3016:3029  link.transfer */\n      dup4\n      swap1\n        /* \"contracts/ChainlinkConsumer.sol\":3042:3056  link.balanceOf */\n      0x70a08231\n      swap1\n        /* \"#utility.yul\":1072:1090   */\n      0x24\n      add\n        /* \"contracts/ChainlinkConsumer.sol\":3042:3071  link.balanceOf(address(this)) */\n      0x20\n      mload(0x40)\n      dup1\n      dup4\n      sub\n      dup2\n      dup7\n      gas\n      staticcall\n      iszero\n      dup1\n      iszero\n      tag_104\n      jumpi\n      returndatasize\n      0x00\n      dup1\n      returndatacopy\n      revert(0x00, returndatasize)\n    tag_104:\n      pop\n      pop\n      pop\n      pop\n      mload(0x40)\n      returndatasize\n      not(0x1f)\n      0x1f\n      dup3\n      add\n      and\n      dup3\n      add\n      dup1\n      0x40\n      mstore\n      pop\n      dup2\n      add\n      swap1\n      tag_105\n      swap2\n      swap1\n      tag_106\n      jump\t// in\n    tag_105:\n        /* \"contracts/ChainlinkConsumer.sol\":3016:3072  link.transfer(msg.sender, link.balanceOf(address(this))) */\n      mload(0x40)\n      0xffffffff00000000000000000000000000000000000000000000000000000000\n      0xe0\n      dup6\n      swap1\n      shl\n      and\n      dup2\n      mstore\n        /* \"#utility.yul\":4227:4269   */\n      0xffffffffffffffffffffffffffffffffffffffff\n        /* \"#utility.yul\":4215:4270   */\n      swap1\n      swap3\n      and\n        /* \"contracts/ChainlinkConsumer.sol\":3016:3072  link.transfer(msg.sender, link.balanceOf(address(this))) */\n      0x04\n      dup4\n      add\n        /* \"#utility.yul\":4197:4271   */\n      mstore\n        /* \"#utility.yul\":4287:4305   */\n      0x24\n      dup3\n      add\n        /* \"#utility.yul\":4280:4314   */\n      mstore\n        /* \"#utility.yul\":4170:4188   */\n      0x44\n      add\n        /* \"contracts/ChainlinkConsumer.sol\":3016:3072  link.transfer(msg.sender, link.balanceOf(address(this))) */\n      0x20\n      mload(0x40)\n      dup1\n      dup4\n      sub\n      dup2\n      0x00\n      dup8\n      gas\n      call\n      iszero\n      dup1\n      iszero\n      tag_110\n      jumpi\n      returndatasize\n      0x00\n      dup1\n      returndatacopy\n      revert(0x00, returndatasize)\n    tag_110:\n      pop\n      pop\n      pop\n      pop\n      mload(0x40)\n      returndatasize\n      not(0x1f)\n      0x1f\n      dup3\n      add\n      and\n      dup3\n      add\n      dup1\n      0x40\n      mstore\n      pop\n      dup2\n      add\n      swap1\n      tag_111\n      swap2\n      swap1\n      tag_112\n      jump\t// in\n    tag_111:\n        /* \"contracts/ChainlinkConsumer.sol\":2994:3118  require(... */\n      tag_113\n      jumpi\n      mload(0x40)\n      0x08c379a000000000000000000000000000000000000000000000000000000000\n      dup2\n      mstore\n        /* \"#utility.yul\":4809:4811   */\n      0x20\n        /* \"contracts/ChainlinkConsumer.sol\":2994:3118  require(... */\n      0x04\n      dup3\n      add\n        /* \"#utility.yul\":4791:4812   */\n      mstore\n        /* \"#utility.yul\":4848:4850   */\n      0x12\n        /* \"#utility.yul\":4828:4846   */\n      0x24\n      dup3\n      add\n        /* \"#utility.yul\":4821:4851   */\n      mstore\n        /* \"#utility.yul\":4887:4907   */\n      0x556e61626c6520746f207472616e736665720000000000000000000000000000\n        /* \"#utility.yul\":4867:4885   */\n      0x44\n      dup3\n      add\n        /* \"#utility.yul\":4860:4908   */\n      mstore\n        /* \"#utility.yul\":4925:4943   */\n      0x64\n      add\n        /* \"contracts/ChainlinkConsumer.sol\":2994:3118  require(... */\n      tag_67\n        /* \"#utility.yul\":4607:4949   */\n      jump\n        /* \"contracts/ChainlinkConsumer.sol\":2994:3118  require(... */\n    tag_113:\n        /* \"contracts/ChainlinkConsumer.sol\":2903:3126  {... */\n      pop\n        /* \"contracts/ChainlinkConsumer.sol\":2862:3126  function withdrawLink() public onlyOwner {... */\n      jump\t// out\n        /* \"contracts/ChainlinkConsumer.sol\":673:693  string public league */\n    tag_50:\n      0x0e\n      dup1\n      sload\n      tag_118\n      swap1\n      tag_77\n      jump\t// in\n    tag_118:\n      dup1\n      0x1f\n      add\n      0x20\n      dup1\n      swap2\n      div\n      mul\n      0x20\n      add\n      mload(0x40)\n      swap1\n      dup2\n      add\n      0x40\n      mstore\n      dup1\n      swap3\n      swap2\n      swap1\n      dup2\n      dup2\n      mstore\n      0x20\n      add\n      dup3\n      dup1\n      sload\n      tag_119\n      swap1\n      tag_77\n      jump\t// in\n    tag_119:\n      dup1\n      iszero\n      tag_120\n      jumpi\n      dup1\n      0x1f\n      lt\n      tag_121\n      jumpi\n      0x0100\n      dup1\n      dup4\n      sload\n      div\n      mul\n      dup4\n      mstore\n      swap2\n      0x20\n      add\n      swap2\n      jump(tag_120)\n    tag_121:\n      dup3\n      add\n      swap2\n      swap1\n      0x00\n      mstore\n      keccak256(0x00, 0x20)\n      swap1\n    tag_122:\n      dup2\n      sload\n      dup2\n      mstore\n      swap1\n      0x01\n      add\n      swap1\n      0x20\n      add\n      dup1\n      dup4\n      gt\n      tag_122\n      jumpi\n      dup3\n      swap1\n      sub\n      0x1f\n      and\n      dup3\n      add\n      swap2\n    tag_120:\n      pop\n      pop\n      pop\n      pop\n      pop\n      dup2\n      jump\t// out\n        /* \"@chainlink/contracts/src/v0.8/ConfirmedOwnerWithProposal.sol\":826:924  function transferOwnership(address to) public override onlyOwner {... */\n    tag_59:\n        /* \"@chainlink/contracts/src/v0.8/ConfirmedOwnerWithProposal.sol\":1956:1976  _validateOwnership() */\n      tag_124\n        /* \"@chainlink/contracts/src/v0.8/ConfirmedOwnerWithProposal.sol\":1956:1974  _validateOwnership */\n      tag_98\n        /* \"@chainlink/contracts/src/v0.8/ConfirmedOwnerWithProposal.sol\":1956:1976  _validateOwnership() */\n      jump\t// in\n    tag_124:\n        /* \"@chainlink/contracts/src/v0.8/ConfirmedOwnerWithProposal.sol\":897:919  _transferOwnership(to) */\n      tag_113\n        /* \"@chainlink/contracts/src/v0.8/ConfirmedOwnerWithProposal.sol\":916:918  to */\n      dup2\n        /* \"@chainlink/contracts/src/v0.8/ConfirmedOwnerWithProposal.sol\":897:915  _transferOwnership */\n      tag_127\n        /* \"@chainlink/contracts/src/v0.8/ConfirmedOwnerWithProposal.sol\":897:919  _transferOwnership(to) */\n      jump\t// in\n        /* \"contracts/ChainlinkConsumer.sol\":211:355  function concat(string memory a, string memory b) internal pure returns (string memory) {... */\n    tag_63:\n        /* \"contracts/ChainlinkConsumer.sol\":284:297  string memory */\n      0x60\n        /* \"contracts/ChainlinkConsumer.sol\":341:342  a */\n      dup3\n        /* \"contracts/ChainlinkConsumer.sol\":344:345  b */\n      dup3\n        /* \"contracts/ChainlinkConsumer.sol\":324:346  abi.encodePacked(a, b) */\n      add(0x20, mload(0x40))\n      tag_129\n      swap3\n      swap2\n      swap1\n      tag_130\n      jump\t// in\n    tag_129:\n      mload(0x40)\n      0x20\n      dup2\n      dup4\n      sub\n      sub\n      dup2\n      mstore\n      swap1\n      0x40\n      mstore\n        /* \"contracts/ChainlinkConsumer.sol\":310:347  return string(abi.encodePacked(a, b)) */\n      swap1\n      pop\n        /* \"contracts/ChainlinkConsumer.sol\":211:355  function concat(string memory a, string memory b) internal pure returns (string memory) {... */\n    tag_128:\n      swap3\n      swap2\n      pop\n      pop\n      jump\t// out\n        /* \"@chainlink/contracts/src/v0.8/ChainlinkClient.sol\":1850:2133  function buildChainlinkRequest(... */\n    tag_74:\n        /* \"@chainlink/contracts/src/v0.8/ChainlinkClient.sol\":1992:2016  Chainlink.Request memory */\n      tag_131\n      0x40\n      dup1\n      mload\n      0xa0\n      dup2\n      add\n      dup3\n      mstore\n      0x00\n      dup1\n      dup3\n      mstore\n      0x20\n      dup1\n      dup4\n      add\n      dup3\n      swap1\n      mstore\n      dup3\n      dup5\n      add\n      dup3\n      swap1\n      mstore\n      0x60\n      dup1\n      dup5\n      add\n      dup4\n      swap1\n      mstore\n      dup5\n      mload\n      dup1\n      dup7\n      add\n      swap1\n      swap6\n      mstore\n      dup5\n      mstore\n      dup4\n      add\n      mstore\n      swap1\n      0x80\n      dup3\n      add\n      mstore\n      swap1\n      jump\n    tag_131:\n        /* \"@chainlink/contracts/src/v0.8/ChainlinkClient.sol\":2024:2052  Chainlink.Request memory req */\n      tag_134\n      0x40\n      dup1\n      mload\n      0xa0\n      dup2\n      add\n      dup3\n      mstore\n      0x00\n      dup1\n      dup3\n      mstore\n      0x20\n      dup1\n      dup4\n      add\n      dup3\n      swap1\n      mstore\n      dup3\n      dup5\n      add\n      dup3\n      swap1\n      mstore\n      0x60\n      dup1\n      dup5\n      add\n      dup4\n      swap1\n      mstore\n      dup5\n      mload\n      dup1\n      dup7\n      add\n      swap1\n      swap6\n      mstore\n      dup5\n      mstore\n      dup4\n      add\n      mstore\n      swap1\n      0x80\n      dup3\n      add\n      mstore\n      swap1\n      jump\n    tag_134:\n        /* \"@chainlink/contracts/src/v0.8/ChainlinkClient.sol\":2065:2128  req.initialize(specId, callbackAddr, callbackFunctionSignature) */\n      tag_135\n        /* \"@chainlink/contracts/src/v0.8/ChainlinkClient.sol\":2065:2068  req */\n      dup2\n        /* \"@chainlink/contracts/src/v0.8/ChainlinkClient.sol\":2080:2086  specId */\n      dup7\n        /* \"@chainlink/contracts/src/v0.8/ChainlinkClient.sol\":2088:2100  callbackAddr */\n      dup7\n        /* \"@chainlink/contracts/src/v0.8/ChainlinkClient.sol\":2102:2127  callbackFunctionSignature */\n      dup7\n        /* \"@chainlink/contracts/src/v0.8/ChainlinkClient.sol\":2065:2079  req.initialize */\n      tag_136\n        /* \"@chainlink/contracts/src/v0.8/ChainlinkClient.sol\":2065:2128  req.initialize(specId, callbackAddr, callbackFunctionSignature) */\n      jump\t// in\n    tag_135:\n        /* \"@chainlink/contracts/src/v0.8/ChainlinkClient.sol\":2058:2128  return req.initialize(specId, callbackAddr, callbackFunctionSignature) */\n      swap6\n        /* \"@chainlink/contracts/src/v0.8/ChainlinkClient.sol\":1850:2133  function buildChainlinkRequest(... */\n      swap5\n      pop\n      pop\n      pop\n      pop\n      pop\n      jump\t// out\n        /* \"@chainlink/contracts/src/v0.8/Chainlink.sol\":1951:2126  function add(... */\n    tag_82:\n        /* \"@chainlink/contracts/src/v0.8/Chainlink.sol\":2061:2069  self.buf */\n      0x80\n      dup4\n      add\n      mload\n        /* \"@chainlink/contracts/src/v0.8/Chainlink.sol\":2061:2087  self.buf.encodeString(key) */\n      tag_138\n      swap1\n        /* \"@chainlink/contracts/src/v0.8/Chainlink.sol\":2083:2086  key */\n      dup4\n        /* \"@chainlink/contracts/src/v0.8/Chainlink.sol\":2061:2082  self.buf.encodeString */\n      tag_139\n        /* \"@chainlink/contracts/src/v0.8/Chainlink.sol\":2061:2087  self.buf.encodeString(key) */\n      jump\t// in\n    tag_138:\n        /* \"@chainlink/contracts/src/v0.8/Chainlink.sol\":2093:2101  self.buf */\n      0x80\n      dup4\n      add\n      mload\n        /* \"@chainlink/contracts/src/v0.8/Chainlink.sol\":2093:2121  self.buf.encodeString(value) */\n      tag_140\n      swap1\n        /* \"@chainlink/contracts/src/v0.8/Chainlink.sol\":2115:2120  value */\n      dup3\n        /* \"@chainlink/contracts/src/v0.8/Chainlink.sol\":2093:2114  self.buf.encodeString */\n      tag_139\n        /* \"@chainlink/contracts/src/v0.8/Chainlink.sol\":2093:2121  self.buf.encodeString(value) */\n      jump\t// in\n    tag_140:\n        /* \"@chainlink/contracts/src/v0.8/Chainlink.sol\":1951:2126  function add(... */\n      pop\n      pop\n      pop\n      jump\t// out\n        /* \"@chainlink/contracts/src/v0.8/ChainlinkClient.sol\":2992:3169  function sendChainlinkRequest(Chainlink.Request memory req, uint256 payment) internal returns (bytes32) {... */\n    tag_90:\n        /* \"@chainlink/contracts/src/v0.8/ChainlinkClient.sol\":3140:3148  s_oracle */\n      sload(0x03)\n        /* \"@chainlink/contracts/src/v0.8/ChainlinkClient.sol\":3087:3094  bytes32 */\n      0x00\n      swap1\n        /* \"@chainlink/contracts/src/v0.8/ChainlinkClient.sol\":3109:3164  sendChainlinkRequestTo(address(s_oracle), req, payment) */\n      tag_142\n      swap1\n        /* \"@chainlink/contracts/src/v0.8/ChainlinkClient.sol\":3140:3148  s_oracle */\n      0xffffffffffffffffffffffffffffffffffffffff\n      and\n        /* \"@chainlink/contracts/src/v0.8/ChainlinkClient.sol\":3151:3154  req */\n      dup5\n        /* \"@chainlink/contracts/src/v0.8/ChainlinkClient.sol\":3156:3163  payment */\n      dup5\n        /* \"@chainlink/contracts/src/v0.8/ChainlinkClient.sol\":3109:3131  sendChainlinkRequestTo */\n      tag_143\n        /* \"@chainlink/contracts/src/v0.8/ChainlinkClient.sol\":3109:3164  sendChainlinkRequestTo(address(s_oracle), req, payment) */\n      jump\t// in\n    tag_142:\n        /* \"@chainlink/contracts/src/v0.8/ChainlinkClient.sol\":3102:3164  return sendChainlinkRequestTo(address(s_oracle), req, payment) */\n      swap4\n        /* \"@chainlink/contracts/src/v0.8/ChainlinkClient.sol\":2992:3169  function sendChainlinkRequest(Chainlink.Request memory req, uint256 payment) internal returns (bytes32) {... */\n      swap3\n      pop\n      pop\n      pop\n      jump\t// out\n        /* \"@chainlink/contracts/src/v0.8/ConfirmedOwnerWithProposal.sol\":1730:1841  function _validateOwnership() internal view {... */\n    tag_98:\n        /* \"@chainlink/contracts/src/v0.8/ConfirmedOwnerWithProposal.sol\":1802:1809  s_owner */\n      and(0xffffffffffffffffffffffffffffffffffffffff, sload(0x06))\n        /* \"@chainlink/contracts/src/v0.8/ConfirmedOwnerWithProposal.sol\":1788:1798  msg.sender */\n      caller\n        /* \"@chainlink/contracts/src/v0.8/ConfirmedOwnerWithProposal.sol\":1788:1809  msg.sender == s_owner */\n      eq\n        /* \"@chainlink/contracts/src/v0.8/ConfirmedOwnerWithProposal.sol\":1780:1836  require(msg.sender == s_owner, \"Only callable by owner\") */\n      tag_145\n      jumpi\n      mload(0x40)\n      0x08c379a000000000000000000000000000000000000000000000000000000000\n      dup2\n      mstore\n        /* \"#utility.yul\":5631:5633   */\n      0x20\n        /* \"@chainlink/contracts/src/v0.8/ConfirmedOwnerWithProposal.sol\":1780:1836  require(msg.sender == s_owner, \"Only callable by owner\") */\n      0x04\n      dup3\n      add\n        /* \"#utility.yul\":5613:5634   */\n      mstore\n        /* \"#utility.yul\":5670:5672   */\n      0x16\n        /* \"#utility.yul\":5650:5668   */\n      0x24\n      dup3\n      add\n        /* \"#utility.yul\":5643:5673   */\n      mstore\n        /* \"#utility.yul\":5709:5733   */\n      0x4f6e6c792063616c6c61626c65206279206f776e657200000000000000000000\n        /* \"#utility.yul\":5689:5707   */\n      0x44\n      dup3\n      add\n        /* \"#utility.yul\":5682:5734   */\n      mstore\n        /* \"#utility.yul\":5751:5769   */\n      0x64\n      add\n        /* \"@chainlink/contracts/src/v0.8/ConfirmedOwnerWithProposal.sol\":1780:1836  require(msg.sender == s_owner, \"Only callable by owner\") */\n      tag_67\n        /* \"#utility.yul\":5429:5775   */\n      jump\n        /* \"@chainlink/contracts/src/v0.8/ConfirmedOwnerWithProposal.sol\":1780:1836  require(msg.sender == s_owner, \"Only callable by owner\") */\n    tag_145:\n        /* \"@chainlink/contracts/src/v0.8/ConfirmedOwnerWithProposal.sol\":1730:1841  function _validateOwnership() internal view {... */\n      jump\t// out\n        /* \"@chainlink/contracts/src/v0.8/ConfirmedOwnerWithProposal.sol\":1497:1685  function _transferOwnership(address to) private {... */\n    tag_127:\n        /* \"@chainlink/contracts/src/v0.8/ConfirmedOwnerWithProposal.sol\":1565:1575  msg.sender */\n      caller\n        /* \"@chainlink/contracts/src/v0.8/ConfirmedOwnerWithProposal.sol\":1559:1575  to != msg.sender */\n      0xffffffffffffffffffffffffffffffffffffffff\n      dup3\n      and\n      sub\n        /* \"@chainlink/contracts/src/v0.8/ConfirmedOwnerWithProposal.sol\":1551:1603  require(to != msg.sender, \"Cannot transfer to self\") */\n      tag_150\n      jumpi\n      mload(0x40)\n      0x08c379a000000000000000000000000000000000000000000000000000000000\n      dup2\n      mstore\n        /* \"#utility.yul\":5982:5984   */\n      0x20\n        /* \"@chainlink/contracts/src/v0.8/ConfirmedOwnerWithProposal.sol\":1551:1603  require(to != msg.sender, \"Cannot transfer to self\") */\n      0x04\n      dup3\n      add\n        /* \"#utility.yul\":5964:5985   */\n      mstore\n        /* \"#utility.yul\":6021:6023   */\n      0x17\n        /* \"#utility.yul\":6001:6019   */\n      0x24\n      dup3\n      add\n        /* \"#utility.yul\":5994:6024   */\n      mstore\n        /* \"#utility.yul\":6060:6085   */\n      0x43616e6e6f74207472616e7366657220746f2073656c66000000000000000000\n        /* \"#utility.yul\":6040:6058   */\n      0x44\n      dup3\n      add\n        /* \"#utility.yul\":6033:6086   */\n      mstore\n        /* \"#utility.yul\":6103:6121   */\n      0x64\n      add\n        /* \"@chainlink/contracts/src/v0.8/ConfirmedOwnerWithProposal.sol\":1551:1603  require(to != msg.sender, \"Cannot transfer to self\") */\n      tag_67\n        /* \"#utility.yul\":5780:6127   */\n      jump\n        /* \"@chainlink/contracts/src/v0.8/ConfirmedOwnerWithProposal.sol\":1551:1603  require(to != msg.sender, \"Cannot transfer to self\") */\n    tag_150:\n        /* \"@chainlink/contracts/src/v0.8/ConfirmedOwnerWithProposal.sol\":1610:1624  s_pendingOwner */\n      0x07\n        /* \"@chainlink/contracts/src/v0.8/ConfirmedOwnerWithProposal.sol\":1610:1629  s_pendingOwner = to */\n      dup1\n      sload\n      0xffffffffffffffffffffffff0000000000000000000000000000000000000000\n      and\n      0xffffffffffffffffffffffffffffffffffffffff\n      dup4\n      dup2\n      and\n      swap2\n      dup3\n      or\n      swap1\n      swap3\n      sstore\n        /* \"@chainlink/contracts/src/v0.8/ConfirmedOwnerWithProposal.sol\":1668:1675  s_owner */\n      sload(0x06)\n        /* \"@chainlink/contracts/src/v0.8/ConfirmedOwnerWithProposal.sol\":1641:1680  OwnershipTransferRequested(s_owner, to) */\n      mload(0x40)\n        /* \"@chainlink/contracts/src/v0.8/ConfirmedOwnerWithProposal.sol\":1610:1629  s_pendingOwner = to */\n      swap2\n      swap3\n        /* \"@chainlink/contracts/src/v0.8/ConfirmedOwnerWithProposal.sol\":1668:1675  s_owner */\n      and\n      swap1\n        /* \"@chainlink/contracts/src/v0.8/ConfirmedOwnerWithProposal.sol\":1641:1680  OwnershipTransferRequested(s_owner, to) */\n      0xed8889f560326eb138920d842192f0eb3dd22b4f139c87a2c57538e05bae1278\n      swap1\n      0x00\n      swap1\n      log3\n        /* \"@chainlink/contracts/src/v0.8/ConfirmedOwnerWithProposal.sol\":1497:1685  function _transferOwnership(address to) private {... */\n      pop\n      jump\t// out\n        /* \"@chainlink/contracts/src/v0.8/Chainlink.sol\":987:1338  function initialize(... */\n    tag_136:\n        /* \"@chainlink/contracts/src/v0.8/Chainlink.sol\":1129:1153  Chainlink.Request memory */\n      tag_153\n      0x40\n      dup1\n      mload\n      0xa0\n      dup2\n      add\n      dup3\n      mstore\n      0x00\n      dup1\n      dup3\n      mstore\n      0x20\n      dup1\n      dup4\n      add\n      dup3\n      swap1\n      mstore\n      dup3\n      dup5\n      add\n      dup3\n      swap1\n      mstore\n      0x60\n      dup1\n      dup5\n      add\n      dup4\n      swap1\n      mstore\n      dup5\n      mload\n      dup1\n      dup7\n      add\n      swap1\n      swap6\n      mstore\n      dup5\n      mstore\n      dup4\n      add\n      mstore\n      swap1\n      0x80\n      dup3\n      add\n      mstore\n      swap1\n      jump\n    tag_153:\n        /* \"@chainlink/contracts/src/v0.8/Chainlink.sol\":1161:1210  BufferChainlink.init(self.buf, defaultBufferSize) */\n      tag_155\n        /* \"@chainlink/contracts/src/v0.8/Chainlink.sol\":1182:1186  self */\n      dup6\n        /* \"@chainlink/contracts/src/v0.8/Chainlink.sol\":1182:1190  self.buf */\n      0x80\n      add\n      mload\n        /* \"@chainlink/contracts/src/v0.8/Chainlink.sol\":361:364  256 */\n      0x0100\n        /* \"@chainlink/contracts/src/v0.8/Chainlink.sol\":1161:1181  BufferChainlink.init */\n      tag_156\n        /* \"@chainlink/contracts/src/v0.8/Chainlink.sol\":1161:1210  BufferChainlink.init(self.buf, defaultBufferSize) */\n      jump\t// in\n    tag_155:\n      pop\n      pop\n        /* \"@chainlink/contracts/src/v0.8/Chainlink.sol\":1216:1231  self.id = jobId */\n      dup3\n      dup5\n      mstore\n        /* \"@chainlink/contracts/src/v0.8/Chainlink.sol\":1237:1272  self.callbackAddress = callbackAddr */\n      0xffffffffffffffffffffffffffffffffffffffff\n      dup3\n      and\n        /* \"@chainlink/contracts/src/v0.8/Chainlink.sol\":1237:1257  self.callbackAddress */\n      0x20\n      dup6\n      add\n        /* \"@chainlink/contracts/src/v0.8/Chainlink.sol\":1237:1272  self.callbackAddress = callbackAddr */\n      mstore\n        /* \"@chainlink/contracts/src/v0.8/Chainlink.sol\":1278:1316  self.callbackFunctionId = callbackFunc */\n      0xffffffff00000000000000000000000000000000000000000000000000000000\n      dup2\n      and\n        /* \"@chainlink/contracts/src/v0.8/Chainlink.sol\":1278:1301  self.callbackFunctionId */\n      0x40\n      dup6\n      add\n        /* \"@chainlink/contracts/src/v0.8/Chainlink.sol\":1278:1316  self.callbackFunctionId = callbackFunc */\n      mstore\n        /* \"@chainlink/contracts/src/v0.8/Chainlink.sol\":1216:1220  self */\n      dup4\n        /* \"@chainlink/contracts/src/v0.8/Chainlink.sol\":987:1338  function initialize(... */\n    tag_154:\n      swap5\n      swap4\n      pop\n      pop\n      pop\n      pop\n      jump\t// out\n        /* \"@chainlink/contracts/src/v0.8/vendor/CBORChainlink.sol\":2777:2981  function encodeString(BufferChainlink.buffer memory buf, string memory value) internal pure {... */\n    tag_139:\n        /* \"@chainlink/contracts/src/v0.8/vendor/CBORChainlink.sol\":2875:2946  encodeFixedNumeric(buf, MAJOR_TYPE_STRING, uint64(bytes(value).length)) */\n      tag_158\n        /* \"@chainlink/contracts/src/v0.8/vendor/CBORChainlink.sol\":2894:2897  buf */\n      dup3\n        /* \"@chainlink/contracts/src/v0.8/vendor/CBORChainlink.sol\":383:384  3 */\n      0x03\n        /* \"@chainlink/contracts/src/v0.8/vendor/CBORChainlink.sol\":2931:2936  value */\n      dup4\n        /* \"@chainlink/contracts/src/v0.8/vendor/CBORChainlink.sol\":2925:2944  bytes(value).length */\n      mload\n        /* \"@chainlink/contracts/src/v0.8/vendor/CBORChainlink.sol\":2875:2893  encodeFixedNumeric */\n      tag_159\n        /* \"@chainlink/contracts/src/v0.8/vendor/CBORChainlink.sol\":2875:2946  encodeFixedNumeric(buf, MAJOR_TYPE_STRING, uint64(bytes(value).length)) */\n      jump\t// in\n    tag_158:\n        /* \"@chainlink/contracts/src/v0.8/vendor/CBORChainlink.sol\":2952:2976  buf.append(bytes(value)) */\n      tag_140\n        /* \"@chainlink/contracts/src/v0.8/vendor/CBORChainlink.sol\":2952:2955  buf */\n      dup3\n        /* \"@chainlink/contracts/src/v0.8/vendor/CBORChainlink.sol\":2969:2974  value */\n      dup3\n        /* \"@chainlink/contracts/src/v0.8/vendor/CBORChainlink.sol\":2952:2962  buf.append */\n      tag_161\n        /* \"@chainlink/contracts/src/v0.8/vendor/CBORChainlink.sol\":2952:2976  buf.append(bytes(value)) */\n      jump\t// in\n        /* \"@chainlink/contracts/src/v0.8/ChainlinkClient.sol\":3687:4443  function sendChainlinkRequestTo(... */\n    tag_143:\n        /* \"@chainlink/contracts/src/v0.8/ChainlinkClient.sol\":3864:3878  s_requestCount */\n      sload(0x04)\n        /* \"@chainlink/contracts/src/v0.8/ChainlinkClient.sol\":3823:3840  bytes32 requestId */\n      0x00\n      swap1\n        /* \"@chainlink/contracts/src/v0.8/ChainlinkClient.sol\":3901:3910  nonce + 1 */\n      tag_163\n        /* \"@chainlink/contracts/src/v0.8/ChainlinkClient.sol\":3864:3878  s_requestCount */\n      dup2\n        /* \"@chainlink/contracts/src/v0.8/ChainlinkClient.sol\":3909:3910  1 */\n      0x01\n        /* \"@chainlink/contracts/src/v0.8/ChainlinkClient.sol\":3901:3910  nonce + 1 */\n      tag_164\n      jump\t// in\n    tag_163:\n        /* \"@chainlink/contracts/src/v0.8/ChainlinkClient.sol\":3884:3898  s_requestCount */\n      0x04\n        /* \"@chainlink/contracts/src/v0.8/ChainlinkClient.sol\":3884:3910  s_requestCount = nonce + 1 */\n      sstore\n        /* \"@chainlink/contracts/src/v0.8/ChainlinkClient.sol\":4245:4251  req.id */\n      dup4\n      mload\n        /* \"@chainlink/contracts/src/v0.8/ChainlinkClient.sol\":4280:4302  req.callbackFunctionId */\n      0x40\n      dup1\n      dup7\n      add\n      mload\n        /* \"@chainlink/contracts/src/v0.8/ChainlinkClient.sol\":4350:4357  req.buf */\n      0x80\n      dup8\n      add\n      mload\n        /* \"@chainlink/contracts/src/v0.8/ChainlinkClient.sol\":4350:4361  req.buf.buf */\n      mload\n        /* \"@chainlink/contracts/src/v0.8/ChainlinkClient.sol\":3946:4367  abi.encodeWithSelector(... */\n      swap2\n      mload\n        /* \"@chainlink/contracts/src/v0.8/ChainlinkClient.sol\":3916:3943  bytes memory encodedRequest */\n      0x00\n      swap4\n        /* \"@chainlink/contracts/src/v0.8/ChainlinkClient.sol\":3976:4024  ChainlinkRequestInterface.oracleRequest.selector */\n      0x4042994600000000000000000000000000000000000000000000000000000000\n      swap4\n        /* \"@chainlink/contracts/src/v0.8/ChainlinkClient.sol\":3946:4367  abi.encodeWithSelector(... */\n      tag_165\n      swap4\n        /* \"@chainlink/contracts/src/v0.8/ChainlinkClient.sol\":3916:3943  bytes memory encodedRequest */\n      dup7\n      swap4\n      dup5\n      swap4\n        /* \"@chainlink/contracts/src/v0.8/ChainlinkClient.sol\":4245:4251  req.id */\n      swap3\n        /* \"@chainlink/contracts/src/v0.8/ChainlinkClient.sol\":4267:4271  this */\n      address\n      swap3\n        /* \"@chainlink/contracts/src/v0.8/ChainlinkClient.sol\":4280:4302  req.callbackFunctionId */\n      swap2\n        /* \"@chainlink/contracts/src/v0.8/ChainlinkClient.sol\":4310:4315  nonce */\n      dup11\n      swap2\n        /* \"@chainlink/contracts/src/v0.8/ChainlinkClient.sol\":837:838  1 */\n      0x01\n      swap2\n        /* \"@chainlink/contracts/src/v0.8/ChainlinkClient.sol\":3946:4367  abi.encodeWithSelector(... */\n      0x24\n      add\n      tag_166\n      jump\t// in\n    tag_165:\n      0x40\n      dup1\n      mload\n      0xffffffffffffffffffffffffffffffffffffffffffffffffffffffffffffffe0\n      dup2\n      dup5\n      sub\n      add\n      dup2\n      mstore\n      swap2\n      swap1\n      mstore\n      0x20\n      dup2\n      add\n      dup1\n      mload\n      0xffffffffffffffffffffffffffffffffffffffffffffffffffffffff\n      and\n      0xffffffff00000000000000000000000000000000000000000000000000000000\n      swap1\n      swap4\n      and\n      swap3\n      swap1\n      swap3\n      or\n      swap1\n      swap2\n      mstore\n      swap1\n      pop\n        /* \"@chainlink/contracts/src/v0.8/ChainlinkClient.sol\":4380:4438  _rawRequest(oracleAddress, nonce, payment, encodedRequest) */\n      tag_167\n        /* \"@chainlink/contracts/src/v0.8/ChainlinkClient.sol\":4392:4405  oracleAddress */\n      dup7\n        /* \"@chainlink/contracts/src/v0.8/ChainlinkClient.sol\":4407:4412  nonce */\n      dup4\n        /* \"@chainlink/contracts/src/v0.8/ChainlinkClient.sol\":4414:4421  payment */\n      dup7\n        /* \"@chainlink/contracts/src/v0.8/ChainlinkClient.sol\":3946:4367  abi.encodeWithSelector(... */\n      dup5\n        /* \"@chainlink/contracts/src/v0.8/ChainlinkClient.sol\":4380:4391  _rawRequest */\n      tag_168\n        /* \"@chainlink/contracts/src/v0.8/ChainlinkClient.sol\":4380:4438  _rawRequest(oracleAddress, nonce, payment, encodedRequest) */\n      jump\t// in\n    tag_167:\n        /* \"@chainlink/contracts/src/v0.8/ChainlinkClient.sol\":4373:4438  return _rawRequest(oracleAddress, nonce, payment, encodedRequest) */\n      swap7\n        /* \"@chainlink/contracts/src/v0.8/ChainlinkClient.sol\":3687:4443  function sendChainlinkRequestTo(... */\n      swap6\n      pop\n      pop\n      pop\n      pop\n      pop\n      pop\n      jump\t// out\n        /* \"@chainlink/contracts/src/v0.8/vendor/BufferChainlink.sol\":1001:1400  function init(buffer memory buf, uint256 capacity) internal pure returns (buffer memory) {... */\n    tag_156:\n      0x40\n      dup1\n      mload\n      dup1\n      dup3\n      add\n      swap1\n      swap2\n      mstore\n      0x60\n      dup2\n      mstore\n      0x00\n      0x20\n      dup3\n      add\n      mstore\n        /* \"@chainlink/contracts/src/v0.8/vendor/BufferChainlink.sol\":1100:1113  capacity % 32 */\n      tag_172\n        /* \"@chainlink/contracts/src/v0.8/vendor/BufferChainlink.sol\":1111:1113  32 */\n      0x20\n        /* \"@chainlink/contracts/src/v0.8/vendor/BufferChainlink.sol\":1100:1108  capacity */\n      dup4\n        /* \"@chainlink/contracts/src/v0.8/vendor/BufferChainlink.sol\":1100:1113  capacity % 32 */\n      tag_173\n      jump\t// in\n    tag_172:\n        /* \"@chainlink/contracts/src/v0.8/vendor/BufferChainlink.sol\":1100:1118  capacity % 32 != 0 */\n      iszero\n        /* \"@chainlink/contracts/src/v0.8/vendor/BufferChainlink.sol\":1096:1167  if (capacity % 32 != 0) {... */\n      tag_174\n      jumpi\n        /* \"@chainlink/contracts/src/v0.8/vendor/BufferChainlink.sol\":1146:1159  capacity % 32 */\n      tag_175\n        /* \"@chainlink/contracts/src/v0.8/vendor/BufferChainlink.sol\":1157:1159  32 */\n      0x20\n        /* \"@chainlink/contracts/src/v0.8/vendor/BufferChainlink.sol\":1146:1154  capacity */\n      dup4\n        /* \"@chainlink/contracts/src/v0.8/vendor/BufferChainlink.sol\":1146:1159  capacity % 32 */\n      tag_173\n      jump\t// in\n    tag_175:\n        /* \"@chainlink/contracts/src/v0.8/vendor/BufferChainlink.sol\":1140:1160  32 - (capacity % 32) */\n      tag_176\n      swap1\n        /* \"@chainlink/contracts/src/v0.8/vendor/BufferChainlink.sol\":1140:1142  32 */\n      0x20\n        /* \"@chainlink/contracts/src/v0.8/vendor/BufferChainlink.sol\":1140:1160  32 - (capacity % 32) */\n      tag_177\n      jump\t// in\n    tag_176:\n        /* \"@chainlink/contracts/src/v0.8/vendor/BufferChainlink.sol\":1128:1160  capacity += 32 - (capacity % 32) */\n      tag_178\n      swap1\n      dup4\n      tag_164\n      jump\t// in\n    tag_178:\n      swap2\n      pop\n        /* \"@chainlink/contracts/src/v0.8/vendor/BufferChainlink.sol\":1096:1167  if (capacity % 32 != 0) {... */\n    tag_174:\n      pop\n        /* \"@chainlink/contracts/src/v0.8/vendor/BufferChainlink.sol\":1214:1226  buf.capacity */\n      0x20\n      dup3\n      dup2\n      add\n        /* \"@chainlink/contracts/src/v0.8/vendor/BufferChainlink.sol\":1214:1237  buf.capacity = capacity */\n      dup3\n      swap1\n      mstore\n        /* \"@chainlink/contracts/src/v0.8/vendor/BufferChainlink.sol\":1277:1281  0x40 */\n      0x40\n        /* \"@chainlink/contracts/src/v0.8/vendor/BufferChainlink.sol\":1271:1282  mload(0x40) */\n      dup1\n      mload\n        /* \"@chainlink/contracts/src/v0.8/vendor/BufferChainlink.sol\":1289:1305  mstore(buf, ptr) */\n      dup1\n      dup6\n      mstore\n      0x00\n        /* \"@chainlink/contracts/src/v0.8/vendor/BufferChainlink.sol\":1312:1326  mstore(ptr, 0) */\n      dup2\n      mstore\n        /* \"@chainlink/contracts/src/v0.8/vendor/BufferChainlink.sol\":1354:1372  add(ptr, capacity) */\n      swap1\n      swap3\n      add\n        /* \"@chainlink/contracts/src/v0.8/vendor/BufferChainlink.sol\":1346:1373  add(32, add(ptr, capacity)) */\n      add\n        /* \"@chainlink/contracts/src/v0.8/vendor/BufferChainlink.sol\":1333:1374  mstore(0x40, add(32, add(ptr, capacity))) */\n      swap1\n      mstore\n        /* \"@chainlink/contracts/src/v0.8/vendor/BufferChainlink.sol\":1214:1226  buf.capacity */\n      swap1\n        /* \"@chainlink/contracts/src/v0.8/vendor/BufferChainlink.sol\":1001:1400  function init(buffer memory buf, uint256 capacity) internal pure returns (buffer memory) {... */\n      jump\t// out\n        /* \"@chainlink/contracts/src/v0.8/vendor/CBORChainlink.sol\":682:1307  function encodeFixedNumeric(BufferChainlink.buffer memory buf, uint8 major, uint64 value) private pure {... */\n    tag_159:\n        /* \"@chainlink/contracts/src/v0.8/vendor/CBORChainlink.sol\":803:805  23 */\n      0x17\n        /* \"@chainlink/contracts/src/v0.8/vendor/CBORChainlink.sol\":794:799  value */\n      dup2\n        /* \"@chainlink/contracts/src/v0.8/vendor/CBORChainlink.sol\":794:805  value <= 23 */\n      0xffffffffffffffff\n      and\n      gt\n        /* \"@chainlink/contracts/src/v0.8/vendor/CBORChainlink.sol\":791:1303  if(value <= 23) {... */\n      tag_180\n      jumpi\n        /* \"@chainlink/contracts/src/v0.8/vendor/CBORChainlink.sol\":815:859  buf.appendUint8(uint8((major << 5) | value)) */\n      tag_181\n        /* \"@chainlink/contracts/src/v0.8/vendor/CBORChainlink.sol\":815:818  buf */\n      dup4\n        /* \"@chainlink/contracts/src/v0.8/vendor/CBORChainlink.sol\":837:857  (major << 5) | value */\n      0xe0\n        /* \"@chainlink/contracts/src/v0.8/vendor/CBORChainlink.sol\":847:848  5 */\n      0x05\n        /* \"@chainlink/contracts/src/v0.8/vendor/CBORChainlink.sol\":838:848  major << 5 */\n      dup6\n      swap1\n      shl\n        /* \"@chainlink/contracts/src/v0.8/vendor/CBORChainlink.sol\":837:857  (major << 5) | value */\n      and\n      dup4\n      or\n        /* \"@chainlink/contracts/src/v0.8/vendor/CBORChainlink.sol\":815:830  buf.appendUint8 */\n      tag_182\n        /* \"@chainlink/contracts/src/v0.8/vendor/CBORChainlink.sol\":815:859  buf.appendUint8(uint8((major << 5) | value)) */\n      jump\t// in\n    tag_181:\n      pop\n        /* \"@chainlink/contracts/src/v0.8/Chainlink.sol\":1951:2126  function add(... */\n      pop\n      pop\n      pop\n      jump\t// out\n        /* \"@chainlink/contracts/src/v0.8/vendor/CBORChainlink.sol\":791:1303  if(value <= 23) {... */\n    tag_180:\n        /* \"@chainlink/contracts/src/v0.8/vendor/CBORChainlink.sol\":885:889  0xFF */\n      0xff\n        /* \"@chainlink/contracts/src/v0.8/vendor/CBORChainlink.sol\":876:881  value */\n      dup2\n        /* \"@chainlink/contracts/src/v0.8/vendor/CBORChainlink.sol\":876:889  value <= 0xFF */\n      0xffffffffffffffff\n      and\n      gt\n        /* \"@chainlink/contracts/src/v0.8/vendor/CBORChainlink.sol\":872:1303  if (value <= 0xFF) {... */\n      tag_184\n      jumpi\n        /* \"@chainlink/contracts/src/v0.8/vendor/CBORChainlink.sol\":899:940  buf.appendUint8(uint8((major << 5) | 24)) */\n      tag_185\n        /* \"@chainlink/contracts/src/v0.8/vendor/CBORChainlink.sol\":899:902  buf */\n      dup4\n        /* \"@chainlink/contracts/src/v0.8/vendor/CBORChainlink.sol\":936:938  24 */\n      0x18\n        /* \"@chainlink/contracts/src/v0.8/vendor/CBORChainlink.sol\":922:932  major << 5 */\n      0x1fe0\n        /* \"@chainlink/contracts/src/v0.8/vendor/CBORChainlink.sol\":931:932  5 */\n      0x05\n        /* \"@chainlink/contracts/src/v0.8/vendor/CBORChainlink.sol\":922:932  major << 5 */\n      dup7\n      swap1\n      shl\n      and\n        /* \"@chainlink/contracts/src/v0.8/vendor/CBORChainlink.sol\":921:938  (major << 5) | 24 */\n      or\n        /* \"@chainlink/contracts/src/v0.8/vendor/CBORChainlink.sol\":899:914  buf.appendUint8 */\n      tag_182\n        /* \"@chainlink/contracts/src/v0.8/vendor/CBORChainlink.sol\":899:940  buf.appendUint8(uint8((major << 5) | 24)) */\n      jump\t// in\n    tag_185:\n      pop\n        /* \"@chainlink/contracts/src/v0.8/vendor/CBORChainlink.sol\":948:971  buf.appendInt(value, 1) */\n      tag_181\n        /* \"@chainlink/contracts/src/v0.8/vendor/CBORChainlink.sol\":948:951  buf */\n      dup4\n        /* \"@chainlink/contracts/src/v0.8/vendor/CBORChainlink.sol\":948:971  buf.appendInt(value, 1) */\n      0xffffffffffffffff\n      dup4\n      and\n        /* \"@chainlink/contracts/src/v0.8/vendor/CBORChainlink.sol\":969:970  1 */\n      0x01\n        /* \"@chainlink/contracts/src/v0.8/vendor/CBORChainlink.sol\":948:961  buf.appendInt */\n      tag_187\n        /* \"@chainlink/contracts/src/v0.8/vendor/CBORChainlink.sol\":948:971  buf.appendInt(value, 1) */\n      jump\t// in\n        /* \"@chainlink/contracts/src/v0.8/vendor/CBORChainlink.sol\":872:1303  if (value <= 0xFF) {... */\n    tag_184:\n        /* \"@chainlink/contracts/src/v0.8/vendor/CBORChainlink.sol\":997:1003  0xFFFF */\n      0xffff\n        /* \"@chainlink/contracts/src/v0.8/vendor/CBORChainlink.sol\":988:993  value */\n      dup2\n        /* \"@chainlink/contracts/src/v0.8/vendor/CBORChainlink.sol\":988:1003  value <= 0xFFFF */\n      0xffffffffffffffff\n      and\n      gt\n        /* \"@chainlink/contracts/src/v0.8/vendor/CBORChainlink.sol\":984:1303  if (value <= 0xFFFF) {... */\n      tag_189\n      jumpi\n        /* \"@chainlink/contracts/src/v0.8/vendor/CBORChainlink.sol\":1013:1054  buf.appendUint8(uint8((major << 5) | 25)) */\n      tag_190\n        /* \"@chainlink/contracts/src/v0.8/vendor/CBORChainlink.sol\":1013:1016  buf */\n      dup4\n        /* \"@chainlink/contracts/src/v0.8/vendor/CBORChainlink.sol\":1050:1052  25 */\n      0x19\n        /* \"@chainlink/contracts/src/v0.8/vendor/CBORChainlink.sol\":1036:1046  major << 5 */\n      0x1fe0\n        /* \"@chainlink/contracts/src/v0.8/vendor/CBORChainlink.sol\":1045:1046  5 */\n      0x05\n        /* \"@chainlink/contracts/src/v0.8/vendor/CBORChainlink.sol\":1036:1046  major << 5 */\n      dup7\n      swap1\n      shl\n      and\n        /* \"@chainlink/contracts/src/v0.8/vendor/CBORChainlink.sol\":1035:1052  (major << 5) | 25 */\n      or\n        /* \"@chainlink/contracts/src/v0.8/vendor/CBORChainlink.sol\":1013:1028  buf.appendUint8 */\n      tag_182\n        /* \"@chainlink/contracts/src/v0.8/vendor/CBORChainlink.sol\":1013:1054  buf.appendUint8(uint8((major << 5) | 25)) */\n      jump\t// in\n    tag_190:\n      pop\n        /* \"@chainlink/contracts/src/v0.8/vendor/CBORChainlink.sol\":1062:1085  buf.appendInt(value, 2) */\n      tag_181\n        /* \"@chainlink/contracts/src/v0.8/vendor/CBORChainlink.sol\":1062:1065  buf */\n      dup4\n        /* \"@chainlink/contracts/src/v0.8/vendor/CBORChainlink.sol\":1062:1085  buf.appendInt(value, 2) */\n      0xffffffffffffffff\n      dup4\n      and\n        /* \"@chainlink/contracts/src/v0.8/vendor/CBORChainlink.sol\":1083:1084  2 */\n      0x02\n        /* \"@chainlink/contracts/src/v0.8/vendor/CBORChainlink.sol\":1062:1075  buf.appendInt */\n      tag_187\n        /* \"@chainlink/contracts/src/v0.8/vendor/CBORChainlink.sol\":1062:1085  buf.appendInt(value, 2) */\n      jump\t// in\n        /* \"@chainlink/contracts/src/v0.8/vendor/CBORChainlink.sol\":984:1303  if (value <= 0xFFFF) {... */\n    tag_189:\n        /* \"@chainlink/contracts/src/v0.8/vendor/CBORChainlink.sol\":1111:1121  0xFFFFFFFF */\n      0xffffffff\n        /* \"@chainlink/contracts/src/v0.8/vendor/CBORChainlink.sol\":1102:1107  value */\n      dup2\n        /* \"@chainlink/contracts/src/v0.8/vendor/CBORChainlink.sol\":1102:1121  value <= 0xFFFFFFFF */\n      0xffffffffffffffff\n      and\n      gt\n        /* \"@chainlink/contracts/src/v0.8/vendor/CBORChainlink.sol\":1098:1303  if (value <= 0xFFFFFFFF) {... */\n      tag_193\n      jumpi\n        /* \"@chainlink/contracts/src/v0.8/vendor/CBORChainlink.sol\":1131:1172  buf.appendUint8(uint8((major << 5) | 26)) */\n      tag_194\n        /* \"@chainlink/contracts/src/v0.8/vendor/CBORChainlink.sol\":1131:1134  buf */\n      dup4\n        /* \"@chainlink/contracts/src/v0.8/vendor/CBORChainlink.sol\":1168:1170  26 */\n      0x1a\n        /* \"@chainlink/contracts/src/v0.8/vendor/CBORChainlink.sol\":1154:1164  major << 5 */\n      0x1fe0\n        /* \"@chainlink/contracts/src/v0.8/vendor/CBORChainlink.sol\":1163:1164  5 */\n      0x05\n        /* \"@chainlink/contracts/src/v0.8/vendor/CBORChainlink.sol\":1154:1164  major << 5 */\n      dup7\n      swap1\n      shl\n      and\n        /* \"@chainlink/contracts/src/v0.8/vendor/CBORChainlink.sol\":1153:1170  (major << 5) | 26 */\n      or\n        /* \"@chainlink/contracts/src/v0.8/vendor/CBORChainlink.sol\":1131:1146  buf.appendUint8 */\n      tag_182\n        /* \"@chainlink/contracts/src/v0.8/vendor/CBORChainlink.sol\":1131:1172  buf.appendUint8(uint8((major << 5) | 26)) */\n      jump\t// in\n    tag_194:\n      pop\n        /* \"@chainlink/contracts/src/v0.8/vendor/CBORChainlink.sol\":1180:1203  buf.appendInt(value, 4) */\n      tag_181\n        /* \"@chainlink/contracts/src/v0.8/vendor/CBORChainlink.sol\":1180:1183  buf */\n      dup4\n        /* \"@chainlink/contracts/src/v0.8/vendor/CBORChainlink.sol\":1180:1203  buf.appendInt(value, 4) */\n      0xffffffffffffffff\n      dup4\n      and\n        /* \"@chainlink/contracts/src/v0.8/vendor/CBORChainlink.sol\":1201:1202  4 */\n      0x04\n        /* \"@chainlink/contracts/src/v0.8/vendor/CBORChainlink.sol\":1180:1193  buf.appendInt */\n      tag_187\n        /* \"@chainlink/contracts/src/v0.8/vendor/CBORChainlink.sol\":1180:1203  buf.appendInt(value, 4) */\n      jump\t// in\n        /* \"@chainlink/contracts/src/v0.8/vendor/CBORChainlink.sol\":1098:1303  if (value <= 0xFFFFFFFF) {... */\n    tag_193:\n        /* \"@chainlink/contracts/src/v0.8/vendor/CBORChainlink.sol\":1224:1265  buf.appendUint8(uint8((major << 5) | 27)) */\n      tag_197\n        /* \"@chainlink/contracts/src/v0.8/vendor/CBORChainlink.sol\":1224:1227  buf */\n      dup4\n        /* \"@chainlink/contracts/src/v0.8/vendor/CBORChainlink.sol\":1261:1263  27 */\n      0x1b\n        /* \"@chainlink/contracts/src/v0.8/vendor/CBORChainlink.sol\":1247:1257  major << 5 */\n      0x1fe0\n        /* \"@chainlink/contracts/src/v0.8/vendor/CBORChainlink.sol\":1256:1257  5 */\n      0x05\n        /* \"@chainlink/contracts/src/v0.8/vendor/CBORChainlink.sol\":1247:1257  major << 5 */\n      dup7\n      swap1\n      shl\n      and\n        /* \"@chainlink/contracts/src/v0.8/vendor/CBORChainlink.sol\":1246:1263  (major << 5) | 27 */\n      or\n        /* \"@chainlink/contracts/src/v0.8/vendor/CBORChainlink.sol\":1224:1239  buf.appendUint8 */\n      tag_182\n        /* \"@chainlink/contracts/src/v0.8/vendor/CBORChainlink.sol\":1224:1265  buf.appendUint8(uint8((major << 5) | 27)) */\n      jump\t// in\n    tag_197:\n      pop\n        /* \"@chainlink/contracts/src/v0.8/vendor/CBORChainlink.sol\":1273:1296  buf.appendInt(value, 8) */\n      tag_181\n        /* \"@chainlink/contracts/src/v0.8/vendor/CBORChainlink.sol\":1273:1276  buf */\n      dup4\n        /* \"@chainlink/contracts/src/v0.8/vendor/CBORChainlink.sol\":1273:1296  buf.appendInt(value, 8) */\n      0xffffffffffffffff\n      dup4\n      and\n        /* \"@chainlink/contracts/src/v0.8/vendor/CBORChainlink.sol\":1294:1295  8 */\n      0x08\n        /* \"@chainlink/contracts/src/v0.8/vendor/CBORChainlink.sol\":1273:1286  buf.appendInt */\n      tag_187\n        /* \"@chainlink/contracts/src/v0.8/vendor/CBORChainlink.sol\":1273:1296  buf.appendInt(value, 8) */\n      jump\t// in\n        /* \"@chainlink/contracts/src/v0.8/vendor/BufferChainlink.sol\":4692:4847  function append(buffer memory buf, bytes memory data) internal pure returns (buffer memory) {... */\n    tag_161:\n      0x40\n      dup1\n      mload\n      dup1\n      dup3\n      add\n      swap1\n      swap2\n      mstore\n      0x60\n      dup2\n      mstore\n      0x00\n      0x20\n      dup3\n      add\n      mstore\n        /* \"@chainlink/contracts/src/v0.8/vendor/BufferChainlink.sol\":4797:4842  write(buf, buf.buf.length, data, data.length) */\n      tag_142\n        /* \"@chainlink/contracts/src/v0.8/vendor/BufferChainlink.sol\":4803:4806  buf */\n      dup4\n        /* \"@chainlink/contracts/src/v0.8/vendor/BufferChainlink.sol\":4808:4811  buf */\n      dup5\n        /* \"@chainlink/contracts/src/v0.8/vendor/BufferChainlink.sol\":4808:4815  buf.buf */\n      0x00\n      add\n      mload\n        /* \"@chainlink/contracts/src/v0.8/vendor/BufferChainlink.sol\":4808:4822  buf.buf.length */\n      mload\n        /* \"@chainlink/contracts/src/v0.8/vendor/BufferChainlink.sol\":4824:4828  data */\n      dup5\n        /* \"@chainlink/contracts/src/v0.8/vendor/BufferChainlink.sol\":4830:4834  data */\n      dup6\n        /* \"@chainlink/contracts/src/v0.8/vendor/BufferChainlink.sol\":4830:4841  data.length */\n      mload\n        /* \"@chainlink/contracts/src/v0.8/vendor/BufferChainlink.sol\":4797:4802  write */\n      tag_202\n        /* \"@chainlink/contracts/src/v0.8/vendor/BufferChainlink.sol\":4797:4842  write(buf, buf.buf.length, data, data.length) */\n      jump\t// in\n        /* \"@chainlink/contracts/src/v0.8/ChainlinkClient.sol\":6629:7059  function _rawRequest(... */\n    tag_168:\n        /* \"@chainlink/contracts/src/v0.8/ChainlinkClient.sol\":6818:6847  abi.encodePacked(this, nonce) */\n      mload(0x40)\n        /* \"#utility.yul\":7964:8030   */\n      0xffffffffffffffffffffffffffffffffffffffff000000000000000000000000\n        /* \"@chainlink/contracts/src/v0.8/ChainlinkClient.sol\":6835:6839  this */\n      address\n        /* \"#utility.yul\":7951:7953   */\n      0x60\n        /* \"#utility.yul\":7947:7962   */\n      shl\n        /* \"#utility.yul\":7943:8031   */\n      and\n        /* \"@chainlink/contracts/src/v0.8/ChainlinkClient.sol\":6818:6847  abi.encodePacked(this, nonce) */\n      0x20\n      dup3\n      add\n        /* \"#utility.yul\":7931:8032   */\n      mstore\n        /* \"#utility.yul\":8048:8060   */\n      0x34\n      dup2\n      add\n        /* \"#utility.yul\":8041:8069   */\n      dup5\n      swap1\n      mstore\n        /* \"@chainlink/contracts/src/v0.8/ChainlinkClient.sol\":6771:6788  bytes32 requestId */\n      0x00\n      swap1\n        /* \"#utility.yul\":8085:8097   */\n      0x54\n      add\n        /* \"@chainlink/contracts/src/v0.8/ChainlinkClient.sol\":6818:6847  abi.encodePacked(this, nonce) */\n      0x40\n      dup1\n      mload\n      dup1\n      dup4\n      sub\n      0xffffffffffffffffffffffffffffffffffffffffffffffffffffffffffffffe0\n      add\n      dup2\n      mstore\n      dup3\n      dup3\n      mstore\n        /* \"@chainlink/contracts/src/v0.8/ChainlinkClient.sol\":6808:6848  keccak256(abi.encodePacked(this, nonce)) */\n      dup1\n      mload\n        /* \"@chainlink/contracts/src/v0.8/ChainlinkClient.sol\":6818:6847  abi.encodePacked(this, nonce) */\n      0x20\n        /* \"@chainlink/contracts/src/v0.8/ChainlinkClient.sol\":6808:6848  keccak256(abi.encodePacked(this, nonce)) */\n      swap2\n      dup3\n      add\n      keccak256\n        /* \"@chainlink/contracts/src/v0.8/ChainlinkClient.sol\":6854:6882  s_pendingRequests[requestId] */\n      0x00\n      dup2\n      dup2\n      mstore\n        /* \"@chainlink/contracts/src/v0.8/ChainlinkClient.sol\":6854:6871  s_pendingRequests */\n      0x05\n        /* \"@chainlink/contracts/src/v0.8/ChainlinkClient.sol\":6854:6882  s_pendingRequests[requestId] */\n      swap1\n      swap3\n      mstore\n      swap2\n      dup2\n      keccak256\n        /* \"@chainlink/contracts/src/v0.8/ChainlinkClient.sol\":6854:6898  s_pendingRequests[requestId] = oracleAddress */\n      dup1\n      sload\n      0xffffffffffffffffffffffff0000000000000000000000000000000000000000\n      and\n      0xffffffffffffffffffffffffffffffffffffffff\n      dup11\n      and\n      or\n      swap1\n      sstore\n        /* \"@chainlink/contracts/src/v0.8/ChainlinkClient.sol\":6808:6848  keccak256(abi.encodePacked(this, nonce)) */\n      swap1\n      swap3\n      pop\n      dup3\n      swap2\n        /* \"@chainlink/contracts/src/v0.8/ChainlinkClient.sol\":6909:6938  ChainlinkRequested(requestId) */\n      0xb5e6e01e79f91267dc17b4e6314d5d4d03593d2ceee0fbb452b750bd70ea5af9\n      swap2\n        /* \"@chainlink/contracts/src/v0.8/ChainlinkClient.sol\":6854:6882  s_pendingRequests[requestId] */\n      swap1\n        /* \"@chainlink/contracts/src/v0.8/ChainlinkClient.sol\":6909:6938  ChainlinkRequested(requestId) */\n      log2\n        /* \"@chainlink/contracts/src/v0.8/ChainlinkClient.sol\":6952:6958  s_link */\n      sload(0x02)\n        /* \"@chainlink/contracts/src/v0.8/ChainlinkClient.sol\":6952:7014  s_link.transferAndCall(oracleAddress, payment, encodedRequest) */\n      mload(0x40)\n      0x4000aea000000000000000000000000000000000000000000000000000000000\n      dup2\n      mstore\n        /* \"@chainlink/contracts/src/v0.8/ChainlinkClient.sol\":6952:6958  s_link */\n      0xffffffffffffffffffffffffffffffffffffffff\n      swap1\n      swap2\n      and\n      swap1\n        /* \"@chainlink/contracts/src/v0.8/ChainlinkClient.sol\":6952:6974  s_link.transferAndCall */\n      0x4000aea0\n      swap1\n        /* \"@chainlink/contracts/src/v0.8/ChainlinkClient.sol\":6952:7014  s_link.transferAndCall(oracleAddress, payment, encodedRequest) */\n      tag_206\n      swap1\n        /* \"@chainlink/contracts/src/v0.8/ChainlinkClient.sol\":6975:6988  oracleAddress */\n      dup9\n      swap1\n        /* \"@chainlink/contracts/src/v0.8/ChainlinkClient.sol\":6990:6997  payment */\n      dup8\n      swap1\n        /* \"@chainlink/contracts/src/v0.8/ChainlinkClient.sol\":6999:7013  encodedRequest */\n      dup8\n      swap1\n        /* \"@chainlink/contracts/src/v0.8/ChainlinkClient.sol\":6952:7014  s_link.transferAndCall(oracleAddress, payment, encodedRequest) */\n      0x04\n      add\n      tag_207\n      jump\t// in\n    tag_206:\n      0x20\n      mload(0x40)\n      dup1\n      dup4\n      sub\n      dup2\n      0x00\n      dup8\n      gas\n      call\n      iszero\n      dup1\n      iszero\n      tag_209\n      jumpi\n      returndatasize\n      0x00\n      dup1\n      returndatacopy\n      revert(0x00, returndatasize)\n    tag_209:\n      pop\n      pop\n      pop\n      pop\n      mload(0x40)\n      returndatasize\n      not(0x1f)\n      0x1f\n      dup3\n      add\n      and\n      dup3\n      add\n      dup1\n      0x40\n      mstore\n      pop\n      dup2\n      add\n      swap1\n      tag_210\n      swap2\n      swap1\n      tag_112\n      jump\t// in\n    tag_210:\n        /* \"@chainlink/contracts/src/v0.8/ChainlinkClient.sol\":6944:7054  require(s_link.transferAndCall(oracleAddress, payment, encodedRequest), \"unable to transferAndCall to oracle\") */\n      tag_154\n      jumpi\n      mload(0x40)\n      0x08c379a000000000000000000000000000000000000000000000000000000000\n      dup2\n      mstore\n        /* \"#utility.yul\":8724:8726   */\n      0x20\n        /* \"@chainlink/contracts/src/v0.8/ChainlinkClient.sol\":6944:7054  require(s_link.transferAndCall(oracleAddress, payment, encodedRequest), \"unable to transferAndCall to oracle\") */\n      0x04\n      dup3\n      add\n        /* \"#utility.yul\":8706:8727   */\n      mstore\n        /* \"#utility.yul\":8763:8765   */\n      0x23\n        /* \"#utility.yul\":8743:8761   */\n      0x24\n      dup3\n      add\n        /* \"#utility.yul\":8736:8766   */\n      mstore\n        /* \"#utility.yul\":8802:8836   */\n      0x756e61626c6520746f207472616e73666572416e6443616c6c20746f206f7261\n        /* \"#utility.yul\":8782:8800   */\n      0x44\n      dup3\n      add\n        /* \"#utility.yul\":8775:8837   */\n      mstore\n        /* \"#utility.yul\":8873:8878   */\n      0x636c650000000000000000000000000000000000000000000000000000000000\n        /* \"#utility.yul\":8853:8871   */\n      0x64\n      dup3\n      add\n        /* \"#utility.yul\":8846:8879   */\n      mstore\n        /* \"#utility.yul\":8896:8915   */\n      0x84\n      add\n        /* \"@chainlink/contracts/src/v0.8/ChainlinkClient.sol\":6944:7054  require(s_link.transferAndCall(oracleAddress, payment, encodedRequest), \"unable to transferAndCall to oracle\") */\n      tag_67\n        /* \"#utility.yul\":8522:8921   */\n      jump\n        /* \"@chainlink/contracts/src/v0.8/vendor/BufferChainlink.sol\":6040:6185  function appendUint8(buffer memory buf, uint8 data) internal pure returns (buffer memory) {... */\n    tag_182:\n      0x40\n      dup1\n      mload\n      dup1\n      dup3\n      add\n      swap1\n      swap2\n      mstore\n      0x60\n      dup2\n      mstore\n      0x00\n      0x20\n      dup3\n      add\n      mstore\n        /* \"@chainlink/contracts/src/v0.8/vendor/BufferChainlink.sol\":6143:6180  writeUint8(buf, buf.buf.length, data) */\n      tag_142\n        /* \"@chainlink/contracts/src/v0.8/vendor/BufferChainlink.sol\":6154:6157  buf */\n      dup4\n        /* \"@chainlink/contracts/src/v0.8/vendor/BufferChainlink.sol\":6159:6162  buf */\n      dup5\n        /* \"@chainlink/contracts/src/v0.8/vendor/BufferChainlink.sol\":6159:6166  buf.buf */\n      0x00\n      add\n      mload\n        /* \"@chainlink/contracts/src/v0.8/vendor/BufferChainlink.sol\":6159:6173  buf.buf.length */\n      mload\n        /* \"@chainlink/contracts/src/v0.8/vendor/BufferChainlink.sol\":6175:6179  data */\n      dup5\n        /* \"@chainlink/contracts/src/v0.8/vendor/BufferChainlink.sol\":6143:6153  writeUint8 */\n      tag_217\n        /* \"@chainlink/contracts/src/v0.8/vendor/BufferChainlink.sol\":6143:6180  writeUint8(buf, buf.buf.length, data) */\n      jump\t// in\n        /* \"@chainlink/contracts/src/v0.8/vendor/BufferChainlink.sol\":9894:10071  function appendInt(... */\n    tag_187:\n      0x40\n      dup1\n      mload\n      dup1\n      dup3\n      add\n      swap1\n      swap2\n      mstore\n      0x60\n      dup2\n      mstore\n      0x00\n      0x20\n      dup3\n      add\n      mstore\n        /* \"@chainlink/contracts/src/v0.8/vendor/BufferChainlink.sol\":10026:10066  writeInt(buf, buf.buf.length, data, len) */\n      tag_154\n        /* \"@chainlink/contracts/src/v0.8/vendor/BufferChainlink.sol\":10035:10038  buf */\n      dup5\n        /* \"@chainlink/contracts/src/v0.8/vendor/BufferChainlink.sol\":10040:10043  buf */\n      dup6\n        /* \"@chainlink/contracts/src/v0.8/vendor/BufferChainlink.sol\":10040:10047  buf.buf */\n      0x00\n      add\n      mload\n        /* \"@chainlink/contracts/src/v0.8/vendor/BufferChainlink.sol\":10040:10054  buf.buf.length */\n      mload\n        /* \"@chainlink/contracts/src/v0.8/vendor/BufferChainlink.sol\":10056:10060  data */\n      dup6\n        /* \"@chainlink/contracts/src/v0.8/vendor/BufferChainlink.sol\":10062:10065  len */\n      dup6\n        /* \"@chainlink/contracts/src/v0.8/vendor/BufferChainlink.sol\":10026:10034  writeInt */\n      tag_221\n        /* \"@chainlink/contracts/src/v0.8/vendor/BufferChainlink.sol\":10026:10066  writeInt(buf, buf.buf.length, data, len) */\n      jump\t// in\n        /* \"@chainlink/contracts/src/v0.8/vendor/BufferChainlink.sol\":2745:3955  function write(... */\n    tag_202:\n      0x40\n      dup1\n      mload\n      dup1\n      dup3\n      add\n      swap1\n      swap2\n      mstore\n      0x60\n      dup2\n      mstore\n      0x00\n      0x20\n      dup3\n      add\n      mstore\n        /* \"@chainlink/contracts/src/v0.8/vendor/BufferChainlink.sol\":2903:2907  data */\n      dup3\n        /* \"@chainlink/contracts/src/v0.8/vendor/BufferChainlink.sol\":2903:2914  data.length */\n      mload\n        /* \"@chainlink/contracts/src/v0.8/vendor/BufferChainlink.sol\":2896:2899  len */\n      dup3\n        /* \"@chainlink/contracts/src/v0.8/vendor/BufferChainlink.sol\":2896:2914  len <= data.length */\n      gt\n      iszero\n        /* \"@chainlink/contracts/src/v0.8/vendor/BufferChainlink.sol\":2888:2915  require(len <= data.length) */\n      tag_224\n      jumpi\n      0x00\n      dup1\n      revert\n    tag_224:\n        /* \"@chainlink/contracts/src/v0.8/vendor/BufferChainlink.sol\":2938:2950  buf.capacity */\n      0x20\n      dup6\n      add\n      mload\n        /* \"@chainlink/contracts/src/v0.8/vendor/BufferChainlink.sol\":2926:2935  off + len */\n      tag_225\n        /* \"@chainlink/contracts/src/v0.8/vendor/BufferChainlink.sol\":2932:2935  len */\n      dup4\n        /* \"@chainlink/contracts/src/v0.8/vendor/BufferChainlink.sol\":2926:2929  off */\n      dup7\n        /* \"@chainlink/contracts/src/v0.8/vendor/BufferChainlink.sol\":2926:2935  off + len */\n      tag_164\n      jump\t// in\n    tag_225:\n        /* \"@chainlink/contracts/src/v0.8/vendor/BufferChainlink.sol\":2926:2950  off + len > buf.capacity */\n      gt\n        /* \"@chainlink/contracts/src/v0.8/vendor/BufferChainlink.sol\":2922:3012  if (off + len > buf.capacity) {... */\n      iszero\n      tag_227\n      jumpi\n        /* \"@chainlink/contracts/src/v0.8/vendor/BufferChainlink.sol\":2960:3005  resize(buf, max(buf.capacity, len + off) * 2) */\n      tag_227\n        /* \"@chainlink/contracts/src/v0.8/vendor/BufferChainlink.sol\":2967:2970  buf */\n      dup6\n        /* \"@chainlink/contracts/src/v0.8/vendor/BufferChainlink.sol\":2972:3000  max(buf.capacity, len + off) */\n      tag_228\n        /* \"@chainlink/contracts/src/v0.8/vendor/BufferChainlink.sol\":2976:2979  buf */\n      dup8\n        /* \"@chainlink/contracts/src/v0.8/vendor/BufferChainlink.sol\":2976:2988  buf.capacity */\n      0x20\n      add\n      mload\n        /* \"@chainlink/contracts/src/v0.8/vendor/BufferChainlink.sol\":2996:2999  off */\n      dup8\n        /* \"@chainlink/contracts/src/v0.8/vendor/BufferChainlink.sol\":2990:2993  len */\n      dup7\n        /* \"@chainlink/contracts/src/v0.8/vendor/BufferChainlink.sol\":2990:2999  len + off */\n      tag_229\n      swap2\n      swap1\n      tag_164\n      jump\t// in\n    tag_229:\n        /* \"@chainlink/contracts/src/v0.8/vendor/BufferChainlink.sol\":2972:2975  max */\n      tag_230\n        /* \"@chainlink/contracts/src/v0.8/vendor/BufferChainlink.sol\":2972:3000  max(buf.capacity, len + off) */\n      jump\t// in\n    tag_228:\n        /* \"@chainlink/contracts/src/v0.8/vendor/BufferChainlink.sol\":2972:3004  max(buf.capacity, len + off) * 2 */\n      tag_231\n      swap1\n        /* \"@chainlink/contracts/src/v0.8/vendor/BufferChainlink.sol\":3003:3004  2 */\n      0x02\n        /* \"@chainlink/contracts/src/v0.8/vendor/BufferChainlink.sol\":2972:3004  max(buf.capacity, len + off) * 2 */\n      tag_232\n      jump\t// in\n    tag_231:\n        /* \"@chainlink/contracts/src/v0.8/vendor/BufferChainlink.sol\":2960:2966  resize */\n      tag_233\n        /* \"@chainlink/contracts/src/v0.8/vendor/BufferChainlink.sol\":2960:3005  resize(buf, max(buf.capacity, len + off) * 2) */\n      jump\t// in\n    tag_227:\n        /* \"@chainlink/contracts/src/v0.8/vendor/BufferChainlink.sol\":3018:3030  uint256 dest */\n      0x00\n        /* \"@chainlink/contracts/src/v0.8/vendor/BufferChainlink.sol\":3036:3047  uint256 src */\n      dup1\n        /* \"@chainlink/contracts/src/v0.8/vendor/BufferChainlink.sol\":3133:3136  buf */\n      dup7\n        /* \"@chainlink/contracts/src/v0.8/vendor/BufferChainlink.sol\":3127:3137  mload(buf) */\n      mload\n        /* \"@chainlink/contracts/src/v0.8/vendor/BufferChainlink.sol\":3204:3210  bufptr */\n      dup1\n        /* \"@chainlink/contracts/src/v0.8/vendor/BufferChainlink.sol\":3198:3211  mload(bufptr) */\n      mload\n        /* \"@chainlink/contracts/src/v0.8/vendor/BufferChainlink.sol\":3320:3323  off */\n      dup8\n        /* \"@chainlink/contracts/src/v0.8/vendor/BufferChainlink.sol\":3315:3317  32 */\n      0x20\n        /* \"@chainlink/contracts/src/v0.8/vendor/BufferChainlink.sol\":3307:3313  bufptr */\n      dup4\n        /* \"@chainlink/contracts/src/v0.8/vendor/BufferChainlink.sol\":3303:3318  add(bufptr, 32) */\n      add\n        /* \"@chainlink/contracts/src/v0.8/vendor/BufferChainlink.sol\":3299:3324  add(add(bufptr, 32), off) */\n      add\n        /* \"@chainlink/contracts/src/v0.8/vendor/BufferChainlink.sol\":3291:3324  dest := add(add(bufptr, 32), off) */\n      swap4\n      pop\n        /* \"@chainlink/contracts/src/v0.8/vendor/BufferChainlink.sol\":3404:3410  buflen */\n      dup1\n        /* \"@chainlink/contracts/src/v0.8/vendor/BufferChainlink.sol\":3398:3401  off */\n      dup9\n        /* \"@chainlink/contracts/src/v0.8/vendor/BufferChainlink.sol\":3393:3396  len */\n      dup8\n        /* \"@chainlink/contracts/src/v0.8/vendor/BufferChainlink.sol\":3389:3402  add(len, off) */\n      add\n        /* \"@chainlink/contracts/src/v0.8/vendor/BufferChainlink.sol\":3386:3411  gt(add(len, off), buflen) */\n      gt\n        /* \"@chainlink/contracts/src/v0.8/vendor/BufferChainlink.sol\":3383:3459  if gt(add(len, off), buflen) {... */\n      iszero\n      tag_234\n      jumpi\n        /* \"@chainlink/contracts/src/v0.8/vendor/BufferChainlink.sol\":3446:3449  off */\n      dup8\n        /* \"@chainlink/contracts/src/v0.8/vendor/BufferChainlink.sol\":3441:3444  len */\n      dup7\n        /* \"@chainlink/contracts/src/v0.8/vendor/BufferChainlink.sol\":3437:3450  add(len, off) */\n      add\n        /* \"@chainlink/contracts/src/v0.8/vendor/BufferChainlink.sol\":3429:3435  bufptr */\n      dup3\n        /* \"@chainlink/contracts/src/v0.8/vendor/BufferChainlink.sol\":3422:3451  mstore(bufptr, add(len, off)) */\n      mstore\n        /* \"@chainlink/contracts/src/v0.8/vendor/BufferChainlink.sol\":3383:3459  if gt(add(len, off), buflen) {... */\n    tag_234:\n      pop\n      pop\n      pop\n        /* \"@chainlink/contracts/src/v0.8/vendor/BufferChainlink.sol\":3483:3485  32 */\n      0x20\n        /* \"@chainlink/contracts/src/v0.8/vendor/BufferChainlink.sol\":3473:3486  add(data, 32) */\n      dup5\n      add\n        /* \"@chainlink/contracts/src/v0.8/vendor/BufferChainlink.sol\":3544:3673  for (; len >= 32; len -= 32) {... */\n    tag_235:\n        /* \"@chainlink/contracts/src/v0.8/vendor/BufferChainlink.sol\":3558:3560  32 */\n      0x20\n        /* \"@chainlink/contracts/src/v0.8/vendor/BufferChainlink.sol\":3551:3554  len */\n      dup5\n        /* \"@chainlink/contracts/src/v0.8/vendor/BufferChainlink.sol\":3551:3560  len >= 32 */\n      lt\n        /* \"@chainlink/contracts/src/v0.8/vendor/BufferChainlink.sol\":3544:3673  for (; len >= 32; len -= 32) {... */\n      tag_236\n      jumpi\n        /* \"@chainlink/contracts/src/v0.8/vendor/BufferChainlink.sol\":3613:3623  mload(src) */\n      dup1\n      mload\n        /* \"@chainlink/contracts/src/v0.8/vendor/BufferChainlink.sol\":3600:3624  mstore(dest, mload(src)) */\n      dup3\n      mstore\n        /* \"@chainlink/contracts/src/v0.8/vendor/BufferChainlink.sol\":3639:3649  dest += 32 */\n      tag_238\n        /* \"@chainlink/contracts/src/v0.8/vendor/BufferChainlink.sol\":3647:3649  32 */\n      0x20\n        /* \"@chainlink/contracts/src/v0.8/vendor/BufferChainlink.sol\":3607:3611  dest */\n      dup4\n        /* \"@chainlink/contracts/src/v0.8/vendor/BufferChainlink.sol\":3639:3649  dest += 32 */\n      tag_164\n      jump\t// in\n    tag_238:\n      swap2\n      pop\n        /* \"@chainlink/contracts/src/v0.8/vendor/BufferChainlink.sol\":3657:3666  src += 32 */\n      tag_239\n        /* \"@chainlink/contracts/src/v0.8/vendor/BufferChainlink.sol\":3664:3666  32 */\n      0x20\n        /* \"@chainlink/contracts/src/v0.8/vendor/BufferChainlink.sol\":3657:3666  src += 32 */\n      dup3\n      tag_164\n      jump\t// in\n    tag_239:\n      swap1\n      pop\n        /* \"@chainlink/contracts/src/v0.8/vendor/BufferChainlink.sol\":3562:3571  len -= 32 */\n      tag_240\n        /* \"@chainlink/contracts/src/v0.8/vendor/BufferChainlink.sol\":3569:3571  32 */\n      0x20\n        /* \"@chainlink/contracts/src/v0.8/vendor/BufferChainlink.sol\":3562:3571  len -= 32 */\n      dup6\n      tag_177\n      jump\t// in\n    tag_240:\n      swap4\n      pop\n        /* \"@chainlink/contracts/src/v0.8/vendor/BufferChainlink.sol\":3544:3673  for (; len >= 32; len -= 32) {... */\n      jump(tag_235)\n    tag_236:\n        /* \"@chainlink/contracts/src/v0.8/vendor/BufferChainlink.sol\":3807:3817  mload(src) */\n      mload\n        /* \"@chainlink/contracts/src/v0.8/vendor/BufferChainlink.sol\":3858:3869  mload(dest) */\n      dup2\n      mload\n        /* \"@chainlink/contracts/src/v0.8/vendor/BufferChainlink.sol\":3740:3761  (256**(32 - len)) - 1 */\n      0xffffffffffffffffffffffffffffffffffffffffffffffffffffffffffffffff\n        /* \"@chainlink/contracts/src/v0.8/vendor/BufferChainlink.sol\":3747:3749  32 */\n      0x20\n        /* \"@chainlink/contracts/src/v0.8/vendor/BufferChainlink.sol\":3747:3755  32 - len */\n      dup7\n      swap1\n      sub\n        /* \"@chainlink/contracts/src/v0.8/vendor/BufferChainlink.sol\":3741:3744  256 */\n      0x0100\n        /* \"@chainlink/contracts/src/v0.8/vendor/BufferChainlink.sol\":3741:3756  256**(32 - len) */\n      exp\n        /* \"@chainlink/contracts/src/v0.8/vendor/BufferChainlink.sol\":3740:3761  (256**(32 - len)) - 1 */\n      add\n        /* \"@chainlink/contracts/src/v0.8/vendor/BufferChainlink.sol\":3854:3876  and(mload(dest), mask) */\n      swap1\n      dup2\n      and\n        /* \"@chainlink/contracts/src/v0.8/vendor/BufferChainlink.sol\":3819:3828  not(mask) */\n      swap1\n      not\n        /* \"@chainlink/contracts/src/v0.8/vendor/BufferChainlink.sol\":3803:3829  and(mload(src), not(mask)) */\n      swap2\n      swap1\n      swap2\n      and\n        /* \"@chainlink/contracts/src/v0.8/vendor/BufferChainlink.sol\":3898:3919  or(destpart, srcpart) */\n      or\n        /* \"@chainlink/contracts/src/v0.8/vendor/BufferChainlink.sol\":3885:3920  mstore(dest, or(destpart, srcpart)) */\n      swap1\n      mstore\n      pop\n        /* \"@chainlink/contracts/src/v0.8/vendor/BufferChainlink.sol\":3947:3950  buf */\n      dup4\n        /* \"@chainlink/contracts/src/v0.8/vendor/BufferChainlink.sol\":2745:3955  function write(... */\n      swap5\n      swap4\n      pop\n      pop\n      pop\n      pop\n      jump\t// out\n        /* \"@chainlink/contracts/src/v0.8/vendor/BufferChainlink.sol\":5148:5787  function writeUint8(... */\n    tag_217:\n      0x40\n      dup1\n      mload\n      dup1\n      dup3\n      add\n      swap1\n      swap2\n      mstore\n      0x60\n      dup2\n      mstore\n      0x00\n      0x20\n      dup3\n      add\n      mstore\n        /* \"@chainlink/contracts/src/v0.8/vendor/BufferChainlink.sol\":5283:5286  buf */\n      dup4\n        /* \"@chainlink/contracts/src/v0.8/vendor/BufferChainlink.sol\":5283:5295  buf.capacity */\n      0x20\n      add\n      mload\n        /* \"@chainlink/contracts/src/v0.8/vendor/BufferChainlink.sol\":5276:5279  off */\n      dup4\n        /* \"@chainlink/contracts/src/v0.8/vendor/BufferChainlink.sol\":5276:5295  off >= buf.capacity */\n      lt\n        /* \"@chainlink/contracts/src/v0.8/vendor/BufferChainlink.sol\":5272:5341  if (off >= buf.capacity) {... */\n      tag_244\n      jumpi\n        /* \"@chainlink/contracts/src/v0.8/vendor/BufferChainlink.sol\":5305:5334  resize(buf, buf.capacity * 2) */\n      tag_244\n        /* \"@chainlink/contracts/src/v0.8/vendor/BufferChainlink.sol\":5312:5315  buf */\n      dup5\n        /* \"@chainlink/contracts/src/v0.8/vendor/BufferChainlink.sol\":5317:5320  buf */\n      dup6\n        /* \"@chainlink/contracts/src/v0.8/vendor/BufferChainlink.sol\":5317:5329  buf.capacity */\n      0x20\n      add\n      mload\n        /* \"@chainlink/contracts/src/v0.8/vendor/BufferChainlink.sol\":5332:5333  2 */\n      0x02\n        /* \"@chainlink/contracts/src/v0.8/vendor/BufferChainlink.sol\":5317:5333  buf.capacity * 2 */\n      tag_231\n      swap2\n      swap1\n      tag_232\n      jump\t// in\n        /* \"@chainlink/contracts/src/v0.8/vendor/BufferChainlink.sol\":5305:5334  resize(buf, buf.capacity * 2) */\n    tag_244:\n        /* \"@chainlink/contracts/src/v0.8/vendor/BufferChainlink.sol\":5427:5430  buf */\n      dup4\n        /* \"@chainlink/contracts/src/v0.8/vendor/BufferChainlink.sol\":5421:5431  mload(buf) */\n      mload\n        /* \"@chainlink/contracts/src/v0.8/vendor/BufferChainlink.sol\":5498:5504  bufptr */\n      dup1\n        /* \"@chainlink/contracts/src/v0.8/vendor/BufferChainlink.sol\":5492:5505  mload(bufptr) */\n      mload\n        /* \"@chainlink/contracts/src/v0.8/vendor/BufferChainlink.sol\":5610:5612  32 */\n      0x20\n        /* \"@chainlink/contracts/src/v0.8/vendor/BufferChainlink.sol\":5604:5607  off */\n      dup6\n        /* \"@chainlink/contracts/src/v0.8/vendor/BufferChainlink.sol\":5596:5602  bufptr */\n      dup4\n        /* \"@chainlink/contracts/src/v0.8/vendor/BufferChainlink.sol\":5592:5608  add(bufptr, off) */\n      add\n        /* \"@chainlink/contracts/src/v0.8/vendor/BufferChainlink.sol\":5588:5613  add(add(bufptr, off), 32) */\n      add\n        /* \"@chainlink/contracts/src/v0.8/vendor/BufferChainlink.sol\":5634:5638  data */\n      dup5\n        /* \"@chainlink/contracts/src/v0.8/vendor/BufferChainlink.sol\":5628:5632  dest */\n      dup2\n        /* \"@chainlink/contracts/src/v0.8/vendor/BufferChainlink.sol\":5620:5639  mstore8(dest, data) */\n      mstore8\n      pop\n        /* \"@chainlink/contracts/src/v0.8/vendor/BufferChainlink.sol\":5705:5711  buflen */\n      dup1\n        /* \"@chainlink/contracts/src/v0.8/vendor/BufferChainlink.sol\":5700:5703  off */\n      dup6\n        /* \"@chainlink/contracts/src/v0.8/vendor/BufferChainlink.sol\":5697:5712  eq(off, buflen) */\n      sub\n        /* \"@chainlink/contracts/src/v0.8/vendor/BufferChainlink.sol\":5694:5761  if eq(off, buflen) {... */\n      tag_246\n      jumpi\n        /* \"@chainlink/contracts/src/v0.8/vendor/BufferChainlink.sol\":5750:5751  1 */\n      0x01\n        /* \"@chainlink/contracts/src/v0.8/vendor/BufferChainlink.sol\":5742:5748  buflen */\n      dup2\n        /* \"@chainlink/contracts/src/v0.8/vendor/BufferChainlink.sol\":5738:5752  add(buflen, 1) */\n      add\n        /* \"@chainlink/contracts/src/v0.8/vendor/BufferChainlink.sol\":5730:5736  bufptr */\n      dup3\n        /* \"@chainlink/contracts/src/v0.8/vendor/BufferChainlink.sol\":5723:5753  mstore(bufptr, add(buflen, 1)) */\n      mstore\n        /* \"@chainlink/contracts/src/v0.8/vendor/BufferChainlink.sol\":5694:5761  if eq(off, buflen) {... */\n    tag_246:\n      pop\n        /* \"@chainlink/contracts/src/v0.8/vendor/BufferChainlink.sol\":5779:5782  buf */\n      swap4\n      swap5\n        /* \"@chainlink/contracts/src/v0.8/vendor/BufferChainlink.sol\":5148:5787  function writeUint8(... */\n      swap4\n      pop\n      pop\n      pop\n      pop\n      jump\t// out\n        /* \"@chainlink/contracts/src/v0.8/vendor/BufferChainlink.sol\":8974:9649  function writeInt(... */\n    tag_221:\n      0x40\n      dup1\n      mload\n      dup1\n      dup3\n      add\n      swap1\n      swap2\n      mstore\n      0x60\n      dup2\n      mstore\n      0x00\n      0x20\n      dup3\n      add\n      mstore\n        /* \"@chainlink/contracts/src/v0.8/vendor/BufferChainlink.sol\":9130:9142  buf.capacity */\n      0x20\n      dup6\n      add\n      mload\n        /* \"@chainlink/contracts/src/v0.8/vendor/BufferChainlink.sol\":9118:9127  len + off */\n      tag_249\n        /* \"@chainlink/contracts/src/v0.8/vendor/BufferChainlink.sol\":9124:9127  off */\n      dup6\n        /* \"@chainlink/contracts/src/v0.8/vendor/BufferChainlink.sol\":9118:9121  len */\n      dup5\n        /* \"@chainlink/contracts/src/v0.8/vendor/BufferChainlink.sol\":9118:9127  len + off */\n      tag_164\n      jump\t// in\n    tag_249:\n        /* \"@chainlink/contracts/src/v0.8/vendor/BufferChainlink.sol\":9118:9142  len + off > buf.capacity */\n      gt\n        /* \"@chainlink/contracts/src/v0.8/vendor/BufferChainlink.sol\":9114:9187  if (len + off > buf.capacity) {... */\n      iszero\n      tag_251\n      jumpi\n        /* \"@chainlink/contracts/src/v0.8/vendor/BufferChainlink.sol\":9152:9180  resize(buf, (len + off) * 2) */\n      tag_251\n        /* \"@chainlink/contracts/src/v0.8/vendor/BufferChainlink.sol\":9159:9162  buf */\n      dup6\n        /* \"@chainlink/contracts/src/v0.8/vendor/BufferChainlink.sol\":9165:9174  len + off */\n      tag_228\n        /* \"@chainlink/contracts/src/v0.8/vendor/BufferChainlink.sol\":9171:9174  off */\n      dup7\n        /* \"@chainlink/contracts/src/v0.8/vendor/BufferChainlink.sol\":9165:9168  len */\n      dup6\n        /* \"@chainlink/contracts/src/v0.8/vendor/BufferChainlink.sol\":9165:9174  len + off */\n      tag_164\n      jump\t// in\n        /* \"@chainlink/contracts/src/v0.8/vendor/BufferChainlink.sol\":9152:9180  resize(buf, (len + off) * 2) */\n    tag_251:\n        /* \"@chainlink/contracts/src/v0.8/vendor/BufferChainlink.sol\":9193:9205  uint256 mask */\n      0x00\n        /* \"@chainlink/contracts/src/v0.8/vendor/BufferChainlink.sol\":9221:9222  1 */\n      0x01\n        /* \"@chainlink/contracts/src/v0.8/vendor/BufferChainlink.sol\":9209:9217  256**len */\n      tag_254\n        /* \"@chainlink/contracts/src/v0.8/vendor/BufferChainlink.sol\":9214:9217  len */\n      dup5\n        /* \"@chainlink/contracts/src/v0.8/vendor/BufferChainlink.sol\":9209:9212  256 */\n      0x0100\n        /* \"@chainlink/contracts/src/v0.8/vendor/BufferChainlink.sol\":9209:9217  256**len */\n      tag_255\n      jump\t// in\n    tag_254:\n        /* \"@chainlink/contracts/src/v0.8/vendor/BufferChainlink.sol\":9208:9222  (256**len) - 1 */\n      tag_256\n      swap2\n      swap1\n      tag_177\n      jump\t// in\n    tag_256:\n        /* \"@chainlink/contracts/src/v0.8/vendor/BufferChainlink.sol\":9193:9222  uint256 mask = (256**len) - 1 */\n      swap1\n      pop\n        /* \"@chainlink/contracts/src/v0.8/vendor/BufferChainlink.sol\":9308:9311  buf */\n      dup6\n        /* \"@chainlink/contracts/src/v0.8/vendor/BufferChainlink.sol\":9302:9312  mload(buf) */\n      mload\n        /* \"@chainlink/contracts/src/v0.8/vendor/BufferChainlink.sol\":9423:9426  len */\n      dup4\n        /* \"@chainlink/contracts/src/v0.8/vendor/BufferChainlink.sol\":9417:9420  off */\n      dup7\n        /* \"@chainlink/contracts/src/v0.8/vendor/BufferChainlink.sol\":9409:9415  bufptr */\n      dup3\n        /* \"@chainlink/contracts/src/v0.8/vendor/BufferChainlink.sol\":9405:9421  add(bufptr, off) */\n      add\n        /* \"@chainlink/contracts/src/v0.8/vendor/BufferChainlink.sol\":9401:9427  add(add(bufptr, off), len) */\n      add\n        /* \"@chainlink/contracts/src/v0.8/vendor/BufferChainlink.sol\":9479:9483  data */\n      dup6\n        /* \"@chainlink/contracts/src/v0.8/vendor/BufferChainlink.sol\":9471:9475  mask */\n      dup4\n        /* \"@chainlink/contracts/src/v0.8/vendor/BufferChainlink.sol\":9467:9476  not(mask) */\n      not\n        /* \"@chainlink/contracts/src/v0.8/vendor/BufferChainlink.sol\":9460:9464  dest */\n      dup3\n        /* \"@chainlink/contracts/src/v0.8/vendor/BufferChainlink.sol\":9454:9465  mload(dest) */\n      mload\n        /* \"@chainlink/contracts/src/v0.8/vendor/BufferChainlink.sol\":9450:9477  and(mload(dest), not(mask)) */\n      and\n        /* \"@chainlink/contracts/src/v0.8/vendor/BufferChainlink.sol\":9447:9484  or(and(mload(dest), not(mask)), data) */\n      or\n        /* \"@chainlink/contracts/src/v0.8/vendor/BufferChainlink.sol\":9441:9445  dest */\n      dup2\n        /* \"@chainlink/contracts/src/v0.8/vendor/BufferChainlink.sol\":9434:9485  mstore(dest, or(and(mload(dest), not(mask)), data)) */\n      mstore\n      pop\n        /* \"@chainlink/contracts/src/v0.8/vendor/BufferChainlink.sol\":9567:9573  bufptr */\n      dup1\n        /* \"@chainlink/contracts/src/v0.8/vendor/BufferChainlink.sol\":9561:9574  mload(bufptr) */\n      mload\n        /* \"@chainlink/contracts/src/v0.8/vendor/BufferChainlink.sol\":9555:9558  len */\n      dup5\n        /* \"@chainlink/contracts/src/v0.8/vendor/BufferChainlink.sol\":9550:9553  off */\n      dup8\n        /* \"@chainlink/contracts/src/v0.8/vendor/BufferChainlink.sol\":9546:9559  add(off, len) */\n      add\n        /* \"@chainlink/contracts/src/v0.8/vendor/BufferChainlink.sol\":9543:9575  gt(add(off, len), mload(bufptr)) */\n      gt\n        /* \"@chainlink/contracts/src/v0.8/vendor/BufferChainlink.sol\":9540:9623  if gt(add(off, len), mload(bufptr)) {... */\n      iszero\n      tag_257\n      jumpi\n        /* \"@chainlink/contracts/src/v0.8/vendor/BufferChainlink.sol\":9610:9613  len */\n      dup4\n        /* \"@chainlink/contracts/src/v0.8/vendor/BufferChainlink.sol\":9605:9608  off */\n      dup7\n        /* \"@chainlink/contracts/src/v0.8/vendor/BufferChainlink.sol\":9601:9614  add(off, len) */\n      add\n        /* \"@chainlink/contracts/src/v0.8/vendor/BufferChainlink.sol\":9593:9599  bufptr */\n      dup2\n        /* \"@chainlink/contracts/src/v0.8/vendor/BufferChainlink.sol\":9586:9615  mstore(bufptr, add(off, len)) */\n      mstore\n        /* \"@chainlink/contracts/src/v0.8/vendor/BufferChainlink.sol\":9540:9623  if gt(add(off, len), mload(bufptr)) {... */\n    tag_257:\n      pop\n        /* \"@chainlink/contracts/src/v0.8/vendor/BufferChainlink.sol\":9641:9644  buf */\n      swap5\n      swap6\n        /* \"@chainlink/contracts/src/v0.8/vendor/BufferChainlink.sol\":8974:9649  function writeInt(... */\n      swap5\n      pop\n      pop\n      pop\n      pop\n      pop\n      jump\t// out\n        /* \"@chainlink/contracts/src/v0.8/vendor/BufferChainlink.sol\":1961:2085  function max(uint256 a, uint256 b) private pure returns (uint256) {... */\n    tag_230:\n        /* \"@chainlink/contracts/src/v0.8/vendor/BufferChainlink.sol\":2018:2025  uint256 */\n      0x00\n        /* \"@chainlink/contracts/src/v0.8/vendor/BufferChainlink.sol\":2041:2042  b */\n      dup2\n        /* \"@chainlink/contracts/src/v0.8/vendor/BufferChainlink.sol\":2037:2038  a */\n      dup4\n        /* \"@chainlink/contracts/src/v0.8/vendor/BufferChainlink.sol\":2037:2042  a > b */\n      gt\n        /* \"@chainlink/contracts/src/v0.8/vendor/BufferChainlink.sol\":2033:2067  if (a > b) {... */\n      iszero\n      tag_259\n      jumpi\n      pop\n        /* \"@chainlink/contracts/src/v0.8/vendor/BufferChainlink.sol\":2059:2060  a */\n      dup2\n        /* \"@chainlink/contracts/src/v0.8/vendor/BufferChainlink.sol\":2052:2060  return a */\n      jump(tag_128)\n        /* \"@chainlink/contracts/src/v0.8/vendor/BufferChainlink.sol\":2033:2067  if (a > b) {... */\n    tag_259:\n      pop\n        /* \"@chainlink/contracts/src/v0.8/vendor/BufferChainlink.sol\":2079:2080  b */\n      swap2\n        /* \"@chainlink/contracts/src/v0.8/vendor/BufferChainlink.sol\":1961:2085  function max(uint256 a, uint256 b) private pure returns (uint256) {... */\n      swap1\n      pop\n      jump\t// out\n        /* \"@chainlink/contracts/src/v0.8/vendor/BufferChainlink.sol\":1801:1957  function resize(buffer memory buf, uint256 capacity) private pure {... */\n    tag_233:\n        /* \"@chainlink/contracts/src/v0.8/vendor/BufferChainlink.sol\":1895:1902  buf.buf */\n      dup2\n      mload\n        /* \"@chainlink/contracts/src/v0.8/vendor/BufferChainlink.sol\":1908:1927  init(buf, capacity) */\n      tag_261\n        /* \"@chainlink/contracts/src/v0.8/vendor/BufferChainlink.sol\":1895:1898  buf */\n      dup4\n        /* \"@chainlink/contracts/src/v0.8/vendor/BufferChainlink.sol\":1918:1926  capacity */\n      dup4\n        /* \"@chainlink/contracts/src/v0.8/vendor/BufferChainlink.sol\":1908:1912  init */\n      tag_156\n        /* \"@chainlink/contracts/src/v0.8/vendor/BufferChainlink.sol\":1908:1927  init(buf, capacity) */\n      jump\t// in\n    tag_261:\n      pop\n        /* \"@chainlink/contracts/src/v0.8/vendor/BufferChainlink.sol\":1933:1952  append(buf, oldbuf) */\n      tag_181\n        /* \"@chainlink/contracts/src/v0.8/vendor/BufferChainlink.sol\":1940:1943  buf */\n      dup4\n        /* \"@chainlink/contracts/src/v0.8/vendor/BufferChainlink.sol\":1945:1951  oldbuf */\n      dup3\n        /* \"@chainlink/contracts/src/v0.8/vendor/BufferChainlink.sol\":1933:1939  append */\n      tag_161\n        /* \"@chainlink/contracts/src/v0.8/vendor/BufferChainlink.sol\":1933:1952  append(buf, oldbuf) */\n      jump\t// in\n        /* \"#utility.yul\":196:376   */\n    tag_25:\n        /* \"#utility.yul\":255:261   */\n      0x00\n        /* \"#utility.yul\":308:310   */\n      0x20\n        /* \"#utility.yul\":296:305   */\n      dup3\n        /* \"#utility.yul\":287:294   */\n      dup5\n        /* \"#utility.yul\":283:306   */\n      sub\n        /* \"#utility.yul\":279:311   */\n      slt\n        /* \"#utility.yul\":276:328   */\n      iszero\n      tag_272\n      jumpi\n        /* \"#utility.yul\":324:325   */\n      0x00\n        /* \"#utility.yul\":321:322   */\n      dup1\n        /* \"#utility.yul\":314:326   */\n      revert\n        /* \"#utility.yul\":276:328   */\n    tag_272:\n      pop\n        /* \"#utility.yul\":347:370   */\n      calldataload\n      swap2\n        /* \"#utility.yul\":196:376   */\n      swap1\n      pop\n      jump\t// out\n        /* \"#utility.yul\":381:766   */\n    tag_29:\n        /* \"#utility.yul\":467:473   */\n      0x00\n        /* \"#utility.yul\":475:481   */\n      dup1\n        /* \"#utility.yul\":483:489   */\n      0x00\n        /* \"#utility.yul\":491:497   */\n      dup1\n        /* \"#utility.yul\":544:547   */\n      0x80\n        /* \"#utility.yul\":532:541   */\n      dup6\n        /* \"#utility.yul\":523:530   */\n      dup8\n        /* \"#utility.yul\":519:542   */\n      sub\n        /* \"#utility.yul\":515:548   */\n      slt\n        /* \"#utility.yul\":512:565   */\n      iszero\n      tag_274\n      jumpi\n        /* \"#utility.yul\":561:562   */\n      0x00\n        /* \"#utility.yul\":558:559   */\n      dup1\n        /* \"#utility.yul\":551:563   */\n      revert\n        /* \"#utility.yul\":512:565   */\n    tag_274:\n      pop\n      pop\n        /* \"#utility.yul\":584:607   */\n      dup3\n      calldataload\n      swap5\n        /* \"#utility.yul\":654:656   */\n      0x20\n        /* \"#utility.yul\":639:657   */\n      dup5\n      add\n        /* \"#utility.yul\":626:658   */\n      calldataload\n      swap5\n      pop\n        /* \"#utility.yul\":705:707   */\n      0x40\n        /* \"#utility.yul\":690:708   */\n      dup5\n      add\n        /* \"#utility.yul\":677:709   */\n      calldataload\n      swap4\n        /* \"#utility.yul\":756:758   */\n      0x60\n        /* \"#utility.yul\":741:759   */\n      add\n        /* \"#utility.yul\":728:760   */\n      calldataload\n      swap3\n      pop\n        /* \"#utility.yul\":381:766   */\n      swap1\n      pop\n      jump\t// out\n        /* \"#utility.yul\":1184:1442   */\n    tag_264:\n        /* \"#utility.yul\":1256:1257   */\n      0x00\n        /* \"#utility.yul\":1266:1379   */\n    tag_278:\n        /* \"#utility.yul\":1280:1286   */\n      dup4\n        /* \"#utility.yul\":1277:1278   */\n      dup2\n        /* \"#utility.yul\":1274:1287   */\n      lt\n        /* \"#utility.yul\":1266:1379   */\n      iszero\n      tag_280\n      jumpi\n        /* \"#utility.yul\":1356:1367   */\n      dup2\n      dup2\n      add\n        /* \"#utility.yul\":1350:1368   */\n      mload\n        /* \"#utility.yul\":1337:1348   */\n      dup4\n      dup3\n      add\n        /* \"#utility.yul\":1330:1369   */\n      mstore\n        /* \"#utility.yul\":1302:1304   */\n      0x20\n        /* \"#utility.yul\":1295:1305   */\n      add\n        /* \"#utility.yul\":1266:1379   */\n      jump(tag_278)\n    tag_280:\n        /* \"#utility.yul\":1397:1403   */\n      dup4\n        /* \"#utility.yul\":1394:1395   */\n      dup2\n        /* \"#utility.yul\":1391:1404   */\n      gt\n        /* \"#utility.yul\":1388:1436   */\n      iszero\n      tag_181\n      jumpi\n      pop\n      pop\n        /* \"#utility.yul\":1432:1433   */\n      0x00\n        /* \"#utility.yul\":1414:1430   */\n      swap2\n      add\n        /* \"#utility.yul\":1407:1434   */\n      mstore\n        /* \"#utility.yul\":1184:1442   */\n      jump\t// out\n        /* \"#utility.yul\":1447:1764   */\n    tag_265:\n        /* \"#utility.yul\":1489:1492   */\n      0x00\n        /* \"#utility.yul\":1527:1532   */\n      dup2\n        /* \"#utility.yul\":1521:1533   */\n      mload\n        /* \"#utility.yul\":1554:1560   */\n      dup1\n        /* \"#utility.yul\":1549:1552   */\n      dup5\n        /* \"#utility.yul\":1542:1561   */\n      mstore\n        /* \"#utility.yul\":1570:1633   */\n      tag_283\n        /* \"#utility.yul\":1626:1632   */\n      dup2\n        /* \"#utility.yul\":1619:1623   */\n      0x20\n        /* \"#utility.yul\":1614:1617   */\n      dup7\n        /* \"#utility.yul\":1610:1624   */\n      add\n        /* \"#utility.yul\":1603:1607   */\n      0x20\n        /* \"#utility.yul\":1596:1601   */\n      dup7\n        /* \"#utility.yul\":1592:1608   */\n      add\n        /* \"#utility.yul\":1570:1633   */\n      tag_264\n      jump\t// in\n    tag_283:\n        /* \"#utility.yul\":1678:1680   */\n      0x1f\n        /* \"#utility.yul\":1666:1681   */\n      add\n        /* \"#utility.yul\":1683:1749   */\n      0xffffffffffffffffffffffffffffffffffffffffffffffffffffffffffffffe0\n        /* \"#utility.yul\":1662:1750   */\n      and\n        /* \"#utility.yul\":1653:1751   */\n      swap3\n      swap1\n      swap3\n      add\n        /* \"#utility.yul\":1753:1757   */\n      0x20\n        /* \"#utility.yul\":1649:1758   */\n      add\n      swap3\n        /* \"#utility.yul\":1447:1764   */\n      swap2\n      pop\n      pop\n      jump\t// out\n        /* \"#utility.yul\":1769:1989   */\n    tag_52:\n        /* \"#utility.yul\":1918:1920   */\n      0x20\n        /* \"#utility.yul\":1907:1916   */\n      dup2\n        /* \"#utility.yul\":1900:1921   */\n      mstore\n        /* \"#utility.yul\":1881:1885   */\n      0x00\n        /* \"#utility.yul\":1938:1983   */\n      tag_142\n        /* \"#utility.yul\":1979:1981   */\n      0x20\n        /* \"#utility.yul\":1968:1977   */\n      dup4\n        /* \"#utility.yul\":1964:1982   */\n      add\n        /* \"#utility.yul\":1956:1962   */\n      dup5\n        /* \"#utility.yul\":1938:1983   */\n      tag_265\n      jump\t// in\n        /* \"#utility.yul\":1994:2303   */\n    tag_58:\n        /* \"#utility.yul\":2053:2059   */\n      0x00\n        /* \"#utility.yul\":2106:2108   */\n      0x20\n        /* \"#utility.yul\":2094:2103   */\n      dup3\n        /* \"#utility.yul\":2085:2092   */\n      dup5\n        /* \"#utility.yul\":2081:2104   */\n      sub\n        /* \"#utility.yul\":2077:2109   */\n      slt\n        /* \"#utility.yul\":2074:2126   */\n      iszero\n      tag_287\n      jumpi\n        /* \"#utility.yul\":2122:2123   */\n      0x00\n        /* \"#utility.yul\":2119:2120   */\n      dup1\n        /* \"#utility.yul\":2112:2124   */\n      revert\n        /* \"#utility.yul\":2074:2126   */\n    tag_287:\n        /* \"#utility.yul\":2161:2170   */\n      dup2\n        /* \"#utility.yul\":2148:2171   */\n      calldataload\n        /* \"#utility.yul\":2211:2253   */\n      0xffffffffffffffffffffffffffffffffffffffff\n        /* \"#utility.yul\":2204:2209   */\n      dup2\n        /* \"#utility.yul\":2200:2254   */\n      and\n        /* \"#utility.yul\":2193:2198   */\n      dup2\n        /* \"#utility.yul\":2190:2255   */\n      eq\n        /* \"#utility.yul\":2180:2273   */\n      tag_142\n      jumpi\n        /* \"#utility.yul\":2269:2270   */\n      0x00\n        /* \"#utility.yul\":2266:2267   */\n      dup1\n        /* \"#utility.yul\":2259:2271   */\n      revert\n        /* \"#utility.yul\":3041:3478   */\n    tag_77:\n        /* \"#utility.yul\":3120:3121   */\n      0x01\n        /* \"#utility.yul\":3116:3128   */\n      dup2\n      dup2\n      shr\n      swap1\n        /* \"#utility.yul\":3163:3175   */\n      dup3\n      and\n      dup1\n        /* \"#utility.yul\":3184:3245   */\n      tag_292\n      jumpi\n        /* \"#utility.yul\":3238:3242   */\n      0x7f\n        /* \"#utility.yul\":3230:3236   */\n      dup3\n        /* \"#utility.yul\":3226:3243   */\n      and\n        /* \"#utility.yul\":3216:3243   */\n      swap2\n      pop\n        /* \"#utility.yul\":3184:3245   */\n    tag_292:\n        /* \"#utility.yul\":3291:3293   */\n      0x20\n        /* \"#utility.yul\":3283:3289   */\n      dup3\n        /* \"#utility.yul\":3280:3294   */\n      lt\n        /* \"#utility.yul\":3260:3278   */\n      dup2\n        /* \"#utility.yul\":3257:3295   */\n      sub\n        /* \"#utility.yul\":3254:3472   */\n      tag_259\n      jumpi\n        /* \"#utility.yul\":3328:3405   */\n      0x4e487b7100000000000000000000000000000000000000000000000000000000\n        /* \"#utility.yul\":3325:3326   */\n      0x00\n        /* \"#utility.yul\":3318:3406   */\n      mstore\n        /* \"#utility.yul\":3429:3433   */\n      0x22\n        /* \"#utility.yul\":3426:3427   */\n      0x04\n        /* \"#utility.yul\":3419:3434   */\n      mstore\n        /* \"#utility.yul\":3457:3461   */\n      0x24\n        /* \"#utility.yul\":3454:3455   */\n      0x00\n        /* \"#utility.yul\":3447:3462   */\n      revert\n        /* \"#utility.yul\":3834:4018   */\n    tag_106:\n        /* \"#utility.yul\":3904:3910   */\n      0x00\n        /* \"#utility.yul\":3957:3959   */\n      0x20\n        /* \"#utility.yul\":3945:3954   */\n      dup3\n        /* \"#utility.yul\":3936:3943   */\n      dup5\n        /* \"#utility.yul\":3932:3955   */\n      sub\n        /* \"#utility.yul\":3928:3960   */\n      slt\n        /* \"#utility.yul\":3925:3977   */\n      iszero\n      tag_296\n      jumpi\n        /* \"#utility.yul\":3973:3974   */\n      0x00\n        /* \"#utility.yul\":3970:3971   */\n      dup1\n        /* \"#utility.yul\":3963:3975   */\n      revert\n        /* \"#utility.yul\":3925:3977   */\n    tag_296:\n      pop\n        /* \"#utility.yul\":3996:4012   */\n      mload\n      swap2\n        /* \"#utility.yul\":3834:4018   */\n      swap1\n      pop\n      jump\t// out\n        /* \"#utility.yul\":4325:4602   */\n    tag_112:\n        /* \"#utility.yul\":4392:4398   */\n      0x00\n        /* \"#utility.yul\":4445:4447   */\n      0x20\n        /* \"#utility.yul\":4433:4442   */\n      dup3\n        /* \"#utility.yul\":4424:4431   */\n      dup5\n        /* \"#utility.yul\":4420:4443   */\n      sub\n        /* \"#utility.yul\":4416:4448   */\n      slt\n        /* \"#utility.yul\":4413:4465   */\n      iszero\n      tag_299\n      jumpi\n        /* \"#utility.yul\":4461:4462   */\n      0x00\n        /* \"#utility.yul\":4458:4459   */\n      dup1\n        /* \"#utility.yul\":4451:4463   */\n      revert\n        /* \"#utility.yul\":4413:4465   */\n    tag_299:\n        /* \"#utility.yul\":4493:4502   */\n      dup2\n        /* \"#utility.yul\":4487:4503   */\n      mload\n        /* \"#utility.yul\":4546:4551   */\n      dup1\n        /* \"#utility.yul\":4539:4552   */\n      iszero\n        /* \"#utility.yul\":4532:4553   */\n      iszero\n        /* \"#utility.yul\":4525:4530   */\n      dup2\n        /* \"#utility.yul\":4522:4554   */\n      eq\n        /* \"#utility.yul\":4512:4572   */\n      tag_142\n      jumpi\n        /* \"#utility.yul\":4568:4569   */\n      0x00\n        /* \"#utility.yul\":4565:4566   */\n      dup1\n        /* \"#utility.yul\":4558:4570   */\n      revert\n        /* \"#utility.yul\":4954:5424   */\n    tag_130:\n        /* \"#utility.yul\":5133:5136   */\n      0x00\n        /* \"#utility.yul\":5171:5177   */\n      dup4\n        /* \"#utility.yul\":5165:5178   */\n      mload\n        /* \"#utility.yul\":5187:5240   */\n      tag_303\n        /* \"#utility.yul\":5233:5239   */\n      dup2\n        /* \"#utility.yul\":5228:5231   */\n      dup5\n        /* \"#utility.yul\":5221:5225   */\n      0x20\n        /* \"#utility.yul\":5213:5219   */\n      dup9\n        /* \"#utility.yul\":5209:5226   */\n      add\n        /* \"#utility.yul\":5187:5240   */\n      tag_264\n      jump\t// in\n    tag_303:\n        /* \"#utility.yul\":5303:5316   */\n      dup4\n      mload\n        /* \"#utility.yul\":5262:5278   */\n      swap1\n      dup4\n      add\n      swap1\n        /* \"#utility.yul\":5325:5382   */\n      tag_304\n        /* \"#utility.yul\":5303:5316   */\n      dup2\n        /* \"#utility.yul\":5262:5278   */\n      dup4\n        /* \"#utility.yul\":5359:5363   */\n      0x20\n        /* \"#utility.yul\":5347:5364   */\n      dup9\n      add\n        /* \"#utility.yul\":5325:5382   */\n      tag_264\n      jump\t// in\n    tag_304:\n        /* \"#utility.yul\":5398:5418   */\n      add\n      swap5\n        /* \"#utility.yul\":4954:5424   */\n      swap4\n      pop\n      pop\n      pop\n      pop\n      jump\t// out\n        /* \"#utility.yul\":6132:6316   */\n    tag_266:\n        /* \"#utility.yul\":6184:6261   */\n      0x4e487b7100000000000000000000000000000000000000000000000000000000\n        /* \"#utility.yul\":6181:6182   */\n      0x00\n        /* \"#utility.yul\":6174:6262   */\n      mstore\n        /* \"#utility.yul\":6281:6285   */\n      0x11\n        /* \"#utility.yul\":6278:6279   */\n      0x04\n        /* \"#utility.yul\":6271:6286   */\n      mstore\n        /* \"#utility.yul\":6305:6309   */\n      0x24\n        /* \"#utility.yul\":6302:6303   */\n      0x00\n        /* \"#utility.yul\":6295:6310   */\n      revert\n        /* \"#utility.yul\":6321:6449   */\n    tag_164:\n        /* \"#utility.yul\":6361:6364   */\n      0x00\n        /* \"#utility.yul\":6392:6393   */\n      dup3\n        /* \"#utility.yul\":6388:6394   */\n      not\n        /* \"#utility.yul\":6385:6386   */\n      dup3\n        /* \"#utility.yul\":6382:6395   */\n      gt\n        /* \"#utility.yul\":6379:6418   */\n      iszero\n      tag_310\n      jumpi\n        /* \"#utility.yul\":6398:6416   */\n      tag_310\n      tag_266\n      jump\t// in\n    tag_310:\n      pop\n        /* \"#utility.yul\":6434:6443   */\n      add\n      swap1\n        /* \"#utility.yul\":6321:6449   */\n      jump\t// out\n        /* \"#utility.yul\":6454:7345   */\n    tag_166:\n        /* \"#utility.yul\":6758:6762   */\n      0x00\n        /* \"#utility.yul\":6787:6790   */\n      0x0100\n        /* \"#utility.yul\":6809:6851   */\n      0xffffffffffffffffffffffffffffffffffffffff\n        /* \"#utility.yul\":6890:6892   */\n      dup1\n        /* \"#utility.yul\":6882:6888   */\n      dup13\n        /* \"#utility.yul\":6878:6893   */\n      and\n        /* \"#utility.yul\":6867:6876   */\n      dup5\n        /* \"#utility.yul\":6860:6894   */\n      mstore\n        /* \"#utility.yul\":6930:6936   */\n      dup11\n        /* \"#utility.yul\":6925:6927   */\n      0x20\n        /* \"#utility.yul\":6914:6923   */\n      dup6\n        /* \"#utility.yul\":6910:6928   */\n      add\n        /* \"#utility.yul\":6903:6937   */\n      mstore\n        /* \"#utility.yul\":6973:6979   */\n      dup10\n        /* \"#utility.yul\":6968:6970   */\n      0x40\n        /* \"#utility.yul\":6957:6966   */\n      dup6\n        /* \"#utility.yul\":6953:6971   */\n      add\n        /* \"#utility.yul\":6946:6980   */\n      mstore\n        /* \"#utility.yul\":7028:7030   */\n      dup1\n        /* \"#utility.yul\":7020:7026   */\n      dup10\n        /* \"#utility.yul\":7016:7031   */\n      and\n        /* \"#utility.yul\":7011:7013   */\n      0x60\n        /* \"#utility.yul\":7000:7009   */\n      dup6\n        /* \"#utility.yul\":6996:7014   */\n      add\n        /* \"#utility.yul\":6989:7032   */\n      mstore\n      pop\n        /* \"#utility.yul\":7081:7147   */\n      0xffffffff00000000000000000000000000000000000000000000000000000000\n        /* \"#utility.yul\":7073:7079   */\n      dup8\n        /* \"#utility.yul\":7069:7148   */\n      and\n        /* \"#utility.yul\":7063:7066   */\n      0x80\n        /* \"#utility.yul\":7052:7061   */\n      dup5\n        /* \"#utility.yul\":7048:7067   */\n      add\n        /* \"#utility.yul\":7041:7149   */\n      mstore\n        /* \"#utility.yul\":7186:7192   */\n      dup6\n        /* \"#utility.yul\":7180:7183   */\n      0xa0\n        /* \"#utility.yul\":7169:7178   */\n      dup5\n        /* \"#utility.yul\":7165:7184   */\n      add\n        /* \"#utility.yul\":7158:7193   */\n      mstore\n        /* \"#utility.yul\":7230:7236   */\n      dup5\n        /* \"#utility.yul\":7224:7227   */\n      0xc0\n        /* \"#utility.yul\":7213:7222   */\n      dup5\n        /* \"#utility.yul\":7209:7228   */\n      add\n        /* \"#utility.yul\":7202:7237   */\n      mstore\n        /* \"#utility.yul\":7274:7276   */\n      dup1\n        /* \"#utility.yul\":7268:7271   */\n      0xe0\n        /* \"#utility.yul\":7257:7266   */\n      dup5\n        /* \"#utility.yul\":7253:7272   */\n      add\n        /* \"#utility.yul\":7246:7277   */\n      mstore\n        /* \"#utility.yul\":7294:7339   */\n      tag_312\n        /* \"#utility.yul\":7335:7337   */\n      dup2\n        /* \"#utility.yul\":7324:7333   */\n      dup5\n        /* \"#utility.yul\":7320:7338   */\n      add\n        /* \"#utility.yul\":7312:7318   */\n      dup6\n        /* \"#utility.yul\":7294:7339   */\n      tag_265\n      jump\t// in\n    tag_312:\n        /* \"#utility.yul\":7286:7339   */\n      swap12\n        /* \"#utility.yul\":6454:7345   */\n      swap11\n      pop\n      pop\n      pop\n      pop\n      pop\n      pop\n      pop\n      pop\n      pop\n      pop\n      pop\n      jump\t// out\n        /* \"#utility.yul\":7350:7616   */\n    tag_173:\n        /* \"#utility.yul\":7382:7383   */\n      0x00\n        /* \"#utility.yul\":7408:7409   */\n      dup3\n        /* \"#utility.yul\":7398:7587   */\n      tag_314\n      jumpi\n        /* \"#utility.yul\":7443:7520   */\n      0x4e487b7100000000000000000000000000000000000000000000000000000000\n        /* \"#utility.yul\":7440:7441   */\n      0x00\n        /* \"#utility.yul\":7433:7521   */\n      mstore\n        /* \"#utility.yul\":7544:7548   */\n      0x12\n        /* \"#utility.yul\":7541:7542   */\n      0x04\n        /* \"#utility.yul\":7534:7549   */\n      mstore\n        /* \"#utility.yul\":7572:7576   */\n      0x24\n        /* \"#utility.yul\":7569:7570   */\n      0x00\n        /* \"#utility.yul\":7562:7577   */\n      revert\n        /* \"#utility.yul\":7398:7587   */\n    tag_314:\n      pop\n        /* \"#utility.yul\":7601:7610   */\n      mod\n      swap1\n        /* \"#utility.yul\":7350:7616   */\n      jump\t// out\n        /* \"#utility.yul\":7621:7746   */\n    tag_177:\n        /* \"#utility.yul\":7661:7665   */\n      0x00\n        /* \"#utility.yul\":7689:7690   */\n      dup3\n        /* \"#utility.yul\":7686:7687   */\n      dup3\n        /* \"#utility.yul\":7683:7691   */\n      lt\n        /* \"#utility.yul\":7680:7714   */\n      iszero\n      tag_317\n      jumpi\n        /* \"#utility.yul\":7694:7712   */\n      tag_317\n      tag_266\n      jump\t// in\n    tag_317:\n      pop\n        /* \"#utility.yul\":7731:7740   */\n      sub\n      swap1\n        /* \"#utility.yul\":7621:7746   */\n      jump\t// out\n        /* \"#utility.yul\":8108:8517   */\n    tag_207:\n        /* \"#utility.yul\":8323:8365   */\n      0xffffffffffffffffffffffffffffffffffffffff\n        /* \"#utility.yul\":8315:8321   */\n      dup5\n        /* \"#utility.yul\":8311:8366   */\n      and\n        /* \"#utility.yul\":8300:8309   */\n      dup2\n        /* \"#utility.yul\":8293:8367   */\n      mstore\n        /* \"#utility.yul\":8403:8409   */\n      dup3\n        /* \"#utility.yul\":8398:8400   */\n      0x20\n        /* \"#utility.yul\":8387:8396   */\n      dup3\n        /* \"#utility.yul\":8383:8401   */\n      add\n        /* \"#utility.yul\":8376:8410   */\n      mstore\n        /* \"#utility.yul\":8446:8448   */\n      0x60\n        /* \"#utility.yul\":8441:8443   */\n      0x40\n        /* \"#utility.yul\":8430:8439   */\n      dup3\n        /* \"#utility.yul\":8426:8444   */\n      add\n        /* \"#utility.yul\":8419:8449   */\n      mstore\n        /* \"#utility.yul\":8274:8278   */\n      0x00\n        /* \"#utility.yul\":8466:8511   */\n      tag_135\n        /* \"#utility.yul\":8507:8509   */\n      0x60\n        /* \"#utility.yul\":8496:8505   */\n      dup4\n        /* \"#utility.yul\":8492:8510   */\n      add\n        /* \"#utility.yul\":8484:8490   */\n      dup5\n        /* \"#utility.yul\":8466:8511   */\n      tag_265\n      jump\t// in\n        /* \"#utility.yul\":8926:9154   */\n    tag_232:\n        /* \"#utility.yul\":8966:8973   */\n      0x00\n        /* \"#utility.yul\":9092:9093   */\n      dup2\n        /* \"#utility.yul\":9024:9090   */\n      0xffffffffffffffffffffffffffffffffffffffffffffffffffffffffffffffff\n        /* \"#utility.yul\":9020:9094   */\n      div\n        /* \"#utility.yul\":9017:9018   */\n      dup4\n        /* \"#utility.yul\":9014:9095   */\n      gt\n        /* \"#utility.yul\":9009:9010   */\n      dup3\n        /* \"#utility.yul\":9002:9011   */\n      iszero\n        /* \"#utility.yul\":8995:9012   */\n      iszero\n        /* \"#utility.yul\":8991:9096   */\n      and\n        /* \"#utility.yul\":8988:9119   */\n      iszero\n      tag_324\n      jumpi\n        /* \"#utility.yul\":9099:9117   */\n      tag_324\n      tag_266\n      jump\t// in\n    tag_324:\n      pop\n        /* \"#utility.yul\":9139:9148   */\n      mul\n      swap1\n        /* \"#utility.yul\":8926:9154   */\n      jump\t// out\n        /* \"#utility.yul\":9159:9641   */\n    tag_267:\n        /* \"#utility.yul\":9248:9249   */\n      0x01\n        /* \"#utility.yul\":9291:9296   */\n      dup2\n        /* \"#utility.yul\":9248:9249   */\n      dup2\n        /* \"#utility.yul\":9305:9635   */\n    tag_326:\n        /* \"#utility.yul\":9326:9333   */\n      dup1\n        /* \"#utility.yul\":9316:9324   */\n      dup6\n        /* \"#utility.yul\":9313:9334   */\n      gt\n        /* \"#utility.yul\":9305:9635   */\n      iszero\n      tag_328\n      jumpi\n        /* \"#utility.yul\":9445:9449   */\n      dup2\n        /* \"#utility.yul\":9377:9443   */\n      0xffffffffffffffffffffffffffffffffffffffffffffffffffffffffffffffff\n        /* \"#utility.yul\":9373:9450   */\n      div\n        /* \"#utility.yul\":9367:9371   */\n      dup3\n        /* \"#utility.yul\":9364:9451   */\n      gt\n        /* \"#utility.yul\":9361:9474   */\n      iszero\n      tag_330\n      jumpi\n        /* \"#utility.yul\":9454:9472   */\n      tag_330\n      tag_266\n      jump\t// in\n    tag_330:\n        /* \"#utility.yul\":9504:9511   */\n      dup1\n        /* \"#utility.yul\":9494:9502   */\n      dup6\n        /* \"#utility.yul\":9490:9512   */\n      and\n        /* \"#utility.yul\":9487:9542   */\n      iszero\n      tag_331\n      jumpi\n        /* \"#utility.yul\":9524:9540   */\n      swap2\n      dup2\n      mul\n      swap2\n        /* \"#utility.yul\":9487:9542   */\n    tag_331:\n        /* \"#utility.yul\":9603:9625   */\n      swap4\n      dup5\n      shr\n      swap4\n        /* \"#utility.yul\":9563:9578   */\n      swap1\n      dup1\n      mul\n      swap1\n        /* \"#utility.yul\":9305:9635   */\n      jump(tag_326)\n    tag_328:\n        /* \"#utility.yul\":9309:9312   */\n      pop\n        /* \"#utility.yul\":9159:9641   */\n      swap3\n      pop\n      swap3\n      swap1\n      pop\n      jump\t// out\n        /* \"#utility.yul\":9646:10512   */\n    tag_268:\n        /* \"#utility.yul\":9695:9700   */\n      0x00\n        /* \"#utility.yul\":9725:9733   */\n      dup3\n        /* \"#utility.yul\":9715:9795   */\n      tag_333\n      jumpi\n      pop\n        /* \"#utility.yul\":9766:9767   */\n      0x01\n        /* \"#utility.yul\":9780:9785   */\n      jump(tag_128)\n        /* \"#utility.yul\":9715:9795   */\n    tag_333:\n        /* \"#utility.yul\":9814:9818   */\n      dup2\n        /* \"#utility.yul\":9804:9880   */\n      tag_334\n      jumpi\n      pop\n        /* \"#utility.yul\":9851:9852   */\n      0x00\n        /* \"#utility.yul\":9865:9870   */\n      jump(tag_128)\n        /* \"#utility.yul\":9804:9880   */\n    tag_334:\n        /* \"#utility.yul\":9896:9900   */\n      dup2\n        /* \"#utility.yul\":9914:9915   */\n      0x01\n        /* \"#utility.yul\":9909:9968   */\n      dup2\n      eq\n      tag_336\n      jumpi\n        /* \"#utility.yul\":9982:9983   */\n      0x02\n        /* \"#utility.yul\":9977:10107   */\n      dup2\n      eq\n      tag_337\n      jumpi\n        /* \"#utility.yul\":9889:10107   */\n      jump(tag_335)\n        /* \"#utility.yul\":9909:9968   */\n    tag_336:\n        /* \"#utility.yul\":9939:9940   */\n      0x01\n        /* \"#utility.yul\":9930:9940   */\n      swap2\n      pop\n        /* \"#utility.yul\":9953:9958   */\n      pop\n      jump(tag_128)\n        /* \"#utility.yul\":9977:10107   */\n    tag_337:\n        /* \"#utility.yul\":10014:10017   */\n      0xff\n        /* \"#utility.yul\":10004:10012   */\n      dup5\n        /* \"#utility.yul\":10001:10018   */\n      gt\n        /* \"#utility.yul\":9998:10041   */\n      iszero\n      tag_339\n      jumpi\n        /* \"#utility.yul\":10021:10039   */\n      tag_339\n      tag_266\n      jump\t// in\n    tag_339:\n      pop\n      pop\n        /* \"#utility.yul\":10077:10078   */\n      0x01\n        /* \"#utility.yul\":10063:10079   */\n      dup3\n      shl\n        /* \"#utility.yul\":10092:10097   */\n      jump(tag_128)\n        /* \"#utility.yul\":9889:10107   */\n    tag_335:\n      pop\n        /* \"#utility.yul\":10191:10193   */\n      0x20\n        /* \"#utility.yul\":10181:10189   */\n      dup4\n        /* \"#utility.yul\":10178:10194   */\n      lt\n        /* \"#utility.yul\":10172:10175   */\n      0x0133\n        /* \"#utility.yul\":10166:10170   */\n      dup4\n        /* \"#utility.yul\":10163:10176   */\n      lt\n        /* \"#utility.yul\":10159:10195   */\n      and\n        /* \"#utility.yul\":10153:10155   */\n      0x4e\n        /* \"#utility.yul\":10143:10151   */\n      dup5\n        /* \"#utility.yul\":10140:10156   */\n      lt\n        /* \"#utility.yul\":10135:10137   */\n      0x0b\n        /* \"#utility.yul\":10129:10133   */\n      dup5\n        /* \"#utility.yul\":10126:10138   */\n      lt\n        /* \"#utility.yul\":10122:10157   */\n      and\n        /* \"#utility.yul\":10119:10196   */\n      or\n        /* \"#utility.yul\":10116:10275   */\n      iszero\n      tag_340\n      jumpi\n      pop\n        /* \"#utility.yul\":10228:10247   */\n      dup2\n      dup2\n      exp\n        /* \"#utility.yul\":10260:10265   */\n      jump(tag_128)\n        /* \"#utility.yul\":10116:10275   */\n    tag_340:\n        /* \"#utility.yul\":10307:10341   */\n      tag_341\n        /* \"#utility.yul\":10332:10340   */\n      dup4\n        /* \"#utility.yul\":10326:10330   */\n      dup4\n        /* \"#utility.yul\":10307:10341   */\n      tag_267\n      jump\t// in\n    tag_341:\n        /* \"#utility.yul\":10437:10443   */\n      dup1\n        /* \"#utility.yul\":10369:10435   */\n      0xffffffffffffffffffffffffffffffffffffffffffffffffffffffffffffffff\n        /* \"#utility.yul\":10365:10444   */\n      div\n        /* \"#utility.yul\":10356:10363   */\n      dup3\n        /* \"#utility.yul\":10353:10445   */\n      gt\n        /* \"#utility.yul\":10350:10468   */\n      iszero\n      tag_343\n      jumpi\n        /* \"#utility.yul\":10448:10466   */\n      tag_343\n      tag_266\n      jump\t// in\n    tag_343:\n        /* \"#utility.yul\":10486:10506   */\n      mul\n      swap4\n        /* \"#utility.yul\":9646:10512   */\n      swap3\n      pop\n      pop\n      pop\n      jump\t// out\n        /* \"#utility.yul\":10517:10648   */\n    tag_255:\n        /* \"#utility.yul\":10577:10582   */\n      0x00\n        /* \"#utility.yul\":10606:10642   */\n      tag_142\n        /* \"#utility.yul\":10633:10641   */\n      dup4\n        /* \"#utility.yul\":10627:10631   */\n      dup4\n        /* \"#utility.yul\":10606:10642   */\n      tag_268\n      jump\t// in\n\n    auxdata: 0xa2646970667358221220c41d7a9c8e60fcd2a003e10437c40be175d618c8f9e0658b8009fdfc105a2b2f64736f6c634300080d0033\n}\n",
				"bytecode": {
					"linkReferences": {},
					"object": "608060405260016004553480156200001657600080fd5b5060405162001cee38038062001cee833981016040819052620000399162000469565b3380600081620000905760405162461bcd60e51b815260206004820152601860248201527f43616e6e6f7420736574206f776e657220746f207a65726f000000000000000060448201526064015b60405180910390fd5b600680546001600160a01b0319166001600160a01b0384811691909117909155811615620000c357620000c381620002a0565b50505060006040518060600160405280602d815260200162001cc1602d9139905060006040518060400160405280600a8152602001692f7374616e64696e677360b01b815250905082600e9080519060200190620001239291906200037a565b50620001e981620001d5600e80546200013c9062000521565b80601f01602080910402602001604051908101604052809291908181526020018280546200016a9062000521565b8015620001bb5780601f106200018f57610100808354040283529160200191620001bb565b820191906000526020600020905b8154815290600101906020018083116200019d57829003601f168201915b5050505050856200034c60201b620007d61790919060201c565b6200034c60201b620007d61790919060201c565b8051620001ff91600d916020909101906200037a565b50600380546001600160a01b031916737ca7215c6b8013f249a195cc107f97c4e623e5f5179055600280546001600160a01b03191673326c977e6efc84e512bb9c30f76e30c160ed06fb1790557f6364336135663864636163323435653961336666353864353962343435353935600b55601462000287670de0b6b3a764000060016200055d565b6200029391906200058b565b600c5550620005e1915050565b336001600160a01b03821603620002fa5760405162461bcd60e51b815260206004820152601760248201527f43616e6e6f74207472616e7366657220746f2073656c66000000000000000000604482015260640162000087565b600780546001600160a01b0319166001600160a01b03838116918217909255600654604051919216907fed8889f560326eb138920d842192f0eb3dd22b4f139c87a2c57538e05bae127890600090a350565b6060828260405160200162000363929190620005ae565b604051602081830303815290604052905092915050565b828054620003889062000521565b90600052602060002090601f016020900481019282620003ac5760008555620003f7565b82601f10620003c757805160ff1916838001178555620003f7565b82800160010185558215620003f7579182015b82811115620003f7578251825591602001919060010190620003da565b506200040592915062000409565b5090565b5b808211156200040557600081556001016200040a565b634e487b7160e01b600052604160045260246000fd5b60005b838110156200045357818101518382015260200162000439565b8381111562000463576000848401525b50505050565b6000602082840312156200047c57600080fd5b81516001600160401b03808211156200049457600080fd5b818401915084601f830112620004a957600080fd5b815181811115620004be57620004be62000420565b604051601f8201601f19908116603f01168101908382118183101715620004e957620004e962000420565b816040528281528760208487010111156200050357600080fd5b6200051683602083016020880162000436565b979650505050505050565b600181811c908216806200053657607f821691505b6020821081036200055757634e487b7160e01b600052602260045260246000fd5b50919050565b60008160001904831182151516156200058657634e487b7160e01b600052601160045260246000fd5b500290565b600082620005a957634e487b7160e01b600052601260045260246000fd5b500490565b60008351620005c281846020880162000436565b835190830190620005d881836020880162000436565b01949350505050565b6116d080620005f16000396000f3fe608060405234801561001057600080fd5b50600436106100df5760003560e01c80638dc654a21161008c578063d9b2929711610066578063d9b292971461018e578063dfbf53ae146101a3578063f2fde38b146101ac578063f81b5c5b146101bf57600080fd5b80638dc654a2146101605780639ae2c3c614610168578063a8d542611461017b57600080fd5b806378a7d3af116100bd57806378a7d3af1461012857806379ba5097146101305780638da5cb5b1461013857600080fd5b806301a3694e146100e45780630df71602146101005780633d5d323614610115575b600080fd5b6100ed60095481565b6040519081526020015b60405180910390f35b61011361010e366004611219565b600855565b005b610113610123366004611232565b6101c8565b6100ed610330565b610113610475565b60065460405173ffffffffffffffffffffffffffffffffffffffff90911681526020016100f7565b610113610576565b610113610176366004611219565b600a55565b610113610189366004611219565b600955565b610196610737565b6040516100f791906112da565b6100ed60085481565b6101136101ba3660046112ed565b6107c5565b6100ed600a5481565b600084815260056020526040902054849073ffffffffffffffffffffffffffffffffffffffff163314610282576040517f08c379a000000000000000000000000000000000000000000000000000000000815260206004820152602860248201527f536f75726365206d75737420626520746865206f7261636c65206f662074686560448201527f207265717565737400000000000000000000000000000000000000000000000060648201526084015b60405180910390fd5b60008181526005602052604080822080547fffffffffffffffffffffffff00000000000000000000000000000000000000001690555182917f7cc135e0cebb02c3480ae5d74d377283180a2601f8f644edf7987b009316c63a91a2604080518581526020810185905290810183905285907f539e5682d95ed725b9a92ef19aefc24d6e1bc6aa39ab4f2ac96a3e48f1dd2e469060600160405180910390a250600892909255600955600a5550565b600080610347600b5430633d5d323660e01b610803565b905061041d6040518060400160405280600381526020017f6765740000000000000000000000000000000000000000000000000000000000815250600d805461038f90611323565b80601f01602080910402602001604051908101604052809291908181526020018280546103bb90611323565b80156104085780601f106103dd57610100808354040283529160200191610408565b820191906000526020600020905b8154815290600101906020018083116103eb57829003601f168201915b5050505050836108949092919063ffffffff16565b6104636040518060400160405280600681526020017f6c65616775650000000000000000000000000000000000000000000000000000815250600e805461038f90611323565b61046f81600c546108b7565b91505090565b60075473ffffffffffffffffffffffffffffffffffffffff1633146104f6576040517f08c379a000000000000000000000000000000000000000000000000000000000815260206004820152601660248201527f4d7573742062652070726f706f736564206f776e6572000000000000000000006044820152606401610279565b600680547fffffffffffffffffffffffff00000000000000000000000000000000000000008082163390811790935560078054909116905560405173ffffffffffffffffffffffffffffffffffffffff909116919082907f8be0079c531659141344cd1fd0a4f28419497f9722a3daafe3b4186f6b6457e090600090a350565b61057e6108e5565b600061059f60025473ffffffffffffffffffffffffffffffffffffffff1690565b6040517f70a0823100000000000000000000000000000000000000000000000000000000815230600482015290915073ffffffffffffffffffffffffffffffffffffffff82169063a9059cbb90339083906370a0823190602401602060405180830381865afa158015610616573d6000803e3d6000fd5b505050506040513d601f19601f8201168201806040525081019061063a9190611370565b6040517fffffffff0000000000000000000000000000000000000000000000000000000060e085901b16815273ffffffffffffffffffffffffffffffffffffffff909216600483015260248201526044016020604051808303816000875af11580156106aa573d6000803e3d6000fd5b505050506040513d601f19601f820116820180604052508101906106ce9190611389565b610734576040517f08c379a000000000000000000000000000000000000000000000000000000000815260206004820152601260248201527f556e61626c6520746f207472616e7366657200000000000000000000000000006044820152606401610279565b50565b600e805461074490611323565b80601f016020809104026020016040519081016040528092919081815260200182805461077090611323565b80156107bd5780601f10610792576101008083540402835291602001916107bd565b820191906000526020600020905b8154815290600101906020018083116107a057829003601f168201915b505050505081565b6107cd6108e5565b61073481610968565b606082826040516020016107eb9291906113ab565b60405160208183030381529060405290505b92915050565b6108416040805160a0810182526000808252602080830182905282840182905260608084018390528451808601909552845283015290608082015290565b61087f6040805160a0810182526000808252602080830182905282840182905260608084018390528451808601909552845283015290608082015290565b61088b81868686610a5e565b95945050505050565b60808301516108a39083610aff565b60808301516108b29082610aff565b505050565b6003546000906108de9073ffffffffffffffffffffffffffffffffffffffff168484610b16565b9392505050565b60065473ffffffffffffffffffffffffffffffffffffffff163314610966576040517f08c379a000000000000000000000000000000000000000000000000000000000815260206004820152601660248201527f4f6e6c792063616c6c61626c65206279206f776e6572000000000000000000006044820152606401610279565b565b3373ffffffffffffffffffffffffffffffffffffffff8216036109e7576040517f08c379a000000000000000000000000000000000000000000000000000000000815260206004820152601760248201527f43616e6e6f74207472616e7366657220746f2073656c660000000000000000006044820152606401610279565b600780547fffffffffffffffffffffffff00000000000000000000000000000000000000001673ffffffffffffffffffffffffffffffffffffffff838116918217909255600654604051919216907fed8889f560326eb138920d842192f0eb3dd22b4f139c87a2c57538e05bae127890600090a350565b610a9c6040805160a0810182526000808252602080830182905282840182905260608084018390528451808601909552845283015290608082015290565b610aac8560800151610100610c0d565b505082845273ffffffffffffffffffffffffffffffffffffffff821660208501527fffffffff0000000000000000000000000000000000000000000000000000000081166040850152835b949350505050565b610b0c8260038351610c72565b6108b28282610d87565b600454600090610b27816001611409565b600455835160408086015160808701515191516000937f404299460000000000000000000000000000000000000000000000000000000093610b789386938493923092918a91600191602401611421565b604080517fffffffffffffffffffffffffffffffffffffffffffffffffffffffffffffffe08184030181529190526020810180517bffffffffffffffffffffffffffffffffffffffffffffffffffffffff167fffffffff00000000000000000000000000000000000000000000000000000000909316929092179091529050610c0386838684610dae565b9695505050505050565b604080518082019091526060815260006020820152610c2d6020836114aa565b15610c5557610c3d6020836114aa565b610c489060206114e5565b610c529083611409565b91505b506020828101829052604080518085526000815290920101905290565b60178167ffffffffffffffff1611610c9d57610c978360e0600585901b168317610fbc565b50505050565b60ff8167ffffffffffffffff1611610cdb57610cc4836018611fe0600586901b1617610fbc565b50610c978367ffffffffffffffff83166001610fe1565b61ffff8167ffffffffffffffff1611610d1a57610d03836019611fe0600586901b1617610fbc565b50610c978367ffffffffffffffff83166002610fe1565b63ffffffff8167ffffffffffffffff1611610d5b57610d4483601a611fe0600586901b1617610fbc565b50610c978367ffffffffffffffff83166004610fe1565b610d7083601b611fe0600586901b1617610fbc565b50610c978367ffffffffffffffff83166008610fe1565b6040805180820190915260608152600060208201526108de83846000015151848551611007565b6040517fffffffffffffffffffffffffffffffffffffffff0000000000000000000000003060601b16602082015260348101849052600090605401604080518083037fffffffffffffffffffffffffffffffffffffffffffffffffffffffffffffffe001815282825280516020918201206000818152600590925291812080547fffffffffffffffffffffffff00000000000000000000000000000000000000001673ffffffffffffffffffffffffffffffffffffffff8a1617905590925082917fb5e6e01e79f91267dc17b4e6314d5d4d03593d2ceee0fbb452b750bd70ea5af99190a26002546040517f4000aea000000000000000000000000000000000000000000000000000000000815273ffffffffffffffffffffffffffffffffffffffff90911690634000aea090610eed908890879087906004016114fc565b6020604051808303816000875af1158015610f0c573d6000803e3d6000fd5b505050506040513d601f19601f82011682018060405250810190610f309190611389565b610af7576040517f08c379a000000000000000000000000000000000000000000000000000000000815260206004820152602360248201527f756e61626c6520746f207472616e73666572416e6443616c6c20746f206f726160448201527f636c6500000000000000000000000000000000000000000000000000000000006064820152608401610279565b6040805180820190915260608152600060208201526108de838460000151518461110f565b604080518082019091526060815260006020820152610af784856000015151858561116a565b604080518082019091526060815260006020820152825182111561102a57600080fd5b60208501516110398386611409565b111561106c5761106c8561105c876020015187866110579190611409565b6111eb565b611067906002611531565b611202565b60008086518051876020830101935080888701111561108b5787860182525b505050602084015b602084106110cb57805182526110aa602083611409565b91506110b7602082611409565b90506110c46020856114e5565b9350611093565b5181517fffffffffffffffffffffffffffffffffffffffffffffffffffffffffffffffff60208690036101000a019081169019919091161790525083949350505050565b604080518082019091526060815260006020820152836020015183106111445761114484856020015160026110679190611531565b8351805160208583010184815350808503611160576001810182525b5093949350505050565b604080518082019091526060815260006020820152602085015161118e8584611409565b11156111a2576111a28561105c8685611409565b600060016111b28461010061168e565b6111bc91906114e5565b90508551838682010185831982511617815250805184870111156111e05783860181525b509495945050505050565b6000818311156111fc5750816107fd565b50919050565b815161120e8383610c0d565b50610c978382610d87565b60006020828403121561122b57600080fd5b5035919050565b6000806000806080858703121561124857600080fd5b5050823594602084013594506040840135936060013592509050565b60005b8381101561127f578181015183820152602001611267565b83811115610c975750506000910152565b600081518084526112a8816020860160208601611264565b601f017fffffffffffffffffffffffffffffffffffffffffffffffffffffffffffffffe0169290920160200192915050565b6020815260006108de6020830184611290565b6000602082840312156112ff57600080fd5b813573ffffffffffffffffffffffffffffffffffffffff811681146108de57600080fd5b600181811c9082168061133757607f821691505b6020821081036111fc577f4e487b7100000000000000000000000000000000000000000000000000000000600052602260045260246000fd5b60006020828403121561138257600080fd5b5051919050565b60006020828403121561139b57600080fd5b815180151581146108de57600080fd5b600083516113bd818460208801611264565b8351908301906113d1818360208801611264565b01949350505050565b7f4e487b7100000000000000000000000000000000000000000000000000000000600052601160045260246000fd5b6000821982111561141c5761141c6113da565b500190565b600061010073ffffffffffffffffffffffffffffffffffffffff808c1684528a60208501528960408501528089166060850152507fffffffff00000000000000000000000000000000000000000000000000000000871660808401528560a08401528460c08401528060e084015261149b81840185611290565b9b9a5050505050505050505050565b6000826114e0577f4e487b7100000000000000000000000000000000000000000000000000000000600052601260045260246000fd5b500690565b6000828210156114f7576114f76113da565b500390565b73ffffffffffffffffffffffffffffffffffffffff8416815282602082015260606040820152600061088b6060830184611290565b6000817fffffffffffffffffffffffffffffffffffffffffffffffffffffffffffffffff0483118215151615611569576115696113da565b500290565b600181815b808511156115c757817fffffffffffffffffffffffffffffffffffffffffffffffffffffffffffffffff048211156115ad576115ad6113da565b808516156115ba57918102915b93841c9390800290611573565b509250929050565b6000826115de575060016107fd565b816115eb575060006107fd565b8160018114611601576002811461160b57611627565b60019150506107fd565b60ff84111561161c5761161c6113da565b50506001821b6107fd565b5060208310610133831016604e8410600b841016171561164a575081810a6107fd565b611654838361156e565b807fffffffffffffffffffffffffffffffffffffffffffffffffffffffffffffffff04821115611686576116866113da565b029392505050565b60006108de83836115cf56fea2646970667358221220c41d7a9c8e60fcd2a003e10437c40be175d618c8f9e0658b8009fdfc105a2b2f64736f6c634300080d0033687474703a2f2f6170692e666f6f7462616c6c2d646174612e6f72672f76342f636f6d7065746974696f6e732f",
					"opcodes": "PUSH1 0x80 PUSH1 0x40 MSTORE PUSH1 0x1 PUSH1 0x4 SSTORE CALLVALUE DUP1 ISZERO PUSH3 0x16 JUMPI PUSH1 0x0 DUP1 REVERT JUMPDEST POP PUSH1 0x40 MLOAD PUSH3 0x1CEE CODESIZE SUB DUP1 PUSH3 0x1CEE DUP4 CODECOPY DUP2 ADD PUSH1 0x40 DUP2 SWAP1 MSTORE PUSH3 0x39 SWAP2 PUSH3 0x469 JUMP JUMPDEST CALLER DUP1 PUSH1 0x0 DUP2 PUSH3 0x90 JUMPI PUSH1 0x40 MLOAD PUSH3 0x461BCD PUSH1 0xE5 SHL DUP2 MSTORE PUSH1 0x20 PUSH1 0x4 DUP3 ADD MSTORE PUSH1 0x18 PUSH1 0x24 DUP3 ADD MSTORE PUSH32 0x43616E6E6F7420736574206F776E657220746F207A65726F0000000000000000 PUSH1 0x44 DUP3 ADD MSTORE PUSH1 0x64 ADD JUMPDEST PUSH1 0x40 MLOAD DUP1 SWAP2 SUB SWAP1 REVERT JUMPDEST PUSH1 0x6 DUP1 SLOAD PUSH1 0x1 PUSH1 0x1 PUSH1 0xA0 SHL SUB NOT AND PUSH1 0x1 PUSH1 0x1 PUSH1 0xA0 SHL SUB DUP5 DUP2 AND SWAP2 SWAP1 SWAP2 OR SWAP1 SWAP2 SSTORE DUP2 AND ISZERO PUSH3 0xC3 JUMPI PUSH3 0xC3 DUP2 PUSH3 0x2A0 JUMP JUMPDEST POP POP POP PUSH1 0x0 PUSH1 0x40 MLOAD DUP1 PUSH1 0x60 ADD PUSH1 0x40 MSTORE DUP1 PUSH1 0x2D DUP2 MSTORE PUSH1 0x20 ADD PUSH3 0x1CC1 PUSH1 0x2D SWAP2 CODECOPY SWAP1 POP PUSH1 0x0 PUSH1 0x40 MLOAD DUP1 PUSH1 0x40 ADD PUSH1 0x40 MSTORE DUP1 PUSH1 0xA DUP2 MSTORE PUSH1 0x20 ADD PUSH10 0x2F7374616E64696E6773 PUSH1 0xB0 SHL DUP2 MSTORE POP SWAP1 POP DUP3 PUSH1 0xE SWAP1 DUP1 MLOAD SWAP1 PUSH1 0x20 ADD SWAP1 PUSH3 0x123 SWAP3 SWAP2 SWAP1 PUSH3 0x37A JUMP JUMPDEST POP PUSH3 0x1E9 DUP2 PUSH3 0x1D5 PUSH1 0xE DUP1 SLOAD PUSH3 0x13C SWAP1 PUSH3 0x521 JUMP JUMPDEST DUP1 PUSH1 0x1F ADD PUSH1 0x20 DUP1 SWAP2 DIV MUL PUSH1 0x20 ADD PUSH1 0x40 MLOAD SWAP1 DUP2 ADD PUSH1 0x40 MSTORE DUP1 SWAP3 SWAP2 SWAP1 DUP2 DUP2 MSTORE PUSH1 0x20 ADD DUP3 DUP1 SLOAD PUSH3 0x16A SWAP1 PUSH3 0x521 JUMP JUMPDEST DUP1 ISZERO PUSH3 0x1BB JUMPI DUP1 PUSH1 0x1F LT PUSH3 0x18F JUMPI PUSH2 0x100 DUP1 DUP4 SLOAD DIV MUL DUP4 MSTORE SWAP2 PUSH1 0x20 ADD SWAP2 PUSH3 0x1BB JUMP JUMPDEST DUP3 ADD SWAP2 SWAP1 PUSH1 0x0 MSTORE PUSH1 0x20 PUSH1 0x0 KECCAK256 SWAP1 JUMPDEST DUP2 SLOAD DUP2 MSTORE SWAP1 PUSH1 0x1 ADD SWAP1 PUSH1 0x20 ADD DUP1 DUP4 GT PUSH3 0x19D JUMPI DUP3 SWAP1 SUB PUSH1 0x1F AND DUP3 ADD SWAP2 JUMPDEST POP POP POP POP POP DUP6 PUSH3 0x34C PUSH1 0x20 SHL PUSH3 0x7D6 OR SWAP1 SWAP2 SWAP1 PUSH1 0x20 SHR JUMP JUMPDEST PUSH3 0x34C PUSH1 0x20 SHL PUSH3 0x7D6 OR SWAP1 SWAP2 SWAP1 PUSH1 0x20 SHR JUMP JUMPDEST DUP1 MLOAD PUSH3 0x1FF SWAP2 PUSH1 0xD SWAP2 PUSH1 0x20 SWAP1 SWAP2 ADD SWAP1 PUSH3 0x37A JUMP JUMPDEST POP PUSH1 0x3 DUP1 SLOAD PUSH1 0x1 PUSH1 0x1 PUSH1 0xA0 SHL SUB NOT AND PUSH20 0x7CA7215C6B8013F249A195CC107F97C4E623E5F5 OR SWAP1 SSTORE PUSH1 0x2 DUP1 SLOAD PUSH1 0x1 PUSH1 0x1 PUSH1 0xA0 SHL SUB NOT AND PUSH20 0x326C977E6EFC84E512BB9C30F76E30C160ED06FB OR SWAP1 SSTORE PUSH32 0x6364336135663864636163323435653961336666353864353962343435353935 PUSH1 0xB SSTORE PUSH1 0x14 PUSH3 0x287 PUSH8 0xDE0B6B3A7640000 PUSH1 0x1 PUSH3 0x55D JUMP JUMPDEST PUSH3 0x293 SWAP2 SWAP1 PUSH3 0x58B JUMP JUMPDEST PUSH1 0xC SSTORE POP PUSH3 0x5E1 SWAP2 POP POP JUMP JUMPDEST CALLER PUSH1 0x1 PUSH1 0x1 PUSH1 0xA0 SHL SUB DUP3 AND SUB PUSH3 0x2FA JUMPI PUSH1 0x40 MLOAD PUSH3 0x461BCD PUSH1 0xE5 SHL DUP2 MSTORE PUSH1 0x20 PUSH1 0x4 DUP3 ADD MSTORE PUSH1 0x17 PUSH1 0x24 DUP3 ADD MSTORE PUSH32 0x43616E6E6F74207472616E7366657220746F2073656C66000000000000000000 PUSH1 0x44 DUP3 ADD MSTORE PUSH1 0x64 ADD PUSH3 0x87 JUMP JUMPDEST PUSH1 0x7 DUP1 SLOAD PUSH1 0x1 PUSH1 0x1 PUSH1 0xA0 SHL SUB NOT AND PUSH1 0x1 PUSH1 0x1 PUSH1 0xA0 SHL SUB DUP4 DUP2 AND SWAP2 DUP3 OR SWAP1 SWAP3 SSTORE PUSH1 0x6 SLOAD PUSH1 0x40 MLOAD SWAP2 SWAP3 AND SWAP1 PUSH32 0xED8889F560326EB138920D842192F0EB3DD22B4F139C87A2C57538E05BAE1278 SWAP1 PUSH1 0x0 SWAP1 LOG3 POP JUMP JUMPDEST PUSH1 0x60 DUP3 DUP3 PUSH1 0x40 MLOAD PUSH1 0x20 ADD PUSH3 0x363 SWAP3 SWAP2 SWAP1 PUSH3 0x5AE JUMP JUMPDEST PUSH1 0x40 MLOAD PUSH1 0x20 DUP2 DUP4 SUB SUB DUP2 MSTORE SWAP1 PUSH1 0x40 MSTORE SWAP1 POP SWAP3 SWAP2 POP POP JUMP JUMPDEST DUP3 DUP1 SLOAD PUSH3 0x388 SWAP1 PUSH3 0x521 JUMP JUMPDEST SWAP1 PUSH1 0x0 MSTORE PUSH1 0x20 PUSH1 0x0 KECCAK256 SWAP1 PUSH1 0x1F ADD PUSH1 0x20 SWAP1 DIV DUP2 ADD SWAP3 DUP3 PUSH3 0x3AC JUMPI PUSH1 0x0 DUP6 SSTORE PUSH3 0x3F7 JUMP JUMPDEST DUP3 PUSH1 0x1F LT PUSH3 0x3C7 JUMPI DUP1 MLOAD PUSH1 0xFF NOT AND DUP4 DUP1 ADD OR DUP6 SSTORE PUSH3 0x3F7 JUMP JUMPDEST DUP3 DUP1 ADD PUSH1 0x1 ADD DUP6 SSTORE DUP3 ISZERO PUSH3 0x3F7 JUMPI SWAP2 DUP3 ADD JUMPDEST DUP3 DUP2 GT ISZERO PUSH3 0x3F7 JUMPI DUP3 MLOAD DUP3 SSTORE SWAP2 PUSH1 0x20 ADD SWAP2 SWAP1 PUSH1 0x1 ADD SWAP1 PUSH3 0x3DA JUMP JUMPDEST POP PUSH3 0x405 SWAP3 SWAP2 POP PUSH3 0x409 JUMP JUMPDEST POP SWAP1 JUMP JUMPDEST JUMPDEST DUP1 DUP3 GT ISZERO PUSH3 0x405 JUMPI PUSH1 0x0 DUP2 SSTORE PUSH1 0x1 ADD PUSH3 0x40A JUMP JUMPDEST PUSH4 0x4E487B71 PUSH1 0xE0 SHL PUSH1 0x0 MSTORE PUSH1 0x41 PUSH1 0x4 MSTORE PUSH1 0x24 PUSH1 0x0 REVERT JUMPDEST PUSH1 0x0 JUMPDEST DUP4 DUP2 LT ISZERO PUSH3 0x453 JUMPI DUP2 DUP2 ADD MLOAD DUP4 DUP3 ADD MSTORE PUSH1 0x20 ADD PUSH3 0x439 JUMP JUMPDEST DUP4 DUP2 GT ISZERO PUSH3 0x463 JUMPI PUSH1 0x0 DUP5 DUP5 ADD MSTORE JUMPDEST POP POP POP POP JUMP JUMPDEST PUSH1 0x0 PUSH1 0x20 DUP3 DUP5 SUB SLT ISZERO PUSH3 0x47C JUMPI PUSH1 0x0 DUP1 REVERT JUMPDEST DUP2 MLOAD PUSH1 0x1 PUSH1 0x1 PUSH1 0x40 SHL SUB DUP1 DUP3 GT ISZERO PUSH3 0x494 JUMPI PUSH1 0x0 DUP1 REVERT JUMPDEST DUP2 DUP5 ADD SWAP2 POP DUP5 PUSH1 0x1F DUP4 ADD SLT PUSH3 0x4A9 JUMPI PUSH1 0x0 DUP1 REVERT JUMPDEST DUP2 MLOAD DUP2 DUP2 GT ISZERO PUSH3 0x4BE JUMPI PUSH3 0x4BE PUSH3 0x420 JUMP JUMPDEST PUSH1 0x40 MLOAD PUSH1 0x1F DUP3 ADD PUSH1 0x1F NOT SWAP1 DUP2 AND PUSH1 0x3F ADD AND DUP2 ADD SWAP1 DUP4 DUP3 GT DUP2 DUP4 LT OR ISZERO PUSH3 0x4E9 JUMPI PUSH3 0x4E9 PUSH3 0x420 JUMP JUMPDEST DUP2 PUSH1 0x40 MSTORE DUP3 DUP2 MSTORE DUP8 PUSH1 0x20 DUP5 DUP8 ADD ADD GT ISZERO PUSH3 0x503 JUMPI PUSH1 0x0 DUP1 REVERT JUMPDEST PUSH3 0x516 DUP4 PUSH1 0x20 DUP4 ADD PUSH1 0x20 DUP9 ADD PUSH3 0x436 JUMP JUMPDEST SWAP8 SWAP7 POP POP POP POP POP POP POP JUMP JUMPDEST PUSH1 0x1 DUP2 DUP2 SHR SWAP1 DUP3 AND DUP1 PUSH3 0x536 JUMPI PUSH1 0x7F DUP3 AND SWAP2 POP JUMPDEST PUSH1 0x20 DUP3 LT DUP2 SUB PUSH3 0x557 JUMPI PUSH4 0x4E487B71 PUSH1 0xE0 SHL PUSH1 0x0 MSTORE PUSH1 0x22 PUSH1 0x4 MSTORE PUSH1 0x24 PUSH1 0x0 REVERT JUMPDEST POP SWAP2 SWAP1 POP JUMP JUMPDEST PUSH1 0x0 DUP2 PUSH1 0x0 NOT DIV DUP4 GT DUP3 ISZERO ISZERO AND ISZERO PUSH3 0x586 JUMPI PUSH4 0x4E487B71 PUSH1 0xE0 SHL PUSH1 0x0 MSTORE PUSH1 0x11 PUSH1 0x4 MSTORE PUSH1 0x24 PUSH1 0x0 REVERT JUMPDEST POP MUL SWAP1 JUMP JUMPDEST PUSH1 0x0 DUP3 PUSH3 0x5A9 JUMPI PUSH4 0x4E487B71 PUSH1 0xE0 SHL PUSH1 0x0 MSTORE PUSH1 0x12 PUSH1 0x4 MSTORE PUSH1 0x24 PUSH1 0x0 REVERT JUMPDEST POP DIV SWAP1 JUMP JUMPDEST PUSH1 0x0 DUP4 MLOAD PUSH3 0x5C2 DUP2 DUP5 PUSH1 0x20 DUP9 ADD PUSH3 0x436 JUMP JUMPDEST DUP4 MLOAD SWAP1 DUP4 ADD SWAP1 PUSH3 0x5D8 DUP2 DUP4 PUSH1 0x20 DUP9 ADD PUSH3 0x436 JUMP JUMPDEST ADD SWAP5 SWAP4 POP POP POP POP JUMP JUMPDEST PUSH2 0x16D0 DUP1 PUSH3 0x5F1 PUSH1 0x0 CODECOPY PUSH1 0x0 RETURN INVALID PUSH1 0x80 PUSH1 0x40 MSTORE CALLVALUE DUP1 ISZERO PUSH2 0x10 JUMPI PUSH1 0x0 DUP1 REVERT JUMPDEST POP PUSH1 0x4 CALLDATASIZE LT PUSH2 0xDF JUMPI PUSH1 0x0 CALLDATALOAD PUSH1 0xE0 SHR DUP1 PUSH4 0x8DC654A2 GT PUSH2 0x8C JUMPI DUP1 PUSH4 0xD9B29297 GT PUSH2 0x66 JUMPI DUP1 PUSH4 0xD9B29297 EQ PUSH2 0x18E JUMPI DUP1 PUSH4 0xDFBF53AE EQ PUSH2 0x1A3 JUMPI DUP1 PUSH4 0xF2FDE38B EQ PUSH2 0x1AC JUMPI DUP1 PUSH4 0xF81B5C5B EQ PUSH2 0x1BF JUMPI PUSH1 0x0 DUP1 REVERT JUMPDEST DUP1 PUSH4 0x8DC654A2 EQ PUSH2 0x160 JUMPI DUP1 PUSH4 0x9AE2C3C6 EQ PUSH2 0x168 JUMPI DUP1 PUSH4 0xA8D54261 EQ PUSH2 0x17B JUMPI PUSH1 0x0 DUP1 REVERT JUMPDEST DUP1 PUSH4 0x78A7D3AF GT PUSH2 0xBD JUMPI DUP1 PUSH4 0x78A7D3AF EQ PUSH2 0x128 JUMPI DUP1 PUSH4 0x79BA5097 EQ PUSH2 0x130 JUMPI DUP1 PUSH4 0x8DA5CB5B EQ PUSH2 0x138 JUMPI PUSH1 0x0 DUP1 REVERT JUMPDEST DUP1 PUSH4 0x1A3694E EQ PUSH2 0xE4 JUMPI DUP1 PUSH4 0xDF71602 EQ PUSH2 0x100 JUMPI DUP1 PUSH4 0x3D5D3236 EQ PUSH2 0x115 JUMPI JUMPDEST PUSH1 0x0 DUP1 REVERT JUMPDEST PUSH2 0xED PUSH1 0x9 SLOAD DUP2 JUMP JUMPDEST PUSH1 0x40 MLOAD SWAP1 DUP2 MSTORE PUSH1 0x20 ADD JUMPDEST PUSH1 0x40 MLOAD DUP1 SWAP2 SUB SWAP1 RETURN JUMPDEST PUSH2 0x113 PUSH2 0x10E CALLDATASIZE PUSH1 0x4 PUSH2 0x1219 JUMP JUMPDEST PUSH1 0x8 SSTORE JUMP JUMPDEST STOP JUMPDEST PUSH2 0x113 PUSH2 0x123 CALLDATASIZE PUSH1 0x4 PUSH2 0x1232 JUMP JUMPDEST PUSH2 0x1C8 JUMP JUMPDEST PUSH2 0xED PUSH2 0x330 JUMP JUMPDEST PUSH2 0x113 PUSH2 0x475 JUMP JUMPDEST PUSH1 0x6 SLOAD PUSH1 0x40 MLOAD PUSH20 0xFFFFFFFFFFFFFFFFFFFFFFFFFFFFFFFFFFFFFFFF SWAP1 SWAP2 AND DUP2 MSTORE PUSH1 0x20 ADD PUSH2 0xF7 JUMP JUMPDEST PUSH2 0x113 PUSH2 0x576 JUMP JUMPDEST PUSH2 0x113 PUSH2 0x176 CALLDATASIZE PUSH1 0x4 PUSH2 0x1219 JUMP JUMPDEST PUSH1 0xA SSTORE JUMP JUMPDEST PUSH2 0x113 PUSH2 0x189 CALLDATASIZE PUSH1 0x4 PUSH2 0x1219 JUMP JUMPDEST PUSH1 0x9 SSTORE JUMP JUMPDEST PUSH2 0x196 PUSH2 0x737 JUMP JUMPDEST PUSH1 0x40 MLOAD PUSH2 0xF7 SWAP2 SWAP1 PUSH2 0x12DA JUMP JUMPDEST PUSH2 0xED PUSH1 0x8 SLOAD DUP2 JUMP JUMPDEST PUSH2 0x113 PUSH2 0x1BA CALLDATASIZE PUSH1 0x4 PUSH2 0x12ED JUMP JUMPDEST PUSH2 0x7C5 JUMP JUMPDEST PUSH2 0xED PUSH1 0xA SLOAD DUP2 JUMP JUMPDEST PUSH1 0x0 DUP5 DUP2 MSTORE PUSH1 0x5 PUSH1 0x20 MSTORE PUSH1 0x40 SWAP1 KECCAK256 SLOAD DUP5 SWAP1 PUSH20 0xFFFFFFFFFFFFFFFFFFFFFFFFFFFFFFFFFFFFFFFF AND CALLER EQ PUSH2 0x282 JUMPI PUSH1 0x40 MLOAD PUSH32 0x8C379A000000000000000000000000000000000000000000000000000000000 DUP2 MSTORE PUSH1 0x20 PUSH1 0x4 DUP3 ADD MSTORE PUSH1 0x28 PUSH1 0x24 DUP3 ADD MSTORE PUSH32 0x536F75726365206D75737420626520746865206F7261636C65206F6620746865 PUSH1 0x44 DUP3 ADD MSTORE PUSH32 0x2072657175657374000000000000000000000000000000000000000000000000 PUSH1 0x64 DUP3 ADD MSTORE PUSH1 0x84 ADD JUMPDEST PUSH1 0x40 MLOAD DUP1 SWAP2 SUB SWAP1 REVERT JUMPDEST PUSH1 0x0 DUP2 DUP2 MSTORE PUSH1 0x5 PUSH1 0x20 MSTORE PUSH1 0x40 DUP1 DUP3 KECCAK256 DUP1 SLOAD PUSH32 0xFFFFFFFFFFFFFFFFFFFFFFFF0000000000000000000000000000000000000000 AND SWAP1 SSTORE MLOAD DUP3 SWAP2 PUSH32 0x7CC135E0CEBB02C3480AE5D74D377283180A2601F8F644EDF7987B009316C63A SWAP2 LOG2 PUSH1 0x40 DUP1 MLOAD DUP6 DUP2 MSTORE PUSH1 0x20 DUP2 ADD DUP6 SWAP1 MSTORE SWAP1 DUP2 ADD DUP4 SWAP1 MSTORE DUP6 SWAP1 PUSH32 0x539E5682D95ED725B9A92EF19AEFC24D6E1BC6AA39AB4F2AC96A3E48F1DD2E46 SWAP1 PUSH1 0x60 ADD PUSH1 0x40 MLOAD DUP1 SWAP2 SUB SWAP1 LOG2 POP PUSH1 0x8 SWAP3 SWAP1 SWAP3 SSTORE PUSH1 0x9 SSTORE PUSH1 0xA SSTORE POP JUMP JUMPDEST PUSH1 0x0 DUP1 PUSH2 0x347 PUSH1 0xB SLOAD ADDRESS PUSH4 0x3D5D3236 PUSH1 0xE0 SHL PUSH2 0x803 JUMP JUMPDEST SWAP1 POP PUSH2 0x41D PUSH1 0x40 MLOAD DUP1 PUSH1 0x40 ADD PUSH1 0x40 MSTORE DUP1 PUSH1 0x3 DUP2 MSTORE PUSH1 0x20 ADD PUSH32 0x6765740000000000000000000000000000000000000000000000000000000000 DUP2 MSTORE POP PUSH1 0xD DUP1 SLOAD PUSH2 0x38F SWAP1 PUSH2 0x1323 JUMP JUMPDEST DUP1 PUSH1 0x1F ADD PUSH1 0x20 DUP1 SWAP2 DIV MUL PUSH1 0x20 ADD PUSH1 0x40 MLOAD SWAP1 DUP2 ADD PUSH1 0x40 MSTORE DUP1 SWAP3 SWAP2 SWAP1 DUP2 DUP2 MSTORE PUSH1 0x20 ADD DUP3 DUP1 SLOAD PUSH2 0x3BB SWAP1 PUSH2 0x1323 JUMP JUMPDEST DUP1 ISZERO PUSH2 0x408 JUMPI DUP1 PUSH1 0x1F LT PUSH2 0x3DD JUMPI PUSH2 0x100 DUP1 DUP4 SLOAD DIV MUL DUP4 MSTORE SWAP2 PUSH1 0x20 ADD SWAP2 PUSH2 0x408 JUMP JUMPDEST DUP3 ADD SWAP2 SWAP1 PUSH1 0x0 MSTORE PUSH1 0x20 PUSH1 0x0 KECCAK256 SWAP1 JUMPDEST DUP2 SLOAD DUP2 MSTORE SWAP1 PUSH1 0x1 ADD SWAP1 PUSH1 0x20 ADD DUP1 DUP4 GT PUSH2 0x3EB JUMPI DUP3 SWAP1 SUB PUSH1 0x1F AND DUP3 ADD SWAP2 JUMPDEST POP POP POP POP POP DUP4 PUSH2 0x894 SWAP1 SWAP3 SWAP2 SWAP1 PUSH4 0xFFFFFFFF AND JUMP JUMPDEST PUSH2 0x463 PUSH1 0x40 MLOAD DUP1 PUSH1 0x40 ADD PUSH1 0x40 MSTORE DUP1 PUSH1 0x6 DUP2 MSTORE PUSH1 0x20 ADD PUSH32 0x6C65616775650000000000000000000000000000000000000000000000000000 DUP2 MSTORE POP PUSH1 0xE DUP1 SLOAD PUSH2 0x38F SWAP1 PUSH2 0x1323 JUMP JUMPDEST PUSH2 0x46F DUP2 PUSH1 0xC SLOAD PUSH2 0x8B7 JUMP JUMPDEST SWAP2 POP POP SWAP1 JUMP JUMPDEST PUSH1 0x7 SLOAD PUSH20 0xFFFFFFFFFFFFFFFFFFFFFFFFFFFFFFFFFFFFFFFF AND CALLER EQ PUSH2 0x4F6 JUMPI PUSH1 0x40 MLOAD PUSH32 0x8C379A000000000000000000000000000000000000000000000000000000000 DUP2 MSTORE PUSH1 0x20 PUSH1 0x4 DUP3 ADD MSTORE PUSH1 0x16 PUSH1 0x24 DUP3 ADD MSTORE PUSH32 0x4D7573742062652070726F706F736564206F776E657200000000000000000000 PUSH1 0x44 DUP3 ADD MSTORE PUSH1 0x64 ADD PUSH2 0x279 JUMP JUMPDEST PUSH1 0x6 DUP1 SLOAD PUSH32 0xFFFFFFFFFFFFFFFFFFFFFFFF0000000000000000000000000000000000000000 DUP1 DUP3 AND CALLER SWAP1 DUP2 OR SWAP1 SWAP4 SSTORE PUSH1 0x7 DUP1 SLOAD SWAP1 SWAP2 AND SWAP1 SSTORE PUSH1 0x40 MLOAD PUSH20 0xFFFFFFFFFFFFFFFFFFFFFFFFFFFFFFFFFFFFFFFF SWAP1 SWAP2 AND SWAP2 SWAP1 DUP3 SWAP1 PUSH32 0x8BE0079C531659141344CD1FD0A4F28419497F9722A3DAAFE3B4186F6B6457E0 SWAP1 PUSH1 0x0 SWAP1 LOG3 POP JUMP JUMPDEST PUSH2 0x57E PUSH2 0x8E5 JUMP JUMPDEST PUSH1 0x0 PUSH2 0x59F PUSH1 0x2 SLOAD PUSH20 0xFFFFFFFFFFFFFFFFFFFFFFFFFFFFFFFFFFFFFFFF AND SWAP1 JUMP JUMPDEST PUSH1 0x40 MLOAD PUSH32 0x70A0823100000000000000000000000000000000000000000000000000000000 DUP2 MSTORE ADDRESS PUSH1 0x4 DUP3 ADD MSTORE SWAP1 SWAP2 POP PUSH20 0xFFFFFFFFFFFFFFFFFFFFFFFFFFFFFFFFFFFFFFFF DUP3 AND SWAP1 PUSH4 0xA9059CBB SWAP1 CALLER SWAP1 DUP4 SWAP1 PUSH4 0x70A08231 SWAP1 PUSH1 0x24 ADD PUSH1 0x20 PUSH1 0x40 MLOAD DUP1 DUP4 SUB DUP2 DUP7 GAS STATICCALL ISZERO DUP1 ISZERO PUSH2 0x616 JUMPI RETURNDATASIZE PUSH1 0x0 DUP1 RETURNDATACOPY RETURNDATASIZE PUSH1 0x0 REVERT JUMPDEST POP POP POP POP PUSH1 0x40 MLOAD RETURNDATASIZE PUSH1 0x1F NOT PUSH1 0x1F DUP3 ADD AND DUP3 ADD DUP1 PUSH1 0x40 MSTORE POP DUP2 ADD SWAP1 PUSH2 0x63A SWAP2 SWAP1 PUSH2 0x1370 JUMP JUMPDEST PUSH1 0x40 MLOAD PUSH32 0xFFFFFFFF00000000000000000000000000000000000000000000000000000000 PUSH1 0xE0 DUP6 SWAP1 SHL AND DUP2 MSTORE PUSH20 0xFFFFFFFFFFFFFFFFFFFFFFFFFFFFFFFFFFFFFFFF SWAP1 SWAP3 AND PUSH1 0x4 DUP4 ADD MSTORE PUSH1 0x24 DUP3 ADD MSTORE PUSH1 0x44 ADD PUSH1 0x20 PUSH1 0x40 MLOAD DUP1 DUP4 SUB DUP2 PUSH1 0x0 DUP8 GAS CALL ISZERO DUP1 ISZERO PUSH2 0x6AA JUMPI RETURNDATASIZE PUSH1 0x0 DUP1 RETURNDATACOPY RETURNDATASIZE PUSH1 0x0 REVERT JUMPDEST POP POP POP POP PUSH1 0x40 MLOAD RETURNDATASIZE PUSH1 0x1F NOT PUSH1 0x1F DUP3 ADD AND DUP3 ADD DUP1 PUSH1 0x40 MSTORE POP DUP2 ADD SWAP1 PUSH2 0x6CE SWAP2 SWAP1 PUSH2 0x1389 JUMP JUMPDEST PUSH2 0x734 JUMPI PUSH1 0x40 MLOAD PUSH32 0x8C379A000000000000000000000000000000000000000000000000000000000 DUP2 MSTORE PUSH1 0x20 PUSH1 0x4 DUP3 ADD MSTORE PUSH1 0x12 PUSH1 0x24 DUP3 ADD MSTORE PUSH32 0x556E61626C6520746F207472616E736665720000000000000000000000000000 PUSH1 0x44 DUP3 ADD MSTORE PUSH1 0x64 ADD PUSH2 0x279 JUMP JUMPDEST POP JUMP JUMPDEST PUSH1 0xE DUP1 SLOAD PUSH2 0x744 SWAP1 PUSH2 0x1323 JUMP JUMPDEST DUP1 PUSH1 0x1F ADD PUSH1 0x20 DUP1 SWAP2 DIV MUL PUSH1 0x20 ADD PUSH1 0x40 MLOAD SWAP1 DUP2 ADD PUSH1 0x40 MSTORE DUP1 SWAP3 SWAP2 SWAP1 DUP2 DUP2 MSTORE PUSH1 0x20 ADD DUP3 DUP1 SLOAD PUSH2 0x770 SWAP1 PUSH2 0x1323 JUMP JUMPDEST DUP1 ISZERO PUSH2 0x7BD JUMPI DUP1 PUSH1 0x1F LT PUSH2 0x792 JUMPI PUSH2 0x100 DUP1 DUP4 SLOAD DIV MUL DUP4 MSTORE SWAP2 PUSH1 0x20 ADD SWAP2 PUSH2 0x7BD JUMP JUMPDEST DUP3 ADD SWAP2 SWAP1 PUSH1 0x0 MSTORE PUSH1 0x20 PUSH1 0x0 KECCAK256 SWAP1 JUMPDEST DUP2 SLOAD DUP2 MSTORE SWAP1 PUSH1 0x1 ADD SWAP1 PUSH1 0x20 ADD DUP1 DUP4 GT PUSH2 0x7A0 JUMPI DUP3 SWAP1 SUB PUSH1 0x1F AND DUP3 ADD SWAP2 JUMPDEST POP POP POP POP POP DUP2 JUMP JUMPDEST PUSH2 0x7CD PUSH2 0x8E5 JUMP JUMPDEST PUSH2 0x734 DUP2 PUSH2 0x968 JUMP JUMPDEST PUSH1 0x60 DUP3 DUP3 PUSH1 0x40 MLOAD PUSH1 0x20 ADD PUSH2 0x7EB SWAP3 SWAP2 SWAP1 PUSH2 0x13AB JUMP JUMPDEST PUSH1 0x40 MLOAD PUSH1 0x20 DUP2 DUP4 SUB SUB DUP2 MSTORE SWAP1 PUSH1 0x40 MSTORE SWAP1 POP JUMPDEST SWAP3 SWAP2 POP POP JUMP JUMPDEST PUSH2 0x841 PUSH1 0x40 DUP1 MLOAD PUSH1 0xA0 DUP2 ADD DUP3 MSTORE PUSH1 0x0 DUP1 DUP3 MSTORE PUSH1 0x20 DUP1 DUP4 ADD DUP3 SWAP1 MSTORE DUP3 DUP5 ADD DUP3 SWAP1 MSTORE PUSH1 0x60 DUP1 DUP5 ADD DUP4 SWAP1 MSTORE DUP5 MLOAD DUP1 DUP7 ADD SWAP1 SWAP6 MSTORE DUP5 MSTORE DUP4 ADD MSTORE SWAP1 PUSH1 0x80 DUP3 ADD MSTORE SWAP1 JUMP JUMPDEST PUSH2 0x87F PUSH1 0x40 DUP1 MLOAD PUSH1 0xA0 DUP2 ADD DUP3 MSTORE PUSH1 0x0 DUP1 DUP3 MSTORE PUSH1 0x20 DUP1 DUP4 ADD DUP3 SWAP1 MSTORE DUP3 DUP5 ADD DUP3 SWAP1 MSTORE PUSH1 0x60 DUP1 DUP5 ADD DUP4 SWAP1 MSTORE DUP5 MLOAD DUP1 DUP7 ADD SWAP1 SWAP6 MSTORE DUP5 MSTORE DUP4 ADD MSTORE SWAP1 PUSH1 0x80 DUP3 ADD MSTORE SWAP1 JUMP JUMPDEST PUSH2 0x88B DUP2 DUP7 DUP7 DUP7 PUSH2 0xA5E JUMP JUMPDEST SWAP6 SWAP5 POP POP POP POP POP JUMP JUMPDEST PUSH1 0x80 DUP4 ADD MLOAD PUSH2 0x8A3 SWAP1 DUP4 PUSH2 0xAFF JUMP JUMPDEST PUSH1 0x80 DUP4 ADD MLOAD PUSH2 0x8B2 SWAP1 DUP3 PUSH2 0xAFF JUMP JUMPDEST POP POP POP JUMP JUMPDEST PUSH1 0x3 SLOAD PUSH1 0x0 SWAP1 PUSH2 0x8DE SWAP1 PUSH20 0xFFFFFFFFFFFFFFFFFFFFFFFFFFFFFFFFFFFFFFFF AND DUP5 DUP5 PUSH2 0xB16 JUMP JUMPDEST SWAP4 SWAP3 POP POP POP JUMP JUMPDEST PUSH1 0x6 SLOAD PUSH20 0xFFFFFFFFFFFFFFFFFFFFFFFFFFFFFFFFFFFFFFFF AND CALLER EQ PUSH2 0x966 JUMPI PUSH1 0x40 MLOAD PUSH32 0x8C379A000000000000000000000000000000000000000000000000000000000 DUP2 MSTORE PUSH1 0x20 PUSH1 0x4 DUP3 ADD MSTORE PUSH1 0x16 PUSH1 0x24 DUP3 ADD MSTORE PUSH32 0x4F6E6C792063616C6C61626C65206279206F776E657200000000000000000000 PUSH1 0x44 DUP3 ADD MSTORE PUSH1 0x64 ADD PUSH2 0x279 JUMP JUMPDEST JUMP JUMPDEST CALLER PUSH20 0xFFFFFFFFFFFFFFFFFFFFFFFFFFFFFFFFFFFFFFFF DUP3 AND SUB PUSH2 0x9E7 JUMPI PUSH1 0x40 MLOAD PUSH32 0x8C379A000000000000000000000000000000000000000000000000000000000 DUP2 MSTORE PUSH1 0x20 PUSH1 0x4 DUP3 ADD MSTORE PUSH1 0x17 PUSH1 0x24 DUP3 ADD MSTORE PUSH32 0x43616E6E6F74207472616E7366657220746F2073656C66000000000000000000 PUSH1 0x44 DUP3 ADD MSTORE PUSH1 0x64 ADD PUSH2 0x279 JUMP JUMPDEST PUSH1 0x7 DUP1 SLOAD PUSH32 0xFFFFFFFFFFFFFFFFFFFFFFFF0000000000000000000000000000000000000000 AND PUSH20 0xFFFFFFFFFFFFFFFFFFFFFFFFFFFFFFFFFFFFFFFF DUP4 DUP2 AND SWAP2 DUP3 OR SWAP1 SWAP3 SSTORE PUSH1 0x6 SLOAD PUSH1 0x40 MLOAD SWAP2 SWAP3 AND SWAP1 PUSH32 0xED8889F560326EB138920D842192F0EB3DD22B4F139C87A2C57538E05BAE1278 SWAP1 PUSH1 0x0 SWAP1 LOG3 POP JUMP JUMPDEST PUSH2 0xA9C PUSH1 0x40 DUP1 MLOAD PUSH1 0xA0 DUP2 ADD DUP3 MSTORE PUSH1 0x0 DUP1 DUP3 MSTORE PUSH1 0x20 DUP1 DUP4 ADD DUP3 SWAP1 MSTORE DUP3 DUP5 ADD DUP3 SWAP1 MSTORE PUSH1 0x60 DUP1 DUP5 ADD DUP4 SWAP1 MSTORE DUP5 MLOAD DUP1 DUP7 ADD SWAP1 SWAP6 MSTORE DUP5 MSTORE DUP4 ADD MSTORE SWAP1 PUSH1 0x80 DUP3 ADD MSTORE SWAP1 JUMP JUMPDEST PUSH2 0xAAC DUP6 PUSH1 0x80 ADD MLOAD PUSH2 0x100 PUSH2 0xC0D JUMP JUMPDEST POP POP DUP3 DUP5 MSTORE PUSH20 0xFFFFFFFFFFFFFFFFFFFFFFFFFFFFFFFFFFFFFFFF DUP3 AND PUSH1 0x20 DUP6 ADD MSTORE PUSH32 0xFFFFFFFF00000000000000000000000000000000000000000000000000000000 DUP2 AND PUSH1 0x40 DUP6 ADD MSTORE DUP4 JUMPDEST SWAP5 SWAP4 POP POP POP POP JUMP JUMPDEST PUSH2 0xB0C DUP3 PUSH1 0x3 DUP4 MLOAD PUSH2 0xC72 JUMP JUMPDEST PUSH2 0x8B2 DUP3 DUP3 PUSH2 0xD87 JUMP JUMPDEST PUSH1 0x4 SLOAD PUSH1 0x0 SWAP1 PUSH2 0xB27 DUP2 PUSH1 0x1 PUSH2 0x1409 JUMP JUMPDEST PUSH1 0x4 SSTORE DUP4 MLOAD PUSH1 0x40 DUP1 DUP7 ADD MLOAD PUSH1 0x80 DUP8 ADD MLOAD MLOAD SWAP2 MLOAD PUSH1 0x0 SWAP4 PUSH32 0x4042994600000000000000000000000000000000000000000000000000000000 SWAP4 PUSH2 0xB78 SWAP4 DUP7 SWAP4 DUP5 SWAP4 SWAP3 ADDRESS SWAP3 SWAP2 DUP11 SWAP2 PUSH1 0x1 SWAP2 PUSH1 0x24 ADD PUSH2 0x1421 JUMP JUMPDEST PUSH1 0x40 DUP1 MLOAD PUSH32 0xFFFFFFFFFFFFFFFFFFFFFFFFFFFFFFFFFFFFFFFFFFFFFFFFFFFFFFFFFFFFFFE0 DUP2 DUP5 SUB ADD DUP2 MSTORE SWAP2 SWAP1 MSTORE PUSH1 0x20 DUP2 ADD DUP1 MLOAD PUSH28 0xFFFFFFFFFFFFFFFFFFFFFFFFFFFFFFFFFFFFFFFFFFFFFFFFFFFFFFFF AND PUSH32 0xFFFFFFFF00000000000000000000000000000000000000000000000000000000 SWAP1 SWAP4 AND SWAP3 SWAP1 SWAP3 OR SWAP1 SWAP2 MSTORE SWAP1 POP PUSH2 0xC03 DUP7 DUP4 DUP7 DUP5 PUSH2 0xDAE JUMP JUMPDEST SWAP7 SWAP6 POP POP POP POP POP POP JUMP JUMPDEST PUSH1 0x40 DUP1 MLOAD DUP1 DUP3 ADD SWAP1 SWAP2 MSTORE PUSH1 0x60 DUP2 MSTORE PUSH1 0x0 PUSH1 0x20 DUP3 ADD MSTORE PUSH2 0xC2D PUSH1 0x20 DUP4 PUSH2 0x14AA JUMP JUMPDEST ISZERO PUSH2 0xC55 JUMPI PUSH2 0xC3D PUSH1 0x20 DUP4 PUSH2 0x14AA JUMP JUMPDEST PUSH2 0xC48 SWAP1 PUSH1 0x20 PUSH2 0x14E5 JUMP JUMPDEST PUSH2 0xC52 SWAP1 DUP4 PUSH2 0x1409 JUMP JUMPDEST SWAP2 POP JUMPDEST POP PUSH1 0x20 DUP3 DUP2 ADD DUP3 SWAP1 MSTORE PUSH1 0x40 DUP1 MLOAD DUP1 DUP6 MSTORE PUSH1 0x0 DUP2 MSTORE SWAP1 SWAP3 ADD ADD SWAP1 MSTORE SWAP1 JUMP JUMPDEST PUSH1 0x17 DUP2 PUSH8 0xFFFFFFFFFFFFFFFF AND GT PUSH2 0xC9D JUMPI PUSH2 0xC97 DUP4 PUSH1 0xE0 PUSH1 0x5 DUP6 SWAP1 SHL AND DUP4 OR PUSH2 0xFBC JUMP JUMPDEST POP POP POP POP JUMP JUMPDEST PUSH1 0xFF DUP2 PUSH8 0xFFFFFFFFFFFFFFFF AND GT PUSH2 0xCDB JUMPI PUSH2 0xCC4 DUP4 PUSH1 0x18 PUSH2 0x1FE0 PUSH1 0x5 DUP7 SWAP1 SHL AND OR PUSH2 0xFBC JUMP JUMPDEST POP PUSH2 0xC97 DUP4 PUSH8 0xFFFFFFFFFFFFFFFF DUP4 AND PUSH1 0x1 PUSH2 0xFE1 JUMP JUMPDEST PUSH2 0xFFFF DUP2 PUSH8 0xFFFFFFFFFFFFFFFF AND GT PUSH2 0xD1A JUMPI PUSH2 0xD03 DUP4 PUSH1 0x19 PUSH2 0x1FE0 PUSH1 0x5 DUP7 SWAP1 SHL AND OR PUSH2 0xFBC JUMP JUMPDEST POP PUSH2 0xC97 DUP4 PUSH8 0xFFFFFFFFFFFFFFFF DUP4 AND PUSH1 0x2 PUSH2 0xFE1 JUMP JUMPDEST PUSH4 0xFFFFFFFF DUP2 PUSH8 0xFFFFFFFFFFFFFFFF AND GT PUSH2 0xD5B JUMPI PUSH2 0xD44 DUP4 PUSH1 0x1A PUSH2 0x1FE0 PUSH1 0x5 DUP7 SWAP1 SHL AND OR PUSH2 0xFBC JUMP JUMPDEST POP PUSH2 0xC97 DUP4 PUSH8 0xFFFFFFFFFFFFFFFF DUP4 AND PUSH1 0x4 PUSH2 0xFE1 JUMP JUMPDEST PUSH2 0xD70 DUP4 PUSH1 0x1B PUSH2 0x1FE0 PUSH1 0x5 DUP7 SWAP1 SHL AND OR PUSH2 0xFBC JUMP JUMPDEST POP PUSH2 0xC97 DUP4 PUSH8 0xFFFFFFFFFFFFFFFF DUP4 AND PUSH1 0x8 PUSH2 0xFE1 JUMP JUMPDEST PUSH1 0x40 DUP1 MLOAD DUP1 DUP3 ADD SWAP1 SWAP2 MSTORE PUSH1 0x60 DUP2 MSTORE PUSH1 0x0 PUSH1 0x20 DUP3 ADD MSTORE PUSH2 0x8DE DUP4 DUP5 PUSH1 0x0 ADD MLOAD MLOAD DUP5 DUP6 MLOAD PUSH2 0x1007 JUMP JUMPDEST PUSH1 0x40 MLOAD PUSH32 0xFFFFFFFFFFFFFFFFFFFFFFFFFFFFFFFFFFFFFFFF000000000000000000000000 ADDRESS PUSH1 0x60 SHL AND PUSH1 0x20 DUP3 ADD MSTORE PUSH1 0x34 DUP2 ADD DUP5 SWAP1 MSTORE PUSH1 0x0 SWAP1 PUSH1 0x54 ADD PUSH1 0x40 DUP1 MLOAD DUP1 DUP4 SUB PUSH32 0xFFFFFFFFFFFFFFFFFFFFFFFFFFFFFFFFFFFFFFFFFFFFFFFFFFFFFFFFFFFFFFE0 ADD DUP2 MSTORE DUP3 DUP3 MSTORE DUP1 MLOAD PUSH1 0x20 SWAP2 DUP3 ADD KECCAK256 PUSH1 0x0 DUP2 DUP2 MSTORE PUSH1 0x5 SWAP1 SWAP3 MSTORE SWAP2 DUP2 KECCAK256 DUP1 SLOAD PUSH32 0xFFFFFFFFFFFFFFFFFFFFFFFF0000000000000000000000000000000000000000 AND PUSH20 0xFFFFFFFFFFFFFFFFFFFFFFFFFFFFFFFFFFFFFFFF DUP11 AND OR SWAP1 SSTORE SWAP1 SWAP3 POP DUP3 SWAP2 PUSH32 0xB5E6E01E79F91267DC17B4E6314D5D4D03593D2CEEE0FBB452B750BD70EA5AF9 SWAP2 SWAP1 LOG2 PUSH1 0x2 SLOAD PUSH1 0x40 MLOAD PUSH32 0x4000AEA000000000000000000000000000000000000000000000000000000000 DUP2 MSTORE PUSH20 0xFFFFFFFFFFFFFFFFFFFFFFFFFFFFFFFFFFFFFFFF SWAP1 SWAP2 AND SWAP1 PUSH4 0x4000AEA0 SWAP1 PUSH2 0xEED SWAP1 DUP9 SWAP1 DUP8 SWAP1 DUP8 SWAP1 PUSH1 0x4 ADD PUSH2 0x14FC JUMP JUMPDEST PUSH1 0x20 PUSH1 0x40 MLOAD DUP1 DUP4 SUB DUP2 PUSH1 0x0 DUP8 GAS CALL ISZERO DUP1 ISZERO PUSH2 0xF0C JUMPI RETURNDATASIZE PUSH1 0x0 DUP1 RETURNDATACOPY RETURNDATASIZE PUSH1 0x0 REVERT JUMPDEST POP POP POP POP PUSH1 0x40 MLOAD RETURNDATASIZE PUSH1 0x1F NOT PUSH1 0x1F DUP3 ADD AND DUP3 ADD DUP1 PUSH1 0x40 MSTORE POP DUP2 ADD SWAP1 PUSH2 0xF30 SWAP2 SWAP1 PUSH2 0x1389 JUMP JUMPDEST PUSH2 0xAF7 JUMPI PUSH1 0x40 MLOAD PUSH32 0x8C379A000000000000000000000000000000000000000000000000000000000 DUP2 MSTORE PUSH1 0x20 PUSH1 0x4 DUP3 ADD MSTORE PUSH1 0x23 PUSH1 0x24 DUP3 ADD MSTORE PUSH32 0x756E61626C6520746F207472616E73666572416E6443616C6C20746F206F7261 PUSH1 0x44 DUP3 ADD MSTORE PUSH32 0x636C650000000000000000000000000000000000000000000000000000000000 PUSH1 0x64 DUP3 ADD MSTORE PUSH1 0x84 ADD PUSH2 0x279 JUMP JUMPDEST PUSH1 0x40 DUP1 MLOAD DUP1 DUP3 ADD SWAP1 SWAP2 MSTORE PUSH1 0x60 DUP2 MSTORE PUSH1 0x0 PUSH1 0x20 DUP3 ADD MSTORE PUSH2 0x8DE DUP4 DUP5 PUSH1 0x0 ADD MLOAD MLOAD DUP5 PUSH2 0x110F JUMP JUMPDEST PUSH1 0x40 DUP1 MLOAD DUP1 DUP3 ADD SWAP1 SWAP2 MSTORE PUSH1 0x60 DUP2 MSTORE PUSH1 0x0 PUSH1 0x20 DUP3 ADD MSTORE PUSH2 0xAF7 DUP5 DUP6 PUSH1 0x0 ADD MLOAD MLOAD DUP6 DUP6 PUSH2 0x116A JUMP JUMPDEST PUSH1 0x40 DUP1 MLOAD DUP1 DUP3 ADD SWAP1 SWAP2 MSTORE PUSH1 0x60 DUP2 MSTORE PUSH1 0x0 PUSH1 0x20 DUP3 ADD MSTORE DUP3 MLOAD DUP3 GT ISZERO PUSH2 0x102A JUMPI PUSH1 0x0 DUP1 REVERT JUMPDEST PUSH1 0x20 DUP6 ADD MLOAD PUSH2 0x1039 DUP4 DUP7 PUSH2 0x1409 JUMP JUMPDEST GT ISZERO PUSH2 0x106C JUMPI PUSH2 0x106C DUP6 PUSH2 0x105C DUP8 PUSH1 0x20 ADD MLOAD DUP8 DUP7 PUSH2 0x1057 SWAP2 SWAP1 PUSH2 0x1409 JUMP JUMPDEST PUSH2 0x11EB JUMP JUMPDEST PUSH2 0x1067 SWAP1 PUSH1 0x2 PUSH2 0x1531 JUMP JUMPDEST PUSH2 0x1202 JUMP JUMPDEST PUSH1 0x0 DUP1 DUP7 MLOAD DUP1 MLOAD DUP8 PUSH1 0x20 DUP4 ADD ADD SWAP4 POP DUP1 DUP9 DUP8 ADD GT ISZERO PUSH2 0x108B JUMPI DUP8 DUP7 ADD DUP3 MSTORE JUMPDEST POP POP POP PUSH1 0x20 DUP5 ADD JUMPDEST PUSH1 0x20 DUP5 LT PUSH2 0x10CB JUMPI DUP1 MLOAD DUP3 MSTORE PUSH2 0x10AA PUSH1 0x20 DUP4 PUSH2 0x1409 JUMP JUMPDEST SWAP2 POP PUSH2 0x10B7 PUSH1 0x20 DUP3 PUSH2 0x1409 JUMP JUMPDEST SWAP1 POP PUSH2 0x10C4 PUSH1 0x20 DUP6 PUSH2 0x14E5 JUMP JUMPDEST SWAP4 POP PUSH2 0x1093 JUMP JUMPDEST MLOAD DUP2 MLOAD PUSH32 0xFFFFFFFFFFFFFFFFFFFFFFFFFFFFFFFFFFFFFFFFFFFFFFFFFFFFFFFFFFFFFFFF PUSH1 0x20 DUP7 SWAP1 SUB PUSH2 0x100 EXP ADD SWAP1 DUP2 AND SWAP1 NOT SWAP2 SWAP1 SWAP2 AND OR SWAP1 MSTORE POP DUP4 SWAP5 SWAP4 POP POP POP POP JUMP JUMPDEST PUSH1 0x40 DUP1 MLOAD DUP1 DUP3 ADD SWAP1 SWAP2 MSTORE PUSH1 0x60 DUP2 MSTORE PUSH1 0x0 PUSH1 0x20 DUP3 ADD MSTORE DUP4 PUSH1 0x20 ADD MLOAD DUP4 LT PUSH2 0x1144 JUMPI PUSH2 0x1144 DUP5 DUP6 PUSH1 0x20 ADD MLOAD PUSH1 0x2 PUSH2 0x1067 SWAP2 SWAP1 PUSH2 0x1531 JUMP JUMPDEST DUP4 MLOAD DUP1 MLOAD PUSH1 0x20 DUP6 DUP4 ADD ADD DUP5 DUP2 MSTORE8 POP DUP1 DUP6 SUB PUSH2 0x1160 JUMPI PUSH1 0x1 DUP2 ADD DUP3 MSTORE JUMPDEST POP SWAP4 SWAP5 SWAP4 POP POP POP POP JUMP JUMPDEST PUSH1 0x40 DUP1 MLOAD DUP1 DUP3 ADD SWAP1 SWAP2 MSTORE PUSH1 0x60 DUP2 MSTORE PUSH1 0x0 PUSH1 0x20 DUP3 ADD MSTORE PUSH1 0x20 DUP6 ADD MLOAD PUSH2 0x118E DUP6 DUP5 PUSH2 0x1409 JUMP JUMPDEST GT ISZERO PUSH2 0x11A2 JUMPI PUSH2 0x11A2 DUP6 PUSH2 0x105C DUP7 DUP6 PUSH2 0x1409 JUMP JUMPDEST PUSH1 0x0 PUSH1 0x1 PUSH2 0x11B2 DUP5 PUSH2 0x100 PUSH2 0x168E JUMP JUMPDEST PUSH2 0x11BC SWAP2 SWAP1 PUSH2 0x14E5 JUMP JUMPDEST SWAP1 POP DUP6 MLOAD DUP4 DUP7 DUP3 ADD ADD DUP6 DUP4 NOT DUP3 MLOAD AND OR DUP2 MSTORE POP DUP1 MLOAD DUP5 DUP8 ADD GT ISZERO PUSH2 0x11E0 JUMPI DUP4 DUP7 ADD DUP2 MSTORE JUMPDEST POP SWAP5 SWAP6 SWAP5 POP POP POP POP POP JUMP JUMPDEST PUSH1 0x0 DUP2 DUP4 GT ISZERO PUSH2 0x11FC JUMPI POP DUP2 PUSH2 0x7FD JUMP JUMPDEST POP SWAP2 SWAP1 POP JUMP JUMPDEST DUP2 MLOAD PUSH2 0x120E DUP4 DUP4 PUSH2 0xC0D JUMP JUMPDEST POP PUSH2 0xC97 DUP4 DUP3 PUSH2 0xD87 JUMP JUMPDEST PUSH1 0x0 PUSH1 0x20 DUP3 DUP5 SUB SLT ISZERO PUSH2 0x122B JUMPI PUSH1 0x0 DUP1 REVERT JUMPDEST POP CALLDATALOAD SWAP2 SWAP1 POP JUMP JUMPDEST PUSH1 0x0 DUP1 PUSH1 0x0 DUP1 PUSH1 0x80 DUP6 DUP8 SUB SLT ISZERO PUSH2 0x1248 JUMPI PUSH1 0x0 DUP1 REVERT JUMPDEST POP POP DUP3 CALLDATALOAD SWAP5 PUSH1 0x20 DUP5 ADD CALLDATALOAD SWAP5 POP PUSH1 0x40 DUP5 ADD CALLDATALOAD SWAP4 PUSH1 0x60 ADD CALLDATALOAD SWAP3 POP SWAP1 POP JUMP JUMPDEST PUSH1 0x0 JUMPDEST DUP4 DUP2 LT ISZERO PUSH2 0x127F JUMPI DUP2 DUP2 ADD MLOAD DUP4 DUP3 ADD MSTORE PUSH1 0x20 ADD PUSH2 0x1267 JUMP JUMPDEST DUP4 DUP2 GT ISZERO PUSH2 0xC97 JUMPI POP POP PUSH1 0x0 SWAP2 ADD MSTORE JUMP JUMPDEST PUSH1 0x0 DUP2 MLOAD DUP1 DUP5 MSTORE PUSH2 0x12A8 DUP2 PUSH1 0x20 DUP7 ADD PUSH1 0x20 DUP7 ADD PUSH2 0x1264 JUMP JUMPDEST PUSH1 0x1F ADD PUSH32 0xFFFFFFFFFFFFFFFFFFFFFFFFFFFFFFFFFFFFFFFFFFFFFFFFFFFFFFFFFFFFFFE0 AND SWAP3 SWAP1 SWAP3 ADD PUSH1 0x20 ADD SWAP3 SWAP2 POP POP JUMP JUMPDEST PUSH1 0x20 DUP2 MSTORE PUSH1 0x0 PUSH2 0x8DE PUSH1 0x20 DUP4 ADD DUP5 PUSH2 0x1290 JUMP JUMPDEST PUSH1 0x0 PUSH1 0x20 DUP3 DUP5 SUB SLT ISZERO PUSH2 0x12FF JUMPI PUSH1 0x0 DUP1 REVERT JUMPDEST DUP2 CALLDATALOAD PUSH20 0xFFFFFFFFFFFFFFFFFFFFFFFFFFFFFFFFFFFFFFFF DUP2 AND DUP2 EQ PUSH2 0x8DE JUMPI PUSH1 0x0 DUP1 REVERT JUMPDEST PUSH1 0x1 DUP2 DUP2 SHR SWAP1 DUP3 AND DUP1 PUSH2 0x1337 JUMPI PUSH1 0x7F DUP3 AND SWAP2 POP JUMPDEST PUSH1 0x20 DUP3 LT DUP2 SUB PUSH2 0x11FC JUMPI PUSH32 0x4E487B7100000000000000000000000000000000000000000000000000000000 PUSH1 0x0 MSTORE PUSH1 0x22 PUSH1 0x4 MSTORE PUSH1 0x24 PUSH1 0x0 REVERT JUMPDEST PUSH1 0x0 PUSH1 0x20 DUP3 DUP5 SUB SLT ISZERO PUSH2 0x1382 JUMPI PUSH1 0x0 DUP1 REVERT JUMPDEST POP MLOAD SWAP2 SWAP1 POP JUMP JUMPDEST PUSH1 0x0 PUSH1 0x20 DUP3 DUP5 SUB SLT ISZERO PUSH2 0x139B JUMPI PUSH1 0x0 DUP1 REVERT JUMPDEST DUP2 MLOAD DUP1 ISZERO ISZERO DUP2 EQ PUSH2 0x8DE JUMPI PUSH1 0x0 DUP1 REVERT JUMPDEST PUSH1 0x0 DUP4 MLOAD PUSH2 0x13BD DUP2 DUP5 PUSH1 0x20 DUP9 ADD PUSH2 0x1264 JUMP JUMPDEST DUP4 MLOAD SWAP1 DUP4 ADD SWAP1 PUSH2 0x13D1 DUP2 DUP4 PUSH1 0x20 DUP9 ADD PUSH2 0x1264 JUMP JUMPDEST ADD SWAP5 SWAP4 POP POP POP POP JUMP JUMPDEST PUSH32 0x4E487B7100000000000000000000000000000000000000000000000000000000 PUSH1 0x0 MSTORE PUSH1 0x11 PUSH1 0x4 MSTORE PUSH1 0x24 PUSH1 0x0 REVERT JUMPDEST PUSH1 0x0 DUP3 NOT DUP3 GT ISZERO PUSH2 0x141C JUMPI PUSH2 0x141C PUSH2 0x13DA JUMP JUMPDEST POP ADD SWAP1 JUMP JUMPDEST PUSH1 0x0 PUSH2 0x100 PUSH20 0xFFFFFFFFFFFFFFFFFFFFFFFFFFFFFFFFFFFFFFFF DUP1 DUP13 AND DUP5 MSTORE DUP11 PUSH1 0x20 DUP6 ADD MSTORE DUP10 PUSH1 0x40 DUP6 ADD MSTORE DUP1 DUP10 AND PUSH1 0x60 DUP6 ADD MSTORE POP PUSH32 0xFFFFFFFF00000000000000000000000000000000000000000000000000000000 DUP8 AND PUSH1 0x80 DUP5 ADD MSTORE DUP6 PUSH1 0xA0 DUP5 ADD MSTORE DUP5 PUSH1 0xC0 DUP5 ADD MSTORE DUP1 PUSH1 0xE0 DUP5 ADD MSTORE PUSH2 0x149B DUP2 DUP5 ADD DUP6 PUSH2 0x1290 JUMP JUMPDEST SWAP12 SWAP11 POP POP POP POP POP POP POP POP POP POP POP JUMP JUMPDEST PUSH1 0x0 DUP3 PUSH2 0x14E0 JUMPI PUSH32 0x4E487B7100000000000000000000000000000000000000000000000000000000 PUSH1 0x0 MSTORE PUSH1 0x12 PUSH1 0x4 MSTORE PUSH1 0x24 PUSH1 0x0 REVERT JUMPDEST POP MOD SWAP1 JUMP JUMPDEST PUSH1 0x0 DUP3 DUP3 LT ISZERO PUSH2 0x14F7 JUMPI PUSH2 0x14F7 PUSH2 0x13DA JUMP JUMPDEST POP SUB SWAP1 JUMP JUMPDEST PUSH20 0xFFFFFFFFFFFFFFFFFFFFFFFFFFFFFFFFFFFFFFFF DUP5 AND DUP2 MSTORE DUP3 PUSH1 0x20 DUP3 ADD MSTORE PUSH1 0x60 PUSH1 0x40 DUP3 ADD MSTORE PUSH1 0x0 PUSH2 0x88B PUSH1 0x60 DUP4 ADD DUP5 PUSH2 0x1290 JUMP JUMPDEST PUSH1 0x0 DUP2 PUSH32 0xFFFFFFFFFFFFFFFFFFFFFFFFFFFFFFFFFFFFFFFFFFFFFFFFFFFFFFFFFFFFFFFF DIV DUP4 GT DUP3 ISZERO ISZERO AND ISZERO PUSH2 0x1569 JUMPI PUSH2 0x1569 PUSH2 0x13DA JUMP JUMPDEST POP MUL SWAP1 JUMP JUMPDEST PUSH1 0x1 DUP2 DUP2 JUMPDEST DUP1 DUP6 GT ISZERO PUSH2 0x15C7 JUMPI DUP2 PUSH32 0xFFFFFFFFFFFFFFFFFFFFFFFFFFFFFFFFFFFFFFFFFFFFFFFFFFFFFFFFFFFFFFFF DIV DUP3 GT ISZERO PUSH2 0x15AD JUMPI PUSH2 0x15AD PUSH2 0x13DA JUMP JUMPDEST DUP1 DUP6 AND ISZERO PUSH2 0x15BA JUMPI SWAP2 DUP2 MUL SWAP2 JUMPDEST SWAP4 DUP5 SHR SWAP4 SWAP1 DUP1 MUL SWAP1 PUSH2 0x1573 JUMP JUMPDEST POP SWAP3 POP SWAP3 SWAP1 POP JUMP JUMPDEST PUSH1 0x0 DUP3 PUSH2 0x15DE JUMPI POP PUSH1 0x1 PUSH2 0x7FD JUMP JUMPDEST DUP2 PUSH2 0x15EB JUMPI POP PUSH1 0x0 PUSH2 0x7FD JUMP JUMPDEST DUP2 PUSH1 0x1 DUP2 EQ PUSH2 0x1601 JUMPI PUSH1 0x2 DUP2 EQ PUSH2 0x160B JUMPI PUSH2 0x1627 JUMP JUMPDEST PUSH1 0x1 SWAP2 POP POP PUSH2 0x7FD JUMP JUMPDEST PUSH1 0xFF DUP5 GT ISZERO PUSH2 0x161C JUMPI PUSH2 0x161C PUSH2 0x13DA JUMP JUMPDEST POP POP PUSH1 0x1 DUP3 SHL PUSH2 0x7FD JUMP JUMPDEST POP PUSH1 0x20 DUP4 LT PUSH2 0x133 DUP4 LT AND PUSH1 0x4E DUP5 LT PUSH1 0xB DUP5 LT AND OR ISZERO PUSH2 0x164A JUMPI POP DUP2 DUP2 EXP PUSH2 0x7FD JUMP JUMPDEST PUSH2 0x1654 DUP4 DUP4 PUSH2 0x156E JUMP JUMPDEST DUP1 PUSH32 0xFFFFFFFFFFFFFFFFFFFFFFFFFFFFFFFFFFFFFFFFFFFFFFFFFFFFFFFFFFFFFFFF DIV DUP3 GT ISZERO PUSH2 0x1686 JUMPI PUSH2 0x1686 PUSH2 0x13DA JUMP JUMPDEST MUL SWAP4 SWAP3 POP POP POP JUMP JUMPDEST PUSH1 0x0 PUSH2 0x8DE DUP4 DUP4 PUSH2 0x15CF JUMP INVALID LOG2 PUSH5 0x6970667358 0x22 SLT KECCAK256 0xC4 SAR PUSH27 0x9C8E60FCD2A003E10437C40BE175D618C8F9E0658B8009FDFC105A 0x2B 0x2F PUSH5 0x736F6C6343 STOP ADDMOD 0xD STOP CALLER PUSH9 0x7474703A2F2F617069 0x2E PUSH7 0x6F6F7462616C6C 0x2D PUSH5 0x6174612E6F PUSH19 0x672F76342F636F6D7065746974696F6E732F00 "
				},
				"gasEstimates": {
					"creation": {
						"codeDepositCost": "1168000",
						"executionCost": "infinite",
						"totalCost": "infinite"
					},
					"external": {
						"acceptOwnership()": "52314",
						"fulfillOracleRequest(bytes32,uint256,uint256,uint256)": "96290",
						"league()": "infinite",
						"owner()": "2356",
						"requestWinner()": "infinite",
						"setWinner(uint256)": "22358",
						"setWinner2(uint256)": "22379",
						"setWinner3(uint256)": "22357",
						"transferOwnership(address)": "30404",
						"winner()": "2328",
						"winner2()": "2308",
						"winner3()": "2372",
						"withdrawLink()": "infinite"
					}
				},
				"methodIdentifiers": {
					"acceptOwnership()": "79ba5097",
					"fulfillOracleRequest(bytes32,uint256,uint256,uint256)": "3d5d3236",
					"league()": "d9b29297",
					"owner()": "8da5cb5b",
					"requestWinner()": "78a7d3af",
					"setWinner(uint256)": "0df71602",
					"setWinner2(uint256)": "a8d54261",
					"setWinner3(uint256)": "9ae2c3c6",
					"transferOwnership(address)": "f2fde38b",
					"winner()": "dfbf53ae",
					"winner2()": "01a3694e",
					"winner3()": "f81b5c5b",
					"withdrawLink()": "8dc654a2"
				}
			},
			"storageLayout": {
				"storage": [
					{
						"astId": 319,
						"contract": "contracts/ChainlinkConsumer.sol:APIConsumer",
						"label": "s_ens",
						"offset": 0,
						"slot": "0",
						"type": "t_contract(ENSInterface)1156"
					},
					{
						"astId": 321,
						"contract": "contracts/ChainlinkConsumer.sol:APIConsumer",
						"label": "s_ensNode",
						"offset": 0,
						"slot": "1",
						"type": "t_bytes32"
					},
					{
						"astId": 324,
						"contract": "contracts/ChainlinkConsumer.sol:APIConsumer",
						"label": "s_link",
						"offset": 0,
						"slot": "2",
						"type": "t_contract(LinkTokenInterface)1251"
					},
					{
						"astId": 327,
						"contract": "contracts/ChainlinkConsumer.sol:APIConsumer",
						"label": "s_oracle",
						"offset": 0,
						"slot": "3",
						"type": "t_contract(OperatorInterface)1331"
					},
					{
						"astId": 330,
						"contract": "contracts/ChainlinkConsumer.sol:APIConsumer",
						"label": "s_requestCount",
						"offset": 0,
						"slot": "4",
						"type": "t_uint256"
					},
					{
						"astId": 334,
						"contract": "contracts/ChainlinkConsumer.sol:APIConsumer",
						"label": "s_pendingRequests",
						"offset": 0,
						"slot": "5",
						"type": "t_mapping(t_bytes32,t_address)"
					},
					{
						"astId": 889,
						"contract": "contracts/ChainlinkConsumer.sol:APIConsumer",
						"label": "s_owner",
						"offset": 0,
						"slot": "6",
						"type": "t_address"
					},
					{
						"astId": 891,
						"contract": "contracts/ChainlinkConsumer.sol:APIConsumer",
						"label": "s_pendingOwner",
						"offset": 0,
						"slot": "7",
						"type": "t_address"
					},
					{
						"astId": 2410,
						"contract": "contracts/ChainlinkConsumer.sol:APIConsumer",
						"label": "winner",
						"offset": 0,
						"slot": "8",
						"type": "t_uint256"
					},
					{
						"astId": 2412,
						"contract": "contracts/ChainlinkConsumer.sol:APIConsumer",
						"label": "winner2",
						"offset": 0,
						"slot": "9",
						"type": "t_uint256"
					},
					{
						"astId": 2414,
						"contract": "contracts/ChainlinkConsumer.sol:APIConsumer",
						"label": "winner3",
						"offset": 0,
						"slot": "10",
						"type": "t_uint256"
					},
					{
						"astId": 2416,
						"contract": "contracts/ChainlinkConsumer.sol:APIConsumer",
						"label": "jobId",
						"offset": 0,
						"slot": "11",
						"type": "t_bytes32"
					},
					{
						"astId": 2418,
						"contract": "contracts/ChainlinkConsumer.sol:APIConsumer",
						"label": "fee",
						"offset": 0,
						"slot": "12",
						"type": "t_uint256"
					},
					{
						"astId": 2420,
						"contract": "contracts/ChainlinkConsumer.sol:APIConsumer",
						"label": "URL",
						"offset": 0,
						"slot": "13",
						"type": "t_string_storage"
					},
					{
						"astId": 2422,
						"contract": "contracts/ChainlinkConsumer.sol:APIConsumer",
						"label": "league",
						"offset": 0,
						"slot": "14",
						"type": "t_string_storage"
					},
					{
						"astId": 2531,
						"contract": "contracts/ChainlinkConsumer.sol:APIConsumer",
						"label": "NFTHolder",
						"offset": 0,
						"slot": "15",
						"type": "t_mapping(t_uint256,t_address)"
					}
				],
				"types": {
					"t_address": {
						"encoding": "inplace",
						"label": "address",
						"numberOfBytes": "20"
					},
					"t_bytes32": {
						"encoding": "inplace",
						"label": "bytes32",
						"numberOfBytes": "32"
					},
					"t_contract(ENSInterface)1156": {
						"encoding": "inplace",
						"label": "contract ENSInterface",
						"numberOfBytes": "20"
					},
					"t_contract(LinkTokenInterface)1251": {
						"encoding": "inplace",
						"label": "contract LinkTokenInterface",
						"numberOfBytes": "20"
					},
					"t_contract(OperatorInterface)1331": {
						"encoding": "inplace",
						"label": "contract OperatorInterface",
						"numberOfBytes": "20"
					},
					"t_mapping(t_bytes32,t_address)": {
						"encoding": "mapping",
						"key": "t_bytes32",
						"label": "mapping(bytes32 => address)",
						"numberOfBytes": "32",
						"value": "t_address"
					},
					"t_mapping(t_uint256,t_address)": {
						"encoding": "mapping",
						"key": "t_uint256",
						"label": "mapping(uint256 => address)",
						"numberOfBytes": "32",
						"value": "t_address"
					},
					"t_string_storage": {
						"encoding": "bytes",
						"label": "string",
						"numberOfBytes": "32"
					},
					"t_uint256": {
						"encoding": "inplace",
						"label": "uint256",
						"numberOfBytes": "32"
					}
				}
			},
			"userdoc": {
				"kind": "user",
				"methods": {
					"acceptOwnership()": {
						"notice": "Allows an ownership transfer to be completed by the recipient."
					},
					"fulfillOracleRequest(bytes32,uint256,uint256,uint256)": {
						"notice": "Receive the response in the form of uint256"
					},
					"owner()": {
						"notice": "Get the current owner"
					},
					"requestWinner()": {
						"notice": "Create a Chainlink request to retrieve API response, then find the target data."
					},
					"transferOwnership(address)": {
						"notice": "Allows an owner to begin transferring ownership to a new address, pending."
					},
					"withdrawLink()": {
						"notice": "Allow withdraw of Link tokens from the contract"
					}
				},
				"version": 1
			}
		}
	}
}