{
	"contracts/ChainlinkConsumer.sol": {
		"APIConsumer": {
			"abi": [
				{
					"inputs": [
						{
							"internalType": "string",
							"name": "_league",
							"type": "string"
						}
					],
					"stateMutability": "nonpayable",
					"type": "constructor"
				},
				{
					"anonymous": false,
					"inputs": [
						{
							"indexed": true,
							"internalType": "bytes32",
							"name": "id",
							"type": "bytes32"
						}
					],
					"name": "ChainlinkCancelled",
					"type": "event"
				},
				{
					"anonymous": false,
					"inputs": [
						{
							"indexed": true,
							"internalType": "bytes32",
							"name": "id",
							"type": "bytes32"
						}
					],
					"name": "ChainlinkFulfilled",
					"type": "event"
				},
				{
					"anonymous": false,
					"inputs": [
						{
							"indexed": true,
							"internalType": "bytes32",
							"name": "id",
							"type": "bytes32"
						}
					],
					"name": "ChainlinkRequested",
					"type": "event"
				},
				{
					"anonymous": false,
					"inputs": [
						{
							"indexed": true,
							"internalType": "address",
							"name": "from",
							"type": "address"
						},
						{
							"indexed": true,
							"internalType": "address",
							"name": "to",
							"type": "address"
						}
					],
					"name": "OwnershipTransferRequested",
					"type": "event"
				},
				{
					"anonymous": false,
					"inputs": [
						{
							"indexed": true,
							"internalType": "address",
							"name": "from",
							"type": "address"
						},
						{
							"indexed": true,
							"internalType": "address",
							"name": "to",
							"type": "address"
						}
					],
					"name": "OwnershipTransferred",
					"type": "event"
				},
				{
					"anonymous": false,
					"inputs": [
						{
							"indexed": true,
							"internalType": "bytes32",
							"name": "requestId",
							"type": "bytes32"
						},
						{
							"indexed": false,
							"internalType": "uint256",
							"name": "winner",
							"type": "uint256"
						},
						{
							"indexed": false,
							"internalType": "uint256",
							"name": "winner2",
							"type": "uint256"
						},
						{
							"indexed": false,
							"internalType": "uint256",
							"name": "winner3",
							"type": "uint256"
						}
					],
					"name": "RequestWinner",
					"type": "event"
				},
				{
					"inputs": [],
					"name": "acceptOwnership",
					"outputs": [],
					"stateMutability": "nonpayable",
					"type": "function"
				},
				{
					"inputs": [
						{
							"internalType": "bytes32",
							"name": "_requestId",
							"type": "bytes32"
						},
						{
							"internalType": "uint256",
							"name": "_winner",
							"type": "uint256"
						},
						{
							"internalType": "uint256",
							"name": "_winner2",
							"type": "uint256"
						},
						{
							"internalType": "uint256",
							"name": "_winner3",
							"type": "uint256"
						}
					],
					"name": "fulfillOracleRequest2",
					"outputs": [],
					"stateMutability": "nonpayable",
					"type": "function"
				},
				{
					"inputs": [],
					"name": "league",
					"outputs": [
						{
							"internalType": "string",
							"name": "",
							"type": "string"
						}
					],
					"stateMutability": "view",
					"type": "function"
				},
				{
					"inputs": [],
					"name": "owner",
					"outputs": [
						{
							"internalType": "address",
							"name": "",
							"type": "address"
						}
					],
					"stateMutability": "view",
					"type": "function"
				},
				{
					"inputs": [],
					"name": "requestWinner",
					"outputs": [
						{
							"internalType": "bytes32",
							"name": "requestId",
							"type": "bytes32"
						}
					],
					"stateMutability": "nonpayable",
					"type": "function"
				},
				{
					"inputs": [
						{
							"internalType": "uint256",
							"name": "id",
							"type": "uint256"
						}
					],
					"name": "setWinner",
					"outputs": [],
					"stateMutability": "nonpayable",
					"type": "function"
				},
				{
					"inputs": [
						{
							"internalType": "address",
							"name": "to",
							"type": "address"
						}
					],
					"name": "transferOwnership",
					"outputs": [],
					"stateMutability": "nonpayable",
					"type": "function"
				},
				{
					"inputs": [],
					"name": "winner",
					"outputs": [
						{
							"internalType": "uint256",
							"name": "",
							"type": "uint256"
						}
					],
					"stateMutability": "view",
					"type": "function"
				},
				{
					"inputs": [],
					"name": "winner2",
					"outputs": [
						{
							"internalType": "uint256",
							"name": "",
							"type": "uint256"
						}
					],
					"stateMutability": "view",
					"type": "function"
				},
				{
					"inputs": [],
					"name": "winner3",
					"outputs": [
						{
							"internalType": "uint256",
							"name": "",
							"type": "uint256"
						}
					],
					"stateMutability": "view",
					"type": "function"
				},
				{
					"inputs": [],
					"name": "withdrawLink",
					"outputs": [],
					"stateMutability": "nonpayable",
					"type": "function"
				}
			],
			"devdoc": {
				"kind": "dev",
				"methods": {},
				"version": 1
			},
			"evm": {
				"assembly": "    /* \"contracts/ChainlinkConsumer.sol\":362:2877  contract APIConsumer is ChainlinkClient, ConfirmedOwner {... */\n  mstore(0x40, 0x80)\n    /* \"@chainlink/contracts/src/v0.8/ChainlinkClient.sol\":1291:1292  1 */\n  0x01\n    /* \"@chainlink/contracts/src/v0.8/ChainlinkClient.sol\":1258:1292  uint256 private s_requestCount = 1 */\n  0x04\n  sstore\n    /* \"contracts/ChainlinkConsumer.sol\":805:1395  constructor(string memory _league) ConfirmedOwner(msg.sender) {... */\n  callvalue\n  dup1\n  iszero\n  tag_1\n  jumpi\n  0x00\n  dup1\n  revert\ntag_1:\n  pop\n  mload(0x40)\n  sub(codesize, bytecodeSize)\n  dup1\n  bytecodeSize\n  dup4\n  codecopy\n  dup2\n  add\n  0x40\n  dup2\n  swap1\n  mstore\n  tag_2\n  swap2\n  tag_3\n  jump\t// in\ntag_2:\n    /* \"contracts/ChainlinkConsumer.sol\":855:865  msg.sender */\n  caller\n  dup1\n    /* \"@chainlink/contracts/src/v0.8/ConfirmedOwner.sol\":345:346  0 */\n  0x00\n    /* \"contracts/ChainlinkConsumer.sol\":855:865  msg.sender */\n  dup2\n    /* \"@chainlink/contracts/src/v0.8/ConfirmedOwnerWithProposal.sol\":544:603  require(newOwner != address(0), \"Cannot set owner to zero\") */\n  tag_8\n  jumpi\n  mload(0x40)\n  shl(0xe5, 0x461bcd)\n  dup2\n  mstore\n    /* \"#utility.yul\":1505:1507   */\n  0x20\n    /* \"@chainlink/contracts/src/v0.8/ConfirmedOwnerWithProposal.sol\":544:603  require(newOwner != address(0), \"Cannot set owner to zero\") */\n  0x04\n  dup3\n  add\n    /* \"#utility.yul\":1487:1508   */\n  mstore\n    /* \"#utility.yul\":1544:1546   */\n  0x18\n    /* \"#utility.yul\":1524:1542   */\n  0x24\n  dup3\n  add\n    /* \"#utility.yul\":1517:1547   */\n  mstore\n    /* \"#utility.yul\":1583:1609   */\n  0x43616e6e6f7420736574206f776e657220746f207a65726f0000000000000000\n    /* \"#utility.yul\":1563:1581   */\n  0x44\n  dup3\n  add\n    /* \"#utility.yul\":1556:1610   */\n  mstore\n    /* \"#utility.yul\":1627:1645   */\n  0x64\n  add\n    /* \"@chainlink/contracts/src/v0.8/ConfirmedOwnerWithProposal.sol\":544:603  require(newOwner != address(0), \"Cannot set owner to zero\") */\ntag_9:\n  mload(0x40)\n  dup1\n  swap2\n  sub\n  swap1\n  revert\ntag_8:\n    /* \"@chainlink/contracts/src/v0.8/ConfirmedOwnerWithProposal.sol\":610:617  s_owner */\n  0x06\n    /* \"@chainlink/contracts/src/v0.8/ConfirmedOwnerWithProposal.sol\":610:628  s_owner = newOwner */\n  dup1\n  sload\n  not(sub(shl(0xa0, 0x01), 0x01))\n  and\n  sub(shl(0xa0, 0x01), 0x01)\n  dup5\n  dup2\n  and\n  swap2\n  swap1\n  swap2\n  or\n  swap1\n  swap2\n  sstore\n    /* \"@chainlink/contracts/src/v0.8/ConfirmedOwnerWithProposal.sol\":638:664  pendingOwner != address(0) */\n  dup2\n  and\n  iszero\n    /* \"@chainlink/contracts/src/v0.8/ConfirmedOwnerWithProposal.sol\":634:713  if (pendingOwner != address(0)) {... */\n  tag_12\n  jumpi\n    /* \"@chainlink/contracts/src/v0.8/ConfirmedOwnerWithProposal.sol\":674:706  _transferOwnership(pendingOwner) */\n  tag_12\n    /* \"@chainlink/contracts/src/v0.8/ConfirmedOwnerWithProposal.sol\":693:705  pendingOwner */\n  dup2\n    /* \"@chainlink/contracts/src/v0.8/ConfirmedOwnerWithProposal.sol\":674:692  _transferOwnership */\n  tag_13\n    /* \"@chainlink/contracts/src/v0.8/ConfirmedOwnerWithProposal.sol\":674:706  _transferOwnership(pendingOwner) */\n  jump\t// in\ntag_12:\n    /* \"@chainlink/contracts/src/v0.8/ConfirmedOwnerWithProposal.sol\":486:717  constructor(address newOwner, address pendingOwner) {... */\n  pop\n  pop\n    /* \"@chainlink/contracts/src/v0.8/ConfirmedOwner.sol\":270:351  constructor(address newOwner) ConfirmedOwnerWithProposal(newOwner, address(0)) {} */\n  pop\n    /* \"contracts/ChainlinkConsumer.sol\":878:899  string memory baseURL */\n  0x00\n    /* \"contracts/ChainlinkConsumer.sol\":878:949  string memory baseURL = \"http://api.football-data.org/v4/competitions/\" */\n  mload(0x40)\n  dup1\n  0x60\n  add\n  0x40\n  mstore\n  dup1\n  0x2d\n  dup2\n  mstore\n  0x20\n  add\n  data_6fc87d337cfc4c898418b7cabed453d3744888e14c12ece71e04efd1e2f026fb\n  0x2d\n  swap2\n  codecopy\n    /* \"contracts/ChainlinkConsumer.sol\":960:997  string memory endpoint = \"/standings\" */\n  0x40\n  dup1\n  mload\n  dup1\n  dup3\n  add\n  swap1\n  swap2\n  mstore\n  0x0a\n  dup2\n  mstore\n  shl(0xb0, 0x2f7374616e64696e6773)\n  0x20\n  dup3\n  add\n  mstore\n    /* \"contracts/ChainlinkConsumer.sol\":878:949  string memory baseURL = \"http://api.football-data.org/v4/competitions/\" */\n  swap1\n  swap2\n  pop\n    /* \"contracts/ChainlinkConsumer.sol\":1009:1015  league */\n  0x0e\n    /* \"contracts/ChainlinkConsumer.sol\":1009:1025  league = _league */\n  tag_16\n    /* \"contracts/ChainlinkConsumer.sol\":1018:1025  _league */\n  dup5\n    /* \"contracts/ChainlinkConsumer.sol\":1009:1015  league */\n  dup3\n    /* \"contracts/ChainlinkConsumer.sol\":1009:1025  league = _league */\n  tag_17\n  jump\t// in\ntag_16:\n  pop\n    /* \"contracts/ChainlinkConsumer.sol\":1042:1081  baseURL.concat(league).concat(endpoint) */\n  tag_18\n    /* \"contracts/ChainlinkConsumer.sol\":1072:1080  endpoint */\n  dup2\n    /* \"contracts/ChainlinkConsumer.sol\":1042:1064  baseURL.concat(league) */\n  tag_19\n    /* \"contracts/ChainlinkConsumer.sol\":1057:1063  league */\n  0x0e\n    /* \"contracts/ChainlinkConsumer.sol\":1042:1064  baseURL.concat(league) */\n  dup1\n  sload\n  tag_20\n  swap1\n  tag_21\n  jump\t// in\ntag_20:\n  dup1\n  0x1f\n  add\n  0x20\n  dup1\n  swap2\n  div\n  mul\n  0x20\n  add\n  mload(0x40)\n  swap1\n  dup2\n  add\n  0x40\n  mstore\n  dup1\n  swap3\n  swap2\n  swap1\n  dup2\n  dup2\n  mstore\n  0x20\n  add\n  dup3\n  dup1\n  sload\n  tag_22\n  swap1\n  tag_21\n  jump\t// in\ntag_22:\n  dup1\n  iszero\n  tag_23\n  jumpi\n  dup1\n  0x1f\n  lt\n  tag_24\n  jumpi\n  0x0100\n  dup1\n  dup4\n  sload\n  div\n  mul\n  dup4\n  mstore\n  swap2\n  0x20\n  add\n  swap2\n  jump(tag_23)\ntag_24:\n  dup3\n  add\n  swap2\n  swap1\n  0x00\n  mstore\n  keccak256(0x00, 0x20)\n  swap1\ntag_25:\n  dup2\n  sload\n  dup2\n  mstore\n  swap1\n  0x01\n  add\n  swap1\n  0x20\n  add\n  dup1\n  dup4\n  gt\n  tag_25\n  jumpi\n  dup3\n  swap1\n  sub\n  0x1f\n  and\n  dup3\n  add\n  swap2\ntag_23:\n  pop\n    /* \"contracts/ChainlinkConsumer.sol\":1042:1049  baseURL */\n  dup10\n  swap5\n    /* \"contracts/ChainlinkConsumer.sol\":1042:1064  baseURL.concat(league) */\n  swap4\n  pop\n  pop\n    /* \"contracts/ChainlinkConsumer.sol\":1042:1056  baseURL.concat */\n  tag_26\n    /* \"contracts/ChainlinkConsumer.sol\":1042:1064  baseURL.concat(league) */\n  swap2\n  pop\n  pop\n  jump\t// in\ntag_19:\n    /* \"contracts/ChainlinkConsumer.sol\":1042:1071  baseURL.concat(league).concat */\n  swap1\n  tag_26\n    /* \"contracts/ChainlinkConsumer.sol\":1042:1081  baseURL.concat(league).concat(endpoint) */\n  jump\t// in\ntag_18:\n    /* \"contracts/ChainlinkConsumer.sol\":1036:1039  URL */\n  0x0d\n  swap1\n    /* \"contracts/ChainlinkConsumer.sol\":1036:1081  URL = baseURL.concat(league).concat(endpoint) */\n  tag_27\n  swap1\n    /* \"contracts/ChainlinkConsumer.sol\":1036:1039  URL */\n  dup3\n    /* \"contracts/ChainlinkConsumer.sol\":1036:1081  URL = baseURL.concat(league).concat(endpoint) */\n  tag_17\n  jump\t// in\ntag_27:\n  pop\n    /* \"@chainlink/contracts/src/v0.8/ChainlinkClient.sol\":8688:8694  s_link */\n  0x02\n    /* \"@chainlink/contracts/src/v0.8/ChainlinkClient.sol\":8688:8728  s_link = LinkTokenInterface(linkAddress) */\n  dup1\n  sload\n  not(sub(shl(0xa0, 0x01), 0x01))\n  and\n    /* \"contracts/ChainlinkConsumer.sol\":1110:1152  0x326C977E6efc84E512bB9C30f76E30c160eD06FB */\n  0x326c977e6efc84e512bb9c30f76e30c160ed06fb\n    /* \"@chainlink/contracts/src/v0.8/ChainlinkClient.sol\":8688:8728  s_link = LinkTokenInterface(linkAddress) */\n  or\n  swap1\n  sstore\n    /* \"@chainlink/contracts/src/v0.8/ChainlinkClient.sol\":8457:8465  s_oracle */\n  0x03\n    /* \"@chainlink/contracts/src/v0.8/ChainlinkClient.sol\":8457:8500  s_oracle = OperatorInterface(oracleAddress) */\n  dup1\n  sload\n  not(sub(shl(0xa0, 0x01), 0x01))\n  and\n    /* \"contracts/ChainlinkConsumer.sol\":1183:1225  0x7ecFBD6CB2D3927Aa68B5F2f477737172F11190a */\n  0x7ecfbd6cb2d3927aa68b5f2f477737172f11190a\n    /* \"@chainlink/contracts/src/v0.8/ChainlinkClient.sol\":8457:8500  s_oracle = OperatorInterface(oracleAddress) */\n  or\n  swap1\n  sstore\n    /* \"contracts/ChainlinkConsumer.sol\":1284:1326  jobId = \"cd3a5f8dcac245e9a3ff58d59b445595\" */\n  0x6364336135663864636163323435653961336666353864353962343435353935\n    /* \"contracts/ChainlinkConsumer.sol\":1284:1289  jobId */\n  0x0b\n    /* \"contracts/ChainlinkConsumer.sol\":1284:1326  jobId = \"cd3a5f8dcac245e9a3ff58d59b445595\" */\n  sstore\n    /* \"contracts/ChainlinkConsumer.sol\":1369:1371  10 */\n  0x0a\n    /* \"contracts/ChainlinkConsumer.sol\":1344:1365  1 * LINK_DIVISIBILITY */\n  tag_32\n    /* \"@chainlink/contracts/src/v0.8/ChainlinkClient.sol\":675:681  10**18 */\n  0x0de0b6b3a7640000\n    /* \"contracts/ChainlinkConsumer.sol\":1344:1345  1 */\n  0x01\n    /* \"contracts/ChainlinkConsumer.sol\":1344:1365  1 * LINK_DIVISIBILITY */\n  tag_33\n  jump\t// in\ntag_32:\n    /* \"contracts/ChainlinkConsumer.sol\":1343:1371  (1 * LINK_DIVISIBILITY) / 10 */\n  tag_34\n  swap2\n  swap1\n  tag_35\n  jump\t// in\ntag_34:\n    /* \"contracts/ChainlinkConsumer.sol\":1337:1340  fee */\n  0x0c\n    /* \"contracts/ChainlinkConsumer.sol\":1337:1371  fee = (1 * LINK_DIVISIBILITY) / 10 */\n  sstore\n  pop\n    /* \"contracts/ChainlinkConsumer.sol\":362:2877  contract APIConsumer is ChainlinkClient, ConfirmedOwner {... */\n  tag_51\n  swap2\n  pop\n  pop\n  jump\n    /* \"@chainlink/contracts/src/v0.8/ConfirmedOwnerWithProposal.sol\":1497:1685  function _transferOwnership(address to) private {... */\ntag_13:\n    /* \"@chainlink/contracts/src/v0.8/ConfirmedOwnerWithProposal.sol\":1565:1575  msg.sender */\n  caller\n  sub(shl(0xa0, 0x01), 0x01)\n    /* \"@chainlink/contracts/src/v0.8/ConfirmedOwnerWithProposal.sol\":1559:1575  to != msg.sender */\n  dup3\n  and\n  sub\n    /* \"@chainlink/contracts/src/v0.8/ConfirmedOwnerWithProposal.sol\":1551:1603  require(to != msg.sender, \"Cannot transfer to self\") */\n  tag_38\n  jumpi\n  mload(0x40)\n  shl(0xe5, 0x461bcd)\n  dup2\n  mstore\n    /* \"#utility.yul\":4939:4941   */\n  0x20\n    /* \"@chainlink/contracts/src/v0.8/ConfirmedOwnerWithProposal.sol\":1551:1603  require(to != msg.sender, \"Cannot transfer to self\") */\n  0x04\n  dup3\n  add\n    /* \"#utility.yul\":4921:4942   */\n  mstore\n    /* \"#utility.yul\":4978:4980   */\n  0x17\n    /* \"#utility.yul\":4958:4976   */\n  0x24\n  dup3\n  add\n    /* \"#utility.yul\":4951:4981   */\n  mstore\n    /* \"#utility.yul\":5017:5042   */\n  0x43616e6e6f74207472616e7366657220746f2073656c66000000000000000000\n    /* \"#utility.yul\":4997:5015   */\n  0x44\n  dup3\n  add\n    /* \"#utility.yul\":4990:5043   */\n  mstore\n    /* \"#utility.yul\":5060:5078   */\n  0x64\n  add\n    /* \"@chainlink/contracts/src/v0.8/ConfirmedOwnerWithProposal.sol\":1551:1603  require(to != msg.sender, \"Cannot transfer to self\") */\n  tag_9\n    /* \"#utility.yul\":4737:5084   */\n  jump\n    /* \"@chainlink/contracts/src/v0.8/ConfirmedOwnerWithProposal.sol\":1551:1603  require(to != msg.sender, \"Cannot transfer to self\") */\ntag_38:\n    /* \"@chainlink/contracts/src/v0.8/ConfirmedOwnerWithProposal.sol\":1610:1624  s_pendingOwner */\n  0x07\n    /* \"@chainlink/contracts/src/v0.8/ConfirmedOwnerWithProposal.sol\":1610:1629  s_pendingOwner = to */\n  dup1\n  sload\n  not(sub(shl(0xa0, 0x01), 0x01))\n  and\n  sub(shl(0xa0, 0x01), 0x01)\n  dup4\n  dup2\n  and\n  swap2\n  dup3\n  or\n  swap1\n  swap3\n  sstore\n    /* \"@chainlink/contracts/src/v0.8/ConfirmedOwnerWithProposal.sol\":1668:1675  s_owner */\n  sload(0x06)\n    /* \"@chainlink/contracts/src/v0.8/ConfirmedOwnerWithProposal.sol\":1641:1680  OwnershipTransferRequested(s_owner, to) */\n  mload(0x40)\n    /* \"@chainlink/contracts/src/v0.8/ConfirmedOwnerWithProposal.sol\":1610:1629  s_pendingOwner = to */\n  swap2\n  swap3\n    /* \"@chainlink/contracts/src/v0.8/ConfirmedOwnerWithProposal.sol\":1668:1675  s_owner */\n  and\n  swap1\n    /* \"@chainlink/contracts/src/v0.8/ConfirmedOwnerWithProposal.sol\":1641:1680  OwnershipTransferRequested(s_owner, to) */\n  0xed8889f560326eb138920d842192f0eb3dd22b4f139c87a2c57538e05bae1278\n  swap1\n  0x00\n  swap1\n  log3\n    /* \"@chainlink/contracts/src/v0.8/ConfirmedOwnerWithProposal.sol\":1497:1685  function _transferOwnership(address to) private {... */\n  pop\n  jump\t// out\n    /* \"contracts/ChainlinkConsumer.sol\":211:355  function concat(string memory a, string memory b) internal pure returns (string memory) {... */\ntag_26:\n    /* \"contracts/ChainlinkConsumer.sol\":284:297  string memory */\n  0x60\n    /* \"contracts/ChainlinkConsumer.sol\":341:342  a */\n  dup3\n    /* \"contracts/ChainlinkConsumer.sol\":344:345  b */\n  dup3\n    /* \"contracts/ChainlinkConsumer.sol\":324:346  abi.encodePacked(a, b) */\n  add(0x20, mload(0x40))\n  tag_42\n  swap3\n  swap2\n  swap1\n  tag_43\n  jump\t// in\ntag_42:\n  mload(0x40)\n  0x20\n  dup2\n  dup4\n  sub\n  sub\n  dup2\n  mstore\n  swap1\n  0x40\n  mstore\n    /* \"contracts/ChainlinkConsumer.sol\":310:347  return string(abi.encodePacked(a, b)) */\n  swap1\n  pop\n    /* \"contracts/ChainlinkConsumer.sol\":211:355  function concat(string memory a, string memory b) internal pure returns (string memory) {... */\ntag_41:\n  swap3\n  swap2\n  pop\n  pop\n  jump\t// out\n    /* \"#utility.yul\":14:141   */\ntag_46:\n    /* \"#utility.yul\":75:85   */\n  0x4e487b71\n    /* \"#utility.yul\":70:73   */\n  0xe0\n    /* \"#utility.yul\":66:86   */\n  shl\n    /* \"#utility.yul\":63:64   */\n  0x00\n    /* \"#utility.yul\":56:87   */\n  mstore\n    /* \"#utility.yul\":106:110   */\n  0x41\n    /* \"#utility.yul\":103:104   */\n  0x04\n    /* \"#utility.yul\":96:111   */\n  mstore\n    /* \"#utility.yul\":130:134   */\n  0x24\n    /* \"#utility.yul\":127:128   */\n  0x00\n    /* \"#utility.yul\":120:135   */\n  revert\n    /* \"#utility.yul\":146:396   */\ntag_47:\n    /* \"#utility.yul\":231:232   */\n  0x00\n    /* \"#utility.yul\":241:354   */\ntag_54:\n    /* \"#utility.yul\":255:261   */\n  dup4\n    /* \"#utility.yul\":252:253   */\n  dup2\n    /* \"#utility.yul\":249:262   */\n  lt\n    /* \"#utility.yul\":241:354   */\n  iszero\n  tag_56\n  jumpi\n    /* \"#utility.yul\":331:342   */\n  dup2\n  dup2\n  add\n    /* \"#utility.yul\":325:343   */\n  mload\n    /* \"#utility.yul\":312:323   */\n  dup4\n  dup3\n  add\n    /* \"#utility.yul\":305:344   */\n  mstore\n    /* \"#utility.yul\":277:279   */\n  0x20\n    /* \"#utility.yul\":270:280   */\n  add\n    /* \"#utility.yul\":241:354   */\n  jump(tag_54)\ntag_56:\n  pop\n  pop\n    /* \"#utility.yul\":388:389   */\n  0x00\n    /* \"#utility.yul\":370:386   */\n  swap2\n  add\n    /* \"#utility.yul\":363:390   */\n  mstore\n    /* \"#utility.yul\":146:396   */\n  jump\t// out\n    /* \"#utility.yul\":401:1298   */\ntag_3:\n    /* \"#utility.yul\":481:487   */\n  0x00\n    /* \"#utility.yul\":534:536   */\n  0x20\n    /* \"#utility.yul\":522:531   */\n  dup3\n    /* \"#utility.yul\":513:520   */\n  dup5\n    /* \"#utility.yul\":509:532   */\n  sub\n    /* \"#utility.yul\":505:537   */\n  slt\n    /* \"#utility.yul\":502:554   */\n  iszero\n  tag_58\n  jumpi\n    /* \"#utility.yul\":550:551   */\n  0x00\n    /* \"#utility.yul\":547:548   */\n  dup1\n    /* \"#utility.yul\":540:552   */\n  revert\n    /* \"#utility.yul\":502:554   */\ntag_58:\n    /* \"#utility.yul\":577:593   */\n  dup2\n  mload\n  sub(shl(0x40, 0x01), 0x01)\n    /* \"#utility.yul\":642:656   */\n  dup1\n  dup3\n  gt\n    /* \"#utility.yul\":639:673   */\n  iszero\n  tag_59\n  jumpi\n    /* \"#utility.yul\":669:670   */\n  0x00\n    /* \"#utility.yul\":666:667   */\n  dup1\n    /* \"#utility.yul\":659:671   */\n  revert\n    /* \"#utility.yul\":639:673   */\ntag_59:\n    /* \"#utility.yul\":707:713   */\n  dup2\n    /* \"#utility.yul\":696:705   */\n  dup5\n    /* \"#utility.yul\":692:714   */\n  add\n    /* \"#utility.yul\":682:714   */\n  swap2\n  pop\n    /* \"#utility.yul\":752:759   */\n  dup5\n    /* \"#utility.yul\":745:749   */\n  0x1f\n    /* \"#utility.yul\":741:743   */\n  dup4\n    /* \"#utility.yul\":737:750   */\n  add\n    /* \"#utility.yul\":733:760   */\n  slt\n    /* \"#utility.yul\":723:778   */\n  tag_60\n  jumpi\n    /* \"#utility.yul\":774:775   */\n  0x00\n    /* \"#utility.yul\":771:772   */\n  dup1\n    /* \"#utility.yul\":764:776   */\n  revert\n    /* \"#utility.yul\":723:778   */\ntag_60:\n    /* \"#utility.yul\":803:805   */\n  dup2\n    /* \"#utility.yul\":797:806   */\n  mload\n    /* \"#utility.yul\":825:827   */\n  dup2\n    /* \"#utility.yul\":821:823   */\n  dup2\n    /* \"#utility.yul\":818:828   */\n  gt\n    /* \"#utility.yul\":815:851   */\n  iszero\n  tag_62\n  jumpi\n    /* \"#utility.yul\":831:849   */\n  tag_62\n  tag_46\n  jump\t// in\ntag_62:\n    /* \"#utility.yul\":906:908   */\n  0x40\n    /* \"#utility.yul\":900:909   */\n  mload\n    /* \"#utility.yul\":874:876   */\n  0x1f\n    /* \"#utility.yul\":960:973   */\n  dup3\n  add\n  not(0x1f)\n    /* \"#utility.yul\":956:978   */\n  swap1\n  dup2\n  and\n    /* \"#utility.yul\":980:982   */\n  0x3f\n    /* \"#utility.yul\":952:983   */\n  add\n    /* \"#utility.yul\":948:988   */\n  and\n    /* \"#utility.yul\":936:989   */\n  dup2\n  add\n  swap1\n    /* \"#utility.yul\":1004:1022   */\n  dup4\n  dup3\n  gt\n    /* \"#utility.yul\":1024:1046   */\n  dup2\n  dup4\n  lt\n    /* \"#utility.yul\":1001:1047   */\n  or\n    /* \"#utility.yul\":998:1070   */\n  iszero\n  tag_64\n  jumpi\n    /* \"#utility.yul\":1050:1068   */\n  tag_64\n  tag_46\n  jump\t// in\ntag_64:\n    /* \"#utility.yul\":1090:1100   */\n  dup2\n    /* \"#utility.yul\":1086:1088   */\n  0x40\n    /* \"#utility.yul\":1079:1101   */\n  mstore\n    /* \"#utility.yul\":1125:1127   */\n  dup3\n    /* \"#utility.yul\":1117:1123   */\n  dup2\n    /* \"#utility.yul\":1110:1128   */\n  mstore\n    /* \"#utility.yul\":1165:1172   */\n  dup8\n    /* \"#utility.yul\":1160:1162   */\n  0x20\n    /* \"#utility.yul\":1155:1157   */\n  dup5\n    /* \"#utility.yul\":1151:1153   */\n  dup8\n    /* \"#utility.yul\":1147:1158   */\n  add\n    /* \"#utility.yul\":1143:1163   */\n  add\n    /* \"#utility.yul\":1140:1173   */\n  gt\n    /* \"#utility.yul\":1137:1190   */\n  iszero\n  tag_65\n  jumpi\n    /* \"#utility.yul\":1186:1187   */\n  0x00\n    /* \"#utility.yul\":1183:1184   */\n  dup1\n    /* \"#utility.yul\":1176:1188   */\n  revert\n    /* \"#utility.yul\":1137:1190   */\ntag_65:\n    /* \"#utility.yul\":1199:1267   */\n  tag_66\n    /* \"#utility.yul\":1264:1266   */\n  dup4\n    /* \"#utility.yul\":1259:1261   */\n  0x20\n    /* \"#utility.yul\":1251:1257   */\n  dup4\n    /* \"#utility.yul\":1247:1262   */\n  add\n    /* \"#utility.yul\":1242:1244   */\n  0x20\n    /* \"#utility.yul\":1238:1240   */\n  dup9\n    /* \"#utility.yul\":1234:1245   */\n  add\n    /* \"#utility.yul\":1199:1267   */\n  tag_47\n  jump\t// in\ntag_66:\n    /* \"#utility.yul\":1286:1292   */\n  swap8\n    /* \"#utility.yul\":401:1298   */\n  swap7\n  pop\n  pop\n  pop\n  pop\n  pop\n  pop\n  pop\n  jump\t// out\n    /* \"#utility.yul\":1656:2036   */\ntag_21:\n    /* \"#utility.yul\":1735:1736   */\n  0x01\n    /* \"#utility.yul\":1731:1743   */\n  dup2\n  dup2\n  shr\n  swap1\n    /* \"#utility.yul\":1778:1790   */\n  dup3\n  and\n  dup1\n    /* \"#utility.yul\":1799:1860   */\n  tag_69\n  jumpi\n    /* \"#utility.yul\":1853:1857   */\n  0x7f\n    /* \"#utility.yul\":1845:1851   */\n  dup3\n    /* \"#utility.yul\":1841:1858   */\n  and\n    /* \"#utility.yul\":1831:1858   */\n  swap2\n  pop\n    /* \"#utility.yul\":1799:1860   */\ntag_69:\n    /* \"#utility.yul\":1906:1908   */\n  0x20\n    /* \"#utility.yul\":1898:1904   */\n  dup3\n    /* \"#utility.yul\":1895:1909   */\n  lt\n    /* \"#utility.yul\":1875:1893   */\n  dup2\n    /* \"#utility.yul\":1872:1910   */\n  sub\n    /* \"#utility.yul\":1869:2030   */\n  tag_70\n  jumpi\n    /* \"#utility.yul\":1952:1962   */\n  0x4e487b71\n    /* \"#utility.yul\":1947:1950   */\n  0xe0\n    /* \"#utility.yul\":1943:1963   */\n  shl\n    /* \"#utility.yul\":1940:1941   */\n  0x00\n    /* \"#utility.yul\":1933:1964   */\n  mstore\n    /* \"#utility.yul\":1987:1991   */\n  0x22\n    /* \"#utility.yul\":1984:1985   */\n  0x04\n    /* \"#utility.yul\":1977:1992   */\n  mstore\n    /* \"#utility.yul\":2015:2019   */\n  0x24\n    /* \"#utility.yul\":2012:2013   */\n  0x00\n    /* \"#utility.yul\":2005:2020   */\n  revert\n    /* \"#utility.yul\":1869:2030   */\ntag_70:\n  pop\n    /* \"#utility.yul\":1656:2036   */\n  swap2\n  swap1\n  pop\n  jump\t// out\n    /* \"#utility.yul\":2167:2712   */\ntag_49:\n    /* \"#utility.yul\":2269:2271   */\n  0x1f\n    /* \"#utility.yul\":2264:2267   */\n  dup3\n    /* \"#utility.yul\":2261:2272   */\n  gt\n    /* \"#utility.yul\":2258:2706   */\n  iszero\n  tag_73\n  jumpi\n    /* \"#utility.yul\":2305:2306   */\n  0x00\n    /* \"#utility.yul\":2330:2335   */\n  dup2\n    /* \"#utility.yul\":2326:2328   */\n  dup2\n    /* \"#utility.yul\":2319:2336   */\n  mstore\n    /* \"#utility.yul\":2375:2379   */\n  0x20\n    /* \"#utility.yul\":2371:2373   */\n  dup2\n    /* \"#utility.yul\":2361:2380   */\n  keccak256\n    /* \"#utility.yul\":2445:2447   */\n  0x1f\n    /* \"#utility.yul\":2433:2443   */\n  dup6\n    /* \"#utility.yul\":2429:2448   */\n  add\n    /* \"#utility.yul\":2426:2427   */\n  0x05\n    /* \"#utility.yul\":2422:2449   */\n  shr\n    /* \"#utility.yul\":2416:2420   */\n  dup2\n    /* \"#utility.yul\":2412:2450   */\n  add\n    /* \"#utility.yul\":2481:2485   */\n  0x20\n    /* \"#utility.yul\":2469:2479   */\n  dup7\n    /* \"#utility.yul\":2466:2486   */\n  lt\n    /* \"#utility.yul\":2463:2510   */\n  iszero\n  tag_74\n  jumpi\n  pop\n    /* \"#utility.yul\":2504:2508   */\n  dup1\n    /* \"#utility.yul\":2463:2510   */\ntag_74:\n    /* \"#utility.yul\":2559:2561   */\n  0x1f\n    /* \"#utility.yul\":2554:2557   */\n  dup6\n    /* \"#utility.yul\":2550:2562   */\n  add\n    /* \"#utility.yul\":2547:2548   */\n  0x05\n    /* \"#utility.yul\":2543:2563   */\n  shr\n    /* \"#utility.yul\":2537:2541   */\n  dup3\n    /* \"#utility.yul\":2533:2564   */\n  add\n    /* \"#utility.yul\":2523:2564   */\n  swap2\n  pop\n    /* \"#utility.yul\":2614:2696   */\ntag_75:\n    /* \"#utility.yul\":2632:2634   */\n  dup2\n    /* \"#utility.yul\":2625:2630   */\n  dup2\n    /* \"#utility.yul\":2622:2635   */\n  lt\n    /* \"#utility.yul\":2614:2696   */\n  iszero\n  tag_77\n  jumpi\n    /* \"#utility.yul\":2677:2694   */\n  dup3\n  dup2\n  sstore\n    /* \"#utility.yul\":2658:2659   */\n  0x01\n    /* \"#utility.yul\":2647:2660   */\n  add\n    /* \"#utility.yul\":2614:2696   */\n  jump(tag_75)\ntag_77:\n    /* \"#utility.yul\":2618:2621   */\n  pop\n  pop\n  pop\n    /* \"#utility.yul\":2258:2706   */\ntag_73:\n    /* \"#utility.yul\":2167:2712   */\n  pop\n  pop\n  pop\n  jump\t// out\n    /* \"#utility.yul\":2888:4240   */\ntag_17:\n    /* \"#utility.yul\":3008:3018   */\n  dup2\n  mload\n  sub(shl(0x40, 0x01), 0x01)\n    /* \"#utility.yul\":3030:3060   */\n  dup2\n  gt\n    /* \"#utility.yul\":3027:3083   */\n  iszero\n  tag_81\n  jumpi\n    /* \"#utility.yul\":3063:3081   */\n  tag_81\n  tag_46\n  jump\t// in\ntag_81:\n    /* \"#utility.yul\":3092:3189   */\n  tag_82\n    /* \"#utility.yul\":3182:3188   */\n  dup2\n    /* \"#utility.yul\":3142:3180   */\n  tag_83\n    /* \"#utility.yul\":3174:3178   */\n  dup5\n    /* \"#utility.yul\":3168:3179   */\n  sload\n    /* \"#utility.yul\":3142:3180   */\n  tag_21\n  jump\t// in\ntag_83:\n    /* \"#utility.yul\":3136:3140   */\n  dup5\n    /* \"#utility.yul\":3092:3189   */\n  tag_49\n  jump\t// in\ntag_82:\n    /* \"#utility.yul\":3244:3248   */\n  0x20\n  dup1\n    /* \"#utility.yul\":3308:3310   */\n  0x1f\n    /* \"#utility.yul\":3297:3311   */\n  dup4\n  gt\n    /* \"#utility.yul\":3325:3326   */\n  0x01\n    /* \"#utility.yul\":3320:3983   */\n  dup2\n  eq\n  tag_85\n  jumpi\n    /* \"#utility.yul\":4027:4028   */\n  0x00\n    /* \"#utility.yul\":4044:4050   */\n  dup5\n    /* \"#utility.yul\":4041:4130   */\n  iszero\n  tag_86\n  jumpi\n  pop\n    /* \"#utility.yul\":4096:4115   */\n  dup6\n  dup4\n  add\n    /* \"#utility.yul\":4090:4116   */\n  mload\n    /* \"#utility.yul\":4041:4130   */\ntag_86:\n  not(0x00)\n    /* \"#utility.yul\":2845:2846   */\n  0x03\n    /* \"#utility.yul\":2841:2852   */\n  dup7\n  swap1\n  shl\n    /* \"#utility.yul\":2837:2861   */\n  shr\n    /* \"#utility.yul\":2833:2862   */\n  not\n    /* \"#utility.yul\":2823:2863   */\n  and\n    /* \"#utility.yul\":2869:2870   */\n  0x01\n    /* \"#utility.yul\":2865:2876   */\n  dup6\n  swap1\n  shl\n    /* \"#utility.yul\":2820:2877   */\n  or\n    /* \"#utility.yul\":4143:4224   */\n  dup6\n  sstore\n    /* \"#utility.yul\":3290:4234   */\n  jump(tag_77)\n    /* \"#utility.yul\":3320:3983   */\ntag_85:\n    /* \"#utility.yul\":2114:2115   */\n  0x00\n    /* \"#utility.yul\":2107:2121   */\n  dup6\n  dup2\n  mstore\n    /* \"#utility.yul\":2151:2155   */\n  0x20\n    /* \"#utility.yul\":2138:2156   */\n  dup2\n  keccak256\n  not(0x1f)\n    /* \"#utility.yul\":3356:3376   */\n  dup7\n  and\n  swap2\n    /* \"#utility.yul\":3474:3710   */\ntag_89:\n    /* \"#utility.yul\":3488:3495   */\n  dup3\n    /* \"#utility.yul\":3485:3486   */\n  dup2\n    /* \"#utility.yul\":3482:3496   */\n  lt\n    /* \"#utility.yul\":3474:3710   */\n  iszero\n  tag_91\n  jumpi\n    /* \"#utility.yul\":3577:3596   */\n  dup9\n  dup7\n  add\n    /* \"#utility.yul\":3571:3597   */\n  mload\n    /* \"#utility.yul\":3556:3598   */\n  dup3\n  sstore\n    /* \"#utility.yul\":3669:3696   */\n  swap5\n  dup5\n  add\n  swap5\n    /* \"#utility.yul\":3637:3638   */\n  0x01\n    /* \"#utility.yul\":3625:3639   */\n  swap1\n  swap2\n  add\n  swap1\n    /* \"#utility.yul\":3504:3523   */\n  dup5\n  add\n    /* \"#utility.yul\":3474:3710   */\n  jump(tag_89)\ntag_91:\n    /* \"#utility.yul\":3478:3481   */\n  pop\n    /* \"#utility.yul\":3738:3744   */\n  dup6\n    /* \"#utility.yul\":3729:3736   */\n  dup3\n    /* \"#utility.yul\":3726:3745   */\n  lt\n    /* \"#utility.yul\":3723:3924   */\n  iszero\n  tag_92\n  jumpi\n    /* \"#utility.yul\":3799:3818   */\n  dup8\n  dup6\n  add\n    /* \"#utility.yul\":3793:3819   */\n  mload\n  not(0x00)\n    /* \"#utility.yul\":3882:3883   */\n  0x03\n    /* \"#utility.yul\":3878:3892   */\n  dup9\n  swap1\n  shl\n    /* \"#utility.yul\":3894:3897   */\n  0xf8\n    /* \"#utility.yul\":3874:3898   */\n  and\n    /* \"#utility.yul\":3870:3907   */\n  shr\n    /* \"#utility.yul\":3866:3908   */\n  not\n    /* \"#utility.yul\":3851:3909   */\n  and\n    /* \"#utility.yul\":3836:3910   */\n  dup2\n  sstore\n    /* \"#utility.yul\":3723:3924   */\ntag_92:\n  pop\n  pop\n  pop\n  pop\n  pop\n    /* \"#utility.yul\":3970:3971   */\n  0x01\n    /* \"#utility.yul\":3954:3968   */\n  swap1\n  dup2\n  shl\n    /* \"#utility.yul\":3950:3972   */\n  add\n    /* \"#utility.yul\":3937:3973   */\n  swap1\n  sstore\n  pop\n    /* \"#utility.yul\":2888:4240   */\n  jump\t// out\n    /* \"#utility.yul\":4245:4510   */\ntag_33:\n    /* \"#utility.yul\":4318:4327   */\n  dup1\n  dup3\n  mul\n    /* \"#utility.yul\":4349:4358   */\n  dup2\n  iszero\n    /* \"#utility.yul\":4366:4381   */\n  dup3\n  dup3\n  div\n    /* \"#utility.yul\":4360:4382   */\n  dup5\n  eq\n    /* \"#utility.yul\":4346:4383   */\n  or\n    /* \"#utility.yul\":4336:4504   */\n  tag_41\n  jumpi\n    /* \"#utility.yul\":4426:4436   */\n  0x4e487b71\n    /* \"#utility.yul\":4421:4424   */\n  0xe0\n    /* \"#utility.yul\":4417:4437   */\n  shl\n    /* \"#utility.yul\":4414:4415   */\n  0x00\n    /* \"#utility.yul\":4407:4438   */\n  mstore\n    /* \"#utility.yul\":4461:4465   */\n  0x11\n    /* \"#utility.yul\":4458:4459   */\n  0x04\n    /* \"#utility.yul\":4451:4466   */\n  mstore\n    /* \"#utility.yul\":4489:4493   */\n  0x24\n    /* \"#utility.yul\":4486:4487   */\n  0x00\n    /* \"#utility.yul\":4479:4494   */\n  revert\n    /* \"#utility.yul\":4515:4732   */\ntag_35:\n    /* \"#utility.yul\":4555:4556   */\n  0x00\n    /* \"#utility.yul\":4581:4582   */\n  dup3\n    /* \"#utility.yul\":4571:4703   */\n  tag_96\n  jumpi\n    /* \"#utility.yul\":4625:4635   */\n  0x4e487b71\n    /* \"#utility.yul\":4620:4623   */\n  0xe0\n    /* \"#utility.yul\":4616:4636   */\n  shl\n    /* \"#utility.yul\":4613:4614   */\n  0x00\n    /* \"#utility.yul\":4606:4637   */\n  mstore\n    /* \"#utility.yul\":4660:4664   */\n  0x12\n    /* \"#utility.yul\":4657:4658   */\n  0x04\n    /* \"#utility.yul\":4650:4665   */\n  mstore\n    /* \"#utility.yul\":4688:4692   */\n  0x24\n    /* \"#utility.yul\":4685:4686   */\n  0x00\n    /* \"#utility.yul\":4678:4693   */\n  revert\n    /* \"#utility.yul\":4571:4703   */\ntag_96:\n  pop\n    /* \"#utility.yul\":4717:4726   */\n  div\n  swap1\n    /* \"#utility.yul\":4515:4732   */\n  jump\t// out\n    /* \"#utility.yul\":5089:5585   */\ntag_43:\n    /* \"#utility.yul\":5268:5271   */\n  0x00\n    /* \"#utility.yul\":5306:5312   */\n  dup4\n    /* \"#utility.yul\":5300:5313   */\n  mload\n    /* \"#utility.yul\":5322:5388   */\n  tag_99\n    /* \"#utility.yul\":5381:5387   */\n  dup2\n    /* \"#utility.yul\":5376:5379   */\n  dup5\n    /* \"#utility.yul\":5369:5373   */\n  0x20\n    /* \"#utility.yul\":5361:5367   */\n  dup9\n    /* \"#utility.yul\":5357:5374   */\n  add\n    /* \"#utility.yul\":5322:5388   */\n  tag_47\n  jump\t// in\ntag_99:\n    /* \"#utility.yul\":5451:5464   */\n  dup4\n  mload\n    /* \"#utility.yul\":5410:5426   */\n  swap1\n  dup4\n  add\n  swap1\n    /* \"#utility.yul\":5473:5543   */\n  tag_100\n    /* \"#utility.yul\":5451:5464   */\n  dup2\n    /* \"#utility.yul\":5410:5426   */\n  dup4\n    /* \"#utility.yul\":5520:5524   */\n  0x20\n    /* \"#utility.yul\":5508:5525   */\n  dup9\n  add\n    /* \"#utility.yul\":5473:5543   */\n  tag_47\n  jump\t// in\ntag_100:\n    /* \"#utility.yul\":5559:5579   */\n  add\n  swap5\n    /* \"#utility.yul\":5089:5585   */\n  swap4\n  pop\n  pop\n  pop\n  pop\n  jump\t// out\ntag_51:\n    /* \"contracts/ChainlinkConsumer.sol\":362:2877  contract APIConsumer is ChainlinkClient, ConfirmedOwner {... */\n  dataSize(sub_0)\n  dup1\n  dataOffset(sub_0)\n  0x00\n  codecopy\n  0x00\n  return\nstop\ndata_6fc87d337cfc4c898418b7cabed453d3744888e14c12ece71e04efd1e2f026fb 687474703a2f2f6170692e666f6f7462616c6c2d646174612e6f72672f76342f636f6d7065746974696f6e732f\n\nsub_0: assembly {\n        /* \"contracts/ChainlinkConsumer.sol\":362:2877  contract APIConsumer is ChainlinkClient, ConfirmedOwner {... */\n      mstore(0x40, 0x80)\n      callvalue\n      dup1\n      iszero\n      tag_1\n      jumpi\n      0x00\n      dup1\n      revert\n    tag_1:\n      pop\n      jumpi(tag_2, lt(calldatasize, 0x04))\n      shr(0xe0, calldataload(0x00))\n      dup1\n      0x8dc654a2\n      gt\n      tag_14\n      jumpi\n      dup1\n      0x8dc654a2\n      eq\n      tag_8\n      jumpi\n      dup1\n      0xd9b29297\n      eq\n      tag_9\n      jumpi\n      dup1\n      0xdfbf53ae\n      eq\n      tag_10\n      jumpi\n      dup1\n      0xe9c63222\n      eq\n      tag_11\n      jumpi\n      dup1\n      0xf2fde38b\n      eq\n      tag_12\n      jumpi\n      dup1\n      0xf81b5c5b\n      eq\n      tag_13\n      jumpi\n      0x00\n      dup1\n      revert\n    tag_14:\n      dup1\n      0x01a3694e\n      eq\n      tag_3\n      jumpi\n      dup1\n      0x0df71602\n      eq\n      tag_4\n      jumpi\n      dup1\n      0x78a7d3af\n      eq\n      tag_5\n      jumpi\n      dup1\n      0x79ba5097\n      eq\n      tag_6\n      jumpi\n      dup1\n      0x8da5cb5b\n      eq\n      tag_7\n      jumpi\n    tag_2:\n      0x00\n      dup1\n      revert\n        /* \"contracts/ChainlinkConsumer.sol\":534:556  uint256 public winner2 */\n    tag_3:\n      tag_15\n      sload(0x09)\n      dup2\n      jump\n    tag_15:\n      mload(0x40)\n        /* \"#utility.yul\":160:185   */\n      swap1\n      dup2\n      mstore\n        /* \"#utility.yul\":148:150   */\n      0x20\n        /* \"#utility.yul\":133:151   */\n      add\n        /* \"contracts/ChainlinkConsumer.sol\":534:556  uint256 public winner2 */\n    tag_17:\n      mload(0x40)\n      dup1\n      swap2\n      sub\n      swap1\n      return\n        /* \"contracts/ChainlinkConsumer.sol\":2809:2874  function setWinner(uint id) public {... */\n    tag_4:\n      tag_19\n      tag_20\n      calldatasize\n      0x04\n      tag_21\n      jump\t// in\n    tag_20:\n        /* \"contracts/ChainlinkConsumer.sol\":2855:2861  winner */\n      0x08\n        /* \"contracts/ChainlinkConsumer.sol\":2855:2866  winner = id */\n      sstore\n        /* \"contracts/ChainlinkConsumer.sol\":2809:2874  function setWinner(uint id) public {... */\n      jump\n    tag_19:\n      stop\n        /* \"contracts/ChainlinkConsumer.sol\":1517:1983  function requestWinner() public returns (bytes32 requestId) {... */\n    tag_5:\n      tag_15\n      tag_24\n      jump\t// in\n        /* \"@chainlink/contracts/src/v0.8/ConfirmedOwnerWithProposal.sol\":1016:1281  function acceptOwnership() external override {... */\n    tag_6:\n      tag_19\n      tag_28\n      jump\t// in\n        /* \"@chainlink/contracts/src/v0.8/ConfirmedOwnerWithProposal.sol\":1332:1413  function owner() public view override returns (address) {... */\n    tag_7:\n        /* \"@chainlink/contracts/src/v0.8/ConfirmedOwnerWithProposal.sol\":1401:1408  s_owner */\n      sload(0x06)\n        /* \"@chainlink/contracts/src/v0.8/ConfirmedOwnerWithProposal.sol\":1332:1413  function owner() public view override returns (address) {... */\n      mload(0x40)\n      sub(shl(0xa0, 0x01), 0x01)\n        /* \"@chainlink/contracts/src/v0.8/ConfirmedOwnerWithProposal.sol\":1401:1408  s_owner */\n      swap1\n      swap2\n      and\n        /* \"#utility.yul\":709:760   */\n      dup2\n      mstore\n        /* \"#utility.yul\":697:699   */\n      0x20\n        /* \"#utility.yul\":682:700   */\n      add\n        /* \"@chainlink/contracts/src/v0.8/ConfirmedOwnerWithProposal.sol\":1332:1413  function owner() public view override returns (address) {... */\n      tag_17\n        /* \"#utility.yul\":563:766   */\n      jump\n        /* \"contracts/ChainlinkConsumer.sol\":2537:2801  function withdrawLink() public onlyOwner {... */\n    tag_8:\n      tag_19\n      tag_34\n      jump\t// in\n        /* \"contracts/ChainlinkConsumer.sol\":673:693  string public league */\n    tag_9:\n      tag_35\n      tag_36\n      jump\t// in\n    tag_35:\n      mload(0x40)\n      tag_17\n      swap2\n      swap1\n      tag_38\n      jump\t// in\n        /* \"contracts/ChainlinkConsumer.sol\":506:527  uint256 public winner */\n    tag_10:\n      tag_15\n      sload(0x08)\n      dup2\n      jump\n        /* \"contracts/ChainlinkConsumer.sol\":2105:2455  function fulfillOracleRequest2(... */\n    tag_11:\n      tag_19\n      tag_43\n      calldatasize\n      0x04\n      tag_44\n      jump\t// in\n    tag_43:\n      tag_45\n      jump\t// in\n        /* \"@chainlink/contracts/src/v0.8/ConfirmedOwnerWithProposal.sol\":826:924  function transferOwnership(address to) public override onlyOwner {... */\n    tag_12:\n      tag_19\n      tag_47\n      calldatasize\n      0x04\n      tag_48\n      jump\t// in\n    tag_47:\n      tag_49\n      jump\t// in\n        /* \"contracts/ChainlinkConsumer.sol\":563:585  uint256 public winner3 */\n    tag_13:\n      tag_15\n      sload(0x0a)\n      dup2\n      jump\n        /* \"contracts/ChainlinkConsumer.sol\":1517:1983  function requestWinner() public returns (bytes32 requestId) {... */\n    tag_24:\n        /* \"contracts/ChainlinkConsumer.sol\":1558:1575  bytes32 requestId */\n      0x00\n        /* \"contracts/ChainlinkConsumer.sol\":1588:1616  Chainlink.Request memory req */\n      dup1\n        /* \"contracts/ChainlinkConsumer.sol\":1619:1749  buildChainlinkRequest(... */\n      tag_55\n        /* \"contracts/ChainlinkConsumer.sol\":1655:1660  jobId */\n      sload(0x0b)\n        /* \"contracts/ChainlinkConsumer.sol\":1683:1687  this */\n      address\n        /* \"contracts/ChainlinkConsumer.sol\":1703:1738  this.fulfillOracleRequest2.selector */\n      shl(0xe0, 0xe9c63222)\n        /* \"contracts/ChainlinkConsumer.sol\":1619:1640  buildChainlinkRequest */\n      tag_56\n        /* \"contracts/ChainlinkConsumer.sol\":1619:1749  buildChainlinkRequest(... */\n      jump\t// in\n    tag_55:\n        /* \"contracts/ChainlinkConsumer.sol\":1588:1749  Chainlink.Request memory req = buildChainlinkRequest(... */\n      swap1\n      pop\n        /* \"contracts/ChainlinkConsumer.sol\":1762:1818  req.add(... */\n      tag_57\n      mload(0x40)\n      dup1\n      0x40\n      add\n      0x40\n      mstore\n      dup1\n      0x03\n      dup2\n      mstore\n      0x20\n      add\n      shl(0xea, 0x19d95d)\n      dup2\n      mstore\n      pop\n        /* \"contracts/ChainlinkConsumer.sol\":1804:1807  URL */\n      0x0d\n        /* \"contracts/ChainlinkConsumer.sol\":1762:1818  req.add(... */\n      dup1\n      sload\n      tag_58\n      swap1\n      tag_59\n      jump\t// in\n    tag_58:\n      dup1\n      0x1f\n      add\n      0x20\n      dup1\n      swap2\n      div\n      mul\n      0x20\n      add\n      mload(0x40)\n      swap1\n      dup2\n      add\n      0x40\n      mstore\n      dup1\n      swap3\n      swap2\n      swap1\n      dup2\n      dup2\n      mstore\n      0x20\n      add\n      dup3\n      dup1\n      sload\n      tag_60\n      swap1\n      tag_59\n      jump\t// in\n    tag_60:\n      dup1\n      iszero\n      tag_61\n      jumpi\n      dup1\n      0x1f\n      lt\n      tag_62\n      jumpi\n      0x0100\n      dup1\n      dup4\n      sload\n      div\n      mul\n      dup4\n      mstore\n      swap2\n      0x20\n      add\n      swap2\n      jump(tag_61)\n    tag_62:\n      dup3\n      add\n      swap2\n      swap1\n      0x00\n      mstore\n      keccak256(0x00, 0x20)\n      swap1\n    tag_63:\n      dup2\n      sload\n      dup2\n      mstore\n      swap1\n      0x01\n      add\n      swap1\n      0x20\n      add\n      dup1\n      dup4\n      gt\n      tag_63\n      jumpi\n      dup3\n      swap1\n      sub\n      0x1f\n      and\n      dup3\n      add\n      swap2\n    tag_61:\n      pop\n      pop\n      pop\n      pop\n      pop\n        /* \"contracts/ChainlinkConsumer.sol\":1762:1765  req */\n      dup4\n        /* \"contracts/ChainlinkConsumer.sol\":1762:1769  req.add */\n      tag_64\n      swap1\n        /* \"contracts/ChainlinkConsumer.sol\":1762:1818  req.add(... */\n      swap3\n      swap2\n      swap1\n      0xffffffff\n      and\n      jump\t// in\n    tag_57:\n        /* \"contracts/ChainlinkConsumer.sol\":1831:1893  req.add(... */\n      tag_65\n      mload(0x40)\n      dup1\n      0x40\n      add\n      0x40\n      mstore\n      dup1\n      0x06\n      dup2\n      mstore\n      0x20\n      add\n      shl(0xd0, 0x6c6561677565)\n      dup2\n      mstore\n      pop\n        /* \"contracts/ChainlinkConsumer.sol\":1876:1882  league */\n      0x0e\n        /* \"contracts/ChainlinkConsumer.sol\":1831:1893  req.add(... */\n      dup1\n      sload\n      tag_58\n      swap1\n      tag_59\n      jump\t// in\n    tag_65:\n        /* \"contracts/ChainlinkConsumer.sol\":1945:1975  sendChainlinkRequest(req, fee) */\n      tag_71\n        /* \"contracts/ChainlinkConsumer.sol\":1966:1969  req */\n      dup2\n        /* \"contracts/ChainlinkConsumer.sol\":1971:1974  fee */\n      sload(0x0c)\n        /* \"contracts/ChainlinkConsumer.sol\":1945:1965  sendChainlinkRequest */\n      tag_72\n        /* \"contracts/ChainlinkConsumer.sol\":1945:1975  sendChainlinkRequest(req, fee) */\n      jump\t// in\n    tag_71:\n        /* \"contracts/ChainlinkConsumer.sol\":1938:1975  return sendChainlinkRequest(req, fee) */\n      swap2\n      pop\n      pop\n        /* \"contracts/ChainlinkConsumer.sol\":1517:1983  function requestWinner() public returns (bytes32 requestId) {... */\n      swap1\n      jump\t// out\n        /* \"@chainlink/contracts/src/v0.8/ConfirmedOwnerWithProposal.sol\":1016:1281  function acceptOwnership() external override {... */\n    tag_28:\n        /* \"@chainlink/contracts/src/v0.8/ConfirmedOwnerWithProposal.sol\":1089:1103  s_pendingOwner */\n      and(sub(shl(0xa0, 0x01), 0x01), sload(0x07))\n        /* \"@chainlink/contracts/src/v0.8/ConfirmedOwnerWithProposal.sol\":1075:1085  msg.sender */\n      caller\n        /* \"@chainlink/contracts/src/v0.8/ConfirmedOwnerWithProposal.sol\":1075:1103  msg.sender == s_pendingOwner */\n      eq\n        /* \"@chainlink/contracts/src/v0.8/ConfirmedOwnerWithProposal.sol\":1067:1130  require(msg.sender == s_pendingOwner, \"Must be proposed owner\") */\n      tag_74\n      jumpi\n      mload(0x40)\n      shl(0xe5, 0x461bcd)\n      dup2\n      mstore\n        /* \"#utility.yul\":2692:2694   */\n      0x20\n        /* \"@chainlink/contracts/src/v0.8/ConfirmedOwnerWithProposal.sol\":1067:1130  require(msg.sender == s_pendingOwner, \"Must be proposed owner\") */\n      0x04\n      dup3\n      add\n        /* \"#utility.yul\":2674:2695   */\n      mstore\n        /* \"#utility.yul\":2731:2733   */\n      0x16\n        /* \"#utility.yul\":2711:2729   */\n      0x24\n      dup3\n      add\n        /* \"#utility.yul\":2704:2734   */\n      mstore\n      shl(0x51, 0x26bab9ba10313290383937b837b9b2b21037bbb732b9)\n        /* \"#utility.yul\":2750:2768   */\n      0x44\n      dup3\n      add\n        /* \"#utility.yul\":2743:2795   */\n      mstore\n        /* \"#utility.yul\":2812:2830   */\n      0x64\n      add\n        /* \"@chainlink/contracts/src/v0.8/ConfirmedOwnerWithProposal.sol\":1067:1130  require(msg.sender == s_pendingOwner, \"Must be proposed owner\") */\n    tag_75:\n      mload(0x40)\n      dup1\n      swap2\n      sub\n      swap1\n      revert\n    tag_74:\n        /* \"@chainlink/contracts/src/v0.8/ConfirmedOwnerWithProposal.sol\":1156:1163  s_owner */\n      0x06\n      dup1\n      sload\n      not(sub(shl(0xa0, 0x01), 0x01))\n        /* \"@chainlink/contracts/src/v0.8/ConfirmedOwnerWithProposal.sol\":1169:1189  s_owner = msg.sender */\n      dup1\n      dup3\n      and\n        /* \"@chainlink/contracts/src/v0.8/ConfirmedOwnerWithProposal.sol\":1179:1189  msg.sender */\n      caller\n        /* \"@chainlink/contracts/src/v0.8/ConfirmedOwnerWithProposal.sol\":1169:1189  s_owner = msg.sender */\n      swap1\n      dup2\n      or\n      swap1\n      swap4\n      sstore\n        /* \"@chainlink/contracts/src/v0.8/ConfirmedOwnerWithProposal.sol\":1195:1209  s_pendingOwner */\n      0x07\n        /* \"@chainlink/contracts/src/v0.8/ConfirmedOwnerWithProposal.sol\":1195:1222  s_pendingOwner = address(0) */\n      dup1\n      sload\n      swap1\n      swap2\n      and\n      swap1\n      sstore\n        /* \"@chainlink/contracts/src/v0.8/ConfirmedOwnerWithProposal.sol\":1234:1276  OwnershipTransferred(oldOwner, msg.sender) */\n      mload(0x40)\n      sub(shl(0xa0, 0x01), 0x01)\n        /* \"@chainlink/contracts/src/v0.8/ConfirmedOwnerWithProposal.sol\":1156:1163  s_owner */\n      swap1\n      swap2\n      and\n      swap2\n        /* \"@chainlink/contracts/src/v0.8/ConfirmedOwnerWithProposal.sol\":1179:1189  msg.sender */\n      swap1\n        /* \"@chainlink/contracts/src/v0.8/ConfirmedOwnerWithProposal.sol\":1156:1163  s_owner */\n      dup3\n      swap1\n        /* \"@chainlink/contracts/src/v0.8/ConfirmedOwnerWithProposal.sol\":1234:1276  OwnershipTransferred(oldOwner, msg.sender) */\n      0x8be0079c531659141344cd1fd0a4f28419497f9722a3daafe3b4186f6b6457e0\n      swap1\n        /* \"@chainlink/contracts/src/v0.8/ConfirmedOwnerWithProposal.sol\":1137:1153  address oldOwner */\n      0x00\n      swap1\n        /* \"@chainlink/contracts/src/v0.8/ConfirmedOwnerWithProposal.sol\":1234:1276  OwnershipTransferred(oldOwner, msg.sender) */\n      log3\n        /* \"@chainlink/contracts/src/v0.8/ConfirmedOwnerWithProposal.sol\":1061:1281  {... */\n      pop\n        /* \"@chainlink/contracts/src/v0.8/ConfirmedOwnerWithProposal.sol\":1016:1281  function acceptOwnership() external override {... */\n      jump\t// out\n        /* \"contracts/ChainlinkConsumer.sol\":2537:2801  function withdrawLink() public onlyOwner {... */\n    tag_34:\n        /* \"@chainlink/contracts/src/v0.8/ConfirmedOwnerWithProposal.sol\":1956:1976  _validateOwnership() */\n      tag_79\n        /* \"@chainlink/contracts/src/v0.8/ConfirmedOwnerWithProposal.sol\":1956:1974  _validateOwnership */\n      tag_80\n        /* \"@chainlink/contracts/src/v0.8/ConfirmedOwnerWithProposal.sol\":1956:1976  _validateOwnership() */\n      jump\t// in\n    tag_79:\n        /* \"contracts/ChainlinkConsumer.sol\":2589:2612  LinkTokenInterface link */\n      0x00\n        /* \"contracts/ChainlinkConsumer.sol\":2634:2657  chainlinkTokenAddress() */\n      tag_82\n        /* \"@chainlink/contracts/src/v0.8/ChainlinkClient.sol\":9184:9190  s_link */\n      and(sub(shl(0xa0, 0x01), 0x01), sload(0x02))\n      swap1\n        /* \"@chainlink/contracts/src/v0.8/ChainlinkClient.sol\":9098:9196  function chainlinkTokenAddress() internal view returns (address) {... */\n      jump\n        /* \"contracts/ChainlinkConsumer.sol\":2634:2657  chainlinkTokenAddress() */\n    tag_82:\n        /* \"contracts/ChainlinkConsumer.sol\":2717:2746  link.balanceOf(address(this)) */\n      mload(0x40)\n      shl(0xe0, 0x70a08231)\n      dup2\n      mstore\n        /* \"contracts/ChainlinkConsumer.sol\":2740:2744  this */\n      address\n        /* \"contracts/ChainlinkConsumer.sol\":2717:2746  link.balanceOf(address(this)) */\n      0x04\n      dup3\n      add\n        /* \"#utility.yul\":709:760   */\n      mstore\n        /* \"contracts/ChainlinkConsumer.sol\":2589:2658  LinkTokenInterface link = LinkTokenInterface(chainlinkTokenAddress()) */\n      swap1\n      swap2\n      pop\n      sub(shl(0xa0, 0x01), 0x01)\n        /* \"contracts/ChainlinkConsumer.sol\":2691:2704  link.transfer */\n      dup3\n      and\n      swap1\n      0xa9059cbb\n      swap1\n        /* \"contracts/ChainlinkConsumer.sol\":2705:2715  msg.sender */\n      caller\n      swap1\n        /* \"contracts/ChainlinkConsumer.sol\":2691:2704  link.transfer */\n      dup4\n      swap1\n        /* \"contracts/ChainlinkConsumer.sol\":2717:2731  link.balanceOf */\n      0x70a08231\n      swap1\n        /* \"#utility.yul\":682:700   */\n      0x24\n      add\n        /* \"contracts/ChainlinkConsumer.sol\":2717:2746  link.balanceOf(address(this)) */\n      0x20\n      mload(0x40)\n      dup1\n      dup4\n      sub\n      dup2\n      dup7\n      gas\n      staticcall\n      iszero\n      dup1\n      iszero\n      tag_86\n      jumpi\n      returndatasize\n      0x00\n      dup1\n      returndatacopy\n      revert(0x00, returndatasize)\n    tag_86:\n      pop\n      pop\n      pop\n      pop\n      mload(0x40)\n      returndatasize\n      not(0x1f)\n      0x1f\n      dup3\n      add\n      and\n      dup3\n      add\n      dup1\n      0x40\n      mstore\n      pop\n      dup2\n      add\n      swap1\n      tag_87\n      swap2\n      swap1\n      tag_88\n      jump\t// in\n    tag_87:\n        /* \"contracts/ChainlinkConsumer.sol\":2691:2747  link.transfer(msg.sender, link.balanceOf(address(this))) */\n      mload(0x40)\n      not(sub(shl(0xe0, 0x01), 0x01))\n      0xe0\n      dup6\n      swap1\n      shl\n      and\n      dup2\n      mstore\n      sub(shl(0xa0, 0x01), 0x01)\n        /* \"#utility.yul\":3222:3254   */\n      swap1\n      swap3\n      and\n        /* \"contracts/ChainlinkConsumer.sol\":2691:2747  link.transfer(msg.sender, link.balanceOf(address(this))) */\n      0x04\n      dup4\n      add\n        /* \"#utility.yul\":3204:3255   */\n      mstore\n        /* \"#utility.yul\":3271:3289   */\n      0x24\n      dup3\n      add\n        /* \"#utility.yul\":3264:3298   */\n      mstore\n        /* \"#utility.yul\":3177:3195   */\n      0x44\n      add\n        /* \"contracts/ChainlinkConsumer.sol\":2691:2747  link.transfer(msg.sender, link.balanceOf(address(this))) */\n      0x20\n      mload(0x40)\n      dup1\n      dup4\n      sub\n      dup2\n      0x00\n      dup8\n      gas\n      call\n      iszero\n      dup1\n      iszero\n      tag_92\n      jumpi\n      returndatasize\n      0x00\n      dup1\n      returndatacopy\n      revert(0x00, returndatasize)\n    tag_92:\n      pop\n      pop\n      pop\n      pop\n      mload(0x40)\n      returndatasize\n      not(0x1f)\n      0x1f\n      dup3\n      add\n      and\n      dup3\n      add\n      dup1\n      0x40\n      mstore\n      pop\n      dup2\n      add\n      swap1\n      tag_93\n      swap2\n      swap1\n      tag_94\n      jump\t// in\n    tag_93:\n        /* \"contracts/ChainlinkConsumer.sol\":2669:2793  require(... */\n      tag_95\n      jumpi\n      mload(0x40)\n      shl(0xe5, 0x461bcd)\n      dup2\n      mstore\n        /* \"#utility.yul\":3793:3795   */\n      0x20\n        /* \"contracts/ChainlinkConsumer.sol\":2669:2793  require(... */\n      0x04\n      dup3\n      add\n        /* \"#utility.yul\":3775:3796   */\n      mstore\n        /* \"#utility.yul\":3832:3834   */\n      0x12\n        /* \"#utility.yul\":3812:3830   */\n      0x24\n      dup3\n      add\n        /* \"#utility.yul\":3805:3835   */\n      mstore\n      shl(0x71, 0x2ab730b13632903a37903a3930b739b332b9)\n        /* \"#utility.yul\":3851:3869   */\n      0x44\n      dup3\n      add\n        /* \"#utility.yul\":3844:3892   */\n      mstore\n        /* \"#utility.yul\":3909:3927   */\n      0x64\n      add\n        /* \"contracts/ChainlinkConsumer.sol\":2669:2793  require(... */\n      tag_75\n        /* \"#utility.yul\":3591:3933   */\n      jump\n        /* \"contracts/ChainlinkConsumer.sol\":2669:2793  require(... */\n    tag_95:\n        /* \"contracts/ChainlinkConsumer.sol\":2578:2801  {... */\n      pop\n        /* \"contracts/ChainlinkConsumer.sol\":2537:2801  function withdrawLink() public onlyOwner {... */\n      jump\t// out\n        /* \"contracts/ChainlinkConsumer.sol\":673:693  string public league */\n    tag_36:\n      0x0e\n      dup1\n      sload\n      tag_98\n      swap1\n      tag_59\n      jump\t// in\n    tag_98:\n      dup1\n      0x1f\n      add\n      0x20\n      dup1\n      swap2\n      div\n      mul\n      0x20\n      add\n      mload(0x40)\n      swap1\n      dup2\n      add\n      0x40\n      mstore\n      dup1\n      swap3\n      swap2\n      swap1\n      dup2\n      dup2\n      mstore\n      0x20\n      add\n      dup3\n      dup1\n      sload\n      tag_99\n      swap1\n      tag_59\n      jump\t// in\n    tag_99:\n      dup1\n      iszero\n      tag_100\n      jumpi\n      dup1\n      0x1f\n      lt\n      tag_101\n      jumpi\n      0x0100\n      dup1\n      dup4\n      sload\n      div\n      mul\n      dup4\n      mstore\n      swap2\n      0x20\n      add\n      swap2\n      jump(tag_100)\n    tag_101:\n      dup3\n      add\n      swap2\n      swap1\n      0x00\n      mstore\n      keccak256(0x00, 0x20)\n      swap1\n    tag_102:\n      dup2\n      sload\n      dup2\n      mstore\n      swap1\n      0x01\n      add\n      swap1\n      0x20\n      add\n      dup1\n      dup4\n      gt\n      tag_102\n      jumpi\n      dup3\n      swap1\n      sub\n      0x1f\n      and\n      dup3\n      add\n      swap2\n    tag_100:\n      pop\n      pop\n      pop\n      pop\n      pop\n      dup2\n      jump\t// out\n        /* \"contracts/ChainlinkConsumer.sol\":2105:2455  function fulfillOracleRequest2(... */\n    tag_45:\n        /* \"@chainlink/contracts/src/v0.8/ChainlinkClient.sol\":11663:11691  s_pendingRequests[requestId] */\n      0x00\n      dup5\n      dup2\n      mstore\n        /* \"@chainlink/contracts/src/v0.8/ChainlinkClient.sol\":11663:11680  s_pendingRequests */\n      0x05\n        /* \"@chainlink/contracts/src/v0.8/ChainlinkClient.sol\":11663:11691  s_pendingRequests[requestId] */\n      0x20\n      mstore\n      0x40\n      swap1\n      keccak256\n      sload\n      dup5\n      swap1\n      sub(shl(0xa0, 0x01), 0x01)\n      and\n        /* \"@chainlink/contracts/src/v0.8/ChainlinkClient.sol\":11649:11659  msg.sender */\n      caller\n        /* \"@chainlink/contracts/src/v0.8/ChainlinkClient.sol\":11649:11691  msg.sender == s_pendingRequests[requestId] */\n      eq\n        /* \"@chainlink/contracts/src/v0.8/ChainlinkClient.sol\":11641:11736  require(msg.sender == s_pendingRequests[requestId], \"Source must be the oracle of the request\") */\n      tag_104\n      jumpi\n      mload(0x40)\n      shl(0xe5, 0x461bcd)\n      dup2\n      mstore\n        /* \"#utility.yul\":4140:4142   */\n      0x20\n        /* \"@chainlink/contracts/src/v0.8/ChainlinkClient.sol\":11641:11736  require(msg.sender == s_pendingRequests[requestId], \"Source must be the oracle of the request\") */\n      0x04\n      dup3\n      add\n        /* \"#utility.yul\":4122:4143   */\n      mstore\n        /* \"#utility.yul\":4179:4181   */\n      0x28\n        /* \"#utility.yul\":4159:4177   */\n      0x24\n      dup3\n      add\n        /* \"#utility.yul\":4152:4182   */\n      mstore\n        /* \"#utility.yul\":4218:4252   */\n      0x536f75726365206d75737420626520746865206f7261636c65206f6620746865\n        /* \"#utility.yul\":4198:4216   */\n      0x44\n      dup3\n      add\n        /* \"#utility.yul\":4191:4253   */\n      mstore\n      shl(0xc2, 0x081c995c5d595cdd)\n        /* \"#utility.yul\":4269:4287   */\n      0x64\n      dup3\n      add\n        /* \"#utility.yul\":4262:4300   */\n      mstore\n        /* \"#utility.yul\":4317:4336   */\n      0x84\n      add\n        /* \"@chainlink/contracts/src/v0.8/ChainlinkClient.sol\":11641:11736  require(msg.sender == s_pendingRequests[requestId], \"Source must be the oracle of the request\") */\n      tag_75\n        /* \"#utility.yul\":3938:4342   */\n      jump\n        /* \"@chainlink/contracts/src/v0.8/ChainlinkClient.sol\":11641:11736  require(msg.sender == s_pendingRequests[requestId], \"Source must be the oracle of the request\") */\n    tag_104:\n        /* \"@chainlink/contracts/src/v0.8/ChainlinkClient.sol\":11749:11777  s_pendingRequests[requestId] */\n      0x00\n      dup2\n      dup2\n      mstore\n        /* \"@chainlink/contracts/src/v0.8/ChainlinkClient.sol\":11749:11766  s_pendingRequests */\n      0x05\n        /* \"@chainlink/contracts/src/v0.8/ChainlinkClient.sol\":11749:11777  s_pendingRequests[requestId] */\n      0x20\n      mstore\n      0x40\n      dup1\n      dup3\n      keccak256\n        /* \"@chainlink/contracts/src/v0.8/ChainlinkClient.sol\":11742:11777  delete s_pendingRequests[requestId] */\n      dup1\n      sload\n      not(sub(shl(0xa0, 0x01), 0x01))\n      and\n      swap1\n      sstore\n        /* \"@chainlink/contracts/src/v0.8/ChainlinkClient.sol\":11788:11817  ChainlinkFulfilled(requestId) */\n      mload\n        /* \"@chainlink/contracts/src/v0.8/ChainlinkClient.sol\":11767:11776  requestId */\n      dup3\n      swap2\n        /* \"@chainlink/contracts/src/v0.8/ChainlinkClient.sol\":11788:11817  ChainlinkFulfilled(requestId) */\n      0x7cc135e0cebb02c3480ae5d74d377283180a2601f8f644edf7987b009316c63a\n      swap2\n      log2\n        /* \"contracts/ChainlinkConsumer.sol\":2308:2362  RequestWinner(_requestId, _winner, _winner2, _winner3) */\n      0x40\n      dup1\n      mload\n        /* \"#utility.yul\":4549:4574   */\n      dup6\n      dup2\n      mstore\n        /* \"#utility.yul\":4605:4607   */\n      0x20\n        /* \"#utility.yul\":4590:4608   */\n      dup2\n      add\n        /* \"#utility.yul\":4583:4617   */\n      dup6\n      swap1\n      mstore\n        /* \"#utility.yul\":4633:4651   */\n      swap1\n      dup2\n      add\n        /* \"#utility.yul\":4626:4660   */\n      dup4\n      swap1\n      mstore\n        /* \"contracts/ChainlinkConsumer.sol\":2322:2332  _requestId */\n      dup6\n      swap1\n        /* \"contracts/ChainlinkConsumer.sol\":2308:2362  RequestWinner(_requestId, _winner, _winner2, _winner3) */\n      0x539e5682d95ed725b9a92ef19aefc24d6e1bc6aa39ab4f2ac96a3e48f1dd2e46\n      swap1\n        /* \"#utility.yul\":4537:4539   */\n      0x60\n        /* \"#utility.yul\":4522:4540   */\n      add\n        /* \"contracts/ChainlinkConsumer.sol\":2308:2362  RequestWinner(_requestId, _winner, _winner2, _winner3) */\n      mload(0x40)\n      dup1\n      swap2\n      sub\n      swap1\n      log2\n      pop\n        /* \"contracts/ChainlinkConsumer.sol\":2373:2379  winner */\n      0x08\n        /* \"contracts/ChainlinkConsumer.sol\":2373:2389  winner = _winner */\n      swap3\n      swap1\n      swap3\n      sstore\n        /* \"contracts/ChainlinkConsumer.sol\":2400:2407  winner2 */\n      0x09\n        /* \"contracts/ChainlinkConsumer.sol\":2400:2418  winner2 = _winner2 */\n      sstore\n        /* \"contracts/ChainlinkConsumer.sol\":2429:2436  winner3 */\n      0x0a\n        /* \"contracts/ChainlinkConsumer.sol\":2429:2447  winner3 = _winner3 */\n      sstore\n      pop\n        /* \"contracts/ChainlinkConsumer.sol\":2105:2455  function fulfillOracleRequest2(... */\n      jump\t// out\n        /* \"@chainlink/contracts/src/v0.8/ConfirmedOwnerWithProposal.sol\":826:924  function transferOwnership(address to) public override onlyOwner {... */\n    tag_49:\n        /* \"@chainlink/contracts/src/v0.8/ConfirmedOwnerWithProposal.sol\":1956:1976  _validateOwnership() */\n      tag_111\n        /* \"@chainlink/contracts/src/v0.8/ConfirmedOwnerWithProposal.sol\":1956:1974  _validateOwnership */\n      tag_80\n        /* \"@chainlink/contracts/src/v0.8/ConfirmedOwnerWithProposal.sol\":1956:1976  _validateOwnership() */\n      jump\t// in\n    tag_111:\n        /* \"@chainlink/contracts/src/v0.8/ConfirmedOwnerWithProposal.sol\":897:919  _transferOwnership(to) */\n      tag_95\n        /* \"@chainlink/contracts/src/v0.8/ConfirmedOwnerWithProposal.sol\":916:918  to */\n      dup2\n        /* \"@chainlink/contracts/src/v0.8/ConfirmedOwnerWithProposal.sol\":897:915  _transferOwnership */\n      tag_114\n        /* \"@chainlink/contracts/src/v0.8/ConfirmedOwnerWithProposal.sol\":897:919  _transferOwnership(to) */\n      jump\t// in\n        /* \"@chainlink/contracts/src/v0.8/ChainlinkClient.sol\":1850:2133  function buildChainlinkRequest(... */\n    tag_56:\n        /* \"@chainlink/contracts/src/v0.8/ChainlinkClient.sol\":1992:2016  Chainlink.Request memory */\n      tag_115\n      tag_116\n      jump\t// in\n    tag_115:\n        /* \"@chainlink/contracts/src/v0.8/ChainlinkClient.sol\":2024:2052  Chainlink.Request memory req */\n      tag_118\n      tag_116\n      jump\t// in\n    tag_118:\n        /* \"@chainlink/contracts/src/v0.8/ChainlinkClient.sol\":2065:2128  req.initialize(specId, callbackAddr, callbackFunctionSignature) */\n      tag_119\n        /* \"@chainlink/contracts/src/v0.8/ChainlinkClient.sol\":2065:2068  req */\n      dup2\n        /* \"@chainlink/contracts/src/v0.8/ChainlinkClient.sol\":2080:2086  specId */\n      dup7\n        /* \"@chainlink/contracts/src/v0.8/ChainlinkClient.sol\":2088:2100  callbackAddr */\n      dup7\n        /* \"@chainlink/contracts/src/v0.8/ChainlinkClient.sol\":2102:2127  callbackFunctionSignature */\n      dup7\n        /* \"@chainlink/contracts/src/v0.8/ChainlinkClient.sol\":2065:2079  req.initialize */\n      tag_120\n        /* \"@chainlink/contracts/src/v0.8/ChainlinkClient.sol\":2065:2128  req.initialize(specId, callbackAddr, callbackFunctionSignature) */\n      jump\t// in\n    tag_119:\n        /* \"@chainlink/contracts/src/v0.8/ChainlinkClient.sol\":2058:2128  return req.initialize(specId, callbackAddr, callbackFunctionSignature) */\n      swap6\n        /* \"@chainlink/contracts/src/v0.8/ChainlinkClient.sol\":1850:2133  function buildChainlinkRequest(... */\n      swap5\n      pop\n      pop\n      pop\n      pop\n      pop\n      jump\t// out\n        /* \"@chainlink/contracts/src/v0.8/Chainlink.sol\":1951:2126  function add(... */\n    tag_64:\n        /* \"@chainlink/contracts/src/v0.8/Chainlink.sol\":2061:2069  self.buf */\n      0x80\n      dup4\n      add\n      mload\n        /* \"@chainlink/contracts/src/v0.8/Chainlink.sol\":2061:2087  self.buf.encodeString(key) */\n      tag_122\n      swap1\n        /* \"@chainlink/contracts/src/v0.8/Chainlink.sol\":2083:2086  key */\n      dup4\n        /* \"@chainlink/contracts/src/v0.8/Chainlink.sol\":2061:2082  self.buf.encodeString */\n      tag_123\n        /* \"@chainlink/contracts/src/v0.8/Chainlink.sol\":2061:2087  self.buf.encodeString(key) */\n      jump\t// in\n    tag_122:\n        /* \"@chainlink/contracts/src/v0.8/Chainlink.sol\":2093:2101  self.buf */\n      0x80\n      dup4\n      add\n      mload\n        /* \"@chainlink/contracts/src/v0.8/Chainlink.sol\":2093:2121  self.buf.encodeString(value) */\n      tag_124\n      swap1\n        /* \"@chainlink/contracts/src/v0.8/Chainlink.sol\":2115:2120  value */\n      dup3\n        /* \"@chainlink/contracts/src/v0.8/Chainlink.sol\":2093:2114  self.buf.encodeString */\n      tag_123\n        /* \"@chainlink/contracts/src/v0.8/Chainlink.sol\":2093:2121  self.buf.encodeString(value) */\n      jump\t// in\n    tag_124:\n        /* \"@chainlink/contracts/src/v0.8/Chainlink.sol\":1951:2126  function add(... */\n      pop\n      pop\n      pop\n      jump\t// out\n        /* \"@chainlink/contracts/src/v0.8/ChainlinkClient.sol\":2992:3169  function sendChainlinkRequest(Chainlink.Request memory req, uint256 payment) internal returns (bytes32) {... */\n    tag_72:\n        /* \"@chainlink/contracts/src/v0.8/ChainlinkClient.sol\":3140:3148  s_oracle */\n      sload(0x03)\n        /* \"@chainlink/contracts/src/v0.8/ChainlinkClient.sol\":3087:3094  bytes32 */\n      0x00\n      swap1\n        /* \"@chainlink/contracts/src/v0.8/ChainlinkClient.sol\":3109:3164  sendChainlinkRequestTo(address(s_oracle), req, payment) */\n      tag_126\n      swap1\n      sub(shl(0xa0, 0x01), 0x01)\n        /* \"@chainlink/contracts/src/v0.8/ChainlinkClient.sol\":3140:3148  s_oracle */\n      and\n        /* \"@chainlink/contracts/src/v0.8/ChainlinkClient.sol\":3151:3154  req */\n      dup5\n        /* \"@chainlink/contracts/src/v0.8/ChainlinkClient.sol\":3156:3163  payment */\n      dup5\n        /* \"@chainlink/contracts/src/v0.8/ChainlinkClient.sol\":3109:3131  sendChainlinkRequestTo */\n      tag_127\n        /* \"@chainlink/contracts/src/v0.8/ChainlinkClient.sol\":3109:3164  sendChainlinkRequestTo(address(s_oracle), req, payment) */\n      jump\t// in\n    tag_126:\n        /* \"@chainlink/contracts/src/v0.8/ChainlinkClient.sol\":3102:3164  return sendChainlinkRequestTo(address(s_oracle), req, payment) */\n      swap1\n      pop\n        /* \"@chainlink/contracts/src/v0.8/ChainlinkClient.sol\":2992:3169  function sendChainlinkRequest(Chainlink.Request memory req, uint256 payment) internal returns (bytes32) {... */\n    tag_125:\n      swap3\n      swap2\n      pop\n      pop\n      jump\t// out\n        /* \"@chainlink/contracts/src/v0.8/ConfirmedOwnerWithProposal.sol\":1730:1841  function _validateOwnership() internal view {... */\n    tag_80:\n        /* \"@chainlink/contracts/src/v0.8/ConfirmedOwnerWithProposal.sol\":1802:1809  s_owner */\n      and(sub(shl(0xa0, 0x01), 0x01), sload(0x06))\n        /* \"@chainlink/contracts/src/v0.8/ConfirmedOwnerWithProposal.sol\":1788:1798  msg.sender */\n      caller\n        /* \"@chainlink/contracts/src/v0.8/ConfirmedOwnerWithProposal.sol\":1788:1809  msg.sender == s_owner */\n      eq\n        /* \"@chainlink/contracts/src/v0.8/ConfirmedOwnerWithProposal.sol\":1780:1836  require(msg.sender == s_owner, \"Only callable by owner\") */\n      tag_129\n      jumpi\n      mload(0x40)\n      shl(0xe5, 0x461bcd)\n      dup2\n      mstore\n        /* \"#utility.yul\":4873:4875   */\n      0x20\n        /* \"@chainlink/contracts/src/v0.8/ConfirmedOwnerWithProposal.sol\":1780:1836  require(msg.sender == s_owner, \"Only callable by owner\") */\n      0x04\n      dup3\n      add\n        /* \"#utility.yul\":4855:4876   */\n      mstore\n        /* \"#utility.yul\":4912:4914   */\n      0x16\n        /* \"#utility.yul\":4892:4910   */\n      0x24\n      dup3\n      add\n        /* \"#utility.yul\":4885:4915   */\n      mstore\n      shl(0x51, 0x27b7363c9031b0b63630b1363290313c9037bbb732b9)\n        /* \"#utility.yul\":4931:4949   */\n      0x44\n      dup3\n      add\n        /* \"#utility.yul\":4924:4976   */\n      mstore\n        /* \"#utility.yul\":4993:5011   */\n      0x64\n      add\n        /* \"@chainlink/contracts/src/v0.8/ConfirmedOwnerWithProposal.sol\":1780:1836  require(msg.sender == s_owner, \"Only callable by owner\") */\n      tag_75\n        /* \"#utility.yul\":4671:5017   */\n      jump\n        /* \"@chainlink/contracts/src/v0.8/ConfirmedOwnerWithProposal.sol\":1780:1836  require(msg.sender == s_owner, \"Only callable by owner\") */\n    tag_129:\n        /* \"@chainlink/contracts/src/v0.8/ConfirmedOwnerWithProposal.sol\":1730:1841  function _validateOwnership() internal view {... */\n      jump\t// out\n        /* \"@chainlink/contracts/src/v0.8/ConfirmedOwnerWithProposal.sol\":1497:1685  function _transferOwnership(address to) private {... */\n    tag_114:\n        /* \"@chainlink/contracts/src/v0.8/ConfirmedOwnerWithProposal.sol\":1565:1575  msg.sender */\n      caller\n      sub(shl(0xa0, 0x01), 0x01)\n        /* \"@chainlink/contracts/src/v0.8/ConfirmedOwnerWithProposal.sol\":1559:1575  to != msg.sender */\n      dup3\n      and\n      sub\n        /* \"@chainlink/contracts/src/v0.8/ConfirmedOwnerWithProposal.sol\":1551:1603  require(to != msg.sender, \"Cannot transfer to self\") */\n      tag_134\n      jumpi\n      mload(0x40)\n      shl(0xe5, 0x461bcd)\n      dup2\n      mstore\n        /* \"#utility.yul\":5224:5226   */\n      0x20\n        /* \"@chainlink/contracts/src/v0.8/ConfirmedOwnerWithProposal.sol\":1551:1603  require(to != msg.sender, \"Cannot transfer to self\") */\n      0x04\n      dup3\n      add\n        /* \"#utility.yul\":5206:5227   */\n      mstore\n        /* \"#utility.yul\":5263:5265   */\n      0x17\n        /* \"#utility.yul\":5243:5261   */\n      0x24\n      dup3\n      add\n        /* \"#utility.yul\":5236:5266   */\n      mstore\n        /* \"#utility.yul\":5302:5327   */\n      0x43616e6e6f74207472616e7366657220746f2073656c66000000000000000000\n        /* \"#utility.yul\":5282:5300   */\n      0x44\n      dup3\n      add\n        /* \"#utility.yul\":5275:5328   */\n      mstore\n        /* \"#utility.yul\":5345:5363   */\n      0x64\n      add\n        /* \"@chainlink/contracts/src/v0.8/ConfirmedOwnerWithProposal.sol\":1551:1603  require(to != msg.sender, \"Cannot transfer to self\") */\n      tag_75\n        /* \"#utility.yul\":5022:5369   */\n      jump\n        /* \"@chainlink/contracts/src/v0.8/ConfirmedOwnerWithProposal.sol\":1551:1603  require(to != msg.sender, \"Cannot transfer to self\") */\n    tag_134:\n        /* \"@chainlink/contracts/src/v0.8/ConfirmedOwnerWithProposal.sol\":1610:1624  s_pendingOwner */\n      0x07\n        /* \"@chainlink/contracts/src/v0.8/ConfirmedOwnerWithProposal.sol\":1610:1629  s_pendingOwner = to */\n      dup1\n      sload\n      not(sub(shl(0xa0, 0x01), 0x01))\n      and\n      sub(shl(0xa0, 0x01), 0x01)\n      dup4\n      dup2\n      and\n      swap2\n      dup3\n      or\n      swap1\n      swap3\n      sstore\n        /* \"@chainlink/contracts/src/v0.8/ConfirmedOwnerWithProposal.sol\":1668:1675  s_owner */\n      sload(0x06)\n        /* \"@chainlink/contracts/src/v0.8/ConfirmedOwnerWithProposal.sol\":1641:1680  OwnershipTransferRequested(s_owner, to) */\n      mload(0x40)\n        /* \"@chainlink/contracts/src/v0.8/ConfirmedOwnerWithProposal.sol\":1610:1629  s_pendingOwner = to */\n      swap2\n      swap3\n        /* \"@chainlink/contracts/src/v0.8/ConfirmedOwnerWithProposal.sol\":1668:1675  s_owner */\n      and\n      swap1\n        /* \"@chainlink/contracts/src/v0.8/ConfirmedOwnerWithProposal.sol\":1641:1680  OwnershipTransferRequested(s_owner, to) */\n      0xed8889f560326eb138920d842192f0eb3dd22b4f139c87a2c57538e05bae1278\n      swap1\n      0x00\n      swap1\n      log3\n        /* \"@chainlink/contracts/src/v0.8/ConfirmedOwnerWithProposal.sol\":1497:1685  function _transferOwnership(address to) private {... */\n      pop\n      jump\t// out\n        /* \"@chainlink/contracts/src/v0.8/Chainlink.sol\":987:1338  function initialize(... */\n    tag_120:\n        /* \"@chainlink/contracts/src/v0.8/Chainlink.sol\":1129:1153  Chainlink.Request memory */\n      tag_137\n      tag_116\n      jump\t// in\n    tag_137:\n        /* \"@chainlink/contracts/src/v0.8/Chainlink.sol\":1161:1210  BufferChainlink.init(self.buf, defaultBufferSize) */\n      tag_139\n        /* \"@chainlink/contracts/src/v0.8/Chainlink.sol\":1182:1186  self */\n      dup6\n        /* \"@chainlink/contracts/src/v0.8/Chainlink.sol\":1182:1190  self.buf */\n      0x80\n      add\n      mload\n        /* \"@chainlink/contracts/src/v0.8/Chainlink.sol\":361:364  256 */\n      0x0100\n        /* \"@chainlink/contracts/src/v0.8/Chainlink.sol\":1161:1181  BufferChainlink.init */\n      tag_140\n        /* \"@chainlink/contracts/src/v0.8/Chainlink.sol\":1161:1210  BufferChainlink.init(self.buf, defaultBufferSize) */\n      jump\t// in\n    tag_139:\n      pop\n      pop\n        /* \"@chainlink/contracts/src/v0.8/Chainlink.sol\":1216:1231  self.id = jobId */\n      dup3\n      dup5\n      mstore\n      sub(shl(0xa0, 0x01), 0x01)\n        /* \"@chainlink/contracts/src/v0.8/Chainlink.sol\":1237:1272  self.callbackAddress = callbackAddr */\n      dup3\n      and\n        /* \"@chainlink/contracts/src/v0.8/Chainlink.sol\":1237:1257  self.callbackAddress */\n      0x20\n      dup6\n      add\n        /* \"@chainlink/contracts/src/v0.8/Chainlink.sol\":1237:1272  self.callbackAddress = callbackAddr */\n      mstore\n      not(sub(shl(0xe0, 0x01), 0x01))\n        /* \"@chainlink/contracts/src/v0.8/Chainlink.sol\":1278:1316  self.callbackFunctionId = callbackFunc */\n      dup2\n      and\n        /* \"@chainlink/contracts/src/v0.8/Chainlink.sol\":1278:1301  self.callbackFunctionId */\n      0x40\n      dup6\n      add\n        /* \"@chainlink/contracts/src/v0.8/Chainlink.sol\":1278:1316  self.callbackFunctionId = callbackFunc */\n      mstore\n        /* \"@chainlink/contracts/src/v0.8/Chainlink.sol\":1216:1220  self */\n      dup4\n        /* \"@chainlink/contracts/src/v0.8/Chainlink.sol\":987:1338  function initialize(... */\n    tag_138:\n      swap5\n      swap4\n      pop\n      pop\n      pop\n      pop\n      jump\t// out\n        /* \"@chainlink/contracts/src/v0.8/vendor/CBORChainlink.sol\":2777:2981  function encodeString(BufferChainlink.buffer memory buf, string memory value) internal pure {... */\n    tag_123:\n        /* \"@chainlink/contracts/src/v0.8/vendor/CBORChainlink.sol\":2875:2946  encodeFixedNumeric(buf, MAJOR_TYPE_STRING, uint64(bytes(value).length)) */\n      tag_142\n        /* \"@chainlink/contracts/src/v0.8/vendor/CBORChainlink.sol\":2894:2897  buf */\n      dup3\n        /* \"@chainlink/contracts/src/v0.8/vendor/CBORChainlink.sol\":383:384  3 */\n      0x03\n        /* \"@chainlink/contracts/src/v0.8/vendor/CBORChainlink.sol\":2931:2936  value */\n      dup4\n        /* \"@chainlink/contracts/src/v0.8/vendor/CBORChainlink.sol\":2925:2944  bytes(value).length */\n      mload\n        /* \"@chainlink/contracts/src/v0.8/vendor/CBORChainlink.sol\":2875:2893  encodeFixedNumeric */\n      tag_143\n        /* \"@chainlink/contracts/src/v0.8/vendor/CBORChainlink.sol\":2875:2946  encodeFixedNumeric(buf, MAJOR_TYPE_STRING, uint64(bytes(value).length)) */\n      jump\t// in\n    tag_142:\n        /* \"@chainlink/contracts/src/v0.8/vendor/CBORChainlink.sol\":2952:2976  buf.append(bytes(value)) */\n      tag_124\n        /* \"@chainlink/contracts/src/v0.8/vendor/CBORChainlink.sol\":2952:2955  buf */\n      dup3\n        /* \"@chainlink/contracts/src/v0.8/vendor/CBORChainlink.sol\":2969:2974  value */\n      dup3\n        /* \"@chainlink/contracts/src/v0.8/vendor/CBORChainlink.sol\":2952:2962  buf.append */\n      tag_145\n        /* \"@chainlink/contracts/src/v0.8/vendor/CBORChainlink.sol\":2952:2976  buf.append(bytes(value)) */\n      jump\t// in\n        /* \"@chainlink/contracts/src/v0.8/ChainlinkClient.sol\":3687:4443  function sendChainlinkRequestTo(... */\n    tag_127:\n        /* \"@chainlink/contracts/src/v0.8/ChainlinkClient.sol\":3864:3878  s_requestCount */\n      sload(0x04)\n        /* \"@chainlink/contracts/src/v0.8/ChainlinkClient.sol\":3823:3840  bytes32 requestId */\n      0x00\n      swap1\n        /* \"@chainlink/contracts/src/v0.8/ChainlinkClient.sol\":3901:3910  nonce + 1 */\n      tag_147\n        /* \"@chainlink/contracts/src/v0.8/ChainlinkClient.sol\":3864:3878  s_requestCount */\n      dup2\n        /* \"@chainlink/contracts/src/v0.8/ChainlinkClient.sol\":3909:3910  1 */\n      0x01\n        /* \"@chainlink/contracts/src/v0.8/ChainlinkClient.sol\":3901:3910  nonce + 1 */\n      tag_148\n      jump\t// in\n    tag_147:\n        /* \"@chainlink/contracts/src/v0.8/ChainlinkClient.sol\":3884:3898  s_requestCount */\n      0x04\n        /* \"@chainlink/contracts/src/v0.8/ChainlinkClient.sol\":3884:3910  s_requestCount = nonce + 1 */\n      sstore\n        /* \"@chainlink/contracts/src/v0.8/ChainlinkClient.sol\":4245:4251  req.id */\n      dup4\n      mload\n        /* \"@chainlink/contracts/src/v0.8/ChainlinkClient.sol\":4280:4302  req.callbackFunctionId */\n      0x40\n      dup1\n      dup7\n      add\n      mload\n        /* \"@chainlink/contracts/src/v0.8/ChainlinkClient.sol\":4350:4357  req.buf */\n      0x80\n      dup8\n      add\n      mload\n        /* \"@chainlink/contracts/src/v0.8/ChainlinkClient.sol\":4350:4361  req.buf.buf */\n      mload\n        /* \"@chainlink/contracts/src/v0.8/ChainlinkClient.sol\":3946:4367  abi.encodeWithSelector(... */\n      swap2\n      mload\n        /* \"@chainlink/contracts/src/v0.8/ChainlinkClient.sol\":3916:3943  bytes memory encodedRequest */\n      0x00\n      swap4\n      shl(0xe1, 0x20214ca3)\n        /* \"@chainlink/contracts/src/v0.8/ChainlinkClient.sol\":3976:4024  ChainlinkRequestInterface.oracleRequest.selector */\n      swap4\n        /* \"@chainlink/contracts/src/v0.8/ChainlinkClient.sol\":3946:4367  abi.encodeWithSelector(... */\n      tag_149\n      swap4\n        /* \"@chainlink/contracts/src/v0.8/ChainlinkClient.sol\":3916:3943  bytes memory encodedRequest */\n      dup7\n      swap4\n      dup5\n      swap4\n        /* \"@chainlink/contracts/src/v0.8/ChainlinkClient.sol\":4245:4251  req.id */\n      swap3\n        /* \"@chainlink/contracts/src/v0.8/ChainlinkClient.sol\":4267:4271  this */\n      address\n      swap3\n        /* \"@chainlink/contracts/src/v0.8/ChainlinkClient.sol\":4280:4302  req.callbackFunctionId */\n      swap2\n        /* \"@chainlink/contracts/src/v0.8/ChainlinkClient.sol\":4310:4315  nonce */\n      dup11\n      swap2\n        /* \"@chainlink/contracts/src/v0.8/ChainlinkClient.sol\":837:838  1 */\n      0x01\n      swap2\n        /* \"@chainlink/contracts/src/v0.8/ChainlinkClient.sol\":3946:4367  abi.encodeWithSelector(... */\n      0x24\n      add\n      tag_150\n      jump\t// in\n    tag_149:\n      0x40\n      dup1\n      mload\n      not(0x1f)\n      dup2\n      dup5\n      sub\n      add\n      dup2\n      mstore\n      swap2\n      swap1\n      mstore\n      0x20\n      dup2\n      add\n      dup1\n      mload\n      sub(shl(0xe0, 0x01), 0x01)\n      and\n      not(sub(shl(0xe0, 0x01), 0x01))\n      swap1\n      swap4\n      and\n      swap3\n      swap1\n      swap3\n      or\n      swap1\n      swap2\n      mstore\n      swap1\n      pop\n        /* \"@chainlink/contracts/src/v0.8/ChainlinkClient.sol\":4380:4438  _rawRequest(oracleAddress, nonce, payment, encodedRequest) */\n      tag_151\n        /* \"@chainlink/contracts/src/v0.8/ChainlinkClient.sol\":4392:4405  oracleAddress */\n      dup7\n        /* \"@chainlink/contracts/src/v0.8/ChainlinkClient.sol\":4407:4412  nonce */\n      dup4\n        /* \"@chainlink/contracts/src/v0.8/ChainlinkClient.sol\":4414:4421  payment */\n      dup7\n        /* \"@chainlink/contracts/src/v0.8/ChainlinkClient.sol\":3946:4367  abi.encodeWithSelector(... */\n      dup5\n        /* \"@chainlink/contracts/src/v0.8/ChainlinkClient.sol\":4380:4391  _rawRequest */\n      tag_152\n        /* \"@chainlink/contracts/src/v0.8/ChainlinkClient.sol\":4380:4438  _rawRequest(oracleAddress, nonce, payment, encodedRequest) */\n      jump\t// in\n    tag_151:\n        /* \"@chainlink/contracts/src/v0.8/ChainlinkClient.sol\":4373:4438  return _rawRequest(oracleAddress, nonce, payment, encodedRequest) */\n      swap7\n        /* \"@chainlink/contracts/src/v0.8/ChainlinkClient.sol\":3687:4443  function sendChainlinkRequestTo(... */\n      swap6\n      pop\n      pop\n      pop\n      pop\n      pop\n      pop\n      jump\t// out\n        /* \"@chainlink/contracts/src/v0.8/vendor/BufferChainlink.sol\":1001:1400  function init(buffer memory buf, uint256 capacity) internal pure returns (buffer memory) {... */\n    tag_140:\n      0x40\n      dup1\n      mload\n      dup1\n      dup3\n      add\n      swap1\n      swap2\n      mstore\n      0x60\n      dup2\n      mstore\n      0x00\n      0x20\n      dup3\n      add\n      mstore\n        /* \"@chainlink/contracts/src/v0.8/vendor/BufferChainlink.sol\":1100:1113  capacity % 32 */\n      tag_156\n        /* \"@chainlink/contracts/src/v0.8/vendor/BufferChainlink.sol\":1111:1113  32 */\n      0x20\n        /* \"@chainlink/contracts/src/v0.8/vendor/BufferChainlink.sol\":1100:1108  capacity */\n      dup4\n        /* \"@chainlink/contracts/src/v0.8/vendor/BufferChainlink.sol\":1100:1113  capacity % 32 */\n      tag_157\n      jump\t// in\n    tag_156:\n        /* \"@chainlink/contracts/src/v0.8/vendor/BufferChainlink.sol\":1100:1118  capacity % 32 != 0 */\n      iszero\n        /* \"@chainlink/contracts/src/v0.8/vendor/BufferChainlink.sol\":1096:1167  if (capacity % 32 != 0) {... */\n      tag_158\n      jumpi\n        /* \"@chainlink/contracts/src/v0.8/vendor/BufferChainlink.sol\":1146:1159  capacity % 32 */\n      tag_159\n        /* \"@chainlink/contracts/src/v0.8/vendor/BufferChainlink.sol\":1157:1159  32 */\n      0x20\n        /* \"@chainlink/contracts/src/v0.8/vendor/BufferChainlink.sol\":1146:1154  capacity */\n      dup4\n        /* \"@chainlink/contracts/src/v0.8/vendor/BufferChainlink.sol\":1146:1159  capacity % 32 */\n      tag_157\n      jump\t// in\n    tag_159:\n        /* \"@chainlink/contracts/src/v0.8/vendor/BufferChainlink.sol\":1140:1160  32 - (capacity % 32) */\n      tag_160\n      swap1\n        /* \"@chainlink/contracts/src/v0.8/vendor/BufferChainlink.sol\":1140:1142  32 */\n      0x20\n        /* \"@chainlink/contracts/src/v0.8/vendor/BufferChainlink.sol\":1140:1160  32 - (capacity % 32) */\n      tag_161\n      jump\t// in\n    tag_160:\n        /* \"@chainlink/contracts/src/v0.8/vendor/BufferChainlink.sol\":1128:1160  capacity += 32 - (capacity % 32) */\n      tag_162\n      swap1\n      dup4\n      tag_148\n      jump\t// in\n    tag_162:\n      swap2\n      pop\n        /* \"@chainlink/contracts/src/v0.8/vendor/BufferChainlink.sol\":1096:1167  if (capacity % 32 != 0) {... */\n    tag_158:\n      pop\n        /* \"@chainlink/contracts/src/v0.8/vendor/BufferChainlink.sol\":1214:1226  buf.capacity */\n      0x20\n      dup3\n      dup2\n      add\n        /* \"@chainlink/contracts/src/v0.8/vendor/BufferChainlink.sol\":1214:1237  buf.capacity = capacity */\n      dup3\n      swap1\n      mstore\n        /* \"@chainlink/contracts/src/v0.8/vendor/BufferChainlink.sol\":1277:1281  0x40 */\n      0x40\n        /* \"@chainlink/contracts/src/v0.8/vendor/BufferChainlink.sol\":1271:1282  mload(0x40) */\n      dup1\n      mload\n        /* \"@chainlink/contracts/src/v0.8/vendor/BufferChainlink.sol\":1289:1305  mstore(buf, ptr) */\n      dup1\n      dup6\n      mstore\n      0x00\n        /* \"@chainlink/contracts/src/v0.8/vendor/BufferChainlink.sol\":1312:1326  mstore(ptr, 0) */\n      dup2\n      mstore\n        /* \"@chainlink/contracts/src/v0.8/vendor/BufferChainlink.sol\":1354:1372  add(ptr, capacity) */\n      swap1\n      swap3\n      add\n        /* \"@chainlink/contracts/src/v0.8/vendor/BufferChainlink.sol\":1346:1373  add(32, add(ptr, capacity)) */\n      add\n        /* \"@chainlink/contracts/src/v0.8/vendor/BufferChainlink.sol\":1333:1374  mstore(0x40, add(32, add(ptr, capacity))) */\n      swap1\n      mstore\n        /* \"@chainlink/contracts/src/v0.8/vendor/BufferChainlink.sol\":1214:1226  buf.capacity */\n      swap1\n        /* \"@chainlink/contracts/src/v0.8/vendor/BufferChainlink.sol\":1001:1400  function init(buffer memory buf, uint256 capacity) internal pure returns (buffer memory) {... */\n      jump\t// out\n        /* \"@chainlink/contracts/src/v0.8/vendor/CBORChainlink.sol\":682:1307  function encodeFixedNumeric(BufferChainlink.buffer memory buf, uint8 major, uint64 value) private pure {... */\n    tag_143:\n        /* \"@chainlink/contracts/src/v0.8/vendor/CBORChainlink.sol\":803:805  23 */\n      0x17\n        /* \"@chainlink/contracts/src/v0.8/vendor/CBORChainlink.sol\":794:799  value */\n      dup2\n        /* \"@chainlink/contracts/src/v0.8/vendor/CBORChainlink.sol\":794:805  value <= 23 */\n      0xffffffffffffffff\n      and\n      gt\n        /* \"@chainlink/contracts/src/v0.8/vendor/CBORChainlink.sol\":791:1303  if(value <= 23) {... */\n      tag_164\n      jumpi\n        /* \"@chainlink/contracts/src/v0.8/vendor/CBORChainlink.sol\":815:859  buf.appendUint8(uint8((major << 5) | value)) */\n      tag_165\n        /* \"@chainlink/contracts/src/v0.8/vendor/CBORChainlink.sol\":815:818  buf */\n      dup4\n        /* \"@chainlink/contracts/src/v0.8/vendor/CBORChainlink.sol\":837:857  (major << 5) | value */\n      0xe0\n        /* \"@chainlink/contracts/src/v0.8/vendor/CBORChainlink.sol\":847:848  5 */\n      0x05\n        /* \"@chainlink/contracts/src/v0.8/vendor/CBORChainlink.sol\":838:848  major << 5 */\n      dup6\n      swap1\n      shl\n        /* \"@chainlink/contracts/src/v0.8/vendor/CBORChainlink.sol\":837:857  (major << 5) | value */\n      and\n      dup4\n      or\n        /* \"@chainlink/contracts/src/v0.8/vendor/CBORChainlink.sol\":815:830  buf.appendUint8 */\n      tag_166\n        /* \"@chainlink/contracts/src/v0.8/vendor/CBORChainlink.sol\":815:859  buf.appendUint8(uint8((major << 5) | value)) */\n      jump\t// in\n    tag_165:\n      pop\n        /* \"@chainlink/contracts/src/v0.8/Chainlink.sol\":1951:2126  function add(... */\n      pop\n      pop\n      pop\n      jump\t// out\n        /* \"@chainlink/contracts/src/v0.8/vendor/CBORChainlink.sol\":791:1303  if(value <= 23) {... */\n    tag_164:\n        /* \"@chainlink/contracts/src/v0.8/vendor/CBORChainlink.sol\":885:889  0xFF */\n      0xff\n        /* \"@chainlink/contracts/src/v0.8/vendor/CBORChainlink.sol\":876:881  value */\n      dup2\n        /* \"@chainlink/contracts/src/v0.8/vendor/CBORChainlink.sol\":876:889  value <= 0xFF */\n      0xffffffffffffffff\n      and\n      gt\n        /* \"@chainlink/contracts/src/v0.8/vendor/CBORChainlink.sol\":872:1303  if (value <= 0xFF) {... */\n      tag_168\n      jumpi\n        /* \"@chainlink/contracts/src/v0.8/vendor/CBORChainlink.sol\":899:940  buf.appendUint8(uint8((major << 5) | 24)) */\n      tag_169\n        /* \"@chainlink/contracts/src/v0.8/vendor/CBORChainlink.sol\":899:902  buf */\n      dup4\n        /* \"@chainlink/contracts/src/v0.8/vendor/CBORChainlink.sol\":936:938  24 */\n      0x18\n        /* \"@chainlink/contracts/src/v0.8/vendor/CBORChainlink.sol\":922:932  major << 5 */\n      0x1fe0\n        /* \"@chainlink/contracts/src/v0.8/vendor/CBORChainlink.sol\":931:932  5 */\n      0x05\n        /* \"@chainlink/contracts/src/v0.8/vendor/CBORChainlink.sol\":922:932  major << 5 */\n      dup7\n      swap1\n      shl\n      and\n        /* \"@chainlink/contracts/src/v0.8/vendor/CBORChainlink.sol\":921:938  (major << 5) | 24 */\n      or\n        /* \"@chainlink/contracts/src/v0.8/vendor/CBORChainlink.sol\":899:914  buf.appendUint8 */\n      tag_166\n        /* \"@chainlink/contracts/src/v0.8/vendor/CBORChainlink.sol\":899:940  buf.appendUint8(uint8((major << 5) | 24)) */\n      jump\t// in\n    tag_169:\n      pop\n        /* \"@chainlink/contracts/src/v0.8/vendor/CBORChainlink.sol\":948:971  buf.appendInt(value, 1) */\n      tag_165\n        /* \"@chainlink/contracts/src/v0.8/vendor/CBORChainlink.sol\":948:951  buf */\n      dup4\n        /* \"@chainlink/contracts/src/v0.8/vendor/CBORChainlink.sol\":948:971  buf.appendInt(value, 1) */\n      0xffffffffffffffff\n      dup4\n      and\n        /* \"@chainlink/contracts/src/v0.8/vendor/CBORChainlink.sol\":969:970  1 */\n      0x01\n        /* \"@chainlink/contracts/src/v0.8/vendor/CBORChainlink.sol\":948:961  buf.appendInt */\n      tag_171\n        /* \"@chainlink/contracts/src/v0.8/vendor/CBORChainlink.sol\":948:971  buf.appendInt(value, 1) */\n      jump\t// in\n        /* \"@chainlink/contracts/src/v0.8/vendor/CBORChainlink.sol\":872:1303  if (value <= 0xFF) {... */\n    tag_168:\n        /* \"@chainlink/contracts/src/v0.8/vendor/CBORChainlink.sol\":997:1003  0xFFFF */\n      0xffff\n        /* \"@chainlink/contracts/src/v0.8/vendor/CBORChainlink.sol\":988:993  value */\n      dup2\n        /* \"@chainlink/contracts/src/v0.8/vendor/CBORChainlink.sol\":988:1003  value <= 0xFFFF */\n      0xffffffffffffffff\n      and\n      gt\n        /* \"@chainlink/contracts/src/v0.8/vendor/CBORChainlink.sol\":984:1303  if (value <= 0xFFFF) {... */\n      tag_173\n      jumpi\n        /* \"@chainlink/contracts/src/v0.8/vendor/CBORChainlink.sol\":1013:1054  buf.appendUint8(uint8((major << 5) | 25)) */\n      tag_174\n        /* \"@chainlink/contracts/src/v0.8/vendor/CBORChainlink.sol\":1013:1016  buf */\n      dup4\n        /* \"@chainlink/contracts/src/v0.8/vendor/CBORChainlink.sol\":1050:1052  25 */\n      0x19\n        /* \"@chainlink/contracts/src/v0.8/vendor/CBORChainlink.sol\":1036:1046  major << 5 */\n      0x1fe0\n        /* \"@chainlink/contracts/src/v0.8/vendor/CBORChainlink.sol\":1045:1046  5 */\n      0x05\n        /* \"@chainlink/contracts/src/v0.8/vendor/CBORChainlink.sol\":1036:1046  major << 5 */\n      dup7\n      swap1\n      shl\n      and\n        /* \"@chainlink/contracts/src/v0.8/vendor/CBORChainlink.sol\":1035:1052  (major << 5) | 25 */\n      or\n        /* \"@chainlink/contracts/src/v0.8/vendor/CBORChainlink.sol\":1013:1028  buf.appendUint8 */\n      tag_166\n        /* \"@chainlink/contracts/src/v0.8/vendor/CBORChainlink.sol\":1013:1054  buf.appendUint8(uint8((major << 5) | 25)) */\n      jump\t// in\n    tag_174:\n      pop\n        /* \"@chainlink/contracts/src/v0.8/vendor/CBORChainlink.sol\":1062:1085  buf.appendInt(value, 2) */\n      tag_165\n        /* \"@chainlink/contracts/src/v0.8/vendor/CBORChainlink.sol\":1062:1065  buf */\n      dup4\n        /* \"@chainlink/contracts/src/v0.8/vendor/CBORChainlink.sol\":1062:1085  buf.appendInt(value, 2) */\n      0xffffffffffffffff\n      dup4\n      and\n        /* \"@chainlink/contracts/src/v0.8/vendor/CBORChainlink.sol\":1083:1084  2 */\n      0x02\n        /* \"@chainlink/contracts/src/v0.8/vendor/CBORChainlink.sol\":1062:1075  buf.appendInt */\n      tag_171\n        /* \"@chainlink/contracts/src/v0.8/vendor/CBORChainlink.sol\":1062:1085  buf.appendInt(value, 2) */\n      jump\t// in\n        /* \"@chainlink/contracts/src/v0.8/vendor/CBORChainlink.sol\":984:1303  if (value <= 0xFFFF) {... */\n    tag_173:\n        /* \"@chainlink/contracts/src/v0.8/vendor/CBORChainlink.sol\":1111:1121  0xFFFFFFFF */\n      0xffffffff\n        /* \"@chainlink/contracts/src/v0.8/vendor/CBORChainlink.sol\":1102:1107  value */\n      dup2\n        /* \"@chainlink/contracts/src/v0.8/vendor/CBORChainlink.sol\":1102:1121  value <= 0xFFFFFFFF */\n      0xffffffffffffffff\n      and\n      gt\n        /* \"@chainlink/contracts/src/v0.8/vendor/CBORChainlink.sol\":1098:1303  if (value <= 0xFFFFFFFF) {... */\n      tag_177\n      jumpi\n        /* \"@chainlink/contracts/src/v0.8/vendor/CBORChainlink.sol\":1131:1172  buf.appendUint8(uint8((major << 5) | 26)) */\n      tag_178\n        /* \"@chainlink/contracts/src/v0.8/vendor/CBORChainlink.sol\":1131:1134  buf */\n      dup4\n        /* \"@chainlink/contracts/src/v0.8/vendor/CBORChainlink.sol\":1168:1170  26 */\n      0x1a\n        /* \"@chainlink/contracts/src/v0.8/vendor/CBORChainlink.sol\":1154:1164  major << 5 */\n      0x1fe0\n        /* \"@chainlink/contracts/src/v0.8/vendor/CBORChainlink.sol\":1163:1164  5 */\n      0x05\n        /* \"@chainlink/contracts/src/v0.8/vendor/CBORChainlink.sol\":1154:1164  major << 5 */\n      dup7\n      swap1\n      shl\n      and\n        /* \"@chainlink/contracts/src/v0.8/vendor/CBORChainlink.sol\":1153:1170  (major << 5) | 26 */\n      or\n        /* \"@chainlink/contracts/src/v0.8/vendor/CBORChainlink.sol\":1131:1146  buf.appendUint8 */\n      tag_166\n        /* \"@chainlink/contracts/src/v0.8/vendor/CBORChainlink.sol\":1131:1172  buf.appendUint8(uint8((major << 5) | 26)) */\n      jump\t// in\n    tag_178:\n      pop\n        /* \"@chainlink/contracts/src/v0.8/vendor/CBORChainlink.sol\":1180:1203  buf.appendInt(value, 4) */\n      tag_165\n        /* \"@chainlink/contracts/src/v0.8/vendor/CBORChainlink.sol\":1180:1183  buf */\n      dup4\n        /* \"@chainlink/contracts/src/v0.8/vendor/CBORChainlink.sol\":1180:1203  buf.appendInt(value, 4) */\n      0xffffffffffffffff\n      dup4\n      and\n        /* \"@chainlink/contracts/src/v0.8/vendor/CBORChainlink.sol\":1201:1202  4 */\n      0x04\n        /* \"@chainlink/contracts/src/v0.8/vendor/CBORChainlink.sol\":1180:1193  buf.appendInt */\n      tag_171\n        /* \"@chainlink/contracts/src/v0.8/vendor/CBORChainlink.sol\":1180:1203  buf.appendInt(value, 4) */\n      jump\t// in\n        /* \"@chainlink/contracts/src/v0.8/vendor/CBORChainlink.sol\":1098:1303  if (value <= 0xFFFFFFFF) {... */\n    tag_177:\n        /* \"@chainlink/contracts/src/v0.8/vendor/CBORChainlink.sol\":1224:1265  buf.appendUint8(uint8((major << 5) | 27)) */\n      tag_181\n        /* \"@chainlink/contracts/src/v0.8/vendor/CBORChainlink.sol\":1224:1227  buf */\n      dup4\n        /* \"@chainlink/contracts/src/v0.8/vendor/CBORChainlink.sol\":1261:1263  27 */\n      0x1b\n        /* \"@chainlink/contracts/src/v0.8/vendor/CBORChainlink.sol\":1247:1257  major << 5 */\n      0x1fe0\n        /* \"@chainlink/contracts/src/v0.8/vendor/CBORChainlink.sol\":1256:1257  5 */\n      0x05\n        /* \"@chainlink/contracts/src/v0.8/vendor/CBORChainlink.sol\":1247:1257  major << 5 */\n      dup7\n      swap1\n      shl\n      and\n        /* \"@chainlink/contracts/src/v0.8/vendor/CBORChainlink.sol\":1246:1263  (major << 5) | 27 */\n      or\n        /* \"@chainlink/contracts/src/v0.8/vendor/CBORChainlink.sol\":1224:1239  buf.appendUint8 */\n      tag_166\n        /* \"@chainlink/contracts/src/v0.8/vendor/CBORChainlink.sol\":1224:1265  buf.appendUint8(uint8((major << 5) | 27)) */\n      jump\t// in\n    tag_181:\n      pop\n        /* \"@chainlink/contracts/src/v0.8/vendor/CBORChainlink.sol\":1273:1296  buf.appendInt(value, 8) */\n      tag_165\n        /* \"@chainlink/contracts/src/v0.8/vendor/CBORChainlink.sol\":1273:1276  buf */\n      dup4\n        /* \"@chainlink/contracts/src/v0.8/vendor/CBORChainlink.sol\":1273:1296  buf.appendInt(value, 8) */\n      0xffffffffffffffff\n      dup4\n      and\n        /* \"@chainlink/contracts/src/v0.8/vendor/CBORChainlink.sol\":1294:1295  8 */\n      0x08\n        /* \"@chainlink/contracts/src/v0.8/vendor/CBORChainlink.sol\":1273:1286  buf.appendInt */\n      tag_171\n        /* \"@chainlink/contracts/src/v0.8/vendor/CBORChainlink.sol\":1273:1296  buf.appendInt(value, 8) */\n      jump\t// in\n        /* \"@chainlink/contracts/src/v0.8/vendor/BufferChainlink.sol\":4692:4847  function append(buffer memory buf, bytes memory data) internal pure returns (buffer memory) {... */\n    tag_145:\n      0x40\n      dup1\n      mload\n      dup1\n      dup3\n      add\n      swap1\n      swap2\n      mstore\n      0x60\n      dup2\n      mstore\n      0x00\n      0x20\n      dup3\n      add\n      mstore\n        /* \"@chainlink/contracts/src/v0.8/vendor/BufferChainlink.sol\":4797:4842  write(buf, buf.buf.length, data, data.length) */\n      tag_126\n        /* \"@chainlink/contracts/src/v0.8/vendor/BufferChainlink.sol\":4803:4806  buf */\n      dup4\n        /* \"@chainlink/contracts/src/v0.8/vendor/BufferChainlink.sol\":4808:4811  buf */\n      dup5\n        /* \"@chainlink/contracts/src/v0.8/vendor/BufferChainlink.sol\":4808:4815  buf.buf */\n      0x00\n      add\n      mload\n        /* \"@chainlink/contracts/src/v0.8/vendor/BufferChainlink.sol\":4808:4822  buf.buf.length */\n      mload\n        /* \"@chainlink/contracts/src/v0.8/vendor/BufferChainlink.sol\":4824:4828  data */\n      dup5\n        /* \"@chainlink/contracts/src/v0.8/vendor/BufferChainlink.sol\":4830:4834  data */\n      dup6\n        /* \"@chainlink/contracts/src/v0.8/vendor/BufferChainlink.sol\":4830:4841  data.length */\n      mload\n        /* \"@chainlink/contracts/src/v0.8/vendor/BufferChainlink.sol\":4797:4802  write */\n      tag_186\n        /* \"@chainlink/contracts/src/v0.8/vendor/BufferChainlink.sol\":4797:4842  write(buf, buf.buf.length, data, data.length) */\n      jump\t// in\n        /* \"@chainlink/contracts/src/v0.8/ChainlinkClient.sol\":6629:7059  function _rawRequest(... */\n    tag_152:\n        /* \"@chainlink/contracts/src/v0.8/ChainlinkClient.sol\":6818:6847  abi.encodePacked(this, nonce) */\n      mload(0x40)\n      not(0xffffffffffffffffffffffff)\n        /* \"@chainlink/contracts/src/v0.8/ChainlinkClient.sol\":6835:6839  this */\n      address\n        /* \"#utility.yul\":7010:7012   */\n      0x60\n        /* \"#utility.yul\":7006:7021   */\n      shl\n        /* \"#utility.yul\":7002:7055   */\n      and\n        /* \"@chainlink/contracts/src/v0.8/ChainlinkClient.sol\":6818:6847  abi.encodePacked(this, nonce) */\n      0x20\n      dup3\n      add\n        /* \"#utility.yul\":6990:7056   */\n      mstore\n        /* \"#utility.yul\":7072:7084   */\n      0x34\n      dup2\n      add\n        /* \"#utility.yul\":7065:7093   */\n      dup5\n      swap1\n      mstore\n        /* \"@chainlink/contracts/src/v0.8/ChainlinkClient.sol\":6771:6788  bytes32 requestId */\n      0x00\n      swap1\n        /* \"#utility.yul\":7109:7121   */\n      0x54\n      add\n        /* \"@chainlink/contracts/src/v0.8/ChainlinkClient.sol\":6818:6847  abi.encodePacked(this, nonce) */\n      0x40\n      dup1\n      mload\n      dup1\n      dup4\n      sub\n      not(0x1f)\n      add\n      dup2\n      mstore\n      dup3\n      dup3\n      mstore\n        /* \"@chainlink/contracts/src/v0.8/ChainlinkClient.sol\":6808:6848  keccak256(abi.encodePacked(this, nonce)) */\n      dup1\n      mload\n        /* \"@chainlink/contracts/src/v0.8/ChainlinkClient.sol\":6818:6847  abi.encodePacked(this, nonce) */\n      0x20\n        /* \"@chainlink/contracts/src/v0.8/ChainlinkClient.sol\":6808:6848  keccak256(abi.encodePacked(this, nonce)) */\n      swap2\n      dup3\n      add\n      keccak256\n        /* \"@chainlink/contracts/src/v0.8/ChainlinkClient.sol\":6854:6882  s_pendingRequests[requestId] */\n      0x00\n      dup2\n      dup2\n      mstore\n        /* \"@chainlink/contracts/src/v0.8/ChainlinkClient.sol\":6854:6871  s_pendingRequests */\n      0x05\n        /* \"@chainlink/contracts/src/v0.8/ChainlinkClient.sol\":6854:6882  s_pendingRequests[requestId] */\n      swap1\n      swap3\n      mstore\n      swap2\n      dup2\n      keccak256\n        /* \"@chainlink/contracts/src/v0.8/ChainlinkClient.sol\":6854:6898  s_pendingRequests[requestId] = oracleAddress */\n      dup1\n      sload\n      not(sub(shl(0xa0, 0x01), 0x01))\n      and\n      sub(shl(0xa0, 0x01), 0x01)\n      dup11\n      and\n      or\n      swap1\n      sstore\n        /* \"@chainlink/contracts/src/v0.8/ChainlinkClient.sol\":6808:6848  keccak256(abi.encodePacked(this, nonce)) */\n      swap1\n      swap3\n      pop\n      dup3\n      swap2\n        /* \"@chainlink/contracts/src/v0.8/ChainlinkClient.sol\":6909:6938  ChainlinkRequested(requestId) */\n      0xb5e6e01e79f91267dc17b4e6314d5d4d03593d2ceee0fbb452b750bd70ea5af9\n      swap2\n        /* \"@chainlink/contracts/src/v0.8/ChainlinkClient.sol\":6854:6882  s_pendingRequests[requestId] */\n      swap1\n        /* \"@chainlink/contracts/src/v0.8/ChainlinkClient.sol\":6909:6938  ChainlinkRequested(requestId) */\n      log2\n        /* \"@chainlink/contracts/src/v0.8/ChainlinkClient.sol\":6952:6958  s_link */\n      sload(0x02)\n        /* \"@chainlink/contracts/src/v0.8/ChainlinkClient.sol\":6952:7014  s_link.transferAndCall(oracleAddress, payment, encodedRequest) */\n      mload(0x40)\n      shl(0xe5, 0x02000575)\n      dup2\n      mstore\n      sub(shl(0xa0, 0x01), 0x01)\n        /* \"@chainlink/contracts/src/v0.8/ChainlinkClient.sol\":6952:6958  s_link */\n      swap1\n      swap2\n      and\n      swap1\n        /* \"@chainlink/contracts/src/v0.8/ChainlinkClient.sol\":6952:6974  s_link.transferAndCall */\n      0x4000aea0\n      swap1\n        /* \"@chainlink/contracts/src/v0.8/ChainlinkClient.sol\":6952:7014  s_link.transferAndCall(oracleAddress, payment, encodedRequest) */\n      tag_190\n      swap1\n        /* \"@chainlink/contracts/src/v0.8/ChainlinkClient.sol\":6975:6988  oracleAddress */\n      dup9\n      swap1\n        /* \"@chainlink/contracts/src/v0.8/ChainlinkClient.sol\":6990:6997  payment */\n      dup8\n      swap1\n        /* \"@chainlink/contracts/src/v0.8/ChainlinkClient.sol\":6999:7013  encodedRequest */\n      dup8\n      swap1\n        /* \"@chainlink/contracts/src/v0.8/ChainlinkClient.sol\":6952:7014  s_link.transferAndCall(oracleAddress, payment, encodedRequest) */\n      0x04\n      add\n      tag_191\n      jump\t// in\n    tag_190:\n      0x20\n      mload(0x40)\n      dup1\n      dup4\n      sub\n      dup2\n      0x00\n      dup8\n      gas\n      call\n      iszero\n      dup1\n      iszero\n      tag_193\n      jumpi\n      returndatasize\n      0x00\n      dup1\n      returndatacopy\n      revert(0x00, returndatasize)\n    tag_193:\n      pop\n      pop\n      pop\n      pop\n      mload(0x40)\n      returndatasize\n      not(0x1f)\n      0x1f\n      dup3\n      add\n      and\n      dup3\n      add\n      dup1\n      0x40\n      mstore\n      pop\n      dup2\n      add\n      swap1\n      tag_194\n      swap2\n      swap1\n      tag_94\n      jump\t// in\n    tag_194:\n        /* \"@chainlink/contracts/src/v0.8/ChainlinkClient.sol\":6944:7054  require(s_link.transferAndCall(oracleAddress, payment, encodedRequest), \"unable to transferAndCall to oracle\") */\n      tag_138\n      jumpi\n      mload(0x40)\n      shl(0xe5, 0x461bcd)\n      dup2\n      mstore\n        /* \"#utility.yul\":7725:7727   */\n      0x20\n        /* \"@chainlink/contracts/src/v0.8/ChainlinkClient.sol\":6944:7054  require(s_link.transferAndCall(oracleAddress, payment, encodedRequest), \"unable to transferAndCall to oracle\") */\n      0x04\n      dup3\n      add\n        /* \"#utility.yul\":7707:7728   */\n      mstore\n        /* \"#utility.yul\":7764:7766   */\n      0x23\n        /* \"#utility.yul\":7744:7762   */\n      0x24\n      dup3\n      add\n        /* \"#utility.yul\":7737:7767   */\n      mstore\n        /* \"#utility.yul\":7803:7837   */\n      0x756e61626c6520746f207472616e73666572416e6443616c6c20746f206f7261\n        /* \"#utility.yul\":7783:7801   */\n      0x44\n      dup3\n      add\n        /* \"#utility.yul\":7776:7838   */\n      mstore\n      shl(0xe8, 0x636c65)\n        /* \"#utility.yul\":7854:7872   */\n      0x64\n      dup3\n      add\n        /* \"#utility.yul\":7847:7880   */\n      mstore\n        /* \"#utility.yul\":7897:7916   */\n      0x84\n      add\n        /* \"@chainlink/contracts/src/v0.8/ChainlinkClient.sol\":6944:7054  require(s_link.transferAndCall(oracleAddress, payment, encodedRequest), \"unable to transferAndCall to oracle\") */\n      tag_75\n        /* \"#utility.yul\":7523:7922   */\n      jump\n        /* \"@chainlink/contracts/src/v0.8/vendor/BufferChainlink.sol\":6040:6185  function appendUint8(buffer memory buf, uint8 data) internal pure returns (buffer memory) {... */\n    tag_166:\n      0x40\n      dup1\n      mload\n      dup1\n      dup3\n      add\n      swap1\n      swap2\n      mstore\n      0x60\n      dup2\n      mstore\n      0x00\n      0x20\n      dup3\n      add\n      mstore\n        /* \"@chainlink/contracts/src/v0.8/vendor/BufferChainlink.sol\":6143:6180  writeUint8(buf, buf.buf.length, data) */\n      tag_126\n        /* \"@chainlink/contracts/src/v0.8/vendor/BufferChainlink.sol\":6154:6157  buf */\n      dup4\n        /* \"@chainlink/contracts/src/v0.8/vendor/BufferChainlink.sol\":6159:6162  buf */\n      dup5\n        /* \"@chainlink/contracts/src/v0.8/vendor/BufferChainlink.sol\":6159:6166  buf.buf */\n      0x00\n      add\n      mload\n        /* \"@chainlink/contracts/src/v0.8/vendor/BufferChainlink.sol\":6159:6173  buf.buf.length */\n      mload\n        /* \"@chainlink/contracts/src/v0.8/vendor/BufferChainlink.sol\":6175:6179  data */\n      dup5\n        /* \"@chainlink/contracts/src/v0.8/vendor/BufferChainlink.sol\":6143:6153  writeUint8 */\n      tag_201\n        /* \"@chainlink/contracts/src/v0.8/vendor/BufferChainlink.sol\":6143:6180  writeUint8(buf, buf.buf.length, data) */\n      jump\t// in\n        /* \"@chainlink/contracts/src/v0.8/vendor/BufferChainlink.sol\":9894:10071  function appendInt(... */\n    tag_171:\n      0x40\n      dup1\n      mload\n      dup1\n      dup3\n      add\n      swap1\n      swap2\n      mstore\n      0x60\n      dup2\n      mstore\n      0x00\n      0x20\n      dup3\n      add\n      mstore\n        /* \"@chainlink/contracts/src/v0.8/vendor/BufferChainlink.sol\":10026:10066  writeInt(buf, buf.buf.length, data, len) */\n      tag_138\n        /* \"@chainlink/contracts/src/v0.8/vendor/BufferChainlink.sol\":10035:10038  buf */\n      dup5\n        /* \"@chainlink/contracts/src/v0.8/vendor/BufferChainlink.sol\":10040:10043  buf */\n      dup6\n        /* \"@chainlink/contracts/src/v0.8/vendor/BufferChainlink.sol\":10040:10047  buf.buf */\n      0x00\n      add\n      mload\n        /* \"@chainlink/contracts/src/v0.8/vendor/BufferChainlink.sol\":10040:10054  buf.buf.length */\n      mload\n        /* \"@chainlink/contracts/src/v0.8/vendor/BufferChainlink.sol\":10056:10060  data */\n      dup6\n        /* \"@chainlink/contracts/src/v0.8/vendor/BufferChainlink.sol\":10062:10065  len */\n      dup6\n        /* \"@chainlink/contracts/src/v0.8/vendor/BufferChainlink.sol\":10026:10034  writeInt */\n      tag_205\n        /* \"@chainlink/contracts/src/v0.8/vendor/BufferChainlink.sol\":10026:10066  writeInt(buf, buf.buf.length, data, len) */\n      jump\t// in\n        /* \"@chainlink/contracts/src/v0.8/vendor/BufferChainlink.sol\":2745:3955  function write(... */\n    tag_186:\n      0x40\n      dup1\n      mload\n      dup1\n      dup3\n      add\n      swap1\n      swap2\n      mstore\n      0x60\n      dup2\n      mstore\n      0x00\n      0x20\n      dup3\n      add\n      mstore\n        /* \"@chainlink/contracts/src/v0.8/vendor/BufferChainlink.sol\":2903:2907  data */\n      dup3\n        /* \"@chainlink/contracts/src/v0.8/vendor/BufferChainlink.sol\":2903:2914  data.length */\n      mload\n        /* \"@chainlink/contracts/src/v0.8/vendor/BufferChainlink.sol\":2896:2899  len */\n      dup3\n        /* \"@chainlink/contracts/src/v0.8/vendor/BufferChainlink.sol\":2896:2914  len <= data.length */\n      gt\n      iszero\n        /* \"@chainlink/contracts/src/v0.8/vendor/BufferChainlink.sol\":2888:2915  require(len <= data.length) */\n      tag_208\n      jumpi\n      0x00\n      dup1\n      revert\n    tag_208:\n        /* \"@chainlink/contracts/src/v0.8/vendor/BufferChainlink.sol\":2938:2950  buf.capacity */\n      0x20\n      dup6\n      add\n      mload\n        /* \"@chainlink/contracts/src/v0.8/vendor/BufferChainlink.sol\":2926:2935  off + len */\n      tag_209\n        /* \"@chainlink/contracts/src/v0.8/vendor/BufferChainlink.sol\":2932:2935  len */\n      dup4\n        /* \"@chainlink/contracts/src/v0.8/vendor/BufferChainlink.sol\":2926:2929  off */\n      dup7\n        /* \"@chainlink/contracts/src/v0.8/vendor/BufferChainlink.sol\":2926:2935  off + len */\n      tag_148\n      jump\t// in\n    tag_209:\n        /* \"@chainlink/contracts/src/v0.8/vendor/BufferChainlink.sol\":2926:2950  off + len > buf.capacity */\n      gt\n        /* \"@chainlink/contracts/src/v0.8/vendor/BufferChainlink.sol\":2922:3012  if (off + len > buf.capacity) {... */\n      iszero\n      tag_211\n      jumpi\n        /* \"@chainlink/contracts/src/v0.8/vendor/BufferChainlink.sol\":2960:3005  resize(buf, max(buf.capacity, len + off) * 2) */\n      tag_211\n        /* \"@chainlink/contracts/src/v0.8/vendor/BufferChainlink.sol\":2967:2970  buf */\n      dup6\n        /* \"@chainlink/contracts/src/v0.8/vendor/BufferChainlink.sol\":2972:3000  max(buf.capacity, len + off) */\n      tag_212\n        /* \"@chainlink/contracts/src/v0.8/vendor/BufferChainlink.sol\":2976:2979  buf */\n      dup8\n        /* \"@chainlink/contracts/src/v0.8/vendor/BufferChainlink.sol\":2976:2988  buf.capacity */\n      0x20\n      add\n      mload\n        /* \"@chainlink/contracts/src/v0.8/vendor/BufferChainlink.sol\":2996:2999  off */\n      dup8\n        /* \"@chainlink/contracts/src/v0.8/vendor/BufferChainlink.sol\":2990:2993  len */\n      dup7\n        /* \"@chainlink/contracts/src/v0.8/vendor/BufferChainlink.sol\":2990:2999  len + off */\n      tag_213\n      swap2\n      swap1\n      tag_148\n      jump\t// in\n    tag_213:\n        /* \"@chainlink/contracts/src/v0.8/vendor/BufferChainlink.sol\":2972:2975  max */\n      tag_214\n        /* \"@chainlink/contracts/src/v0.8/vendor/BufferChainlink.sol\":2972:3000  max(buf.capacity, len + off) */\n      jump\t// in\n    tag_212:\n        /* \"@chainlink/contracts/src/v0.8/vendor/BufferChainlink.sol\":2972:3004  max(buf.capacity, len + off) * 2 */\n      tag_215\n      swap1\n        /* \"@chainlink/contracts/src/v0.8/vendor/BufferChainlink.sol\":3003:3004  2 */\n      0x02\n        /* \"@chainlink/contracts/src/v0.8/vendor/BufferChainlink.sol\":2972:3004  max(buf.capacity, len + off) * 2 */\n      tag_216\n      jump\t// in\n    tag_215:\n        /* \"@chainlink/contracts/src/v0.8/vendor/BufferChainlink.sol\":2960:2966  resize */\n      tag_217\n        /* \"@chainlink/contracts/src/v0.8/vendor/BufferChainlink.sol\":2960:3005  resize(buf, max(buf.capacity, len + off) * 2) */\n      jump\t// in\n    tag_211:\n        /* \"@chainlink/contracts/src/v0.8/vendor/BufferChainlink.sol\":3018:3030  uint256 dest */\n      0x00\n        /* \"@chainlink/contracts/src/v0.8/vendor/BufferChainlink.sol\":3036:3047  uint256 src */\n      dup1\n        /* \"@chainlink/contracts/src/v0.8/vendor/BufferChainlink.sol\":3133:3136  buf */\n      dup7\n        /* \"@chainlink/contracts/src/v0.8/vendor/BufferChainlink.sol\":3127:3137  mload(buf) */\n      mload\n        /* \"@chainlink/contracts/src/v0.8/vendor/BufferChainlink.sol\":3204:3210  bufptr */\n      dup1\n        /* \"@chainlink/contracts/src/v0.8/vendor/BufferChainlink.sol\":3198:3211  mload(bufptr) */\n      mload\n        /* \"@chainlink/contracts/src/v0.8/vendor/BufferChainlink.sol\":3320:3323  off */\n      dup8\n        /* \"@chainlink/contracts/src/v0.8/vendor/BufferChainlink.sol\":3315:3317  32 */\n      0x20\n        /* \"@chainlink/contracts/src/v0.8/vendor/BufferChainlink.sol\":3307:3313  bufptr */\n      dup4\n        /* \"@chainlink/contracts/src/v0.8/vendor/BufferChainlink.sol\":3303:3318  add(bufptr, 32) */\n      add\n        /* \"@chainlink/contracts/src/v0.8/vendor/BufferChainlink.sol\":3299:3324  add(add(bufptr, 32), off) */\n      add\n        /* \"@chainlink/contracts/src/v0.8/vendor/BufferChainlink.sol\":3291:3324  dest := add(add(bufptr, 32), off) */\n      swap4\n      pop\n        /* \"@chainlink/contracts/src/v0.8/vendor/BufferChainlink.sol\":3404:3410  buflen */\n      dup1\n        /* \"@chainlink/contracts/src/v0.8/vendor/BufferChainlink.sol\":3398:3401  off */\n      dup9\n        /* \"@chainlink/contracts/src/v0.8/vendor/BufferChainlink.sol\":3393:3396  len */\n      dup8\n        /* \"@chainlink/contracts/src/v0.8/vendor/BufferChainlink.sol\":3389:3402  add(len, off) */\n      add\n        /* \"@chainlink/contracts/src/v0.8/vendor/BufferChainlink.sol\":3386:3411  gt(add(len, off), buflen) */\n      gt\n        /* \"@chainlink/contracts/src/v0.8/vendor/BufferChainlink.sol\":3383:3459  if gt(add(len, off), buflen) {... */\n      iszero\n      tag_218\n      jumpi\n        /* \"@chainlink/contracts/src/v0.8/vendor/BufferChainlink.sol\":3446:3449  off */\n      dup8\n        /* \"@chainlink/contracts/src/v0.8/vendor/BufferChainlink.sol\":3441:3444  len */\n      dup7\n        /* \"@chainlink/contracts/src/v0.8/vendor/BufferChainlink.sol\":3437:3450  add(len, off) */\n      add\n        /* \"@chainlink/contracts/src/v0.8/vendor/BufferChainlink.sol\":3429:3435  bufptr */\n      dup3\n        /* \"@chainlink/contracts/src/v0.8/vendor/BufferChainlink.sol\":3422:3451  mstore(bufptr, add(len, off)) */\n      mstore\n        /* \"@chainlink/contracts/src/v0.8/vendor/BufferChainlink.sol\":3383:3459  if gt(add(len, off), buflen) {... */\n    tag_218:\n      pop\n      pop\n      pop\n        /* \"@chainlink/contracts/src/v0.8/vendor/BufferChainlink.sol\":3483:3485  32 */\n      0x20\n        /* \"@chainlink/contracts/src/v0.8/vendor/BufferChainlink.sol\":3473:3486  add(data, 32) */\n      dup5\n      add\n        /* \"@chainlink/contracts/src/v0.8/vendor/BufferChainlink.sol\":3544:3673  for (; len >= 32; len -= 32) {... */\n    tag_219:\n        /* \"@chainlink/contracts/src/v0.8/vendor/BufferChainlink.sol\":3558:3560  32 */\n      0x20\n        /* \"@chainlink/contracts/src/v0.8/vendor/BufferChainlink.sol\":3551:3554  len */\n      dup5\n        /* \"@chainlink/contracts/src/v0.8/vendor/BufferChainlink.sol\":3551:3560  len >= 32 */\n      lt\n        /* \"@chainlink/contracts/src/v0.8/vendor/BufferChainlink.sol\":3544:3673  for (; len >= 32; len -= 32) {... */\n      tag_220\n      jumpi\n        /* \"@chainlink/contracts/src/v0.8/vendor/BufferChainlink.sol\":3613:3623  mload(src) */\n      dup1\n      mload\n        /* \"@chainlink/contracts/src/v0.8/vendor/BufferChainlink.sol\":3600:3624  mstore(dest, mload(src)) */\n      dup3\n      mstore\n        /* \"@chainlink/contracts/src/v0.8/vendor/BufferChainlink.sol\":3639:3649  dest += 32 */\n      tag_222\n        /* \"@chainlink/contracts/src/v0.8/vendor/BufferChainlink.sol\":3647:3649  32 */\n      0x20\n        /* \"@chainlink/contracts/src/v0.8/vendor/BufferChainlink.sol\":3607:3611  dest */\n      dup4\n        /* \"@chainlink/contracts/src/v0.8/vendor/BufferChainlink.sol\":3639:3649  dest += 32 */\n      tag_148\n      jump\t// in\n    tag_222:\n      swap2\n      pop\n        /* \"@chainlink/contracts/src/v0.8/vendor/BufferChainlink.sol\":3657:3666  src += 32 */\n      tag_223\n        /* \"@chainlink/contracts/src/v0.8/vendor/BufferChainlink.sol\":3664:3666  32 */\n      0x20\n        /* \"@chainlink/contracts/src/v0.8/vendor/BufferChainlink.sol\":3657:3666  src += 32 */\n      dup3\n      tag_148\n      jump\t// in\n    tag_223:\n      swap1\n      pop\n        /* \"@chainlink/contracts/src/v0.8/vendor/BufferChainlink.sol\":3562:3571  len -= 32 */\n      tag_224\n        /* \"@chainlink/contracts/src/v0.8/vendor/BufferChainlink.sol\":3569:3571  32 */\n      0x20\n        /* \"@chainlink/contracts/src/v0.8/vendor/BufferChainlink.sol\":3562:3571  len -= 32 */\n      dup6\n      tag_161\n      jump\t// in\n    tag_224:\n      swap4\n      pop\n        /* \"@chainlink/contracts/src/v0.8/vendor/BufferChainlink.sol\":3544:3673  for (; len >= 32; len -= 32) {... */\n      jump(tag_219)\n    tag_220:\n        /* \"@chainlink/contracts/src/v0.8/vendor/BufferChainlink.sol\":3807:3817  mload(src) */\n      mload\n        /* \"@chainlink/contracts/src/v0.8/vendor/BufferChainlink.sol\":3858:3869  mload(dest) */\n      dup2\n      mload\n      not(0x00)\n        /* \"@chainlink/contracts/src/v0.8/vendor/BufferChainlink.sol\":3747:3749  32 */\n      0x20\n        /* \"@chainlink/contracts/src/v0.8/vendor/BufferChainlink.sol\":3747:3755  32 - len */\n      dup7\n      swap1\n      sub\n        /* \"@chainlink/contracts/src/v0.8/vendor/BufferChainlink.sol\":3741:3744  256 */\n      0x0100\n        /* \"@chainlink/contracts/src/v0.8/vendor/BufferChainlink.sol\":3741:3756  256**(32 - len) */\n      exp\n        /* \"@chainlink/contracts/src/v0.8/vendor/BufferChainlink.sol\":3740:3761  (256**(32 - len)) - 1 */\n      add\n        /* \"@chainlink/contracts/src/v0.8/vendor/BufferChainlink.sol\":3854:3876  and(mload(dest), mask) */\n      swap1\n      dup2\n      and\n        /* \"@chainlink/contracts/src/v0.8/vendor/BufferChainlink.sol\":3819:3828  not(mask) */\n      swap1\n      not\n        /* \"@chainlink/contracts/src/v0.8/vendor/BufferChainlink.sol\":3803:3829  and(mload(src), not(mask)) */\n      swap2\n      swap1\n      swap2\n      and\n        /* \"@chainlink/contracts/src/v0.8/vendor/BufferChainlink.sol\":3898:3919  or(destpart, srcpart) */\n      or\n        /* \"@chainlink/contracts/src/v0.8/vendor/BufferChainlink.sol\":3885:3920  mstore(dest, or(destpart, srcpart)) */\n      swap1\n      mstore\n      pop\n        /* \"@chainlink/contracts/src/v0.8/vendor/BufferChainlink.sol\":3947:3950  buf */\n      dup4\n        /* \"@chainlink/contracts/src/v0.8/vendor/BufferChainlink.sol\":2745:3955  function write(... */\n      swap5\n      swap4\n      pop\n      pop\n      pop\n      pop\n      jump\t// out\n        /* \"@chainlink/contracts/src/v0.8/vendor/BufferChainlink.sol\":5148:5787  function writeUint8(... */\n    tag_201:\n      0x40\n      dup1\n      mload\n      dup1\n      dup3\n      add\n      swap1\n      swap2\n      mstore\n      0x60\n      dup2\n      mstore\n      0x00\n      0x20\n      dup3\n      add\n      mstore\n        /* \"@chainlink/contracts/src/v0.8/vendor/BufferChainlink.sol\":5283:5286  buf */\n      dup4\n        /* \"@chainlink/contracts/src/v0.8/vendor/BufferChainlink.sol\":5283:5295  buf.capacity */\n      0x20\n      add\n      mload\n        /* \"@chainlink/contracts/src/v0.8/vendor/BufferChainlink.sol\":5276:5279  off */\n      dup4\n        /* \"@chainlink/contracts/src/v0.8/vendor/BufferChainlink.sol\":5276:5295  off >= buf.capacity */\n      lt\n        /* \"@chainlink/contracts/src/v0.8/vendor/BufferChainlink.sol\":5272:5341  if (off >= buf.capacity) {... */\n      tag_228\n      jumpi\n        /* \"@chainlink/contracts/src/v0.8/vendor/BufferChainlink.sol\":5305:5334  resize(buf, buf.capacity * 2) */\n      tag_228\n        /* \"@chainlink/contracts/src/v0.8/vendor/BufferChainlink.sol\":5312:5315  buf */\n      dup5\n        /* \"@chainlink/contracts/src/v0.8/vendor/BufferChainlink.sol\":5317:5320  buf */\n      dup6\n        /* \"@chainlink/contracts/src/v0.8/vendor/BufferChainlink.sol\":5317:5329  buf.capacity */\n      0x20\n      add\n      mload\n        /* \"@chainlink/contracts/src/v0.8/vendor/BufferChainlink.sol\":5332:5333  2 */\n      0x02\n        /* \"@chainlink/contracts/src/v0.8/vendor/BufferChainlink.sol\":5317:5333  buf.capacity * 2 */\n      tag_215\n      swap2\n      swap1\n      tag_216\n      jump\t// in\n        /* \"@chainlink/contracts/src/v0.8/vendor/BufferChainlink.sol\":5305:5334  resize(buf, buf.capacity * 2) */\n    tag_228:\n        /* \"@chainlink/contracts/src/v0.8/vendor/BufferChainlink.sol\":5427:5430  buf */\n      dup4\n        /* \"@chainlink/contracts/src/v0.8/vendor/BufferChainlink.sol\":5421:5431  mload(buf) */\n      mload\n        /* \"@chainlink/contracts/src/v0.8/vendor/BufferChainlink.sol\":5498:5504  bufptr */\n      dup1\n        /* \"@chainlink/contracts/src/v0.8/vendor/BufferChainlink.sol\":5492:5505  mload(bufptr) */\n      mload\n        /* \"@chainlink/contracts/src/v0.8/vendor/BufferChainlink.sol\":5610:5612  32 */\n      0x20\n        /* \"@chainlink/contracts/src/v0.8/vendor/BufferChainlink.sol\":5604:5607  off */\n      dup6\n        /* \"@chainlink/contracts/src/v0.8/vendor/BufferChainlink.sol\":5596:5602  bufptr */\n      dup4\n        /* \"@chainlink/contracts/src/v0.8/vendor/BufferChainlink.sol\":5592:5608  add(bufptr, off) */\n      add\n        /* \"@chainlink/contracts/src/v0.8/vendor/BufferChainlink.sol\":5588:5613  add(add(bufptr, off), 32) */\n      add\n        /* \"@chainlink/contracts/src/v0.8/vendor/BufferChainlink.sol\":5634:5638  data */\n      dup5\n        /* \"@chainlink/contracts/src/v0.8/vendor/BufferChainlink.sol\":5628:5632  dest */\n      dup2\n        /* \"@chainlink/contracts/src/v0.8/vendor/BufferChainlink.sol\":5620:5639  mstore8(dest, data) */\n      mstore8\n      pop\n        /* \"@chainlink/contracts/src/v0.8/vendor/BufferChainlink.sol\":5705:5711  buflen */\n      dup1\n        /* \"@chainlink/contracts/src/v0.8/vendor/BufferChainlink.sol\":5700:5703  off */\n      dup6\n        /* \"@chainlink/contracts/src/v0.8/vendor/BufferChainlink.sol\":5697:5712  eq(off, buflen) */\n      sub\n        /* \"@chainlink/contracts/src/v0.8/vendor/BufferChainlink.sol\":5694:5761  if eq(off, buflen) {... */\n      tag_230\n      jumpi\n        /* \"@chainlink/contracts/src/v0.8/vendor/BufferChainlink.sol\":5750:5751  1 */\n      0x01\n        /* \"@chainlink/contracts/src/v0.8/vendor/BufferChainlink.sol\":5742:5748  buflen */\n      dup2\n        /* \"@chainlink/contracts/src/v0.8/vendor/BufferChainlink.sol\":5738:5752  add(buflen, 1) */\n      add\n        /* \"@chainlink/contracts/src/v0.8/vendor/BufferChainlink.sol\":5730:5736  bufptr */\n      dup3\n        /* \"@chainlink/contracts/src/v0.8/vendor/BufferChainlink.sol\":5723:5753  mstore(bufptr, add(buflen, 1)) */\n      mstore\n        /* \"@chainlink/contracts/src/v0.8/vendor/BufferChainlink.sol\":5694:5761  if eq(off, buflen) {... */\n    tag_230:\n      pop\n        /* \"@chainlink/contracts/src/v0.8/vendor/BufferChainlink.sol\":5779:5782  buf */\n      swap4\n      swap5\n        /* \"@chainlink/contracts/src/v0.8/vendor/BufferChainlink.sol\":5148:5787  function writeUint8(... */\n      swap4\n      pop\n      pop\n      pop\n      pop\n      jump\t// out\n        /* \"@chainlink/contracts/src/v0.8/vendor/BufferChainlink.sol\":8974:9649  function writeInt(... */\n    tag_205:\n      0x40\n      dup1\n      mload\n      dup1\n      dup3\n      add\n      swap1\n      swap2\n      mstore\n      0x60\n      dup2\n      mstore\n      0x00\n      0x20\n      dup3\n      add\n      mstore\n        /* \"@chainlink/contracts/src/v0.8/vendor/BufferChainlink.sol\":9130:9142  buf.capacity */\n      0x20\n      dup6\n      add\n      mload\n        /* \"@chainlink/contracts/src/v0.8/vendor/BufferChainlink.sol\":9118:9127  len + off */\n      tag_233\n        /* \"@chainlink/contracts/src/v0.8/vendor/BufferChainlink.sol\":9124:9127  off */\n      dup6\n        /* \"@chainlink/contracts/src/v0.8/vendor/BufferChainlink.sol\":9118:9121  len */\n      dup5\n        /* \"@chainlink/contracts/src/v0.8/vendor/BufferChainlink.sol\":9118:9127  len + off */\n      tag_148\n      jump\t// in\n    tag_233:\n        /* \"@chainlink/contracts/src/v0.8/vendor/BufferChainlink.sol\":9118:9142  len + off > buf.capacity */\n      gt\n        /* \"@chainlink/contracts/src/v0.8/vendor/BufferChainlink.sol\":9114:9187  if (len + off > buf.capacity) {... */\n      iszero\n      tag_235\n      jumpi\n        /* \"@chainlink/contracts/src/v0.8/vendor/BufferChainlink.sol\":9152:9180  resize(buf, (len + off) * 2) */\n      tag_235\n        /* \"@chainlink/contracts/src/v0.8/vendor/BufferChainlink.sol\":9159:9162  buf */\n      dup6\n        /* \"@chainlink/contracts/src/v0.8/vendor/BufferChainlink.sol\":9165:9174  len + off */\n      tag_212\n        /* \"@chainlink/contracts/src/v0.8/vendor/BufferChainlink.sol\":9171:9174  off */\n      dup7\n        /* \"@chainlink/contracts/src/v0.8/vendor/BufferChainlink.sol\":9165:9168  len */\n      dup6\n        /* \"@chainlink/contracts/src/v0.8/vendor/BufferChainlink.sol\":9165:9174  len + off */\n      tag_148\n      jump\t// in\n        /* \"@chainlink/contracts/src/v0.8/vendor/BufferChainlink.sol\":9152:9180  resize(buf, (len + off) * 2) */\n    tag_235:\n        /* \"@chainlink/contracts/src/v0.8/vendor/BufferChainlink.sol\":9193:9205  uint256 mask */\n      0x00\n        /* \"@chainlink/contracts/src/v0.8/vendor/BufferChainlink.sol\":9221:9222  1 */\n      0x01\n        /* \"@chainlink/contracts/src/v0.8/vendor/BufferChainlink.sol\":9209:9217  256**len */\n      tag_238\n        /* \"@chainlink/contracts/src/v0.8/vendor/BufferChainlink.sol\":9214:9217  len */\n      dup5\n        /* \"@chainlink/contracts/src/v0.8/vendor/BufferChainlink.sol\":9209:9212  256 */\n      0x0100\n        /* \"@chainlink/contracts/src/v0.8/vendor/BufferChainlink.sol\":9209:9217  256**len */\n      tag_239\n      jump\t// in\n    tag_238:\n        /* \"@chainlink/contracts/src/v0.8/vendor/BufferChainlink.sol\":9208:9222  (256**len) - 1 */\n      tag_240\n      swap2\n      swap1\n      tag_161\n      jump\t// in\n    tag_240:\n        /* \"@chainlink/contracts/src/v0.8/vendor/BufferChainlink.sol\":9193:9222  uint256 mask = (256**len) - 1 */\n      swap1\n      pop\n        /* \"@chainlink/contracts/src/v0.8/vendor/BufferChainlink.sol\":9308:9311  buf */\n      dup6\n        /* \"@chainlink/contracts/src/v0.8/vendor/BufferChainlink.sol\":9302:9312  mload(buf) */\n      mload\n        /* \"@chainlink/contracts/src/v0.8/vendor/BufferChainlink.sol\":9423:9426  len */\n      dup4\n        /* \"@chainlink/contracts/src/v0.8/vendor/BufferChainlink.sol\":9417:9420  off */\n      dup7\n        /* \"@chainlink/contracts/src/v0.8/vendor/BufferChainlink.sol\":9409:9415  bufptr */\n      dup3\n        /* \"@chainlink/contracts/src/v0.8/vendor/BufferChainlink.sol\":9405:9421  add(bufptr, off) */\n      add\n        /* \"@chainlink/contracts/src/v0.8/vendor/BufferChainlink.sol\":9401:9427  add(add(bufptr, off), len) */\n      add\n        /* \"@chainlink/contracts/src/v0.8/vendor/BufferChainlink.sol\":9479:9483  data */\n      dup6\n        /* \"@chainlink/contracts/src/v0.8/vendor/BufferChainlink.sol\":9471:9475  mask */\n      dup4\n        /* \"@chainlink/contracts/src/v0.8/vendor/BufferChainlink.sol\":9467:9476  not(mask) */\n      not\n        /* \"@chainlink/contracts/src/v0.8/vendor/BufferChainlink.sol\":9460:9464  dest */\n      dup3\n        /* \"@chainlink/contracts/src/v0.8/vendor/BufferChainlink.sol\":9454:9465  mload(dest) */\n      mload\n        /* \"@chainlink/contracts/src/v0.8/vendor/BufferChainlink.sol\":9450:9477  and(mload(dest), not(mask)) */\n      and\n        /* \"@chainlink/contracts/src/v0.8/vendor/BufferChainlink.sol\":9447:9484  or(and(mload(dest), not(mask)), data) */\n      or\n        /* \"@chainlink/contracts/src/v0.8/vendor/BufferChainlink.sol\":9441:9445  dest */\n      dup2\n        /* \"@chainlink/contracts/src/v0.8/vendor/BufferChainlink.sol\":9434:9485  mstore(dest, or(and(mload(dest), not(mask)), data)) */\n      mstore\n      pop\n        /* \"@chainlink/contracts/src/v0.8/vendor/BufferChainlink.sol\":9567:9573  bufptr */\n      dup1\n        /* \"@chainlink/contracts/src/v0.8/vendor/BufferChainlink.sol\":9561:9574  mload(bufptr) */\n      mload\n        /* \"@chainlink/contracts/src/v0.8/vendor/BufferChainlink.sol\":9555:9558  len */\n      dup5\n        /* \"@chainlink/contracts/src/v0.8/vendor/BufferChainlink.sol\":9550:9553  off */\n      dup8\n        /* \"@chainlink/contracts/src/v0.8/vendor/BufferChainlink.sol\":9546:9559  add(off, len) */\n      add\n        /* \"@chainlink/contracts/src/v0.8/vendor/BufferChainlink.sol\":9543:9575  gt(add(off, len), mload(bufptr)) */\n      gt\n        /* \"@chainlink/contracts/src/v0.8/vendor/BufferChainlink.sol\":9540:9623  if gt(add(off, len), mload(bufptr)) {... */\n      iszero\n      tag_241\n      jumpi\n        /* \"@chainlink/contracts/src/v0.8/vendor/BufferChainlink.sol\":9610:9613  len */\n      dup4\n        /* \"@chainlink/contracts/src/v0.8/vendor/BufferChainlink.sol\":9605:9608  off */\n      dup7\n        /* \"@chainlink/contracts/src/v0.8/vendor/BufferChainlink.sol\":9601:9614  add(off, len) */\n      add\n        /* \"@chainlink/contracts/src/v0.8/vendor/BufferChainlink.sol\":9593:9599  bufptr */\n      dup2\n        /* \"@chainlink/contracts/src/v0.8/vendor/BufferChainlink.sol\":9586:9615  mstore(bufptr, add(off, len)) */\n      mstore\n        /* \"@chainlink/contracts/src/v0.8/vendor/BufferChainlink.sol\":9540:9623  if gt(add(off, len), mload(bufptr)) {... */\n    tag_241:\n      pop\n        /* \"@chainlink/contracts/src/v0.8/vendor/BufferChainlink.sol\":9641:9644  buf */\n      swap5\n      swap6\n        /* \"@chainlink/contracts/src/v0.8/vendor/BufferChainlink.sol\":8974:9649  function writeInt(... */\n      swap5\n      pop\n      pop\n      pop\n      pop\n      pop\n      jump\t// out\n        /* \"@chainlink/contracts/src/v0.8/vendor/BufferChainlink.sol\":1961:2085  function max(uint256 a, uint256 b) private pure returns (uint256) {... */\n    tag_214:\n        /* \"@chainlink/contracts/src/v0.8/vendor/BufferChainlink.sol\":2018:2025  uint256 */\n      0x00\n        /* \"@chainlink/contracts/src/v0.8/vendor/BufferChainlink.sol\":2041:2042  b */\n      dup2\n        /* \"@chainlink/contracts/src/v0.8/vendor/BufferChainlink.sol\":2037:2038  a */\n      dup4\n        /* \"@chainlink/contracts/src/v0.8/vendor/BufferChainlink.sol\":2037:2042  a > b */\n      gt\n        /* \"@chainlink/contracts/src/v0.8/vendor/BufferChainlink.sol\":2033:2067  if (a > b) {... */\n      iszero\n      tag_243\n      jumpi\n      pop\n        /* \"@chainlink/contracts/src/v0.8/vendor/BufferChainlink.sol\":2059:2060  a */\n      dup2\n        /* \"@chainlink/contracts/src/v0.8/vendor/BufferChainlink.sol\":2052:2060  return a */\n      jump(tag_125)\n        /* \"@chainlink/contracts/src/v0.8/vendor/BufferChainlink.sol\":2033:2067  if (a > b) {... */\n    tag_243:\n      pop\n        /* \"@chainlink/contracts/src/v0.8/vendor/BufferChainlink.sol\":2079:2080  b */\n      swap2\n        /* \"@chainlink/contracts/src/v0.8/vendor/BufferChainlink.sol\":1961:2085  function max(uint256 a, uint256 b) private pure returns (uint256) {... */\n      swap1\n      pop\n      jump\t// out\n        /* \"@chainlink/contracts/src/v0.8/vendor/BufferChainlink.sol\":1801:1957  function resize(buffer memory buf, uint256 capacity) private pure {... */\n    tag_217:\n        /* \"@chainlink/contracts/src/v0.8/vendor/BufferChainlink.sol\":1895:1902  buf.buf */\n      dup2\n      mload\n        /* \"@chainlink/contracts/src/v0.8/vendor/BufferChainlink.sol\":1908:1927  init(buf, capacity) */\n      tag_245\n        /* \"@chainlink/contracts/src/v0.8/vendor/BufferChainlink.sol\":1895:1898  buf */\n      dup4\n        /* \"@chainlink/contracts/src/v0.8/vendor/BufferChainlink.sol\":1918:1926  capacity */\n      dup4\n        /* \"@chainlink/contracts/src/v0.8/vendor/BufferChainlink.sol\":1908:1912  init */\n      tag_140\n        /* \"@chainlink/contracts/src/v0.8/vendor/BufferChainlink.sol\":1908:1927  init(buf, capacity) */\n      jump\t// in\n    tag_245:\n      pop\n        /* \"@chainlink/contracts/src/v0.8/vendor/BufferChainlink.sol\":1933:1952  append(buf, oldbuf) */\n      tag_165\n        /* \"@chainlink/contracts/src/v0.8/vendor/BufferChainlink.sol\":1940:1943  buf */\n      dup4\n        /* \"@chainlink/contracts/src/v0.8/vendor/BufferChainlink.sol\":1945:1951  oldbuf */\n      dup3\n        /* \"@chainlink/contracts/src/v0.8/vendor/BufferChainlink.sol\":1933:1939  append */\n      tag_145\n        /* \"@chainlink/contracts/src/v0.8/vendor/BufferChainlink.sol\":1933:1952  append(buf, oldbuf) */\n      jump\t// in\n    tag_116:\n      0x40\n      dup1\n      mload\n      0xa0\n      dup2\n      add\n      dup3\n      mstore\n      0x00\n      dup1\n      dup3\n      mstore\n      0x20\n      dup1\n      dup4\n      add\n      dup3\n      swap1\n      mstore\n      dup3\n      dup5\n      add\n      dup3\n      swap1\n      mstore\n      0x60\n      dup1\n      dup5\n      add\n      dup4\n      swap1\n      mstore\n      dup5\n      mload\n      dup1\n      dup7\n      add\n      swap1\n      swap6\n      mstore\n      dup5\n      mstore\n      dup4\n      add\n      mstore\n      swap1\n      0x80\n      dup3\n      add\n      mstore\n      swap1\n      jump\t// out\n        /* \"#utility.yul\":196:376   */\n    tag_21:\n        /* \"#utility.yul\":255:261   */\n      0x00\n        /* \"#utility.yul\":308:310   */\n      0x20\n        /* \"#utility.yul\":296:305   */\n      dup3\n        /* \"#utility.yul\":287:294   */\n      dup5\n        /* \"#utility.yul\":283:306   */\n      sub\n        /* \"#utility.yul\":279:311   */\n      slt\n        /* \"#utility.yul\":276:328   */\n      iszero\n      tag_255\n      jumpi\n        /* \"#utility.yul\":324:325   */\n      0x00\n        /* \"#utility.yul\":321:322   */\n      dup1\n        /* \"#utility.yul\":314:326   */\n      revert\n        /* \"#utility.yul\":276:328   */\n    tag_255:\n      pop\n        /* \"#utility.yul\":347:370   */\n      calldataload\n      swap2\n        /* \"#utility.yul\":196:376   */\n      swap1\n      pop\n      jump\t// out\n        /* \"#utility.yul\":771:1194   */\n    tag_248:\n        /* \"#utility.yul\":813:816   */\n      0x00\n        /* \"#utility.yul\":851:856   */\n      dup2\n        /* \"#utility.yul\":845:857   */\n      mload\n        /* \"#utility.yul\":878:884   */\n      dup1\n        /* \"#utility.yul\":873:876   */\n      dup5\n        /* \"#utility.yul\":866:885   */\n      mstore\n        /* \"#utility.yul\":903:904   */\n      0x00\n        /* \"#utility.yul\":913:1075   */\n    tag_259:\n        /* \"#utility.yul\":927:933   */\n      dup2\n        /* \"#utility.yul\":924:925   */\n      dup2\n        /* \"#utility.yul\":921:934   */\n      lt\n        /* \"#utility.yul\":913:1075   */\n      iszero\n      tag_261\n      jumpi\n        /* \"#utility.yul\":989:993   */\n      0x20\n        /* \"#utility.yul\":1045:1058   */\n      dup2\n      dup6\n      add\n        /* \"#utility.yul\":1041:1063   */\n      dup2\n      add\n        /* \"#utility.yul\":1035:1064   */\n      mload\n        /* \"#utility.yul\":1017:1028   */\n      dup7\n      dup4\n      add\n        /* \"#utility.yul\":1013:1033   */\n      dup3\n      add\n        /* \"#utility.yul\":1006:1065   */\n      mstore\n        /* \"#utility.yul\":942:954   */\n      add\n        /* \"#utility.yul\":913:1075   */\n      jump(tag_259)\n    tag_261:\n        /* \"#utility.yul\":917:920   */\n      pop\n        /* \"#utility.yul\":1120:1121   */\n      0x00\n        /* \"#utility.yul\":1113:1117   */\n      0x20\n        /* \"#utility.yul\":1104:1110   */\n      dup3\n        /* \"#utility.yul\":1099:1102   */\n      dup7\n        /* \"#utility.yul\":1095:1111   */\n      add\n        /* \"#utility.yul\":1091:1118   */\n      add\n        /* \"#utility.yul\":1084:1122   */\n      mstore\n        /* \"#utility.yul\":1183:1187   */\n      0x20\n        /* \"#utility.yul\":1176:1178   */\n      0x1f\n        /* \"#utility.yul\":1172:1179   */\n      not\n        /* \"#utility.yul\":1167:1169   */\n      0x1f\n        /* \"#utility.yul\":1159:1165   */\n      dup4\n        /* \"#utility.yul\":1155:1170   */\n      add\n        /* \"#utility.yul\":1151:1180   */\n      and\n        /* \"#utility.yul\":1146:1149   */\n      dup6\n        /* \"#utility.yul\":1142:1181   */\n      add\n        /* \"#utility.yul\":1138:1188   */\n      add\n        /* \"#utility.yul\":1131:1188   */\n      swap2\n      pop\n      pop\n        /* \"#utility.yul\":771:1194   */\n      swap3\n      swap2\n      pop\n      pop\n      jump\t// out\n        /* \"#utility.yul\":1199:1419   */\n    tag_38:\n        /* \"#utility.yul\":1348:1350   */\n      0x20\n        /* \"#utility.yul\":1337:1346   */\n      dup2\n        /* \"#utility.yul\":1330:1351   */\n      mstore\n        /* \"#utility.yul\":1311:1315   */\n      0x00\n        /* \"#utility.yul\":1368:1413   */\n      tag_126\n        /* \"#utility.yul\":1409:1411   */\n      0x20\n        /* \"#utility.yul\":1398:1407   */\n      dup4\n        /* \"#utility.yul\":1394:1412   */\n      add\n        /* \"#utility.yul\":1386:1392   */\n      dup5\n        /* \"#utility.yul\":1368:1413   */\n      tag_248\n      jump\t// in\n        /* \"#utility.yul\":1424:1809   */\n    tag_44:\n        /* \"#utility.yul\":1510:1516   */\n      0x00\n        /* \"#utility.yul\":1518:1524   */\n      dup1\n        /* \"#utility.yul\":1526:1532   */\n      0x00\n        /* \"#utility.yul\":1534:1540   */\n      dup1\n        /* \"#utility.yul\":1587:1590   */\n      0x80\n        /* \"#utility.yul\":1575:1584   */\n      dup6\n        /* \"#utility.yul\":1566:1573   */\n      dup8\n        /* \"#utility.yul\":1562:1585   */\n      sub\n        /* \"#utility.yul\":1558:1591   */\n      slt\n        /* \"#utility.yul\":1555:1608   */\n      iszero\n      tag_265\n      jumpi\n        /* \"#utility.yul\":1604:1605   */\n      0x00\n        /* \"#utility.yul\":1601:1602   */\n      dup1\n        /* \"#utility.yul\":1594:1606   */\n      revert\n        /* \"#utility.yul\":1555:1608   */\n    tag_265:\n      pop\n      pop\n        /* \"#utility.yul\":1627:1650   */\n      dup3\n      calldataload\n      swap5\n        /* \"#utility.yul\":1697:1699   */\n      0x20\n        /* \"#utility.yul\":1682:1700   */\n      dup5\n      add\n        /* \"#utility.yul\":1669:1701   */\n      calldataload\n      swap5\n      pop\n        /* \"#utility.yul\":1748:1750   */\n      0x40\n        /* \"#utility.yul\":1733:1751   */\n      dup5\n      add\n        /* \"#utility.yul\":1720:1752   */\n      calldataload\n      swap4\n        /* \"#utility.yul\":1799:1801   */\n      0x60\n        /* \"#utility.yul\":1784:1802   */\n      add\n        /* \"#utility.yul\":1771:1803   */\n      calldataload\n      swap3\n      pop\n        /* \"#utility.yul\":1424:1809   */\n      swap1\n      pop\n      jump\t// out\n        /* \"#utility.yul\":1814:2100   */\n    tag_48:\n        /* \"#utility.yul\":1873:1879   */\n      0x00\n        /* \"#utility.yul\":1926:1928   */\n      0x20\n        /* \"#utility.yul\":1914:1923   */\n      dup3\n        /* \"#utility.yul\":1905:1912   */\n      dup5\n        /* \"#utility.yul\":1901:1924   */\n      sub\n        /* \"#utility.yul\":1897:1929   */\n      slt\n        /* \"#utility.yul\":1894:1946   */\n      iszero\n      tag_267\n      jumpi\n        /* \"#utility.yul\":1942:1943   */\n      0x00\n        /* \"#utility.yul\":1939:1940   */\n      dup1\n        /* \"#utility.yul\":1932:1944   */\n      revert\n        /* \"#utility.yul\":1894:1946   */\n    tag_267:\n        /* \"#utility.yul\":1968:1991   */\n      dup2\n      calldataload\n      sub(shl(0xa0, 0x01), 0x01)\n        /* \"#utility.yul\":2020:2051   */\n      dup2\n      and\n        /* \"#utility.yul\":2010:2052   */\n      dup2\n      eq\n        /* \"#utility.yul\":2000:2070   */\n      tag_268\n      jumpi\n        /* \"#utility.yul\":2066:2067   */\n      0x00\n        /* \"#utility.yul\":2063:2064   */\n      dup1\n        /* \"#utility.yul\":2056:2068   */\n      revert\n        /* \"#utility.yul\":2000:2070   */\n    tag_268:\n        /* \"#utility.yul\":2089:2094   */\n      swap4\n        /* \"#utility.yul\":1814:2100   */\n      swap3\n      pop\n      pop\n      pop\n      jump\t// out\n        /* \"#utility.yul\":2105:2485   */\n    tag_59:\n        /* \"#utility.yul\":2184:2185   */\n      0x01\n        /* \"#utility.yul\":2180:2192   */\n      dup2\n      dup2\n      shr\n      swap1\n        /* \"#utility.yul\":2227:2239   */\n      dup3\n      and\n      dup1\n        /* \"#utility.yul\":2248:2309   */\n      tag_270\n      jumpi\n        /* \"#utility.yul\":2302:2306   */\n      0x7f\n        /* \"#utility.yul\":2294:2300   */\n      dup3\n        /* \"#utility.yul\":2290:2307   */\n      and\n        /* \"#utility.yul\":2280:2307   */\n      swap2\n      pop\n        /* \"#utility.yul\":2248:2309   */\n    tag_270:\n        /* \"#utility.yul\":2355:2357   */\n      0x20\n        /* \"#utility.yul\":2347:2353   */\n      dup3\n        /* \"#utility.yul\":2344:2358   */\n      lt\n        /* \"#utility.yul\":2324:2342   */\n      dup2\n        /* \"#utility.yul\":2321:2359   */\n      sub\n        /* \"#utility.yul\":2318:2479   */\n      tag_243\n      jumpi\n        /* \"#utility.yul\":2401:2411   */\n      0x4e487b71\n        /* \"#utility.yul\":2396:2399   */\n      0xe0\n        /* \"#utility.yul\":2392:2412   */\n      shl\n        /* \"#utility.yul\":2389:2390   */\n      0x00\n        /* \"#utility.yul\":2382:2413   */\n      mstore\n        /* \"#utility.yul\":2436:2440   */\n      0x22\n        /* \"#utility.yul\":2433:2434   */\n      0x04\n        /* \"#utility.yul\":2426:2441   */\n      mstore\n        /* \"#utility.yul\":2464:2468   */\n      0x24\n        /* \"#utility.yul\":2461:2462   */\n      0x00\n        /* \"#utility.yul\":2454:2469   */\n      revert\n        /* \"#utility.yul\":2841:3025   */\n    tag_88:\n        /* \"#utility.yul\":2911:2917   */\n      0x00\n        /* \"#utility.yul\":2964:2966   */\n      0x20\n        /* \"#utility.yul\":2952:2961   */\n      dup3\n        /* \"#utility.yul\":2943:2950   */\n      dup5\n        /* \"#utility.yul\":2939:2962   */\n      sub\n        /* \"#utility.yul\":2935:2967   */\n      slt\n        /* \"#utility.yul\":2932:2984   */\n      iszero\n      tag_274\n      jumpi\n        /* \"#utility.yul\":2980:2981   */\n      0x00\n        /* \"#utility.yul\":2977:2978   */\n      dup1\n        /* \"#utility.yul\":2970:2982   */\n      revert\n        /* \"#utility.yul\":2932:2984   */\n    tag_274:\n      pop\n        /* \"#utility.yul\":3003:3019   */\n      mload\n      swap2\n        /* \"#utility.yul\":2841:3025   */\n      swap1\n      pop\n      jump\t// out\n        /* \"#utility.yul\":3309:3586   */\n    tag_94:\n        /* \"#utility.yul\":3376:3382   */\n      0x00\n        /* \"#utility.yul\":3429:3431   */\n      0x20\n        /* \"#utility.yul\":3417:3426   */\n      dup3\n        /* \"#utility.yul\":3408:3415   */\n      dup5\n        /* \"#utility.yul\":3404:3427   */\n      sub\n        /* \"#utility.yul\":3400:3432   */\n      slt\n        /* \"#utility.yul\":3397:3449   */\n      iszero\n      tag_277\n      jumpi\n        /* \"#utility.yul\":3445:3446   */\n      0x00\n        /* \"#utility.yul\":3442:3443   */\n      dup1\n        /* \"#utility.yul\":3435:3447   */\n      revert\n        /* \"#utility.yul\":3397:3449   */\n    tag_277:\n        /* \"#utility.yul\":3477:3486   */\n      dup2\n        /* \"#utility.yul\":3471:3487   */\n      mload\n        /* \"#utility.yul\":3530:3535   */\n      dup1\n        /* \"#utility.yul\":3523:3536   */\n      iszero\n        /* \"#utility.yul\":3516:3537   */\n      iszero\n        /* \"#utility.yul\":3509:3514   */\n      dup2\n        /* \"#utility.yul\":3506:3538   */\n      eq\n        /* \"#utility.yul\":3496:3556   */\n      tag_268\n      jumpi\n        /* \"#utility.yul\":3552:3553   */\n      0x00\n        /* \"#utility.yul\":3549:3550   */\n      dup1\n        /* \"#utility.yul\":3542:3554   */\n      revert\n        /* \"#utility.yul\":5374:5501   */\n    tag_249:\n        /* \"#utility.yul\":5435:5445   */\n      0x4e487b71\n        /* \"#utility.yul\":5430:5433   */\n      0xe0\n        /* \"#utility.yul\":5426:5446   */\n      shl\n        /* \"#utility.yul\":5423:5424   */\n      0x00\n        /* \"#utility.yul\":5416:5447   */\n      mstore\n        /* \"#utility.yul\":5466:5470   */\n      0x11\n        /* \"#utility.yul\":5463:5464   */\n      0x04\n        /* \"#utility.yul\":5456:5471   */\n      mstore\n        /* \"#utility.yul\":5490:5494   */\n      0x24\n        /* \"#utility.yul\":5487:5488   */\n      0x00\n        /* \"#utility.yul\":5480:5495   */\n      revert\n        /* \"#utility.yul\":5506:5631   */\n    tag_148:\n        /* \"#utility.yul\":5571:5580   */\n      dup1\n      dup3\n      add\n        /* \"#utility.yul\":5592:5602   */\n      dup1\n      dup3\n      gt\n        /* \"#utility.yul\":5589:5625   */\n      iszero\n      tag_125\n      jumpi\n        /* \"#utility.yul\":5605:5623   */\n      tag_125\n      tag_249\n      jump\t// in\n        /* \"#utility.yul\":5636:6458   */\n    tag_150:\n      sub(shl(0xa0, 0x01), 0x01)\n        /* \"#utility.yul\":6037:6052   */\n      dup10\n      dup2\n      and\n        /* \"#utility.yul\":6019:6053   */\n      dup3\n      mstore\n        /* \"#utility.yul\":6084:6086   */\n      0x20\n        /* \"#utility.yul\":6069:6087   */\n      dup3\n      add\n        /* \"#utility.yul\":6062:6096   */\n      dup10\n      swap1\n      mstore\n        /* \"#utility.yul\":6127:6129   */\n      0x40\n        /* \"#utility.yul\":6112:6130   */\n      dup3\n      add\n        /* \"#utility.yul\":6105:6139   */\n      dup9\n      swap1\n      mstore\n        /* \"#utility.yul\":6175:6190   */\n      dup7\n      and\n        /* \"#utility.yul\":6170:6172   */\n      0x60\n        /* \"#utility.yul\":6155:6173   */\n      dup3\n      add\n        /* \"#utility.yul\":6148:6191   */\n      mstore\n      not(sub(shl(0xe0, 0x01), 0x01))\n        /* \"#utility.yul\":6228:6261   */\n      dup6\n      and\n        /* \"#utility.yul\":6222:6225   */\n      0x80\n        /* \"#utility.yul\":6207:6226   */\n      dup3\n      add\n        /* \"#utility.yul\":6200:6262   */\n      mstore\n        /* \"#utility.yul\":5999:6002   */\n      0xa0\n        /* \"#utility.yul\":6278:6297   */\n      dup2\n      add\n        /* \"#utility.yul\":6271:6306   */\n      dup5\n      swap1\n      mstore\n        /* \"#utility.yul\":6337:6340   */\n      0xc0\n        /* \"#utility.yul\":6322:6341   */\n      dup2\n      add\n        /* \"#utility.yul\":6315:6350   */\n      dup4\n      swap1\n      mstore\n        /* \"#utility.yul\":5969:5972   */\n      0x0100\n        /* \"#utility.yul\":6244:6247   */\n      0xe0\n        /* \"#utility.yul\":6366:6385   */\n      dup3\n      add\n        /* \"#utility.yul\":6359:6390   */\n      dup2\n      swap1\n      mstore\n        /* \"#utility.yul\":5940:5944   */\n      0x00\n      swap1\n        /* \"#utility.yul\":6407:6452   */\n      tag_289\n        /* \"#utility.yul\":6433:6451   */\n      dup4\n      dup3\n      add\n        /* \"#utility.yul\":6425:6431   */\n      dup6\n        /* \"#utility.yul\":6407:6452   */\n      tag_248\n      jump\t// in\n    tag_289:\n        /* \"#utility.yul\":6399:6452   */\n      swap12\n        /* \"#utility.yul\":5636:6458   */\n      swap11\n      pop\n      pop\n      pop\n      pop\n      pop\n      pop\n      pop\n      pop\n      pop\n      pop\n      pop\n      jump\t// out\n        /* \"#utility.yul\":6463:6672   */\n    tag_157:\n        /* \"#utility.yul\":6495:6496   */\n      0x00\n        /* \"#utility.yul\":6521:6522   */\n      dup3\n        /* \"#utility.yul\":6511:6643   */\n      tag_291\n      jumpi\n        /* \"#utility.yul\":6565:6575   */\n      0x4e487b71\n        /* \"#utility.yul\":6560:6563   */\n      0xe0\n        /* \"#utility.yul\":6556:6576   */\n      shl\n        /* \"#utility.yul\":6553:6554   */\n      0x00\n        /* \"#utility.yul\":6546:6577   */\n      mstore\n        /* \"#utility.yul\":6600:6604   */\n      0x12\n        /* \"#utility.yul\":6597:6598   */\n      0x04\n        /* \"#utility.yul\":6590:6605   */\n      mstore\n        /* \"#utility.yul\":6628:6632   */\n      0x24\n        /* \"#utility.yul\":6625:6626   */\n      0x00\n        /* \"#utility.yul\":6618:6633   */\n      revert\n        /* \"#utility.yul\":6511:6643   */\n    tag_291:\n      pop\n        /* \"#utility.yul\":6657:6666   */\n      mod\n      swap1\n        /* \"#utility.yul\":6463:6672   */\n      jump\t// out\n        /* \"#utility.yul\":6677:6805   */\n    tag_161:\n        /* \"#utility.yul\":6744:6753   */\n      dup2\n      dup2\n      sub\n        /* \"#utility.yul\":6765:6776   */\n      dup2\n      dup2\n      gt\n        /* \"#utility.yul\":6762:6799   */\n      iszero\n      tag_125\n      jumpi\n        /* \"#utility.yul\":6779:6797   */\n      tag_125\n      tag_249\n      jump\t// in\n        /* \"#utility.yul\":7132:7518   */\n    tag_191:\n        /* \"#utility.yul\":7364:7365   */\n      0x01\n        /* \"#utility.yul\":7360:7361   */\n      dup1\n        /* \"#utility.yul\":7355:7358   */\n      0xa0\n        /* \"#utility.yul\":7351:7362   */\n      shl\n        /* \"#utility.yul\":7347:7366   */\n      sub\n        /* \"#utility.yul\":7339:7345   */\n      dup5\n        /* \"#utility.yul\":7335:7367   */\n      and\n        /* \"#utility.yul\":7324:7333   */\n      dup2\n        /* \"#utility.yul\":7317:7368   */\n      mstore\n        /* \"#utility.yul\":7404:7410   */\n      dup3\n        /* \"#utility.yul\":7399:7401   */\n      0x20\n        /* \"#utility.yul\":7388:7397   */\n      dup3\n        /* \"#utility.yul\":7384:7402   */\n      add\n        /* \"#utility.yul\":7377:7411   */\n      mstore\n        /* \"#utility.yul\":7447:7449   */\n      0x60\n        /* \"#utility.yul\":7442:7444   */\n      0x40\n        /* \"#utility.yul\":7431:7440   */\n      dup3\n        /* \"#utility.yul\":7427:7445   */\n      add\n        /* \"#utility.yul\":7420:7450   */\n      mstore\n        /* \"#utility.yul\":7298:7302   */\n      0x00\n        /* \"#utility.yul\":7467:7512   */\n      tag_119\n        /* \"#utility.yul\":7508:7510   */\n      0x60\n        /* \"#utility.yul\":7497:7506   */\n      dup4\n        /* \"#utility.yul\":7493:7511   */\n      add\n        /* \"#utility.yul\":7485:7491   */\n      dup5\n        /* \"#utility.yul\":7467:7512   */\n      tag_248\n      jump\t// in\n        /* \"#utility.yul\":7927:8095   */\n    tag_216:\n        /* \"#utility.yul\":8000:8009   */\n      dup1\n      dup3\n      mul\n        /* \"#utility.yul\":8031:8040   */\n      dup2\n      iszero\n        /* \"#utility.yul\":8048:8063   */\n      dup3\n      dup3\n      div\n        /* \"#utility.yul\":8042:8064   */\n      dup5\n      eq\n        /* \"#utility.yul\":8028:8065   */\n      or\n        /* \"#utility.yul\":8018:8089   */\n      tag_125\n      jumpi\n        /* \"#utility.yul\":8069:8087   */\n      tag_125\n      tag_249\n      jump\t// in\n        /* \"#utility.yul\":8100:8522   */\n    tag_250:\n        /* \"#utility.yul\":8189:8190   */\n      0x01\n        /* \"#utility.yul\":8232:8237   */\n      dup2\n        /* \"#utility.yul\":8189:8190   */\n      dup2\n        /* \"#utility.yul\":8246:8516   */\n    tag_303:\n        /* \"#utility.yul\":8267:8274   */\n      dup1\n        /* \"#utility.yul\":8257:8265   */\n      dup6\n        /* \"#utility.yul\":8254:8275   */\n      gt\n        /* \"#utility.yul\":8246:8516   */\n      iszero\n      tag_305\n      jumpi\n        /* \"#utility.yul\":8326:8330   */\n      dup2\n        /* \"#utility.yul\":8322:8323   */\n      0x00\n        /* \"#utility.yul\":8318:8324   */\n      not\n        /* \"#utility.yul\":8314:8331   */\n      div\n        /* \"#utility.yul\":8308:8312   */\n      dup3\n        /* \"#utility.yul\":8305:8332   */\n      gt\n        /* \"#utility.yul\":8302:8355   */\n      iszero\n      tag_307\n      jumpi\n        /* \"#utility.yul\":8335:8353   */\n      tag_307\n      tag_249\n      jump\t// in\n    tag_307:\n        /* \"#utility.yul\":8385:8392   */\n      dup1\n        /* \"#utility.yul\":8375:8383   */\n      dup6\n        /* \"#utility.yul\":8371:8393   */\n      and\n        /* \"#utility.yul\":8368:8423   */\n      iszero\n      tag_308\n      jumpi\n        /* \"#utility.yul\":8405:8421   */\n      swap2\n      dup2\n      mul\n      swap2\n        /* \"#utility.yul\":8368:8423   */\n    tag_308:\n        /* \"#utility.yul\":8484:8506   */\n      swap4\n      dup5\n      shr\n      swap4\n        /* \"#utility.yul\":8444:8459   */\n      swap1\n      dup1\n      mul\n      swap1\n        /* \"#utility.yul\":8246:8516   */\n      jump(tag_303)\n    tag_305:\n        /* \"#utility.yul\":8250:8253   */\n      pop\n        /* \"#utility.yul\":8100:8522   */\n      swap3\n      pop\n      swap3\n      swap1\n      pop\n      jump\t// out\n        /* \"#utility.yul\":8527:9333   */\n    tag_251:\n        /* \"#utility.yul\":8576:8581   */\n      0x00\n        /* \"#utility.yul\":8606:8614   */\n      dup3\n        /* \"#utility.yul\":8596:8676   */\n      tag_310\n      jumpi\n      pop\n        /* \"#utility.yul\":8647:8648   */\n      0x01\n        /* \"#utility.yul\":8661:8666   */\n      jump(tag_125)\n        /* \"#utility.yul\":8596:8676   */\n    tag_310:\n        /* \"#utility.yul\":8695:8699   */\n      dup2\n        /* \"#utility.yul\":8685:8761   */\n      tag_311\n      jumpi\n      pop\n        /* \"#utility.yul\":8732:8733   */\n      0x00\n        /* \"#utility.yul\":8746:8751   */\n      jump(tag_125)\n        /* \"#utility.yul\":8685:8761   */\n    tag_311:\n        /* \"#utility.yul\":8777:8781   */\n      dup2\n        /* \"#utility.yul\":8795:8796   */\n      0x01\n        /* \"#utility.yul\":8790:8849   */\n      dup2\n      eq\n      tag_313\n      jumpi\n        /* \"#utility.yul\":8863:8864   */\n      0x02\n        /* \"#utility.yul\":8858:8988   */\n      dup2\n      eq\n      tag_314\n      jumpi\n        /* \"#utility.yul\":8770:8988   */\n      jump(tag_312)\n        /* \"#utility.yul\":8790:8849   */\n    tag_313:\n        /* \"#utility.yul\":8820:8821   */\n      0x01\n        /* \"#utility.yul\":8811:8821   */\n      swap2\n      pop\n        /* \"#utility.yul\":8834:8839   */\n      pop\n      jump(tag_125)\n        /* \"#utility.yul\":8858:8988   */\n    tag_314:\n        /* \"#utility.yul\":8895:8898   */\n      0xff\n        /* \"#utility.yul\":8885:8893   */\n      dup5\n        /* \"#utility.yul\":8882:8899   */\n      gt\n        /* \"#utility.yul\":8879:8922   */\n      iszero\n      tag_316\n      jumpi\n        /* \"#utility.yul\":8902:8920   */\n      tag_316\n      tag_249\n      jump\t// in\n    tag_316:\n      pop\n      pop\n        /* \"#utility.yul\":8958:8959   */\n      0x01\n        /* \"#utility.yul\":8944:8960   */\n      dup3\n      shl\n        /* \"#utility.yul\":8973:8978   */\n      jump(tag_125)\n        /* \"#utility.yul\":8770:8988   */\n    tag_312:\n      pop\n        /* \"#utility.yul\":9072:9074   */\n      0x20\n        /* \"#utility.yul\":9062:9070   */\n      dup4\n        /* \"#utility.yul\":9059:9075   */\n      lt\n        /* \"#utility.yul\":9053:9056   */\n      0x0133\n        /* \"#utility.yul\":9047:9051   */\n      dup4\n        /* \"#utility.yul\":9044:9057   */\n      lt\n        /* \"#utility.yul\":9040:9076   */\n      and\n        /* \"#utility.yul\":9034:9036   */\n      0x4e\n        /* \"#utility.yul\":9024:9032   */\n      dup5\n        /* \"#utility.yul\":9021:9037   */\n      lt\n        /* \"#utility.yul\":9016:9018   */\n      0x0b\n        /* \"#utility.yul\":9010:9014   */\n      dup5\n        /* \"#utility.yul\":9007:9019   */\n      lt\n        /* \"#utility.yul\":9003:9038   */\n      and\n        /* \"#utility.yul\":9000:9077   */\n      or\n        /* \"#utility.yul\":8997:9156   */\n      iszero\n      tag_317\n      jumpi\n      pop\n        /* \"#utility.yul\":9109:9128   */\n      dup2\n      dup2\n      exp\n        /* \"#utility.yul\":9141:9146   */\n      jump(tag_125)\n        /* \"#utility.yul\":8997:9156   */\n    tag_317:\n        /* \"#utility.yul\":9188:9222   */\n      tag_318\n        /* \"#utility.yul\":9213:9221   */\n      dup4\n        /* \"#utility.yul\":9207:9211   */\n      dup4\n        /* \"#utility.yul\":9188:9222   */\n      tag_250\n      jump\t// in\n    tag_318:\n        /* \"#utility.yul\":9258:9264   */\n      dup1\n        /* \"#utility.yul\":9254:9255   */\n      0x00\n        /* \"#utility.yul\":9250:9256   */\n      not\n        /* \"#utility.yul\":9246:9265   */\n      div\n        /* \"#utility.yul\":9237:9244   */\n      dup3\n        /* \"#utility.yul\":9234:9266   */\n      gt\n        /* \"#utility.yul\":9231:9289   */\n      iszero\n      tag_320\n      jumpi\n        /* \"#utility.yul\":9269:9287   */\n      tag_320\n      tag_249\n      jump\t// in\n    tag_320:\n        /* \"#utility.yul\":9307:9327   */\n      mul\n      swap4\n        /* \"#utility.yul\":8527:9333   */\n      swap3\n      pop\n      pop\n      pop\n      jump\t// out\n        /* \"#utility.yul\":9338:9469   */\n    tag_239:\n        /* \"#utility.yul\":9398:9403   */\n      0x00\n        /* \"#utility.yul\":9427:9463   */\n      tag_126\n        /* \"#utility.yul\":9454:9462   */\n      dup4\n        /* \"#utility.yul\":9448:9452   */\n      dup4\n        /* \"#utility.yul\":9427:9463   */\n      tag_251\n      jump\t// in\n\n    auxdata: 0xa26469706673582212205086c6408160b5242d24f760eedaaaf74c425ff2c6ecf42db89e61eef0b05b7d64736f6c63430008130033\n}\n",
				"bytecode": {
					"linkReferences": {},
					"object": "608060405260016004553480156200001657600080fd5b50604051620017ad380380620017ad833981016040819052620000399162000389565b3380600081620000905760405162461bcd60e51b815260206004820152601860248201527f43616e6e6f7420736574206f776e657220746f207a65726f000000000000000060448201526064015b60405180910390fd5b600680546001600160a01b0319166001600160a01b0384811691909117909155811615620000c357620000c38162000272565b50505060006040518060600160405280602d815260200162001780602d913960408051808201909152600a8152692f7374616e64696e677360b01b6020820152909150600e620001148482620004d0565b50620001c281620001bb600e80546200012d9062000441565b80601f01602080910402602001604051908101604052809291908181526020018280546200015b9062000441565b8015620001ac5780601f106200018057610100808354040283529160200191620001ac565b820191906000526020600020905b8154815290600101906020018083116200018e57829003601f168201915b5089949350506200031e915050565b906200031e565b600d90620001d19082620004d0565b50600280546001600160a01b03191673326c977e6efc84e512bb9c30f76e30c160ed06fb179055600380546001600160a01b031916737ecfbd6cb2d3927aa68b5f2f477737172f11190a1790557f6364336135663864636163323435653961336666353864353962343435353935600b55600a62000259670de0b6b3a764000060016200059c565b620002659190620005c2565b600c555062000618915050565b336001600160a01b03821603620002cc5760405162461bcd60e51b815260206004820152601760248201527f43616e6e6f74207472616e7366657220746f2073656c66000000000000000000604482015260640162000087565b600780546001600160a01b0319166001600160a01b03838116918217909255600654604051919216907fed8889f560326eb138920d842192f0eb3dd22b4f139c87a2c57538e05bae127890600090a350565b6060828260405160200162000335929190620005e5565b60405160208183030381529060405290505b92915050565b634e487b7160e01b600052604160045260246000fd5b60005b838110156200038057818101518382015260200162000366565b50506000910152565b6000602082840312156200039c57600080fd5b81516001600160401b0380821115620003b457600080fd5b818401915084601f830112620003c957600080fd5b815181811115620003de57620003de6200034d565b604051601f8201601f19908116603f011681019083821181831017156200040957620004096200034d565b816040528281528760208487010111156200042357600080fd5b6200043683602083016020880162000363565b979650505050505050565b600181811c908216806200045657607f821691505b6020821081036200047757634e487b7160e01b600052602260045260246000fd5b50919050565b601f821115620004cb57600081815260208120601f850160051c81016020861015620004a65750805b601f850160051c820191505b81811015620004c757828155600101620004b2565b5050505b505050565b81516001600160401b03811115620004ec57620004ec6200034d565b6200050481620004fd845462000441565b846200047d565b602080601f8311600181146200053c5760008415620005235750858301515b600019600386901b1c1916600185901b178555620004c7565b600085815260208120601f198616915b828110156200056d578886015182559484019460019091019084016200054c565b50858210156200058c5787850151600019600388901b60f8161c191681555b5050505050600190811b01905550565b80820281158282048414176200034757634e487b7160e01b600052601160045260246000fd5b600082620005e057634e487b7160e01b600052601260045260246000fd5b500490565b60008351620005f981846020880162000363565b8351908301906200060f81836020880162000363565b01949350505050565b61115880620006286000396000f3fe608060405234801561001057600080fd5b50600436106100a95760003560e01c80638dc654a2116100715780638dc654a21461010a578063d9b2929714610112578063dfbf53ae14610127578063e9c6322214610130578063f2fde38b14610143578063f81b5c5b1461015657600080fd5b806301a3694e146100ae5780630df71602146100ca57806378a7d3af146100df57806379ba5097146100e75780638da5cb5b146100ef575b600080fd5b6100b760095481565b6040519081526020015b60405180910390f35b6100dd6100d8366004610deb565b600855565b005b6100b761015f565b6100dd610273565b6006546040516001600160a01b0390911681526020016100c1565b6100dd610326565b61011a61046a565b6040516100c19190610e4a565b6100b760085481565b6100dd61013e366004610e5d565b6104f8565b6100dd610151366004610e8f565b610607565b6100b7600a5481565b600080610176600b543063e9c6322260e01b610618565b90506102326040518060400160405280600381526020016219d95d60ea1b815250600d80546101a490610ebf565b80601f01602080910402602001604051908101604052809291908181526020018280546101d090610ebf565b801561021d5780601f106101f25761010080835404028352916020019161021d565b820191906000526020600020905b81548152906001019060200180831161020057829003601f168201915b50505050508361063d9092919063ffffffff16565b610261604051806040016040528060068152602001656c656167756560d01b815250600e80546101a490610ebf565b61026d81600c54610660565b91505090565b6007546001600160a01b031633146102cb5760405162461bcd60e51b815260206004820152601660248201527526bab9ba10313290383937b837b9b2b21037bbb732b960511b60448201526064015b60405180910390fd5b600680546001600160a01b0319808216339081179093556007805490911690556040516001600160a01b03909116919082907f8be0079c531659141344cd1fd0a4f28419497f9722a3daafe3b4186f6b6457e090600090a350565b61032e610683565b60006103426002546001600160a01b031690565b6040516370a0823160e01b81523060048201529091506001600160a01b0382169063a9059cbb90339083906370a0823190602401602060405180830381865afa158015610393573d6000803e3d6000fd5b505050506040513d601f19601f820116820180604052508101906103b79190610ef3565b6040516001600160e01b031960e085901b1681526001600160a01b03909216600483015260248201526044016020604051808303816000875af1158015610402573d6000803e3d6000fd5b505050506040513d601f19601f820116820180604052508101906104269190610f0c565b6104675760405162461bcd60e51b81526020600482015260126024820152712ab730b13632903a37903a3930b739b332b960711b60448201526064016102c2565b50565b600e805461047790610ebf565b80601f01602080910402602001604051908101604052809291908181526020018280546104a390610ebf565b80156104f05780601f106104c5576101008083540402835291602001916104f0565b820191906000526020600020905b8154815290600101906020018083116104d357829003601f168201915b505050505081565b60008481526005602052604090205484906001600160a01b031633146105715760405162461bcd60e51b815260206004820152602860248201527f536f75726365206d75737420626520746865206f7261636c65206f6620746865604482015267081c995c5d595cdd60c21b60648201526084016102c2565b60008181526005602052604080822080546001600160a01b03191690555182917f7cc135e0cebb02c3480ae5d74d377283180a2601f8f644edf7987b009316c63a91a2604080518581526020810185905290810183905285907f539e5682d95ed725b9a92ef19aefc24d6e1bc6aa39ab4f2ac96a3e48f1dd2e469060600160405180910390a250600892909255600955600a5550565b61060f610683565b610467816106d8565b610620610db0565b610628610db0565b61063481868686610782565b95945050505050565b608083015161064c90836107c8565b608083015161065b90826107c8565b505050565b60035460009061067a906001600160a01b031684846107df565b90505b92915050565b6006546001600160a01b031633146106d65760405162461bcd60e51b815260206004820152601660248201527527b7363c9031b0b63630b1363290313c9037bbb732b960511b60448201526064016102c2565b565b336001600160a01b038216036107305760405162461bcd60e51b815260206004820152601760248201527f43616e6e6f74207472616e7366657220746f2073656c6600000000000000000060448201526064016102c2565b600780546001600160a01b0319166001600160a01b03838116918217909255600654604051919216907fed8889f560326eb138920d842192f0eb3dd22b4f139c87a2c57538e05bae127890600090a350565b61078a610db0565b61079a8560800151610100610872565b50508284526001600160a01b03821660208501526001600160e01b031981166040850152835b949350505050565b6107d582600383516108d7565b61065b82826109ec565b6004546000906107f0816001610f44565b600455835160408086015160808701515191516000936320214ca360e11b936108289386938493923092918a91600191602401610f57565b60408051601f198184030181529190526020810180516001600160e01b03166001600160e01b031990931692909217909152905061086886838684610a13565b9695505050505050565b604080518082019091526060815260006020820152610892602083610fbf565b156108ba576108a2602083610fbf565b6108ad906020610fe1565b6108b79083610f44565b91505b506020828101829052604080518085526000815290920101905290565b60178167ffffffffffffffff1611610902576108fc8360e0600585901b168317610b71565b50505050565b60ff8167ffffffffffffffff161161094057610929836018611fe0600586901b1617610b71565b506108fc8367ffffffffffffffff83166001610b96565b61ffff8167ffffffffffffffff161161097f57610968836019611fe0600586901b1617610b71565b506108fc8367ffffffffffffffff83166002610b96565b63ffffffff8167ffffffffffffffff16116109c0576109a983601a611fe0600586901b1617610b71565b506108fc8367ffffffffffffffff83166004610b96565b6109d583601b611fe0600586901b1617610b71565b506108fc8367ffffffffffffffff83166008610b96565b60408051808201909152606081526000602082015261067a83846000015151848551610bbc565b6040516bffffffffffffffffffffffff193060601b1660208201526034810184905260009060540160408051808303601f1901815282825280516020918201206000818152600590925291812080546001600160a01b0319166001600160a01b038a1617905590925082917fb5e6e01e79f91267dc17b4e6314d5d4d03593d2ceee0fbb452b750bd70ea5af99190a2600254604051630200057560e51b81526001600160a01b0390911690634000aea090610ad690889087908790600401610ff4565b6020604051808303816000875af1158015610af5573d6000803e3d6000fd5b505050506040513d601f19601f82011682018060405250810190610b199190610f0c565b6107c05760405162461bcd60e51b815260206004820152602360248201527f756e61626c6520746f207472616e73666572416e6443616c6c20746f206f7261604482015262636c6560e81b60648201526084016102c2565b60408051808201909152606081526000602082015261067a8384600001515184610ca6565b6040805180820190915260608152600060208201526107c0848560000151518585610d01565b6040805180820190915260608152600060208201528251821115610bdf57600080fd5b6020850151610bee8386610f44565b1115610c2157610c2185610c1187602001518786610c0c9190610f44565b610d82565b610c1c90600261101b565b610d99565b600080865180518760208301019350808887011115610c405787860182525b505050602084015b60208410610c805780518252610c5f602083610f44565b9150610c6c602082610f44565b9050610c79602085610fe1565b9350610c48565b51815160001960208690036101000a019081169019919091161790525083949350505050565b60408051808201909152606081526000602082015283602001518310610cdb57610cdb8485602001516002610c1c919061101b565b8351805160208583010184815350808503610cf7576001810182525b5093949350505050565b6040805180820190915260608152600060208201526020850151610d258584610f44565b1115610d3957610d3985610c118685610f44565b60006001610d4984610100611116565b610d539190610fe1565b9050855183868201018583198251161781525080518487011115610d775783860181525b509495945050505050565b600081831115610d9357508161067d565b50919050565b8151610da58383610872565b506108fc83826109ec565b6040805160a0810182526000808252602080830182905282840182905260608084018390528451808601909552845283015290608082015290565b600060208284031215610dfd57600080fd5b5035919050565b6000815180845260005b81811015610e2a57602081850181015186830182015201610e0e565b506000602082860101526020601f19601f83011685010191505092915050565b60208152600061067a6020830184610e04565b60008060008060808587031215610e7357600080fd5b5050823594602084013594506040840135936060013592509050565b600060208284031215610ea157600080fd5b81356001600160a01b0381168114610eb857600080fd5b9392505050565b600181811c90821680610ed357607f821691505b602082108103610d9357634e487b7160e01b600052602260045260246000fd5b600060208284031215610f0557600080fd5b5051919050565b600060208284031215610f1e57600080fd5b81518015158114610eb857600080fd5b634e487b7160e01b600052601160045260246000fd5b8082018082111561067d5761067d610f2e565b6001600160a01b0389811682526020820189905260408201889052861660608201526001600160e01b03198516608082015260a0810184905260c0810183905261010060e08201819052600090610fb083820185610e04565b9b9a5050505050505050505050565b600082610fdc57634e487b7160e01b600052601260045260246000fd5b500690565b8181038181111561067d5761067d610f2e565b60018060a01b03841681528260208201526060604082015260006106346060830184610e04565b808202811582820484141761067d5761067d610f2e565b600181815b8085111561106d57816000190482111561105357611053610f2e565b8085161561106057918102915b93841c9390800290611037565b509250929050565b6000826110845750600161067d565b816110915750600061067d565b81600181146110a757600281146110b1576110cd565b600191505061067d565b60ff8411156110c2576110c2610f2e565b50506001821b61067d565b5060208310610133831016604e8410600b84101617156110f0575081810a61067d565b6110fa8383611032565b806000190482111561110e5761110e610f2e565b029392505050565b600061067a838361107556fea26469706673582212205086c6408160b5242d24f760eedaaaf74c425ff2c6ecf42db89e61eef0b05b7d64736f6c63430008130033687474703a2f2f6170692e666f6f7462616c6c2d646174612e6f72672f76342f636f6d7065746974696f6e732f",
					"opcodes": "PUSH1 0x80 PUSH1 0x40 MSTORE PUSH1 0x1 PUSH1 0x4 SSTORE CALLVALUE DUP1 ISZERO PUSH3 0x16 JUMPI PUSH1 0x0 DUP1 REVERT JUMPDEST POP PUSH1 0x40 MLOAD PUSH3 0x17AD CODESIZE SUB DUP1 PUSH3 0x17AD DUP4 CODECOPY DUP2 ADD PUSH1 0x40 DUP2 SWAP1 MSTORE PUSH3 0x39 SWAP2 PUSH3 0x389 JUMP JUMPDEST CALLER DUP1 PUSH1 0x0 DUP2 PUSH3 0x90 JUMPI PUSH1 0x40 MLOAD PUSH3 0x461BCD PUSH1 0xE5 SHL DUP2 MSTORE PUSH1 0x20 PUSH1 0x4 DUP3 ADD MSTORE PUSH1 0x18 PUSH1 0x24 DUP3 ADD MSTORE PUSH32 0x43616E6E6F7420736574206F776E657220746F207A65726F0000000000000000 PUSH1 0x44 DUP3 ADD MSTORE PUSH1 0x64 ADD JUMPDEST PUSH1 0x40 MLOAD DUP1 SWAP2 SUB SWAP1 REVERT JUMPDEST PUSH1 0x6 DUP1 SLOAD PUSH1 0x1 PUSH1 0x1 PUSH1 0xA0 SHL SUB NOT AND PUSH1 0x1 PUSH1 0x1 PUSH1 0xA0 SHL SUB DUP5 DUP2 AND SWAP2 SWAP1 SWAP2 OR SWAP1 SWAP2 SSTORE DUP2 AND ISZERO PUSH3 0xC3 JUMPI PUSH3 0xC3 DUP2 PUSH3 0x272 JUMP JUMPDEST POP POP POP PUSH1 0x0 PUSH1 0x40 MLOAD DUP1 PUSH1 0x60 ADD PUSH1 0x40 MSTORE DUP1 PUSH1 0x2D DUP2 MSTORE PUSH1 0x20 ADD PUSH3 0x1780 PUSH1 0x2D SWAP2 CODECOPY PUSH1 0x40 DUP1 MLOAD DUP1 DUP3 ADD SWAP1 SWAP2 MSTORE PUSH1 0xA DUP2 MSTORE PUSH10 0x2F7374616E64696E6773 PUSH1 0xB0 SHL PUSH1 0x20 DUP3 ADD MSTORE SWAP1 SWAP2 POP PUSH1 0xE PUSH3 0x114 DUP5 DUP3 PUSH3 0x4D0 JUMP JUMPDEST POP PUSH3 0x1C2 DUP2 PUSH3 0x1BB PUSH1 0xE DUP1 SLOAD PUSH3 0x12D SWAP1 PUSH3 0x441 JUMP JUMPDEST DUP1 PUSH1 0x1F ADD PUSH1 0x20 DUP1 SWAP2 DIV MUL PUSH1 0x20 ADD PUSH1 0x40 MLOAD SWAP1 DUP2 ADD PUSH1 0x40 MSTORE DUP1 SWAP3 SWAP2 SWAP1 DUP2 DUP2 MSTORE PUSH1 0x20 ADD DUP3 DUP1 SLOAD PUSH3 0x15B SWAP1 PUSH3 0x441 JUMP JUMPDEST DUP1 ISZERO PUSH3 0x1AC JUMPI DUP1 PUSH1 0x1F LT PUSH3 0x180 JUMPI PUSH2 0x100 DUP1 DUP4 SLOAD DIV MUL DUP4 MSTORE SWAP2 PUSH1 0x20 ADD SWAP2 PUSH3 0x1AC JUMP JUMPDEST DUP3 ADD SWAP2 SWAP1 PUSH1 0x0 MSTORE PUSH1 0x20 PUSH1 0x0 KECCAK256 SWAP1 JUMPDEST DUP2 SLOAD DUP2 MSTORE SWAP1 PUSH1 0x1 ADD SWAP1 PUSH1 0x20 ADD DUP1 DUP4 GT PUSH3 0x18E JUMPI DUP3 SWAP1 SUB PUSH1 0x1F AND DUP3 ADD SWAP2 JUMPDEST POP DUP10 SWAP5 SWAP4 POP POP PUSH3 0x31E SWAP2 POP POP JUMP JUMPDEST SWAP1 PUSH3 0x31E JUMP JUMPDEST PUSH1 0xD SWAP1 PUSH3 0x1D1 SWAP1 DUP3 PUSH3 0x4D0 JUMP JUMPDEST POP PUSH1 0x2 DUP1 SLOAD PUSH1 0x1 PUSH1 0x1 PUSH1 0xA0 SHL SUB NOT AND PUSH20 0x326C977E6EFC84E512BB9C30F76E30C160ED06FB OR SWAP1 SSTORE PUSH1 0x3 DUP1 SLOAD PUSH1 0x1 PUSH1 0x1 PUSH1 0xA0 SHL SUB NOT AND PUSH20 0x7ECFBD6CB2D3927AA68B5F2F477737172F11190A OR SWAP1 SSTORE PUSH32 0x6364336135663864636163323435653961336666353864353962343435353935 PUSH1 0xB SSTORE PUSH1 0xA PUSH3 0x259 PUSH8 0xDE0B6B3A7640000 PUSH1 0x1 PUSH3 0x59C JUMP JUMPDEST PUSH3 0x265 SWAP2 SWAP1 PUSH3 0x5C2 JUMP JUMPDEST PUSH1 0xC SSTORE POP PUSH3 0x618 SWAP2 POP POP JUMP JUMPDEST CALLER PUSH1 0x1 PUSH1 0x1 PUSH1 0xA0 SHL SUB DUP3 AND SUB PUSH3 0x2CC JUMPI PUSH1 0x40 MLOAD PUSH3 0x461BCD PUSH1 0xE5 SHL DUP2 MSTORE PUSH1 0x20 PUSH1 0x4 DUP3 ADD MSTORE PUSH1 0x17 PUSH1 0x24 DUP3 ADD MSTORE PUSH32 0x43616E6E6F74207472616E7366657220746F2073656C66000000000000000000 PUSH1 0x44 DUP3 ADD MSTORE PUSH1 0x64 ADD PUSH3 0x87 JUMP JUMPDEST PUSH1 0x7 DUP1 SLOAD PUSH1 0x1 PUSH1 0x1 PUSH1 0xA0 SHL SUB NOT AND PUSH1 0x1 PUSH1 0x1 PUSH1 0xA0 SHL SUB DUP4 DUP2 AND SWAP2 DUP3 OR SWAP1 SWAP3 SSTORE PUSH1 0x6 SLOAD PUSH1 0x40 MLOAD SWAP2 SWAP3 AND SWAP1 PUSH32 0xED8889F560326EB138920D842192F0EB3DD22B4F139C87A2C57538E05BAE1278 SWAP1 PUSH1 0x0 SWAP1 LOG3 POP JUMP JUMPDEST PUSH1 0x60 DUP3 DUP3 PUSH1 0x40 MLOAD PUSH1 0x20 ADD PUSH3 0x335 SWAP3 SWAP2 SWAP1 PUSH3 0x5E5 JUMP JUMPDEST PUSH1 0x40 MLOAD PUSH1 0x20 DUP2 DUP4 SUB SUB DUP2 MSTORE SWAP1 PUSH1 0x40 MSTORE SWAP1 POP JUMPDEST SWAP3 SWAP2 POP POP JUMP JUMPDEST PUSH4 0x4E487B71 PUSH1 0xE0 SHL PUSH1 0x0 MSTORE PUSH1 0x41 PUSH1 0x4 MSTORE PUSH1 0x24 PUSH1 0x0 REVERT JUMPDEST PUSH1 0x0 JUMPDEST DUP4 DUP2 LT ISZERO PUSH3 0x380 JUMPI DUP2 DUP2 ADD MLOAD DUP4 DUP3 ADD MSTORE PUSH1 0x20 ADD PUSH3 0x366 JUMP JUMPDEST POP POP PUSH1 0x0 SWAP2 ADD MSTORE JUMP JUMPDEST PUSH1 0x0 PUSH1 0x20 DUP3 DUP5 SUB SLT ISZERO PUSH3 0x39C JUMPI PUSH1 0x0 DUP1 REVERT JUMPDEST DUP2 MLOAD PUSH1 0x1 PUSH1 0x1 PUSH1 0x40 SHL SUB DUP1 DUP3 GT ISZERO PUSH3 0x3B4 JUMPI PUSH1 0x0 DUP1 REVERT JUMPDEST DUP2 DUP5 ADD SWAP2 POP DUP5 PUSH1 0x1F DUP4 ADD SLT PUSH3 0x3C9 JUMPI PUSH1 0x0 DUP1 REVERT JUMPDEST DUP2 MLOAD DUP2 DUP2 GT ISZERO PUSH3 0x3DE JUMPI PUSH3 0x3DE PUSH3 0x34D JUMP JUMPDEST PUSH1 0x40 MLOAD PUSH1 0x1F DUP3 ADD PUSH1 0x1F NOT SWAP1 DUP2 AND PUSH1 0x3F ADD AND DUP2 ADD SWAP1 DUP4 DUP3 GT DUP2 DUP4 LT OR ISZERO PUSH3 0x409 JUMPI PUSH3 0x409 PUSH3 0x34D JUMP JUMPDEST DUP2 PUSH1 0x40 MSTORE DUP3 DUP2 MSTORE DUP8 PUSH1 0x20 DUP5 DUP8 ADD ADD GT ISZERO PUSH3 0x423 JUMPI PUSH1 0x0 DUP1 REVERT JUMPDEST PUSH3 0x436 DUP4 PUSH1 0x20 DUP4 ADD PUSH1 0x20 DUP9 ADD PUSH3 0x363 JUMP JUMPDEST SWAP8 SWAP7 POP POP POP POP POP POP POP JUMP JUMPDEST PUSH1 0x1 DUP2 DUP2 SHR SWAP1 DUP3 AND DUP1 PUSH3 0x456 JUMPI PUSH1 0x7F DUP3 AND SWAP2 POP JUMPDEST PUSH1 0x20 DUP3 LT DUP2 SUB PUSH3 0x477 JUMPI PUSH4 0x4E487B71 PUSH1 0xE0 SHL PUSH1 0x0 MSTORE PUSH1 0x22 PUSH1 0x4 MSTORE PUSH1 0x24 PUSH1 0x0 REVERT JUMPDEST POP SWAP2 SWAP1 POP JUMP JUMPDEST PUSH1 0x1F DUP3 GT ISZERO PUSH3 0x4CB JUMPI PUSH1 0x0 DUP2 DUP2 MSTORE PUSH1 0x20 DUP2 KECCAK256 PUSH1 0x1F DUP6 ADD PUSH1 0x5 SHR DUP2 ADD PUSH1 0x20 DUP7 LT ISZERO PUSH3 0x4A6 JUMPI POP DUP1 JUMPDEST PUSH1 0x1F DUP6 ADD PUSH1 0x5 SHR DUP3 ADD SWAP2 POP JUMPDEST DUP2 DUP2 LT ISZERO PUSH3 0x4C7 JUMPI DUP3 DUP2 SSTORE PUSH1 0x1 ADD PUSH3 0x4B2 JUMP JUMPDEST POP POP POP JUMPDEST POP POP POP JUMP JUMPDEST DUP2 MLOAD PUSH1 0x1 PUSH1 0x1 PUSH1 0x40 SHL SUB DUP2 GT ISZERO PUSH3 0x4EC JUMPI PUSH3 0x4EC PUSH3 0x34D JUMP JUMPDEST PUSH3 0x504 DUP2 PUSH3 0x4FD DUP5 SLOAD PUSH3 0x441 JUMP JUMPDEST DUP5 PUSH3 0x47D JUMP JUMPDEST PUSH1 0x20 DUP1 PUSH1 0x1F DUP4 GT PUSH1 0x1 DUP2 EQ PUSH3 0x53C JUMPI PUSH1 0x0 DUP5 ISZERO PUSH3 0x523 JUMPI POP DUP6 DUP4 ADD MLOAD JUMPDEST PUSH1 0x0 NOT PUSH1 0x3 DUP7 SWAP1 SHL SHR NOT AND PUSH1 0x1 DUP6 SWAP1 SHL OR DUP6 SSTORE PUSH3 0x4C7 JUMP JUMPDEST PUSH1 0x0 DUP6 DUP2 MSTORE PUSH1 0x20 DUP2 KECCAK256 PUSH1 0x1F NOT DUP7 AND SWAP2 JUMPDEST DUP3 DUP2 LT ISZERO PUSH3 0x56D JUMPI DUP9 DUP7 ADD MLOAD DUP3 SSTORE SWAP5 DUP5 ADD SWAP5 PUSH1 0x1 SWAP1 SWAP2 ADD SWAP1 DUP5 ADD PUSH3 0x54C JUMP JUMPDEST POP DUP6 DUP3 LT ISZERO PUSH3 0x58C JUMPI DUP8 DUP6 ADD MLOAD PUSH1 0x0 NOT PUSH1 0x3 DUP9 SWAP1 SHL PUSH1 0xF8 AND SHR NOT AND DUP2 SSTORE JUMPDEST POP POP POP POP POP PUSH1 0x1 SWAP1 DUP2 SHL ADD SWAP1 SSTORE POP JUMP JUMPDEST DUP1 DUP3 MUL DUP2 ISZERO DUP3 DUP3 DIV DUP5 EQ OR PUSH3 0x347 JUMPI PUSH4 0x4E487B71 PUSH1 0xE0 SHL PUSH1 0x0 MSTORE PUSH1 0x11 PUSH1 0x4 MSTORE PUSH1 0x24 PUSH1 0x0 REVERT JUMPDEST PUSH1 0x0 DUP3 PUSH3 0x5E0 JUMPI PUSH4 0x4E487B71 PUSH1 0xE0 SHL PUSH1 0x0 MSTORE PUSH1 0x12 PUSH1 0x4 MSTORE PUSH1 0x24 PUSH1 0x0 REVERT JUMPDEST POP DIV SWAP1 JUMP JUMPDEST PUSH1 0x0 DUP4 MLOAD PUSH3 0x5F9 DUP2 DUP5 PUSH1 0x20 DUP9 ADD PUSH3 0x363 JUMP JUMPDEST DUP4 MLOAD SWAP1 DUP4 ADD SWAP1 PUSH3 0x60F DUP2 DUP4 PUSH1 0x20 DUP9 ADD PUSH3 0x363 JUMP JUMPDEST ADD SWAP5 SWAP4 POP POP POP POP JUMP JUMPDEST PUSH2 0x1158 DUP1 PUSH3 0x628 PUSH1 0x0 CODECOPY PUSH1 0x0 RETURN INVALID PUSH1 0x80 PUSH1 0x40 MSTORE CALLVALUE DUP1 ISZERO PUSH2 0x10 JUMPI PUSH1 0x0 DUP1 REVERT JUMPDEST POP PUSH1 0x4 CALLDATASIZE LT PUSH2 0xA9 JUMPI PUSH1 0x0 CALLDATALOAD PUSH1 0xE0 SHR DUP1 PUSH4 0x8DC654A2 GT PUSH2 0x71 JUMPI DUP1 PUSH4 0x8DC654A2 EQ PUSH2 0x10A JUMPI DUP1 PUSH4 0xD9B29297 EQ PUSH2 0x112 JUMPI DUP1 PUSH4 0xDFBF53AE EQ PUSH2 0x127 JUMPI DUP1 PUSH4 0xE9C63222 EQ PUSH2 0x130 JUMPI DUP1 PUSH4 0xF2FDE38B EQ PUSH2 0x143 JUMPI DUP1 PUSH4 0xF81B5C5B EQ PUSH2 0x156 JUMPI PUSH1 0x0 DUP1 REVERT JUMPDEST DUP1 PUSH4 0x1A3694E EQ PUSH2 0xAE JUMPI DUP1 PUSH4 0xDF71602 EQ PUSH2 0xCA JUMPI DUP1 PUSH4 0x78A7D3AF EQ PUSH2 0xDF JUMPI DUP1 PUSH4 0x79BA5097 EQ PUSH2 0xE7 JUMPI DUP1 PUSH4 0x8DA5CB5B EQ PUSH2 0xEF JUMPI JUMPDEST PUSH1 0x0 DUP1 REVERT JUMPDEST PUSH2 0xB7 PUSH1 0x9 SLOAD DUP2 JUMP JUMPDEST PUSH1 0x40 MLOAD SWAP1 DUP2 MSTORE PUSH1 0x20 ADD JUMPDEST PUSH1 0x40 MLOAD DUP1 SWAP2 SUB SWAP1 RETURN JUMPDEST PUSH2 0xDD PUSH2 0xD8 CALLDATASIZE PUSH1 0x4 PUSH2 0xDEB JUMP JUMPDEST PUSH1 0x8 SSTORE JUMP JUMPDEST STOP JUMPDEST PUSH2 0xB7 PUSH2 0x15F JUMP JUMPDEST PUSH2 0xDD PUSH2 0x273 JUMP JUMPDEST PUSH1 0x6 SLOAD PUSH1 0x40 MLOAD PUSH1 0x1 PUSH1 0x1 PUSH1 0xA0 SHL SUB SWAP1 SWAP2 AND DUP2 MSTORE PUSH1 0x20 ADD PUSH2 0xC1 JUMP JUMPDEST PUSH2 0xDD PUSH2 0x326 JUMP JUMPDEST PUSH2 0x11A PUSH2 0x46A JUMP JUMPDEST PUSH1 0x40 MLOAD PUSH2 0xC1 SWAP2 SWAP1 PUSH2 0xE4A JUMP JUMPDEST PUSH2 0xB7 PUSH1 0x8 SLOAD DUP2 JUMP JUMPDEST PUSH2 0xDD PUSH2 0x13E CALLDATASIZE PUSH1 0x4 PUSH2 0xE5D JUMP JUMPDEST PUSH2 0x4F8 JUMP JUMPDEST PUSH2 0xDD PUSH2 0x151 CALLDATASIZE PUSH1 0x4 PUSH2 0xE8F JUMP JUMPDEST PUSH2 0x607 JUMP JUMPDEST PUSH2 0xB7 PUSH1 0xA SLOAD DUP2 JUMP JUMPDEST PUSH1 0x0 DUP1 PUSH2 0x176 PUSH1 0xB SLOAD ADDRESS PUSH4 0xE9C63222 PUSH1 0xE0 SHL PUSH2 0x618 JUMP JUMPDEST SWAP1 POP PUSH2 0x232 PUSH1 0x40 MLOAD DUP1 PUSH1 0x40 ADD PUSH1 0x40 MSTORE DUP1 PUSH1 0x3 DUP2 MSTORE PUSH1 0x20 ADD PUSH3 0x19D95D PUSH1 0xEA SHL DUP2 MSTORE POP PUSH1 0xD DUP1 SLOAD PUSH2 0x1A4 SWAP1 PUSH2 0xEBF JUMP JUMPDEST DUP1 PUSH1 0x1F ADD PUSH1 0x20 DUP1 SWAP2 DIV MUL PUSH1 0x20 ADD PUSH1 0x40 MLOAD SWAP1 DUP2 ADD PUSH1 0x40 MSTORE DUP1 SWAP3 SWAP2 SWAP1 DUP2 DUP2 MSTORE PUSH1 0x20 ADD DUP3 DUP1 SLOAD PUSH2 0x1D0 SWAP1 PUSH2 0xEBF JUMP JUMPDEST DUP1 ISZERO PUSH2 0x21D JUMPI DUP1 PUSH1 0x1F LT PUSH2 0x1F2 JUMPI PUSH2 0x100 DUP1 DUP4 SLOAD DIV MUL DUP4 MSTORE SWAP2 PUSH1 0x20 ADD SWAP2 PUSH2 0x21D JUMP JUMPDEST DUP3 ADD SWAP2 SWAP1 PUSH1 0x0 MSTORE PUSH1 0x20 PUSH1 0x0 KECCAK256 SWAP1 JUMPDEST DUP2 SLOAD DUP2 MSTORE SWAP1 PUSH1 0x1 ADD SWAP1 PUSH1 0x20 ADD DUP1 DUP4 GT PUSH2 0x200 JUMPI DUP3 SWAP1 SUB PUSH1 0x1F AND DUP3 ADD SWAP2 JUMPDEST POP POP POP POP POP DUP4 PUSH2 0x63D SWAP1 SWAP3 SWAP2 SWAP1 PUSH4 0xFFFFFFFF AND JUMP JUMPDEST PUSH2 0x261 PUSH1 0x40 MLOAD DUP1 PUSH1 0x40 ADD PUSH1 0x40 MSTORE DUP1 PUSH1 0x6 DUP2 MSTORE PUSH1 0x20 ADD PUSH6 0x6C6561677565 PUSH1 0xD0 SHL DUP2 MSTORE POP PUSH1 0xE DUP1 SLOAD PUSH2 0x1A4 SWAP1 PUSH2 0xEBF JUMP JUMPDEST PUSH2 0x26D DUP2 PUSH1 0xC SLOAD PUSH2 0x660 JUMP JUMPDEST SWAP2 POP POP SWAP1 JUMP JUMPDEST PUSH1 0x7 SLOAD PUSH1 0x1 PUSH1 0x1 PUSH1 0xA0 SHL SUB AND CALLER EQ PUSH2 0x2CB JUMPI PUSH1 0x40 MLOAD PUSH3 0x461BCD PUSH1 0xE5 SHL DUP2 MSTORE PUSH1 0x20 PUSH1 0x4 DUP3 ADD MSTORE PUSH1 0x16 PUSH1 0x24 DUP3 ADD MSTORE PUSH22 0x26BAB9BA10313290383937B837B9B2B21037BBB732B9 PUSH1 0x51 SHL PUSH1 0x44 DUP3 ADD MSTORE PUSH1 0x64 ADD JUMPDEST PUSH1 0x40 MLOAD DUP1 SWAP2 SUB SWAP1 REVERT JUMPDEST PUSH1 0x6 DUP1 SLOAD PUSH1 0x1 PUSH1 0x1 PUSH1 0xA0 SHL SUB NOT DUP1 DUP3 AND CALLER SWAP1 DUP2 OR SWAP1 SWAP4 SSTORE PUSH1 0x7 DUP1 SLOAD SWAP1 SWAP2 AND SWAP1 SSTORE PUSH1 0x40 MLOAD PUSH1 0x1 PUSH1 0x1 PUSH1 0xA0 SHL SUB SWAP1 SWAP2 AND SWAP2 SWAP1 DUP3 SWAP1 PUSH32 0x8BE0079C531659141344CD1FD0A4F28419497F9722A3DAAFE3B4186F6B6457E0 SWAP1 PUSH1 0x0 SWAP1 LOG3 POP JUMP JUMPDEST PUSH2 0x32E PUSH2 0x683 JUMP JUMPDEST PUSH1 0x0 PUSH2 0x342 PUSH1 0x2 SLOAD PUSH1 0x1 PUSH1 0x1 PUSH1 0xA0 SHL SUB AND SWAP1 JUMP JUMPDEST PUSH1 0x40 MLOAD PUSH4 0x70A08231 PUSH1 0xE0 SHL DUP2 MSTORE ADDRESS PUSH1 0x4 DUP3 ADD MSTORE SWAP1 SWAP2 POP PUSH1 0x1 PUSH1 0x1 PUSH1 0xA0 SHL SUB DUP3 AND SWAP1 PUSH4 0xA9059CBB SWAP1 CALLER SWAP1 DUP4 SWAP1 PUSH4 0x70A08231 SWAP1 PUSH1 0x24 ADD PUSH1 0x20 PUSH1 0x40 MLOAD DUP1 DUP4 SUB DUP2 DUP7 GAS STATICCALL ISZERO DUP1 ISZERO PUSH2 0x393 JUMPI RETURNDATASIZE PUSH1 0x0 DUP1 RETURNDATACOPY RETURNDATASIZE PUSH1 0x0 REVERT JUMPDEST POP POP POP POP PUSH1 0x40 MLOAD RETURNDATASIZE PUSH1 0x1F NOT PUSH1 0x1F DUP3 ADD AND DUP3 ADD DUP1 PUSH1 0x40 MSTORE POP DUP2 ADD SWAP1 PUSH2 0x3B7 SWAP2 SWAP1 PUSH2 0xEF3 JUMP JUMPDEST PUSH1 0x40 MLOAD PUSH1 0x1 PUSH1 0x1 PUSH1 0xE0 SHL SUB NOT PUSH1 0xE0 DUP6 SWAP1 SHL AND DUP2 MSTORE PUSH1 0x1 PUSH1 0x1 PUSH1 0xA0 SHL SUB SWAP1 SWAP3 AND PUSH1 0x4 DUP4 ADD MSTORE PUSH1 0x24 DUP3 ADD MSTORE PUSH1 0x44 ADD PUSH1 0x20 PUSH1 0x40 MLOAD DUP1 DUP4 SUB DUP2 PUSH1 0x0 DUP8 GAS CALL ISZERO DUP1 ISZERO PUSH2 0x402 JUMPI RETURNDATASIZE PUSH1 0x0 DUP1 RETURNDATACOPY RETURNDATASIZE PUSH1 0x0 REVERT JUMPDEST POP POP POP POP PUSH1 0x40 MLOAD RETURNDATASIZE PUSH1 0x1F NOT PUSH1 0x1F DUP3 ADD AND DUP3 ADD DUP1 PUSH1 0x40 MSTORE POP DUP2 ADD SWAP1 PUSH2 0x426 SWAP2 SWAP1 PUSH2 0xF0C JUMP JUMPDEST PUSH2 0x467 JUMPI PUSH1 0x40 MLOAD PUSH3 0x461BCD PUSH1 0xE5 SHL DUP2 MSTORE PUSH1 0x20 PUSH1 0x4 DUP3 ADD MSTORE PUSH1 0x12 PUSH1 0x24 DUP3 ADD MSTORE PUSH18 0x2AB730B13632903A37903A3930B739B332B9 PUSH1 0x71 SHL PUSH1 0x44 DUP3 ADD MSTORE PUSH1 0x64 ADD PUSH2 0x2C2 JUMP JUMPDEST POP JUMP JUMPDEST PUSH1 0xE DUP1 SLOAD PUSH2 0x477 SWAP1 PUSH2 0xEBF JUMP JUMPDEST DUP1 PUSH1 0x1F ADD PUSH1 0x20 DUP1 SWAP2 DIV MUL PUSH1 0x20 ADD PUSH1 0x40 MLOAD SWAP1 DUP2 ADD PUSH1 0x40 MSTORE DUP1 SWAP3 SWAP2 SWAP1 DUP2 DUP2 MSTORE PUSH1 0x20 ADD DUP3 DUP1 SLOAD PUSH2 0x4A3 SWAP1 PUSH2 0xEBF JUMP JUMPDEST DUP1 ISZERO PUSH2 0x4F0 JUMPI DUP1 PUSH1 0x1F LT PUSH2 0x4C5 JUMPI PUSH2 0x100 DUP1 DUP4 SLOAD DIV MUL DUP4 MSTORE SWAP2 PUSH1 0x20 ADD SWAP2 PUSH2 0x4F0 JUMP JUMPDEST DUP3 ADD SWAP2 SWAP1 PUSH1 0x0 MSTORE PUSH1 0x20 PUSH1 0x0 KECCAK256 SWAP1 JUMPDEST DUP2 SLOAD DUP2 MSTORE SWAP1 PUSH1 0x1 ADD SWAP1 PUSH1 0x20 ADD DUP1 DUP4 GT PUSH2 0x4D3 JUMPI DUP3 SWAP1 SUB PUSH1 0x1F AND DUP3 ADD SWAP2 JUMPDEST POP POP POP POP POP DUP2 JUMP JUMPDEST PUSH1 0x0 DUP5 DUP2 MSTORE PUSH1 0x5 PUSH1 0x20 MSTORE PUSH1 0x40 SWAP1 KECCAK256 SLOAD DUP5 SWAP1 PUSH1 0x1 PUSH1 0x1 PUSH1 0xA0 SHL SUB AND CALLER EQ PUSH2 0x571 JUMPI PUSH1 0x40 MLOAD PUSH3 0x461BCD PUSH1 0xE5 SHL DUP2 MSTORE PUSH1 0x20 PUSH1 0x4 DUP3 ADD MSTORE PUSH1 0x28 PUSH1 0x24 DUP3 ADD MSTORE PUSH32 0x536F75726365206D75737420626520746865206F7261636C65206F6620746865 PUSH1 0x44 DUP3 ADD MSTORE PUSH8 0x81C995C5D595CDD PUSH1 0xC2 SHL PUSH1 0x64 DUP3 ADD MSTORE PUSH1 0x84 ADD PUSH2 0x2C2 JUMP JUMPDEST PUSH1 0x0 DUP2 DUP2 MSTORE PUSH1 0x5 PUSH1 0x20 MSTORE PUSH1 0x40 DUP1 DUP3 KECCAK256 DUP1 SLOAD PUSH1 0x1 PUSH1 0x1 PUSH1 0xA0 SHL SUB NOT AND SWAP1 SSTORE MLOAD DUP3 SWAP2 PUSH32 0x7CC135E0CEBB02C3480AE5D74D377283180A2601F8F644EDF7987B009316C63A SWAP2 LOG2 PUSH1 0x40 DUP1 MLOAD DUP6 DUP2 MSTORE PUSH1 0x20 DUP2 ADD DUP6 SWAP1 MSTORE SWAP1 DUP2 ADD DUP4 SWAP1 MSTORE DUP6 SWAP1 PUSH32 0x539E5682D95ED725B9A92EF19AEFC24D6E1BC6AA39AB4F2AC96A3E48F1DD2E46 SWAP1 PUSH1 0x60 ADD PUSH1 0x40 MLOAD DUP1 SWAP2 SUB SWAP1 LOG2 POP PUSH1 0x8 SWAP3 SWAP1 SWAP3 SSTORE PUSH1 0x9 SSTORE PUSH1 0xA SSTORE POP JUMP JUMPDEST PUSH2 0x60F PUSH2 0x683 JUMP JUMPDEST PUSH2 0x467 DUP2 PUSH2 0x6D8 JUMP JUMPDEST PUSH2 0x620 PUSH2 0xDB0 JUMP JUMPDEST PUSH2 0x628 PUSH2 0xDB0 JUMP JUMPDEST PUSH2 0x634 DUP2 DUP7 DUP7 DUP7 PUSH2 0x782 JUMP JUMPDEST SWAP6 SWAP5 POP POP POP POP POP JUMP JUMPDEST PUSH1 0x80 DUP4 ADD MLOAD PUSH2 0x64C SWAP1 DUP4 PUSH2 0x7C8 JUMP JUMPDEST PUSH1 0x80 DUP4 ADD MLOAD PUSH2 0x65B SWAP1 DUP3 PUSH2 0x7C8 JUMP JUMPDEST POP POP POP JUMP JUMPDEST PUSH1 0x3 SLOAD PUSH1 0x0 SWAP1 PUSH2 0x67A SWAP1 PUSH1 0x1 PUSH1 0x1 PUSH1 0xA0 SHL SUB AND DUP5 DUP5 PUSH2 0x7DF JUMP JUMPDEST SWAP1 POP JUMPDEST SWAP3 SWAP2 POP POP JUMP JUMPDEST PUSH1 0x6 SLOAD PUSH1 0x1 PUSH1 0x1 PUSH1 0xA0 SHL SUB AND CALLER EQ PUSH2 0x6D6 JUMPI PUSH1 0x40 MLOAD PUSH3 0x461BCD PUSH1 0xE5 SHL DUP2 MSTORE PUSH1 0x20 PUSH1 0x4 DUP3 ADD MSTORE PUSH1 0x16 PUSH1 0x24 DUP3 ADD MSTORE PUSH22 0x27B7363C9031B0B63630B1363290313C9037BBB732B9 PUSH1 0x51 SHL PUSH1 0x44 DUP3 ADD MSTORE PUSH1 0x64 ADD PUSH2 0x2C2 JUMP JUMPDEST JUMP JUMPDEST CALLER PUSH1 0x1 PUSH1 0x1 PUSH1 0xA0 SHL SUB DUP3 AND SUB PUSH2 0x730 JUMPI PUSH1 0x40 MLOAD PUSH3 0x461BCD PUSH1 0xE5 SHL DUP2 MSTORE PUSH1 0x20 PUSH1 0x4 DUP3 ADD MSTORE PUSH1 0x17 PUSH1 0x24 DUP3 ADD MSTORE PUSH32 0x43616E6E6F74207472616E7366657220746F2073656C66000000000000000000 PUSH1 0x44 DUP3 ADD MSTORE PUSH1 0x64 ADD PUSH2 0x2C2 JUMP JUMPDEST PUSH1 0x7 DUP1 SLOAD PUSH1 0x1 PUSH1 0x1 PUSH1 0xA0 SHL SUB NOT AND PUSH1 0x1 PUSH1 0x1 PUSH1 0xA0 SHL SUB DUP4 DUP2 AND SWAP2 DUP3 OR SWAP1 SWAP3 SSTORE PUSH1 0x6 SLOAD PUSH1 0x40 MLOAD SWAP2 SWAP3 AND SWAP1 PUSH32 0xED8889F560326EB138920D842192F0EB3DD22B4F139C87A2C57538E05BAE1278 SWAP1 PUSH1 0x0 SWAP1 LOG3 POP JUMP JUMPDEST PUSH2 0x78A PUSH2 0xDB0 JUMP JUMPDEST PUSH2 0x79A DUP6 PUSH1 0x80 ADD MLOAD PUSH2 0x100 PUSH2 0x872 JUMP JUMPDEST POP POP DUP3 DUP5 MSTORE PUSH1 0x1 PUSH1 0x1 PUSH1 0xA0 SHL SUB DUP3 AND PUSH1 0x20 DUP6 ADD MSTORE PUSH1 0x1 PUSH1 0x1 PUSH1 0xE0 SHL SUB NOT DUP2 AND PUSH1 0x40 DUP6 ADD MSTORE DUP4 JUMPDEST SWAP5 SWAP4 POP POP POP POP JUMP JUMPDEST PUSH2 0x7D5 DUP3 PUSH1 0x3 DUP4 MLOAD PUSH2 0x8D7 JUMP JUMPDEST PUSH2 0x65B DUP3 DUP3 PUSH2 0x9EC JUMP JUMPDEST PUSH1 0x4 SLOAD PUSH1 0x0 SWAP1 PUSH2 0x7F0 DUP2 PUSH1 0x1 PUSH2 0xF44 JUMP JUMPDEST PUSH1 0x4 SSTORE DUP4 MLOAD PUSH1 0x40 DUP1 DUP7 ADD MLOAD PUSH1 0x80 DUP8 ADD MLOAD MLOAD SWAP2 MLOAD PUSH1 0x0 SWAP4 PUSH4 0x20214CA3 PUSH1 0xE1 SHL SWAP4 PUSH2 0x828 SWAP4 DUP7 SWAP4 DUP5 SWAP4 SWAP3 ADDRESS SWAP3 SWAP2 DUP11 SWAP2 PUSH1 0x1 SWAP2 PUSH1 0x24 ADD PUSH2 0xF57 JUMP JUMPDEST PUSH1 0x40 DUP1 MLOAD PUSH1 0x1F NOT DUP2 DUP5 SUB ADD DUP2 MSTORE SWAP2 SWAP1 MSTORE PUSH1 0x20 DUP2 ADD DUP1 MLOAD PUSH1 0x1 PUSH1 0x1 PUSH1 0xE0 SHL SUB AND PUSH1 0x1 PUSH1 0x1 PUSH1 0xE0 SHL SUB NOT SWAP1 SWAP4 AND SWAP3 SWAP1 SWAP3 OR SWAP1 SWAP2 MSTORE SWAP1 POP PUSH2 0x868 DUP7 DUP4 DUP7 DUP5 PUSH2 0xA13 JUMP JUMPDEST SWAP7 SWAP6 POP POP POP POP POP POP JUMP JUMPDEST PUSH1 0x40 DUP1 MLOAD DUP1 DUP3 ADD SWAP1 SWAP2 MSTORE PUSH1 0x60 DUP2 MSTORE PUSH1 0x0 PUSH1 0x20 DUP3 ADD MSTORE PUSH2 0x892 PUSH1 0x20 DUP4 PUSH2 0xFBF JUMP JUMPDEST ISZERO PUSH2 0x8BA JUMPI PUSH2 0x8A2 PUSH1 0x20 DUP4 PUSH2 0xFBF JUMP JUMPDEST PUSH2 0x8AD SWAP1 PUSH1 0x20 PUSH2 0xFE1 JUMP JUMPDEST PUSH2 0x8B7 SWAP1 DUP4 PUSH2 0xF44 JUMP JUMPDEST SWAP2 POP JUMPDEST POP PUSH1 0x20 DUP3 DUP2 ADD DUP3 SWAP1 MSTORE PUSH1 0x40 DUP1 MLOAD DUP1 DUP6 MSTORE PUSH1 0x0 DUP2 MSTORE SWAP1 SWAP3 ADD ADD SWAP1 MSTORE SWAP1 JUMP JUMPDEST PUSH1 0x17 DUP2 PUSH8 0xFFFFFFFFFFFFFFFF AND GT PUSH2 0x902 JUMPI PUSH2 0x8FC DUP4 PUSH1 0xE0 PUSH1 0x5 DUP6 SWAP1 SHL AND DUP4 OR PUSH2 0xB71 JUMP JUMPDEST POP POP POP POP JUMP JUMPDEST PUSH1 0xFF DUP2 PUSH8 0xFFFFFFFFFFFFFFFF AND GT PUSH2 0x940 JUMPI PUSH2 0x929 DUP4 PUSH1 0x18 PUSH2 0x1FE0 PUSH1 0x5 DUP7 SWAP1 SHL AND OR PUSH2 0xB71 JUMP JUMPDEST POP PUSH2 0x8FC DUP4 PUSH8 0xFFFFFFFFFFFFFFFF DUP4 AND PUSH1 0x1 PUSH2 0xB96 JUMP JUMPDEST PUSH2 0xFFFF DUP2 PUSH8 0xFFFFFFFFFFFFFFFF AND GT PUSH2 0x97F JUMPI PUSH2 0x968 DUP4 PUSH1 0x19 PUSH2 0x1FE0 PUSH1 0x5 DUP7 SWAP1 SHL AND OR PUSH2 0xB71 JUMP JUMPDEST POP PUSH2 0x8FC DUP4 PUSH8 0xFFFFFFFFFFFFFFFF DUP4 AND PUSH1 0x2 PUSH2 0xB96 JUMP JUMPDEST PUSH4 0xFFFFFFFF DUP2 PUSH8 0xFFFFFFFFFFFFFFFF AND GT PUSH2 0x9C0 JUMPI PUSH2 0x9A9 DUP4 PUSH1 0x1A PUSH2 0x1FE0 PUSH1 0x5 DUP7 SWAP1 SHL AND OR PUSH2 0xB71 JUMP JUMPDEST POP PUSH2 0x8FC DUP4 PUSH8 0xFFFFFFFFFFFFFFFF DUP4 AND PUSH1 0x4 PUSH2 0xB96 JUMP JUMPDEST PUSH2 0x9D5 DUP4 PUSH1 0x1B PUSH2 0x1FE0 PUSH1 0x5 DUP7 SWAP1 SHL AND OR PUSH2 0xB71 JUMP JUMPDEST POP PUSH2 0x8FC DUP4 PUSH8 0xFFFFFFFFFFFFFFFF DUP4 AND PUSH1 0x8 PUSH2 0xB96 JUMP JUMPDEST PUSH1 0x40 DUP1 MLOAD DUP1 DUP3 ADD SWAP1 SWAP2 MSTORE PUSH1 0x60 DUP2 MSTORE PUSH1 0x0 PUSH1 0x20 DUP3 ADD MSTORE PUSH2 0x67A DUP4 DUP5 PUSH1 0x0 ADD MLOAD MLOAD DUP5 DUP6 MLOAD PUSH2 0xBBC JUMP JUMPDEST PUSH1 0x40 MLOAD PUSH12 0xFFFFFFFFFFFFFFFFFFFFFFFF NOT ADDRESS PUSH1 0x60 SHL AND PUSH1 0x20 DUP3 ADD MSTORE PUSH1 0x34 DUP2 ADD DUP5 SWAP1 MSTORE PUSH1 0x0 SWAP1 PUSH1 0x54 ADD PUSH1 0x40 DUP1 MLOAD DUP1 DUP4 SUB PUSH1 0x1F NOT ADD DUP2 MSTORE DUP3 DUP3 MSTORE DUP1 MLOAD PUSH1 0x20 SWAP2 DUP3 ADD KECCAK256 PUSH1 0x0 DUP2 DUP2 MSTORE PUSH1 0x5 SWAP1 SWAP3 MSTORE SWAP2 DUP2 KECCAK256 DUP1 SLOAD PUSH1 0x1 PUSH1 0x1 PUSH1 0xA0 SHL SUB NOT AND PUSH1 0x1 PUSH1 0x1 PUSH1 0xA0 SHL SUB DUP11 AND OR SWAP1 SSTORE SWAP1 SWAP3 POP DUP3 SWAP2 PUSH32 0xB5E6E01E79F91267DC17B4E6314D5D4D03593D2CEEE0FBB452B750BD70EA5AF9 SWAP2 SWAP1 LOG2 PUSH1 0x2 SLOAD PUSH1 0x40 MLOAD PUSH4 0x2000575 PUSH1 0xE5 SHL DUP2 MSTORE PUSH1 0x1 PUSH1 0x1 PUSH1 0xA0 SHL SUB SWAP1 SWAP2 AND SWAP1 PUSH4 0x4000AEA0 SWAP1 PUSH2 0xAD6 SWAP1 DUP9 SWAP1 DUP8 SWAP1 DUP8 SWAP1 PUSH1 0x4 ADD PUSH2 0xFF4 JUMP JUMPDEST PUSH1 0x20 PUSH1 0x40 MLOAD DUP1 DUP4 SUB DUP2 PUSH1 0x0 DUP8 GAS CALL ISZERO DUP1 ISZERO PUSH2 0xAF5 JUMPI RETURNDATASIZE PUSH1 0x0 DUP1 RETURNDATACOPY RETURNDATASIZE PUSH1 0x0 REVERT JUMPDEST POP POP POP POP PUSH1 0x40 MLOAD RETURNDATASIZE PUSH1 0x1F NOT PUSH1 0x1F DUP3 ADD AND DUP3 ADD DUP1 PUSH1 0x40 MSTORE POP DUP2 ADD SWAP1 PUSH2 0xB19 SWAP2 SWAP1 PUSH2 0xF0C JUMP JUMPDEST PUSH2 0x7C0 JUMPI PUSH1 0x40 MLOAD PUSH3 0x461BCD PUSH1 0xE5 SHL DUP2 MSTORE PUSH1 0x20 PUSH1 0x4 DUP3 ADD MSTORE PUSH1 0x23 PUSH1 0x24 DUP3 ADD MSTORE PUSH32 0x756E61626C6520746F207472616E73666572416E6443616C6C20746F206F7261 PUSH1 0x44 DUP3 ADD MSTORE PUSH3 0x636C65 PUSH1 0xE8 SHL PUSH1 0x64 DUP3 ADD MSTORE PUSH1 0x84 ADD PUSH2 0x2C2 JUMP JUMPDEST PUSH1 0x40 DUP1 MLOAD DUP1 DUP3 ADD SWAP1 SWAP2 MSTORE PUSH1 0x60 DUP2 MSTORE PUSH1 0x0 PUSH1 0x20 DUP3 ADD MSTORE PUSH2 0x67A DUP4 DUP5 PUSH1 0x0 ADD MLOAD MLOAD DUP5 PUSH2 0xCA6 JUMP JUMPDEST PUSH1 0x40 DUP1 MLOAD DUP1 DUP3 ADD SWAP1 SWAP2 MSTORE PUSH1 0x60 DUP2 MSTORE PUSH1 0x0 PUSH1 0x20 DUP3 ADD MSTORE PUSH2 0x7C0 DUP5 DUP6 PUSH1 0x0 ADD MLOAD MLOAD DUP6 DUP6 PUSH2 0xD01 JUMP JUMPDEST PUSH1 0x40 DUP1 MLOAD DUP1 DUP3 ADD SWAP1 SWAP2 MSTORE PUSH1 0x60 DUP2 MSTORE PUSH1 0x0 PUSH1 0x20 DUP3 ADD MSTORE DUP3 MLOAD DUP3 GT ISZERO PUSH2 0xBDF JUMPI PUSH1 0x0 DUP1 REVERT JUMPDEST PUSH1 0x20 DUP6 ADD MLOAD PUSH2 0xBEE DUP4 DUP7 PUSH2 0xF44 JUMP JUMPDEST GT ISZERO PUSH2 0xC21 JUMPI PUSH2 0xC21 DUP6 PUSH2 0xC11 DUP8 PUSH1 0x20 ADD MLOAD DUP8 DUP7 PUSH2 0xC0C SWAP2 SWAP1 PUSH2 0xF44 JUMP JUMPDEST PUSH2 0xD82 JUMP JUMPDEST PUSH2 0xC1C SWAP1 PUSH1 0x2 PUSH2 0x101B JUMP JUMPDEST PUSH2 0xD99 JUMP JUMPDEST PUSH1 0x0 DUP1 DUP7 MLOAD DUP1 MLOAD DUP8 PUSH1 0x20 DUP4 ADD ADD SWAP4 POP DUP1 DUP9 DUP8 ADD GT ISZERO PUSH2 0xC40 JUMPI DUP8 DUP7 ADD DUP3 MSTORE JUMPDEST POP POP POP PUSH1 0x20 DUP5 ADD JUMPDEST PUSH1 0x20 DUP5 LT PUSH2 0xC80 JUMPI DUP1 MLOAD DUP3 MSTORE PUSH2 0xC5F PUSH1 0x20 DUP4 PUSH2 0xF44 JUMP JUMPDEST SWAP2 POP PUSH2 0xC6C PUSH1 0x20 DUP3 PUSH2 0xF44 JUMP JUMPDEST SWAP1 POP PUSH2 0xC79 PUSH1 0x20 DUP6 PUSH2 0xFE1 JUMP JUMPDEST SWAP4 POP PUSH2 0xC48 JUMP JUMPDEST MLOAD DUP2 MLOAD PUSH1 0x0 NOT PUSH1 0x20 DUP7 SWAP1 SUB PUSH2 0x100 EXP ADD SWAP1 DUP2 AND SWAP1 NOT SWAP2 SWAP1 SWAP2 AND OR SWAP1 MSTORE POP DUP4 SWAP5 SWAP4 POP POP POP POP JUMP JUMPDEST PUSH1 0x40 DUP1 MLOAD DUP1 DUP3 ADD SWAP1 SWAP2 MSTORE PUSH1 0x60 DUP2 MSTORE PUSH1 0x0 PUSH1 0x20 DUP3 ADD MSTORE DUP4 PUSH1 0x20 ADD MLOAD DUP4 LT PUSH2 0xCDB JUMPI PUSH2 0xCDB DUP5 DUP6 PUSH1 0x20 ADD MLOAD PUSH1 0x2 PUSH2 0xC1C SWAP2 SWAP1 PUSH2 0x101B JUMP JUMPDEST DUP4 MLOAD DUP1 MLOAD PUSH1 0x20 DUP6 DUP4 ADD ADD DUP5 DUP2 MSTORE8 POP DUP1 DUP6 SUB PUSH2 0xCF7 JUMPI PUSH1 0x1 DUP2 ADD DUP3 MSTORE JUMPDEST POP SWAP4 SWAP5 SWAP4 POP POP POP POP JUMP JUMPDEST PUSH1 0x40 DUP1 MLOAD DUP1 DUP3 ADD SWAP1 SWAP2 MSTORE PUSH1 0x60 DUP2 MSTORE PUSH1 0x0 PUSH1 0x20 DUP3 ADD MSTORE PUSH1 0x20 DUP6 ADD MLOAD PUSH2 0xD25 DUP6 DUP5 PUSH2 0xF44 JUMP JUMPDEST GT ISZERO PUSH2 0xD39 JUMPI PUSH2 0xD39 DUP6 PUSH2 0xC11 DUP7 DUP6 PUSH2 0xF44 JUMP JUMPDEST PUSH1 0x0 PUSH1 0x1 PUSH2 0xD49 DUP5 PUSH2 0x100 PUSH2 0x1116 JUMP JUMPDEST PUSH2 0xD53 SWAP2 SWAP1 PUSH2 0xFE1 JUMP JUMPDEST SWAP1 POP DUP6 MLOAD DUP4 DUP7 DUP3 ADD ADD DUP6 DUP4 NOT DUP3 MLOAD AND OR DUP2 MSTORE POP DUP1 MLOAD DUP5 DUP8 ADD GT ISZERO PUSH2 0xD77 JUMPI DUP4 DUP7 ADD DUP2 MSTORE JUMPDEST POP SWAP5 SWAP6 SWAP5 POP POP POP POP POP JUMP JUMPDEST PUSH1 0x0 DUP2 DUP4 GT ISZERO PUSH2 0xD93 JUMPI POP DUP2 PUSH2 0x67D JUMP JUMPDEST POP SWAP2 SWAP1 POP JUMP JUMPDEST DUP2 MLOAD PUSH2 0xDA5 DUP4 DUP4 PUSH2 0x872 JUMP JUMPDEST POP PUSH2 0x8FC DUP4 DUP3 PUSH2 0x9EC JUMP JUMPDEST PUSH1 0x40 DUP1 MLOAD PUSH1 0xA0 DUP2 ADD DUP3 MSTORE PUSH1 0x0 DUP1 DUP3 MSTORE PUSH1 0x20 DUP1 DUP4 ADD DUP3 SWAP1 MSTORE DUP3 DUP5 ADD DUP3 SWAP1 MSTORE PUSH1 0x60 DUP1 DUP5 ADD DUP4 SWAP1 MSTORE DUP5 MLOAD DUP1 DUP7 ADD SWAP1 SWAP6 MSTORE DUP5 MSTORE DUP4 ADD MSTORE SWAP1 PUSH1 0x80 DUP3 ADD MSTORE SWAP1 JUMP JUMPDEST PUSH1 0x0 PUSH1 0x20 DUP3 DUP5 SUB SLT ISZERO PUSH2 0xDFD JUMPI PUSH1 0x0 DUP1 REVERT JUMPDEST POP CALLDATALOAD SWAP2 SWAP1 POP JUMP JUMPDEST PUSH1 0x0 DUP2 MLOAD DUP1 DUP5 MSTORE PUSH1 0x0 JUMPDEST DUP2 DUP2 LT ISZERO PUSH2 0xE2A JUMPI PUSH1 0x20 DUP2 DUP6 ADD DUP2 ADD MLOAD DUP7 DUP4 ADD DUP3 ADD MSTORE ADD PUSH2 0xE0E JUMP JUMPDEST POP PUSH1 0x0 PUSH1 0x20 DUP3 DUP7 ADD ADD MSTORE PUSH1 0x20 PUSH1 0x1F NOT PUSH1 0x1F DUP4 ADD AND DUP6 ADD ADD SWAP2 POP POP SWAP3 SWAP2 POP POP JUMP JUMPDEST PUSH1 0x20 DUP2 MSTORE PUSH1 0x0 PUSH2 0x67A PUSH1 0x20 DUP4 ADD DUP5 PUSH2 0xE04 JUMP JUMPDEST PUSH1 0x0 DUP1 PUSH1 0x0 DUP1 PUSH1 0x80 DUP6 DUP8 SUB SLT ISZERO PUSH2 0xE73 JUMPI PUSH1 0x0 DUP1 REVERT JUMPDEST POP POP DUP3 CALLDATALOAD SWAP5 PUSH1 0x20 DUP5 ADD CALLDATALOAD SWAP5 POP PUSH1 0x40 DUP5 ADD CALLDATALOAD SWAP4 PUSH1 0x60 ADD CALLDATALOAD SWAP3 POP SWAP1 POP JUMP JUMPDEST PUSH1 0x0 PUSH1 0x20 DUP3 DUP5 SUB SLT ISZERO PUSH2 0xEA1 JUMPI PUSH1 0x0 DUP1 REVERT JUMPDEST DUP2 CALLDATALOAD PUSH1 0x1 PUSH1 0x1 PUSH1 0xA0 SHL SUB DUP2 AND DUP2 EQ PUSH2 0xEB8 JUMPI PUSH1 0x0 DUP1 REVERT JUMPDEST SWAP4 SWAP3 POP POP POP JUMP JUMPDEST PUSH1 0x1 DUP2 DUP2 SHR SWAP1 DUP3 AND DUP1 PUSH2 0xED3 JUMPI PUSH1 0x7F DUP3 AND SWAP2 POP JUMPDEST PUSH1 0x20 DUP3 LT DUP2 SUB PUSH2 0xD93 JUMPI PUSH4 0x4E487B71 PUSH1 0xE0 SHL PUSH1 0x0 MSTORE PUSH1 0x22 PUSH1 0x4 MSTORE PUSH1 0x24 PUSH1 0x0 REVERT JUMPDEST PUSH1 0x0 PUSH1 0x20 DUP3 DUP5 SUB SLT ISZERO PUSH2 0xF05 JUMPI PUSH1 0x0 DUP1 REVERT JUMPDEST POP MLOAD SWAP2 SWAP1 POP JUMP JUMPDEST PUSH1 0x0 PUSH1 0x20 DUP3 DUP5 SUB SLT ISZERO PUSH2 0xF1E JUMPI PUSH1 0x0 DUP1 REVERT JUMPDEST DUP2 MLOAD DUP1 ISZERO ISZERO DUP2 EQ PUSH2 0xEB8 JUMPI PUSH1 0x0 DUP1 REVERT JUMPDEST PUSH4 0x4E487B71 PUSH1 0xE0 SHL PUSH1 0x0 MSTORE PUSH1 0x11 PUSH1 0x4 MSTORE PUSH1 0x24 PUSH1 0x0 REVERT JUMPDEST DUP1 DUP3 ADD DUP1 DUP3 GT ISZERO PUSH2 0x67D JUMPI PUSH2 0x67D PUSH2 0xF2E JUMP JUMPDEST PUSH1 0x1 PUSH1 0x1 PUSH1 0xA0 SHL SUB DUP10 DUP2 AND DUP3 MSTORE PUSH1 0x20 DUP3 ADD DUP10 SWAP1 MSTORE PUSH1 0x40 DUP3 ADD DUP9 SWAP1 MSTORE DUP7 AND PUSH1 0x60 DUP3 ADD MSTORE PUSH1 0x1 PUSH1 0x1 PUSH1 0xE0 SHL SUB NOT DUP6 AND PUSH1 0x80 DUP3 ADD MSTORE PUSH1 0xA0 DUP2 ADD DUP5 SWAP1 MSTORE PUSH1 0xC0 DUP2 ADD DUP4 SWAP1 MSTORE PUSH2 0x100 PUSH1 0xE0 DUP3 ADD DUP2 SWAP1 MSTORE PUSH1 0x0 SWAP1 PUSH2 0xFB0 DUP4 DUP3 ADD DUP6 PUSH2 0xE04 JUMP JUMPDEST SWAP12 SWAP11 POP POP POP POP POP POP POP POP POP POP POP JUMP JUMPDEST PUSH1 0x0 DUP3 PUSH2 0xFDC JUMPI PUSH4 0x4E487B71 PUSH1 0xE0 SHL PUSH1 0x0 MSTORE PUSH1 0x12 PUSH1 0x4 MSTORE PUSH1 0x24 PUSH1 0x0 REVERT JUMPDEST POP MOD SWAP1 JUMP JUMPDEST DUP2 DUP2 SUB DUP2 DUP2 GT ISZERO PUSH2 0x67D JUMPI PUSH2 0x67D PUSH2 0xF2E JUMP JUMPDEST PUSH1 0x1 DUP1 PUSH1 0xA0 SHL SUB DUP5 AND DUP2 MSTORE DUP3 PUSH1 0x20 DUP3 ADD MSTORE PUSH1 0x60 PUSH1 0x40 DUP3 ADD MSTORE PUSH1 0x0 PUSH2 0x634 PUSH1 0x60 DUP4 ADD DUP5 PUSH2 0xE04 JUMP JUMPDEST DUP1 DUP3 MUL DUP2 ISZERO DUP3 DUP3 DIV DUP5 EQ OR PUSH2 0x67D JUMPI PUSH2 0x67D PUSH2 0xF2E JUMP JUMPDEST PUSH1 0x1 DUP2 DUP2 JUMPDEST DUP1 DUP6 GT ISZERO PUSH2 0x106D JUMPI DUP2 PUSH1 0x0 NOT DIV DUP3 GT ISZERO PUSH2 0x1053 JUMPI PUSH2 0x1053 PUSH2 0xF2E JUMP JUMPDEST DUP1 DUP6 AND ISZERO PUSH2 0x1060 JUMPI SWAP2 DUP2 MUL SWAP2 JUMPDEST SWAP4 DUP5 SHR SWAP4 SWAP1 DUP1 MUL SWAP1 PUSH2 0x1037 JUMP JUMPDEST POP SWAP3 POP SWAP3 SWAP1 POP JUMP JUMPDEST PUSH1 0x0 DUP3 PUSH2 0x1084 JUMPI POP PUSH1 0x1 PUSH2 0x67D JUMP JUMPDEST DUP2 PUSH2 0x1091 JUMPI POP PUSH1 0x0 PUSH2 0x67D JUMP JUMPDEST DUP2 PUSH1 0x1 DUP2 EQ PUSH2 0x10A7 JUMPI PUSH1 0x2 DUP2 EQ PUSH2 0x10B1 JUMPI PUSH2 0x10CD JUMP JUMPDEST PUSH1 0x1 SWAP2 POP POP PUSH2 0x67D JUMP JUMPDEST PUSH1 0xFF DUP5 GT ISZERO PUSH2 0x10C2 JUMPI PUSH2 0x10C2 PUSH2 0xF2E JUMP JUMPDEST POP POP PUSH1 0x1 DUP3 SHL PUSH2 0x67D JUMP JUMPDEST POP PUSH1 0x20 DUP4 LT PUSH2 0x133 DUP4 LT AND PUSH1 0x4E DUP5 LT PUSH1 0xB DUP5 LT AND OR ISZERO PUSH2 0x10F0 JUMPI POP DUP2 DUP2 EXP PUSH2 0x67D JUMP JUMPDEST PUSH2 0x10FA DUP4 DUP4 PUSH2 0x1032 JUMP JUMPDEST DUP1 PUSH1 0x0 NOT DIV DUP3 GT ISZERO PUSH2 0x110E JUMPI PUSH2 0x110E PUSH2 0xF2E JUMP JUMPDEST MUL SWAP4 SWAP3 POP POP POP JUMP JUMPDEST PUSH1 0x0 PUSH2 0x67A DUP4 DUP4 PUSH2 0x1075 JUMP INVALID LOG2 PUSH5 0x6970667358 0x22 SLT KECCAK256 POP DUP7 0xC6 BLOCKHASH DUP2 PUSH1 0xB5 0x24 0x2D 0x24 0xF7 PUSH1 0xEE 0xDA 0xAA 0xF7 0x4C TIMESTAMP 0x5F CALLCODE 0xC6 0xEC DELEGATECALL 0x2D 0xB8 SWAP15 PUSH2 0xEEF0 0xB0 JUMPDEST PUSH30 0x64736F6C63430008130033687474703A2F2F6170692E666F6F7462616C6C 0x2D PUSH5 0x6174612E6F PUSH19 0x672F76342F636F6D7065746974696F6E732F00 "
				},
				"gasEstimates": {
					"creation": {
						"codeDepositCost": "888000",
						"executionCost": "infinite",
						"totalCost": "infinite"
					},
					"external": {
						"acceptOwnership()": "52375",
						"fulfillOracleRequest2(bytes32,uint256,uint256,uint256)": "96315",
						"league()": "infinite",
						"owner()": "2390",
						"requestWinner()": "infinite",
						"setWinner(uint256)": "22335",
						"transferOwnership(address)": "30489",
						"winner()": "2328",
						"winner2()": "2285",
						"winner3()": "2394",
						"withdrawLink()": "infinite"
					}
				},
				"methodIdentifiers": {
					"acceptOwnership()": "79ba5097",
					"fulfillOracleRequest2(bytes32,uint256,uint256,uint256)": "e9c63222",
					"league()": "d9b29297",
					"owner()": "8da5cb5b",
					"requestWinner()": "78a7d3af",
					"setWinner(uint256)": "0df71602",
					"transferOwnership(address)": "f2fde38b",
					"winner()": "dfbf53ae",
					"winner2()": "01a3694e",
					"winner3()": "f81b5c5b",
					"withdrawLink()": "8dc654a2"
				}
			},
			"storageLayout": {
				"storage": [
					{
						"astId": 319,
						"contract": "contracts/ChainlinkConsumer.sol:APIConsumer",
						"label": "s_ens",
						"offset": 0,
						"slot": "0",
						"type": "t_contract(ENSInterface)1156"
					},
					{
						"astId": 321,
						"contract": "contracts/ChainlinkConsumer.sol:APIConsumer",
						"label": "s_ensNode",
						"offset": 0,
						"slot": "1",
						"type": "t_bytes32"
					},
					{
						"astId": 324,
						"contract": "contracts/ChainlinkConsumer.sol:APIConsumer",
						"label": "s_link",
						"offset": 0,
						"slot": "2",
						"type": "t_contract(LinkTokenInterface)1251"
					},
					{
						"astId": 327,
						"contract": "contracts/ChainlinkConsumer.sol:APIConsumer",
						"label": "s_oracle",
						"offset": 0,
						"slot": "3",
						"type": "t_contract(OperatorInterface)1331"
					},
					{
						"astId": 330,
						"contract": "contracts/ChainlinkConsumer.sol:APIConsumer",
						"label": "s_requestCount",
						"offset": 0,
						"slot": "4",
						"type": "t_uint256"
					},
					{
						"astId": 334,
						"contract": "contracts/ChainlinkConsumer.sol:APIConsumer",
						"label": "s_pendingRequests",
						"offset": 0,
						"slot": "5",
						"type": "t_mapping(t_bytes32,t_address)"
					},
					{
						"astId": 889,
						"contract": "contracts/ChainlinkConsumer.sol:APIConsumer",
						"label": "s_owner",
						"offset": 0,
						"slot": "6",
						"type": "t_address"
					},
					{
						"astId": 891,
						"contract": "contracts/ChainlinkConsumer.sol:APIConsumer",
						"label": "s_pendingOwner",
						"offset": 0,
						"slot": "7",
						"type": "t_address"
					},
					{
						"astId": 2410,
						"contract": "contracts/ChainlinkConsumer.sol:APIConsumer",
						"label": "winner",
						"offset": 0,
						"slot": "8",
						"type": "t_uint256"
					},
					{
						"astId": 2412,
						"contract": "contracts/ChainlinkConsumer.sol:APIConsumer",
						"label": "winner2",
						"offset": 0,
						"slot": "9",
						"type": "t_uint256"
					},
					{
						"astId": 2414,
						"contract": "contracts/ChainlinkConsumer.sol:APIConsumer",
						"label": "winner3",
						"offset": 0,
						"slot": "10",
						"type": "t_uint256"
					},
					{
						"astId": 2416,
						"contract": "contracts/ChainlinkConsumer.sol:APIConsumer",
						"label": "jobId",
						"offset": 0,
						"slot": "11",
						"type": "t_bytes32"
					},
					{
						"astId": 2418,
						"contract": "contracts/ChainlinkConsumer.sol:APIConsumer",
						"label": "fee",
						"offset": 0,
						"slot": "12",
						"type": "t_uint256"
					},
					{
						"astId": 2420,
						"contract": "contracts/ChainlinkConsumer.sol:APIConsumer",
						"label": "URL",
						"offset": 0,
						"slot": "13",
						"type": "t_string_storage"
					},
					{
						"astId": 2422,
						"contract": "contracts/ChainlinkConsumer.sol:APIConsumer",
						"label": "league",
						"offset": 0,
						"slot": "14",
						"type": "t_string_storage"
					},
					{
						"astId": 2531,
						"contract": "contracts/ChainlinkConsumer.sol:APIConsumer",
						"label": "NFTHolder",
						"offset": 0,
						"slot": "15",
						"type": "t_mapping(t_uint256,t_address)"
					}
				],
				"types": {
					"t_address": {
						"encoding": "inplace",
						"label": "address",
						"numberOfBytes": "20"
					},
					"t_bytes32": {
						"encoding": "inplace",
						"label": "bytes32",
						"numberOfBytes": "32"
					},
					"t_contract(ENSInterface)1156": {
						"encoding": "inplace",
						"label": "contract ENSInterface",
						"numberOfBytes": "20"
					},
					"t_contract(LinkTokenInterface)1251": {
						"encoding": "inplace",
						"label": "contract LinkTokenInterface",
						"numberOfBytes": "20"
					},
					"t_contract(OperatorInterface)1331": {
						"encoding": "inplace",
						"label": "contract OperatorInterface",
						"numberOfBytes": "20"
					},
					"t_mapping(t_bytes32,t_address)": {
						"encoding": "mapping",
						"key": "t_bytes32",
						"label": "mapping(bytes32 => address)",
						"numberOfBytes": "32",
						"value": "t_address"
					},
					"t_mapping(t_uint256,t_address)": {
						"encoding": "mapping",
						"key": "t_uint256",
						"label": "mapping(uint256 => address)",
						"numberOfBytes": "32",
						"value": "t_address"
					},
					"t_string_storage": {
						"encoding": "bytes",
						"label": "string",
						"numberOfBytes": "32"
					},
					"t_uint256": {
						"encoding": "inplace",
						"label": "uint256",
						"numberOfBytes": "32"
					}
				}
			},
			"userdoc": {
				"kind": "user",
				"methods": {
					"acceptOwnership()": {
						"notice": "Allows an ownership transfer to be completed by the recipient."
					},
					"fulfillOracleRequest2(bytes32,uint256,uint256,uint256)": {
						"notice": "Receive the response in the form of uint256"
					},
					"owner()": {
						"notice": "Get the current owner"
					},
					"requestWinner()": {
						"notice": "Create a Chainlink request to retrieve API response, then find the target data."
					},
					"transferOwnership(address)": {
						"notice": "Allows an owner to begin transferring ownership to a new address, pending."
					},
					"withdrawLink()": {
						"notice": "Allow withdraw of Link tokens from the contract"
					}
				},
				"version": 1
			}
		}
	}
}