{
	"contracts/RedStoneOracle.sol": {
		"CustomUrlsExample": {
			"abi": [
				{
					"inputs": [],
					"name": "CalldataMustHaveValidPayload",
					"type": "error"
				},
				{
					"inputs": [],
					"name": "CalldataOverOrUnderFlow",
					"type": "error"
				},
				{
					"inputs": [],
					"name": "CanNotPickMedianOfEmptyArray",
					"type": "error"
				},
				{
					"inputs": [],
					"name": "EachSignerMustProvideTheSameValue",
					"type": "error"
				},
				{
					"inputs": [],
					"name": "EmptyCalldataPointersArr",
					"type": "error"
				},
				{
					"inputs": [],
					"name": "IncorrectUnsignedMetadataSize",
					"type": "error"
				},
				{
					"inputs": [
						{
							"internalType": "uint256",
							"name": "receivedSignersCount",
							"type": "uint256"
						},
						{
							"internalType": "uint256",
							"name": "requiredSignersCount",
							"type": "uint256"
						}
					],
					"name": "InsufficientNumberOfUniqueSigners",
					"type": "error"
				},
				{
					"inputs": [],
					"name": "InvalidCalldataPointer",
					"type": "error"
				},
				{
					"inputs": [
						{
							"internalType": "address",
							"name": "receivedSigner",
							"type": "address"
						}
					],
					"name": "SignerNotAuthorised",
					"type": "error"
				},
				{
					"inputs": [
						{
							"internalType": "uint256",
							"name": "receivedTimestampSeconds",
							"type": "uint256"
						},
						{
							"internalType": "uint256",
							"name": "blockTimestamp",
							"type": "uint256"
						}
					],
					"name": "TimestampFromTooLongFuture",
					"type": "error"
				},
				{
					"inputs": [
						{
							"internalType": "uint256",
							"name": "receivedTimestampSeconds",
							"type": "uint256"
						},
						{
							"internalType": "uint256",
							"name": "blockTimestamp",
							"type": "uint256"
						}
					],
					"name": "TimestampIsTooOld",
					"type": "error"
				},
				{
					"inputs": [
						{
							"internalType": "uint256[]",
							"name": "values",
							"type": "uint256[]"
						}
					],
					"name": "aggregateValues",
					"outputs": [
						{
							"internalType": "uint256",
							"name": "",
							"type": "uint256"
						}
					],
					"stateMutability": "view",
					"type": "function"
				},
				{
					"inputs": [
						{
							"internalType": "address",
							"name": "signerAddress",
							"type": "address"
						}
					],
					"name": "getAuthorisedSignerIndex",
					"outputs": [
						{
							"internalType": "uint8",
							"name": "",
							"type": "uint8"
						}
					],
					"stateMutability": "view",
					"type": "function"
				},
				{
					"inputs": [],
					"name": "getUniqueSignersThreshold",
					"outputs": [
						{
							"internalType": "uint8",
							"name": "",
							"type": "uint8"
						}
					],
					"stateMutability": "view",
					"type": "function"
				},
				{
					"inputs": [],
					"name": "getValue",
					"outputs": [
						{
							"internalType": "uint256",
							"name": "",
							"type": "uint256"
						}
					],
					"stateMutability": "view",
					"type": "function"
				},
				{
					"inputs": [
						{
							"internalType": "uint256",
							"name": "receivedTimestampMilliseconds",
							"type": "uint256"
						}
					],
					"name": "validateTimestamp",
					"outputs": [],
					"stateMutability": "view",
					"type": "function"
				}
			],
			"devdoc": {
				"kind": "dev",
				"methods": {
					"aggregateValues(uint256[])": {
						"details": "This function may be overridden by the child consumer contract. It should aggregate values from different signers to a single uint value. By default, it calculates the median value",
						"params": {
							"values": "An array of uint256 values from different signers"
						},
						"returns": {
							"_0": "Result of the aggregation in the form of a single number"
						}
					},
					"getUniqueSignersThreshold()": {
						"details": "This function should be overridden by the child consumer contract.",
						"returns": {
							"_0": "The minimum required value of unique authorised signers"
						}
					},
					"validateTimestamp(uint256)": {
						"details": "This function may be overridden by the child consumer contract. It should validate the timestamp against the current time (block.timestamp) It should revert with a helpful message if the timestamp is not valid",
						"params": {
							"receivedTimestampMilliseconds": "Timestamp extracted from calldata"
						}
					}
				},
				"version": 1
			},
			"evm": {
				"assembly": "    /* \"contracts/RedStoneOracle.sol\":158:388  contract CustomUrlsExample is CustomUrlsConsumerBase {... */\n  mstore(0x40, 0x80)\n  callvalue\n  dup1\n  iszero\n  tag_1\n  jumpi\n  0x00\n  dup1\n  revert\ntag_1:\n  pop\n  dataSize(sub_0)\n  dup1\n  dataOffset(sub_0)\n  0x00\n  codecopy\n  0x00\n  return\nstop\n\nsub_0: assembly {\n        /* \"contracts/RedStoneOracle.sol\":158:388  contract CustomUrlsExample is CustomUrlsConsumerBase {... */\n      mstore(0x40, 0x80)\n      callvalue\n      dup1\n      iszero\n      tag_1\n      jumpi\n      0x00\n      dup1\n      revert\n    tag_1:\n      pop\n      jumpi(tag_2, lt(calldatasize, 0x04))\n      shr(0xe0, calldataload(0x00))\n      dup1\n      0x20965255\n      eq\n      tag_3\n      jumpi\n      dup1\n      0x3ce142f5\n      eq\n      tag_4\n      jumpi\n      dup1\n      0xb24ebfcc\n      eq\n      tag_5\n      jumpi\n      dup1\n      0xf50b2efe\n      eq\n      tag_6\n      jumpi\n      dup1\n      0xf90c4924\n      eq\n      tag_7\n      jumpi\n    tag_2:\n      0x00\n      dup1\n      revert\n        /* \"contracts/RedStoneOracle.sol\":216:385  function getValue() public view returns (uint256) {... */\n    tag_3:\n      tag_8\n      tag_9\n      jump\t// in\n    tag_8:\n      mload(0x40)\n      tag_10\n      swap2\n      swap1\n      tag_11\n      jump\t// in\n    tag_10:\n      mload(0x40)\n      dup1\n      swap2\n      sub\n      swap1\n      return\n        /* \"@redstone-finance/evm-connector/contracts/data-services/CustomUrlsConsumerBase.sol\":286:664  function getAuthorisedSignerIndex(address signerAddress)... */\n    tag_4:\n      tag_12\n      0x04\n      dup1\n      calldatasize\n      sub\n      dup2\n      add\n      swap1\n      tag_13\n      swap2\n      swap1\n      tag_14\n      jump\t// in\n    tag_13:\n      tag_15\n      jump\t// in\n    tag_12:\n      mload(0x40)\n      tag_16\n      swap2\n      swap1\n      tag_17\n      jump\t// in\n    tag_16:\n      mload(0x40)\n      dup1\n      swap2\n      sub\n      swap1\n      return\n        /* \"@redstone-finance/evm-connector/contracts/core/RedstoneConsumerBase.sol\":2280:2429  function aggregateValues(uint256[] memory values) public view virtual returns (uint256) {... */\n    tag_5:\n      tag_18\n      0x04\n      dup1\n      calldatasize\n      sub\n      dup2\n      add\n      swap1\n      tag_19\n      swap2\n      swap1\n      tag_20\n      jump\t// in\n    tag_19:\n      tag_21\n      jump\t// in\n    tag_18:\n      mload(0x40)\n      tag_22\n      swap2\n      swap1\n      tag_11\n      jump\t// in\n    tag_22:\n      mload(0x40)\n      dup1\n      swap2\n      sub\n      swap1\n      return\n        /* \"@redstone-finance/evm-connector/contracts/core/RedstoneConsumerBase.sol\":1505:1670  function validateTimestamp(uint256 receivedTimestampMilliseconds) public view virtual {... */\n    tag_6:\n      tag_23\n      0x04\n      dup1\n      calldatasize\n      sub\n      dup2\n      add\n      swap1\n      tag_24\n      swap2\n      swap1\n      tag_25\n      jump\t// in\n    tag_24:\n      tag_26\n      jump\t// in\n    tag_23:\n      stop\n        /* \"@redstone-finance/evm-connector/contracts/data-services/CustomUrlsConsumerBase.sol\":181:282  function getUniqueSignersThreshold() public view virtual override returns (uint8) {... */\n    tag_7:\n      tag_27\n      tag_28\n      jump\t// in\n    tag_27:\n      mload(0x40)\n      tag_29\n      swap2\n      swap1\n      tag_17\n      jump\t// in\n    tag_29:\n      mload(0x40)\n      dup1\n      swap2\n      sub\n      swap1\n      return\n        /* \"contracts/RedStoneOracle.sol\":216:385  function getValue() public view returns (uint256) {... */\n    tag_9:\n        /* \"contracts/RedStoneOracle.sol\":257:264  uint256 */\n      0x00\n        /* \"contracts/RedStoneOracle.sol\":273:291  bytes32 dataFeedId */\n      dup1\n        /* \"contracts/RedStoneOracle.sol\":294:323  bytes32(\"0x2bf6f01ff931d99c\") */\n      0x3078326266366630316666393331643939630000000000000000000000000000\n        /* \"contracts/RedStoneOracle.sol\":273:323  bytes32 dataFeedId = bytes32(\"0x2bf6f01ff931d99c\") */\n      swap1\n      pop\n        /* \"contracts/RedStoneOracle.sol\":337:379  getOracleNumericValueFromTxMsg(dataFeedId) */\n      tag_31\n        /* \"contracts/RedStoneOracle.sol\":368:378  dataFeedId */\n      dup2\n        /* \"contracts/RedStoneOracle.sol\":337:367  getOracleNumericValueFromTxMsg */\n      tag_32\n        /* \"contracts/RedStoneOracle.sol\":337:379  getOracleNumericValueFromTxMsg(dataFeedId) */\n      jump\t// in\n    tag_31:\n        /* \"contracts/RedStoneOracle.sol\":330:379  return getOracleNumericValueFromTxMsg(dataFeedId) */\n      swap2\n      pop\n      pop\n        /* \"contracts/RedStoneOracle.sol\":216:385  function getValue() public view returns (uint256) {... */\n      swap1\n      jump\t// out\n        /* \"@redstone-finance/evm-connector/contracts/data-services/CustomUrlsConsumerBase.sol\":286:664  function getAuthorisedSignerIndex(address signerAddress)... */\n    tag_15:\n        /* \"@redstone-finance/evm-connector/contracts/data-services/CustomUrlsConsumerBase.sol\":401:406  uint8 */\n      0x00\n        /* \"@redstone-finance/evm-connector/contracts/data-services/CustomUrlsConsumerBase.sol\":437:479  0x11fFFc9970c41B9bFB9Aa35Be838d39bce918CfF */\n      0x11fffc9970c41b9bfb9aa35be838d39bce918cff\n        /* \"@redstone-finance/evm-connector/contracts/data-services/CustomUrlsConsumerBase.sol\":420:479  signerAddress == 0x11fFFc9970c41B9bFB9Aa35Be838d39bce918CfF */\n      0xffffffffffffffffffffffffffffffffffffffff\n      and\n        /* \"@redstone-finance/evm-connector/contracts/data-services/CustomUrlsConsumerBase.sol\":420:433  signerAddress */\n      dup3\n        /* \"@redstone-finance/evm-connector/contracts/data-services/CustomUrlsConsumerBase.sol\":420:479  signerAddress == 0x11fFFc9970c41B9bFB9Aa35Be838d39bce918CfF */\n      0xffffffffffffffffffffffffffffffffffffffff\n      and\n      sub\n        /* \"@redstone-finance/evm-connector/contracts/data-services/CustomUrlsConsumerBase.sol\":416:660  if (signerAddress == 0x11fFFc9970c41B9bFB9Aa35Be838d39bce918CfF) {... */\n      tag_34\n      jumpi\n        /* \"@redstone-finance/evm-connector/contracts/data-services/CustomUrlsConsumerBase.sol\":496:497  0 */\n      0x00\n        /* \"@redstone-finance/evm-connector/contracts/data-services/CustomUrlsConsumerBase.sol\":489:497  return 0 */\n      swap1\n      pop\n      jump(tag_33)\n        /* \"@redstone-finance/evm-connector/contracts/data-services/CustomUrlsConsumerBase.sol\":416:660  if (signerAddress == 0x11fFFc9970c41B9bFB9Aa35Be838d39bce918CfF) {... */\n    tag_34:\n        /* \"@redstone-finance/evm-connector/contracts/data-services/CustomUrlsConsumerBase.sol\":531:573  0xdBcC2C6c892C8d3e3Fe4D325fEc810B7376A5Ed6 */\n      0xdbcc2c6c892c8d3e3fe4d325fec810b7376a5ed6\n        /* \"@redstone-finance/evm-connector/contracts/data-services/CustomUrlsConsumerBase.sol\":514:573  signerAddress == 0xdBcC2C6c892C8d3e3Fe4D325fEc810B7376A5Ed6 */\n      0xffffffffffffffffffffffffffffffffffffffff\n      and\n        /* \"@redstone-finance/evm-connector/contracts/data-services/CustomUrlsConsumerBase.sol\":514:527  signerAddress */\n      dup3\n        /* \"@redstone-finance/evm-connector/contracts/data-services/CustomUrlsConsumerBase.sol\":514:573  signerAddress == 0xdBcC2C6c892C8d3e3Fe4D325fEc810B7376A5Ed6 */\n      0xffffffffffffffffffffffffffffffffffffffff\n      and\n      sub\n        /* \"@redstone-finance/evm-connector/contracts/data-services/CustomUrlsConsumerBase.sol\":510:660  if (signerAddress == 0xdBcC2C6c892C8d3e3Fe4D325fEc810B7376A5Ed6) {... */\n      tag_36\n      jumpi\n        /* \"@redstone-finance/evm-connector/contracts/data-services/CustomUrlsConsumerBase.sol\":590:591  1 */\n      0x01\n        /* \"@redstone-finance/evm-connector/contracts/data-services/CustomUrlsConsumerBase.sol\":583:591  return 1 */\n      swap1\n      pop\n      jump(tag_33)\n        /* \"@redstone-finance/evm-connector/contracts/data-services/CustomUrlsConsumerBase.sol\":510:660  if (signerAddress == 0xdBcC2C6c892C8d3e3Fe4D325fEc810B7376A5Ed6) {... */\n    tag_36:\n        /* \"@redstone-finance/evm-connector/contracts/data-services/CustomUrlsConsumerBase.sol\":639:652  signerAddress */\n      dup2\n        /* \"@redstone-finance/evm-connector/contracts/data-services/CustomUrlsConsumerBase.sol\":619:653  SignerNotAuthorised(signerAddress) */\n      mload(0x40)\n      0xec459bc000000000000000000000000000000000000000000000000000000000\n      dup2\n      mstore\n      0x04\n      add\n      tag_38\n      swap2\n      swap1\n      tag_39\n      jump\t// in\n    tag_38:\n      mload(0x40)\n      dup1\n      swap2\n      sub\n      swap1\n      revert\n        /* \"@redstone-finance/evm-connector/contracts/data-services/CustomUrlsConsumerBase.sol\":286:664  function getAuthorisedSignerIndex(address signerAddress)... */\n    tag_33:\n      swap2\n      swap1\n      pop\n      jump\t// out\n        /* \"@redstone-finance/evm-connector/contracts/core/RedstoneConsumerBase.sol\":2280:2429  function aggregateValues(uint256[] memory values) public view virtual returns (uint256) {... */\n    tag_21:\n        /* \"@redstone-finance/evm-connector/contracts/core/RedstoneConsumerBase.sol\":2359:2366  uint256 */\n      0x00\n        /* \"@redstone-finance/evm-connector/contracts/core/RedstoneConsumerBase.sol\":2381:2424  RedstoneDefaultsLib.aggregateValues(values) */\n      tag_41\n        /* \"@redstone-finance/evm-connector/contracts/core/RedstoneConsumerBase.sol\":2417:2423  values */\n      dup3\n        /* \"@redstone-finance/evm-connector/contracts/core/RedstoneConsumerBase.sol\":2381:2416  RedstoneDefaultsLib.aggregateValues */\n      tag_42\n        /* \"@redstone-finance/evm-connector/contracts/core/RedstoneConsumerBase.sol\":2381:2424  RedstoneDefaultsLib.aggregateValues(values) */\n      jump\t// in\n    tag_41:\n        /* \"@redstone-finance/evm-connector/contracts/core/RedstoneConsumerBase.sol\":2374:2424  return RedstoneDefaultsLib.aggregateValues(values) */\n      swap1\n      pop\n        /* \"@redstone-finance/evm-connector/contracts/core/RedstoneConsumerBase.sol\":2280:2429  function aggregateValues(uint256[] memory values) public view virtual returns (uint256) {... */\n      swap2\n      swap1\n      pop\n      jump\t// out\n        /* \"@redstone-finance/evm-connector/contracts/core/RedstoneConsumerBase.sol\":1505:1670  function validateTimestamp(uint256 receivedTimestampMilliseconds) public view virtual {... */\n    tag_26:\n        /* \"@redstone-finance/evm-connector/contracts/core/RedstoneConsumerBase.sol\":1597:1665  RedstoneDefaultsLib.validateTimestamp(receivedTimestampMilliseconds) */\n      tag_44\n        /* \"@redstone-finance/evm-connector/contracts/core/RedstoneConsumerBase.sol\":1635:1664  receivedTimestampMilliseconds */\n      dup2\n        /* \"@redstone-finance/evm-connector/contracts/core/RedstoneConsumerBase.sol\":1597:1634  RedstoneDefaultsLib.validateTimestamp */\n      tag_45\n        /* \"@redstone-finance/evm-connector/contracts/core/RedstoneConsumerBase.sol\":1597:1665  RedstoneDefaultsLib.validateTimestamp(receivedTimestampMilliseconds) */\n      jump\t// in\n    tag_44:\n        /* \"@redstone-finance/evm-connector/contracts/core/RedstoneConsumerBase.sol\":1505:1670  function validateTimestamp(uint256 receivedTimestampMilliseconds) public view virtual {... */\n      pop\n      jump\t// out\n        /* \"@redstone-finance/evm-connector/contracts/data-services/CustomUrlsConsumerBase.sol\":181:282  function getUniqueSignersThreshold() public view virtual override returns (uint8) {... */\n    tag_28:\n        /* \"@redstone-finance/evm-connector/contracts/data-services/CustomUrlsConsumerBase.sol\":256:261  uint8 */\n      0x00\n        /* \"@redstone-finance/evm-connector/contracts/data-services/CustomUrlsConsumerBase.sol\":276:277  2 */\n      0x02\n        /* \"@redstone-finance/evm-connector/contracts/data-services/CustomUrlsConsumerBase.sol\":269:277  return 2 */\n      swap1\n      pop\n        /* \"@redstone-finance/evm-connector/contracts/data-services/CustomUrlsConsumerBase.sol\":181:282  function getUniqueSignersThreshold() public view virtual override returns (uint8) {... */\n      swap1\n      jump\t// out\n        /* \"@redstone-finance/evm-connector/contracts/core/RedstoneConsumerNumericBase.sol\":1257:1526  function getOracleNumericValueFromTxMsg(bytes32 dataFeedId)... */\n    tag_32:\n        /* \"@redstone-finance/evm-connector/contracts/core/RedstoneConsumerNumericBase.sol\":1364:1371  uint256 */\n      0x00\n        /* \"@redstone-finance/evm-connector/contracts/core/RedstoneConsumerNumericBase.sol\":1381:1409  bytes32[] memory dataFeedIds */\n      dup1\n        /* \"@redstone-finance/evm-connector/contracts/core/RedstoneConsumerNumericBase.sol\":1426:1427  1 */\n      0x01\n        /* \"@redstone-finance/evm-connector/contracts/core/RedstoneConsumerNumericBase.sol\":1412:1428  new bytes32[](1) */\n      0xffffffffffffffff\n      dup2\n      gt\n      iszero\n      tag_48\n      jumpi\n      tag_49\n      tag_50\n      jump\t// in\n    tag_49:\n    tag_48:\n      mload(0x40)\n      swap1\n      dup1\n      dup3\n      mstore\n      dup1\n      0x20\n      mul\n      0x20\n      add\n      dup3\n      add\n      0x40\n      mstore\n      dup1\n      iszero\n      tag_51\n      jumpi\n      dup2\n      0x20\n      add\n      0x20\n      dup3\n      mul\n      dup1\n      calldatasize\n      dup4\n      calldatacopy\n      dup1\n      dup3\n      add\n      swap2\n      pop\n      pop\n      swap1\n      pop\n    tag_51:\n      pop\n        /* \"@redstone-finance/evm-connector/contracts/core/RedstoneConsumerNumericBase.sol\":1381:1428  bytes32[] memory dataFeedIds = new bytes32[](1) */\n      swap1\n      pop\n        /* \"@redstone-finance/evm-connector/contracts/core/RedstoneConsumerNumericBase.sol\":1451:1461  dataFeedId */\n      dup3\n        /* \"@redstone-finance/evm-connector/contracts/core/RedstoneConsumerNumericBase.sol\":1434:1445  dataFeedIds */\n      dup2\n        /* \"@redstone-finance/evm-connector/contracts/core/RedstoneConsumerNumericBase.sol\":1446:1447  0 */\n      0x00\n        /* \"@redstone-finance/evm-connector/contracts/core/RedstoneConsumerNumericBase.sol\":1434:1448  dataFeedIds[0] */\n      dup2\n      mload\n      dup2\n      lt\n      tag_52\n      jumpi\n      tag_53\n      tag_54\n      jump\t// in\n    tag_53:\n    tag_52:\n      0x20\n      mul\n      0x20\n      add\n      add\n        /* \"@redstone-finance/evm-connector/contracts/core/RedstoneConsumerNumericBase.sol\":1434:1461  dataFeedIds[0] = dataFeedId */\n      dup2\n      dup2\n      mstore\n      pop\n      pop\n        /* \"@redstone-finance/evm-connector/contracts/core/RedstoneConsumerNumericBase.sol\":1474:1518  getOracleNumericValuesFromTxMsg(dataFeedIds) */\n      tag_55\n        /* \"@redstone-finance/evm-connector/contracts/core/RedstoneConsumerNumericBase.sol\":1506:1517  dataFeedIds */\n      dup2\n        /* \"@redstone-finance/evm-connector/contracts/core/RedstoneConsumerNumericBase.sol\":1474:1505  getOracleNumericValuesFromTxMsg */\n      tag_56\n        /* \"@redstone-finance/evm-connector/contracts/core/RedstoneConsumerNumericBase.sol\":1474:1518  getOracleNumericValuesFromTxMsg(dataFeedIds) */\n      jump\t// in\n    tag_55:\n        /* \"@redstone-finance/evm-connector/contracts/core/RedstoneConsumerNumericBase.sol\":1519:1520  0 */\n      0x00\n        /* \"@redstone-finance/evm-connector/contracts/core/RedstoneConsumerNumericBase.sol\":1474:1521  getOracleNumericValuesFromTxMsg(dataFeedIds)[0] */\n      dup2\n      mload\n      dup2\n      lt\n      tag_57\n      jumpi\n      tag_58\n      tag_54\n      jump\t// in\n    tag_58:\n    tag_57:\n      0x20\n      mul\n      0x20\n      add\n      add\n      mload\n        /* \"@redstone-finance/evm-connector/contracts/core/RedstoneConsumerNumericBase.sol\":1467:1521  return getOracleNumericValuesFromTxMsg(dataFeedIds)[0] */\n      swap2\n      pop\n      pop\n        /* \"@redstone-finance/evm-connector/contracts/core/RedstoneConsumerNumericBase.sol\":1257:1526  function getOracleNumericValueFromTxMsg(bytes32 dataFeedId)... */\n      swap2\n      swap1\n      pop\n      jump\t// out\n        /* \"@redstone-finance/evm-connector/contracts/core/RedstoneDefaultsLib.sol\":1547:1681  function aggregateValues(uint256[] memory values) internal pure returns (uint256) {... */\n    tag_42:\n        /* \"@redstone-finance/evm-connector/contracts/core/RedstoneDefaultsLib.sol\":1620:1627  uint256 */\n      0x00\n        /* \"@redstone-finance/evm-connector/contracts/core/RedstoneDefaultsLib.sol\":1642:1676  NumericArrayLib.pickMedian(values) */\n      tag_60\n        /* \"@redstone-finance/evm-connector/contracts/core/RedstoneDefaultsLib.sol\":1669:1675  values */\n      dup3\n        /* \"@redstone-finance/evm-connector/contracts/core/RedstoneDefaultsLib.sol\":1642:1668  NumericArrayLib.pickMedian */\n      tag_61\n        /* \"@redstone-finance/evm-connector/contracts/core/RedstoneDefaultsLib.sol\":1642:1676  NumericArrayLib.pickMedian(values) */\n      jump\t// in\n    tag_60:\n        /* \"@redstone-finance/evm-connector/contracts/core/RedstoneDefaultsLib.sol\":1635:1676  return NumericArrayLib.pickMedian(values) */\n      swap1\n      pop\n        /* \"@redstone-finance/evm-connector/contracts/core/RedstoneDefaultsLib.sol\":1547:1681  function aggregateValues(uint256[] memory values) internal pure returns (uint256) {... */\n      swap2\n      swap1\n      pop\n      jump\t// out\n        /* \"@redstone-finance/evm-connector/contracts/core/RedstoneDefaultsLib.sol\":584:1543  function validateTimestamp(uint256 receivedTimestampMilliseconds) internal view {... */\n    tag_45:\n        /* \"@redstone-finance/evm-connector/contracts/core/RedstoneDefaultsLib.sol\":1030:1062  uint256 receivedTimestampSeconds */\n      0x00\n        /* \"@redstone-finance/evm-connector/contracts/core/RedstoneDefaultsLib.sol\":1097:1101  1000 */\n      0x03e8\n        /* \"@redstone-finance/evm-connector/contracts/core/RedstoneDefaultsLib.sol\":1065:1094  receivedTimestampMilliseconds */\n      dup3\n        /* \"@redstone-finance/evm-connector/contracts/core/RedstoneDefaultsLib.sol\":1065:1101  receivedTimestampMilliseconds / 1000 */\n      tag_63\n      swap2\n      swap1\n      tag_64\n      jump\t// in\n    tag_63:\n        /* \"@redstone-finance/evm-connector/contracts/core/RedstoneDefaultsLib.sol\":1030:1101  uint256 receivedTimestampSeconds = receivedTimestampMilliseconds / 1000 */\n      swap1\n      pop\n        /* \"@redstone-finance/evm-connector/contracts/core/RedstoneDefaultsLib.sol\":1130:1154  receivedTimestampSeconds */\n      dup1\n        /* \"@redstone-finance/evm-connector/contracts/core/RedstoneDefaultsLib.sol\":1112:1127  block.timestamp */\n      timestamp\n        /* \"@redstone-finance/evm-connector/contracts/core/RedstoneDefaultsLib.sol\":1112:1154  block.timestamp < receivedTimestampSeconds */\n      lt\n        /* \"@redstone-finance/evm-connector/contracts/core/RedstoneDefaultsLib.sol\":1108:1539  if (block.timestamp < receivedTimestampSeconds) {... */\n      iszero\n      tag_65\n      jumpi\n        /* \"@redstone-finance/evm-connector/contracts/core/RedstoneDefaultsLib.sol\":390:399  1 minutes */\n      0x3c\n        /* \"@redstone-finance/evm-connector/contracts/core/RedstoneDefaultsLib.sol\":1196:1211  block.timestamp */\n      timestamp\n        /* \"@redstone-finance/evm-connector/contracts/core/RedstoneDefaultsLib.sol\":1169:1193  receivedTimestampSeconds */\n      dup3\n        /* \"@redstone-finance/evm-connector/contracts/core/RedstoneDefaultsLib.sol\":1169:1211  receivedTimestampSeconds - block.timestamp */\n      tag_66\n      swap2\n      swap1\n      tag_67\n      jump\t// in\n    tag_66:\n        /* \"@redstone-finance/evm-connector/contracts/core/RedstoneDefaultsLib.sol\":1168:1255  (receivedTimestampSeconds - block.timestamp) > DEFAULT_MAX_DATA_TIMESTAMP_AHEAD_SECONDS */\n      gt\n        /* \"@redstone-finance/evm-connector/contracts/core/RedstoneDefaultsLib.sol\":1164:1352  if ((receivedTimestampSeconds - block.timestamp) > DEFAULT_MAX_DATA_TIMESTAMP_AHEAD_SECONDS) {... */\n      iszero\n      tag_68\n      jumpi\n        /* \"@redstone-finance/evm-connector/contracts/core/RedstoneDefaultsLib.sol\":1301:1325  receivedTimestampSeconds */\n      dup1\n        /* \"@redstone-finance/evm-connector/contracts/core/RedstoneDefaultsLib.sol\":1327:1342  block.timestamp */\n      timestamp\n        /* \"@redstone-finance/evm-connector/contracts/core/RedstoneDefaultsLib.sol\":1274:1343  TimestampFromTooLongFuture(receivedTimestampSeconds, block.timestamp) */\n      mload(0x40)\n      0xb6b0916d00000000000000000000000000000000000000000000000000000000\n      dup2\n      mstore\n      0x04\n      add\n      tag_69\n      swap3\n      swap2\n      swap1\n      tag_70\n      jump\t// in\n    tag_69:\n      mload(0x40)\n      dup1\n      swap2\n      sub\n      swap1\n      revert\n        /* \"@redstone-finance/evm-connector/contracts/core/RedstoneDefaultsLib.sol\":1164:1352  if ((receivedTimestampSeconds - block.timestamp) > DEFAULT_MAX_DATA_TIMESTAMP_AHEAD_SECONDS) {... */\n    tag_68:\n        /* \"@redstone-finance/evm-connector/contracts/core/RedstoneDefaultsLib.sol\":1108:1539  if (block.timestamp < receivedTimestampSeconds) {... */\n      jump(tag_71)\n    tag_65:\n        /* \"@redstone-finance/evm-connector/contracts/core/RedstoneDefaultsLib.sol\":317:326  3 minutes */\n      0xb4\n        /* \"@redstone-finance/evm-connector/contracts/core/RedstoneDefaultsLib.sol\":1387:1411  receivedTimestampSeconds */\n      dup2\n        /* \"@redstone-finance/evm-connector/contracts/core/RedstoneDefaultsLib.sol\":1369:1384  block.timestamp */\n      timestamp\n        /* \"@redstone-finance/evm-connector/contracts/core/RedstoneDefaultsLib.sol\":1369:1411  block.timestamp - receivedTimestampSeconds */\n      tag_72\n      swap2\n      swap1\n      tag_67\n      jump\t// in\n    tag_72:\n        /* \"@redstone-finance/evm-connector/contracts/core/RedstoneDefaultsLib.sol\":1368:1455  (block.timestamp - receivedTimestampSeconds) > DEFAULT_MAX_DATA_TIMESTAMP_DELAY_SECONDS */\n      gt\n        /* \"@redstone-finance/evm-connector/contracts/core/RedstoneDefaultsLib.sol\":1364:1539  if ((block.timestamp - receivedTimestampSeconds) > DEFAULT_MAX_DATA_TIMESTAMP_DELAY_SECONDS) {... */\n      iszero\n      tag_73\n      jumpi\n        /* \"@redstone-finance/evm-connector/contracts/core/RedstoneDefaultsLib.sol\":1490:1514  receivedTimestampSeconds */\n      dup1\n        /* \"@redstone-finance/evm-connector/contracts/core/RedstoneDefaultsLib.sol\":1516:1531  block.timestamp */\n      timestamp\n        /* \"@redstone-finance/evm-connector/contracts/core/RedstoneDefaultsLib.sol\":1472:1532  TimestampIsTooOld(receivedTimestampSeconds, block.timestamp) */\n      mload(0x40)\n      0x0321d0b500000000000000000000000000000000000000000000000000000000\n      dup2\n      mstore\n      0x04\n      add\n      tag_74\n      swap3\n      swap2\n      swap1\n      tag_70\n      jump\t// in\n    tag_74:\n      mload(0x40)\n      dup1\n      swap2\n      sub\n      swap1\n      revert\n        /* \"@redstone-finance/evm-connector/contracts/core/RedstoneDefaultsLib.sol\":1364:1539  if ((block.timestamp - receivedTimestampSeconds) > DEFAULT_MAX_DATA_TIMESTAMP_DELAY_SECONDS) {... */\n    tag_73:\n        /* \"@redstone-finance/evm-connector/contracts/core/RedstoneDefaultsLib.sol\":1108:1539  if (block.timestamp < receivedTimestampSeconds) {... */\n    tag_71:\n        /* \"@redstone-finance/evm-connector/contracts/core/RedstoneDefaultsLib.sol\":664:1543  {... */\n      pop\n        /* \"@redstone-finance/evm-connector/contracts/core/RedstoneDefaultsLib.sol\":584:1543  function validateTimestamp(uint256 receivedTimestampMilliseconds) internal view {... */\n      pop\n      jump\t// out\n        /* \"@redstone-finance/evm-connector/contracts/core/RedstoneConsumerNumericBase.sol\":2373:2579  function getOracleNumericValuesFromTxMsg(bytes32[] memory dataFeedIds)... */\n    tag_56:\n        /* \"@redstone-finance/evm-connector/contracts/core/RedstoneConsumerNumericBase.sol\":2491:2507  uint256[] memory */\n      0x60\n        /* \"@redstone-finance/evm-connector/contracts/core/RedstoneConsumerNumericBase.sol\":2524:2574  _securelyExtractOracleValuesFromTxMsg(dataFeedIds) */\n      tag_76\n        /* \"@redstone-finance/evm-connector/contracts/core/RedstoneConsumerNumericBase.sol\":2562:2573  dataFeedIds */\n      dup3\n        /* \"@redstone-finance/evm-connector/contracts/core/RedstoneConsumerNumericBase.sol\":2524:2561  _securelyExtractOracleValuesFromTxMsg */\n      tag_77\n        /* \"@redstone-finance/evm-connector/contracts/core/RedstoneConsumerNumericBase.sol\":2524:2574  _securelyExtractOracleValuesFromTxMsg(dataFeedIds) */\n      jump\t// in\n    tag_76:\n        /* \"@redstone-finance/evm-connector/contracts/core/RedstoneConsumerNumericBase.sol\":2517:2574  return _securelyExtractOracleValuesFromTxMsg(dataFeedIds) */\n      swap1\n      pop\n        /* \"@redstone-finance/evm-connector/contracts/core/RedstoneConsumerNumericBase.sol\":2373:2579  function getOracleNumericValuesFromTxMsg(bytes32[] memory dataFeedIds)... */\n      swap2\n      swap1\n      pop\n      jump\t// out\n        /* \"@redstone-finance/evm-connector/contracts/libs/NumericArrayLib.sol\":448:839  function pickMedian(uint256[] memory arr) internal pure returns (uint256) {... */\n    tag_61:\n        /* \"@redstone-finance/evm-connector/contracts/libs/NumericArrayLib.sol\":513:520  uint256 */\n      0x00\n        /* \"@redstone-finance/evm-connector/contracts/libs/NumericArrayLib.sol\":546:547  0 */\n      dup1\n        /* \"@redstone-finance/evm-connector/contracts/libs/NumericArrayLib.sol\":532:535  arr */\n      dup3\n        /* \"@redstone-finance/evm-connector/contracts/libs/NumericArrayLib.sol\":532:542  arr.length */\n      mload\n        /* \"@redstone-finance/evm-connector/contracts/libs/NumericArrayLib.sol\":532:547  arr.length == 0 */\n      sub\n        /* \"@redstone-finance/evm-connector/contracts/libs/NumericArrayLib.sol\":528:601  if (arr.length == 0) {... */\n      tag_79\n      jumpi\n        /* \"@redstone-finance/evm-connector/contracts/libs/NumericArrayLib.sol\":564:594  CanNotPickMedianOfEmptyArray() */\n      mload(0x40)\n      0x9e198af900000000000000000000000000000000000000000000000000000000\n      dup2\n      mstore\n      0x04\n      add\n      mload(0x40)\n      dup1\n      swap2\n      sub\n      swap1\n      revert\n        /* \"@redstone-finance/evm-connector/contracts/libs/NumericArrayLib.sol\":528:601  if (arr.length == 0) {... */\n    tag_79:\n        /* \"@redstone-finance/evm-connector/contracts/libs/NumericArrayLib.sol\":606:615  sort(arr) */\n      tag_80\n        /* \"@redstone-finance/evm-connector/contracts/libs/NumericArrayLib.sol\":611:614  arr */\n      dup3\n        /* \"@redstone-finance/evm-connector/contracts/libs/NumericArrayLib.sol\":606:610  sort */\n      tag_81\n        /* \"@redstone-finance/evm-connector/contracts/libs/NumericArrayLib.sol\":606:615  sort(arr) */\n      jump\t// in\n    tag_80:\n        /* \"@redstone-finance/evm-connector/contracts/libs/NumericArrayLib.sol\":621:640  uint256 middleIndex */\n      0x00\n        /* \"@redstone-finance/evm-connector/contracts/libs/NumericArrayLib.sol\":656:657  2 */\n      0x02\n        /* \"@redstone-finance/evm-connector/contracts/libs/NumericArrayLib.sol\":643:646  arr */\n      dup4\n        /* \"@redstone-finance/evm-connector/contracts/libs/NumericArrayLib.sol\":643:653  arr.length */\n      mload\n        /* \"@redstone-finance/evm-connector/contracts/libs/NumericArrayLib.sol\":643:657  arr.length / 2 */\n      tag_82\n      swap2\n      swap1\n      tag_64\n      jump\t// in\n    tag_82:\n        /* \"@redstone-finance/evm-connector/contracts/libs/NumericArrayLib.sol\":621:657  uint256 middleIndex = arr.length / 2 */\n      swap1\n      pop\n        /* \"@redstone-finance/evm-connector/contracts/libs/NumericArrayLib.sol\":685:686  0 */\n      0x00\n        /* \"@redstone-finance/evm-connector/contracts/libs/NumericArrayLib.sol\":680:681  2 */\n      0x02\n        /* \"@redstone-finance/evm-connector/contracts/libs/NumericArrayLib.sol\":667:670  arr */\n      dup5\n        /* \"@redstone-finance/evm-connector/contracts/libs/NumericArrayLib.sol\":667:677  arr.length */\n      mload\n        /* \"@redstone-finance/evm-connector/contracts/libs/NumericArrayLib.sol\":667:681  arr.length % 2 */\n      tag_83\n      swap2\n      swap1\n      tag_84\n      jump\t// in\n    tag_83:\n        /* \"@redstone-finance/evm-connector/contracts/libs/NumericArrayLib.sol\":667:686  arr.length % 2 == 0 */\n      sub\n        /* \"@redstone-finance/evm-connector/contracts/libs/NumericArrayLib.sol\":663:835  if (arr.length % 2 == 0) {... */\n      tag_85\n      jumpi\n        /* \"@redstone-finance/evm-connector/contracts/libs/NumericArrayLib.sol\":696:707  uint256 sum */\n      0x00\n        /* \"@redstone-finance/evm-connector/contracts/libs/NumericArrayLib.sol\":710:762  SafeMath.add(arr[middleIndex - 1], arr[middleIndex]) */\n      tag_86\n        /* \"@redstone-finance/evm-connector/contracts/libs/NumericArrayLib.sol\":723:726  arr */\n      dup5\n        /* \"@redstone-finance/evm-connector/contracts/libs/NumericArrayLib.sol\":741:742  1 */\n      0x01\n        /* \"@redstone-finance/evm-connector/contracts/libs/NumericArrayLib.sol\":727:738  middleIndex */\n      dup5\n        /* \"@redstone-finance/evm-connector/contracts/libs/NumericArrayLib.sol\":727:742  middleIndex - 1 */\n      tag_87\n      swap2\n      swap1\n      tag_67\n      jump\t// in\n    tag_87:\n        /* \"@redstone-finance/evm-connector/contracts/libs/NumericArrayLib.sol\":723:743  arr[middleIndex - 1] */\n      dup2\n      mload\n      dup2\n      lt\n      tag_88\n      jumpi\n      tag_89\n      tag_54\n      jump\t// in\n    tag_89:\n    tag_88:\n      0x20\n      mul\n      0x20\n      add\n      add\n      mload\n        /* \"@redstone-finance/evm-connector/contracts/libs/NumericArrayLib.sol\":745:748  arr */\n      dup6\n        /* \"@redstone-finance/evm-connector/contracts/libs/NumericArrayLib.sol\":749:760  middleIndex */\n      dup5\n        /* \"@redstone-finance/evm-connector/contracts/libs/NumericArrayLib.sol\":745:761  arr[middleIndex] */\n      dup2\n      mload\n      dup2\n      lt\n      tag_90\n      jumpi\n      tag_91\n      tag_54\n      jump\t// in\n    tag_91:\n    tag_90:\n      0x20\n      mul\n      0x20\n      add\n      add\n      mload\n        /* \"@redstone-finance/evm-connector/contracts/libs/NumericArrayLib.sol\":710:722  SafeMath.add */\n      tag_92\n        /* \"@redstone-finance/evm-connector/contracts/libs/NumericArrayLib.sol\":710:762  SafeMath.add(arr[middleIndex - 1], arr[middleIndex]) */\n      jump\t// in\n    tag_86:\n        /* \"@redstone-finance/evm-connector/contracts/libs/NumericArrayLib.sol\":696:762  uint256 sum = SafeMath.add(arr[middleIndex - 1], arr[middleIndex]) */\n      swap1\n      pop\n        /* \"@redstone-finance/evm-connector/contracts/libs/NumericArrayLib.sol\":783:784  2 */\n      0x02\n        /* \"@redstone-finance/evm-connector/contracts/libs/NumericArrayLib.sol\":777:780  sum */\n      dup2\n        /* \"@redstone-finance/evm-connector/contracts/libs/NumericArrayLib.sol\":777:784  sum / 2 */\n      tag_93\n      swap2\n      swap1\n      tag_64\n      jump\t// in\n    tag_93:\n        /* \"@redstone-finance/evm-connector/contracts/libs/NumericArrayLib.sol\":770:784  return sum / 2 */\n      swap3\n      pop\n      pop\n      pop\n      jump(tag_78)\n        /* \"@redstone-finance/evm-connector/contracts/libs/NumericArrayLib.sol\":663:835  if (arr.length % 2 == 0) {... */\n    tag_85:\n        /* \"@redstone-finance/evm-connector/contracts/libs/NumericArrayLib.sol\":812:815  arr */\n      dup3\n        /* \"@redstone-finance/evm-connector/contracts/libs/NumericArrayLib.sol\":816:827  middleIndex */\n      dup2\n        /* \"@redstone-finance/evm-connector/contracts/libs/NumericArrayLib.sol\":812:828  arr[middleIndex] */\n      dup2\n      mload\n      dup2\n      lt\n      tag_95\n      jumpi\n      tag_96\n      tag_54\n      jump\t// in\n    tag_96:\n    tag_95:\n      0x20\n      mul\n      0x20\n      add\n      add\n      mload\n        /* \"@redstone-finance/evm-connector/contracts/libs/NumericArrayLib.sol\":805:828  return arr[middleIndex] */\n      swap2\n      pop\n      pop\n        /* \"@redstone-finance/evm-connector/contracts/libs/NumericArrayLib.sol\":448:839  function pickMedian(uint256[] memory arr) internal pure returns (uint256) {... */\n    tag_78:\n      swap2\n      swap1\n      pop\n      jump\t// out\n        /* \"@redstone-finance/evm-connector/contracts/core/RedstoneConsumerBase.sol\":3328:5351  function _securelyExtractOracleValuesFromTxMsg(bytes32[] memory dataFeedIds)... */\n    tag_77:\n        /* \"@redstone-finance/evm-connector/contracts/core/RedstoneConsumerBase.sol\":3440:3456  uint256[] memory */\n      0x60\n        /* \"@redstone-finance/evm-connector/contracts/core/RedstoneConsumerBase.sol\":3526:3574  uint256[] memory uniqueSignerCountForDataFeedIds */\n      0x00\n        /* \"@redstone-finance/evm-connector/contracts/core/RedstoneConsumerBase.sol\":3591:3602  dataFeedIds */\n      dup3\n        /* \"@redstone-finance/evm-connector/contracts/core/RedstoneConsumerBase.sol\":3591:3609  dataFeedIds.length */\n      mload\n        /* \"@redstone-finance/evm-connector/contracts/core/RedstoneConsumerBase.sol\":3577:3610  new uint256[](dataFeedIds.length) */\n      0xffffffffffffffff\n      dup2\n      gt\n      iszero\n      tag_98\n      jumpi\n      tag_99\n      tag_50\n      jump\t// in\n    tag_99:\n    tag_98:\n      mload(0x40)\n      swap1\n      dup1\n      dup3\n      mstore\n      dup1\n      0x20\n      mul\n      0x20\n      add\n      dup3\n      add\n      0x40\n      mstore\n      dup1\n      iszero\n      tag_100\n      jumpi\n      dup2\n      0x20\n      add\n      0x20\n      dup3\n      mul\n      dup1\n      calldatasize\n      dup4\n      calldatacopy\n      dup1\n      dup3\n      add\n      swap2\n      pop\n      pop\n      swap1\n      pop\n    tag_100:\n      pop\n        /* \"@redstone-finance/evm-connector/contracts/core/RedstoneConsumerBase.sol\":3526:3610  uint256[] memory uniqueSignerCountForDataFeedIds = new uint256[](dataFeedIds.length) */\n      swap1\n      pop\n        /* \"@redstone-finance/evm-connector/contracts/core/RedstoneConsumerBase.sol\":3616:3660  uint256[] memory signersBitmapForDataFeedIds */\n      0x00\n        /* \"@redstone-finance/evm-connector/contracts/core/RedstoneConsumerBase.sol\":3677:3688  dataFeedIds */\n      dup4\n        /* \"@redstone-finance/evm-connector/contracts/core/RedstoneConsumerBase.sol\":3677:3695  dataFeedIds.length */\n      mload\n        /* \"@redstone-finance/evm-connector/contracts/core/RedstoneConsumerBase.sol\":3663:3696  new uint256[](dataFeedIds.length) */\n      0xffffffffffffffff\n      dup2\n      gt\n      iszero\n      tag_101\n      jumpi\n      tag_102\n      tag_50\n      jump\t// in\n    tag_102:\n    tag_101:\n      mload(0x40)\n      swap1\n      dup1\n      dup3\n      mstore\n      dup1\n      0x20\n      mul\n      0x20\n      add\n      dup3\n      add\n      0x40\n      mstore\n      dup1\n      iszero\n      tag_103\n      jumpi\n      dup2\n      0x20\n      add\n      0x20\n      dup3\n      mul\n      dup1\n      calldatasize\n      dup4\n      calldatacopy\n      dup1\n      dup3\n      add\n      swap2\n      pop\n      pop\n      swap1\n      pop\n    tag_103:\n      pop\n        /* \"@redstone-finance/evm-connector/contracts/core/RedstoneConsumerBase.sol\":3616:3696  uint256[] memory signersBitmapForDataFeedIds = new uint256[](dataFeedIds.length) */\n      swap1\n      pop\n        /* \"@redstone-finance/evm-connector/contracts/core/RedstoneConsumerBase.sol\":3702:3739  uint256[][] memory valuesForDataFeeds */\n      0x00\n        /* \"@redstone-finance/evm-connector/contracts/core/RedstoneConsumerBase.sol\":3758:3769  dataFeedIds */\n      dup5\n        /* \"@redstone-finance/evm-connector/contracts/core/RedstoneConsumerBase.sol\":3758:3776  dataFeedIds.length */\n      mload\n        /* \"@redstone-finance/evm-connector/contracts/core/RedstoneConsumerBase.sol\":3742:3777  new uint256[][](dataFeedIds.length) */\n      0xffffffffffffffff\n      dup2\n      gt\n      iszero\n      tag_104\n      jumpi\n      tag_105\n      tag_50\n      jump\t// in\n    tag_105:\n    tag_104:\n      mload(0x40)\n      swap1\n      dup1\n      dup3\n      mstore\n      dup1\n      0x20\n      mul\n      0x20\n      add\n      dup3\n      add\n      0x40\n      mstore\n      dup1\n      iszero\n      tag_106\n      jumpi\n      dup2\n      0x20\n      add\n    tag_107:\n      0x60\n      dup2\n      mstore\n      0x20\n      add\n      swap1\n      0x01\n      swap1\n      sub\n      swap1\n      dup2\n      tag_107\n      jumpi\n      swap1\n      pop\n    tag_106:\n      pop\n        /* \"@redstone-finance/evm-connector/contracts/core/RedstoneConsumerBase.sol\":3702:3777  uint256[][] memory valuesForDataFeeds = new uint256[][](dataFeedIds.length) */\n      swap1\n      pop\n        /* \"@redstone-finance/evm-connector/contracts/core/RedstoneConsumerBase.sol\":3788:3797  uint256 i */\n      0x00\n        /* \"@redstone-finance/evm-connector/contracts/core/RedstoneConsumerBase.sol\":3783:4128  for (uint256 i = 0; i < dataFeedIds.length; i++) {... */\n    tag_108:\n        /* \"@redstone-finance/evm-connector/contracts/core/RedstoneConsumerBase.sol\":3807:3818  dataFeedIds */\n      dup6\n        /* \"@redstone-finance/evm-connector/contracts/core/RedstoneConsumerBase.sol\":3807:3825  dataFeedIds.length */\n      mload\n        /* \"@redstone-finance/evm-connector/contracts/core/RedstoneConsumerBase.sol\":3803:3804  i */\n      dup2\n        /* \"@redstone-finance/evm-connector/contracts/core/RedstoneConsumerBase.sol\":3803:3825  i < dataFeedIds.length */\n      lt\n        /* \"@redstone-finance/evm-connector/contracts/core/RedstoneConsumerBase.sol\":3783:4128  for (uint256 i = 0; i < dataFeedIds.length; i++) {... */\n      iszero\n      tag_109\n      jumpi\n        /* \"@redstone-finance/evm-connector/contracts/core/RedstoneConsumerBase.sol\":4093:4120  getUniqueSignersThreshold() */\n      tag_111\n        /* \"@redstone-finance/evm-connector/contracts/core/RedstoneConsumerBase.sol\":4093:4118  getUniqueSignersThreshold */\n      tag_28\n        /* \"@redstone-finance/evm-connector/contracts/core/RedstoneConsumerBase.sol\":4093:4120  getUniqueSignersThreshold() */\n      jump\t// in\n    tag_111:\n        /* \"@redstone-finance/evm-connector/contracts/core/RedstoneConsumerBase.sol\":4079:4121  new uint256[](getUniqueSignersThreshold()) */\n      0xff\n      and\n      0xffffffffffffffff\n      dup2\n      gt\n      iszero\n      tag_112\n      jumpi\n      tag_113\n      tag_50\n      jump\t// in\n    tag_113:\n    tag_112:\n      mload(0x40)\n      swap1\n      dup1\n      dup3\n      mstore\n      dup1\n      0x20\n      mul\n      0x20\n      add\n      dup3\n      add\n      0x40\n      mstore\n      dup1\n      iszero\n      tag_114\n      jumpi\n      dup2\n      0x20\n      add\n      0x20\n      dup3\n      mul\n      dup1\n      calldatasize\n      dup4\n      calldatacopy\n      dup1\n      dup3\n      add\n      swap2\n      pop\n      pop\n      swap1\n      pop\n    tag_114:\n      pop\n        /* \"@redstone-finance/evm-connector/contracts/core/RedstoneConsumerBase.sol\":4055:4073  valuesForDataFeeds */\n      dup3\n        /* \"@redstone-finance/evm-connector/contracts/core/RedstoneConsumerBase.sol\":4074:4075  i */\n      dup3\n        /* \"@redstone-finance/evm-connector/contracts/core/RedstoneConsumerBase.sol\":4055:4076  valuesForDataFeeds[i] */\n      dup2\n      mload\n      dup2\n      lt\n      tag_115\n      jumpi\n      tag_116\n      tag_54\n      jump\t// in\n    tag_116:\n    tag_115:\n      0x20\n      mul\n      0x20\n      add\n      add\n        /* \"@redstone-finance/evm-connector/contracts/core/RedstoneConsumerBase.sol\":4055:4121  valuesForDataFeeds[i] = new uint256[](getUniqueSignersThreshold()) */\n      dup2\n      swap1\n      mstore\n      pop\n        /* \"@redstone-finance/evm-connector/contracts/core/RedstoneConsumerBase.sol\":3827:3830  i++ */\n      dup1\n      dup1\n      tag_117\n      swap1\n      tag_118\n      jump\t// in\n    tag_117:\n      swap2\n      pop\n      pop\n        /* \"@redstone-finance/evm-connector/contracts/core/RedstoneConsumerBase.sol\":3783:4128  for (uint256 i = 0; i < dataFeedIds.length; i++) {... */\n      jump(tag_108)\n    tag_109:\n      pop\n        /* \"@redstone-finance/evm-connector/contracts/core/RedstoneConsumerBase.sol\":4194:4224  uint256 calldataNegativeOffset */\n      0x00\n        /* \"@redstone-finance/evm-connector/contracts/core/RedstoneConsumerBase.sol\":4227:4263  _extractByteSizeOfUnsignedMetadata() */\n      tag_119\n        /* \"@redstone-finance/evm-connector/contracts/core/RedstoneConsumerBase.sol\":4227:4261  _extractByteSizeOfUnsignedMetadata */\n      tag_120\n        /* \"@redstone-finance/evm-connector/contracts/core/RedstoneConsumerBase.sol\":4227:4263  _extractByteSizeOfUnsignedMetadata() */\n      jump\t// in\n    tag_119:\n        /* \"@redstone-finance/evm-connector/contracts/core/RedstoneConsumerBase.sol\":4194:4263  uint256 calldataNegativeOffset = _extractByteSizeOfUnsignedMetadata() */\n      swap1\n      pop\n        /* \"@redstone-finance/evm-connector/contracts/core/RedstoneConsumerBase.sol\":4269:4294  uint256 dataPackagesCount */\n      0x00\n        /* \"@redstone-finance/evm-connector/contracts/core/RedstoneConsumerBase.sol\":4297:4358  _extractDataPackagesCountFromCalldata(calldataNegativeOffset) */\n      tag_121\n        /* \"@redstone-finance/evm-connector/contracts/core/RedstoneConsumerBase.sol\":4335:4357  calldataNegativeOffset */\n      dup3\n        /* \"@redstone-finance/evm-connector/contracts/core/RedstoneConsumerBase.sol\":4297:4334  _extractDataPackagesCountFromCalldata */\n      tag_122\n        /* \"@redstone-finance/evm-connector/contracts/core/RedstoneConsumerBase.sol\":4297:4358  _extractDataPackagesCountFromCalldata(calldataNegativeOffset) */\n      jump\t// in\n    tag_121:\n        /* \"@redstone-finance/evm-connector/contracts/core/RedstoneConsumerBase.sol\":4269:4358  uint256 dataPackagesCount = _extractDataPackagesCountFromCalldata(calldataNegativeOffset) */\n      0xffff\n      and\n      swap1\n      pop\n        /* \"@redstone-finance/evm-connector/contracts/core/RedstoneConstants.sol\":1129:1130  2 */\n      0x02\n        /* \"@redstone-finance/evm-connector/contracts/core/RedstoneConsumerBase.sol\":4364:4412  calldataNegativeOffset += DATA_PACKAGES_COUNT_BS */\n      dup3\n      tag_123\n      swap2\n      swap1\n      tag_124\n      jump\t// in\n    tag_123:\n      swap2\n      pop\n        /* \"@redstone-finance/evm-connector/contracts/core/RedstoneConsumerBase.sol\":4461:4479  uint256 freeMemPtr */\n      0x00\n        /* \"@redstone-finance/evm-connector/contracts/core/RedstoneConsumerBase.sol\":4522:4537  FREE_MEMORY_PTR */\n      0x40\n        /* \"@redstone-finance/evm-connector/contracts/core/RedstoneConsumerBase.sol\":4516:4538  mload(FREE_MEMORY_PTR) */\n      mload\n        /* \"@redstone-finance/evm-connector/contracts/core/RedstoneConsumerBase.sol\":4502:4538  freeMemPtr := mload(FREE_MEMORY_PTR) */\n      swap1\n      pop\n        /* \"@redstone-finance/evm-connector/contracts/core/RedstoneConsumerBase.sol\":4597:4621  uint256 dataPackageIndex */\n      0x00\n        /* \"@redstone-finance/evm-connector/contracts/core/RedstoneConsumerBase.sol\":4592:5162  for (uint256 dataPackageIndex = 0; dataPackageIndex < dataPackagesCount; dataPackageIndex++) {... */\n    tag_125:\n        /* \"@redstone-finance/evm-connector/contracts/core/RedstoneConsumerBase.sol\":4646:4663  dataPackagesCount */\n      dup3\n        /* \"@redstone-finance/evm-connector/contracts/core/RedstoneConsumerBase.sol\":4627:4643  dataPackageIndex */\n      dup2\n        /* \"@redstone-finance/evm-connector/contracts/core/RedstoneConsumerBase.sol\":4627:4663  dataPackageIndex < dataPackagesCount */\n      lt\n        /* \"@redstone-finance/evm-connector/contracts/core/RedstoneConsumerBase.sol\":4592:5162  for (uint256 dataPackageIndex = 0; dataPackageIndex < dataPackagesCount; dataPackageIndex++) {... */\n      iszero\n      tag_126\n      jumpi\n        /* \"@redstone-finance/evm-connector/contracts/core/RedstoneConsumerBase.sol\":4758:4785  uint256 dataPackageByteSize */\n      0x00\n        /* \"@redstone-finance/evm-connector/contracts/core/RedstoneConsumerBase.sol\":4788:4974  _extractDataPackage(... */\n      tag_128\n        /* \"@redstone-finance/evm-connector/contracts/core/RedstoneConsumerBase.sol\":4817:4828  dataFeedIds */\n      dup11\n        /* \"@redstone-finance/evm-connector/contracts/core/RedstoneConsumerBase.sol\":4838:4869  uniqueSignerCountForDataFeedIds */\n      dup10\n        /* \"@redstone-finance/evm-connector/contracts/core/RedstoneConsumerBase.sol\":4879:4906  signersBitmapForDataFeedIds */\n      dup10\n        /* \"@redstone-finance/evm-connector/contracts/core/RedstoneConsumerBase.sol\":4916:4934  valuesForDataFeeds */\n      dup10\n        /* \"@redstone-finance/evm-connector/contracts/core/RedstoneConsumerBase.sol\":4944:4966  calldataNegativeOffset */\n      dup10\n        /* \"@redstone-finance/evm-connector/contracts/core/RedstoneConsumerBase.sol\":4788:4807  _extractDataPackage */\n      tag_129\n        /* \"@redstone-finance/evm-connector/contracts/core/RedstoneConsumerBase.sol\":4788:4974  _extractDataPackage(... */\n      jump\t// in\n    tag_128:\n        /* \"@redstone-finance/evm-connector/contracts/core/RedstoneConsumerBase.sol\":4758:4974  uint256 dataPackageByteSize = _extractDataPackage(... */\n      swap1\n      pop\n        /* \"@redstone-finance/evm-connector/contracts/core/RedstoneConsumerBase.sol\":5008:5027  dataPackageByteSize */\n      dup1\n        /* \"@redstone-finance/evm-connector/contracts/core/RedstoneConsumerBase.sol\":4982:5027  calldataNegativeOffset += dataPackageByteSize */\n      dup6\n      tag_130\n      swap2\n      swap1\n      tag_124\n      jump\t// in\n    tag_130:\n      swap5\n      pop\n        /* \"@redstone-finance/evm-connector/contracts/core/RedstoneConsumerBase.sol\":5137:5147  freeMemPtr */\n      dup3\n        /* \"@redstone-finance/evm-connector/contracts/core/RedstoneConsumerBase.sol\":5120:5135  FREE_MEMORY_PTR */\n      0x40\n        /* \"@redstone-finance/evm-connector/contracts/core/RedstoneConsumerBase.sol\":5113:5148  mstore(FREE_MEMORY_PTR, freeMemPtr) */\n      mstore\n        /* \"@redstone-finance/evm-connector/contracts/core/RedstoneConsumerBase.sol\":5103:5156  {... */\n      pop\n        /* \"@redstone-finance/evm-connector/contracts/core/RedstoneConsumerBase.sol\":4665:4683  dataPackageIndex++ */\n      dup1\n      dup1\n      tag_131\n      swap1\n      tag_118\n      jump\t// in\n    tag_131:\n      swap2\n      pop\n      pop\n        /* \"@redstone-finance/evm-connector/contracts/core/RedstoneConsumerBase.sol\":4592:5162  for (uint256 dataPackageIndex = 0; dataPackageIndex < dataPackagesCount; dataPackageIndex++) {... */\n      jump(tag_125)\n    tag_126:\n      pop\n        /* \"@redstone-finance/evm-connector/contracts/core/RedstoneConsumerBase.sol\":5273:5346  _getAggregatedValues(valuesForDataFeeds, uniqueSignerCountForDataFeedIds) */\n      tag_132\n        /* \"@redstone-finance/evm-connector/contracts/core/RedstoneConsumerBase.sol\":5294:5312  valuesForDataFeeds */\n      dup5\n        /* \"@redstone-finance/evm-connector/contracts/core/RedstoneConsumerBase.sol\":5314:5345  uniqueSignerCountForDataFeedIds */\n      dup8\n        /* \"@redstone-finance/evm-connector/contracts/core/RedstoneConsumerBase.sol\":5273:5293  _getAggregatedValues */\n      tag_133\n        /* \"@redstone-finance/evm-connector/contracts/core/RedstoneConsumerBase.sol\":5273:5346  _getAggregatedValues(valuesForDataFeeds, uniqueSignerCountForDataFeedIds) */\n      jump\t// in\n    tag_132:\n        /* \"@redstone-finance/evm-connector/contracts/core/RedstoneConsumerBase.sol\":5266:5346  return _getAggregatedValues(valuesForDataFeeds, uniqueSignerCountForDataFeedIds) */\n      swap7\n      pop\n      pop\n      pop\n      pop\n      pop\n      pop\n      pop\n        /* \"@redstone-finance/evm-connector/contracts/core/RedstoneConsumerBase.sol\":3328:5351  function _securelyExtractOracleValuesFromTxMsg(bytes32[] memory dataFeedIds)... */\n      swap2\n      swap1\n      pop\n      jump\t// out\n        /* \"@redstone-finance/evm-connector/contracts/libs/NumericArrayLib.sol\":843:1593  function sort(uint256[] memory arr) internal pure {... */\n    tag_81:\n        /* \"@redstone-finance/evm-connector/contracts/libs/NumericArrayLib.sol\":939:942  arr */\n      dup1\n        /* \"@redstone-finance/evm-connector/contracts/libs/NumericArrayLib.sol\":933:943  mload(arr) */\n      mload\n        /* \"@redstone-finance/evm-connector/contracts/libs/NumericArrayLib.sol\":976:996  BYTES_ARR_LEN_VAR_BS */\n      0x20\n        /* \"@redstone-finance/evm-connector/contracts/libs/NumericArrayLib.sol\":971:974  arr */\n      dup3\n        /* \"@redstone-finance/evm-connector/contracts/libs/NumericArrayLib.sol\":967:997  add(arr, BYTES_ARR_LEN_VAR_BS) */\n      add\n        /* \"@redstone-finance/evm-connector/contracts/libs/NumericArrayLib.sol\":1048:1064  UINT256_VALUE_BS */\n      0x20\n        /* \"@redstone-finance/evm-connector/contracts/libs/NumericArrayLib.sol\":1037:1046  arrLength */\n      dup3\n        /* \"@redstone-finance/evm-connector/contracts/libs/NumericArrayLib.sol\":1033:1065  mul(arrLength, UINT256_VALUE_BS) */\n      mul\n        /* \"@redstone-finance/evm-connector/contracts/libs/NumericArrayLib.sol\":1022:1031  valuesPtr */\n      dup2\n        /* \"@redstone-finance/evm-connector/contracts/libs/NumericArrayLib.sol\":1018:1066  add(valuesPtr, mul(arrLength, UINT256_VALUE_BS)) */\n      add\n        /* \"@redstone-finance/evm-connector/contracts/libs/NumericArrayLib.sol\":1102:1111  valuesPtr */\n      dup2\n        /* \"@redstone-finance/evm-connector/contracts/libs/NumericArrayLib.sol\":1073:1583  for {... */\n    tag_135:\n        /* \"@redstone-finance/evm-connector/contracts/libs/NumericArrayLib.sol\":1132:1138  endPtr */\n      dup2\n        /* \"@redstone-finance/evm-connector/contracts/libs/NumericArrayLib.sol\":1123:1130  arrIPtr */\n      dup2\n        /* \"@redstone-finance/evm-connector/contracts/libs/NumericArrayLib.sol\":1120:1139  lt(arrIPtr, endPtr) */\n      lt\n        /* \"@redstone-finance/evm-connector/contracts/libs/NumericArrayLib.sol\":1073:1583  for {... */\n      iszero\n      tag_137\n      jumpi\n        /* \"@redstone-finance/evm-connector/contracts/libs/NumericArrayLib.sol\":1258:1267  valuesPtr */\n      dup3\n        /* \"@redstone-finance/evm-connector/contracts/libs/NumericArrayLib.sol\":1227:1575  for {... */\n    tag_138:\n        /* \"@redstone-finance/evm-connector/contracts/libs/NumericArrayLib.sol\":1290:1297  arrIPtr */\n      dup2\n        /* \"@redstone-finance/evm-connector/contracts/libs/NumericArrayLib.sol\":1281:1288  arrJPtr */\n      dup2\n        /* \"@redstone-finance/evm-connector/contracts/libs/NumericArrayLib.sol\":1278:1298  lt(arrJPtr, arrIPtr) */\n      lt\n        /* \"@redstone-finance/evm-connector/contracts/libs/NumericArrayLib.sol\":1227:1575  for {... */\n      iszero\n      tag_140\n      jumpi\n        /* \"@redstone-finance/evm-connector/contracts/libs/NumericArrayLib.sol\":1410:1417  arrIPtr */\n      dup2\n        /* \"@redstone-finance/evm-connector/contracts/libs/NumericArrayLib.sol\":1404:1418  mload(arrIPtr) */\n      mload\n        /* \"@redstone-finance/evm-connector/contracts/libs/NumericArrayLib.sol\":1447:1454  arrJPtr */\n      dup2\n        /* \"@redstone-finance/evm-connector/contracts/libs/NumericArrayLib.sol\":1441:1455  mload(arrJPtr) */\n      mload\n        /* \"@redstone-finance/evm-connector/contracts/libs/NumericArrayLib.sol\":1478:1482  arrJ */\n      dup1\n        /* \"@redstone-finance/evm-connector/contracts/libs/NumericArrayLib.sol\":1472:1476  arrI */\n      dup3\n        /* \"@redstone-finance/evm-connector/contracts/libs/NumericArrayLib.sol\":1469:1483  lt(arrI, arrJ) */\n      lt\n        /* \"@redstone-finance/evm-connector/contracts/libs/NumericArrayLib.sol\":1466:1565  if lt(arrI, arrJ) {... */\n      iszero\n      tag_141\n      jumpi\n        /* \"@redstone-finance/evm-connector/contracts/libs/NumericArrayLib.sol\":1514:1518  arrJ */\n      dup1\n        /* \"@redstone-finance/evm-connector/contracts/libs/NumericArrayLib.sol\":1505:1512  arrIPtr */\n      dup5\n        /* \"@redstone-finance/evm-connector/contracts/libs/NumericArrayLib.sol\":1498:1519  mstore(arrIPtr, arrJ) */\n      mstore\n        /* \"@redstone-finance/evm-connector/contracts/libs/NumericArrayLib.sol\":1548:1552  arrI */\n      dup2\n        /* \"@redstone-finance/evm-connector/contracts/libs/NumericArrayLib.sol\":1539:1546  arrJPtr */\n      dup4\n        /* \"@redstone-finance/evm-connector/contracts/libs/NumericArrayLib.sol\":1532:1553  mstore(arrJPtr, arrI) */\n      mstore\n        /* \"@redstone-finance/evm-connector/contracts/libs/NumericArrayLib.sol\":1466:1565  if lt(arrI, arrJ) {... */\n    tag_141:\n        /* \"@redstone-finance/evm-connector/contracts/libs/NumericArrayLib.sol\":1380:1575  {... */\n      pop\n      pop\n        /* \"@redstone-finance/evm-connector/contracts/libs/NumericArrayLib.sol\":1335:1351  UINT256_VALUE_BS */\n      0x20\n        /* \"@redstone-finance/evm-connector/contracts/libs/NumericArrayLib.sol\":1326:1333  arrJPtr */\n      dup2\n        /* \"@redstone-finance/evm-connector/contracts/libs/NumericArrayLib.sol\":1322:1352  add(arrJPtr, UINT256_VALUE_BS) */\n      add\n        /* \"@redstone-finance/evm-connector/contracts/libs/NumericArrayLib.sol\":1311:1352  arrJPtr := add(arrJPtr, UINT256_VALUE_BS) */\n      swap1\n      pop\n        /* \"@redstone-finance/evm-connector/contracts/libs/NumericArrayLib.sol\":1227:1575  for {... */\n      jump(tag_138)\n    tag_140:\n        /* \"@redstone-finance/evm-connector/contracts/libs/NumericArrayLib.sol\":1231:1277  {... */\n      pop\n        /* \"@redstone-finance/evm-connector/contracts/libs/NumericArrayLib.sol\":1174:1190  UINT256_VALUE_BS */\n      0x20\n        /* \"@redstone-finance/evm-connector/contracts/libs/NumericArrayLib.sol\":1165:1172  arrIPtr */\n      dup2\n        /* \"@redstone-finance/evm-connector/contracts/libs/NumericArrayLib.sol\":1161:1191  add(arrIPtr, UINT256_VALUE_BS) */\n      add\n        /* \"@redstone-finance/evm-connector/contracts/libs/NumericArrayLib.sol\":1150:1191  arrIPtr := add(arrIPtr, UINT256_VALUE_BS) */\n      swap1\n      pop\n        /* \"@redstone-finance/evm-connector/contracts/libs/NumericArrayLib.sol\":1073:1583  for {... */\n      jump(tag_135)\n    tag_137:\n        /* \"@redstone-finance/evm-connector/contracts/libs/NumericArrayLib.sol\":1077:1119  {... */\n      pop\n        /* \"@redstone-finance/evm-connector/contracts/libs/NumericArrayLib.sol\":908:1589  {... */\n      pop\n      pop\n      pop\n        /* \"@redstone-finance/evm-connector/contracts/libs/NumericArrayLib.sol\":843:1593  function sort(uint256[] memory arr) internal pure {... */\n      pop\n      jump\t// out\n        /* \"@openzeppelin/contracts/utils/math/SafeMath.sol\":2755:2851  function add(uint256 a, uint256 b) internal pure returns (uint256) {... */\n    tag_92:\n        /* \"@openzeppelin/contracts/utils/math/SafeMath.sol\":2813:2820  uint256 */\n      0x00\n        /* \"@openzeppelin/contracts/utils/math/SafeMath.sol\":2843:2844  b */\n      dup2\n        /* \"@openzeppelin/contracts/utils/math/SafeMath.sol\":2839:2840  a */\n      dup4\n        /* \"@openzeppelin/contracts/utils/math/SafeMath.sol\":2839:2844  a + b */\n      tag_143\n      swap2\n      swap1\n      tag_124\n      jump\t// in\n    tag_143:\n        /* \"@openzeppelin/contracts/utils/math/SafeMath.sol\":2832:2844  return a + b */\n      swap1\n      pop\n        /* \"@openzeppelin/contracts/utils/math/SafeMath.sol\":2755:2851  function add(uint256 a, uint256 b) internal pure returns (uint256) {... */\n      swap3\n      swap2\n      pop\n      pop\n      jump\t// out\n        /* \"@redstone-finance/evm-connector/contracts/core/CalldataExtractor.sol\":488:1657  function _extractByteSizeOfUnsignedMetadata() internal pure returns (uint256) {... */\n    tag_120:\n        /* \"@redstone-finance/evm-connector/contracts/core/CalldataExtractor.sol\":557:564  uint256 */\n      0x00\n        /* \"@redstone-finance/evm-connector/contracts/core/CalldataExtractor.sol\":634:661  bool hasValidRedstoneMarker */\n      dup1\n        /* \"@redstone-finance/evm-connector/contracts/core/CalldataExtractor.sol\":744:760  STANDARD_SLOT_BS */\n      0x20\n        /* \"@redstone-finance/evm-connector/contracts/core/CalldataExtractor.sol\":728:742  calldatasize() */\n      calldatasize\n        /* \"@redstone-finance/evm-connector/contracts/core/CalldataExtractor.sol\":724:761  sub(calldatasize(), STANDARD_SLOT_BS) */\n      sub\n        /* \"@redstone-finance/evm-connector/contracts/core/CalldataExtractor.sol\":711:762  calldataload(sub(calldatasize(), STANDARD_SLOT_BS)) */\n      calldataload\n        /* \"@redstone-finance/evm-connector/contracts/core/CalldataExtractor.sol\":862:882  REDSTONE_MARKER_MASK */\n      0x02ed57011e0000\n        /* \"@redstone-finance/evm-connector/contracts/core/CalldataExtractor.sol\":841:860  calldataLast32Bytes */\n      dup2\n        /* \"@redstone-finance/evm-connector/contracts/core/CalldataExtractor.sol\":837:883  and(calldataLast32Bytes, REDSTONE_MARKER_MASK) */\n      and\n        /* \"@redstone-finance/evm-connector/contracts/core/CalldataExtractor.sol\":807:827  REDSTONE_MARKER_MASK */\n      0x02ed57011e0000\n        /* \"@redstone-finance/evm-connector/contracts/core/CalldataExtractor.sol\":795:891  eq(... */\n      eq\n        /* \"@redstone-finance/evm-connector/contracts/core/CalldataExtractor.sol\":769:891  hasValidRedstoneMarker := eq(... */\n      swap2\n      pop\n        /* \"@redstone-finance/evm-connector/contracts/core/CalldataExtractor.sol\":676:897  {... */\n      pop\n        /* \"@redstone-finance/evm-connector/contracts/core/CalldataExtractor.sol\":907:929  hasValidRedstoneMarker */\n      dup1\n        /* \"@redstone-finance/evm-connector/contracts/core/CalldataExtractor.sol\":902:983  if (!hasValidRedstoneMarker) {... */\n      tag_145\n      jumpi\n        /* \"@redstone-finance/evm-connector/contracts/core/CalldataExtractor.sol\":946:976  CalldataMustHaveValidPayload() */\n      mload(0x40)\n      0xe7764c9e00000000000000000000000000000000000000000000000000000000\n      dup2\n      mstore\n      0x04\n      add\n      mload(0x40)\n      dup1\n      swap2\n      sub\n      swap1\n      revert\n        /* \"@redstone-finance/evm-connector/contracts/core/CalldataExtractor.sol\":902:983  if (!hasValidRedstoneMarker) {... */\n    tag_145:\n        /* \"@redstone-finance/evm-connector/contracts/core/CalldataExtractor.sol\":1065:1096  uint24 unsignedMetadataByteSize */\n      0x00\n        /* \"@redstone-finance/evm-connector/contracts/core/CalldataExtractor.sol\":1149:1157  msg.data */\n      dup1\n      calldatasize\n        /* \"@redstone-finance/evm-connector/contracts/core/CalldataExtractor.sol\":1149:1164  msg.data.length */\n      swap1\n      pop\n        /* \"@redstone-finance/evm-connector/contracts/core/RedstoneConstants.sol\":2230:2232  41 */\n      0x29\n        /* \"@redstone-finance/evm-connector/contracts/core/CalldataExtractor.sol\":1106:1164  REDSTONE_MARKER_BS_PLUS_STANDARD_SLOT_BS > msg.data.length */\n      gt\n        /* \"@redstone-finance/evm-connector/contracts/core/CalldataExtractor.sol\":1102:1213  if (REDSTONE_MARKER_BS_PLUS_STANDARD_SLOT_BS > msg.data.length) {... */\n      iszero\n      tag_146\n      jumpi\n        /* \"@redstone-finance/evm-connector/contracts/core/CalldataExtractor.sol\":1181:1206  CalldataOverOrUnderFlow() */\n      mload(0x40)\n      0x5796f78a00000000000000000000000000000000000000000000000000000000\n      dup2\n      mstore\n      0x04\n      add\n      mload(0x40)\n      dup1\n      swap2\n      sub\n      swap1\n      revert\n        /* \"@redstone-finance/evm-connector/contracts/core/CalldataExtractor.sol\":1102:1213  if (REDSTONE_MARKER_BS_PLUS_STANDARD_SLOT_BS > msg.data.length) {... */\n    tag_146:\n        /* \"@redstone-finance/evm-connector/contracts/core/CalldataExtractor.sol\":1305:1345  REDSTONE_MARKER_BS_PLUS_STANDARD_SLOT_BS */\n      0x29\n        /* \"@redstone-finance/evm-connector/contracts/core/CalldataExtractor.sol\":1289:1303  calldatasize() */\n      calldatasize\n        /* \"@redstone-finance/evm-connector/contracts/core/CalldataExtractor.sol\":1285:1346  sub(calldatasize(), REDSTONE_MARKER_BS_PLUS_STANDARD_SLOT_BS) */\n      sub\n        /* \"@redstone-finance/evm-connector/contracts/core/CalldataExtractor.sol\":1263:1354  calldataload(... */\n      calldataload\n        /* \"@redstone-finance/evm-connector/contracts/core/CalldataExtractor.sol\":1235:1354  unsignedMetadataByteSize := calldataload(... */\n      swap1\n      pop\n        /* \"@redstone-finance/evm-connector/contracts/core/CalldataExtractor.sol\":1365:1395  uint256 calldataNegativeOffset */\n      0x00\n        /* \"@redstone-finance/evm-connector/contracts/core/RedstoneConstants.sol\":1479:1480  9 */\n      0x09\n        /* \"@redstone-finance/evm-connector/contracts/core/RedstoneConstants.sol\":1427:1428  3 */\n      0x03\n        /* \"@redstone-finance/evm-connector/contracts/core/CalldataExtractor.sol\":1398:1422  unsignedMetadataByteSize */\n      dup4\n        /* \"@redstone-finance/evm-connector/contracts/core/CalldataExtractor.sol\":1398:1461  unsignedMetadataByteSize... */\n      0xffffff\n      and\n      tag_147\n      swap2\n      swap1\n      tag_124\n      jump\t// in\n    tag_147:\n        /* \"@redstone-finance/evm-connector/contracts/core/CalldataExtractor.sol\":1398:1488  unsignedMetadataByteSize... */\n      tag_148\n      swap2\n      swap1\n      tag_124\n      jump\t// in\n    tag_148:\n        /* \"@redstone-finance/evm-connector/contracts/core/CalldataExtractor.sol\":1365:1488  uint256 calldataNegativeOffset = unsignedMetadataByteSize... */\n      swap1\n      pop\n        /* \"@redstone-finance/evm-connector/contracts/core/CalldataExtractor.sol\":1548:1556  msg.data */\n      0x00\n      calldatasize\n        /* \"@redstone-finance/evm-connector/contracts/core/CalldataExtractor.sol\":1548:1563  msg.data.length */\n      swap1\n      pop\n        /* \"@redstone-finance/evm-connector/contracts/core/RedstoneConstants.sol\":1129:1130  2 */\n      0x02\n        /* \"@redstone-finance/evm-connector/contracts/core/CalldataExtractor.sol\":1498:1520  calldataNegativeOffset */\n      dup3\n        /* \"@redstone-finance/evm-connector/contracts/core/CalldataExtractor.sol\":1498:1545  calldataNegativeOffset + DATA_PACKAGES_COUNT_BS */\n      tag_149\n      swap2\n      swap1\n      tag_124\n      jump\t// in\n    tag_149:\n        /* \"@redstone-finance/evm-connector/contracts/core/CalldataExtractor.sol\":1498:1563  calldataNegativeOffset + DATA_PACKAGES_COUNT_BS > msg.data.length */\n      gt\n        /* \"@redstone-finance/evm-connector/contracts/core/CalldataExtractor.sol\":1494:1618  if (calldataNegativeOffset + DATA_PACKAGES_COUNT_BS > msg.data.length) {... */\n      iszero\n      tag_150\n      jumpi\n        /* \"@redstone-finance/evm-connector/contracts/core/CalldataExtractor.sol\":1580:1611  IncorrectUnsignedMetadataSize() */\n      mload(0x40)\n      0xc30a7bd700000000000000000000000000000000000000000000000000000000\n      dup2\n      mstore\n      0x04\n      add\n      mload(0x40)\n      dup1\n      swap2\n      sub\n      swap1\n      revert\n        /* \"@redstone-finance/evm-connector/contracts/core/CalldataExtractor.sol\":1494:1618  if (calldataNegativeOffset + DATA_PACKAGES_COUNT_BS > msg.data.length) {... */\n    tag_150:\n        /* \"@redstone-finance/evm-connector/contracts/core/CalldataExtractor.sol\":1630:1652  calldataNegativeOffset */\n      dup1\n        /* \"@redstone-finance/evm-connector/contracts/core/CalldataExtractor.sol\":1623:1652  return calldataNegativeOffset */\n      swap4\n      pop\n      pop\n      pop\n      pop\n        /* \"@redstone-finance/evm-connector/contracts/core/CalldataExtractor.sol\":488:1657  function _extractByteSizeOfUnsignedMetadata() internal pure returns (uint256) {... */\n      swap1\n      jump\t// out\n        /* \"@redstone-finance/evm-connector/contracts/core/CalldataExtractor.sol\":1739:2264  function _extractDataPackagesCountFromCalldata(uint256 calldataNegativeOffset)... */\n    tag_122:\n        /* \"@redstone-finance/evm-connector/contracts/core/CalldataExtractor.sol\":1853:1877  uint16 dataPackagesCount */\n      0x00\n        /* \"@redstone-finance/evm-connector/contracts/core/CalldataExtractor.sol\":1887:1933  uint256 calldataNegativeOffsetWithStandardSlot */\n      dup1\n        /* \"@redstone-finance/evm-connector/contracts/core/RedstoneConstants.sol\":524:526  32 */\n      0x20\n        /* \"@redstone-finance/evm-connector/contracts/core/CalldataExtractor.sol\":1936:1958  calldataNegativeOffset */\n      dup4\n        /* \"@redstone-finance/evm-connector/contracts/core/CalldataExtractor.sol\":1936:1977  calldataNegativeOffset + STANDARD_SLOT_BS */\n      tag_152\n      swap2\n      swap1\n      tag_124\n      jump\t// in\n    tag_152:\n        /* \"@redstone-finance/evm-connector/contracts/core/CalldataExtractor.sol\":1887:1977  uint256 calldataNegativeOffsetWithStandardSlot = calldataNegativeOffset + STANDARD_SLOT_BS */\n      swap1\n      pop\n        /* \"@redstone-finance/evm-connector/contracts/core/CalldataExtractor.sol\":2028:2036  msg.data */\n      0x00\n      calldatasize\n        /* \"@redstone-finance/evm-connector/contracts/core/CalldataExtractor.sol\":2028:2043  msg.data.length */\n      swap1\n      pop\n        /* \"@redstone-finance/evm-connector/contracts/core/CalldataExtractor.sol\":1987:2025  calldataNegativeOffsetWithStandardSlot */\n      dup2\n        /* \"@redstone-finance/evm-connector/contracts/core/CalldataExtractor.sol\":1987:2043  calldataNegativeOffsetWithStandardSlot > msg.data.length */\n      gt\n        /* \"@redstone-finance/evm-connector/contracts/core/CalldataExtractor.sol\":1983:2092  if (calldataNegativeOffsetWithStandardSlot > msg.data.length) {... */\n      iszero\n      tag_153\n      jumpi\n        /* \"@redstone-finance/evm-connector/contracts/core/CalldataExtractor.sol\":2060:2085  CalldataOverOrUnderFlow() */\n      mload(0x40)\n      0x5796f78a00000000000000000000000000000000000000000000000000000000\n      dup2\n      mstore\n      0x04\n      add\n      mload(0x40)\n      dup1\n      swap2\n      sub\n      swap1\n      revert\n        /* \"@redstone-finance/evm-connector/contracts/core/CalldataExtractor.sol\":1983:2092  if (calldataNegativeOffsetWithStandardSlot > msg.data.length) {... */\n    tag_153:\n        /* \"@redstone-finance/evm-connector/contracts/core/CalldataExtractor.sol\":2177:2215  calldataNegativeOffsetWithStandardSlot */\n      dup1\n        /* \"@redstone-finance/evm-connector/contracts/core/CalldataExtractor.sol\":2161:2175  calldatasize() */\n      calldatasize\n        /* \"@redstone-finance/evm-connector/contracts/core/CalldataExtractor.sol\":2157:2216  sub(calldatasize(), calldataNegativeOffsetWithStandardSlot) */\n      sub\n        /* \"@redstone-finance/evm-connector/contracts/core/CalldataExtractor.sol\":2135:2224  calldataload(... */\n      calldataload\n        /* \"@redstone-finance/evm-connector/contracts/core/CalldataExtractor.sol\":2114:2224  dataPackagesCount := calldataload(... */\n      swap2\n      pop\n        /* \"@redstone-finance/evm-connector/contracts/core/CalldataExtractor.sol\":2235:2259  return dataPackagesCount */\n      pop\n        /* \"@redstone-finance/evm-connector/contracts/core/CalldataExtractor.sol\":1739:2264  function _extractDataPackagesCountFromCalldata(uint256 calldataNegativeOffset)... */\n      swap2\n      swap1\n      pop\n      jump\t// out\n        /* \"@redstone-finance/evm-connector/contracts/core/RedstoneConsumerBase.sol\":6149:10630  function _extractDataPackage(... */\n    tag_129:\n        /* \"@redstone-finance/evm-connector/contracts/core/RedstoneConsumerBase.sol\":6421:6428  uint256 */\n      0x00\n        /* \"@redstone-finance/evm-connector/contracts/core/RedstoneConsumerBase.sol\":6436:6455  uint256 signerIndex */\n      dup1\n        /* \"@redstone-finance/evm-connector/contracts/core/RedstoneConsumerBase.sol\":6470:6493  uint256 dataPointsCount */\n      0x00\n        /* \"@redstone-finance/evm-connector/contracts/core/RedstoneConsumerBase.sol\":6501:6535  uint256 eachDataPointValueByteSize */\n      dup1\n        /* \"@redstone-finance/evm-connector/contracts/core/RedstoneConsumerBase.sol\":6544:6607  _extractDataPointsDetailsForDataPackage(calldataNegativeOffset) */\n      tag_155\n        /* \"@redstone-finance/evm-connector/contracts/core/RedstoneConsumerBase.sol\":6584:6606  calldataNegativeOffset */\n      dup6\n        /* \"@redstone-finance/evm-connector/contracts/core/RedstoneConsumerBase.sol\":6544:6583  _extractDataPointsDetailsForDataPackage */\n      tag_156\n        /* \"@redstone-finance/evm-connector/contracts/core/RedstoneConsumerBase.sol\":6544:6607  _extractDataPointsDetailsForDataPackage(calldataNegativeOffset) */\n      jump\t// in\n    tag_155:\n        /* \"@redstone-finance/evm-connector/contracts/core/RedstoneConsumerBase.sol\":6462:6607  (... */\n      swap2\n      pop\n      swap2\n      pop\n        /* \"@redstone-finance/evm-connector/contracts/core/RedstoneConsumerBase.sol\":6682:6707  uint48 extractedTimestamp */\n      0x00\n        /* \"@redstone-finance/evm-connector/contracts/core/RedstoneConsumerBase.sol\":6715:6736  address signerAddress */\n      dup1\n        /* \"@redstone-finance/evm-connector/contracts/core/RedstoneConsumerBase.sol\":6744:6762  bytes32 signedHash */\n      0x00\n        /* \"@redstone-finance/evm-connector/contracts/core/RedstoneConsumerBase.sol\":6770:6796  bytes memory signedMessage */\n      0x60\n        /* \"@redstone-finance/evm-connector/contracts/core/RedstoneConsumerBase.sol\":6804:6835  uint256 signedMessageBytesCount */\n      0x00\n        /* \"@redstone-finance/evm-connector/contracts/core/RedstoneConstants.sol\":2084:2086  13 */\n      0x0d\n        /* \"@redstone-finance/evm-connector/contracts/core/RedstoneConsumerBase.sol\":6870:6940  dataPointsCount.mul(eachDataPointValueByteSize + DATA_POINT_SYMBOL_BS) */\n      tag_157\n        /* \"@redstone-finance/evm-connector/contracts/core/RedstoneConstants.sol\":1300:1302  32 */\n      0x20\n        /* \"@redstone-finance/evm-connector/contracts/core/RedstoneConsumerBase.sol\":6890:6916  eachDataPointValueByteSize */\n      dup9\n        /* \"@redstone-finance/evm-connector/contracts/core/RedstoneConsumerBase.sol\":6890:6939  eachDataPointValueByteSize + DATA_POINT_SYMBOL_BS */\n      tag_158\n      swap2\n      swap1\n      tag_124\n      jump\t// in\n    tag_158:\n        /* \"@redstone-finance/evm-connector/contracts/core/RedstoneConsumerBase.sol\":6870:6885  dataPointsCount */\n      dup10\n        /* \"@redstone-finance/evm-connector/contracts/core/RedstoneConsumerBase.sol\":6870:6889  dataPointsCount.mul */\n      tag_159\n      swap1\n        /* \"@redstone-finance/evm-connector/contracts/core/RedstoneConsumerBase.sol\":6870:6940  dataPointsCount.mul(eachDataPointValueByteSize + DATA_POINT_SYMBOL_BS) */\n      swap2\n      swap1\n      0xffffffff\n      and\n      jump\t// in\n    tag_157:\n        /* \"@redstone-finance/evm-connector/contracts/core/RedstoneConsumerBase.sol\":6870:6994  dataPointsCount.mul(eachDataPointValueByteSize + DATA_POINT_SYMBOL_BS)... */\n      tag_160\n      swap2\n      swap1\n      tag_124\n      jump\t// in\n    tag_160:\n        /* \"@redstone-finance/evm-connector/contracts/core/RedstoneConsumerBase.sol\":6844:6994  signedMessageBytesCount = dataPointsCount.mul(eachDataPointValueByteSize + DATA_POINT_SYMBOL_BS)... */\n      swap1\n      pop\n        /* \"@redstone-finance/evm-connector/contracts/core/RedstoneConsumerBase.sol\":7073:7104  uint256 timestampCalldataOffset */\n      0x00\n        /* \"@redstone-finance/evm-connector/contracts/core/RedstoneConsumerBase.sol\":7107:7225  msg.data.length.sub(... */\n      tag_161\n        /* \"@redstone-finance/evm-connector/contracts/core/RedstoneConstants.sol\":1771:1774  104 */\n      0x68\n        /* \"@redstone-finance/evm-connector/contracts/core/RedstoneConsumerBase.sol\":7136:7158  calldataNegativeOffset */\n      dup13\n        /* \"@redstone-finance/evm-connector/contracts/core/RedstoneConsumerBase.sol\":7136:7224  calldataNegativeOffset + TIMESTAMP_NEGATIVE_OFFSET_IN_DATA_PACKAGE_WITH_STANDARD_SLOT_BS */\n      tag_162\n      swap2\n      swap1\n      tag_124\n      jump\t// in\n    tag_162:\n        /* \"@redstone-finance/evm-connector/contracts/core/RedstoneConsumerBase.sol\":7107:7115  msg.data */\n      0x00\n      calldatasize\n        /* \"@redstone-finance/evm-connector/contracts/core/RedstoneConsumerBase.sol\":7107:7122  msg.data.length */\n      swap1\n      pop\n        /* \"@redstone-finance/evm-connector/contracts/core/RedstoneConsumerBase.sol\":7107:7126  msg.data.length.sub */\n      tag_163\n      swap1\n        /* \"@redstone-finance/evm-connector/contracts/core/RedstoneConsumerBase.sol\":7107:7225  msg.data.length.sub(... */\n      swap2\n      swap1\n      0xffffffff\n      and\n      jump\t// in\n    tag_161:\n        /* \"@redstone-finance/evm-connector/contracts/core/RedstoneConsumerBase.sol\":7073:7225  uint256 timestampCalldataOffset = msg.data.length.sub(... */\n      swap1\n      pop\n        /* \"@redstone-finance/evm-connector/contracts/core/RedstoneConsumerBase.sol\":7234:7269  uint256 signedMessageCalldataOffset */\n      0x00\n        /* \"@redstone-finance/evm-connector/contracts/core/RedstoneConsumerBase.sol\":7272:7359  msg.data.length.sub(... */\n      tag_164\n        /* \"@redstone-finance/evm-connector/contracts/core/RedstoneConsumerBase.sol\":7335:7358  signedMessageBytesCount */\n      dup4\n        /* \"@redstone-finance/evm-connector/contracts/core/RedstoneConstants.sol\":1026:1028  65 */\n      0x41\n        /* \"@redstone-finance/evm-connector/contracts/core/RedstoneConsumerBase.sol\":7301:7323  calldataNegativeOffset */\n      dup15\n        /* \"@redstone-finance/evm-connector/contracts/core/RedstoneConsumerBase.sol\":7301:7332  calldataNegativeOffset + SIG_BS */\n      tag_165\n      swap2\n      swap1\n      tag_124\n      jump\t// in\n    tag_165:\n        /* \"@redstone-finance/evm-connector/contracts/core/RedstoneConsumerBase.sol\":7301:7358  calldataNegativeOffset + SIG_BS + signedMessageBytesCount */\n      tag_166\n      swap2\n      swap1\n      tag_124\n      jump\t// in\n    tag_166:\n        /* \"@redstone-finance/evm-connector/contracts/core/RedstoneConsumerBase.sol\":7272:7280  msg.data */\n      0x00\n      calldatasize\n        /* \"@redstone-finance/evm-connector/contracts/core/RedstoneConsumerBase.sol\":7272:7287  msg.data.length */\n      swap1\n      pop\n        /* \"@redstone-finance/evm-connector/contracts/core/RedstoneConsumerBase.sol\":7272:7291  msg.data.length.sub */\n      tag_163\n      swap1\n        /* \"@redstone-finance/evm-connector/contracts/core/RedstoneConsumerBase.sol\":7272:7359  msg.data.length.sub(... */\n      swap2\n      swap1\n      0xffffffff\n      and\n      jump\t// in\n    tag_164:\n        /* \"@redstone-finance/evm-connector/contracts/core/RedstoneConsumerBase.sol\":7234:7359  uint256 signedMessageCalldataOffset = msg.data.length.sub(... */\n      swap1\n      pop\n        /* \"@redstone-finance/evm-connector/contracts/core/RedstoneConsumerBase.sol\":7445:7553  extractBytesFromCalldata(... */\n      tag_169\n        /* \"@redstone-finance/evm-connector/contracts/core/RedstoneConsumerBase.sol\":7520:7543  signedMessageBytesCount */\n      dup4\n        /* \"@redstone-finance/evm-connector/contracts/core/RedstoneConsumerBase.sol\":7481:7508  signedMessageCalldataOffset */\n      dup3\n        /* \"@redstone-finance/evm-connector/contracts/core/RedstoneConsumerBase.sol\":7445:7553  extractBytesFromCalldata(... */\n      tag_168\n      jump\t// in\n    tag_169:\n        /* \"@redstone-finance/evm-connector/contracts/core/RedstoneConsumerBase.sol\":7428:7553  signedMessage := extractBytesFromCalldata(... */\n      swap4\n      pop\n        /* \"@redstone-finance/evm-connector/contracts/core/RedstoneConsumerBase.sol\":7667:7690  signedMessageBytesCount */\n      dup3\n        /* \"@redstone-finance/evm-connector/contracts/core/RedstoneConsumerBase.sol\":7644:7664  BYTES_ARR_LEN_VAR_BS */\n      0x20\n        /* \"@redstone-finance/evm-connector/contracts/core/RedstoneConsumerBase.sol\":7629:7642  signedMessage */\n      dup6\n        /* \"@redstone-finance/evm-connector/contracts/core/RedstoneConsumerBase.sol\":7625:7665  add(signedMessage, BYTES_ARR_LEN_VAR_BS) */\n      add\n        /* \"@redstone-finance/evm-connector/contracts/core/RedstoneConsumerBase.sol\":7615:7691  keccak256(add(signedMessage, BYTES_ARR_LEN_VAR_BS), signedMessageBytesCount) */\n      keccak256\n        /* \"@redstone-finance/evm-connector/contracts/core/RedstoneConsumerBase.sol\":7601:7691  signedHash := keccak256(add(signedMessage, BYTES_ARR_LEN_VAR_BS), signedMessageBytesCount) */\n      swap5\n      pop\n        /* \"@redstone-finance/evm-connector/contracts/core/RedstoneConsumerBase.sol\":7768:7791  timestampCalldataOffset */\n      dup2\n        /* \"@redstone-finance/evm-connector/contracts/core/RedstoneConsumerBase.sol\":7755:7792  calldataload(timestampCalldataOffset) */\n      calldataload\n        /* \"@redstone-finance/evm-connector/contracts/core/RedstoneConsumerBase.sol\":7733:7792  extractedTimestamp := calldataload(timestampCalldataOffset) */\n      swap7\n      pop\n        /* \"@redstone-finance/evm-connector/contracts/core/RedstoneConsumerBase.sol\":7802:8033  function initByteArray(bytesCount) -> ptr {... */\n      jump(tag_170)\n    tag_167:\n        /* \"@redstone-finance/evm-connector/contracts/core/RedstoneConsumerBase.sol\":7840:7843  ptr */\n      0x00\n        /* \"@redstone-finance/evm-connector/contracts/core/RedstoneConsumerBase.sol\":7869:7884  FREE_MEMORY_PTR */\n      0x40\n        /* \"@redstone-finance/evm-connector/contracts/core/RedstoneConsumerBase.sol\":7863:7885  mload(FREE_MEMORY_PTR) */\n      mload\n        /* \"@redstone-finance/evm-connector/contracts/core/RedstoneConsumerBase.sol\":7856:7885  ptr := mload(FREE_MEMORY_PTR) */\n      swap1\n      pop\n        /* \"@redstone-finance/evm-connector/contracts/core/RedstoneConsumerBase.sol\":7908:7918  bytesCount */\n      dup2\n        /* \"@redstone-finance/evm-connector/contracts/core/RedstoneConsumerBase.sol\":7903:7906  ptr */\n      dup2\n        /* \"@redstone-finance/evm-connector/contracts/core/RedstoneConsumerBase.sol\":7896:7919  mstore(ptr, bytesCount) */\n      mstore\n        /* \"@redstone-finance/evm-connector/contracts/core/RedstoneConsumerBase.sol\":7946:7966  BYTES_ARR_LEN_VAR_BS */\n      0x20\n        /* \"@redstone-finance/evm-connector/contracts/core/RedstoneConsumerBase.sol\":7941:7944  ptr */\n      dup2\n        /* \"@redstone-finance/evm-connector/contracts/core/RedstoneConsumerBase.sol\":7937:7967  add(ptr, BYTES_ARR_LEN_VAR_BS) */\n      add\n        /* \"@redstone-finance/evm-connector/contracts/core/RedstoneConsumerBase.sol\":7930:7967  ptr := add(ptr, BYTES_ARR_LEN_VAR_BS) */\n      swap1\n      pop\n        /* \"@redstone-finance/evm-connector/contracts/core/RedstoneConsumerBase.sol\":8011:8021  bytesCount */\n      dup2\n        /* \"@redstone-finance/evm-connector/contracts/core/RedstoneConsumerBase.sol\":8006:8009  ptr */\n      dup2\n        /* \"@redstone-finance/evm-connector/contracts/core/RedstoneConsumerBase.sol\":8002:8022  add(ptr, bytesCount) */\n      add\n        /* \"@redstone-finance/evm-connector/contracts/core/RedstoneConsumerBase.sol\":7985:8000  FREE_MEMORY_PTR */\n      0x40\n        /* \"@redstone-finance/evm-connector/contracts/core/RedstoneConsumerBase.sol\":7978:8023  mstore(FREE_MEMORY_PTR, add(ptr, bytesCount)) */\n      mstore\n        /* \"@redstone-finance/evm-connector/contracts/core/RedstoneConsumerBase.sol\":7802:8033  function initByteArray(bytesCount) -> ptr {... */\n      swap2\n      swap1\n      pop\n      jump\t// out\n        /* \"@redstone-finance/evm-connector/contracts/core/RedstoneConsumerBase.sol\":8043:8385  function extractBytesFromCalldata(offset, bytesCount) -> extractedBytes {... */\n    tag_168:\n        /* \"@redstone-finance/evm-connector/contracts/core/RedstoneConsumerBase.sol\":8100:8114  extractedBytes */\n      0x00\n        /* \"@redstone-finance/evm-connector/contracts/core/RedstoneConsumerBase.sol\":8157:8182  initByteArray(bytesCount) */\n      tag_173\n        /* \"@redstone-finance/evm-connector/contracts/core/RedstoneConsumerBase.sol\":8171:8181  bytesCount */\n      dup4\n        /* \"@redstone-finance/evm-connector/contracts/core/RedstoneConsumerBase.sol\":8157:8182  initByteArray(bytesCount) */\n      tag_167\n      jump\t// in\n    tag_173:\n        /* \"@redstone-finance/evm-connector/contracts/core/RedstoneConsumerBase.sol\":8275:8285  bytesCount */\n      dup4\n        /* \"@redstone-finance/evm-connector/contracts/core/RedstoneConsumerBase.sol\":8255:8261  offset */\n      dup4\n        /* \"@redstone-finance/evm-connector/contracts/core/RedstoneConsumerBase.sol\":8219:8241  extractedBytesStartPtr */\n      dup3\n        /* \"@redstone-finance/evm-connector/contracts/core/RedstoneConsumerBase.sol\":8193:8297  calldatacopy(... */\n      calldatacopy\n        /* \"@redstone-finance/evm-connector/contracts/core/RedstoneConsumerBase.sol\":8354:8374  BYTES_ARR_LEN_VAR_BS */\n      0x20\n        /* \"@redstone-finance/evm-connector/contracts/core/RedstoneConsumerBase.sol\":8330:8352  extractedBytesStartPtr */\n      dup2\n        /* \"@redstone-finance/evm-connector/contracts/core/RedstoneConsumerBase.sol\":8326:8375  sub(extractedBytesStartPtr, BYTES_ARR_LEN_VAR_BS) */\n      sub\n        /* \"@redstone-finance/evm-connector/contracts/core/RedstoneConsumerBase.sol\":8308:8375  extractedBytes := sub(extractedBytesStartPtr, BYTES_ARR_LEN_VAR_BS) */\n      swap2\n      pop\n        /* \"@redstone-finance/evm-connector/contracts/core/RedstoneConsumerBase.sol\":8115:8385  {... */\n      pop\n        /* \"@redstone-finance/evm-connector/contracts/core/RedstoneConsumerBase.sol\":8043:8385  function extractBytesFromCalldata(offset, bytesCount) -> extractedBytes {... */\n      swap3\n      swap2\n      pop\n      pop\n      jump\t// out\n    tag_170:\n        /* \"@redstone-finance/evm-connector/contracts/core/RedstoneConsumerBase.sol\":8431:8468  validateTimestamp(extractedTimestamp) */\n      tag_174\n        /* \"@redstone-finance/evm-connector/contracts/core/RedstoneConsumerBase.sol\":8449:8467  extractedTimestamp */\n      dup8\n        /* \"@redstone-finance/evm-connector/contracts/core/RedstoneConsumerBase.sol\":8431:8468  validateTimestamp(extractedTimestamp) */\n      0xffffffffffff\n      and\n        /* \"@redstone-finance/evm-connector/contracts/core/RedstoneConsumerBase.sol\":8431:8448  validateTimestamp */\n      tag_26\n        /* \"@redstone-finance/evm-connector/contracts/core/RedstoneConsumerBase.sol\":8431:8468  validateTimestamp(extractedTimestamp) */\n      jump\t// in\n    tag_174:\n        /* \"@redstone-finance/evm-connector/contracts/core/RedstoneConsumerBase.sol\":8565:8667  SignatureLib.recoverSignerAddress(... */\n      tag_175\n        /* \"@redstone-finance/evm-connector/contracts/core/RedstoneConsumerBase.sol\":8608:8618  signedHash */\n      dup6\n        /* \"@redstone-finance/evm-connector/contracts/core/RedstoneConstants.sol\":1026:1028  65 */\n      0x41\n        /* \"@redstone-finance/evm-connector/contracts/core/RedstoneConsumerBase.sol\":8628:8650  calldataNegativeOffset */\n      dup15\n        /* \"@redstone-finance/evm-connector/contracts/core/RedstoneConsumerBase.sol\":8628:8659  calldataNegativeOffset + SIG_BS */\n      tag_176\n      swap2\n      swap1\n      tag_124\n      jump\t// in\n    tag_176:\n        /* \"@redstone-finance/evm-connector/contracts/core/RedstoneConsumerBase.sol\":8565:8598  SignatureLib.recoverSignerAddress */\n      tag_177\n        /* \"@redstone-finance/evm-connector/contracts/core/RedstoneConsumerBase.sol\":8565:8667  SignatureLib.recoverSignerAddress(... */\n      jump\t// in\n    tag_175:\n        /* \"@redstone-finance/evm-connector/contracts/core/RedstoneConsumerBase.sol\":8549:8667  signerAddress = SignatureLib.recoverSignerAddress(... */\n      swap6\n      pop\n        /* \"@redstone-finance/evm-connector/contracts/core/RedstoneConsumerBase.sol\":8689:8728  getAuthorisedSignerIndex(signerAddress) */\n      tag_178\n        /* \"@redstone-finance/evm-connector/contracts/core/RedstoneConsumerBase.sol\":8714:8727  signerAddress */\n      dup7\n        /* \"@redstone-finance/evm-connector/contracts/core/RedstoneConsumerBase.sol\":8689:8713  getAuthorisedSignerIndex */\n      tag_15\n        /* \"@redstone-finance/evm-connector/contracts/core/RedstoneConsumerBase.sol\":8689:8728  getAuthorisedSignerIndex(signerAddress) */\n      jump\t// in\n    tag_178:\n        /* \"@redstone-finance/evm-connector/contracts/core/RedstoneConsumerBase.sol\":8675:8728  signerIndex = getAuthorisedSignerIndex(signerAddress) */\n      0xff\n      and\n      swap10\n      pop\n        /* \"@redstone-finance/evm-connector/contracts/core/RedstoneConsumerBase.sol\":6674:8735  {... */\n      pop\n      pop\n      pop\n      pop\n      pop\n      pop\n      pop\n        /* \"@redstone-finance/evm-connector/contracts/core/RedstoneConsumerBase.sol\":8780:8807  bytes32 dataPointDataFeedId */\n      0x00\n        /* \"@redstone-finance/evm-connector/contracts/core/RedstoneConsumerBase.sol\":8815:8837  uint256 dataPointValue */\n      dup1\n        /* \"@redstone-finance/evm-connector/contracts/core/RedstoneConsumerBase.sol\":8850:8872  uint256 dataPointIndex */\n      0x00\n        /* \"@redstone-finance/evm-connector/contracts/core/RedstoneConsumerBase.sol\":8845:10438  for (uint256 dataPointIndex = 0; dataPointIndex < dataPointsCount; dataPointIndex++) {... */\n    tag_179:\n        /* \"@redstone-finance/evm-connector/contracts/core/RedstoneConsumerBase.sol\":8895:8910  dataPointsCount */\n      dup5\n        /* \"@redstone-finance/evm-connector/contracts/core/RedstoneConsumerBase.sol\":8878:8892  dataPointIndex */\n      dup2\n        /* \"@redstone-finance/evm-connector/contracts/core/RedstoneConsumerBase.sol\":8878:8910  dataPointIndex < dataPointsCount */\n      lt\n        /* \"@redstone-finance/evm-connector/contracts/core/RedstoneConsumerBase.sol\":8845:10438  for (uint256 dataPointIndex = 0; dataPointIndex < dataPointsCount; dataPointIndex++) {... */\n      iszero\n      tag_180\n      jumpi\n        /* \"@redstone-finance/evm-connector/contracts/core/RedstoneConsumerBase.sol\":9052:9195  _extractDataPointValueAndDataFeedId(... */\n      tag_182\n        /* \"@redstone-finance/evm-connector/contracts/core/RedstoneConsumerBase.sol\":9099:9121  calldataNegativeOffset */\n      dup9\n        /* \"@redstone-finance/evm-connector/contracts/core/RedstoneConsumerBase.sol\":9133:9159  eachDataPointValueByteSize */\n      dup6\n        /* \"@redstone-finance/evm-connector/contracts/core/RedstoneConsumerBase.sol\":9171:9185  dataPointIndex */\n      dup4\n        /* \"@redstone-finance/evm-connector/contracts/core/RedstoneConsumerBase.sol\":9052:9087  _extractDataPointValueAndDataFeedId */\n      tag_183\n        /* \"@redstone-finance/evm-connector/contracts/core/RedstoneConsumerBase.sol\":9052:9195  _extractDataPointValueAndDataFeedId(... */\n      jump\t// in\n    tag_182:\n        /* \"@redstone-finance/evm-connector/contracts/core/RedstoneConsumerBase.sol\":9012:9195  (dataPointDataFeedId, dataPointValue) = _extractDataPointValueAndDataFeedId(... */\n      dup1\n      swap4\n      pop\n      dup2\n      swap5\n      pop\n      pop\n      pop\n        /* \"@redstone-finance/evm-connector/contracts/core/RedstoneConsumerBase.sol\":9222:9245  uint256 dataFeedIdIndex */\n      0x00\n        /* \"@redstone-finance/evm-connector/contracts/core/RedstoneConsumerBase.sol\":9206:10430  for (... */\n    tag_184:\n        /* \"@redstone-finance/evm-connector/contracts/core/RedstoneConsumerBase.sol\":9279:9290  dataFeedIds */\n      dup13\n        /* \"@redstone-finance/evm-connector/contracts/core/RedstoneConsumerBase.sol\":9279:9297  dataFeedIds.length */\n      mload\n        /* \"@redstone-finance/evm-connector/contracts/core/RedstoneConsumerBase.sol\":9261:9276  dataFeedIdIndex */\n      dup2\n        /* \"@redstone-finance/evm-connector/contracts/core/RedstoneConsumerBase.sol\":9261:9297  dataFeedIdIndex < dataFeedIds.length */\n      lt\n        /* \"@redstone-finance/evm-connector/contracts/core/RedstoneConsumerBase.sol\":9206:10430  for (... */\n      iszero\n      tag_185\n      jumpi\n        /* \"@redstone-finance/evm-connector/contracts/core/RedstoneConsumerBase.sol\":9376:9387  dataFeedIds */\n      dup13\n        /* \"@redstone-finance/evm-connector/contracts/core/RedstoneConsumerBase.sol\":9388:9403  dataFeedIdIndex */\n      dup2\n        /* \"@redstone-finance/evm-connector/contracts/core/RedstoneConsumerBase.sol\":9376:9404  dataFeedIds[dataFeedIdIndex] */\n      dup2\n      mload\n      dup2\n      lt\n      tag_187\n      jumpi\n      tag_188\n      tag_54\n      jump\t// in\n    tag_188:\n    tag_187:\n      0x20\n      mul\n      0x20\n      add\n      add\n      mload\n        /* \"@redstone-finance/evm-connector/contracts/core/RedstoneConsumerBase.sol\":9353:9372  dataPointDataFeedId */\n      dup5\n        /* \"@redstone-finance/evm-connector/contracts/core/RedstoneConsumerBase.sol\":9353:9404  dataPointDataFeedId == dataFeedIds[dataFeedIdIndex] */\n      sub\n        /* \"@redstone-finance/evm-connector/contracts/core/RedstoneConsumerBase.sol\":9349:10420  if (dataPointDataFeedId == dataFeedIds[dataFeedIdIndex]) {... */\n      tag_189\n      jumpi\n        /* \"@redstone-finance/evm-connector/contracts/core/RedstoneConsumerBase.sol\":9420:9454  uint256 bitmapSignersForDataFeedId */\n      0x00\n        /* \"@redstone-finance/evm-connector/contracts/core/RedstoneConsumerBase.sol\":9457:9484  signersBitmapForDataFeedIds */\n      dup12\n        /* \"@redstone-finance/evm-connector/contracts/core/RedstoneConsumerBase.sol\":9485:9500  dataFeedIdIndex */\n      dup3\n        /* \"@redstone-finance/evm-connector/contracts/core/RedstoneConsumerBase.sol\":9457:9501  signersBitmapForDataFeedIds[dataFeedIdIndex] */\n      dup2\n      mload\n      dup2\n      lt\n      tag_190\n      jumpi\n      tag_191\n      tag_54\n      jump\t// in\n    tag_191:\n    tag_190:\n      0x20\n      mul\n      0x20\n      add\n      add\n      mload\n        /* \"@redstone-finance/evm-connector/contracts/core/RedstoneConsumerBase.sol\":9420:9501  uint256 bitmapSignersForDataFeedId = signersBitmapForDataFeedIds[dataFeedIdIndex] */\n      swap1\n      pop\n        /* \"@redstone-finance/evm-connector/contracts/core/RedstoneConsumerBase.sol\":9536:9603  BitmapLib.getBitFromBitmap(bitmapSignersForDataFeedId, signerIndex) */\n      tag_192\n        /* \"@redstone-finance/evm-connector/contracts/core/RedstoneConsumerBase.sol\":9563:9589  bitmapSignersForDataFeedId */\n      dup2\n        /* \"@redstone-finance/evm-connector/contracts/core/RedstoneConsumerBase.sol\":9591:9602  signerIndex */\n      dup10\n        /* \"@redstone-finance/evm-connector/contracts/core/RedstoneConsumerBase.sol\":9536:9562  BitmapLib.getBitFromBitmap */\n      tag_193\n        /* \"@redstone-finance/evm-connector/contracts/core/RedstoneConsumerBase.sol\":9536:9603  BitmapLib.getBitFromBitmap(bitmapSignersForDataFeedId, signerIndex) */\n      jump\t// in\n    tag_192:\n        /* \"@redstone-finance/evm-connector/contracts/core/RedstoneConsumerBase.sol\":9535:9603  !BitmapLib.getBitFromBitmap(bitmapSignersForDataFeedId, signerIndex) */\n      iszero\n        /* \"@redstone-finance/evm-connector/contracts/core/RedstoneConsumerBase.sol\":9535:9759  !BitmapLib.getBitFromBitmap(bitmapSignersForDataFeedId, signerIndex) && /* current signer was not counted for current dataFeedId */... */\n      dup1\n      iszero\n      tag_194\n      jumpi\n      pop\n        /* \"@redstone-finance/evm-connector/contracts/core/RedstoneConsumerBase.sol\":9732:9759  getUniqueSignersThreshold() */\n      tag_195\n        /* \"@redstone-finance/evm-connector/contracts/core/RedstoneConsumerBase.sol\":9732:9757  getUniqueSignersThreshold */\n      tag_28\n        /* \"@redstone-finance/evm-connector/contracts/core/RedstoneConsumerBase.sol\":9732:9759  getUniqueSignersThreshold() */\n      jump\t// in\n    tag_195:\n        /* \"@redstone-finance/evm-connector/contracts/core/RedstoneConsumerBase.sol\":9681:9759  uniqueSignerCountForDataFeedIds[dataFeedIdIndex] < getUniqueSignersThreshold() */\n      0xff\n      and\n        /* \"@redstone-finance/evm-connector/contracts/core/RedstoneConsumerBase.sol\":9681:9712  uniqueSignerCountForDataFeedIds */\n      dup14\n        /* \"@redstone-finance/evm-connector/contracts/core/RedstoneConsumerBase.sol\":9713:9728  dataFeedIdIndex */\n      dup4\n        /* \"@redstone-finance/evm-connector/contracts/core/RedstoneConsumerBase.sol\":9681:9729  uniqueSignerCountForDataFeedIds[dataFeedIdIndex] */\n      dup2\n      mload\n      dup2\n      lt\n      tag_196\n      jumpi\n      tag_197\n      tag_54\n      jump\t// in\n    tag_197:\n    tag_196:\n      0x20\n      mul\n      0x20\n      add\n      add\n      mload\n        /* \"@redstone-finance/evm-connector/contracts/core/RedstoneConsumerBase.sol\":9681:9759  uniqueSignerCountForDataFeedIds[dataFeedIdIndex] < getUniqueSignersThreshold() */\n      lt\n        /* \"@redstone-finance/evm-connector/contracts/core/RedstoneConsumerBase.sol\":9535:9759  !BitmapLib.getBitFromBitmap(bitmapSignersForDataFeedId, signerIndex) && /* current signer was not counted for current dataFeedId */... */\n    tag_194:\n        /* \"@redstone-finance/evm-connector/contracts/core/RedstoneConsumerBase.sol\":9516:10305  if (... */\n      iszero\n      tag_198\n      jumpi\n        /* \"@redstone-finance/evm-connector/contracts/core/RedstoneConsumerBase.sol\":9838:9869  uniqueSignerCountForDataFeedIds */\n      dup13\n        /* \"@redstone-finance/evm-connector/contracts/core/RedstoneConsumerBase.sol\":9870:9885  dataFeedIdIndex */\n      dup3\n        /* \"@redstone-finance/evm-connector/contracts/core/RedstoneConsumerBase.sol\":9838:9886  uniqueSignerCountForDataFeedIds[dataFeedIdIndex] */\n      dup2\n      mload\n      dup2\n      lt\n      tag_199\n      jumpi\n      tag_200\n      tag_54\n      jump\t// in\n    tag_200:\n    tag_199:\n      0x20\n      mul\n      0x20\n      add\n      add\n        /* \"@redstone-finance/evm-connector/contracts/core/RedstoneConsumerBase.sol\":9838:9888  uniqueSignerCountForDataFeedIds[dataFeedIdIndex]++ */\n      dup1\n      mload\n      dup1\n      swap2\n      swap1\n      tag_201\n      swap1\n      tag_118\n      jump\t// in\n    tag_201:\n      dup2\n      mstore\n      pop\n      pop\n        /* \"@redstone-finance/evm-connector/contracts/core/RedstoneConsumerBase.sol\":10060:10074  dataPointValue */\n      dup4\n        /* \"@redstone-finance/evm-connector/contracts/core/RedstoneConsumerBase.sol\":9936:9954  valuesForDataFeeds */\n      dup12\n        /* \"@redstone-finance/evm-connector/contracts/core/RedstoneConsumerBase.sol\":9955:9970  dataFeedIdIndex */\n      dup4\n        /* \"@redstone-finance/evm-connector/contracts/core/RedstoneConsumerBase.sol\":9936:9971  valuesForDataFeeds[dataFeedIdIndex] */\n      dup2\n      mload\n      dup2\n      lt\n      tag_202\n      jumpi\n      tag_203\n      tag_54\n      jump\t// in\n    tag_203:\n    tag_202:\n      0x20\n      mul\n      0x20\n      add\n      add\n      mload\n        /* \"@redstone-finance/evm-connector/contracts/core/RedstoneConsumerBase.sol\":10040:10041  1 */\n      0x01\n        /* \"@redstone-finance/evm-connector/contracts/core/RedstoneConsumerBase.sol\":9989:10020  uniqueSignerCountForDataFeedIds */\n      dup16\n        /* \"@redstone-finance/evm-connector/contracts/core/RedstoneConsumerBase.sol\":10021:10036  dataFeedIdIndex */\n      dup6\n        /* \"@redstone-finance/evm-connector/contracts/core/RedstoneConsumerBase.sol\":9989:10037  uniqueSignerCountForDataFeedIds[dataFeedIdIndex] */\n      dup2\n      mload\n      dup2\n      lt\n      tag_204\n      jumpi\n      tag_205\n      tag_54\n      jump\t// in\n    tag_205:\n    tag_204:\n      0x20\n      mul\n      0x20\n      add\n      add\n      mload\n        /* \"@redstone-finance/evm-connector/contracts/core/RedstoneConsumerBase.sol\":9989:10041  uniqueSignerCountForDataFeedIds[dataFeedIdIndex] - 1 */\n      tag_206\n      swap2\n      swap1\n      tag_67\n      jump\t// in\n    tag_206:\n        /* \"@redstone-finance/evm-connector/contracts/core/RedstoneConsumerBase.sol\":9936:10057  valuesForDataFeeds[dataFeedIdIndex][... */\n      dup2\n      mload\n      dup2\n      lt\n      tag_207\n      jumpi\n      tag_208\n      tag_54\n      jump\t// in\n    tag_208:\n    tag_207:\n      0x20\n      mul\n      0x20\n      add\n      add\n        /* \"@redstone-finance/evm-connector/contracts/core/RedstoneConsumerBase.sol\":9936:10074  valuesForDataFeeds[dataFeedIdIndex][... */\n      dup2\n      dup2\n      mstore\n      pop\n      pop\n        /* \"@redstone-finance/evm-connector/contracts/core/RedstoneConsumerBase.sol\":10177:10290  BitmapLib.setBitInBitmap(... */\n      tag_209\n        /* \"@redstone-finance/evm-connector/contracts/core/RedstoneConsumerBase.sol\":10219:10245  bitmapSignersForDataFeedId */\n      dup2\n        /* \"@redstone-finance/evm-connector/contracts/core/RedstoneConsumerBase.sol\":10263:10274  signerIndex */\n      dup10\n        /* \"@redstone-finance/evm-connector/contracts/core/RedstoneConsumerBase.sol\":10177:10201  BitmapLib.setBitInBitmap */\n      tag_210\n        /* \"@redstone-finance/evm-connector/contracts/core/RedstoneConsumerBase.sol\":10177:10290  BitmapLib.setBitInBitmap(... */\n      jump\t// in\n    tag_209:\n        /* \"@redstone-finance/evm-connector/contracts/core/RedstoneConsumerBase.sol\":10130:10157  signersBitmapForDataFeedIds */\n      dup13\n        /* \"@redstone-finance/evm-connector/contracts/core/RedstoneConsumerBase.sol\":10158:10173  dataFeedIdIndex */\n      dup4\n        /* \"@redstone-finance/evm-connector/contracts/core/RedstoneConsumerBase.sol\":10130:10174  signersBitmapForDataFeedIds[dataFeedIdIndex] */\n      dup2\n      mload\n      dup2\n      lt\n      tag_211\n      jumpi\n      tag_212\n      tag_54\n      jump\t// in\n    tag_212:\n    tag_211:\n      0x20\n      mul\n      0x20\n      add\n      add\n        /* \"@redstone-finance/evm-connector/contracts/core/RedstoneConsumerBase.sol\":10130:10290  signersBitmapForDataFeedIds[dataFeedIdIndex] = BitmapLib.setBitInBitmap(... */\n      dup2\n      dup2\n      mstore\n      pop\n      pop\n        /* \"@redstone-finance/evm-connector/contracts/core/RedstoneConsumerBase.sol\":9516:10305  if (... */\n    tag_198:\n        /* \"@redstone-finance/evm-connector/contracts/core/RedstoneConsumerBase.sol\":10402:10407  break */\n      pop\n      jump(tag_185)\n        /* \"@redstone-finance/evm-connector/contracts/core/RedstoneConsumerBase.sol\":9349:10420  if (dataPointDataFeedId == dataFeedIds[dataFeedIdIndex]) {... */\n    tag_189:\n        /* \"@redstone-finance/evm-connector/contracts/core/RedstoneConsumerBase.sol\":9309:9326  dataFeedIdIndex++ */\n      dup1\n      dup1\n      tag_213\n      swap1\n      tag_118\n      jump\t// in\n    tag_213:\n      swap2\n      pop\n      pop\n        /* \"@redstone-finance/evm-connector/contracts/core/RedstoneConsumerBase.sol\":9206:10430  for (... */\n      jump(tag_184)\n    tag_185:\n      pop\n        /* \"@redstone-finance/evm-connector/contracts/core/RedstoneConsumerBase.sol\":8912:8928  dataPointIndex++ */\n      dup1\n      dup1\n      tag_214\n      swap1\n      tag_118\n      jump\t// in\n    tag_214:\n      swap2\n      pop\n      pop\n        /* \"@redstone-finance/evm-connector/contracts/core/RedstoneConsumerBase.sol\":8845:10438  for (uint256 dataPointIndex = 0; dataPointIndex < dataPointsCount; dataPointIndex++) {... */\n      jump(tag_179)\n    tag_180:\n      pop\n        /* \"@redstone-finance/evm-connector/contracts/core/RedstoneConsumerBase.sol\":8772:10444  {... */\n      pop\n      pop\n        /* \"@redstone-finance/evm-connector/contracts/core/RedstoneConsumerBase.sol\":10610:10625  dataPointsCount */\n      dup2\n        /* \"@redstone-finance/evm-connector/contracts/core/RedstoneConstants.sol\":1300:1302  32 */\n      0x20\n        /* \"@redstone-finance/evm-connector/contracts/core/RedstoneConsumerBase.sol\":10551:10577  eachDataPointValueByteSize */\n      dup3\n        /* \"@redstone-finance/evm-connector/contracts/core/RedstoneConsumerBase.sol\":10551:10600  eachDataPointValueByteSize + DATA_POINT_SYMBOL_BS */\n      tag_215\n      swap2\n      swap1\n      tag_124\n      jump\t// in\n    tag_215:\n        /* \"@redstone-finance/evm-connector/contracts/core/RedstoneConsumerBase.sol\":10550:10625  (eachDataPointValueByteSize + DATA_POINT_SYMBOL_BS) *... */\n      tag_216\n      swap2\n      swap1\n      tag_217\n      jump\t// in\n    tag_216:\n        /* \"@redstone-finance/evm-connector/contracts/core/RedstoneConstants.sol\":1926:1928  78 */\n      0x4e\n        /* \"@redstone-finance/evm-connector/contracts/core/RedstoneConsumerBase.sol\":10506:10625  DATA_PACKAGE_WITHOUT_DATA_POINTS_BS +... */\n      tag_218\n      swap2\n      swap1\n      tag_124\n      jump\t// in\n    tag_218:\n        /* \"@redstone-finance/evm-connector/contracts/core/RedstoneConsumerBase.sol\":10493:10625  return... */\n      swap4\n      pop\n      pop\n      pop\n      pop\n        /* \"@redstone-finance/evm-connector/contracts/core/RedstoneConsumerBase.sol\":6149:10630  function _extractDataPackage(... */\n      swap6\n      swap5\n      pop\n      pop\n      pop\n      pop\n      pop\n      jump\t// out\n        /* \"@redstone-finance/evm-connector/contracts/core/RedstoneConsumerBase.sol\":11099:11961  function _getAggregatedValues(... */\n    tag_133:\n        /* \"@redstone-finance/evm-connector/contracts/core/RedstoneConsumerBase.sol\":11252:11268  uint256[] memory */\n      0x60\n        /* \"@redstone-finance/evm-connector/contracts/core/RedstoneConsumerBase.sol\":11276:11309  uint256[] memory aggregatedValues */\n      0x00\n        /* \"@redstone-finance/evm-connector/contracts/core/RedstoneConsumerBase.sol\":11326:11344  valuesForDataFeeds */\n      dup4\n        /* \"@redstone-finance/evm-connector/contracts/core/RedstoneConsumerBase.sol\":11326:11351  valuesForDataFeeds.length */\n      mload\n        /* \"@redstone-finance/evm-connector/contracts/core/RedstoneConsumerBase.sol\":11312:11352  new uint256[](valuesForDataFeeds.length) */\n      0xffffffffffffffff\n      dup2\n      gt\n      iszero\n      tag_220\n      jumpi\n      tag_221\n      tag_50\n      jump\t// in\n    tag_221:\n    tag_220:\n      mload(0x40)\n      swap1\n      dup1\n      dup3\n      mstore\n      dup1\n      0x20\n      mul\n      0x20\n      add\n      dup3\n      add\n      0x40\n      mstore\n      dup1\n      iszero\n      tag_222\n      jumpi\n      dup2\n      0x20\n      add\n      0x20\n      dup3\n      mul\n      dup1\n      calldatasize\n      dup4\n      calldatacopy\n      dup1\n      dup3\n      add\n      swap2\n      pop\n      pop\n      swap1\n      pop\n    tag_222:\n      pop\n        /* \"@redstone-finance/evm-connector/contracts/core/RedstoneConsumerBase.sol\":11276:11352  uint256[] memory aggregatedValues = new uint256[](valuesForDataFeeds.length) */\n      swap1\n      pop\n        /* \"@redstone-finance/evm-connector/contracts/core/RedstoneConsumerBase.sol\":11358:11388  uint256 uniqueSignersThreshold */\n      0x00\n        /* \"@redstone-finance/evm-connector/contracts/core/RedstoneConsumerBase.sol\":11391:11418  getUniqueSignersThreshold() */\n      tag_223\n        /* \"@redstone-finance/evm-connector/contracts/core/RedstoneConsumerBase.sol\":11391:11416  getUniqueSignersThreshold */\n      tag_28\n        /* \"@redstone-finance/evm-connector/contracts/core/RedstoneConsumerBase.sol\":11391:11418  getUniqueSignersThreshold() */\n      jump\t// in\n    tag_223:\n        /* \"@redstone-finance/evm-connector/contracts/core/RedstoneConsumerBase.sol\":11358:11418  uint256 uniqueSignersThreshold = getUniqueSignersThreshold() */\n      0xff\n      and\n      swap1\n      pop\n        /* \"@redstone-finance/evm-connector/contracts/core/RedstoneConsumerBase.sol\":11430:11451  uint256 dataFeedIndex */\n      0x00\n        /* \"@redstone-finance/evm-connector/contracts/core/RedstoneConsumerBase.sol\":11425:11927  for (uint256 dataFeedIndex = 0; dataFeedIndex < valuesForDataFeeds.length; dataFeedIndex++) {... */\n    tag_224:\n        /* \"@redstone-finance/evm-connector/contracts/core/RedstoneConsumerBase.sol\":11473:11491  valuesForDataFeeds */\n      dup6\n        /* \"@redstone-finance/evm-connector/contracts/core/RedstoneConsumerBase.sol\":11473:11498  valuesForDataFeeds.length */\n      mload\n        /* \"@redstone-finance/evm-connector/contracts/core/RedstoneConsumerBase.sol\":11457:11470  dataFeedIndex */\n      dup2\n        /* \"@redstone-finance/evm-connector/contracts/core/RedstoneConsumerBase.sol\":11457:11498  dataFeedIndex < valuesForDataFeeds.length */\n      lt\n        /* \"@redstone-finance/evm-connector/contracts/core/RedstoneConsumerBase.sol\":11425:11927  for (uint256 dataFeedIndex = 0; dataFeedIndex < valuesForDataFeeds.length; dataFeedIndex++) {... */\n      iszero\n      tag_225\n      jumpi\n        /* \"@redstone-finance/evm-connector/contracts/core/RedstoneConsumerBase.sol\":11578:11600  uniqueSignersThreshold */\n      dup2\n        /* \"@redstone-finance/evm-connector/contracts/core/RedstoneConsumerBase.sol\":11529:11560  uniqueSignerCountForDataFeedIds */\n      dup6\n        /* \"@redstone-finance/evm-connector/contracts/core/RedstoneConsumerBase.sol\":11561:11574  dataFeedIndex */\n      dup3\n        /* \"@redstone-finance/evm-connector/contracts/core/RedstoneConsumerBase.sol\":11529:11575  uniqueSignerCountForDataFeedIds[dataFeedIndex] */\n      dup2\n      mload\n      dup2\n      lt\n      tag_227\n      jumpi\n      tag_228\n      tag_54\n      jump\t// in\n    tag_228:\n    tag_227:\n      0x20\n      mul\n      0x20\n      add\n      add\n      mload\n        /* \"@redstone-finance/evm-connector/contracts/core/RedstoneConsumerBase.sol\":11529:11600  uniqueSignerCountForDataFeedIds[dataFeedIndex] < uniqueSignersThreshold */\n      lt\n        /* \"@redstone-finance/evm-connector/contracts/core/RedstoneConsumerBase.sol\":11525:11754  if (uniqueSignerCountForDataFeedIds[dataFeedIndex] < uniqueSignersThreshold) {... */\n      iszero\n      tag_229\n      jumpi\n        /* \"@redstone-finance/evm-connector/contracts/core/RedstoneConsumerBase.sol\":11664:11695  uniqueSignerCountForDataFeedIds */\n      dup5\n        /* \"@redstone-finance/evm-connector/contracts/core/RedstoneConsumerBase.sol\":11696:11709  dataFeedIndex */\n      dup2\n        /* \"@redstone-finance/evm-connector/contracts/core/RedstoneConsumerBase.sol\":11664:11710  uniqueSignerCountForDataFeedIds[dataFeedIndex] */\n      dup2\n      mload\n      dup2\n      lt\n      tag_230\n      jumpi\n      tag_231\n      tag_54\n      jump\t// in\n    tag_231:\n    tag_230:\n      0x20\n      mul\n      0x20\n      add\n      add\n      mload\n        /* \"@redstone-finance/evm-connector/contracts/core/RedstoneConsumerBase.sol\":11722:11744  uniqueSignersThreshold */\n      dup3\n        /* \"@redstone-finance/evm-connector/contracts/core/RedstoneConsumerBase.sol\":11619:11745  InsufficientNumberOfUniqueSigners(... */\n      mload(0x40)\n      0x2b13aef500000000000000000000000000000000000000000000000000000000\n      dup2\n      mstore\n      0x04\n      add\n      tag_232\n      swap3\n      swap2\n      swap1\n      tag_70\n      jump\t// in\n    tag_232:\n      mload(0x40)\n      dup1\n      swap2\n      sub\n      swap1\n      revert\n        /* \"@redstone-finance/evm-connector/contracts/core/RedstoneConsumerBase.sol\":11525:11754  if (uniqueSignerCountForDataFeedIds[dataFeedIndex] < uniqueSignersThreshold) {... */\n    tag_229:\n        /* \"@redstone-finance/evm-connector/contracts/core/RedstoneConsumerBase.sol\":11761:11797  uint256 aggregatedValueForDataFeedId */\n      0x00\n        /* \"@redstone-finance/evm-connector/contracts/core/RedstoneConsumerBase.sol\":11800:11850  aggregateValues(valuesForDataFeeds[dataFeedIndex]) */\n      tag_233\n        /* \"@redstone-finance/evm-connector/contracts/core/RedstoneConsumerBase.sol\":11816:11834  valuesForDataFeeds */\n      dup8\n        /* \"@redstone-finance/evm-connector/contracts/core/RedstoneConsumerBase.sol\":11835:11848  dataFeedIndex */\n      dup4\n        /* \"@redstone-finance/evm-connector/contracts/core/RedstoneConsumerBase.sol\":11816:11849  valuesForDataFeeds[dataFeedIndex] */\n      dup2\n      mload\n      dup2\n      lt\n      tag_234\n      jumpi\n      tag_235\n      tag_54\n      jump\t// in\n    tag_235:\n    tag_234:\n      0x20\n      mul\n      0x20\n      add\n      add\n      mload\n        /* \"@redstone-finance/evm-connector/contracts/core/RedstoneConsumerBase.sol\":11800:11815  aggregateValues */\n      tag_21\n        /* \"@redstone-finance/evm-connector/contracts/core/RedstoneConsumerBase.sol\":11800:11850  aggregateValues(valuesForDataFeeds[dataFeedIndex]) */\n      jump\t// in\n    tag_233:\n        /* \"@redstone-finance/evm-connector/contracts/core/RedstoneConsumerBase.sol\":11761:11850  uint256 aggregatedValueForDataFeedId = aggregateValues(valuesForDataFeeds[dataFeedIndex]) */\n      swap1\n      pop\n        /* \"@redstone-finance/evm-connector/contracts/core/RedstoneConsumerBase.sol\":11892:11920  aggregatedValueForDataFeedId */\n      dup1\n        /* \"@redstone-finance/evm-connector/contracts/core/RedstoneConsumerBase.sol\":11858:11874  aggregatedValues */\n      dup5\n        /* \"@redstone-finance/evm-connector/contracts/core/RedstoneConsumerBase.sol\":11875:11888  dataFeedIndex */\n      dup4\n        /* \"@redstone-finance/evm-connector/contracts/core/RedstoneConsumerBase.sol\":11858:11889  aggregatedValues[dataFeedIndex] */\n      dup2\n      mload\n      dup2\n      lt\n      tag_236\n      jumpi\n      tag_237\n      tag_54\n      jump\t// in\n    tag_237:\n    tag_236:\n      0x20\n      mul\n      0x20\n      add\n      add\n        /* \"@redstone-finance/evm-connector/contracts/core/RedstoneConsumerBase.sol\":11858:11920  aggregatedValues[dataFeedIndex] = aggregatedValueForDataFeedId */\n      dup2\n      dup2\n      mstore\n      pop\n      pop\n        /* \"@redstone-finance/evm-connector/contracts/core/RedstoneConsumerBase.sol\":11517:11927  {... */\n      pop\n        /* \"@redstone-finance/evm-connector/contracts/core/RedstoneConsumerBase.sol\":11500:11515  dataFeedIndex++ */\n      dup1\n      dup1\n      tag_238\n      swap1\n      tag_118\n      jump\t// in\n    tag_238:\n      swap2\n      pop\n      pop\n        /* \"@redstone-finance/evm-connector/contracts/core/RedstoneConsumerBase.sol\":11425:11927  for (uint256 dataFeedIndex = 0; dataFeedIndex < valuesForDataFeeds.length; dataFeedIndex++) {... */\n      jump(tag_224)\n    tag_225:\n      pop\n        /* \"@redstone-finance/evm-connector/contracts/core/RedstoneConsumerBase.sol\":11940:11956  aggregatedValues */\n      dup2\n        /* \"@redstone-finance/evm-connector/contracts/core/RedstoneConsumerBase.sol\":11933:11956  return aggregatedValues */\n      swap3\n      pop\n      pop\n      pop\n        /* \"@redstone-finance/evm-connector/contracts/core/RedstoneConsumerBase.sol\":11099:11961  function _getAggregatedValues(... */\n      swap3\n      swap2\n      pop\n      pop\n      jump\t// out\n        /* \"@redstone-finance/evm-connector/contracts/core/CalldataExtractor.sol\":3073:4099  function _extractDataPointsDetailsForDataPackage(uint256 calldataNegativeOffsetForDataPackage)... */\n    tag_156:\n        /* \"@redstone-finance/evm-connector/contracts/core/CalldataExtractor.sol\":3203:3226  uint256 dataPointsCount */\n      0x00\n        /* \"@redstone-finance/evm-connector/contracts/core/CalldataExtractor.sol\":3228:3262  uint256 eachDataPointValueByteSize */\n      dup1\n        /* \"@redstone-finance/evm-connector/contracts/core/CalldataExtractor.sol\":3348:3371  uint24 dataPointsCount_ */\n      0x00\n        /* \"@redstone-finance/evm-connector/contracts/core/CalldataExtractor.sol\":3446:3480  uint32 eachDataPointValueByteSize_ */\n      dup1\n        /* \"@redstone-finance/evm-connector/contracts/core/CalldataExtractor.sol\":3520:3550  uint256 negativeCalldataOffset */\n      0x00\n        /* \"@redstone-finance/evm-connector/contracts/core/RedstoneConstants.sol\":1026:1028  65 */\n      0x41\n        /* \"@redstone-finance/evm-connector/contracts/core/CalldataExtractor.sol\":3553:3589  calldataNegativeOffsetForDataPackage */\n      dup7\n        /* \"@redstone-finance/evm-connector/contracts/core/CalldataExtractor.sol\":3553:3598  calldataNegativeOffsetForDataPackage + SIG_BS */\n      tag_240\n      swap2\n      swap1\n      tag_124\n      jump\t// in\n    tag_240:\n        /* \"@redstone-finance/evm-connector/contracts/core/CalldataExtractor.sol\":3520:3598  uint256 negativeCalldataOffset = calldataNegativeOffsetForDataPackage + SIG_BS */\n      swap1\n      pop\n        /* \"@redstone-finance/evm-connector/contracts/core/CalldataExtractor.sol\":3604:3626  uint256 calldataOffset */\n      0x00\n        /* \"@redstone-finance/evm-connector/contracts/core/CalldataExtractor.sol\":3629:3691  msg.data.length.sub(negativeCalldataOffset + STANDARD_SLOT_BS) */\n      tag_241\n        /* \"@redstone-finance/evm-connector/contracts/core/RedstoneConstants.sol\":524:526  32 */\n      0x20\n        /* \"@redstone-finance/evm-connector/contracts/core/CalldataExtractor.sol\":3649:3671  negativeCalldataOffset */\n      dup4\n        /* \"@redstone-finance/evm-connector/contracts/core/CalldataExtractor.sol\":3649:3690  negativeCalldataOffset + STANDARD_SLOT_BS */\n      tag_242\n      swap2\n      swap1\n      tag_124\n      jump\t// in\n    tag_242:\n        /* \"@redstone-finance/evm-connector/contracts/core/CalldataExtractor.sol\":3629:3637  msg.data */\n      0x00\n      calldatasize\n        /* \"@redstone-finance/evm-connector/contracts/core/CalldataExtractor.sol\":3629:3644  msg.data.length */\n      swap1\n      pop\n        /* \"@redstone-finance/evm-connector/contracts/core/CalldataExtractor.sol\":3629:3648  msg.data.length.sub */\n      tag_163\n      swap1\n        /* \"@redstone-finance/evm-connector/contracts/core/CalldataExtractor.sol\":3629:3691  msg.data.length.sub(negativeCalldataOffset + STANDARD_SLOT_BS) */\n      swap2\n      swap1\n      0xffffffff\n      and\n      jump\t// in\n    tag_241:\n        /* \"@redstone-finance/evm-connector/contracts/core/CalldataExtractor.sol\":3604:3691  uint256 calldataOffset = msg.data.length.sub(negativeCalldataOffset + STANDARD_SLOT_BS) */\n      swap1\n      pop\n        /* \"@redstone-finance/evm-connector/contracts/core/CalldataExtractor.sol\":3747:3761  calldataOffset */\n      dup1\n        /* \"@redstone-finance/evm-connector/contracts/core/CalldataExtractor.sol\":3734:3762  calldataload(calldataOffset) */\n      calldataload\n        /* \"@redstone-finance/evm-connector/contracts/core/CalldataExtractor.sol\":3714:3762  dataPointsCount_ := calldataload(calldataOffset) */\n      swap4\n      pop\n        /* \"@redstone-finance/evm-connector/contracts/core/CalldataExtractor.sol\":3833:3873  calldataOffset.sub(DATA_POINTS_COUNT_BS) */\n      tag_243\n        /* \"@redstone-finance/evm-connector/contracts/core/RedstoneConstants.sol\":1183:1184  3 */\n      0x03\n        /* \"@redstone-finance/evm-connector/contracts/core/CalldataExtractor.sol\":3833:3847  calldataOffset */\n      dup3\n        /* \"@redstone-finance/evm-connector/contracts/core/CalldataExtractor.sol\":3833:3851  calldataOffset.sub */\n      tag_163\n      swap1\n        /* \"@redstone-finance/evm-connector/contracts/core/CalldataExtractor.sol\":3833:3873  calldataOffset.sub(DATA_POINTS_COUNT_BS) */\n      swap2\n      swap1\n      0xffffffff\n      and\n      jump\t// in\n    tag_243:\n        /* \"@redstone-finance/evm-connector/contracts/core/CalldataExtractor.sol\":3816:3873  calldataOffset = calldataOffset.sub(DATA_POINTS_COUNT_BS) */\n      swap1\n      pop\n        /* \"@redstone-finance/evm-connector/contracts/core/CalldataExtractor.sol\":3940:3954  calldataOffset */\n      dup1\n        /* \"@redstone-finance/evm-connector/contracts/core/CalldataExtractor.sol\":3927:3955  calldataload(calldataOffset) */\n      calldataload\n        /* \"@redstone-finance/evm-connector/contracts/core/CalldataExtractor.sol\":3896:3955  eachDataPointValueByteSize_ := calldataload(calldataOffset) */\n      swap3\n      pop\n        /* \"@redstone-finance/evm-connector/contracts/core/CalldataExtractor.sol\":4016:4032  dataPointsCount_ */\n      dup4\n        /* \"@redstone-finance/evm-connector/contracts/core/CalldataExtractor.sol\":3998:4032  dataPointsCount = dataPointsCount_ */\n      0xffffff\n      and\n      swap6\n      pop\n        /* \"@redstone-finance/evm-connector/contracts/core/CalldataExtractor.sol\":4067:4094  eachDataPointValueByteSize_ */\n      dup3\n        /* \"@redstone-finance/evm-connector/contracts/core/CalldataExtractor.sol\":4038:4094  eachDataPointValueByteSize = eachDataPointValueByteSize_ */\n      0xffffffff\n      and\n      swap5\n      pop\n        /* \"@redstone-finance/evm-connector/contracts/core/CalldataExtractor.sol\":3266:4099  {... */\n      pop\n      pop\n      pop\n      pop\n        /* \"@redstone-finance/evm-connector/contracts/core/CalldataExtractor.sol\":3073:4099  function _extractDataPointsDetailsForDataPackage(uint256 calldataNegativeOffsetForDataPackage)... */\n      swap2\n      pop\n      swap2\n      jump\t// out\n        /* \"@openzeppelin/contracts/utils/math/SafeMath.sol\":3465:3561  function mul(uint256 a, uint256 b) internal pure returns (uint256) {... */\n    tag_159:\n        /* \"@openzeppelin/contracts/utils/math/SafeMath.sol\":3523:3530  uint256 */\n      0x00\n        /* \"@openzeppelin/contracts/utils/math/SafeMath.sol\":3553:3554  b */\n      dup2\n        /* \"@openzeppelin/contracts/utils/math/SafeMath.sol\":3549:3550  a */\n      dup4\n        /* \"@openzeppelin/contracts/utils/math/SafeMath.sol\":3549:3554  a * b */\n      tag_245\n      swap2\n      swap1\n      tag_217\n      jump\t// in\n    tag_245:\n        /* \"@openzeppelin/contracts/utils/math/SafeMath.sol\":3542:3554  return a * b */\n      swap1\n      pop\n        /* \"@openzeppelin/contracts/utils/math/SafeMath.sol\":3465:3561  function mul(uint256 a, uint256 b) internal pure returns (uint256) {... */\n      swap3\n      swap2\n      pop\n      pop\n      jump\t// out\n        /* \"@openzeppelin/contracts/utils/math/SafeMath.sol\":3122:3218  function sub(uint256 a, uint256 b) internal pure returns (uint256) {... */\n    tag_163:\n        /* \"@openzeppelin/contracts/utils/math/SafeMath.sol\":3180:3187  uint256 */\n      0x00\n        /* \"@openzeppelin/contracts/utils/math/SafeMath.sol\":3210:3211  b */\n      dup2\n        /* \"@openzeppelin/contracts/utils/math/SafeMath.sol\":3206:3207  a */\n      dup4\n        /* \"@openzeppelin/contracts/utils/math/SafeMath.sol\":3206:3211  a - b */\n      tag_247\n      swap2\n      swap1\n      tag_67\n      jump\t// in\n    tag_247:\n        /* \"@openzeppelin/contracts/utils/math/SafeMath.sol\":3199:3211  return a - b */\n      swap1\n      pop\n        /* \"@openzeppelin/contracts/utils/math/SafeMath.sol\":3122:3218  function sub(uint256 a, uint256 b) internal pure returns (uint256) {... */\n      swap3\n      swap2\n      pop\n      pop\n      jump\t// out\n        /* \"@redstone-finance/evm-connector/contracts/libs/SignatureLib.sol\":164:874  function recoverSignerAddress(bytes32 signedHash, uint256 signatureCalldataNegativeOffset)... */\n    tag_177:\n        /* \"@redstone-finance/evm-connector/contracts/libs/SignatureLib.sol\":290:297  address */\n      0x00\n        /* \"@redstone-finance/evm-connector/contracts/libs/SignatureLib.sol\":307:316  bytes32 r */\n      dup1\n        /* \"@redstone-finance/evm-connector/contracts/libs/SignatureLib.sol\":322:331  bytes32 s */\n      0x00\n        /* \"@redstone-finance/evm-connector/contracts/libs/SignatureLib.sol\":337:344  uint8 v */\n      dup1\n        /* \"@redstone-finance/evm-connector/contracts/libs/SignatureLib.sol\":420:451  signatureCalldataNegativeOffset */\n      dup5\n        /* \"@redstone-finance/evm-connector/contracts/libs/SignatureLib.sol\":404:418  calldatasize() */\n      calldatasize\n        /* \"@redstone-finance/evm-connector/contracts/libs/SignatureLib.sol\":400:452  sub(calldatasize(), signatureCalldataNegativeOffset) */\n      sub\n        /* \"@redstone-finance/evm-connector/contracts/libs/SignatureLib.sol\":477:502  signatureCalldataStartPos */\n      dup1\n        /* \"@redstone-finance/evm-connector/contracts/libs/SignatureLib.sol\":464:503  calldataload(signatureCalldataStartPos) */\n      calldataload\n        /* \"@redstone-finance/evm-connector/contracts/libs/SignatureLib.sol\":459:503  r := calldataload(signatureCalldataStartPos) */\n      swap4\n      pop\n        /* \"@redstone-finance/evm-connector/contracts/libs/SignatureLib.sol\":570:584  ECDSA_SIG_R_BS */\n      0x20\n        /* \"@redstone-finance/evm-connector/contracts/libs/SignatureLib.sol\":543:568  signatureCalldataStartPos */\n      dup2\n        /* \"@redstone-finance/evm-connector/contracts/libs/SignatureLib.sol\":539:585  add(signatureCalldataStartPos, ECDSA_SIG_R_BS) */\n      add\n        /* \"@redstone-finance/evm-connector/contracts/libs/SignatureLib.sol\":510:585  signatureCalldataStartPos := add(signatureCalldataStartPos, ECDSA_SIG_R_BS) */\n      swap1\n      pop\n        /* \"@redstone-finance/evm-connector/contracts/libs/SignatureLib.sol\":610:635  signatureCalldataStartPos */\n      dup1\n        /* \"@redstone-finance/evm-connector/contracts/libs/SignatureLib.sol\":597:636  calldataload(signatureCalldataStartPos) */\n      calldataload\n        /* \"@redstone-finance/evm-connector/contracts/libs/SignatureLib.sol\":592:636  s := calldataload(signatureCalldataStartPos) */\n      swap3\n      pop\n        /* \"@redstone-finance/evm-connector/contracts/libs/SignatureLib.sol\":703:717  ECDSA_SIG_S_BS */\n      0x20\n        /* \"@redstone-finance/evm-connector/contracts/libs/SignatureLib.sol\":676:701  signatureCalldataStartPos */\n      dup2\n        /* \"@redstone-finance/evm-connector/contracts/libs/SignatureLib.sol\":672:718  add(signatureCalldataStartPos, ECDSA_SIG_S_BS) */\n      add\n        /* \"@redstone-finance/evm-connector/contracts/libs/SignatureLib.sol\":643:718  signatureCalldataStartPos := add(signatureCalldataStartPos, ECDSA_SIG_S_BS) */\n      swap1\n      pop\n        /* \"@redstone-finance/evm-connector/contracts/libs/SignatureLib.sol\":751:776  signatureCalldataStartPos */\n      dup1\n        /* \"@redstone-finance/evm-connector/contracts/libs/SignatureLib.sol\":738:777  calldataload(signatureCalldataStartPos) */\n      calldataload\n        /* \"@redstone-finance/evm-connector/contracts/libs/SignatureLib.sol\":735:736  0 */\n      0x00\n        /* \"@redstone-finance/evm-connector/contracts/libs/SignatureLib.sol\":730:778  byte(0, calldataload(signatureCalldataStartPos)) */\n      byte\n        /* \"@redstone-finance/evm-connector/contracts/libs/SignatureLib.sol\":725:778  v := byte(0, calldataload(signatureCalldataStartPos)) */\n      swap2\n      pop\n        /* \"@redstone-finance/evm-connector/contracts/libs/SignatureLib.sol\":359:827  {... */\n      pop\n        /* \"@redstone-finance/evm-connector/contracts/libs/SignatureLib.sol\":839:869  ecrecover(signedHash, v, r, s) */\n      0x01\n        /* \"@redstone-finance/evm-connector/contracts/libs/SignatureLib.sol\":849:859  signedHash */\n      dup7\n        /* \"@redstone-finance/evm-connector/contracts/libs/SignatureLib.sol\":861:862  v */\n      dup3\n        /* \"@redstone-finance/evm-connector/contracts/libs/SignatureLib.sol\":864:865  r */\n      dup6\n        /* \"@redstone-finance/evm-connector/contracts/libs/SignatureLib.sol\":867:868  s */\n      dup6\n        /* \"@redstone-finance/evm-connector/contracts/libs/SignatureLib.sol\":839:869  ecrecover(signedHash, v, r, s) */\n      mload(0x40)\n      0x00\n      dup2\n      mstore\n      0x20\n      add\n      0x40\n      mstore\n      mload(0x40)\n      tag_249\n      swap5\n      swap4\n      swap3\n      swap2\n      swap1\n      tag_250\n      jump\t// in\n    tag_249:\n      0x20\n      mload(0x40)\n      0x20\n      dup2\n      sub\n      swap1\n      dup1\n      dup5\n      sub\n      swap1\n      dup6\n      gas\n      staticcall\n      iszero\n      dup1\n      iszero\n      tag_252\n      jumpi\n      returndatasize\n      0x00\n      dup1\n      returndatacopy\n      revert(0x00, returndatasize)\n    tag_252:\n      pop\n      pop\n      pop\n      mload(sub(mload(0x40), 0x20))\n        /* \"@redstone-finance/evm-connector/contracts/libs/SignatureLib.sol\":832:869  return ecrecover(signedHash, v, r, s) */\n      swap4\n      pop\n      pop\n      pop\n      pop\n        /* \"@redstone-finance/evm-connector/contracts/libs/SignatureLib.sol\":164:874  function recoverSignerAddress(bytes32 signedHash, uint256 signatureCalldataNegativeOffset)... */\n      swap3\n      swap2\n      pop\n      pop\n      jump\t// out\n        /* \"@redstone-finance/evm-connector/contracts/core/CalldataExtractor.sol\":2268:3069  function _extractDataPointValueAndDataFeedId(... */\n    tag_183:\n        /* \"@redstone-finance/evm-connector/contracts/core/CalldataExtractor.sol\":2469:2496  bytes32 dataPointDataFeedId */\n      0x00\n        /* \"@redstone-finance/evm-connector/contracts/core/CalldataExtractor.sol\":2498:2520  uint256 dataPointValue */\n      dup1\n        /* \"@redstone-finance/evm-connector/contracts/core/CalldataExtractor.sol\":2528:2562  uint256 negativeOffsetToDataPoints */\n      0x00\n        /* \"@redstone-finance/evm-connector/contracts/core/RedstoneConstants.sol\":1926:1928  78 */\n      0x4e\n        /* \"@redstone-finance/evm-connector/contracts/core/CalldataExtractor.sol\":2565:2601  calldataNegativeOffsetForDataPackage */\n      dup7\n        /* \"@redstone-finance/evm-connector/contracts/core/CalldataExtractor.sol\":2565:2639  calldataNegativeOffsetForDataPackage + DATA_PACKAGE_WITHOUT_DATA_POINTS_BS */\n      tag_254\n      swap2\n      swap1\n      tag_124\n      jump\t// in\n    tag_254:\n        /* \"@redstone-finance/evm-connector/contracts/core/CalldataExtractor.sol\":2528:2639  uint256 negativeOffsetToDataPoints = calldataNegativeOffsetForDataPackage + DATA_PACKAGE_WITHOUT_DATA_POINTS_BS */\n      swap1\n      pop\n        /* \"@redstone-finance/evm-connector/contracts/core/CalldataExtractor.sol\":2645:2676  uint256 dataPointNegativeOffset */\n      0x00\n        /* \"@redstone-finance/evm-connector/contracts/core/CalldataExtractor.sol\":2679:2803  negativeOffsetToDataPoints.add(... */\n      tag_255\n        /* \"@redstone-finance/evm-connector/contracts/core/CalldataExtractor.sol\":2717:2797  (1 + dataPointIndex).mul((defaultDataPointValueByteSize + DATA_POINT_SYMBOL_BS)) */\n      tag_256\n        /* \"@redstone-finance/evm-connector/contracts/core/RedstoneConstants.sol\":1300:1302  32 */\n      0x20\n        /* \"@redstone-finance/evm-connector/contracts/core/CalldataExtractor.sol\":2743:2772  defaultDataPointValueByteSize */\n      dup9\n        /* \"@redstone-finance/evm-connector/contracts/core/CalldataExtractor.sol\":2743:2795  defaultDataPointValueByteSize + DATA_POINT_SYMBOL_BS */\n      tag_257\n      swap2\n      swap1\n      tag_124\n      jump\t// in\n    tag_257:\n        /* \"@redstone-finance/evm-connector/contracts/core/CalldataExtractor.sol\":2722:2736  dataPointIndex */\n      dup8\n        /* \"@redstone-finance/evm-connector/contracts/core/CalldataExtractor.sol\":2718:2719  1 */\n      0x01\n        /* \"@redstone-finance/evm-connector/contracts/core/CalldataExtractor.sol\":2718:2736  1 + dataPointIndex */\n      tag_258\n      swap2\n      swap1\n      tag_124\n      jump\t// in\n    tag_258:\n        /* \"@redstone-finance/evm-connector/contracts/core/CalldataExtractor.sol\":2717:2741  (1 + dataPointIndex).mul */\n      tag_159\n      swap1\n        /* \"@redstone-finance/evm-connector/contracts/core/CalldataExtractor.sol\":2717:2797  (1 + dataPointIndex).mul((defaultDataPointValueByteSize + DATA_POINT_SYMBOL_BS)) */\n      swap2\n      swap1\n      0xffffffff\n      and\n      jump\t// in\n    tag_256:\n        /* \"@redstone-finance/evm-connector/contracts/core/CalldataExtractor.sol\":2679:2705  negativeOffsetToDataPoints */\n      dup4\n        /* \"@redstone-finance/evm-connector/contracts/core/CalldataExtractor.sol\":2679:2709  negativeOffsetToDataPoints.add */\n      tag_92\n      swap1\n        /* \"@redstone-finance/evm-connector/contracts/core/CalldataExtractor.sol\":2679:2803  negativeOffsetToDataPoints.add(... */\n      swap2\n      swap1\n      0xffffffff\n      and\n      jump\t// in\n    tag_255:\n        /* \"@redstone-finance/evm-connector/contracts/core/CalldataExtractor.sol\":2645:2803  uint256 dataPointNegativeOffset = negativeOffsetToDataPoints.add(... */\n      swap1\n      pop\n        /* \"@redstone-finance/evm-connector/contracts/core/CalldataExtractor.sol\":2809:2840  uint256 dataPointCalldataOffset */\n      0x00\n        /* \"@redstone-finance/evm-connector/contracts/core/CalldataExtractor.sol\":2843:2887  msg.data.length.sub(dataPointNegativeOffset) */\n      tag_259\n        /* \"@redstone-finance/evm-connector/contracts/core/CalldataExtractor.sol\":2863:2886  dataPointNegativeOffset */\n      dup3\n        /* \"@redstone-finance/evm-connector/contracts/core/CalldataExtractor.sol\":2843:2851  msg.data */\n      0x00\n      calldatasize\n        /* \"@redstone-finance/evm-connector/contracts/core/CalldataExtractor.sol\":2843:2858  msg.data.length */\n      swap1\n      pop\n        /* \"@redstone-finance/evm-connector/contracts/core/CalldataExtractor.sol\":2843:2862  msg.data.length.sub */\n      tag_163\n      swap1\n        /* \"@redstone-finance/evm-connector/contracts/core/CalldataExtractor.sol\":2843:2887  msg.data.length.sub(dataPointNegativeOffset) */\n      swap2\n      swap1\n      0xffffffff\n      and\n      jump\t// in\n    tag_259:\n        /* \"@redstone-finance/evm-connector/contracts/core/CalldataExtractor.sol\":2809:2887  uint256 dataPointCalldataOffset = msg.data.length.sub(dataPointNegativeOffset) */\n      swap1\n      pop\n        /* \"@redstone-finance/evm-connector/contracts/core/CalldataExtractor.sol\":2946:2969  dataPointCalldataOffset */\n      dup1\n        /* \"@redstone-finance/evm-connector/contracts/core/CalldataExtractor.sol\":2933:2970  calldataload(dataPointCalldataOffset) */\n      calldataload\n        /* \"@redstone-finance/evm-connector/contracts/core/CalldataExtractor.sol\":2910:2970  dataPointDataFeedId := calldataload(dataPointCalldataOffset) */\n      swap5\n      pop\n        /* \"@redstone-finance/evm-connector/contracts/core/CalldataExtractor.sol\":3037:3057  DATA_POINT_SYMBOL_BS */\n      0x20\n        /* \"@redstone-finance/evm-connector/contracts/core/CalldataExtractor.sol\":3012:3035  dataPointCalldataOffset */\n      dup2\n        /* \"@redstone-finance/evm-connector/contracts/core/CalldataExtractor.sol\":3008:3058  add(dataPointCalldataOffset, DATA_POINT_SYMBOL_BS) */\n      add\n        /* \"@redstone-finance/evm-connector/contracts/core/CalldataExtractor.sol\":2995:3059  calldataload(add(dataPointCalldataOffset, DATA_POINT_SYMBOL_BS)) */\n      calldataload\n        /* \"@redstone-finance/evm-connector/contracts/core/CalldataExtractor.sol\":2977:3059  dataPointValue := calldataload(add(dataPointCalldataOffset, DATA_POINT_SYMBOL_BS)) */\n      swap4\n      pop\n        /* \"@redstone-finance/evm-connector/contracts/core/CalldataExtractor.sol\":2902:3065  {... */\n      pop\n      pop\n      pop\n        /* \"@redstone-finance/evm-connector/contracts/core/CalldataExtractor.sol\":2268:3069  function _extractDataPointValueAndDataFeedId(... */\n      swap4\n      pop\n      swap4\n      swap2\n      pop\n      pop\n      jump\t// out\n        /* \"@redstone-finance/evm-connector/contracts/libs/BitmapLib.sol\":216:388  function getBitFromBitmap(uint256 bitmap, uint256 bitIndex) internal pure returns (bool) {... */\n    tag_193:\n        /* \"@redstone-finance/evm-connector/contracts/libs/BitmapLib.sol\":299:303  bool */\n      0x00\n        /* \"@redstone-finance/evm-connector/contracts/libs/BitmapLib.sol\":311:329  uint256 bitAtIndex */\n      dup1\n        /* \"@redstone-finance/evm-connector/contracts/libs/BitmapLib.sol\":347:355  bitIndex */\n      dup3\n        /* \"@redstone-finance/evm-connector/contracts/libs/BitmapLib.sol\":342:343  1 */\n      0x01\n        /* \"@redstone-finance/evm-connector/contracts/libs/BitmapLib.sol\":342:355  1 << bitIndex */\n      swap1\n      shl\n        /* \"@redstone-finance/evm-connector/contracts/libs/BitmapLib.sol\":332:338  bitmap */\n      dup5\n        /* \"@redstone-finance/evm-connector/contracts/libs/BitmapLib.sol\":332:356  bitmap & (1 << bitIndex) */\n      and\n        /* \"@redstone-finance/evm-connector/contracts/libs/BitmapLib.sol\":311:356  uint256 bitAtIndex = bitmap & (1 << bitIndex) */\n      swap1\n      pop\n        /* \"@redstone-finance/evm-connector/contracts/libs/BitmapLib.sol\":382:383  0 */\n      0x00\n        /* \"@redstone-finance/evm-connector/contracts/libs/BitmapLib.sol\":369:379  bitAtIndex */\n      dup2\n        /* \"@redstone-finance/evm-connector/contracts/libs/BitmapLib.sol\":369:383  bitAtIndex > 0 */\n      gt\n        /* \"@redstone-finance/evm-connector/contracts/libs/BitmapLib.sol\":362:383  return bitAtIndex > 0 */\n      swap2\n      pop\n      pop\n        /* \"@redstone-finance/evm-connector/contracts/libs/BitmapLib.sol\":216:388  function getBitFromBitmap(uint256 bitmap, uint256 bitIndex) internal pure returns (bool) {... */\n      swap3\n      swap2\n      pop\n      pop\n      jump\t// out\n        /* \"@redstone-finance/evm-connector/contracts/libs/BitmapLib.sol\":80:212  function setBitInBitmap(uint256 bitmap, uint256 bitIndex) internal pure returns (uint256) {... */\n    tag_210:\n        /* \"@redstone-finance/evm-connector/contracts/libs/BitmapLib.sol\":161:168  uint256 */\n      0x00\n        /* \"@redstone-finance/evm-connector/contracts/libs/BitmapLib.sol\":198:206  bitIndex */\n      dup2\n        /* \"@redstone-finance/evm-connector/contracts/libs/BitmapLib.sol\":193:194  1 */\n      0x01\n        /* \"@redstone-finance/evm-connector/contracts/libs/BitmapLib.sol\":193:206  1 << bitIndex */\n      swap1\n      shl\n        /* \"@redstone-finance/evm-connector/contracts/libs/BitmapLib.sol\":183:189  bitmap */\n      dup4\n        /* \"@redstone-finance/evm-connector/contracts/libs/BitmapLib.sol\":183:207  bitmap | (1 << bitIndex) */\n      or\n        /* \"@redstone-finance/evm-connector/contracts/libs/BitmapLib.sol\":176:207  return bitmap | (1 << bitIndex) */\n      swap1\n      pop\n        /* \"@redstone-finance/evm-connector/contracts/libs/BitmapLib.sol\":80:212  function setBitInBitmap(uint256 bitmap, uint256 bitIndex) internal pure returns (uint256) {... */\n      swap3\n      swap2\n      pop\n      pop\n      jump\t// out\n        /* \"#utility.yul\":7:84   */\n    tag_262:\n        /* \"#utility.yul\":44:51   */\n      0x00\n        /* \"#utility.yul\":73:78   */\n      dup2\n        /* \"#utility.yul\":62:78   */\n      swap1\n      pop\n        /* \"#utility.yul\":7:84   */\n      swap2\n      swap1\n      pop\n      jump\t// out\n        /* \"#utility.yul\":90:208   */\n    tag_263:\n        /* \"#utility.yul\":177:201   */\n      tag_291\n        /* \"#utility.yul\":195:200   */\n      dup2\n        /* \"#utility.yul\":177:201   */\n      tag_262\n      jump\t// in\n    tag_291:\n        /* \"#utility.yul\":172:175   */\n      dup3\n        /* \"#utility.yul\":165:202   */\n      mstore\n        /* \"#utility.yul\":90:208   */\n      pop\n      pop\n      jump\t// out\n        /* \"#utility.yul\":214:436   */\n    tag_11:\n        /* \"#utility.yul\":307:311   */\n      0x00\n        /* \"#utility.yul\":345:347   */\n      0x20\n        /* \"#utility.yul\":334:343   */\n      dup3\n        /* \"#utility.yul\":330:348   */\n      add\n        /* \"#utility.yul\":322:348   */\n      swap1\n      pop\n        /* \"#utility.yul\":358:429   */\n      tag_293\n        /* \"#utility.yul\":426:427   */\n      0x00\n        /* \"#utility.yul\":415:424   */\n      dup4\n        /* \"#utility.yul\":411:428   */\n      add\n        /* \"#utility.yul\":402:408   */\n      dup5\n        /* \"#utility.yul\":358:429   */\n      tag_263\n      jump\t// in\n    tag_293:\n        /* \"#utility.yul\":214:436   */\n      swap3\n      swap2\n      pop\n      pop\n      jump\t// out\n        /* \"#utility.yul\":442:517   */\n    tag_264:\n        /* \"#utility.yul\":475:481   */\n      0x00\n        /* \"#utility.yul\":508:510   */\n      0x40\n        /* \"#utility.yul\":502:511   */\n      mload\n        /* \"#utility.yul\":492:511   */\n      swap1\n      pop\n        /* \"#utility.yul\":442:517   */\n      swap1\n      jump\t// out\n        /* \"#utility.yul\":523:640   */\n    tag_265:\n        /* \"#utility.yul\":632:633   */\n      0x00\n        /* \"#utility.yul\":629:630   */\n      dup1\n        /* \"#utility.yul\":622:634   */\n      revert\n        /* \"#utility.yul\":646:763   */\n    tag_266:\n        /* \"#utility.yul\":755:756   */\n      0x00\n        /* \"#utility.yul\":752:753   */\n      dup1\n        /* \"#utility.yul\":745:757   */\n      revert\n        /* \"#utility.yul\":769:895   */\n    tag_267:\n        /* \"#utility.yul\":806:813   */\n      0x00\n        /* \"#utility.yul\":846:888   */\n      0xffffffffffffffffffffffffffffffffffffffff\n        /* \"#utility.yul\":839:844   */\n      dup3\n        /* \"#utility.yul\":835:889   */\n      and\n        /* \"#utility.yul\":824:889   */\n      swap1\n      pop\n        /* \"#utility.yul\":769:895   */\n      swap2\n      swap1\n      pop\n      jump\t// out\n        /* \"#utility.yul\":901:997   */\n    tag_268:\n        /* \"#utility.yul\":938:945   */\n      0x00\n        /* \"#utility.yul\":967:991   */\n      tag_299\n        /* \"#utility.yul\":985:990   */\n      dup3\n        /* \"#utility.yul\":967:991   */\n      tag_267\n      jump\t// in\n    tag_299:\n        /* \"#utility.yul\":956:991   */\n      swap1\n      pop\n        /* \"#utility.yul\":901:997   */\n      swap2\n      swap1\n      pop\n      jump\t// out\n        /* \"#utility.yul\":1003:1125   */\n    tag_269:\n        /* \"#utility.yul\":1076:1100   */\n      tag_301\n        /* \"#utility.yul\":1094:1099   */\n      dup2\n        /* \"#utility.yul\":1076:1100   */\n      tag_268\n      jump\t// in\n    tag_301:\n        /* \"#utility.yul\":1069:1074   */\n      dup2\n        /* \"#utility.yul\":1066:1101   */\n      eq\n        /* \"#utility.yul\":1056:1119   */\n      tag_302\n      jumpi\n        /* \"#utility.yul\":1115:1116   */\n      0x00\n        /* \"#utility.yul\":1112:1113   */\n      dup1\n        /* \"#utility.yul\":1105:1117   */\n      revert\n        /* \"#utility.yul\":1056:1119   */\n    tag_302:\n        /* \"#utility.yul\":1003:1125   */\n      pop\n      jump\t// out\n        /* \"#utility.yul\":1131:1270   */\n    tag_270:\n        /* \"#utility.yul\":1177:1182   */\n      0x00\n        /* \"#utility.yul\":1215:1221   */\n      dup2\n        /* \"#utility.yul\":1202:1222   */\n      calldataload\n        /* \"#utility.yul\":1193:1222   */\n      swap1\n      pop\n        /* \"#utility.yul\":1231:1264   */\n      tag_304\n        /* \"#utility.yul\":1258:1263   */\n      dup2\n        /* \"#utility.yul\":1231:1264   */\n      tag_269\n      jump\t// in\n    tag_304:\n        /* \"#utility.yul\":1131:1270   */\n      swap3\n      swap2\n      pop\n      pop\n      jump\t// out\n        /* \"#utility.yul\":1276:1605   */\n    tag_14:\n        /* \"#utility.yul\":1335:1341   */\n      0x00\n        /* \"#utility.yul\":1384:1386   */\n      0x20\n        /* \"#utility.yul\":1372:1381   */\n      dup3\n        /* \"#utility.yul\":1363:1370   */\n      dup5\n        /* \"#utility.yul\":1359:1382   */\n      sub\n        /* \"#utility.yul\":1355:1387   */\n      slt\n        /* \"#utility.yul\":1352:1471   */\n      iszero\n      tag_306\n      jumpi\n        /* \"#utility.yul\":1390:1469   */\n      tag_307\n      tag_265\n      jump\t// in\n    tag_307:\n        /* \"#utility.yul\":1352:1471   */\n    tag_306:\n        /* \"#utility.yul\":1510:1511   */\n      0x00\n        /* \"#utility.yul\":1535:1588   */\n      tag_308\n        /* \"#utility.yul\":1580:1587   */\n      dup5\n        /* \"#utility.yul\":1571:1577   */\n      dup3\n        /* \"#utility.yul\":1560:1569   */\n      dup6\n        /* \"#utility.yul\":1556:1578   */\n      add\n        /* \"#utility.yul\":1535:1588   */\n      tag_270\n      jump\t// in\n    tag_308:\n        /* \"#utility.yul\":1525:1588   */\n      swap2\n      pop\n        /* \"#utility.yul\":1481:1598   */\n      pop\n        /* \"#utility.yul\":1276:1605   */\n      swap3\n      swap2\n      pop\n      pop\n      jump\t// out\n        /* \"#utility.yul\":1611:1697   */\n    tag_271:\n        /* \"#utility.yul\":1646:1653   */\n      0x00\n        /* \"#utility.yul\":1686:1690   */\n      0xff\n        /* \"#utility.yul\":1679:1684   */\n      dup3\n        /* \"#utility.yul\":1675:1691   */\n      and\n        /* \"#utility.yul\":1664:1691   */\n      swap1\n      pop\n        /* \"#utility.yul\":1611:1697   */\n      swap2\n      swap1\n      pop\n      jump\t// out\n        /* \"#utility.yul\":1703:1815   */\n    tag_272:\n        /* \"#utility.yul\":1786:1808   */\n      tag_311\n        /* \"#utility.yul\":1802:1807   */\n      dup2\n        /* \"#utility.yul\":1786:1808   */\n      tag_271\n      jump\t// in\n    tag_311:\n        /* \"#utility.yul\":1781:1784   */\n      dup3\n        /* \"#utility.yul\":1774:1809   */\n      mstore\n        /* \"#utility.yul\":1703:1815   */\n      pop\n      pop\n      jump\t// out\n        /* \"#utility.yul\":1821:2035   */\n    tag_17:\n        /* \"#utility.yul\":1910:1914   */\n      0x00\n        /* \"#utility.yul\":1948:1950   */\n      0x20\n        /* \"#utility.yul\":1937:1946   */\n      dup3\n        /* \"#utility.yul\":1933:1951   */\n      add\n        /* \"#utility.yul\":1925:1951   */\n      swap1\n      pop\n        /* \"#utility.yul\":1961:2028   */\n      tag_313\n        /* \"#utility.yul\":2025:2026   */\n      0x00\n        /* \"#utility.yul\":2014:2023   */\n      dup4\n        /* \"#utility.yul\":2010:2027   */\n      add\n        /* \"#utility.yul\":2001:2007   */\n      dup5\n        /* \"#utility.yul\":1961:2028   */\n      tag_272\n      jump\t// in\n    tag_313:\n        /* \"#utility.yul\":1821:2035   */\n      swap3\n      swap2\n      pop\n      pop\n      jump\t// out\n        /* \"#utility.yul\":2041:2158   */\n    tag_273:\n        /* \"#utility.yul\":2150:2151   */\n      0x00\n        /* \"#utility.yul\":2147:2148   */\n      dup1\n        /* \"#utility.yul\":2140:2152   */\n      revert\n        /* \"#utility.yul\":2164:2266   */\n    tag_274:\n        /* \"#utility.yul\":2205:2211   */\n      0x00\n        /* \"#utility.yul\":2256:2258   */\n      0x1f\n        /* \"#utility.yul\":2252:2259   */\n      not\n        /* \"#utility.yul\":2247:2249   */\n      0x1f\n        /* \"#utility.yul\":2240:2245   */\n      dup4\n        /* \"#utility.yul\":2236:2250   */\n      add\n        /* \"#utility.yul\":2232:2260   */\n      and\n        /* \"#utility.yul\":2222:2260   */\n      swap1\n      pop\n        /* \"#utility.yul\":2164:2266   */\n      swap2\n      swap1\n      pop\n      jump\t// out\n        /* \"#utility.yul\":2272:2452   */\n    tag_50:\n        /* \"#utility.yul\":2320:2397   */\n      0x4e487b7100000000000000000000000000000000000000000000000000000000\n        /* \"#utility.yul\":2317:2318   */\n      0x00\n        /* \"#utility.yul\":2310:2398   */\n      mstore\n        /* \"#utility.yul\":2417:2421   */\n      0x41\n        /* \"#utility.yul\":2414:2415   */\n      0x04\n        /* \"#utility.yul\":2407:2422   */\n      mstore\n        /* \"#utility.yul\":2441:2445   */\n      0x24\n        /* \"#utility.yul\":2438:2439   */\n      0x00\n        /* \"#utility.yul\":2431:2446   */\n      revert\n        /* \"#utility.yul\":2458:2739   */\n    tag_275:\n        /* \"#utility.yul\":2541:2568   */\n      tag_318\n        /* \"#utility.yul\":2563:2567   */\n      dup3\n        /* \"#utility.yul\":2541:2568   */\n      tag_274\n      jump\t// in\n    tag_318:\n        /* \"#utility.yul\":2533:2539   */\n      dup2\n        /* \"#utility.yul\":2529:2569   */\n      add\n        /* \"#utility.yul\":2671:2677   */\n      dup2\n        /* \"#utility.yul\":2659:2669   */\n      dup2\n        /* \"#utility.yul\":2656:2678   */\n      lt\n        /* \"#utility.yul\":2635:2653   */\n      0xffffffffffffffff\n        /* \"#utility.yul\":2623:2633   */\n      dup3\n        /* \"#utility.yul\":2620:2654   */\n      gt\n        /* \"#utility.yul\":2617:2679   */\n      or\n        /* \"#utility.yul\":2614:2702   */\n      iszero\n      tag_319\n      jumpi\n        /* \"#utility.yul\":2682:2700   */\n      tag_320\n      tag_50\n      jump\t// in\n    tag_320:\n        /* \"#utility.yul\":2614:2702   */\n    tag_319:\n        /* \"#utility.yul\":2722:2732   */\n      dup1\n        /* \"#utility.yul\":2718:2720   */\n      0x40\n        /* \"#utility.yul\":2711:2733   */\n      mstore\n        /* \"#utility.yul\":2501:2739   */\n      pop\n        /* \"#utility.yul\":2458:2739   */\n      pop\n      pop\n      jump\t// out\n        /* \"#utility.yul\":2745:2874   */\n    tag_276:\n        /* \"#utility.yul\":2779:2785   */\n      0x00\n        /* \"#utility.yul\":2806:2826   */\n      tag_322\n      tag_264\n      jump\t// in\n    tag_322:\n        /* \"#utility.yul\":2796:2826   */\n      swap1\n      pop\n        /* \"#utility.yul\":2835:2868   */\n      tag_323\n        /* \"#utility.yul\":2863:2867   */\n      dup3\n        /* \"#utility.yul\":2855:2861   */\n      dup3\n        /* \"#utility.yul\":2835:2868   */\n      tag_275\n      jump\t// in\n    tag_323:\n        /* \"#utility.yul\":2745:2874   */\n      swap2\n      swap1\n      pop\n      jump\t// out\n        /* \"#utility.yul\":2880:3191   */\n    tag_277:\n        /* \"#utility.yul\":2957:2961   */\n      0x00\n        /* \"#utility.yul\":3047:3065   */\n      0xffffffffffffffff\n        /* \"#utility.yul\":3039:3045   */\n      dup3\n        /* \"#utility.yul\":3036:3066   */\n      gt\n        /* \"#utility.yul\":3033:3089   */\n      iszero\n      tag_325\n      jumpi\n        /* \"#utility.yul\":3069:3087   */\n      tag_326\n      tag_50\n      jump\t// in\n    tag_326:\n        /* \"#utility.yul\":3033:3089   */\n    tag_325:\n        /* \"#utility.yul\":3119:3123   */\n      0x20\n        /* \"#utility.yul\":3111:3117   */\n      dup3\n        /* \"#utility.yul\":3107:3124   */\n      mul\n        /* \"#utility.yul\":3099:3124   */\n      swap1\n      pop\n        /* \"#utility.yul\":3179:3183   */\n      0x20\n        /* \"#utility.yul\":3173:3177   */\n      dup2\n        /* \"#utility.yul\":3169:3184   */\n      add\n        /* \"#utility.yul\":3161:3184   */\n      swap1\n      pop\n        /* \"#utility.yul\":2880:3191   */\n      swap2\n      swap1\n      pop\n      jump\t// out\n        /* \"#utility.yul\":3197:3314   */\n    tag_278:\n        /* \"#utility.yul\":3306:3307   */\n      0x00\n        /* \"#utility.yul\":3303:3304   */\n      dup1\n        /* \"#utility.yul\":3296:3308   */\n      revert\n        /* \"#utility.yul\":3320:3442   */\n    tag_279:\n        /* \"#utility.yul\":3393:3417   */\n      tag_329\n        /* \"#utility.yul\":3411:3416   */\n      dup2\n        /* \"#utility.yul\":3393:3417   */\n      tag_262\n      jump\t// in\n    tag_329:\n        /* \"#utility.yul\":3386:3391   */\n      dup2\n        /* \"#utility.yul\":3383:3418   */\n      eq\n        /* \"#utility.yul\":3373:3436   */\n      tag_330\n      jumpi\n        /* \"#utility.yul\":3432:3433   */\n      0x00\n        /* \"#utility.yul\":3429:3430   */\n      dup1\n        /* \"#utility.yul\":3422:3434   */\n      revert\n        /* \"#utility.yul\":3373:3436   */\n    tag_330:\n        /* \"#utility.yul\":3320:3442   */\n      pop\n      jump\t// out\n        /* \"#utility.yul\":3448:3587   */\n    tag_280:\n        /* \"#utility.yul\":3494:3499   */\n      0x00\n        /* \"#utility.yul\":3532:3538   */\n      dup2\n        /* \"#utility.yul\":3519:3539   */\n      calldataload\n        /* \"#utility.yul\":3510:3539   */\n      swap1\n      pop\n        /* \"#utility.yul\":3548:3581   */\n      tag_332\n        /* \"#utility.yul\":3575:3580   */\n      dup2\n        /* \"#utility.yul\":3548:3581   */\n      tag_279\n      jump\t// in\n    tag_332:\n        /* \"#utility.yul\":3448:3587   */\n      swap3\n      swap2\n      pop\n      pop\n      jump\t// out\n        /* \"#utility.yul\":3610:4320   */\n    tag_281:\n        /* \"#utility.yul\":3706:3711   */\n      0x00\n        /* \"#utility.yul\":3731:3812   */\n      tag_334\n        /* \"#utility.yul\":3747:3811   */\n      tag_335\n        /* \"#utility.yul\":3804:3810   */\n      dup5\n        /* \"#utility.yul\":3747:3811   */\n      tag_277\n      jump\t// in\n    tag_335:\n        /* \"#utility.yul\":3731:3812   */\n      tag_276\n      jump\t// in\n    tag_334:\n        /* \"#utility.yul\":3722:3812   */\n      swap1\n      pop\n        /* \"#utility.yul\":3832:3837   */\n      dup1\n        /* \"#utility.yul\":3861:3867   */\n      dup4\n        /* \"#utility.yul\":3854:3859   */\n      dup3\n        /* \"#utility.yul\":3847:3868   */\n      mstore\n        /* \"#utility.yul\":3895:3899   */\n      0x20\n        /* \"#utility.yul\":3888:3893   */\n      dup3\n        /* \"#utility.yul\":3884:3900   */\n      add\n        /* \"#utility.yul\":3877:3900   */\n      swap1\n      pop\n        /* \"#utility.yul\":3948:3952   */\n      0x20\n        /* \"#utility.yul\":3940:3946   */\n      dup5\n        /* \"#utility.yul\":3936:3953   */\n      mul\n        /* \"#utility.yul\":3928:3934   */\n      dup4\n        /* \"#utility.yul\":3924:3954   */\n      add\n        /* \"#utility.yul\":3977:3980   */\n      dup6\n        /* \"#utility.yul\":3969:3975   */\n      dup2\n        /* \"#utility.yul\":3966:3981   */\n      gt\n        /* \"#utility.yul\":3963:4085   */\n      iszero\n      tag_336\n      jumpi\n        /* \"#utility.yul\":3996:4075   */\n      tag_337\n      tag_278\n      jump\t// in\n    tag_337:\n        /* \"#utility.yul\":3963:4085   */\n    tag_336:\n        /* \"#utility.yul\":4111:4117   */\n      dup4\n        /* \"#utility.yul\":4094:4314   */\n    tag_338:\n        /* \"#utility.yul\":4128:4134   */\n      dup2\n        /* \"#utility.yul\":4123:4126   */\n      dup2\n        /* \"#utility.yul\":4120:4135   */\n      lt\n        /* \"#utility.yul\":4094:4314   */\n      iszero\n      tag_340\n      jumpi\n        /* \"#utility.yul\":4203:4206   */\n      dup1\n        /* \"#utility.yul\":4232:4269   */\n      tag_341\n        /* \"#utility.yul\":4265:4268   */\n      dup9\n        /* \"#utility.yul\":4253:4263   */\n      dup3\n        /* \"#utility.yul\":4232:4269   */\n      tag_280\n      jump\t// in\n    tag_341:\n        /* \"#utility.yul\":4227:4230   */\n      dup5\n        /* \"#utility.yul\":4220:4270   */\n      mstore\n        /* \"#utility.yul\":4299:4303   */\n      0x20\n        /* \"#utility.yul\":4294:4297   */\n      dup5\n        /* \"#utility.yul\":4290:4304   */\n      add\n        /* \"#utility.yul\":4283:4304   */\n      swap4\n      pop\n        /* \"#utility.yul\":4170:4314   */\n      pop\n        /* \"#utility.yul\":4154:4158   */\n      0x20\n        /* \"#utility.yul\":4149:4152   */\n      dup2\n        /* \"#utility.yul\":4145:4159   */\n      add\n        /* \"#utility.yul\":4138:4159   */\n      swap1\n      pop\n        /* \"#utility.yul\":4094:4314   */\n      jump(tag_338)\n    tag_340:\n        /* \"#utility.yul\":4098:4119   */\n      pop\n        /* \"#utility.yul\":3712:4320   */\n      pop\n      pop\n        /* \"#utility.yul\":3610:4320   */\n      swap4\n      swap3\n      pop\n      pop\n      pop\n      jump\t// out\n        /* \"#utility.yul\":4343:4713   */\n    tag_282:\n        /* \"#utility.yul\":4414:4419   */\n      0x00\n        /* \"#utility.yul\":4463:4466   */\n      dup3\n        /* \"#utility.yul\":4456:4460   */\n      0x1f\n        /* \"#utility.yul\":4448:4454   */\n      dup4\n        /* \"#utility.yul\":4444:4461   */\n      add\n        /* \"#utility.yul\":4440:4467   */\n      slt\n        /* \"#utility.yul\":4430:4552   */\n      tag_343\n      jumpi\n        /* \"#utility.yul\":4471:4550   */\n      tag_344\n      tag_273\n      jump\t// in\n    tag_344:\n        /* \"#utility.yul\":4430:4552   */\n    tag_343:\n        /* \"#utility.yul\":4588:4594   */\n      dup2\n        /* \"#utility.yul\":4575:4595   */\n      calldataload\n        /* \"#utility.yul\":4613:4707   */\n      tag_345\n        /* \"#utility.yul\":4703:4706   */\n      dup5\n        /* \"#utility.yul\":4695:4701   */\n      dup3\n        /* \"#utility.yul\":4688:4692   */\n      0x20\n        /* \"#utility.yul\":4680:4686   */\n      dup7\n        /* \"#utility.yul\":4676:4693   */\n      add\n        /* \"#utility.yul\":4613:4707   */\n      tag_281\n      jump\t// in\n    tag_345:\n        /* \"#utility.yul\":4604:4707   */\n      swap2\n      pop\n        /* \"#utility.yul\":4420:4713   */\n      pop\n        /* \"#utility.yul\":4343:4713   */\n      swap3\n      swap2\n      pop\n      pop\n      jump\t// out\n        /* \"#utility.yul\":4719:5258   */\n    tag_20:\n        /* \"#utility.yul\":4803:4809   */\n      0x00\n        /* \"#utility.yul\":4852:4854   */\n      0x20\n        /* \"#utility.yul\":4840:4849   */\n      dup3\n        /* \"#utility.yul\":4831:4838   */\n      dup5\n        /* \"#utility.yul\":4827:4850   */\n      sub\n        /* \"#utility.yul\":4823:4855   */\n      slt\n        /* \"#utility.yul\":4820:4939   */\n      iszero\n      tag_347\n      jumpi\n        /* \"#utility.yul\":4858:4937   */\n      tag_348\n      tag_265\n      jump\t// in\n    tag_348:\n        /* \"#utility.yul\":4820:4939   */\n    tag_347:\n        /* \"#utility.yul\":5006:5007   */\n      0x00\n        /* \"#utility.yul\":4995:5004   */\n      dup3\n        /* \"#utility.yul\":4991:5008   */\n      add\n        /* \"#utility.yul\":4978:5009   */\n      calldataload\n        /* \"#utility.yul\":5036:5054   */\n      0xffffffffffffffff\n        /* \"#utility.yul\":5028:5034   */\n      dup2\n        /* \"#utility.yul\":5025:5055   */\n      gt\n        /* \"#utility.yul\":5022:5139   */\n      iszero\n      tag_349\n      jumpi\n        /* \"#utility.yul\":5058:5137   */\n      tag_350\n      tag_266\n      jump\t// in\n    tag_350:\n        /* \"#utility.yul\":5022:5139   */\n    tag_349:\n        /* \"#utility.yul\":5163:5241   */\n      tag_351\n        /* \"#utility.yul\":5233:5240   */\n      dup5\n        /* \"#utility.yul\":5224:5230   */\n      dup3\n        /* \"#utility.yul\":5213:5222   */\n      dup6\n        /* \"#utility.yul\":5209:5231   */\n      add\n        /* \"#utility.yul\":5163:5241   */\n      tag_282\n      jump\t// in\n    tag_351:\n        /* \"#utility.yul\":5153:5241   */\n      swap2\n      pop\n        /* \"#utility.yul\":4949:5251   */\n      pop\n        /* \"#utility.yul\":4719:5258   */\n      swap3\n      swap2\n      pop\n      pop\n      jump\t// out\n        /* \"#utility.yul\":5264:5593   */\n    tag_25:\n        /* \"#utility.yul\":5323:5329   */\n      0x00\n        /* \"#utility.yul\":5372:5374   */\n      0x20\n        /* \"#utility.yul\":5360:5369   */\n      dup3\n        /* \"#utility.yul\":5351:5358   */\n      dup5\n        /* \"#utility.yul\":5347:5370   */\n      sub\n        /* \"#utility.yul\":5343:5375   */\n      slt\n        /* \"#utility.yul\":5340:5459   */\n      iszero\n      tag_353\n      jumpi\n        /* \"#utility.yul\":5378:5457   */\n      tag_354\n      tag_265\n      jump\t// in\n    tag_354:\n        /* \"#utility.yul\":5340:5459   */\n    tag_353:\n        /* \"#utility.yul\":5498:5499   */\n      0x00\n        /* \"#utility.yul\":5523:5576   */\n      tag_355\n        /* \"#utility.yul\":5568:5575   */\n      dup5\n        /* \"#utility.yul\":5559:5565   */\n      dup3\n        /* \"#utility.yul\":5548:5557   */\n      dup6\n        /* \"#utility.yul\":5544:5566   */\n      add\n        /* \"#utility.yul\":5523:5576   */\n      tag_280\n      jump\t// in\n    tag_355:\n        /* \"#utility.yul\":5513:5576   */\n      swap2\n      pop\n        /* \"#utility.yul\":5469:5586   */\n      pop\n        /* \"#utility.yul\":5264:5593   */\n      swap3\n      swap2\n      pop\n      pop\n      jump\t// out\n        /* \"#utility.yul\":5599:5717   */\n    tag_283:\n        /* \"#utility.yul\":5686:5710   */\n      tag_357\n        /* \"#utility.yul\":5704:5709   */\n      dup2\n        /* \"#utility.yul\":5686:5710   */\n      tag_268\n      jump\t// in\n    tag_357:\n        /* \"#utility.yul\":5681:5684   */\n      dup3\n        /* \"#utility.yul\":5674:5711   */\n      mstore\n        /* \"#utility.yul\":5599:5717   */\n      pop\n      pop\n      jump\t// out\n        /* \"#utility.yul\":5723:5945   */\n    tag_39:\n        /* \"#utility.yul\":5816:5820   */\n      0x00\n        /* \"#utility.yul\":5854:5856   */\n      0x20\n        /* \"#utility.yul\":5843:5852   */\n      dup3\n        /* \"#utility.yul\":5839:5857   */\n      add\n        /* \"#utility.yul\":5831:5857   */\n      swap1\n      pop\n        /* \"#utility.yul\":5867:5938   */\n      tag_359\n        /* \"#utility.yul\":5935:5936   */\n      0x00\n        /* \"#utility.yul\":5924:5933   */\n      dup4\n        /* \"#utility.yul\":5920:5937   */\n      add\n        /* \"#utility.yul\":5911:5917   */\n      dup5\n        /* \"#utility.yul\":5867:5938   */\n      tag_283\n      jump\t// in\n    tag_359:\n        /* \"#utility.yul\":5723:5945   */\n      swap3\n      swap2\n      pop\n      pop\n      jump\t// out\n        /* \"#utility.yul\":5951:6131   */\n    tag_54:\n        /* \"#utility.yul\":5999:6076   */\n      0x4e487b7100000000000000000000000000000000000000000000000000000000\n        /* \"#utility.yul\":5996:5997   */\n      0x00\n        /* \"#utility.yul\":5989:6077   */\n      mstore\n        /* \"#utility.yul\":6096:6100   */\n      0x32\n        /* \"#utility.yul\":6093:6094   */\n      0x04\n        /* \"#utility.yul\":6086:6101   */\n      mstore\n        /* \"#utility.yul\":6120:6124   */\n      0x24\n        /* \"#utility.yul\":6117:6118   */\n      0x00\n        /* \"#utility.yul\":6110:6125   */\n      revert\n        /* \"#utility.yul\":6137:6317   */\n    tag_284:\n        /* \"#utility.yul\":6185:6262   */\n      0x4e487b7100000000000000000000000000000000000000000000000000000000\n        /* \"#utility.yul\":6182:6183   */\n      0x00\n        /* \"#utility.yul\":6175:6263   */\n      mstore\n        /* \"#utility.yul\":6282:6286   */\n      0x12\n        /* \"#utility.yul\":6279:6280   */\n      0x04\n        /* \"#utility.yul\":6272:6287   */\n      mstore\n        /* \"#utility.yul\":6306:6310   */\n      0x24\n        /* \"#utility.yul\":6303:6304   */\n      0x00\n        /* \"#utility.yul\":6296:6311   */\n      revert\n        /* \"#utility.yul\":6323:6503   */\n    tag_285:\n        /* \"#utility.yul\":6371:6448   */\n      0x4e487b7100000000000000000000000000000000000000000000000000000000\n        /* \"#utility.yul\":6368:6369   */\n      0x00\n        /* \"#utility.yul\":6361:6449   */\n      mstore\n        /* \"#utility.yul\":6468:6472   */\n      0x11\n        /* \"#utility.yul\":6465:6466   */\n      0x04\n        /* \"#utility.yul\":6458:6473   */\n      mstore\n        /* \"#utility.yul\":6492:6496   */\n      0x24\n        /* \"#utility.yul\":6489:6490   */\n      0x00\n        /* \"#utility.yul\":6482:6497   */\n      revert\n        /* \"#utility.yul\":6509:6694   */\n    tag_64:\n        /* \"#utility.yul\":6549:6550   */\n      0x00\n        /* \"#utility.yul\":6566:6586   */\n      tag_364\n        /* \"#utility.yul\":6584:6585   */\n      dup3\n        /* \"#utility.yul\":6566:6586   */\n      tag_262\n      jump\t// in\n    tag_364:\n        /* \"#utility.yul\":6561:6586   */\n      swap2\n      pop\n        /* \"#utility.yul\":6600:6620   */\n      tag_365\n        /* \"#utility.yul\":6618:6619   */\n      dup4\n        /* \"#utility.yul\":6600:6620   */\n      tag_262\n      jump\t// in\n    tag_365:\n        /* \"#utility.yul\":6595:6620   */\n      swap3\n      pop\n        /* \"#utility.yul\":6639:6640   */\n      dup3\n        /* \"#utility.yul\":6629:6664   */\n      tag_366\n      jumpi\n        /* \"#utility.yul\":6644:6662   */\n      tag_367\n      tag_284\n      jump\t// in\n    tag_367:\n        /* \"#utility.yul\":6629:6664   */\n    tag_366:\n        /* \"#utility.yul\":6686:6687   */\n      dup3\n        /* \"#utility.yul\":6683:6684   */\n      dup3\n        /* \"#utility.yul\":6679:6688   */\n      div\n        /* \"#utility.yul\":6674:6688   */\n      swap1\n      pop\n        /* \"#utility.yul\":6509:6694   */\n      swap3\n      swap2\n      pop\n      pop\n      jump\t// out\n        /* \"#utility.yul\":6700:6891   */\n    tag_67:\n        /* \"#utility.yul\":6740:6744   */\n      0x00\n        /* \"#utility.yul\":6760:6780   */\n      tag_369\n        /* \"#utility.yul\":6778:6779   */\n      dup3\n        /* \"#utility.yul\":6760:6780   */\n      tag_262\n      jump\t// in\n    tag_369:\n        /* \"#utility.yul\":6755:6780   */\n      swap2\n      pop\n        /* \"#utility.yul\":6794:6814   */\n      tag_370\n        /* \"#utility.yul\":6812:6813   */\n      dup4\n        /* \"#utility.yul\":6794:6814   */\n      tag_262\n      jump\t// in\n    tag_370:\n        /* \"#utility.yul\":6789:6814   */\n      swap3\n      pop\n        /* \"#utility.yul\":6833:6834   */\n      dup3\n        /* \"#utility.yul\":6830:6831   */\n      dup3\n        /* \"#utility.yul\":6827:6835   */\n      lt\n        /* \"#utility.yul\":6824:6858   */\n      iszero\n      tag_371\n      jumpi\n        /* \"#utility.yul\":6838:6856   */\n      tag_372\n      tag_285\n      jump\t// in\n    tag_372:\n        /* \"#utility.yul\":6824:6858   */\n    tag_371:\n        /* \"#utility.yul\":6883:6884   */\n      dup3\n        /* \"#utility.yul\":6880:6881   */\n      dup3\n        /* \"#utility.yul\":6876:6885   */\n      sub\n        /* \"#utility.yul\":6868:6885   */\n      swap1\n      pop\n        /* \"#utility.yul\":6700:6891   */\n      swap3\n      swap2\n      pop\n      pop\n      jump\t// out\n        /* \"#utility.yul\":6897:7229   */\n    tag_70:\n        /* \"#utility.yul\":7018:7022   */\n      0x00\n        /* \"#utility.yul\":7056:7058   */\n      0x40\n        /* \"#utility.yul\":7045:7054   */\n      dup3\n        /* \"#utility.yul\":7041:7059   */\n      add\n        /* \"#utility.yul\":7033:7059   */\n      swap1\n      pop\n        /* \"#utility.yul\":7069:7140   */\n      tag_374\n        /* \"#utility.yul\":7137:7138   */\n      0x00\n        /* \"#utility.yul\":7126:7135   */\n      dup4\n        /* \"#utility.yul\":7122:7139   */\n      add\n        /* \"#utility.yul\":7113:7119   */\n      dup6\n        /* \"#utility.yul\":7069:7140   */\n      tag_263\n      jump\t// in\n    tag_374:\n        /* \"#utility.yul\":7150:7222   */\n      tag_375\n        /* \"#utility.yul\":7218:7220   */\n      0x20\n        /* \"#utility.yul\":7207:7216   */\n      dup4\n        /* \"#utility.yul\":7203:7221   */\n      add\n        /* \"#utility.yul\":7194:7200   */\n      dup5\n        /* \"#utility.yul\":7150:7222   */\n      tag_263\n      jump\t// in\n    tag_375:\n        /* \"#utility.yul\":6897:7229   */\n      swap4\n      swap3\n      pop\n      pop\n      pop\n      jump\t// out\n        /* \"#utility.yul\":7235:7411   */\n    tag_84:\n        /* \"#utility.yul\":7267:7268   */\n      0x00\n        /* \"#utility.yul\":7284:7304   */\n      tag_377\n        /* \"#utility.yul\":7302:7303   */\n      dup3\n        /* \"#utility.yul\":7284:7304   */\n      tag_262\n      jump\t// in\n    tag_377:\n        /* \"#utility.yul\":7279:7304   */\n      swap2\n      pop\n        /* \"#utility.yul\":7318:7338   */\n      tag_378\n        /* \"#utility.yul\":7336:7337   */\n      dup4\n        /* \"#utility.yul\":7318:7338   */\n      tag_262\n      jump\t// in\n    tag_378:\n        /* \"#utility.yul\":7313:7338   */\n      swap3\n      pop\n        /* \"#utility.yul\":7357:7358   */\n      dup3\n        /* \"#utility.yul\":7347:7382   */\n      tag_379\n      jumpi\n        /* \"#utility.yul\":7362:7380   */\n      tag_380\n      tag_284\n      jump\t// in\n    tag_380:\n        /* \"#utility.yul\":7347:7382   */\n    tag_379:\n        /* \"#utility.yul\":7403:7404   */\n      dup3\n        /* \"#utility.yul\":7400:7401   */\n      dup3\n        /* \"#utility.yul\":7396:7405   */\n      mod\n        /* \"#utility.yul\":7391:7405   */\n      swap1\n      pop\n        /* \"#utility.yul\":7235:7411   */\n      swap3\n      swap2\n      pop\n      pop\n      jump\t// out\n        /* \"#utility.yul\":7417:7650   */\n    tag_118:\n        /* \"#utility.yul\":7456:7459   */\n      0x00\n        /* \"#utility.yul\":7479:7503   */\n      tag_382\n        /* \"#utility.yul\":7497:7502   */\n      dup3\n        /* \"#utility.yul\":7479:7503   */\n      tag_262\n      jump\t// in\n    tag_382:\n        /* \"#utility.yul\":7470:7503   */\n      swap2\n      pop\n        /* \"#utility.yul\":7525:7591   */\n      0xffffffffffffffffffffffffffffffffffffffffffffffffffffffffffffffff\n        /* \"#utility.yul\":7518:7523   */\n      dup3\n        /* \"#utility.yul\":7515:7592   */\n      sub\n        /* \"#utility.yul\":7512:7615   */\n      tag_383\n      jumpi\n        /* \"#utility.yul\":7595:7613   */\n      tag_384\n      tag_285\n      jump\t// in\n    tag_384:\n        /* \"#utility.yul\":7512:7615   */\n    tag_383:\n        /* \"#utility.yul\":7642:7643   */\n      0x01\n        /* \"#utility.yul\":7635:7640   */\n      dup3\n        /* \"#utility.yul\":7631:7644   */\n      add\n        /* \"#utility.yul\":7624:7644   */\n      swap1\n      pop\n        /* \"#utility.yul\":7417:7650   */\n      swap2\n      swap1\n      pop\n      jump\t// out\n        /* \"#utility.yul\":7656:7961   */\n    tag_124:\n        /* \"#utility.yul\":7696:7699   */\n      0x00\n        /* \"#utility.yul\":7715:7735   */\n      tag_386\n        /* \"#utility.yul\":7733:7734   */\n      dup3\n        /* \"#utility.yul\":7715:7735   */\n      tag_262\n      jump\t// in\n    tag_386:\n        /* \"#utility.yul\":7710:7735   */\n      swap2\n      pop\n        /* \"#utility.yul\":7749:7769   */\n      tag_387\n        /* \"#utility.yul\":7767:7768   */\n      dup4\n        /* \"#utility.yul\":7749:7769   */\n      tag_262\n      jump\t// in\n    tag_387:\n        /* \"#utility.yul\":7744:7769   */\n      swap3\n      pop\n        /* \"#utility.yul\":7903:7904   */\n      dup3\n        /* \"#utility.yul\":7835:7901   */\n      0xffffffffffffffffffffffffffffffffffffffffffffffffffffffffffffffff\n        /* \"#utility.yul\":7831:7905   */\n      sub\n        /* \"#utility.yul\":7828:7829   */\n      dup3\n        /* \"#utility.yul\":7825:7906   */\n      gt\n        /* \"#utility.yul\":7822:7929   */\n      iszero\n      tag_388\n      jumpi\n        /* \"#utility.yul\":7909:7927   */\n      tag_389\n      tag_285\n      jump\t// in\n    tag_389:\n        /* \"#utility.yul\":7822:7929   */\n    tag_388:\n        /* \"#utility.yul\":7953:7954   */\n      dup3\n        /* \"#utility.yul\":7950:7951   */\n      dup3\n        /* \"#utility.yul\":7946:7955   */\n      add\n        /* \"#utility.yul\":7939:7955   */\n      swap1\n      pop\n        /* \"#utility.yul\":7656:7961   */\n      swap3\n      swap2\n      pop\n      pop\n      jump\t// out\n        /* \"#utility.yul\":7967:8315   */\n    tag_217:\n        /* \"#utility.yul\":8007:8014   */\n      0x00\n        /* \"#utility.yul\":8030:8050   */\n      tag_391\n        /* \"#utility.yul\":8048:8049   */\n      dup3\n        /* \"#utility.yul\":8030:8050   */\n      tag_262\n      jump\t// in\n    tag_391:\n        /* \"#utility.yul\":8025:8050   */\n      swap2\n      pop\n        /* \"#utility.yul\":8064:8084   */\n      tag_392\n        /* \"#utility.yul\":8082:8083   */\n      dup4\n        /* \"#utility.yul\":8064:8084   */\n      tag_262\n      jump\t// in\n    tag_392:\n        /* \"#utility.yul\":8059:8084   */\n      swap3\n      pop\n        /* \"#utility.yul\":8252:8253   */\n      dup2\n        /* \"#utility.yul\":8184:8250   */\n      0xffffffffffffffffffffffffffffffffffffffffffffffffffffffffffffffff\n        /* \"#utility.yul\":8180:8254   */\n      div\n        /* \"#utility.yul\":8177:8178   */\n      dup4\n        /* \"#utility.yul\":8174:8255   */\n      gt\n        /* \"#utility.yul\":8169:8170   */\n      dup3\n        /* \"#utility.yul\":8162:8171   */\n      iszero\n        /* \"#utility.yul\":8155:8172   */\n      iszero\n        /* \"#utility.yul\":8151:8256   */\n      and\n        /* \"#utility.yul\":8148:8279   */\n      iszero\n      tag_393\n      jumpi\n        /* \"#utility.yul\":8259:8277   */\n      tag_394\n      tag_285\n      jump\t// in\n    tag_394:\n        /* \"#utility.yul\":8148:8279   */\n    tag_393:\n        /* \"#utility.yul\":8307:8308   */\n      dup3\n        /* \"#utility.yul\":8304:8305   */\n      dup3\n        /* \"#utility.yul\":8300:8309   */\n      mul\n        /* \"#utility.yul\":8289:8309   */\n      swap1\n      pop\n        /* \"#utility.yul\":7967:8315   */\n      swap3\n      swap2\n      pop\n      pop\n      jump\t// out\n        /* \"#utility.yul\":8321:8398   */\n    tag_286:\n        /* \"#utility.yul\":8358:8365   */\n      0x00\n        /* \"#utility.yul\":8387:8392   */\n      dup2\n        /* \"#utility.yul\":8376:8392   */\n      swap1\n      pop\n        /* \"#utility.yul\":8321:8398   */\n      swap2\n      swap1\n      pop\n      jump\t// out\n        /* \"#utility.yul\":8404:8522   */\n    tag_287:\n        /* \"#utility.yul\":8491:8515   */\n      tag_397\n        /* \"#utility.yul\":8509:8514   */\n      dup2\n        /* \"#utility.yul\":8491:8515   */\n      tag_286\n      jump\t// in\n    tag_397:\n        /* \"#utility.yul\":8486:8489   */\n      dup3\n        /* \"#utility.yul\":8479:8516   */\n      mstore\n        /* \"#utility.yul\":8404:8522   */\n      pop\n      pop\n      jump\t// out\n        /* \"#utility.yul\":8528:9073   */\n    tag_250:\n        /* \"#utility.yul\":8701:8705   */\n      0x00\n        /* \"#utility.yul\":8739:8742   */\n      0x80\n        /* \"#utility.yul\":8728:8737   */\n      dup3\n        /* \"#utility.yul\":8724:8743   */\n      add\n        /* \"#utility.yul\":8716:8743   */\n      swap1\n      pop\n        /* \"#utility.yul\":8753:8824   */\n      tag_399\n        /* \"#utility.yul\":8821:8822   */\n      0x00\n        /* \"#utility.yul\":8810:8819   */\n      dup4\n        /* \"#utility.yul\":8806:8823   */\n      add\n        /* \"#utility.yul\":8797:8803   */\n      dup8\n        /* \"#utility.yul\":8753:8824   */\n      tag_287\n      jump\t// in\n    tag_399:\n        /* \"#utility.yul\":8834:8902   */\n      tag_400\n        /* \"#utility.yul\":8898:8900   */\n      0x20\n        /* \"#utility.yul\":8887:8896   */\n      dup4\n        /* \"#utility.yul\":8883:8901   */\n      add\n        /* \"#utility.yul\":8874:8880   */\n      dup7\n        /* \"#utility.yul\":8834:8902   */\n      tag_272\n      jump\t// in\n    tag_400:\n        /* \"#utility.yul\":8912:8984   */\n      tag_401\n        /* \"#utility.yul\":8980:8982   */\n      0x40\n        /* \"#utility.yul\":8969:8978   */\n      dup4\n        /* \"#utility.yul\":8965:8983   */\n      add\n        /* \"#utility.yul\":8956:8962   */\n      dup6\n        /* \"#utility.yul\":8912:8984   */\n      tag_287\n      jump\t// in\n    tag_401:\n        /* \"#utility.yul\":8994:9066   */\n      tag_402\n        /* \"#utility.yul\":9062:9064   */\n      0x60\n        /* \"#utility.yul\":9051:9060   */\n      dup4\n        /* \"#utility.yul\":9047:9065   */\n      add\n        /* \"#utility.yul\":9038:9044   */\n      dup5\n        /* \"#utility.yul\":8994:9066   */\n      tag_287\n      jump\t// in\n    tag_402:\n        /* \"#utility.yul\":8528:9073   */\n      swap6\n      swap5\n      pop\n      pop\n      pop\n      pop\n      pop\n      jump\t// out\n\n    auxdata: 0xa2646970667358221220df2dff693ded157b853cd405e441b990c751e7510ebc72cde8d5c3da7c40333164736f6c634300080d0033\n}\n",
				"bytecode": {
					"linkReferences": {},
					"object": "608060405234801561001057600080fd5b506114d4806100206000396000f3fe608060405234801561001057600080fd5b50600436106100575760003560e01c8063209652551461005c5780633ce142f51461007a578063b24ebfcc146100aa578063f50b2efe146100da578063f90c4924146100f6575b600080fd5b610064610114565b6040516100719190610ee6565b60405180910390f35b610094600480360381019061008f9190610f73565b610149565b6040516100a19190610fbc565b60405180910390f35b6100c460048036038101906100bf919061115c565b61022d565b6040516100d19190610ee6565b60405180910390f35b6100f460048036038101906100ef91906111a5565b61023f565b005b6100fe61024b565b60405161010b9190610fbc565b60405180910390f35b6000807f3078326266366630316666393331643939630000000000000000000000000000905061014381610254565b91505090565b60007311fffc9970c41b9bfb9aa35be838d39bce918cff73ffffffffffffffffffffffffffffffffffffffff168273ffffffffffffffffffffffffffffffffffffffff160361019b5760009050610228565b73dbcc2c6c892c8d3e3fe4d325fec810b7376a5ed673ffffffffffffffffffffffffffffffffffffffff168273ffffffffffffffffffffffffffffffffffffffff16036101eb5760019050610228565b816040517fec459bc000000000000000000000000000000000000000000000000000000000815260040161021f91906111e1565b60405180910390fd5b919050565b6000610238826102f0565b9050919050565b61024881610302565b50565b60006002905090565b600080600167ffffffffffffffff81111561027257610271610fed565b5b6040519080825280602002602001820160405280156102a05781602001602082028036833780820191505090505b50905082816000815181106102b8576102b76111fc565b5b6020026020010181815250506102cd816103cc565b6000815181106102e0576102df6111fc565b5b6020026020010151915050919050565b60006102fb826103de565b9050919050565b60006103e8826103129190611289565b90508042101561037457603c428261032a91906112ba565b111561036f5780426040517fb6b0916d0000000000000000000000000000000000000000000000000000000081526004016103669291906112ee565b60405180910390fd5b6103c8565b60b4814261038291906112ba565b11156103c75780426040517f0321d0b50000000000000000000000000000000000000000000000000000000081526004016103be9291906112ee565b60405180910390fd5b5b5050565b60606103d7826104d2565b9050919050565b60008082510361041a576040517f9e198af900000000000000000000000000000000000000000000000000000000815260040160405180910390fd5b610423826106e1565b6000600283516104339190611289565b90506000600284516104459190611317565b036104ae5760006104968460018461045d91906112ba565b8151811061046e5761046d6111fc565b5b6020026020010151858481518110610489576104886111fc565b5b6020026020010151610734565b90506002816104a59190611289565b925050506104cd565b8281815181106104c1576104c06111fc565b5b60200260200101519150505b919050565b60606000825167ffffffffffffffff8111156104f1576104f0610fed565b5b60405190808252806020026020018201604052801561051f5781602001602082028036833780820191505090505b5090506000835167ffffffffffffffff81111561053f5761053e610fed565b5b60405190808252806020026020018201604052801561056d5781602001602082028036833780820191505090505b5090506000845167ffffffffffffffff81111561058d5761058c610fed565b5b6040519080825280602002602001820160405280156105c057816020015b60608152602001906001900390816105ab5790505b50905060005b8551811015610653576105d761024b565b60ff1667ffffffffffffffff8111156105f3576105f2610fed565b5b6040519080825280602002602001820160405280156106215781602001602082028036833780820191505090505b50828281518110610635576106346111fc565b5b6020026020010181905250808061064b90611348565b9150506105c6565b50600061065e61074a565b9050600061066b8261085b565b61ffff16905060028261067e9190611390565b91506000604051905060005b828110156106c95760006106a18a898989896108b7565b905080856106af9190611390565b9450826040525080806106c190611348565b91505061068a565b506106d48487610baf565b9650505050505050919050565b805160208201602082028101815b8181101561072d57825b81811015610721578151815180821015610714578084528183525b50506020810190506106f9565b506020810190506106ef565b5050505050565b600081836107429190611390565b905092915050565b60008060203603356602ed57011e000081166602ed57011e0000149150508061079f576040517fe7764c9e00000000000000000000000000000000000000000000000000000000815260040160405180910390fd5b600080369050602911156107df576040517f5796f78a00000000000000000000000000000000000000000000000000000000815260040160405180910390fd5b602936033590506000600960038362ffffff166107fc9190611390565b6108069190611390565b9050600036905060028261081a9190611390565b1115610852576040517fc30a7bd700000000000000000000000000000000000000000000000000000000815260040160405180910390fd5b80935050505090565b60008060208361086b9190611390565b905060003690508111156108ab576040517f5796f78a00000000000000000000000000000000000000000000000000000000815260040160405180910390fd5b80360335915050919050565b6000806000806108c685610cfc565b91509150600080600060606000600d6108f46020886108e59190611390565b89610d7290919063ffffffff16565b6108fe9190611390565b9050600061092560688c6109129190611390565b6000369050610d8890919063ffffffff16565b905060006109578360418e61093a9190611390565b6109449190611390565b6000369050610d8890919063ffffffff16565b90506109638382610991565b93508260208501209450813596506109ad565b60006040519050818152602081019050818101604052919050565b600061099c83610976565b838382376020810391505092915050565b6109be8765ffffffffffff1661023f565b6109d48560418e6109cf9190611390565b610d9e565b95506109df86610149565b60ff1699505050505050505060008060005b84811015610b7a57610a04888583610e1d565b809350819450505060005b8c51811015610b66578c8181518110610a2b57610a2a6111fc565b5b60200260200101518403610b535760008b8281518110610a4e57610a4d6111fc565b5b60200260200101519050610a628189610ea3565b158015610a925750610a7261024b565b60ff168d8381518110610a8857610a876111fc565b5b6020026020010151105b15610b4d578c8281518110610aaa57610aa96111fc565b5b602002602001018051809190610abf90611348565b81525050838b8381518110610ad757610ad66111fc565b5b602002602001015160018f8581518110610af457610af36111fc565b5b6020026020010151610b0691906112ba565b81518110610b1757610b166111fc565b5b602002602001018181525050610b2d8189610ebc565b8c8381518110610b4057610b3f6111fc565b5b6020026020010181815250505b50610b66565b8080610b5e90611348565b915050610a0f565b508080610b7290611348565b9150506109f1565b50505081602082610b8b9190611390565b610b9591906113e6565b604e610ba19190611390565b935050505095945050505050565b60606000835167ffffffffffffffff811115610bce57610bcd610fed565b5b604051908082528060200260200182016040528015610bfc5781602001602082028036833780820191505090505b5090506000610c0961024b565b60ff16905060005b8551811015610cf05781858281518110610c2e57610c2d6111fc565b5b60200260200101511015610c9557848181518110610c4f57610c4e6111fc565b5b6020026020010151826040517f2b13aef5000000000000000000000000000000000000000000000000000000008152600401610c8c9291906112ee565b60405180910390fd5b6000610cba878381518110610cad57610cac6111fc565b5b602002602001015161022d565b905080848381518110610cd057610ccf6111fc565b5b602002602001018181525050508080610ce890611348565b915050610c11565b50819250505092915050565b6000806000806000604186610d119190611390565b90506000610d38602083610d259190611390565b6000369050610d8890919063ffffffff16565b905080359350610d52600382610d8890919063ffffffff16565b9050803592508362ffffff1695508263ffffffff16945050505050915091565b60008183610d8091906113e6565b905092915050565b60008183610d9691906112ba565b905092915050565b6000806000808436038035935060208101905080359250602081019050803560001a91505060018682858560405160008152602001604052604051610de69493929190611459565b6020604051602081039080840390855afa158015610e08573d6000803e3d6000fd5b50505060206040510351935050505092915050565b6000806000604e86610e2f9190611390565b90506000610e70610e61602088610e469190611390565b876001610e539190611390565b610d7290919063ffffffff16565b8361073490919063ffffffff16565b90506000610e8b826000369050610d8890919063ffffffff16565b90508035945060208101359350505050935093915050565b600080826001901b841690506000811191505092915050565b6000816001901b8317905092915050565b6000819050919050565b610ee081610ecd565b82525050565b6000602082019050610efb6000830184610ed7565b92915050565b6000604051905090565b600080fd5b600080fd5b600073ffffffffffffffffffffffffffffffffffffffff82169050919050565b6000610f4082610f15565b9050919050565b610f5081610f35565b8114610f5b57600080fd5b50565b600081359050610f6d81610f47565b92915050565b600060208284031215610f8957610f88610f0b565b5b6000610f9784828501610f5e565b91505092915050565b600060ff82169050919050565b610fb681610fa0565b82525050565b6000602082019050610fd16000830184610fad565b92915050565b600080fd5b6000601f19601f8301169050919050565b7f4e487b7100000000000000000000000000000000000000000000000000000000600052604160045260246000fd5b61102582610fdc565b810181811067ffffffffffffffff8211171561104457611043610fed565b5b80604052505050565b6000611057610f01565b9050611063828261101c565b919050565b600067ffffffffffffffff82111561108357611082610fed565b5b602082029050602081019050919050565b600080fd5b6110a281610ecd565b81146110ad57600080fd5b50565b6000813590506110bf81611099565b92915050565b60006110d86110d384611068565b61104d565b905080838252602082019050602084028301858111156110fb576110fa611094565b5b835b81811015611124578061111088826110b0565b8452602084019350506020810190506110fd565b5050509392505050565b600082601f83011261114357611142610fd7565b5b81356111538482602086016110c5565b91505092915050565b60006020828403121561117257611171610f0b565b5b600082013567ffffffffffffffff8111156111905761118f610f10565b5b61119c8482850161112e565b91505092915050565b6000602082840312156111bb576111ba610f0b565b5b60006111c9848285016110b0565b91505092915050565b6111db81610f35565b82525050565b60006020820190506111f660008301846111d2565b92915050565b7f4e487b7100000000000000000000000000000000000000000000000000000000600052603260045260246000fd5b7f4e487b7100000000000000000000000000000000000000000000000000000000600052601260045260246000fd5b7f4e487b7100000000000000000000000000000000000000000000000000000000600052601160045260246000fd5b600061129482610ecd565b915061129f83610ecd565b9250826112af576112ae61122b565b5b828204905092915050565b60006112c582610ecd565b91506112d083610ecd565b9250828210156112e3576112e261125a565b5b828203905092915050565b60006040820190506113036000830185610ed7565b6113106020830184610ed7565b9392505050565b600061132282610ecd565b915061132d83610ecd565b92508261133d5761133c61122b565b5b828206905092915050565b600061135382610ecd565b91507fffffffffffffffffffffffffffffffffffffffffffffffffffffffffffffffff82036113855761138461125a565b5b600182019050919050565b600061139b82610ecd565b91506113a683610ecd565b9250827fffffffffffffffffffffffffffffffffffffffffffffffffffffffffffffffff038211156113db576113da61125a565b5b828201905092915050565b60006113f182610ecd565b91506113fc83610ecd565b9250817fffffffffffffffffffffffffffffffffffffffffffffffffffffffffffffffff04831182151516156114355761143461125a565b5b828202905092915050565b6000819050919050565b61145381611440565b82525050565b600060808201905061146e600083018761144a565b61147b6020830186610fad565b611488604083018561144a565b611495606083018461144a565b9594505050505056fea2646970667358221220df2dff693ded157b853cd405e441b990c751e7510ebc72cde8d5c3da7c40333164736f6c634300080d0033",
					"opcodes": "PUSH1 0x80 PUSH1 0x40 MSTORE CALLVALUE DUP1 ISZERO PUSH2 0x10 JUMPI PUSH1 0x0 DUP1 REVERT JUMPDEST POP PUSH2 0x14D4 DUP1 PUSH2 0x20 PUSH1 0x0 CODECOPY PUSH1 0x0 RETURN INVALID PUSH1 0x80 PUSH1 0x40 MSTORE CALLVALUE DUP1 ISZERO PUSH2 0x10 JUMPI PUSH1 0x0 DUP1 REVERT JUMPDEST POP PUSH1 0x4 CALLDATASIZE LT PUSH2 0x57 JUMPI PUSH1 0x0 CALLDATALOAD PUSH1 0xE0 SHR DUP1 PUSH4 0x20965255 EQ PUSH2 0x5C JUMPI DUP1 PUSH4 0x3CE142F5 EQ PUSH2 0x7A JUMPI DUP1 PUSH4 0xB24EBFCC EQ PUSH2 0xAA JUMPI DUP1 PUSH4 0xF50B2EFE EQ PUSH2 0xDA JUMPI DUP1 PUSH4 0xF90C4924 EQ PUSH2 0xF6 JUMPI JUMPDEST PUSH1 0x0 DUP1 REVERT JUMPDEST PUSH2 0x64 PUSH2 0x114 JUMP JUMPDEST PUSH1 0x40 MLOAD PUSH2 0x71 SWAP2 SWAP1 PUSH2 0xEE6 JUMP JUMPDEST PUSH1 0x40 MLOAD DUP1 SWAP2 SUB SWAP1 RETURN JUMPDEST PUSH2 0x94 PUSH1 0x4 DUP1 CALLDATASIZE SUB DUP2 ADD SWAP1 PUSH2 0x8F SWAP2 SWAP1 PUSH2 0xF73 JUMP JUMPDEST PUSH2 0x149 JUMP JUMPDEST PUSH1 0x40 MLOAD PUSH2 0xA1 SWAP2 SWAP1 PUSH2 0xFBC JUMP JUMPDEST PUSH1 0x40 MLOAD DUP1 SWAP2 SUB SWAP1 RETURN JUMPDEST PUSH2 0xC4 PUSH1 0x4 DUP1 CALLDATASIZE SUB DUP2 ADD SWAP1 PUSH2 0xBF SWAP2 SWAP1 PUSH2 0x115C JUMP JUMPDEST PUSH2 0x22D JUMP JUMPDEST PUSH1 0x40 MLOAD PUSH2 0xD1 SWAP2 SWAP1 PUSH2 0xEE6 JUMP JUMPDEST PUSH1 0x40 MLOAD DUP1 SWAP2 SUB SWAP1 RETURN JUMPDEST PUSH2 0xF4 PUSH1 0x4 DUP1 CALLDATASIZE SUB DUP2 ADD SWAP1 PUSH2 0xEF SWAP2 SWAP1 PUSH2 0x11A5 JUMP JUMPDEST PUSH2 0x23F JUMP JUMPDEST STOP JUMPDEST PUSH2 0xFE PUSH2 0x24B JUMP JUMPDEST PUSH1 0x40 MLOAD PUSH2 0x10B SWAP2 SWAP1 PUSH2 0xFBC JUMP JUMPDEST PUSH1 0x40 MLOAD DUP1 SWAP2 SUB SWAP1 RETURN JUMPDEST PUSH1 0x0 DUP1 PUSH32 0x3078326266366630316666393331643939630000000000000000000000000000 SWAP1 POP PUSH2 0x143 DUP2 PUSH2 0x254 JUMP JUMPDEST SWAP2 POP POP SWAP1 JUMP JUMPDEST PUSH1 0x0 PUSH20 0x11FFFC9970C41B9BFB9AA35BE838D39BCE918CFF PUSH20 0xFFFFFFFFFFFFFFFFFFFFFFFFFFFFFFFFFFFFFFFF AND DUP3 PUSH20 0xFFFFFFFFFFFFFFFFFFFFFFFFFFFFFFFFFFFFFFFF AND SUB PUSH2 0x19B JUMPI PUSH1 0x0 SWAP1 POP PUSH2 0x228 JUMP JUMPDEST PUSH20 0xDBCC2C6C892C8D3E3FE4D325FEC810B7376A5ED6 PUSH20 0xFFFFFFFFFFFFFFFFFFFFFFFFFFFFFFFFFFFFFFFF AND DUP3 PUSH20 0xFFFFFFFFFFFFFFFFFFFFFFFFFFFFFFFFFFFFFFFF AND SUB PUSH2 0x1EB JUMPI PUSH1 0x1 SWAP1 POP PUSH2 0x228 JUMP JUMPDEST DUP2 PUSH1 0x40 MLOAD PUSH32 0xEC459BC000000000000000000000000000000000000000000000000000000000 DUP2 MSTORE PUSH1 0x4 ADD PUSH2 0x21F SWAP2 SWAP1 PUSH2 0x11E1 JUMP JUMPDEST PUSH1 0x40 MLOAD DUP1 SWAP2 SUB SWAP1 REVERT JUMPDEST SWAP2 SWAP1 POP JUMP JUMPDEST PUSH1 0x0 PUSH2 0x238 DUP3 PUSH2 0x2F0 JUMP JUMPDEST SWAP1 POP SWAP2 SWAP1 POP JUMP JUMPDEST PUSH2 0x248 DUP2 PUSH2 0x302 JUMP JUMPDEST POP JUMP JUMPDEST PUSH1 0x0 PUSH1 0x2 SWAP1 POP SWAP1 JUMP JUMPDEST PUSH1 0x0 DUP1 PUSH1 0x1 PUSH8 0xFFFFFFFFFFFFFFFF DUP2 GT ISZERO PUSH2 0x272 JUMPI PUSH2 0x271 PUSH2 0xFED JUMP JUMPDEST JUMPDEST PUSH1 0x40 MLOAD SWAP1 DUP1 DUP3 MSTORE DUP1 PUSH1 0x20 MUL PUSH1 0x20 ADD DUP3 ADD PUSH1 0x40 MSTORE DUP1 ISZERO PUSH2 0x2A0 JUMPI DUP2 PUSH1 0x20 ADD PUSH1 0x20 DUP3 MUL DUP1 CALLDATASIZE DUP4 CALLDATACOPY DUP1 DUP3 ADD SWAP2 POP POP SWAP1 POP JUMPDEST POP SWAP1 POP DUP3 DUP2 PUSH1 0x0 DUP2 MLOAD DUP2 LT PUSH2 0x2B8 JUMPI PUSH2 0x2B7 PUSH2 0x11FC JUMP JUMPDEST JUMPDEST PUSH1 0x20 MUL PUSH1 0x20 ADD ADD DUP2 DUP2 MSTORE POP POP PUSH2 0x2CD DUP2 PUSH2 0x3CC JUMP JUMPDEST PUSH1 0x0 DUP2 MLOAD DUP2 LT PUSH2 0x2E0 JUMPI PUSH2 0x2DF PUSH2 0x11FC JUMP JUMPDEST JUMPDEST PUSH1 0x20 MUL PUSH1 0x20 ADD ADD MLOAD SWAP2 POP POP SWAP2 SWAP1 POP JUMP JUMPDEST PUSH1 0x0 PUSH2 0x2FB DUP3 PUSH2 0x3DE JUMP JUMPDEST SWAP1 POP SWAP2 SWAP1 POP JUMP JUMPDEST PUSH1 0x0 PUSH2 0x3E8 DUP3 PUSH2 0x312 SWAP2 SWAP1 PUSH2 0x1289 JUMP JUMPDEST SWAP1 POP DUP1 TIMESTAMP LT ISZERO PUSH2 0x374 JUMPI PUSH1 0x3C TIMESTAMP DUP3 PUSH2 0x32A SWAP2 SWAP1 PUSH2 0x12BA JUMP JUMPDEST GT ISZERO PUSH2 0x36F JUMPI DUP1 TIMESTAMP PUSH1 0x40 MLOAD PUSH32 0xB6B0916D00000000000000000000000000000000000000000000000000000000 DUP2 MSTORE PUSH1 0x4 ADD PUSH2 0x366 SWAP3 SWAP2 SWAP1 PUSH2 0x12EE JUMP JUMPDEST PUSH1 0x40 MLOAD DUP1 SWAP2 SUB SWAP1 REVERT JUMPDEST PUSH2 0x3C8 JUMP JUMPDEST PUSH1 0xB4 DUP2 TIMESTAMP PUSH2 0x382 SWAP2 SWAP1 PUSH2 0x12BA JUMP JUMPDEST GT ISZERO PUSH2 0x3C7 JUMPI DUP1 TIMESTAMP PUSH1 0x40 MLOAD PUSH32 0x321D0B500000000000000000000000000000000000000000000000000000000 DUP2 MSTORE PUSH1 0x4 ADD PUSH2 0x3BE SWAP3 SWAP2 SWAP1 PUSH2 0x12EE JUMP JUMPDEST PUSH1 0x40 MLOAD DUP1 SWAP2 SUB SWAP1 REVERT JUMPDEST JUMPDEST POP POP JUMP JUMPDEST PUSH1 0x60 PUSH2 0x3D7 DUP3 PUSH2 0x4D2 JUMP JUMPDEST SWAP1 POP SWAP2 SWAP1 POP JUMP JUMPDEST PUSH1 0x0 DUP1 DUP3 MLOAD SUB PUSH2 0x41A JUMPI PUSH1 0x40 MLOAD PUSH32 0x9E198AF900000000000000000000000000000000000000000000000000000000 DUP2 MSTORE PUSH1 0x4 ADD PUSH1 0x40 MLOAD DUP1 SWAP2 SUB SWAP1 REVERT JUMPDEST PUSH2 0x423 DUP3 PUSH2 0x6E1 JUMP JUMPDEST PUSH1 0x0 PUSH1 0x2 DUP4 MLOAD PUSH2 0x433 SWAP2 SWAP1 PUSH2 0x1289 JUMP JUMPDEST SWAP1 POP PUSH1 0x0 PUSH1 0x2 DUP5 MLOAD PUSH2 0x445 SWAP2 SWAP1 PUSH2 0x1317 JUMP JUMPDEST SUB PUSH2 0x4AE JUMPI PUSH1 0x0 PUSH2 0x496 DUP5 PUSH1 0x1 DUP5 PUSH2 0x45D SWAP2 SWAP1 PUSH2 0x12BA JUMP JUMPDEST DUP2 MLOAD DUP2 LT PUSH2 0x46E JUMPI PUSH2 0x46D PUSH2 0x11FC JUMP JUMPDEST JUMPDEST PUSH1 0x20 MUL PUSH1 0x20 ADD ADD MLOAD DUP6 DUP5 DUP2 MLOAD DUP2 LT PUSH2 0x489 JUMPI PUSH2 0x488 PUSH2 0x11FC JUMP JUMPDEST JUMPDEST PUSH1 0x20 MUL PUSH1 0x20 ADD ADD MLOAD PUSH2 0x734 JUMP JUMPDEST SWAP1 POP PUSH1 0x2 DUP2 PUSH2 0x4A5 SWAP2 SWAP1 PUSH2 0x1289 JUMP JUMPDEST SWAP3 POP POP POP PUSH2 0x4CD JUMP JUMPDEST DUP3 DUP2 DUP2 MLOAD DUP2 LT PUSH2 0x4C1 JUMPI PUSH2 0x4C0 PUSH2 0x11FC JUMP JUMPDEST JUMPDEST PUSH1 0x20 MUL PUSH1 0x20 ADD ADD MLOAD SWAP2 POP POP JUMPDEST SWAP2 SWAP1 POP JUMP JUMPDEST PUSH1 0x60 PUSH1 0x0 DUP3 MLOAD PUSH8 0xFFFFFFFFFFFFFFFF DUP2 GT ISZERO PUSH2 0x4F1 JUMPI PUSH2 0x4F0 PUSH2 0xFED JUMP JUMPDEST JUMPDEST PUSH1 0x40 MLOAD SWAP1 DUP1 DUP3 MSTORE DUP1 PUSH1 0x20 MUL PUSH1 0x20 ADD DUP3 ADD PUSH1 0x40 MSTORE DUP1 ISZERO PUSH2 0x51F JUMPI DUP2 PUSH1 0x20 ADD PUSH1 0x20 DUP3 MUL DUP1 CALLDATASIZE DUP4 CALLDATACOPY DUP1 DUP3 ADD SWAP2 POP POP SWAP1 POP JUMPDEST POP SWAP1 POP PUSH1 0x0 DUP4 MLOAD PUSH8 0xFFFFFFFFFFFFFFFF DUP2 GT ISZERO PUSH2 0x53F JUMPI PUSH2 0x53E PUSH2 0xFED JUMP JUMPDEST JUMPDEST PUSH1 0x40 MLOAD SWAP1 DUP1 DUP3 MSTORE DUP1 PUSH1 0x20 MUL PUSH1 0x20 ADD DUP3 ADD PUSH1 0x40 MSTORE DUP1 ISZERO PUSH2 0x56D JUMPI DUP2 PUSH1 0x20 ADD PUSH1 0x20 DUP3 MUL DUP1 CALLDATASIZE DUP4 CALLDATACOPY DUP1 DUP3 ADD SWAP2 POP POP SWAP1 POP JUMPDEST POP SWAP1 POP PUSH1 0x0 DUP5 MLOAD PUSH8 0xFFFFFFFFFFFFFFFF DUP2 GT ISZERO PUSH2 0x58D JUMPI PUSH2 0x58C PUSH2 0xFED JUMP JUMPDEST JUMPDEST PUSH1 0x40 MLOAD SWAP1 DUP1 DUP3 MSTORE DUP1 PUSH1 0x20 MUL PUSH1 0x20 ADD DUP3 ADD PUSH1 0x40 MSTORE DUP1 ISZERO PUSH2 0x5C0 JUMPI DUP2 PUSH1 0x20 ADD JUMPDEST PUSH1 0x60 DUP2 MSTORE PUSH1 0x20 ADD SWAP1 PUSH1 0x1 SWAP1 SUB SWAP1 DUP2 PUSH2 0x5AB JUMPI SWAP1 POP JUMPDEST POP SWAP1 POP PUSH1 0x0 JUMPDEST DUP6 MLOAD DUP2 LT ISZERO PUSH2 0x653 JUMPI PUSH2 0x5D7 PUSH2 0x24B JUMP JUMPDEST PUSH1 0xFF AND PUSH8 0xFFFFFFFFFFFFFFFF DUP2 GT ISZERO PUSH2 0x5F3 JUMPI PUSH2 0x5F2 PUSH2 0xFED JUMP JUMPDEST JUMPDEST PUSH1 0x40 MLOAD SWAP1 DUP1 DUP3 MSTORE DUP1 PUSH1 0x20 MUL PUSH1 0x20 ADD DUP3 ADD PUSH1 0x40 MSTORE DUP1 ISZERO PUSH2 0x621 JUMPI DUP2 PUSH1 0x20 ADD PUSH1 0x20 DUP3 MUL DUP1 CALLDATASIZE DUP4 CALLDATACOPY DUP1 DUP3 ADD SWAP2 POP POP SWAP1 POP JUMPDEST POP DUP3 DUP3 DUP2 MLOAD DUP2 LT PUSH2 0x635 JUMPI PUSH2 0x634 PUSH2 0x11FC JUMP JUMPDEST JUMPDEST PUSH1 0x20 MUL PUSH1 0x20 ADD ADD DUP2 SWAP1 MSTORE POP DUP1 DUP1 PUSH2 0x64B SWAP1 PUSH2 0x1348 JUMP JUMPDEST SWAP2 POP POP PUSH2 0x5C6 JUMP JUMPDEST POP PUSH1 0x0 PUSH2 0x65E PUSH2 0x74A JUMP JUMPDEST SWAP1 POP PUSH1 0x0 PUSH2 0x66B DUP3 PUSH2 0x85B JUMP JUMPDEST PUSH2 0xFFFF AND SWAP1 POP PUSH1 0x2 DUP3 PUSH2 0x67E SWAP2 SWAP1 PUSH2 0x1390 JUMP JUMPDEST SWAP2 POP PUSH1 0x0 PUSH1 0x40 MLOAD SWAP1 POP PUSH1 0x0 JUMPDEST DUP3 DUP2 LT ISZERO PUSH2 0x6C9 JUMPI PUSH1 0x0 PUSH2 0x6A1 DUP11 DUP10 DUP10 DUP10 DUP10 PUSH2 0x8B7 JUMP JUMPDEST SWAP1 POP DUP1 DUP6 PUSH2 0x6AF SWAP2 SWAP1 PUSH2 0x1390 JUMP JUMPDEST SWAP5 POP DUP3 PUSH1 0x40 MSTORE POP DUP1 DUP1 PUSH2 0x6C1 SWAP1 PUSH2 0x1348 JUMP JUMPDEST SWAP2 POP POP PUSH2 0x68A JUMP JUMPDEST POP PUSH2 0x6D4 DUP5 DUP8 PUSH2 0xBAF JUMP JUMPDEST SWAP7 POP POP POP POP POP POP POP SWAP2 SWAP1 POP JUMP JUMPDEST DUP1 MLOAD PUSH1 0x20 DUP3 ADD PUSH1 0x20 DUP3 MUL DUP2 ADD DUP2 JUMPDEST DUP2 DUP2 LT ISZERO PUSH2 0x72D JUMPI DUP3 JUMPDEST DUP2 DUP2 LT ISZERO PUSH2 0x721 JUMPI DUP2 MLOAD DUP2 MLOAD DUP1 DUP3 LT ISZERO PUSH2 0x714 JUMPI DUP1 DUP5 MSTORE DUP2 DUP4 MSTORE JUMPDEST POP POP PUSH1 0x20 DUP2 ADD SWAP1 POP PUSH2 0x6F9 JUMP JUMPDEST POP PUSH1 0x20 DUP2 ADD SWAP1 POP PUSH2 0x6EF JUMP JUMPDEST POP POP POP POP POP JUMP JUMPDEST PUSH1 0x0 DUP2 DUP4 PUSH2 0x742 SWAP2 SWAP1 PUSH2 0x1390 JUMP JUMPDEST SWAP1 POP SWAP3 SWAP2 POP POP JUMP JUMPDEST PUSH1 0x0 DUP1 PUSH1 0x20 CALLDATASIZE SUB CALLDATALOAD PUSH7 0x2ED57011E0000 DUP2 AND PUSH7 0x2ED57011E0000 EQ SWAP2 POP POP DUP1 PUSH2 0x79F JUMPI PUSH1 0x40 MLOAD PUSH32 0xE7764C9E00000000000000000000000000000000000000000000000000000000 DUP2 MSTORE PUSH1 0x4 ADD PUSH1 0x40 MLOAD DUP1 SWAP2 SUB SWAP1 REVERT JUMPDEST PUSH1 0x0 DUP1 CALLDATASIZE SWAP1 POP PUSH1 0x29 GT ISZERO PUSH2 0x7DF JUMPI PUSH1 0x40 MLOAD PUSH32 0x5796F78A00000000000000000000000000000000000000000000000000000000 DUP2 MSTORE PUSH1 0x4 ADD PUSH1 0x40 MLOAD DUP1 SWAP2 SUB SWAP1 REVERT JUMPDEST PUSH1 0x29 CALLDATASIZE SUB CALLDATALOAD SWAP1 POP PUSH1 0x0 PUSH1 0x9 PUSH1 0x3 DUP4 PUSH3 0xFFFFFF AND PUSH2 0x7FC SWAP2 SWAP1 PUSH2 0x1390 JUMP JUMPDEST PUSH2 0x806 SWAP2 SWAP1 PUSH2 0x1390 JUMP JUMPDEST SWAP1 POP PUSH1 0x0 CALLDATASIZE SWAP1 POP PUSH1 0x2 DUP3 PUSH2 0x81A SWAP2 SWAP1 PUSH2 0x1390 JUMP JUMPDEST GT ISZERO PUSH2 0x852 JUMPI PUSH1 0x40 MLOAD PUSH32 0xC30A7BD700000000000000000000000000000000000000000000000000000000 DUP2 MSTORE PUSH1 0x4 ADD PUSH1 0x40 MLOAD DUP1 SWAP2 SUB SWAP1 REVERT JUMPDEST DUP1 SWAP4 POP POP POP POP SWAP1 JUMP JUMPDEST PUSH1 0x0 DUP1 PUSH1 0x20 DUP4 PUSH2 0x86B SWAP2 SWAP1 PUSH2 0x1390 JUMP JUMPDEST SWAP1 POP PUSH1 0x0 CALLDATASIZE SWAP1 POP DUP2 GT ISZERO PUSH2 0x8AB JUMPI PUSH1 0x40 MLOAD PUSH32 0x5796F78A00000000000000000000000000000000000000000000000000000000 DUP2 MSTORE PUSH1 0x4 ADD PUSH1 0x40 MLOAD DUP1 SWAP2 SUB SWAP1 REVERT JUMPDEST DUP1 CALLDATASIZE SUB CALLDATALOAD SWAP2 POP POP SWAP2 SWAP1 POP JUMP JUMPDEST PUSH1 0x0 DUP1 PUSH1 0x0 DUP1 PUSH2 0x8C6 DUP6 PUSH2 0xCFC JUMP JUMPDEST SWAP2 POP SWAP2 POP PUSH1 0x0 DUP1 PUSH1 0x0 PUSH1 0x60 PUSH1 0x0 PUSH1 0xD PUSH2 0x8F4 PUSH1 0x20 DUP9 PUSH2 0x8E5 SWAP2 SWAP1 PUSH2 0x1390 JUMP JUMPDEST DUP10 PUSH2 0xD72 SWAP1 SWAP2 SWAP1 PUSH4 0xFFFFFFFF AND JUMP JUMPDEST PUSH2 0x8FE SWAP2 SWAP1 PUSH2 0x1390 JUMP JUMPDEST SWAP1 POP PUSH1 0x0 PUSH2 0x925 PUSH1 0x68 DUP13 PUSH2 0x912 SWAP2 SWAP1 PUSH2 0x1390 JUMP JUMPDEST PUSH1 0x0 CALLDATASIZE SWAP1 POP PUSH2 0xD88 SWAP1 SWAP2 SWAP1 PUSH4 0xFFFFFFFF AND JUMP JUMPDEST SWAP1 POP PUSH1 0x0 PUSH2 0x957 DUP4 PUSH1 0x41 DUP15 PUSH2 0x93A SWAP2 SWAP1 PUSH2 0x1390 JUMP JUMPDEST PUSH2 0x944 SWAP2 SWAP1 PUSH2 0x1390 JUMP JUMPDEST PUSH1 0x0 CALLDATASIZE SWAP1 POP PUSH2 0xD88 SWAP1 SWAP2 SWAP1 PUSH4 0xFFFFFFFF AND JUMP JUMPDEST SWAP1 POP PUSH2 0x963 DUP4 DUP3 PUSH2 0x991 JUMP JUMPDEST SWAP4 POP DUP3 PUSH1 0x20 DUP6 ADD KECCAK256 SWAP5 POP DUP2 CALLDATALOAD SWAP7 POP PUSH2 0x9AD JUMP JUMPDEST PUSH1 0x0 PUSH1 0x40 MLOAD SWAP1 POP DUP2 DUP2 MSTORE PUSH1 0x20 DUP2 ADD SWAP1 POP DUP2 DUP2 ADD PUSH1 0x40 MSTORE SWAP2 SWAP1 POP JUMP JUMPDEST PUSH1 0x0 PUSH2 0x99C DUP4 PUSH2 0x976 JUMP JUMPDEST DUP4 DUP4 DUP3 CALLDATACOPY PUSH1 0x20 DUP2 SUB SWAP2 POP POP SWAP3 SWAP2 POP POP JUMP JUMPDEST PUSH2 0x9BE DUP8 PUSH6 0xFFFFFFFFFFFF AND PUSH2 0x23F JUMP JUMPDEST PUSH2 0x9D4 DUP6 PUSH1 0x41 DUP15 PUSH2 0x9CF SWAP2 SWAP1 PUSH2 0x1390 JUMP JUMPDEST PUSH2 0xD9E JUMP JUMPDEST SWAP6 POP PUSH2 0x9DF DUP7 PUSH2 0x149 JUMP JUMPDEST PUSH1 0xFF AND SWAP10 POP POP POP POP POP POP POP POP PUSH1 0x0 DUP1 PUSH1 0x0 JUMPDEST DUP5 DUP2 LT ISZERO PUSH2 0xB7A JUMPI PUSH2 0xA04 DUP9 DUP6 DUP4 PUSH2 0xE1D JUMP JUMPDEST DUP1 SWAP4 POP DUP2 SWAP5 POP POP POP PUSH1 0x0 JUMPDEST DUP13 MLOAD DUP2 LT ISZERO PUSH2 0xB66 JUMPI DUP13 DUP2 DUP2 MLOAD DUP2 LT PUSH2 0xA2B JUMPI PUSH2 0xA2A PUSH2 0x11FC JUMP JUMPDEST JUMPDEST PUSH1 0x20 MUL PUSH1 0x20 ADD ADD MLOAD DUP5 SUB PUSH2 0xB53 JUMPI PUSH1 0x0 DUP12 DUP3 DUP2 MLOAD DUP2 LT PUSH2 0xA4E JUMPI PUSH2 0xA4D PUSH2 0x11FC JUMP JUMPDEST JUMPDEST PUSH1 0x20 MUL PUSH1 0x20 ADD ADD MLOAD SWAP1 POP PUSH2 0xA62 DUP2 DUP10 PUSH2 0xEA3 JUMP JUMPDEST ISZERO DUP1 ISZERO PUSH2 0xA92 JUMPI POP PUSH2 0xA72 PUSH2 0x24B JUMP JUMPDEST PUSH1 0xFF AND DUP14 DUP4 DUP2 MLOAD DUP2 LT PUSH2 0xA88 JUMPI PUSH2 0xA87 PUSH2 0x11FC JUMP JUMPDEST JUMPDEST PUSH1 0x20 MUL PUSH1 0x20 ADD ADD MLOAD LT JUMPDEST ISZERO PUSH2 0xB4D JUMPI DUP13 DUP3 DUP2 MLOAD DUP2 LT PUSH2 0xAAA JUMPI PUSH2 0xAA9 PUSH2 0x11FC JUMP JUMPDEST JUMPDEST PUSH1 0x20 MUL PUSH1 0x20 ADD ADD DUP1 MLOAD DUP1 SWAP2 SWAP1 PUSH2 0xABF SWAP1 PUSH2 0x1348 JUMP JUMPDEST DUP2 MSTORE POP POP DUP4 DUP12 DUP4 DUP2 MLOAD DUP2 LT PUSH2 0xAD7 JUMPI PUSH2 0xAD6 PUSH2 0x11FC JUMP JUMPDEST JUMPDEST PUSH1 0x20 MUL PUSH1 0x20 ADD ADD MLOAD PUSH1 0x1 DUP16 DUP6 DUP2 MLOAD DUP2 LT PUSH2 0xAF4 JUMPI PUSH2 0xAF3 PUSH2 0x11FC JUMP JUMPDEST JUMPDEST PUSH1 0x20 MUL PUSH1 0x20 ADD ADD MLOAD PUSH2 0xB06 SWAP2 SWAP1 PUSH2 0x12BA JUMP JUMPDEST DUP2 MLOAD DUP2 LT PUSH2 0xB17 JUMPI PUSH2 0xB16 PUSH2 0x11FC JUMP JUMPDEST JUMPDEST PUSH1 0x20 MUL PUSH1 0x20 ADD ADD DUP2 DUP2 MSTORE POP POP PUSH2 0xB2D DUP2 DUP10 PUSH2 0xEBC JUMP JUMPDEST DUP13 DUP4 DUP2 MLOAD DUP2 LT PUSH2 0xB40 JUMPI PUSH2 0xB3F PUSH2 0x11FC JUMP JUMPDEST JUMPDEST PUSH1 0x20 MUL PUSH1 0x20 ADD ADD DUP2 DUP2 MSTORE POP POP JUMPDEST POP PUSH2 0xB66 JUMP JUMPDEST DUP1 DUP1 PUSH2 0xB5E SWAP1 PUSH2 0x1348 JUMP JUMPDEST SWAP2 POP POP PUSH2 0xA0F JUMP JUMPDEST POP DUP1 DUP1 PUSH2 0xB72 SWAP1 PUSH2 0x1348 JUMP JUMPDEST SWAP2 POP POP PUSH2 0x9F1 JUMP JUMPDEST POP POP POP DUP2 PUSH1 0x20 DUP3 PUSH2 0xB8B SWAP2 SWAP1 PUSH2 0x1390 JUMP JUMPDEST PUSH2 0xB95 SWAP2 SWAP1 PUSH2 0x13E6 JUMP JUMPDEST PUSH1 0x4E PUSH2 0xBA1 SWAP2 SWAP1 PUSH2 0x1390 JUMP JUMPDEST SWAP4 POP POP POP POP SWAP6 SWAP5 POP POP POP POP POP JUMP JUMPDEST PUSH1 0x60 PUSH1 0x0 DUP4 MLOAD PUSH8 0xFFFFFFFFFFFFFFFF DUP2 GT ISZERO PUSH2 0xBCE JUMPI PUSH2 0xBCD PUSH2 0xFED JUMP JUMPDEST JUMPDEST PUSH1 0x40 MLOAD SWAP1 DUP1 DUP3 MSTORE DUP1 PUSH1 0x20 MUL PUSH1 0x20 ADD DUP3 ADD PUSH1 0x40 MSTORE DUP1 ISZERO PUSH2 0xBFC JUMPI DUP2 PUSH1 0x20 ADD PUSH1 0x20 DUP3 MUL DUP1 CALLDATASIZE DUP4 CALLDATACOPY DUP1 DUP3 ADD SWAP2 POP POP SWAP1 POP JUMPDEST POP SWAP1 POP PUSH1 0x0 PUSH2 0xC09 PUSH2 0x24B JUMP JUMPDEST PUSH1 0xFF AND SWAP1 POP PUSH1 0x0 JUMPDEST DUP6 MLOAD DUP2 LT ISZERO PUSH2 0xCF0 JUMPI DUP2 DUP6 DUP3 DUP2 MLOAD DUP2 LT PUSH2 0xC2E JUMPI PUSH2 0xC2D PUSH2 0x11FC JUMP JUMPDEST JUMPDEST PUSH1 0x20 MUL PUSH1 0x20 ADD ADD MLOAD LT ISZERO PUSH2 0xC95 JUMPI DUP5 DUP2 DUP2 MLOAD DUP2 LT PUSH2 0xC4F JUMPI PUSH2 0xC4E PUSH2 0x11FC JUMP JUMPDEST JUMPDEST PUSH1 0x20 MUL PUSH1 0x20 ADD ADD MLOAD DUP3 PUSH1 0x40 MLOAD PUSH32 0x2B13AEF500000000000000000000000000000000000000000000000000000000 DUP2 MSTORE PUSH1 0x4 ADD PUSH2 0xC8C SWAP3 SWAP2 SWAP1 PUSH2 0x12EE JUMP JUMPDEST PUSH1 0x40 MLOAD DUP1 SWAP2 SUB SWAP1 REVERT JUMPDEST PUSH1 0x0 PUSH2 0xCBA DUP8 DUP4 DUP2 MLOAD DUP2 LT PUSH2 0xCAD JUMPI PUSH2 0xCAC PUSH2 0x11FC JUMP JUMPDEST JUMPDEST PUSH1 0x20 MUL PUSH1 0x20 ADD ADD MLOAD PUSH2 0x22D JUMP JUMPDEST SWAP1 POP DUP1 DUP5 DUP4 DUP2 MLOAD DUP2 LT PUSH2 0xCD0 JUMPI PUSH2 0xCCF PUSH2 0x11FC JUMP JUMPDEST JUMPDEST PUSH1 0x20 MUL PUSH1 0x20 ADD ADD DUP2 DUP2 MSTORE POP POP POP DUP1 DUP1 PUSH2 0xCE8 SWAP1 PUSH2 0x1348 JUMP JUMPDEST SWAP2 POP POP PUSH2 0xC11 JUMP JUMPDEST POP DUP2 SWAP3 POP POP POP SWAP3 SWAP2 POP POP JUMP JUMPDEST PUSH1 0x0 DUP1 PUSH1 0x0 DUP1 PUSH1 0x0 PUSH1 0x41 DUP7 PUSH2 0xD11 SWAP2 SWAP1 PUSH2 0x1390 JUMP JUMPDEST SWAP1 POP PUSH1 0x0 PUSH2 0xD38 PUSH1 0x20 DUP4 PUSH2 0xD25 SWAP2 SWAP1 PUSH2 0x1390 JUMP JUMPDEST PUSH1 0x0 CALLDATASIZE SWAP1 POP PUSH2 0xD88 SWAP1 SWAP2 SWAP1 PUSH4 0xFFFFFFFF AND JUMP JUMPDEST SWAP1 POP DUP1 CALLDATALOAD SWAP4 POP PUSH2 0xD52 PUSH1 0x3 DUP3 PUSH2 0xD88 SWAP1 SWAP2 SWAP1 PUSH4 0xFFFFFFFF AND JUMP JUMPDEST SWAP1 POP DUP1 CALLDATALOAD SWAP3 POP DUP4 PUSH3 0xFFFFFF AND SWAP6 POP DUP3 PUSH4 0xFFFFFFFF AND SWAP5 POP POP POP POP POP SWAP2 POP SWAP2 JUMP JUMPDEST PUSH1 0x0 DUP2 DUP4 PUSH2 0xD80 SWAP2 SWAP1 PUSH2 0x13E6 JUMP JUMPDEST SWAP1 POP SWAP3 SWAP2 POP POP JUMP JUMPDEST PUSH1 0x0 DUP2 DUP4 PUSH2 0xD96 SWAP2 SWAP1 PUSH2 0x12BA JUMP JUMPDEST SWAP1 POP SWAP3 SWAP2 POP POP JUMP JUMPDEST PUSH1 0x0 DUP1 PUSH1 0x0 DUP1 DUP5 CALLDATASIZE SUB DUP1 CALLDATALOAD SWAP4 POP PUSH1 0x20 DUP2 ADD SWAP1 POP DUP1 CALLDATALOAD SWAP3 POP PUSH1 0x20 DUP2 ADD SWAP1 POP DUP1 CALLDATALOAD PUSH1 0x0 BYTE SWAP2 POP POP PUSH1 0x1 DUP7 DUP3 DUP6 DUP6 PUSH1 0x40 MLOAD PUSH1 0x0 DUP2 MSTORE PUSH1 0x20 ADD PUSH1 0x40 MSTORE PUSH1 0x40 MLOAD PUSH2 0xDE6 SWAP5 SWAP4 SWAP3 SWAP2 SWAP1 PUSH2 0x1459 JUMP JUMPDEST PUSH1 0x20 PUSH1 0x40 MLOAD PUSH1 0x20 DUP2 SUB SWAP1 DUP1 DUP5 SUB SWAP1 DUP6 GAS STATICCALL ISZERO DUP1 ISZERO PUSH2 0xE08 JUMPI RETURNDATASIZE PUSH1 0x0 DUP1 RETURNDATACOPY RETURNDATASIZE PUSH1 0x0 REVERT JUMPDEST POP POP POP PUSH1 0x20 PUSH1 0x40 MLOAD SUB MLOAD SWAP4 POP POP POP POP SWAP3 SWAP2 POP POP JUMP JUMPDEST PUSH1 0x0 DUP1 PUSH1 0x0 PUSH1 0x4E DUP7 PUSH2 0xE2F SWAP2 SWAP1 PUSH2 0x1390 JUMP JUMPDEST SWAP1 POP PUSH1 0x0 PUSH2 0xE70 PUSH2 0xE61 PUSH1 0x20 DUP9 PUSH2 0xE46 SWAP2 SWAP1 PUSH2 0x1390 JUMP JUMPDEST DUP8 PUSH1 0x1 PUSH2 0xE53 SWAP2 SWAP1 PUSH2 0x1390 JUMP JUMPDEST PUSH2 0xD72 SWAP1 SWAP2 SWAP1 PUSH4 0xFFFFFFFF AND JUMP JUMPDEST DUP4 PUSH2 0x734 SWAP1 SWAP2 SWAP1 PUSH4 0xFFFFFFFF AND JUMP JUMPDEST SWAP1 POP PUSH1 0x0 PUSH2 0xE8B DUP3 PUSH1 0x0 CALLDATASIZE SWAP1 POP PUSH2 0xD88 SWAP1 SWAP2 SWAP1 PUSH4 0xFFFFFFFF AND JUMP JUMPDEST SWAP1 POP DUP1 CALLDATALOAD SWAP5 POP PUSH1 0x20 DUP2 ADD CALLDATALOAD SWAP4 POP POP POP POP SWAP4 POP SWAP4 SWAP2 POP POP JUMP JUMPDEST PUSH1 0x0 DUP1 DUP3 PUSH1 0x1 SWAP1 SHL DUP5 AND SWAP1 POP PUSH1 0x0 DUP2 GT SWAP2 POP POP SWAP3 SWAP2 POP POP JUMP JUMPDEST PUSH1 0x0 DUP2 PUSH1 0x1 SWAP1 SHL DUP4 OR SWAP1 POP SWAP3 SWAP2 POP POP JUMP JUMPDEST PUSH1 0x0 DUP2 SWAP1 POP SWAP2 SWAP1 POP JUMP JUMPDEST PUSH2 0xEE0 DUP2 PUSH2 0xECD JUMP JUMPDEST DUP3 MSTORE POP POP JUMP JUMPDEST PUSH1 0x0 PUSH1 0x20 DUP3 ADD SWAP1 POP PUSH2 0xEFB PUSH1 0x0 DUP4 ADD DUP5 PUSH2 0xED7 JUMP JUMPDEST SWAP3 SWAP2 POP POP JUMP JUMPDEST PUSH1 0x0 PUSH1 0x40 MLOAD SWAP1 POP SWAP1 JUMP JUMPDEST PUSH1 0x0 DUP1 REVERT JUMPDEST PUSH1 0x0 DUP1 REVERT JUMPDEST PUSH1 0x0 PUSH20 0xFFFFFFFFFFFFFFFFFFFFFFFFFFFFFFFFFFFFFFFF DUP3 AND SWAP1 POP SWAP2 SWAP1 POP JUMP JUMPDEST PUSH1 0x0 PUSH2 0xF40 DUP3 PUSH2 0xF15 JUMP JUMPDEST SWAP1 POP SWAP2 SWAP1 POP JUMP JUMPDEST PUSH2 0xF50 DUP2 PUSH2 0xF35 JUMP JUMPDEST DUP2 EQ PUSH2 0xF5B JUMPI PUSH1 0x0 DUP1 REVERT JUMPDEST POP JUMP JUMPDEST PUSH1 0x0 DUP2 CALLDATALOAD SWAP1 POP PUSH2 0xF6D DUP2 PUSH2 0xF47 JUMP JUMPDEST SWAP3 SWAP2 POP POP JUMP JUMPDEST PUSH1 0x0 PUSH1 0x20 DUP3 DUP5 SUB SLT ISZERO PUSH2 0xF89 JUMPI PUSH2 0xF88 PUSH2 0xF0B JUMP JUMPDEST JUMPDEST PUSH1 0x0 PUSH2 0xF97 DUP5 DUP3 DUP6 ADD PUSH2 0xF5E JUMP JUMPDEST SWAP2 POP POP SWAP3 SWAP2 POP POP JUMP JUMPDEST PUSH1 0x0 PUSH1 0xFF DUP3 AND SWAP1 POP SWAP2 SWAP1 POP JUMP JUMPDEST PUSH2 0xFB6 DUP2 PUSH2 0xFA0 JUMP JUMPDEST DUP3 MSTORE POP POP JUMP JUMPDEST PUSH1 0x0 PUSH1 0x20 DUP3 ADD SWAP1 POP PUSH2 0xFD1 PUSH1 0x0 DUP4 ADD DUP5 PUSH2 0xFAD JUMP JUMPDEST SWAP3 SWAP2 POP POP JUMP JUMPDEST PUSH1 0x0 DUP1 REVERT JUMPDEST PUSH1 0x0 PUSH1 0x1F NOT PUSH1 0x1F DUP4 ADD AND SWAP1 POP SWAP2 SWAP1 POP JUMP JUMPDEST PUSH32 0x4E487B7100000000000000000000000000000000000000000000000000000000 PUSH1 0x0 MSTORE PUSH1 0x41 PUSH1 0x4 MSTORE PUSH1 0x24 PUSH1 0x0 REVERT JUMPDEST PUSH2 0x1025 DUP3 PUSH2 0xFDC JUMP JUMPDEST DUP2 ADD DUP2 DUP2 LT PUSH8 0xFFFFFFFFFFFFFFFF DUP3 GT OR ISZERO PUSH2 0x1044 JUMPI PUSH2 0x1043 PUSH2 0xFED JUMP JUMPDEST JUMPDEST DUP1 PUSH1 0x40 MSTORE POP POP POP JUMP JUMPDEST PUSH1 0x0 PUSH2 0x1057 PUSH2 0xF01 JUMP JUMPDEST SWAP1 POP PUSH2 0x1063 DUP3 DUP3 PUSH2 0x101C JUMP JUMPDEST SWAP2 SWAP1 POP JUMP JUMPDEST PUSH1 0x0 PUSH8 0xFFFFFFFFFFFFFFFF DUP3 GT ISZERO PUSH2 0x1083 JUMPI PUSH2 0x1082 PUSH2 0xFED JUMP JUMPDEST JUMPDEST PUSH1 0x20 DUP3 MUL SWAP1 POP PUSH1 0x20 DUP2 ADD SWAP1 POP SWAP2 SWAP1 POP JUMP JUMPDEST PUSH1 0x0 DUP1 REVERT JUMPDEST PUSH2 0x10A2 DUP2 PUSH2 0xECD JUMP JUMPDEST DUP2 EQ PUSH2 0x10AD JUMPI PUSH1 0x0 DUP1 REVERT JUMPDEST POP JUMP JUMPDEST PUSH1 0x0 DUP2 CALLDATALOAD SWAP1 POP PUSH2 0x10BF DUP2 PUSH2 0x1099 JUMP JUMPDEST SWAP3 SWAP2 POP POP JUMP JUMPDEST PUSH1 0x0 PUSH2 0x10D8 PUSH2 0x10D3 DUP5 PUSH2 0x1068 JUMP JUMPDEST PUSH2 0x104D JUMP JUMPDEST SWAP1 POP DUP1 DUP4 DUP3 MSTORE PUSH1 0x20 DUP3 ADD SWAP1 POP PUSH1 0x20 DUP5 MUL DUP4 ADD DUP6 DUP2 GT ISZERO PUSH2 0x10FB JUMPI PUSH2 0x10FA PUSH2 0x1094 JUMP JUMPDEST JUMPDEST DUP4 JUMPDEST DUP2 DUP2 LT ISZERO PUSH2 0x1124 JUMPI DUP1 PUSH2 0x1110 DUP9 DUP3 PUSH2 0x10B0 JUMP JUMPDEST DUP5 MSTORE PUSH1 0x20 DUP5 ADD SWAP4 POP POP PUSH1 0x20 DUP2 ADD SWAP1 POP PUSH2 0x10FD JUMP JUMPDEST POP POP POP SWAP4 SWAP3 POP POP POP JUMP JUMPDEST PUSH1 0x0 DUP3 PUSH1 0x1F DUP4 ADD SLT PUSH2 0x1143 JUMPI PUSH2 0x1142 PUSH2 0xFD7 JUMP JUMPDEST JUMPDEST DUP2 CALLDATALOAD PUSH2 0x1153 DUP5 DUP3 PUSH1 0x20 DUP7 ADD PUSH2 0x10C5 JUMP JUMPDEST SWAP2 POP POP SWAP3 SWAP2 POP POP JUMP JUMPDEST PUSH1 0x0 PUSH1 0x20 DUP3 DUP5 SUB SLT ISZERO PUSH2 0x1172 JUMPI PUSH2 0x1171 PUSH2 0xF0B JUMP JUMPDEST JUMPDEST PUSH1 0x0 DUP3 ADD CALLDATALOAD PUSH8 0xFFFFFFFFFFFFFFFF DUP2 GT ISZERO PUSH2 0x1190 JUMPI PUSH2 0x118F PUSH2 0xF10 JUMP JUMPDEST JUMPDEST PUSH2 0x119C DUP5 DUP3 DUP6 ADD PUSH2 0x112E JUMP JUMPDEST SWAP2 POP POP SWAP3 SWAP2 POP POP JUMP JUMPDEST PUSH1 0x0 PUSH1 0x20 DUP3 DUP5 SUB SLT ISZERO PUSH2 0x11BB JUMPI PUSH2 0x11BA PUSH2 0xF0B JUMP JUMPDEST JUMPDEST PUSH1 0x0 PUSH2 0x11C9 DUP5 DUP3 DUP6 ADD PUSH2 0x10B0 JUMP JUMPDEST SWAP2 POP POP SWAP3 SWAP2 POP POP JUMP JUMPDEST PUSH2 0x11DB DUP2 PUSH2 0xF35 JUMP JUMPDEST DUP3 MSTORE POP POP JUMP JUMPDEST PUSH1 0x0 PUSH1 0x20 DUP3 ADD SWAP1 POP PUSH2 0x11F6 PUSH1 0x0 DUP4 ADD DUP5 PUSH2 0x11D2 JUMP JUMPDEST SWAP3 SWAP2 POP POP JUMP JUMPDEST PUSH32 0x4E487B7100000000000000000000000000000000000000000000000000000000 PUSH1 0x0 MSTORE PUSH1 0x32 PUSH1 0x4 MSTORE PUSH1 0x24 PUSH1 0x0 REVERT JUMPDEST PUSH32 0x4E487B7100000000000000000000000000000000000000000000000000000000 PUSH1 0x0 MSTORE PUSH1 0x12 PUSH1 0x4 MSTORE PUSH1 0x24 PUSH1 0x0 REVERT JUMPDEST PUSH32 0x4E487B7100000000000000000000000000000000000000000000000000000000 PUSH1 0x0 MSTORE PUSH1 0x11 PUSH1 0x4 MSTORE PUSH1 0x24 PUSH1 0x0 REVERT JUMPDEST PUSH1 0x0 PUSH2 0x1294 DUP3 PUSH2 0xECD JUMP JUMPDEST SWAP2 POP PUSH2 0x129F DUP4 PUSH2 0xECD JUMP JUMPDEST SWAP3 POP DUP3 PUSH2 0x12AF JUMPI PUSH2 0x12AE PUSH2 0x122B JUMP JUMPDEST JUMPDEST DUP3 DUP3 DIV SWAP1 POP SWAP3 SWAP2 POP POP JUMP JUMPDEST PUSH1 0x0 PUSH2 0x12C5 DUP3 PUSH2 0xECD JUMP JUMPDEST SWAP2 POP PUSH2 0x12D0 DUP4 PUSH2 0xECD JUMP JUMPDEST SWAP3 POP DUP3 DUP3 LT ISZERO PUSH2 0x12E3 JUMPI PUSH2 0x12E2 PUSH2 0x125A JUMP JUMPDEST JUMPDEST DUP3 DUP3 SUB SWAP1 POP SWAP3 SWAP2 POP POP JUMP JUMPDEST PUSH1 0x0 PUSH1 0x40 DUP3 ADD SWAP1 POP PUSH2 0x1303 PUSH1 0x0 DUP4 ADD DUP6 PUSH2 0xED7 JUMP JUMPDEST PUSH2 0x1310 PUSH1 0x20 DUP4 ADD DUP5 PUSH2 0xED7 JUMP JUMPDEST SWAP4 SWAP3 POP POP POP JUMP JUMPDEST PUSH1 0x0 PUSH2 0x1322 DUP3 PUSH2 0xECD JUMP JUMPDEST SWAP2 POP PUSH2 0x132D DUP4 PUSH2 0xECD JUMP JUMPDEST SWAP3 POP DUP3 PUSH2 0x133D JUMPI PUSH2 0x133C PUSH2 0x122B JUMP JUMPDEST JUMPDEST DUP3 DUP3 MOD SWAP1 POP SWAP3 SWAP2 POP POP JUMP JUMPDEST PUSH1 0x0 PUSH2 0x1353 DUP3 PUSH2 0xECD JUMP JUMPDEST SWAP2 POP PUSH32 0xFFFFFFFFFFFFFFFFFFFFFFFFFFFFFFFFFFFFFFFFFFFFFFFFFFFFFFFFFFFFFFFF DUP3 SUB PUSH2 0x1385 JUMPI PUSH2 0x1384 PUSH2 0x125A JUMP JUMPDEST JUMPDEST PUSH1 0x1 DUP3 ADD SWAP1 POP SWAP2 SWAP1 POP JUMP JUMPDEST PUSH1 0x0 PUSH2 0x139B DUP3 PUSH2 0xECD JUMP JUMPDEST SWAP2 POP PUSH2 0x13A6 DUP4 PUSH2 0xECD JUMP JUMPDEST SWAP3 POP DUP3 PUSH32 0xFFFFFFFFFFFFFFFFFFFFFFFFFFFFFFFFFFFFFFFFFFFFFFFFFFFFFFFFFFFFFFFF SUB DUP3 GT ISZERO PUSH2 0x13DB JUMPI PUSH2 0x13DA PUSH2 0x125A JUMP JUMPDEST JUMPDEST DUP3 DUP3 ADD SWAP1 POP SWAP3 SWAP2 POP POP JUMP JUMPDEST PUSH1 0x0 PUSH2 0x13F1 DUP3 PUSH2 0xECD JUMP JUMPDEST SWAP2 POP PUSH2 0x13FC DUP4 PUSH2 0xECD JUMP JUMPDEST SWAP3 POP DUP2 PUSH32 0xFFFFFFFFFFFFFFFFFFFFFFFFFFFFFFFFFFFFFFFFFFFFFFFFFFFFFFFFFFFFFFFF DIV DUP4 GT DUP3 ISZERO ISZERO AND ISZERO PUSH2 0x1435 JUMPI PUSH2 0x1434 PUSH2 0x125A JUMP JUMPDEST JUMPDEST DUP3 DUP3 MUL SWAP1 POP SWAP3 SWAP2 POP POP JUMP JUMPDEST PUSH1 0x0 DUP2 SWAP1 POP SWAP2 SWAP1 POP JUMP JUMPDEST PUSH2 0x1453 DUP2 PUSH2 0x1440 JUMP JUMPDEST DUP3 MSTORE POP POP JUMP JUMPDEST PUSH1 0x0 PUSH1 0x80 DUP3 ADD SWAP1 POP PUSH2 0x146E PUSH1 0x0 DUP4 ADD DUP8 PUSH2 0x144A JUMP JUMPDEST PUSH2 0x147B PUSH1 0x20 DUP4 ADD DUP7 PUSH2 0xFAD JUMP JUMPDEST PUSH2 0x1488 PUSH1 0x40 DUP4 ADD DUP6 PUSH2 0x144A JUMP JUMPDEST PUSH2 0x1495 PUSH1 0x60 DUP4 ADD DUP5 PUSH2 0x144A JUMP JUMPDEST SWAP6 SWAP5 POP POP POP POP POP JUMP INVALID LOG2 PUSH5 0x6970667358 0x22 SLT KECCAK256 0xDF 0x2D SELFDESTRUCT PUSH10 0x3DED157B853CD405E441 0xB9 SWAP1 0xC7 MLOAD 0xE7 MLOAD 0xE 0xBC PUSH19 0xCDE8D5C3DA7C40333164736F6C634300080D00 CALLER "
				},
				"gasEstimates": {
					"creation": {
						"codeDepositCost": "1066400",
						"executionCost": "1107",
						"totalCost": "1067507"
					},
					"external": {
						"aggregateValues(uint256[])": "infinite",
						"getAuthorisedSignerIndex(address)": "infinite",
						"getUniqueSignersThreshold()": "409",
						"getValue()": "infinite",
						"validateTimestamp(uint256)": "infinite"
					}
				},
				"methodIdentifiers": {
					"aggregateValues(uint256[])": "b24ebfcc",
					"getAuthorisedSignerIndex(address)": "3ce142f5",
					"getUniqueSignersThreshold()": "f90c4924",
					"getValue()": "20965255",
					"validateTimestamp(uint256)": "f50b2efe"
				}
			},
			"storageLayout": {
				"storage": [],
				"types": null
			},
			"userdoc": {
				"kind": "user",
				"methods": {},
				"version": 1
			}
		}
	}
}