{
	"data": {
		"bytecode": {
			"linkReferences": {},
			"object": "608060405234801561001057600080fd5b506114d4806100206000396000f3fe608060405234801561001057600080fd5b50600436106100575760003560e01c8063209652551461005c5780633ce142f51461007a578063b24ebfcc146100aa578063f50b2efe146100da578063f90c4924146100f6575b600080fd5b610064610114565b6040516100719190610ee6565b60405180910390f35b610094600480360381019061008f9190610f73565b610149565b6040516100a19190610fbc565b60405180910390f35b6100c460048036038101906100bf919061115c565b61022d565b6040516100d19190610ee6565b60405180910390f35b6100f460048036038101906100ef91906111a5565b61023f565b005b6100fe61024b565b60405161010b9190610fbc565b60405180910390f35b6000807f3078326266366630316666393331643939630000000000000000000000000000905061014381610254565b91505090565b60007311fffc9970c41b9bfb9aa35be838d39bce918cff73ffffffffffffffffffffffffffffffffffffffff168273ffffffffffffffffffffffffffffffffffffffff160361019b5760009050610228565b73dbcc2c6c892c8d3e3fe4d325fec810b7376a5ed673ffffffffffffffffffffffffffffffffffffffff168273ffffffffffffffffffffffffffffffffffffffff16036101eb5760019050610228565b816040517fec459bc000000000000000000000000000000000000000000000000000000000815260040161021f91906111e1565b60405180910390fd5b919050565b6000610238826102f0565b9050919050565b61024881610302565b50565b60006002905090565b600080600167ffffffffffffffff81111561027257610271610fed565b5b6040519080825280602002602001820160405280156102a05781602001602082028036833780820191505090505b50905082816000815181106102b8576102b76111fc565b5b6020026020010181815250506102cd816103cc565b6000815181106102e0576102df6111fc565b5b6020026020010151915050919050565b60006102fb826103de565b9050919050565b60006103e8826103129190611289565b90508042101561037457603c428261032a91906112ba565b111561036f5780426040517fb6b0916d0000000000000000000000000000000000000000000000000000000081526004016103669291906112ee565b60405180910390fd5b6103c8565b60b4814261038291906112ba565b11156103c75780426040517f0321d0b50000000000000000000000000000000000000000000000000000000081526004016103be9291906112ee565b60405180910390fd5b5b5050565b60606103d7826104d2565b9050919050565b60008082510361041a576040517f9e198af900000000000000000000000000000000000000000000000000000000815260040160405180910390fd5b610423826106e1565b6000600283516104339190611289565b90506000600284516104459190611317565b036104ae5760006104968460018461045d91906112ba565b8151811061046e5761046d6111fc565b5b6020026020010151858481518110610489576104886111fc565b5b6020026020010151610734565b90506002816104a59190611289565b925050506104cd565b8281815181106104c1576104c06111fc565b5b60200260200101519150505b919050565b60606000825167ffffffffffffffff8111156104f1576104f0610fed565b5b60405190808252806020026020018201604052801561051f5781602001602082028036833780820191505090505b5090506000835167ffffffffffffffff81111561053f5761053e610fed565b5b60405190808252806020026020018201604052801561056d5781602001602082028036833780820191505090505b5090506000845167ffffffffffffffff81111561058d5761058c610fed565b5b6040519080825280602002602001820160405280156105c057816020015b60608152602001906001900390816105ab5790505b50905060005b8551811015610653576105d761024b565b60ff1667ffffffffffffffff8111156105f3576105f2610fed565b5b6040519080825280602002602001820160405280156106215781602001602082028036833780820191505090505b50828281518110610635576106346111fc565b5b6020026020010181905250808061064b90611348565b9150506105c6565b50600061065e61074a565b9050600061066b8261085b565b61ffff16905060028261067e9190611390565b91506000604051905060005b828110156106c95760006106a18a898989896108b7565b905080856106af9190611390565b9450826040525080806106c190611348565b91505061068a565b506106d48487610baf565b9650505050505050919050565b805160208201602082028101815b8181101561072d57825b81811015610721578151815180821015610714578084528183525b50506020810190506106f9565b506020810190506106ef565b5050505050565b600081836107429190611390565b905092915050565b60008060203603356602ed57011e000081166602ed57011e0000149150508061079f576040517fe7764c9e00000000000000000000000000000000000000000000000000000000815260040160405180910390fd5b600080369050602911156107df576040517f5796f78a00000000000000000000000000000000000000000000000000000000815260040160405180910390fd5b602936033590506000600960038362ffffff166107fc9190611390565b6108069190611390565b9050600036905060028261081a9190611390565b1115610852576040517fc30a7bd700000000000000000000000000000000000000000000000000000000815260040160405180910390fd5b80935050505090565b60008060208361086b9190611390565b905060003690508111156108ab576040517f5796f78a00000000000000000000000000000000000000000000000000000000815260040160405180910390fd5b80360335915050919050565b6000806000806108c685610cfc565b91509150600080600060606000600d6108f46020886108e59190611390565b89610d7290919063ffffffff16565b6108fe9190611390565b9050600061092560688c6109129190611390565b6000369050610d8890919063ffffffff16565b905060006109578360418e61093a9190611390565b6109449190611390565b6000369050610d8890919063ffffffff16565b90506109638382610991565b93508260208501209450813596506109ad565b60006040519050818152602081019050818101604052919050565b600061099c83610976565b838382376020810391505092915050565b6109be8765ffffffffffff1661023f565b6109d48560418e6109cf9190611390565b610d9e565b95506109df86610149565b60ff1699505050505050505060008060005b84811015610b7a57610a04888583610e1d565b809350819450505060005b8c51811015610b66578c8181518110610a2b57610a2a6111fc565b5b60200260200101518403610b535760008b8281518110610a4e57610a4d6111fc565b5b60200260200101519050610a628189610ea3565b158015610a925750610a7261024b565b60ff168d8381518110610a8857610a876111fc565b5b6020026020010151105b15610b4d578c8281518110610aaa57610aa96111fc565b5b602002602001018051809190610abf90611348565b81525050838b8381518110610ad757610ad66111fc565b5b602002602001015160018f8581518110610af457610af36111fc565b5b6020026020010151610b0691906112ba565b81518110610b1757610b166111fc565b5b602002602001018181525050610b2d8189610ebc565b8c8381518110610b4057610b3f6111fc565b5b6020026020010181815250505b50610b66565b8080610b5e90611348565b915050610a0f565b508080610b7290611348565b9150506109f1565b50505081602082610b8b9190611390565b610b9591906113e6565b604e610ba19190611390565b935050505095945050505050565b60606000835167ffffffffffffffff811115610bce57610bcd610fed565b5b604051908082528060200260200182016040528015610bfc5781602001602082028036833780820191505090505b5090506000610c0961024b565b60ff16905060005b8551811015610cf05781858281518110610c2e57610c2d6111fc565b5b60200260200101511015610c9557848181518110610c4f57610c4e6111fc565b5b6020026020010151826040517f2b13aef5000000000000000000000000000000000000000000000000000000008152600401610c8c9291906112ee565b60405180910390fd5b6000610cba878381518110610cad57610cac6111fc565b5b602002602001015161022d565b905080848381518110610cd057610ccf6111fc565b5b602002602001018181525050508080610ce890611348565b915050610c11565b50819250505092915050565b6000806000806000604186610d119190611390565b90506000610d38602083610d259190611390565b6000369050610d8890919063ffffffff16565b905080359350610d52600382610d8890919063ffffffff16565b9050803592508362ffffff1695508263ffffffff16945050505050915091565b60008183610d8091906113e6565b905092915050565b60008183610d9691906112ba565b905092915050565b6000806000808436038035935060208101905080359250602081019050803560001a91505060018682858560405160008152602001604052604051610de69493929190611459565b6020604051602081039080840390855afa158015610e08573d6000803e3d6000fd5b50505060206040510351935050505092915050565b6000806000604e86610e2f9190611390565b90506000610e70610e61602088610e469190611390565b876001610e539190611390565b610d7290919063ffffffff16565b8361073490919063ffffffff16565b90506000610e8b826000369050610d8890919063ffffffff16565b90508035945060208101359350505050935093915050565b600080826001901b841690506000811191505092915050565b6000816001901b8317905092915050565b6000819050919050565b610ee081610ecd565b82525050565b6000602082019050610efb6000830184610ed7565b92915050565b6000604051905090565b600080fd5b600080fd5b600073ffffffffffffffffffffffffffffffffffffffff82169050919050565b6000610f4082610f15565b9050919050565b610f5081610f35565b8114610f5b57600080fd5b50565b600081359050610f6d81610f47565b92915050565b600060208284031215610f8957610f88610f0b565b5b6000610f9784828501610f5e565b91505092915050565b600060ff82169050919050565b610fb681610fa0565b82525050565b6000602082019050610fd16000830184610fad565b92915050565b600080fd5b6000601f19601f8301169050919050565b7f4e487b7100000000000000000000000000000000000000000000000000000000600052604160045260246000fd5b61102582610fdc565b810181811067ffffffffffffffff8211171561104457611043610fed565b5b80604052505050565b6000611057610f01565b9050611063828261101c565b919050565b600067ffffffffffffffff82111561108357611082610fed565b5b602082029050602081019050919050565b600080fd5b6110a281610ecd565b81146110ad57600080fd5b50565b6000813590506110bf81611099565b92915050565b60006110d86110d384611068565b61104d565b905080838252602082019050602084028301858111156110fb576110fa611094565b5b835b81811015611124578061111088826110b0565b8452602084019350506020810190506110fd565b5050509392505050565b600082601f83011261114357611142610fd7565b5b81356111538482602086016110c5565b91505092915050565b60006020828403121561117257611171610f0b565b5b600082013567ffffffffffffffff8111156111905761118f610f10565b5b61119c8482850161112e565b91505092915050565b6000602082840312156111bb576111ba610f0b565b5b60006111c9848285016110b0565b91505092915050565b6111db81610f35565b82525050565b60006020820190506111f660008301846111d2565b92915050565b7f4e487b7100000000000000000000000000000000000000000000000000000000600052603260045260246000fd5b7f4e487b7100000000000000000000000000000000000000000000000000000000600052601260045260246000fd5b7f4e487b7100000000000000000000000000000000000000000000000000000000600052601160045260246000fd5b600061129482610ecd565b915061129f83610ecd565b9250826112af576112ae61122b565b5b828204905092915050565b60006112c582610ecd565b91506112d083610ecd565b9250828210156112e3576112e261125a565b5b828203905092915050565b60006040820190506113036000830185610ed7565b6113106020830184610ed7565b9392505050565b600061132282610ecd565b915061132d83610ecd565b92508261133d5761133c61122b565b5b828206905092915050565b600061135382610ecd565b91507fffffffffffffffffffffffffffffffffffffffffffffffffffffffffffffffff82036113855761138461125a565b5b600182019050919050565b600061139b82610ecd565b91506113a683610ecd565b9250827fffffffffffffffffffffffffffffffffffffffffffffffffffffffffffffffff038211156113db576113da61125a565b5b828201905092915050565b60006113f182610ecd565b91506113fc83610ecd565b9250817fffffffffffffffffffffffffffffffffffffffffffffffffffffffffffffffff04831182151516156114355761143461125a565b5b828202905092915050565b6000819050919050565b61145381611440565b82525050565b600060808201905061146e600083018761144a565b61147b6020830186610fad565b611488604083018561144a565b611495606083018461144a565b9594505050505056fea2646970667358221220df2dff693ded157b853cd405e441b990c751e7510ebc72cde8d5c3da7c40333164736f6c634300080d0033",
			"opcodes": "PUSH1 0x80 PUSH1 0x40 MSTORE CALLVALUE DUP1 ISZERO PUSH2 0x10 JUMPI PUSH1 0x0 DUP1 REVERT JUMPDEST POP PUSH2 0x14D4 DUP1 PUSH2 0x20 PUSH1 0x0 CODECOPY PUSH1 0x0 RETURN INVALID PUSH1 0x80 PUSH1 0x40 MSTORE CALLVALUE DUP1 ISZERO PUSH2 0x10 JUMPI PUSH1 0x0 DUP1 REVERT JUMPDEST POP PUSH1 0x4 CALLDATASIZE LT PUSH2 0x57 JUMPI PUSH1 0x0 CALLDATALOAD PUSH1 0xE0 SHR DUP1 PUSH4 0x20965255 EQ PUSH2 0x5C JUMPI DUP1 PUSH4 0x3CE142F5 EQ PUSH2 0x7A JUMPI DUP1 PUSH4 0xB24EBFCC EQ PUSH2 0xAA JUMPI DUP1 PUSH4 0xF50B2EFE EQ PUSH2 0xDA JUMPI DUP1 PUSH4 0xF90C4924 EQ PUSH2 0xF6 JUMPI JUMPDEST PUSH1 0x0 DUP1 REVERT JUMPDEST PUSH2 0x64 PUSH2 0x114 JUMP JUMPDEST PUSH1 0x40 MLOAD PUSH2 0x71 SWAP2 SWAP1 PUSH2 0xEE6 JUMP JUMPDEST PUSH1 0x40 MLOAD DUP1 SWAP2 SUB SWAP1 RETURN JUMPDEST PUSH2 0x94 PUSH1 0x4 DUP1 CALLDATASIZE SUB DUP2 ADD SWAP1 PUSH2 0x8F SWAP2 SWAP1 PUSH2 0xF73 JUMP JUMPDEST PUSH2 0x149 JUMP JUMPDEST PUSH1 0x40 MLOAD PUSH2 0xA1 SWAP2 SWAP1 PUSH2 0xFBC JUMP JUMPDEST PUSH1 0x40 MLOAD DUP1 SWAP2 SUB SWAP1 RETURN JUMPDEST PUSH2 0xC4 PUSH1 0x4 DUP1 CALLDATASIZE SUB DUP2 ADD SWAP1 PUSH2 0xBF SWAP2 SWAP1 PUSH2 0x115C JUMP JUMPDEST PUSH2 0x22D JUMP JUMPDEST PUSH1 0x40 MLOAD PUSH2 0xD1 SWAP2 SWAP1 PUSH2 0xEE6 JUMP JUMPDEST PUSH1 0x40 MLOAD DUP1 SWAP2 SUB SWAP1 RETURN JUMPDEST PUSH2 0xF4 PUSH1 0x4 DUP1 CALLDATASIZE SUB DUP2 ADD SWAP1 PUSH2 0xEF SWAP2 SWAP1 PUSH2 0x11A5 JUMP JUMPDEST PUSH2 0x23F JUMP JUMPDEST STOP JUMPDEST PUSH2 0xFE PUSH2 0x24B JUMP JUMPDEST PUSH1 0x40 MLOAD PUSH2 0x10B SWAP2 SWAP1 PUSH2 0xFBC JUMP JUMPDEST PUSH1 0x40 MLOAD DUP1 SWAP2 SUB SWAP1 RETURN JUMPDEST PUSH1 0x0 DUP1 PUSH32 0x3078326266366630316666393331643939630000000000000000000000000000 SWAP1 POP PUSH2 0x143 DUP2 PUSH2 0x254 JUMP JUMPDEST SWAP2 POP POP SWAP1 JUMP JUMPDEST PUSH1 0x0 PUSH20 0x11FFFC9970C41B9BFB9AA35BE838D39BCE918CFF PUSH20 0xFFFFFFFFFFFFFFFFFFFFFFFFFFFFFFFFFFFFFFFF AND DUP3 PUSH20 0xFFFFFFFFFFFFFFFFFFFFFFFFFFFFFFFFFFFFFFFF AND SUB PUSH2 0x19B JUMPI PUSH1 0x0 SWAP1 POP PUSH2 0x228 JUMP JUMPDEST PUSH20 0xDBCC2C6C892C8D3E3FE4D325FEC810B7376A5ED6 PUSH20 0xFFFFFFFFFFFFFFFFFFFFFFFFFFFFFFFFFFFFFFFF AND DUP3 PUSH20 0xFFFFFFFFFFFFFFFFFFFFFFFFFFFFFFFFFFFFFFFF AND SUB PUSH2 0x1EB JUMPI PUSH1 0x1 SWAP1 POP PUSH2 0x228 JUMP JUMPDEST DUP2 PUSH1 0x40 MLOAD PUSH32 0xEC459BC000000000000000000000000000000000000000000000000000000000 DUP2 MSTORE PUSH1 0x4 ADD PUSH2 0x21F SWAP2 SWAP1 PUSH2 0x11E1 JUMP JUMPDEST PUSH1 0x40 MLOAD DUP1 SWAP2 SUB SWAP1 REVERT JUMPDEST SWAP2 SWAP1 POP JUMP JUMPDEST PUSH1 0x0 PUSH2 0x238 DUP3 PUSH2 0x2F0 JUMP JUMPDEST SWAP1 POP SWAP2 SWAP1 POP JUMP JUMPDEST PUSH2 0x248 DUP2 PUSH2 0x302 JUMP JUMPDEST POP JUMP JUMPDEST PUSH1 0x0 PUSH1 0x2 SWAP1 POP SWAP1 JUMP JUMPDEST PUSH1 0x0 DUP1 PUSH1 0x1 PUSH8 0xFFFFFFFFFFFFFFFF DUP2 GT ISZERO PUSH2 0x272 JUMPI PUSH2 0x271 PUSH2 0xFED JUMP JUMPDEST JUMPDEST PUSH1 0x40 MLOAD SWAP1 DUP1 DUP3 MSTORE DUP1 PUSH1 0x20 MUL PUSH1 0x20 ADD DUP3 ADD PUSH1 0x40 MSTORE DUP1 ISZERO PUSH2 0x2A0 JUMPI DUP2 PUSH1 0x20 ADD PUSH1 0x20 DUP3 MUL DUP1 CALLDATASIZE DUP4 CALLDATACOPY DUP1 DUP3 ADD SWAP2 POP POP SWAP1 POP JUMPDEST POP SWAP1 POP DUP3 DUP2 PUSH1 0x0 DUP2 MLOAD DUP2 LT PUSH2 0x2B8 JUMPI PUSH2 0x2B7 PUSH2 0x11FC JUMP JUMPDEST JUMPDEST PUSH1 0x20 MUL PUSH1 0x20 ADD ADD DUP2 DUP2 MSTORE POP POP PUSH2 0x2CD DUP2 PUSH2 0x3CC JUMP JUMPDEST PUSH1 0x0 DUP2 MLOAD DUP2 LT PUSH2 0x2E0 JUMPI PUSH2 0x2DF PUSH2 0x11FC JUMP JUMPDEST JUMPDEST PUSH1 0x20 MUL PUSH1 0x20 ADD ADD MLOAD SWAP2 POP POP SWAP2 SWAP1 POP JUMP JUMPDEST PUSH1 0x0 PUSH2 0x2FB DUP3 PUSH2 0x3DE JUMP JUMPDEST SWAP1 POP SWAP2 SWAP1 POP JUMP JUMPDEST PUSH1 0x0 PUSH2 0x3E8 DUP3 PUSH2 0x312 SWAP2 SWAP1 PUSH2 0x1289 JUMP JUMPDEST SWAP1 POP DUP1 TIMESTAMP LT ISZERO PUSH2 0x374 JUMPI PUSH1 0x3C TIMESTAMP DUP3 PUSH2 0x32A SWAP2 SWAP1 PUSH2 0x12BA JUMP JUMPDEST GT ISZERO PUSH2 0x36F JUMPI DUP1 TIMESTAMP PUSH1 0x40 MLOAD PUSH32 0xB6B0916D00000000000000000000000000000000000000000000000000000000 DUP2 MSTORE PUSH1 0x4 ADD PUSH2 0x366 SWAP3 SWAP2 SWAP1 PUSH2 0x12EE JUMP JUMPDEST PUSH1 0x40 MLOAD DUP1 SWAP2 SUB SWAP1 REVERT JUMPDEST PUSH2 0x3C8 JUMP JUMPDEST PUSH1 0xB4 DUP2 TIMESTAMP PUSH2 0x382 SWAP2 SWAP1 PUSH2 0x12BA JUMP JUMPDEST GT ISZERO PUSH2 0x3C7 JUMPI DUP1 TIMESTAMP PUSH1 0x40 MLOAD PUSH32 0x321D0B500000000000000000000000000000000000000000000000000000000 DUP2 MSTORE PUSH1 0x4 ADD PUSH2 0x3BE SWAP3 SWAP2 SWAP1 PUSH2 0x12EE JUMP JUMPDEST PUSH1 0x40 MLOAD DUP1 SWAP2 SUB SWAP1 REVERT JUMPDEST JUMPDEST POP POP JUMP JUMPDEST PUSH1 0x60 PUSH2 0x3D7 DUP3 PUSH2 0x4D2 JUMP JUMPDEST SWAP1 POP SWAP2 SWAP1 POP JUMP JUMPDEST PUSH1 0x0 DUP1 DUP3 MLOAD SUB PUSH2 0x41A JUMPI PUSH1 0x40 MLOAD PUSH32 0x9E198AF900000000000000000000000000000000000000000000000000000000 DUP2 MSTORE PUSH1 0x4 ADD PUSH1 0x40 MLOAD DUP1 SWAP2 SUB SWAP1 REVERT JUMPDEST PUSH2 0x423 DUP3 PUSH2 0x6E1 JUMP JUMPDEST PUSH1 0x0 PUSH1 0x2 DUP4 MLOAD PUSH2 0x433 SWAP2 SWAP1 PUSH2 0x1289 JUMP JUMPDEST SWAP1 POP PUSH1 0x0 PUSH1 0x2 DUP5 MLOAD PUSH2 0x445 SWAP2 SWAP1 PUSH2 0x1317 JUMP JUMPDEST SUB PUSH2 0x4AE JUMPI PUSH1 0x0 PUSH2 0x496 DUP5 PUSH1 0x1 DUP5 PUSH2 0x45D SWAP2 SWAP1 PUSH2 0x12BA JUMP JUMPDEST DUP2 MLOAD DUP2 LT PUSH2 0x46E JUMPI PUSH2 0x46D PUSH2 0x11FC JUMP JUMPDEST JUMPDEST PUSH1 0x20 MUL PUSH1 0x20 ADD ADD MLOAD DUP6 DUP5 DUP2 MLOAD DUP2 LT PUSH2 0x489 JUMPI PUSH2 0x488 PUSH2 0x11FC JUMP JUMPDEST JUMPDEST PUSH1 0x20 MUL PUSH1 0x20 ADD ADD MLOAD PUSH2 0x734 JUMP JUMPDEST SWAP1 POP PUSH1 0x2 DUP2 PUSH2 0x4A5 SWAP2 SWAP1 PUSH2 0x1289 JUMP JUMPDEST SWAP3 POP POP POP PUSH2 0x4CD JUMP JUMPDEST DUP3 DUP2 DUP2 MLOAD DUP2 LT PUSH2 0x4C1 JUMPI PUSH2 0x4C0 PUSH2 0x11FC JUMP JUMPDEST JUMPDEST PUSH1 0x20 MUL PUSH1 0x20 ADD ADD MLOAD SWAP2 POP POP JUMPDEST SWAP2 SWAP1 POP JUMP JUMPDEST PUSH1 0x60 PUSH1 0x0 DUP3 MLOAD PUSH8 0xFFFFFFFFFFFFFFFF DUP2 GT ISZERO PUSH2 0x4F1 JUMPI PUSH2 0x4F0 PUSH2 0xFED JUMP JUMPDEST JUMPDEST PUSH1 0x40 MLOAD SWAP1 DUP1 DUP3 MSTORE DUP1 PUSH1 0x20 MUL PUSH1 0x20 ADD DUP3 ADD PUSH1 0x40 MSTORE DUP1 ISZERO PUSH2 0x51F JUMPI DUP2 PUSH1 0x20 ADD PUSH1 0x20 DUP3 MUL DUP1 CALLDATASIZE DUP4 CALLDATACOPY DUP1 DUP3 ADD SWAP2 POP POP SWAP1 POP JUMPDEST POP SWAP1 POP PUSH1 0x0 DUP4 MLOAD PUSH8 0xFFFFFFFFFFFFFFFF DUP2 GT ISZERO PUSH2 0x53F JUMPI PUSH2 0x53E PUSH2 0xFED JUMP JUMPDEST JUMPDEST PUSH1 0x40 MLOAD SWAP1 DUP1 DUP3 MSTORE DUP1 PUSH1 0x20 MUL PUSH1 0x20 ADD DUP3 ADD PUSH1 0x40 MSTORE DUP1 ISZERO PUSH2 0x56D JUMPI DUP2 PUSH1 0x20 ADD PUSH1 0x20 DUP3 MUL DUP1 CALLDATASIZE DUP4 CALLDATACOPY DUP1 DUP3 ADD SWAP2 POP POP SWAP1 POP JUMPDEST POP SWAP1 POP PUSH1 0x0 DUP5 MLOAD PUSH8 0xFFFFFFFFFFFFFFFF DUP2 GT ISZERO PUSH2 0x58D JUMPI PUSH2 0x58C PUSH2 0xFED JUMP JUMPDEST JUMPDEST PUSH1 0x40 MLOAD SWAP1 DUP1 DUP3 MSTORE DUP1 PUSH1 0x20 MUL PUSH1 0x20 ADD DUP3 ADD PUSH1 0x40 MSTORE DUP1 ISZERO PUSH2 0x5C0 JUMPI DUP2 PUSH1 0x20 ADD JUMPDEST PUSH1 0x60 DUP2 MSTORE PUSH1 0x20 ADD SWAP1 PUSH1 0x1 SWAP1 SUB SWAP1 DUP2 PUSH2 0x5AB JUMPI SWAP1 POP JUMPDEST POP SWAP1 POP PUSH1 0x0 JUMPDEST DUP6 MLOAD DUP2 LT ISZERO PUSH2 0x653 JUMPI PUSH2 0x5D7 PUSH2 0x24B JUMP JUMPDEST PUSH1 0xFF AND PUSH8 0xFFFFFFFFFFFFFFFF DUP2 GT ISZERO PUSH2 0x5F3 JUMPI PUSH2 0x5F2 PUSH2 0xFED JUMP JUMPDEST JUMPDEST PUSH1 0x40 MLOAD SWAP1 DUP1 DUP3 MSTORE DUP1 PUSH1 0x20 MUL PUSH1 0x20 ADD DUP3 ADD PUSH1 0x40 MSTORE DUP1 ISZERO PUSH2 0x621 JUMPI DUP2 PUSH1 0x20 ADD PUSH1 0x20 DUP3 MUL DUP1 CALLDATASIZE DUP4 CALLDATACOPY DUP1 DUP3 ADD SWAP2 POP POP SWAP1 POP JUMPDEST POP DUP3 DUP3 DUP2 MLOAD DUP2 LT PUSH2 0x635 JUMPI PUSH2 0x634 PUSH2 0x11FC JUMP JUMPDEST JUMPDEST PUSH1 0x20 MUL PUSH1 0x20 ADD ADD DUP2 SWAP1 MSTORE POP DUP1 DUP1 PUSH2 0x64B SWAP1 PUSH2 0x1348 JUMP JUMPDEST SWAP2 POP POP PUSH2 0x5C6 JUMP JUMPDEST POP PUSH1 0x0 PUSH2 0x65E PUSH2 0x74A JUMP JUMPDEST SWAP1 POP PUSH1 0x0 PUSH2 0x66B DUP3 PUSH2 0x85B JUMP JUMPDEST PUSH2 0xFFFF AND SWAP1 POP PUSH1 0x2 DUP3 PUSH2 0x67E SWAP2 SWAP1 PUSH2 0x1390 JUMP JUMPDEST SWAP2 POP PUSH1 0x0 PUSH1 0x40 MLOAD SWAP1 POP PUSH1 0x0 JUMPDEST DUP3 DUP2 LT ISZERO PUSH2 0x6C9 JUMPI PUSH1 0x0 PUSH2 0x6A1 DUP11 DUP10 DUP10 DUP10 DUP10 PUSH2 0x8B7 JUMP JUMPDEST SWAP1 POP DUP1 DUP6 PUSH2 0x6AF SWAP2 SWAP1 PUSH2 0x1390 JUMP JUMPDEST SWAP5 POP DUP3 PUSH1 0x40 MSTORE POP DUP1 DUP1 PUSH2 0x6C1 SWAP1 PUSH2 0x1348 JUMP JUMPDEST SWAP2 POP POP PUSH2 0x68A JUMP JUMPDEST POP PUSH2 0x6D4 DUP5 DUP8 PUSH2 0xBAF JUMP JUMPDEST SWAP7 POP POP POP POP POP POP POP SWAP2 SWAP1 POP JUMP JUMPDEST DUP1 MLOAD PUSH1 0x20 DUP3 ADD PUSH1 0x20 DUP3 MUL DUP2 ADD DUP2 JUMPDEST DUP2 DUP2 LT ISZERO PUSH2 0x72D JUMPI DUP3 JUMPDEST DUP2 DUP2 LT ISZERO PUSH2 0x721 JUMPI DUP2 MLOAD DUP2 MLOAD DUP1 DUP3 LT ISZERO PUSH2 0x714 JUMPI DUP1 DUP5 MSTORE DUP2 DUP4 MSTORE JUMPDEST POP POP PUSH1 0x20 DUP2 ADD SWAP1 POP PUSH2 0x6F9 JUMP JUMPDEST POP PUSH1 0x20 DUP2 ADD SWAP1 POP PUSH2 0x6EF JUMP JUMPDEST POP POP POP POP POP JUMP JUMPDEST PUSH1 0x0 DUP2 DUP4 PUSH2 0x742 SWAP2 SWAP1 PUSH2 0x1390 JUMP JUMPDEST SWAP1 POP SWAP3 SWAP2 POP POP JUMP JUMPDEST PUSH1 0x0 DUP1 PUSH1 0x20 CALLDATASIZE SUB CALLDATALOAD PUSH7 0x2ED57011E0000 DUP2 AND PUSH7 0x2ED57011E0000 EQ SWAP2 POP POP DUP1 PUSH2 0x79F JUMPI PUSH1 0x40 MLOAD PUSH32 0xE7764C9E00000000000000000000000000000000000000000000000000000000 DUP2 MSTORE PUSH1 0x4 ADD PUSH1 0x40 MLOAD DUP1 SWAP2 SUB SWAP1 REVERT JUMPDEST PUSH1 0x0 DUP1 CALLDATASIZE SWAP1 POP PUSH1 0x29 GT ISZERO PUSH2 0x7DF JUMPI PUSH1 0x40 MLOAD PUSH32 0x5796F78A00000000000000000000000000000000000000000000000000000000 DUP2 MSTORE PUSH1 0x4 ADD PUSH1 0x40 MLOAD DUP1 SWAP2 SUB SWAP1 REVERT JUMPDEST PUSH1 0x29 CALLDATASIZE SUB CALLDATALOAD SWAP1 POP PUSH1 0x0 PUSH1 0x9 PUSH1 0x3 DUP4 PUSH3 0xFFFFFF AND PUSH2 0x7FC SWAP2 SWAP1 PUSH2 0x1390 JUMP JUMPDEST PUSH2 0x806 SWAP2 SWAP1 PUSH2 0x1390 JUMP JUMPDEST SWAP1 POP PUSH1 0x0 CALLDATASIZE SWAP1 POP PUSH1 0x2 DUP3 PUSH2 0x81A SWAP2 SWAP1 PUSH2 0x1390 JUMP JUMPDEST GT ISZERO PUSH2 0x852 JUMPI PUSH1 0x40 MLOAD PUSH32 0xC30A7BD700000000000000000000000000000000000000000000000000000000 DUP2 MSTORE PUSH1 0x4 ADD PUSH1 0x40 MLOAD DUP1 SWAP2 SUB SWAP1 REVERT JUMPDEST DUP1 SWAP4 POP POP POP POP SWAP1 JUMP JUMPDEST PUSH1 0x0 DUP1 PUSH1 0x20 DUP4 PUSH2 0x86B SWAP2 SWAP1 PUSH2 0x1390 JUMP JUMPDEST SWAP1 POP PUSH1 0x0 CALLDATASIZE SWAP1 POP DUP2 GT ISZERO PUSH2 0x8AB JUMPI PUSH1 0x40 MLOAD PUSH32 0x5796F78A00000000000000000000000000000000000000000000000000000000 DUP2 MSTORE PUSH1 0x4 ADD PUSH1 0x40 MLOAD DUP1 SWAP2 SUB SWAP1 REVERT JUMPDEST DUP1 CALLDATASIZE SUB CALLDATALOAD SWAP2 POP POP SWAP2 SWAP1 POP JUMP JUMPDEST PUSH1 0x0 DUP1 PUSH1 0x0 DUP1 PUSH2 0x8C6 DUP6 PUSH2 0xCFC JUMP JUMPDEST SWAP2 POP SWAP2 POP PUSH1 0x0 DUP1 PUSH1 0x0 PUSH1 0x60 PUSH1 0x0 PUSH1 0xD PUSH2 0x8F4 PUSH1 0x20 DUP9 PUSH2 0x8E5 SWAP2 SWAP1 PUSH2 0x1390 JUMP JUMPDEST DUP10 PUSH2 0xD72 SWAP1 SWAP2 SWAP1 PUSH4 0xFFFFFFFF AND JUMP JUMPDEST PUSH2 0x8FE SWAP2 SWAP1 PUSH2 0x1390 JUMP JUMPDEST SWAP1 POP PUSH1 0x0 PUSH2 0x925 PUSH1 0x68 DUP13 PUSH2 0x912 SWAP2 SWAP1 PUSH2 0x1390 JUMP JUMPDEST PUSH1 0x0 CALLDATASIZE SWAP1 POP PUSH2 0xD88 SWAP1 SWAP2 SWAP1 PUSH4 0xFFFFFFFF AND JUMP JUMPDEST SWAP1 POP PUSH1 0x0 PUSH2 0x957 DUP4 PUSH1 0x41 DUP15 PUSH2 0x93A SWAP2 SWAP1 PUSH2 0x1390 JUMP JUMPDEST PUSH2 0x944 SWAP2 SWAP1 PUSH2 0x1390 JUMP JUMPDEST PUSH1 0x0 CALLDATASIZE SWAP1 POP PUSH2 0xD88 SWAP1 SWAP2 SWAP1 PUSH4 0xFFFFFFFF AND JUMP JUMPDEST SWAP1 POP PUSH2 0x963 DUP4 DUP3 PUSH2 0x991 JUMP JUMPDEST SWAP4 POP DUP3 PUSH1 0x20 DUP6 ADD KECCAK256 SWAP5 POP DUP2 CALLDATALOAD SWAP7 POP PUSH2 0x9AD JUMP JUMPDEST PUSH1 0x0 PUSH1 0x40 MLOAD SWAP1 POP DUP2 DUP2 MSTORE PUSH1 0x20 DUP2 ADD SWAP1 POP DUP2 DUP2 ADD PUSH1 0x40 MSTORE SWAP2 SWAP1 POP JUMP JUMPDEST PUSH1 0x0 PUSH2 0x99C DUP4 PUSH2 0x976 JUMP JUMPDEST DUP4 DUP4 DUP3 CALLDATACOPY PUSH1 0x20 DUP2 SUB SWAP2 POP POP SWAP3 SWAP2 POP POP JUMP JUMPDEST PUSH2 0x9BE DUP8 PUSH6 0xFFFFFFFFFFFF AND PUSH2 0x23F JUMP JUMPDEST PUSH2 0x9D4 DUP6 PUSH1 0x41 DUP15 PUSH2 0x9CF SWAP2 SWAP1 PUSH2 0x1390 JUMP JUMPDEST PUSH2 0xD9E JUMP JUMPDEST SWAP6 POP PUSH2 0x9DF DUP7 PUSH2 0x149 JUMP JUMPDEST PUSH1 0xFF AND SWAP10 POP POP POP POP POP POP POP POP PUSH1 0x0 DUP1 PUSH1 0x0 JUMPDEST DUP5 DUP2 LT ISZERO PUSH2 0xB7A JUMPI PUSH2 0xA04 DUP9 DUP6 DUP4 PUSH2 0xE1D JUMP JUMPDEST DUP1 SWAP4 POP DUP2 SWAP5 POP POP POP PUSH1 0x0 JUMPDEST DUP13 MLOAD DUP2 LT ISZERO PUSH2 0xB66 JUMPI DUP13 DUP2 DUP2 MLOAD DUP2 LT PUSH2 0xA2B JUMPI PUSH2 0xA2A PUSH2 0x11FC JUMP JUMPDEST JUMPDEST PUSH1 0x20 MUL PUSH1 0x20 ADD ADD MLOAD DUP5 SUB PUSH2 0xB53 JUMPI PUSH1 0x0 DUP12 DUP3 DUP2 MLOAD DUP2 LT PUSH2 0xA4E JUMPI PUSH2 0xA4D PUSH2 0x11FC JUMP JUMPDEST JUMPDEST PUSH1 0x20 MUL PUSH1 0x20 ADD ADD MLOAD SWAP1 POP PUSH2 0xA62 DUP2 DUP10 PUSH2 0xEA3 JUMP JUMPDEST ISZERO DUP1 ISZERO PUSH2 0xA92 JUMPI POP PUSH2 0xA72 PUSH2 0x24B JUMP JUMPDEST PUSH1 0xFF AND DUP14 DUP4 DUP2 MLOAD DUP2 LT PUSH2 0xA88 JUMPI PUSH2 0xA87 PUSH2 0x11FC JUMP JUMPDEST JUMPDEST PUSH1 0x20 MUL PUSH1 0x20 ADD ADD MLOAD LT JUMPDEST ISZERO PUSH2 0xB4D JUMPI DUP13 DUP3 DUP2 MLOAD DUP2 LT PUSH2 0xAAA JUMPI PUSH2 0xAA9 PUSH2 0x11FC JUMP JUMPDEST JUMPDEST PUSH1 0x20 MUL PUSH1 0x20 ADD ADD DUP1 MLOAD DUP1 SWAP2 SWAP1 PUSH2 0xABF SWAP1 PUSH2 0x1348 JUMP JUMPDEST DUP2 MSTORE POP POP DUP4 DUP12 DUP4 DUP2 MLOAD DUP2 LT PUSH2 0xAD7 JUMPI PUSH2 0xAD6 PUSH2 0x11FC JUMP JUMPDEST JUMPDEST PUSH1 0x20 MUL PUSH1 0x20 ADD ADD MLOAD PUSH1 0x1 DUP16 DUP6 DUP2 MLOAD DUP2 LT PUSH2 0xAF4 JUMPI PUSH2 0xAF3 PUSH2 0x11FC JUMP JUMPDEST JUMPDEST PUSH1 0x20 MUL PUSH1 0x20 ADD ADD MLOAD PUSH2 0xB06 SWAP2 SWAP1 PUSH2 0x12BA JUMP JUMPDEST DUP2 MLOAD DUP2 LT PUSH2 0xB17 JUMPI PUSH2 0xB16 PUSH2 0x11FC JUMP JUMPDEST JUMPDEST PUSH1 0x20 MUL PUSH1 0x20 ADD ADD DUP2 DUP2 MSTORE POP POP PUSH2 0xB2D DUP2 DUP10 PUSH2 0xEBC JUMP JUMPDEST DUP13 DUP4 DUP2 MLOAD DUP2 LT PUSH2 0xB40 JUMPI PUSH2 0xB3F PUSH2 0x11FC JUMP JUMPDEST JUMPDEST PUSH1 0x20 MUL PUSH1 0x20 ADD ADD DUP2 DUP2 MSTORE POP POP JUMPDEST POP PUSH2 0xB66 JUMP JUMPDEST DUP1 DUP1 PUSH2 0xB5E SWAP1 PUSH2 0x1348 JUMP JUMPDEST SWAP2 POP POP PUSH2 0xA0F JUMP JUMPDEST POP DUP1 DUP1 PUSH2 0xB72 SWAP1 PUSH2 0x1348 JUMP JUMPDEST SWAP2 POP POP PUSH2 0x9F1 JUMP JUMPDEST POP POP POP DUP2 PUSH1 0x20 DUP3 PUSH2 0xB8B SWAP2 SWAP1 PUSH2 0x1390 JUMP JUMPDEST PUSH2 0xB95 SWAP2 SWAP1 PUSH2 0x13E6 JUMP JUMPDEST PUSH1 0x4E PUSH2 0xBA1 SWAP2 SWAP1 PUSH2 0x1390 JUMP JUMPDEST SWAP4 POP POP POP POP SWAP6 SWAP5 POP POP POP POP POP JUMP JUMPDEST PUSH1 0x60 PUSH1 0x0 DUP4 MLOAD PUSH8 0xFFFFFFFFFFFFFFFF DUP2 GT ISZERO PUSH2 0xBCE JUMPI PUSH2 0xBCD PUSH2 0xFED JUMP JUMPDEST JUMPDEST PUSH1 0x40 MLOAD SWAP1 DUP1 DUP3 MSTORE DUP1 PUSH1 0x20 MUL PUSH1 0x20 ADD DUP3 ADD PUSH1 0x40 MSTORE DUP1 ISZERO PUSH2 0xBFC JUMPI DUP2 PUSH1 0x20 ADD PUSH1 0x20 DUP3 MUL DUP1 CALLDATASIZE DUP4 CALLDATACOPY DUP1 DUP3 ADD SWAP2 POP POP SWAP1 POP JUMPDEST POP SWAP1 POP PUSH1 0x0 PUSH2 0xC09 PUSH2 0x24B JUMP JUMPDEST PUSH1 0xFF AND SWAP1 POP PUSH1 0x0 JUMPDEST DUP6 MLOAD DUP2 LT ISZERO PUSH2 0xCF0 JUMPI DUP2 DUP6 DUP3 DUP2 MLOAD DUP2 LT PUSH2 0xC2E JUMPI PUSH2 0xC2D PUSH2 0x11FC JUMP JUMPDEST JUMPDEST PUSH1 0x20 MUL PUSH1 0x20 ADD ADD MLOAD LT ISZERO PUSH2 0xC95 JUMPI DUP5 DUP2 DUP2 MLOAD DUP2 LT PUSH2 0xC4F JUMPI PUSH2 0xC4E PUSH2 0x11FC JUMP JUMPDEST JUMPDEST PUSH1 0x20 MUL PUSH1 0x20 ADD ADD MLOAD DUP3 PUSH1 0x40 MLOAD PUSH32 0x2B13AEF500000000000000000000000000000000000000000000000000000000 DUP2 MSTORE PUSH1 0x4 ADD PUSH2 0xC8C SWAP3 SWAP2 SWAP1 PUSH2 0x12EE JUMP JUMPDEST PUSH1 0x40 MLOAD DUP1 SWAP2 SUB SWAP1 REVERT JUMPDEST PUSH1 0x0 PUSH2 0xCBA DUP8 DUP4 DUP2 MLOAD DUP2 LT PUSH2 0xCAD JUMPI PUSH2 0xCAC PUSH2 0x11FC JUMP JUMPDEST JUMPDEST PUSH1 0x20 MUL PUSH1 0x20 ADD ADD MLOAD PUSH2 0x22D JUMP JUMPDEST SWAP1 POP DUP1 DUP5 DUP4 DUP2 MLOAD DUP2 LT PUSH2 0xCD0 JUMPI PUSH2 0xCCF PUSH2 0x11FC JUMP JUMPDEST JUMPDEST PUSH1 0x20 MUL PUSH1 0x20 ADD ADD DUP2 DUP2 MSTORE POP POP POP DUP1 DUP1 PUSH2 0xCE8 SWAP1 PUSH2 0x1348 JUMP JUMPDEST SWAP2 POP POP PUSH2 0xC11 JUMP JUMPDEST POP DUP2 SWAP3 POP POP POP SWAP3 SWAP2 POP POP JUMP JUMPDEST PUSH1 0x0 DUP1 PUSH1 0x0 DUP1 PUSH1 0x0 PUSH1 0x41 DUP7 PUSH2 0xD11 SWAP2 SWAP1 PUSH2 0x1390 JUMP JUMPDEST SWAP1 POP PUSH1 0x0 PUSH2 0xD38 PUSH1 0x20 DUP4 PUSH2 0xD25 SWAP2 SWAP1 PUSH2 0x1390 JUMP JUMPDEST PUSH1 0x0 CALLDATASIZE SWAP1 POP PUSH2 0xD88 SWAP1 SWAP2 SWAP1 PUSH4 0xFFFFFFFF AND JUMP JUMPDEST SWAP1 POP DUP1 CALLDATALOAD SWAP4 POP PUSH2 0xD52 PUSH1 0x3 DUP3 PUSH2 0xD88 SWAP1 SWAP2 SWAP1 PUSH4 0xFFFFFFFF AND JUMP JUMPDEST SWAP1 POP DUP1 CALLDATALOAD SWAP3 POP DUP4 PUSH3 0xFFFFFF AND SWAP6 POP DUP3 PUSH4 0xFFFFFFFF AND SWAP5 POP POP POP POP POP SWAP2 POP SWAP2 JUMP JUMPDEST PUSH1 0x0 DUP2 DUP4 PUSH2 0xD80 SWAP2 SWAP1 PUSH2 0x13E6 JUMP JUMPDEST SWAP1 POP SWAP3 SWAP2 POP POP JUMP JUMPDEST PUSH1 0x0 DUP2 DUP4 PUSH2 0xD96 SWAP2 SWAP1 PUSH2 0x12BA JUMP JUMPDEST SWAP1 POP SWAP3 SWAP2 POP POP JUMP JUMPDEST PUSH1 0x0 DUP1 PUSH1 0x0 DUP1 DUP5 CALLDATASIZE SUB DUP1 CALLDATALOAD SWAP4 POP PUSH1 0x20 DUP2 ADD SWAP1 POP DUP1 CALLDATALOAD SWAP3 POP PUSH1 0x20 DUP2 ADD SWAP1 POP DUP1 CALLDATALOAD PUSH1 0x0 BYTE SWAP2 POP POP PUSH1 0x1 DUP7 DUP3 DUP6 DUP6 PUSH1 0x40 MLOAD PUSH1 0x0 DUP2 MSTORE PUSH1 0x20 ADD PUSH1 0x40 MSTORE PUSH1 0x40 MLOAD PUSH2 0xDE6 SWAP5 SWAP4 SWAP3 SWAP2 SWAP1 PUSH2 0x1459 JUMP JUMPDEST PUSH1 0x20 PUSH1 0x40 MLOAD PUSH1 0x20 DUP2 SUB SWAP1 DUP1 DUP5 SUB SWAP1 DUP6 GAS STATICCALL ISZERO DUP1 ISZERO PUSH2 0xE08 JUMPI RETURNDATASIZE PUSH1 0x0 DUP1 RETURNDATACOPY RETURNDATASIZE PUSH1 0x0 REVERT JUMPDEST POP POP POP PUSH1 0x20 PUSH1 0x40 MLOAD SUB MLOAD SWAP4 POP POP POP POP SWAP3 SWAP2 POP POP JUMP JUMPDEST PUSH1 0x0 DUP1 PUSH1 0x0 PUSH1 0x4E DUP7 PUSH2 0xE2F SWAP2 SWAP1 PUSH2 0x1390 JUMP JUMPDEST SWAP1 POP PUSH1 0x0 PUSH2 0xE70 PUSH2 0xE61 PUSH1 0x20 DUP9 PUSH2 0xE46 SWAP2 SWAP1 PUSH2 0x1390 JUMP JUMPDEST DUP8 PUSH1 0x1 PUSH2 0xE53 SWAP2 SWAP1 PUSH2 0x1390 JUMP JUMPDEST PUSH2 0xD72 SWAP1 SWAP2 SWAP1 PUSH4 0xFFFFFFFF AND JUMP JUMPDEST DUP4 PUSH2 0x734 SWAP1 SWAP2 SWAP1 PUSH4 0xFFFFFFFF AND JUMP JUMPDEST SWAP1 POP PUSH1 0x0 PUSH2 0xE8B DUP3 PUSH1 0x0 CALLDATASIZE SWAP1 POP PUSH2 0xD88 SWAP1 SWAP2 SWAP1 PUSH4 0xFFFFFFFF AND JUMP JUMPDEST SWAP1 POP DUP1 CALLDATALOAD SWAP5 POP PUSH1 0x20 DUP2 ADD CALLDATALOAD SWAP4 POP POP POP POP SWAP4 POP SWAP4 SWAP2 POP POP JUMP JUMPDEST PUSH1 0x0 DUP1 DUP3 PUSH1 0x1 SWAP1 SHL DUP5 AND SWAP1 POP PUSH1 0x0 DUP2 GT SWAP2 POP POP SWAP3 SWAP2 POP POP JUMP JUMPDEST PUSH1 0x0 DUP2 PUSH1 0x1 SWAP1 SHL DUP4 OR SWAP1 POP SWAP3 SWAP2 POP POP JUMP JUMPDEST PUSH1 0x0 DUP2 SWAP1 POP SWAP2 SWAP1 POP JUMP JUMPDEST PUSH2 0xEE0 DUP2 PUSH2 0xECD JUMP JUMPDEST DUP3 MSTORE POP POP JUMP JUMPDEST PUSH1 0x0 PUSH1 0x20 DUP3 ADD SWAP1 POP PUSH2 0xEFB PUSH1 0x0 DUP4 ADD DUP5 PUSH2 0xED7 JUMP JUMPDEST SWAP3 SWAP2 POP POP JUMP JUMPDEST PUSH1 0x0 PUSH1 0x40 MLOAD SWAP1 POP SWAP1 JUMP JUMPDEST PUSH1 0x0 DUP1 REVERT JUMPDEST PUSH1 0x0 DUP1 REVERT JUMPDEST PUSH1 0x0 PUSH20 0xFFFFFFFFFFFFFFFFFFFFFFFFFFFFFFFFFFFFFFFF DUP3 AND SWAP1 POP SWAP2 SWAP1 POP JUMP JUMPDEST PUSH1 0x0 PUSH2 0xF40 DUP3 PUSH2 0xF15 JUMP JUMPDEST SWAP1 POP SWAP2 SWAP1 POP JUMP JUMPDEST PUSH2 0xF50 DUP2 PUSH2 0xF35 JUMP JUMPDEST DUP2 EQ PUSH2 0xF5B JUMPI PUSH1 0x0 DUP1 REVERT JUMPDEST POP JUMP JUMPDEST PUSH1 0x0 DUP2 CALLDATALOAD SWAP1 POP PUSH2 0xF6D DUP2 PUSH2 0xF47 JUMP JUMPDEST SWAP3 SWAP2 POP POP JUMP JUMPDEST PUSH1 0x0 PUSH1 0x20 DUP3 DUP5 SUB SLT ISZERO PUSH2 0xF89 JUMPI PUSH2 0xF88 PUSH2 0xF0B JUMP JUMPDEST JUMPDEST PUSH1 0x0 PUSH2 0xF97 DUP5 DUP3 DUP6 ADD PUSH2 0xF5E JUMP JUMPDEST SWAP2 POP POP SWAP3 SWAP2 POP POP JUMP JUMPDEST PUSH1 0x0 PUSH1 0xFF DUP3 AND SWAP1 POP SWAP2 SWAP1 POP JUMP JUMPDEST PUSH2 0xFB6 DUP2 PUSH2 0xFA0 JUMP JUMPDEST DUP3 MSTORE POP POP JUMP JUMPDEST PUSH1 0x0 PUSH1 0x20 DUP3 ADD SWAP1 POP PUSH2 0xFD1 PUSH1 0x0 DUP4 ADD DUP5 PUSH2 0xFAD JUMP JUMPDEST SWAP3 SWAP2 POP POP JUMP JUMPDEST PUSH1 0x0 DUP1 REVERT JUMPDEST PUSH1 0x0 PUSH1 0x1F NOT PUSH1 0x1F DUP4 ADD AND SWAP1 POP SWAP2 SWAP1 POP JUMP JUMPDEST PUSH32 0x4E487B7100000000000000000000000000000000000000000000000000000000 PUSH1 0x0 MSTORE PUSH1 0x41 PUSH1 0x4 MSTORE PUSH1 0x24 PUSH1 0x0 REVERT JUMPDEST PUSH2 0x1025 DUP3 PUSH2 0xFDC JUMP JUMPDEST DUP2 ADD DUP2 DUP2 LT PUSH8 0xFFFFFFFFFFFFFFFF DUP3 GT OR ISZERO PUSH2 0x1044 JUMPI PUSH2 0x1043 PUSH2 0xFED JUMP JUMPDEST JUMPDEST DUP1 PUSH1 0x40 MSTORE POP POP POP JUMP JUMPDEST PUSH1 0x0 PUSH2 0x1057 PUSH2 0xF01 JUMP JUMPDEST SWAP1 POP PUSH2 0x1063 DUP3 DUP3 PUSH2 0x101C JUMP JUMPDEST SWAP2 SWAP1 POP JUMP JUMPDEST PUSH1 0x0 PUSH8 0xFFFFFFFFFFFFFFFF DUP3 GT ISZERO PUSH2 0x1083 JUMPI PUSH2 0x1082 PUSH2 0xFED JUMP JUMPDEST JUMPDEST PUSH1 0x20 DUP3 MUL SWAP1 POP PUSH1 0x20 DUP2 ADD SWAP1 POP SWAP2 SWAP1 POP JUMP JUMPDEST PUSH1 0x0 DUP1 REVERT JUMPDEST PUSH2 0x10A2 DUP2 PUSH2 0xECD JUMP JUMPDEST DUP2 EQ PUSH2 0x10AD JUMPI PUSH1 0x0 DUP1 REVERT JUMPDEST POP JUMP JUMPDEST PUSH1 0x0 DUP2 CALLDATALOAD SWAP1 POP PUSH2 0x10BF DUP2 PUSH2 0x1099 JUMP JUMPDEST SWAP3 SWAP2 POP POP JUMP JUMPDEST PUSH1 0x0 PUSH2 0x10D8 PUSH2 0x10D3 DUP5 PUSH2 0x1068 JUMP JUMPDEST PUSH2 0x104D JUMP JUMPDEST SWAP1 POP DUP1 DUP4 DUP3 MSTORE PUSH1 0x20 DUP3 ADD SWAP1 POP PUSH1 0x20 DUP5 MUL DUP4 ADD DUP6 DUP2 GT ISZERO PUSH2 0x10FB JUMPI PUSH2 0x10FA PUSH2 0x1094 JUMP JUMPDEST JUMPDEST DUP4 JUMPDEST DUP2 DUP2 LT ISZERO PUSH2 0x1124 JUMPI DUP1 PUSH2 0x1110 DUP9 DUP3 PUSH2 0x10B0 JUMP JUMPDEST DUP5 MSTORE PUSH1 0x20 DUP5 ADD SWAP4 POP POP PUSH1 0x20 DUP2 ADD SWAP1 POP PUSH2 0x10FD JUMP JUMPDEST POP POP POP SWAP4 SWAP3 POP POP POP JUMP JUMPDEST PUSH1 0x0 DUP3 PUSH1 0x1F DUP4 ADD SLT PUSH2 0x1143 JUMPI PUSH2 0x1142 PUSH2 0xFD7 JUMP JUMPDEST JUMPDEST DUP2 CALLDATALOAD PUSH2 0x1153 DUP5 DUP3 PUSH1 0x20 DUP7 ADD PUSH2 0x10C5 JUMP JUMPDEST SWAP2 POP POP SWAP3 SWAP2 POP POP JUMP JUMPDEST PUSH1 0x0 PUSH1 0x20 DUP3 DUP5 SUB SLT ISZERO PUSH2 0x1172 JUMPI PUSH2 0x1171 PUSH2 0xF0B JUMP JUMPDEST JUMPDEST PUSH1 0x0 DUP3 ADD CALLDATALOAD PUSH8 0xFFFFFFFFFFFFFFFF DUP2 GT ISZERO PUSH2 0x1190 JUMPI PUSH2 0x118F PUSH2 0xF10 JUMP JUMPDEST JUMPDEST PUSH2 0x119C DUP5 DUP3 DUP6 ADD PUSH2 0x112E JUMP JUMPDEST SWAP2 POP POP SWAP3 SWAP2 POP POP JUMP JUMPDEST PUSH1 0x0 PUSH1 0x20 DUP3 DUP5 SUB SLT ISZERO PUSH2 0x11BB JUMPI PUSH2 0x11BA PUSH2 0xF0B JUMP JUMPDEST JUMPDEST PUSH1 0x0 PUSH2 0x11C9 DUP5 DUP3 DUP6 ADD PUSH2 0x10B0 JUMP JUMPDEST SWAP2 POP POP SWAP3 SWAP2 POP POP JUMP JUMPDEST PUSH2 0x11DB DUP2 PUSH2 0xF35 JUMP JUMPDEST DUP3 MSTORE POP POP JUMP JUMPDEST PUSH1 0x0 PUSH1 0x20 DUP3 ADD SWAP1 POP PUSH2 0x11F6 PUSH1 0x0 DUP4 ADD DUP5 PUSH2 0x11D2 JUMP JUMPDEST SWAP3 SWAP2 POP POP JUMP JUMPDEST PUSH32 0x4E487B7100000000000000000000000000000000000000000000000000000000 PUSH1 0x0 MSTORE PUSH1 0x32 PUSH1 0x4 MSTORE PUSH1 0x24 PUSH1 0x0 REVERT JUMPDEST PUSH32 0x4E487B7100000000000000000000000000000000000000000000000000000000 PUSH1 0x0 MSTORE PUSH1 0x12 PUSH1 0x4 MSTORE PUSH1 0x24 PUSH1 0x0 REVERT JUMPDEST PUSH32 0x4E487B7100000000000000000000000000000000000000000000000000000000 PUSH1 0x0 MSTORE PUSH1 0x11 PUSH1 0x4 MSTORE PUSH1 0x24 PUSH1 0x0 REVERT JUMPDEST PUSH1 0x0 PUSH2 0x1294 DUP3 PUSH2 0xECD JUMP JUMPDEST SWAP2 POP PUSH2 0x129F DUP4 PUSH2 0xECD JUMP JUMPDEST SWAP3 POP DUP3 PUSH2 0x12AF JUMPI PUSH2 0x12AE PUSH2 0x122B JUMP JUMPDEST JUMPDEST DUP3 DUP3 DIV SWAP1 POP SWAP3 SWAP2 POP POP JUMP JUMPDEST PUSH1 0x0 PUSH2 0x12C5 DUP3 PUSH2 0xECD JUMP JUMPDEST SWAP2 POP PUSH2 0x12D0 DUP4 PUSH2 0xECD JUMP JUMPDEST SWAP3 POP DUP3 DUP3 LT ISZERO PUSH2 0x12E3 JUMPI PUSH2 0x12E2 PUSH2 0x125A JUMP JUMPDEST JUMPDEST DUP3 DUP3 SUB SWAP1 POP SWAP3 SWAP2 POP POP JUMP JUMPDEST PUSH1 0x0 PUSH1 0x40 DUP3 ADD SWAP1 POP PUSH2 0x1303 PUSH1 0x0 DUP4 ADD DUP6 PUSH2 0xED7 JUMP JUMPDEST PUSH2 0x1310 PUSH1 0x20 DUP4 ADD DUP5 PUSH2 0xED7 JUMP JUMPDEST SWAP4 SWAP3 POP POP POP JUMP JUMPDEST PUSH1 0x0 PUSH2 0x1322 DUP3 PUSH2 0xECD JUMP JUMPDEST SWAP2 POP PUSH2 0x132D DUP4 PUSH2 0xECD JUMP JUMPDEST SWAP3 POP DUP3 PUSH2 0x133D JUMPI PUSH2 0x133C PUSH2 0x122B JUMP JUMPDEST JUMPDEST DUP3 DUP3 MOD SWAP1 POP SWAP3 SWAP2 POP POP JUMP JUMPDEST PUSH1 0x0 PUSH2 0x1353 DUP3 PUSH2 0xECD JUMP JUMPDEST SWAP2 POP PUSH32 0xFFFFFFFFFFFFFFFFFFFFFFFFFFFFFFFFFFFFFFFFFFFFFFFFFFFFFFFFFFFFFFFF DUP3 SUB PUSH2 0x1385 JUMPI PUSH2 0x1384 PUSH2 0x125A JUMP JUMPDEST JUMPDEST PUSH1 0x1 DUP3 ADD SWAP1 POP SWAP2 SWAP1 POP JUMP JUMPDEST PUSH1 0x0 PUSH2 0x139B DUP3 PUSH2 0xECD JUMP JUMPDEST SWAP2 POP PUSH2 0x13A6 DUP4 PUSH2 0xECD JUMP JUMPDEST SWAP3 POP DUP3 PUSH32 0xFFFFFFFFFFFFFFFFFFFFFFFFFFFFFFFFFFFFFFFFFFFFFFFFFFFFFFFFFFFFFFFF SUB DUP3 GT ISZERO PUSH2 0x13DB JUMPI PUSH2 0x13DA PUSH2 0x125A JUMP JUMPDEST JUMPDEST DUP3 DUP3 ADD SWAP1 POP SWAP3 SWAP2 POP POP JUMP JUMPDEST PUSH1 0x0 PUSH2 0x13F1 DUP3 PUSH2 0xECD JUMP JUMPDEST SWAP2 POP PUSH2 0x13FC DUP4 PUSH2 0xECD JUMP JUMPDEST SWAP3 POP DUP2 PUSH32 0xFFFFFFFFFFFFFFFFFFFFFFFFFFFFFFFFFFFFFFFFFFFFFFFFFFFFFFFFFFFFFFFF DIV DUP4 GT DUP3 ISZERO ISZERO AND ISZERO PUSH2 0x1435 JUMPI PUSH2 0x1434 PUSH2 0x125A JUMP JUMPDEST JUMPDEST DUP3 DUP3 MUL SWAP1 POP SWAP3 SWAP2 POP POP JUMP JUMPDEST PUSH1 0x0 DUP2 SWAP1 POP SWAP2 SWAP1 POP JUMP JUMPDEST PUSH2 0x1453 DUP2 PUSH2 0x1440 JUMP JUMPDEST DUP3 MSTORE POP POP JUMP JUMPDEST PUSH1 0x0 PUSH1 0x80 DUP3 ADD SWAP1 POP PUSH2 0x146E PUSH1 0x0 DUP4 ADD DUP8 PUSH2 0x144A JUMP JUMPDEST PUSH2 0x147B PUSH1 0x20 DUP4 ADD DUP7 PUSH2 0xFAD JUMP JUMPDEST PUSH2 0x1488 PUSH1 0x40 DUP4 ADD DUP6 PUSH2 0x144A JUMP JUMPDEST PUSH2 0x1495 PUSH1 0x60 DUP4 ADD DUP5 PUSH2 0x144A JUMP JUMPDEST SWAP6 SWAP5 POP POP POP POP POP JUMP INVALID LOG2 PUSH5 0x6970667358 0x22 SLT KECCAK256 0xDF 0x2D SELFDESTRUCT PUSH10 0x3DED157B853CD405E441 0xB9 SWAP1 0xC7 MLOAD 0xE7 MLOAD 0xE 0xBC PUSH19 0xCDE8D5C3DA7C40333164736F6C634300080D00 CALLER "
		},
		"gasEstimates": {
			"creation": {
				"codeDepositCost": "1066400",
				"executionCost": "1107",
				"totalCost": "1067507"
			},
			"external": {
				"aggregateValues(uint256[])": "infinite",
				"getAuthorisedSignerIndex(address)": "infinite",
				"getUniqueSignersThreshold()": "409",
				"getValue()": "infinite",
				"validateTimestamp(uint256)": "infinite"
			}
		},
		"methodIdentifiers": {
			"aggregateValues(uint256[])": "b24ebfcc",
			"getAuthorisedSignerIndex(address)": "3ce142f5",
			"getUniqueSignersThreshold()": "f90c4924",
			"getValue()": "20965255",
			"validateTimestamp(uint256)": "f50b2efe"
		}
	},
	"abi": [
		{
			"inputs": [],
			"name": "CalldataMustHaveValidPayload",
			"type": "error"
		},
		{
			"inputs": [],
			"name": "CalldataOverOrUnderFlow",
			"type": "error"
		},
		{
			"inputs": [],
			"name": "CanNotPickMedianOfEmptyArray",
			"type": "error"
		},
		{
			"inputs": [],
			"name": "EachSignerMustProvideTheSameValue",
			"type": "error"
		},
		{
			"inputs": [],
			"name": "EmptyCalldataPointersArr",
			"type": "error"
		},
		{
			"inputs": [],
			"name": "IncorrectUnsignedMetadataSize",
			"type": "error"
		},
		{
			"inputs": [
				{
					"internalType": "uint256",
					"name": "receivedSignersCount",
					"type": "uint256"
				},
				{
					"internalType": "uint256",
					"name": "requiredSignersCount",
					"type": "uint256"
				}
			],
			"name": "InsufficientNumberOfUniqueSigners",
			"type": "error"
		},
		{
			"inputs": [],
			"name": "InvalidCalldataPointer",
			"type": "error"
		},
		{
			"inputs": [
				{
					"internalType": "address",
					"name": "receivedSigner",
					"type": "address"
				}
			],
			"name": "SignerNotAuthorised",
			"type": "error"
		},
		{
			"inputs": [
				{
					"internalType": "uint256",
					"name": "receivedTimestampSeconds",
					"type": "uint256"
				},
				{
					"internalType": "uint256",
					"name": "blockTimestamp",
					"type": "uint256"
				}
			],
			"name": "TimestampFromTooLongFuture",
			"type": "error"
		},
		{
			"inputs": [
				{
					"internalType": "uint256",
					"name": "receivedTimestampSeconds",
					"type": "uint256"
				},
				{
					"internalType": "uint256",
					"name": "blockTimestamp",
					"type": "uint256"
				}
			],
			"name": "TimestampIsTooOld",
			"type": "error"
		},
		{
			"inputs": [
				{
					"internalType": "uint256[]",
					"name": "values",
					"type": "uint256[]"
				}
			],
			"name": "aggregateValues",
			"outputs": [
				{
					"internalType": "uint256",
					"name": "",
					"type": "uint256"
				}
			],
			"stateMutability": "view",
			"type": "function"
		},
		{
			"inputs": [
				{
					"internalType": "address",
					"name": "signerAddress",
					"type": "address"
				}
			],
			"name": "getAuthorisedSignerIndex",
			"outputs": [
				{
					"internalType": "uint8",
					"name": "",
					"type": "uint8"
				}
			],
			"stateMutability": "view",
			"type": "function"
		},
		{
			"inputs": [],
			"name": "getUniqueSignersThreshold",
			"outputs": [
				{
					"internalType": "uint8",
					"name": "",
					"type": "uint8"
				}
			],
			"stateMutability": "view",
			"type": "function"
		},
		{
			"inputs": [],
			"name": "getValue",
			"outputs": [
				{
					"internalType": "uint256",
					"name": "",
					"type": "uint256"
				}
			],
			"stateMutability": "view",
			"type": "function"
		},
		{
			"inputs": [
				{
					"internalType": "uint256",
					"name": "receivedTimestampMilliseconds",
					"type": "uint256"
				}
			],
			"name": "validateTimestamp",
			"outputs": [],
			"stateMutability": "view",
			"type": "function"
		}
	]
}