{
	"data": {
		"bytecode": {
			"linkReferences": {},
			"object": "60806040526000805534801561001457600080fd5b50610f25806100246000396000f3fe608060405234801561001057600080fd5b50600436106100575760003560e01c806311c89b101461005c578063209652551461008c5780635118af5a146100aa57806375058205146100c8578063f31a210a146100f8575b600080fd5b6100766004803603810190610071919061083a565b610116565b6040516100839190610882565b60405180910390f35b6100946101ac565b6040516100a191906108b6565b60405180910390f35b6100b26101e1565b6040516100bf91906108b6565b60405180910390f35b6100e260048036038101906100dd91906108fd565b6101ea565b6040516100ef9190610882565b60405180910390f35b610100610266565b60405161010d91906108b6565b60405180910390f35b60007311fffc9970c41b9bfb9aa35be838d39bce918cff73ffffffffffffffffffffffffffffffffffffffff168273ffffffffffffffffffffffffffffffffffffffff1614806101a5575073dbcc2c6c892c8d3e3fe4d325fec810b7376a5ed673ffffffffffffffffffffffffffffffffffffffff168273ffffffffffffffffffffffffffffffffffffffff16145b9050919050565b6000806101d87f307832626636663031666639333164393963000000000000000000000000000061026f565b90508091505090565b6000600f905090565b6000816101f56101e1565b426102009190610959565b11610240576040517f08c379a000000000000000000000000000000000000000000000000000000000815260040161023790610a32565b60405180910390fd5b8142108061025f5750610251610266565b824261025d9190610a52565b105b9050919050565b600060b4905090565b600080600167ffffffffffffffff81111561028d5761028c610a86565b5b6040519080825280602002602001820160405280156102bb5781602001602082028036833780820191505090505b50905082816000815181106102d3576102d2610ab5565b5b6020026020010181815250506102e88161030b565b6000815181106102fb576102fa610ab5565b5b6020026020010151915050919050565b60606000606136033590506000602060408360ff1661032a9190610af2565b6103349190610b2e565b905060606040519050818152816042830136036020830137602081016040526000818051906020012090506000816040516020016103729190610be8565b6040516020818303038152906040528051906020012090506060604051905060418152604180360360208301376020810160405260006103bb828461047390919063ffffffff16565b90506103c681610116565b610405576040517f08c379a00000000000000000000000000000000000000000000000000000000081526004016103fc90610c5a565b60405180910390fd5b600060623603359050610417816101ea565b610456576040517f08c379a000000000000000000000000000000000000000000000000000000000815260040161044d90610cc6565b60405180910390fd5b6104648a8960ff168961049a565b98505050505050505050919050565b6000806000610482858561053e565b9150915061048f8161058f565b819250505092915050565b6060806000806000806042870136035995508951865260208a51026020870101604052600094505b895185101561052e576020850260208b0101519150600093505b888410156105235781604085028201350361050c5760206040850282010135602086026020880101526001830192505b89518303610518578894505b6001840193506104dc565b6001850194506104c2565b5084955050505050509392505050565b600080604183510361057f5760008060006020860151925060408601519150606086015160001a9050610573878285856106f5565b94509450505050610588565b60006002915091505b9250929050565b600060048111156105a3576105a2610ce6565b5b8160048111156105b6576105b5610ce6565b5b03156106f257600160048111156105d0576105cf610ce6565b5b8160048111156105e3576105e2610ce6565b5b03610623576040517f08c379a000000000000000000000000000000000000000000000000000000000815260040161061a90610d61565b60405180910390fd5b6002600481111561063757610636610ce6565b5b81600481111561064a57610649610ce6565b5b0361068a576040517f08c379a000000000000000000000000000000000000000000000000000000000815260040161068190610dcd565b60405180910390fd5b6003600481111561069e5761069d610ce6565b5b8160048111156106b1576106b0610ce6565b5b036106f1576040517f08c379a00000000000000000000000000000000000000000000000000000000081526004016106e890610e5f565b60405180910390fd5b5b50565b6000807f7fffffffffffffffffffffffffffffff5d576e7357a4501ddfe92f46681b20a08360001c11156107305760006003915091506107ce565b6000600187878787604051600081526020016040526040516107559493929190610eaa565b6020604051602081039080840390855afa158015610777573d6000803e3d6000fd5b505050602060405103519050600073ffffffffffffffffffffffffffffffffffffffff168173ffffffffffffffffffffffffffffffffffffffff16036107c5576000600192509250506107ce565b80600092509250505b94509492505050565b600080fd5b600073ffffffffffffffffffffffffffffffffffffffff82169050919050565b6000610807826107dc565b9050919050565b610817816107fc565b811461082257600080fd5b50565b6000813590506108348161080e565b92915050565b6000602082840312156108505761084f6107d7565b5b600061085e84828501610825565b91505092915050565b60008115159050919050565b61087c81610867565b82525050565b60006020820190506108976000830184610873565b92915050565b6000819050919050565b6108b08161089d565b82525050565b60006020820190506108cb60008301846108a7565b92915050565b6108da8161089d565b81146108e557600080fd5b50565b6000813590506108f7816108d1565b92915050565b600060208284031215610913576109126107d7565b5b6000610921848285016108e8565b91505092915050565b7f4e487b7100000000000000000000000000000000000000000000000000000000600052601160045260246000fd5b60006109648261089d565b915061096f8361089d565b9250827fffffffffffffffffffffffffffffffffffffffffffffffffffffffffffffffff038211156109a4576109a361092a565b5b828201905092915050565b600082825260208201905092915050565b7f446174612077697468206675747572652074696d657374616d7073206973206e60008201527f6f7420616c6c6f77656400000000000000000000000000000000000000000000602082015250565b6000610a1c602a836109af565b9150610a27826109c0565b604082019050919050565b60006020820190508181036000830152610a4b81610a0f565b9050919050565b6000610a5d8261089d565b9150610a688361089d565b925082821015610a7b57610a7a61092a565b5b828203905092915050565b7f4e487b7100000000000000000000000000000000000000000000000000000000600052604160045260246000fd5b7f4e487b7100000000000000000000000000000000000000000000000000000000600052603260045260246000fd5b600061ffff82169050919050565b6000610afd82610ae4565b9150610b0883610ae4565b92508161ffff0483118215151615610b2357610b2261092a565b5b828202905092915050565b6000610b3982610ae4565b9150610b4483610ae4565b92508261ffff03821115610b5b57610b5a61092a565b5b828201905092915050565b600081905092915050565b7f19457468657265756d205369676e6564204d6573736167653a0a333200000000600082015250565b6000610ba7601c83610b66565b9150610bb282610b71565b601c82019050919050565b6000819050919050565b6000819050919050565b610be2610bdd82610bbd565b610bc7565b82525050565b6000610bf382610b9a565b9150610bff8284610bd1565b60208201915081905092915050565b7f5369676e6572206e6f7420617574686f72697a65640000000000000000000000600082015250565b6000610c446015836109af565b9150610c4f82610c0e565b602082019050919050565b60006020820190508181036000830152610c7381610c37565b9050919050565b7f446174612074696d657374616d7020697320696e76616c696400000000000000600082015250565b6000610cb06019836109af565b9150610cbb82610c7a565b602082019050919050565b60006020820190508181036000830152610cdf81610ca3565b9050919050565b7f4e487b7100000000000000000000000000000000000000000000000000000000600052602160045260246000fd5b7f45434453413a20696e76616c6964207369676e61747572650000000000000000600082015250565b6000610d4b6018836109af565b9150610d5682610d15565b602082019050919050565b60006020820190508181036000830152610d7a81610d3e565b9050919050565b7f45434453413a20696e76616c6964207369676e6174757265206c656e67746800600082015250565b6000610db7601f836109af565b9150610dc282610d81565b602082019050919050565b60006020820190508181036000830152610de681610daa565b9050919050565b7f45434453413a20696e76616c6964207369676e6174757265202773272076616c60008201527f7565000000000000000000000000000000000000000000000000000000000000602082015250565b6000610e496022836109af565b9150610e5482610ded565b604082019050919050565b60006020820190508181036000830152610e7881610e3c565b9050919050565b610e8881610bbd565b82525050565b600060ff82169050919050565b610ea481610e8e565b82525050565b6000608082019050610ebf6000830187610e7f565b610ecc6020830186610e9b565b610ed96040830185610e7f565b610ee66060830184610e7f565b9594505050505056fea26469706673582212201a6b2ea523f90e8af2f7e0d3c498835b86ca6160bcc89cb73a0376b4537f54fb64736f6c634300080d0033",
			"opcodes": "PUSH1 0x80 PUSH1 0x40 MSTORE PUSH1 0x0 DUP1 SSTORE CALLVALUE DUP1 ISZERO PUSH2 0x14 JUMPI PUSH1 0x0 DUP1 REVERT JUMPDEST POP PUSH2 0xF25 DUP1 PUSH2 0x24 PUSH1 0x0 CODECOPY PUSH1 0x0 RETURN INVALID PUSH1 0x80 PUSH1 0x40 MSTORE CALLVALUE DUP1 ISZERO PUSH2 0x10 JUMPI PUSH1 0x0 DUP1 REVERT JUMPDEST POP PUSH1 0x4 CALLDATASIZE LT PUSH2 0x57 JUMPI PUSH1 0x0 CALLDATALOAD PUSH1 0xE0 SHR DUP1 PUSH4 0x11C89B10 EQ PUSH2 0x5C JUMPI DUP1 PUSH4 0x20965255 EQ PUSH2 0x8C JUMPI DUP1 PUSH4 0x5118AF5A EQ PUSH2 0xAA JUMPI DUP1 PUSH4 0x75058205 EQ PUSH2 0xC8 JUMPI DUP1 PUSH4 0xF31A210A EQ PUSH2 0xF8 JUMPI JUMPDEST PUSH1 0x0 DUP1 REVERT JUMPDEST PUSH2 0x76 PUSH1 0x4 DUP1 CALLDATASIZE SUB DUP2 ADD SWAP1 PUSH2 0x71 SWAP2 SWAP1 PUSH2 0x83A JUMP JUMPDEST PUSH2 0x116 JUMP JUMPDEST PUSH1 0x40 MLOAD PUSH2 0x83 SWAP2 SWAP1 PUSH2 0x882 JUMP JUMPDEST PUSH1 0x40 MLOAD DUP1 SWAP2 SUB SWAP1 RETURN JUMPDEST PUSH2 0x94 PUSH2 0x1AC JUMP JUMPDEST PUSH1 0x40 MLOAD PUSH2 0xA1 SWAP2 SWAP1 PUSH2 0x8B6 JUMP JUMPDEST PUSH1 0x40 MLOAD DUP1 SWAP2 SUB SWAP1 RETURN JUMPDEST PUSH2 0xB2 PUSH2 0x1E1 JUMP JUMPDEST PUSH1 0x40 MLOAD PUSH2 0xBF SWAP2 SWAP1 PUSH2 0x8B6 JUMP JUMPDEST PUSH1 0x40 MLOAD DUP1 SWAP2 SUB SWAP1 RETURN JUMPDEST PUSH2 0xE2 PUSH1 0x4 DUP1 CALLDATASIZE SUB DUP2 ADD SWAP1 PUSH2 0xDD SWAP2 SWAP1 PUSH2 0x8FD JUMP JUMPDEST PUSH2 0x1EA JUMP JUMPDEST PUSH1 0x40 MLOAD PUSH2 0xEF SWAP2 SWAP1 PUSH2 0x882 JUMP JUMPDEST PUSH1 0x40 MLOAD DUP1 SWAP2 SUB SWAP1 RETURN JUMPDEST PUSH2 0x100 PUSH2 0x266 JUMP JUMPDEST PUSH1 0x40 MLOAD PUSH2 0x10D SWAP2 SWAP1 PUSH2 0x8B6 JUMP JUMPDEST PUSH1 0x40 MLOAD DUP1 SWAP2 SUB SWAP1 RETURN JUMPDEST PUSH1 0x0 PUSH20 0x11FFFC9970C41B9BFB9AA35BE838D39BCE918CFF PUSH20 0xFFFFFFFFFFFFFFFFFFFFFFFFFFFFFFFFFFFFFFFF AND DUP3 PUSH20 0xFFFFFFFFFFFFFFFFFFFFFFFFFFFFFFFFFFFFFFFF AND EQ DUP1 PUSH2 0x1A5 JUMPI POP PUSH20 0xDBCC2C6C892C8D3E3FE4D325FEC810B7376A5ED6 PUSH20 0xFFFFFFFFFFFFFFFFFFFFFFFFFFFFFFFFFFFFFFFF AND DUP3 PUSH20 0xFFFFFFFFFFFFFFFFFFFFFFFFFFFFFFFFFFFFFFFF AND EQ JUMPDEST SWAP1 POP SWAP2 SWAP1 POP JUMP JUMPDEST PUSH1 0x0 DUP1 PUSH2 0x1D8 PUSH32 0x3078326266366630316666393331643939630000000000000000000000000000 PUSH2 0x26F JUMP JUMPDEST SWAP1 POP DUP1 SWAP2 POP POP SWAP1 JUMP JUMPDEST PUSH1 0x0 PUSH1 0xF SWAP1 POP SWAP1 JUMP JUMPDEST PUSH1 0x0 DUP2 PUSH2 0x1F5 PUSH2 0x1E1 JUMP JUMPDEST TIMESTAMP PUSH2 0x200 SWAP2 SWAP1 PUSH2 0x959 JUMP JUMPDEST GT PUSH2 0x240 JUMPI PUSH1 0x40 MLOAD PUSH32 0x8C379A000000000000000000000000000000000000000000000000000000000 DUP2 MSTORE PUSH1 0x4 ADD PUSH2 0x237 SWAP1 PUSH2 0xA32 JUMP JUMPDEST PUSH1 0x40 MLOAD DUP1 SWAP2 SUB SWAP1 REVERT JUMPDEST DUP2 TIMESTAMP LT DUP1 PUSH2 0x25F JUMPI POP PUSH2 0x251 PUSH2 0x266 JUMP JUMPDEST DUP3 TIMESTAMP PUSH2 0x25D SWAP2 SWAP1 PUSH2 0xA52 JUMP JUMPDEST LT JUMPDEST SWAP1 POP SWAP2 SWAP1 POP JUMP JUMPDEST PUSH1 0x0 PUSH1 0xB4 SWAP1 POP SWAP1 JUMP JUMPDEST PUSH1 0x0 DUP1 PUSH1 0x1 PUSH8 0xFFFFFFFFFFFFFFFF DUP2 GT ISZERO PUSH2 0x28D JUMPI PUSH2 0x28C PUSH2 0xA86 JUMP JUMPDEST JUMPDEST PUSH1 0x40 MLOAD SWAP1 DUP1 DUP3 MSTORE DUP1 PUSH1 0x20 MUL PUSH1 0x20 ADD DUP3 ADD PUSH1 0x40 MSTORE DUP1 ISZERO PUSH2 0x2BB JUMPI DUP2 PUSH1 0x20 ADD PUSH1 0x20 DUP3 MUL DUP1 CALLDATASIZE DUP4 CALLDATACOPY DUP1 DUP3 ADD SWAP2 POP POP SWAP1 POP JUMPDEST POP SWAP1 POP DUP3 DUP2 PUSH1 0x0 DUP2 MLOAD DUP2 LT PUSH2 0x2D3 JUMPI PUSH2 0x2D2 PUSH2 0xAB5 JUMP JUMPDEST JUMPDEST PUSH1 0x20 MUL PUSH1 0x20 ADD ADD DUP2 DUP2 MSTORE POP POP PUSH2 0x2E8 DUP2 PUSH2 0x30B JUMP JUMPDEST PUSH1 0x0 DUP2 MLOAD DUP2 LT PUSH2 0x2FB JUMPI PUSH2 0x2FA PUSH2 0xAB5 JUMP JUMPDEST JUMPDEST PUSH1 0x20 MUL PUSH1 0x20 ADD ADD MLOAD SWAP2 POP POP SWAP2 SWAP1 POP JUMP JUMPDEST PUSH1 0x60 PUSH1 0x0 PUSH1 0x61 CALLDATASIZE SUB CALLDATALOAD SWAP1 POP PUSH1 0x0 PUSH1 0x20 PUSH1 0x40 DUP4 PUSH1 0xFF AND PUSH2 0x32A SWAP2 SWAP1 PUSH2 0xAF2 JUMP JUMPDEST PUSH2 0x334 SWAP2 SWAP1 PUSH2 0xB2E JUMP JUMPDEST SWAP1 POP PUSH1 0x60 PUSH1 0x40 MLOAD SWAP1 POP DUP2 DUP2 MSTORE DUP2 PUSH1 0x42 DUP4 ADD CALLDATASIZE SUB PUSH1 0x20 DUP4 ADD CALLDATACOPY PUSH1 0x20 DUP2 ADD PUSH1 0x40 MSTORE PUSH1 0x0 DUP2 DUP1 MLOAD SWAP1 PUSH1 0x20 ADD KECCAK256 SWAP1 POP PUSH1 0x0 DUP2 PUSH1 0x40 MLOAD PUSH1 0x20 ADD PUSH2 0x372 SWAP2 SWAP1 PUSH2 0xBE8 JUMP JUMPDEST PUSH1 0x40 MLOAD PUSH1 0x20 DUP2 DUP4 SUB SUB DUP2 MSTORE SWAP1 PUSH1 0x40 MSTORE DUP1 MLOAD SWAP1 PUSH1 0x20 ADD KECCAK256 SWAP1 POP PUSH1 0x60 PUSH1 0x40 MLOAD SWAP1 POP PUSH1 0x41 DUP2 MSTORE PUSH1 0x41 DUP1 CALLDATASIZE SUB PUSH1 0x20 DUP4 ADD CALLDATACOPY PUSH1 0x20 DUP2 ADD PUSH1 0x40 MSTORE PUSH1 0x0 PUSH2 0x3BB DUP3 DUP5 PUSH2 0x473 SWAP1 SWAP2 SWAP1 PUSH4 0xFFFFFFFF AND JUMP JUMPDEST SWAP1 POP PUSH2 0x3C6 DUP2 PUSH2 0x116 JUMP JUMPDEST PUSH2 0x405 JUMPI PUSH1 0x40 MLOAD PUSH32 0x8C379A000000000000000000000000000000000000000000000000000000000 DUP2 MSTORE PUSH1 0x4 ADD PUSH2 0x3FC SWAP1 PUSH2 0xC5A JUMP JUMPDEST PUSH1 0x40 MLOAD DUP1 SWAP2 SUB SWAP1 REVERT JUMPDEST PUSH1 0x0 PUSH1 0x62 CALLDATASIZE SUB CALLDATALOAD SWAP1 POP PUSH2 0x417 DUP2 PUSH2 0x1EA JUMP JUMPDEST PUSH2 0x456 JUMPI PUSH1 0x40 MLOAD PUSH32 0x8C379A000000000000000000000000000000000000000000000000000000000 DUP2 MSTORE PUSH1 0x4 ADD PUSH2 0x44D SWAP1 PUSH2 0xCC6 JUMP JUMPDEST PUSH1 0x40 MLOAD DUP1 SWAP2 SUB SWAP1 REVERT JUMPDEST PUSH2 0x464 DUP11 DUP10 PUSH1 0xFF AND DUP10 PUSH2 0x49A JUMP JUMPDEST SWAP9 POP POP POP POP POP POP POP POP POP SWAP2 SWAP1 POP JUMP JUMPDEST PUSH1 0x0 DUP1 PUSH1 0x0 PUSH2 0x482 DUP6 DUP6 PUSH2 0x53E JUMP JUMPDEST SWAP2 POP SWAP2 POP PUSH2 0x48F DUP2 PUSH2 0x58F JUMP JUMPDEST DUP2 SWAP3 POP POP POP SWAP3 SWAP2 POP POP JUMP JUMPDEST PUSH1 0x60 DUP1 PUSH1 0x0 DUP1 PUSH1 0x0 DUP1 PUSH1 0x42 DUP8 ADD CALLDATASIZE SUB MSIZE SWAP6 POP DUP10 MLOAD DUP7 MSTORE PUSH1 0x20 DUP11 MLOAD MUL PUSH1 0x20 DUP8 ADD ADD PUSH1 0x40 MSTORE PUSH1 0x0 SWAP5 POP JUMPDEST DUP10 MLOAD DUP6 LT ISZERO PUSH2 0x52E JUMPI PUSH1 0x20 DUP6 MUL PUSH1 0x20 DUP12 ADD ADD MLOAD SWAP2 POP PUSH1 0x0 SWAP4 POP JUMPDEST DUP9 DUP5 LT ISZERO PUSH2 0x523 JUMPI DUP2 PUSH1 0x40 DUP6 MUL DUP3 ADD CALLDATALOAD SUB PUSH2 0x50C JUMPI PUSH1 0x20 PUSH1 0x40 DUP6 MUL DUP3 ADD ADD CALLDATALOAD PUSH1 0x20 DUP7 MUL PUSH1 0x20 DUP9 ADD ADD MSTORE PUSH1 0x1 DUP4 ADD SWAP3 POP JUMPDEST DUP10 MLOAD DUP4 SUB PUSH2 0x518 JUMPI DUP9 SWAP5 POP JUMPDEST PUSH1 0x1 DUP5 ADD SWAP4 POP PUSH2 0x4DC JUMP JUMPDEST PUSH1 0x1 DUP6 ADD SWAP5 POP PUSH2 0x4C2 JUMP JUMPDEST POP DUP5 SWAP6 POP POP POP POP POP POP SWAP4 SWAP3 POP POP POP JUMP JUMPDEST PUSH1 0x0 DUP1 PUSH1 0x41 DUP4 MLOAD SUB PUSH2 0x57F JUMPI PUSH1 0x0 DUP1 PUSH1 0x0 PUSH1 0x20 DUP7 ADD MLOAD SWAP3 POP PUSH1 0x40 DUP7 ADD MLOAD SWAP2 POP PUSH1 0x60 DUP7 ADD MLOAD PUSH1 0x0 BYTE SWAP1 POP PUSH2 0x573 DUP8 DUP3 DUP6 DUP6 PUSH2 0x6F5 JUMP JUMPDEST SWAP5 POP SWAP5 POP POP POP POP PUSH2 0x588 JUMP JUMPDEST PUSH1 0x0 PUSH1 0x2 SWAP2 POP SWAP2 POP JUMPDEST SWAP3 POP SWAP3 SWAP1 POP JUMP JUMPDEST PUSH1 0x0 PUSH1 0x4 DUP2 GT ISZERO PUSH2 0x5A3 JUMPI PUSH2 0x5A2 PUSH2 0xCE6 JUMP JUMPDEST JUMPDEST DUP2 PUSH1 0x4 DUP2 GT ISZERO PUSH2 0x5B6 JUMPI PUSH2 0x5B5 PUSH2 0xCE6 JUMP JUMPDEST JUMPDEST SUB ISZERO PUSH2 0x6F2 JUMPI PUSH1 0x1 PUSH1 0x4 DUP2 GT ISZERO PUSH2 0x5D0 JUMPI PUSH2 0x5CF PUSH2 0xCE6 JUMP JUMPDEST JUMPDEST DUP2 PUSH1 0x4 DUP2 GT ISZERO PUSH2 0x5E3 JUMPI PUSH2 0x5E2 PUSH2 0xCE6 JUMP JUMPDEST JUMPDEST SUB PUSH2 0x623 JUMPI PUSH1 0x40 MLOAD PUSH32 0x8C379A000000000000000000000000000000000000000000000000000000000 DUP2 MSTORE PUSH1 0x4 ADD PUSH2 0x61A SWAP1 PUSH2 0xD61 JUMP JUMPDEST PUSH1 0x40 MLOAD DUP1 SWAP2 SUB SWAP1 REVERT JUMPDEST PUSH1 0x2 PUSH1 0x4 DUP2 GT ISZERO PUSH2 0x637 JUMPI PUSH2 0x636 PUSH2 0xCE6 JUMP JUMPDEST JUMPDEST DUP2 PUSH1 0x4 DUP2 GT ISZERO PUSH2 0x64A JUMPI PUSH2 0x649 PUSH2 0xCE6 JUMP JUMPDEST JUMPDEST SUB PUSH2 0x68A JUMPI PUSH1 0x40 MLOAD PUSH32 0x8C379A000000000000000000000000000000000000000000000000000000000 DUP2 MSTORE PUSH1 0x4 ADD PUSH2 0x681 SWAP1 PUSH2 0xDCD JUMP JUMPDEST PUSH1 0x40 MLOAD DUP1 SWAP2 SUB SWAP1 REVERT JUMPDEST PUSH1 0x3 PUSH1 0x4 DUP2 GT ISZERO PUSH2 0x69E JUMPI PUSH2 0x69D PUSH2 0xCE6 JUMP JUMPDEST JUMPDEST DUP2 PUSH1 0x4 DUP2 GT ISZERO PUSH2 0x6B1 JUMPI PUSH2 0x6B0 PUSH2 0xCE6 JUMP JUMPDEST JUMPDEST SUB PUSH2 0x6F1 JUMPI PUSH1 0x40 MLOAD PUSH32 0x8C379A000000000000000000000000000000000000000000000000000000000 DUP2 MSTORE PUSH1 0x4 ADD PUSH2 0x6E8 SWAP1 PUSH2 0xE5F JUMP JUMPDEST PUSH1 0x40 MLOAD DUP1 SWAP2 SUB SWAP1 REVERT JUMPDEST JUMPDEST POP JUMP JUMPDEST PUSH1 0x0 DUP1 PUSH32 0x7FFFFFFFFFFFFFFFFFFFFFFFFFFFFFFF5D576E7357A4501DDFE92F46681B20A0 DUP4 PUSH1 0x0 SHR GT ISZERO PUSH2 0x730 JUMPI PUSH1 0x0 PUSH1 0x3 SWAP2 POP SWAP2 POP PUSH2 0x7CE JUMP JUMPDEST PUSH1 0x0 PUSH1 0x1 DUP8 DUP8 DUP8 DUP8 PUSH1 0x40 MLOAD PUSH1 0x0 DUP2 MSTORE PUSH1 0x20 ADD PUSH1 0x40 MSTORE PUSH1 0x40 MLOAD PUSH2 0x755 SWAP5 SWAP4 SWAP3 SWAP2 SWAP1 PUSH2 0xEAA JUMP JUMPDEST PUSH1 0x20 PUSH1 0x40 MLOAD PUSH1 0x20 DUP2 SUB SWAP1 DUP1 DUP5 SUB SWAP1 DUP6 GAS STATICCALL ISZERO DUP1 ISZERO PUSH2 0x777 JUMPI RETURNDATASIZE PUSH1 0x0 DUP1 RETURNDATACOPY RETURNDATASIZE PUSH1 0x0 REVERT JUMPDEST POP POP POP PUSH1 0x20 PUSH1 0x40 MLOAD SUB MLOAD SWAP1 POP PUSH1 0x0 PUSH20 0xFFFFFFFFFFFFFFFFFFFFFFFFFFFFFFFFFFFFFFFF AND DUP2 PUSH20 0xFFFFFFFFFFFFFFFFFFFFFFFFFFFFFFFFFFFFFFFF AND SUB PUSH2 0x7C5 JUMPI PUSH1 0x0 PUSH1 0x1 SWAP3 POP SWAP3 POP POP PUSH2 0x7CE JUMP JUMPDEST DUP1 PUSH1 0x0 SWAP3 POP SWAP3 POP POP JUMPDEST SWAP5 POP SWAP5 SWAP3 POP POP POP JUMP JUMPDEST PUSH1 0x0 DUP1 REVERT JUMPDEST PUSH1 0x0 PUSH20 0xFFFFFFFFFFFFFFFFFFFFFFFFFFFFFFFFFFFFFFFF DUP3 AND SWAP1 POP SWAP2 SWAP1 POP JUMP JUMPDEST PUSH1 0x0 PUSH2 0x807 DUP3 PUSH2 0x7DC JUMP JUMPDEST SWAP1 POP SWAP2 SWAP1 POP JUMP JUMPDEST PUSH2 0x817 DUP2 PUSH2 0x7FC JUMP JUMPDEST DUP2 EQ PUSH2 0x822 JUMPI PUSH1 0x0 DUP1 REVERT JUMPDEST POP JUMP JUMPDEST PUSH1 0x0 DUP2 CALLDATALOAD SWAP1 POP PUSH2 0x834 DUP2 PUSH2 0x80E JUMP JUMPDEST SWAP3 SWAP2 POP POP JUMP JUMPDEST PUSH1 0x0 PUSH1 0x20 DUP3 DUP5 SUB SLT ISZERO PUSH2 0x850 JUMPI PUSH2 0x84F PUSH2 0x7D7 JUMP JUMPDEST JUMPDEST PUSH1 0x0 PUSH2 0x85E DUP5 DUP3 DUP6 ADD PUSH2 0x825 JUMP JUMPDEST SWAP2 POP POP SWAP3 SWAP2 POP POP JUMP JUMPDEST PUSH1 0x0 DUP2 ISZERO ISZERO SWAP1 POP SWAP2 SWAP1 POP JUMP JUMPDEST PUSH2 0x87C DUP2 PUSH2 0x867 JUMP JUMPDEST DUP3 MSTORE POP POP JUMP JUMPDEST PUSH1 0x0 PUSH1 0x20 DUP3 ADD SWAP1 POP PUSH2 0x897 PUSH1 0x0 DUP4 ADD DUP5 PUSH2 0x873 JUMP JUMPDEST SWAP3 SWAP2 POP POP JUMP JUMPDEST PUSH1 0x0 DUP2 SWAP1 POP SWAP2 SWAP1 POP JUMP JUMPDEST PUSH2 0x8B0 DUP2 PUSH2 0x89D JUMP JUMPDEST DUP3 MSTORE POP POP JUMP JUMPDEST PUSH1 0x0 PUSH1 0x20 DUP3 ADD SWAP1 POP PUSH2 0x8CB PUSH1 0x0 DUP4 ADD DUP5 PUSH2 0x8A7 JUMP JUMPDEST SWAP3 SWAP2 POP POP JUMP JUMPDEST PUSH2 0x8DA DUP2 PUSH2 0x89D JUMP JUMPDEST DUP2 EQ PUSH2 0x8E5 JUMPI PUSH1 0x0 DUP1 REVERT JUMPDEST POP JUMP JUMPDEST PUSH1 0x0 DUP2 CALLDATALOAD SWAP1 POP PUSH2 0x8F7 DUP2 PUSH2 0x8D1 JUMP JUMPDEST SWAP3 SWAP2 POP POP JUMP JUMPDEST PUSH1 0x0 PUSH1 0x20 DUP3 DUP5 SUB SLT ISZERO PUSH2 0x913 JUMPI PUSH2 0x912 PUSH2 0x7D7 JUMP JUMPDEST JUMPDEST PUSH1 0x0 PUSH2 0x921 DUP5 DUP3 DUP6 ADD PUSH2 0x8E8 JUMP JUMPDEST SWAP2 POP POP SWAP3 SWAP2 POP POP JUMP JUMPDEST PUSH32 0x4E487B7100000000000000000000000000000000000000000000000000000000 PUSH1 0x0 MSTORE PUSH1 0x11 PUSH1 0x4 MSTORE PUSH1 0x24 PUSH1 0x0 REVERT JUMPDEST PUSH1 0x0 PUSH2 0x964 DUP3 PUSH2 0x89D JUMP JUMPDEST SWAP2 POP PUSH2 0x96F DUP4 PUSH2 0x89D JUMP JUMPDEST SWAP3 POP DUP3 PUSH32 0xFFFFFFFFFFFFFFFFFFFFFFFFFFFFFFFFFFFFFFFFFFFFFFFFFFFFFFFFFFFFFFFF SUB DUP3 GT ISZERO PUSH2 0x9A4 JUMPI PUSH2 0x9A3 PUSH2 0x92A JUMP JUMPDEST JUMPDEST DUP3 DUP3 ADD SWAP1 POP SWAP3 SWAP2 POP POP JUMP JUMPDEST PUSH1 0x0 DUP3 DUP3 MSTORE PUSH1 0x20 DUP3 ADD SWAP1 POP SWAP3 SWAP2 POP POP JUMP JUMPDEST PUSH32 0x446174612077697468206675747572652074696D657374616D7073206973206E PUSH1 0x0 DUP3 ADD MSTORE PUSH32 0x6F7420616C6C6F77656400000000000000000000000000000000000000000000 PUSH1 0x20 DUP3 ADD MSTORE POP JUMP JUMPDEST PUSH1 0x0 PUSH2 0xA1C PUSH1 0x2A DUP4 PUSH2 0x9AF JUMP JUMPDEST SWAP2 POP PUSH2 0xA27 DUP3 PUSH2 0x9C0 JUMP JUMPDEST PUSH1 0x40 DUP3 ADD SWAP1 POP SWAP2 SWAP1 POP JUMP JUMPDEST PUSH1 0x0 PUSH1 0x20 DUP3 ADD SWAP1 POP DUP2 DUP2 SUB PUSH1 0x0 DUP4 ADD MSTORE PUSH2 0xA4B DUP2 PUSH2 0xA0F JUMP JUMPDEST SWAP1 POP SWAP2 SWAP1 POP JUMP JUMPDEST PUSH1 0x0 PUSH2 0xA5D DUP3 PUSH2 0x89D JUMP JUMPDEST SWAP2 POP PUSH2 0xA68 DUP4 PUSH2 0x89D JUMP JUMPDEST SWAP3 POP DUP3 DUP3 LT ISZERO PUSH2 0xA7B JUMPI PUSH2 0xA7A PUSH2 0x92A JUMP JUMPDEST JUMPDEST DUP3 DUP3 SUB SWAP1 POP SWAP3 SWAP2 POP POP JUMP JUMPDEST PUSH32 0x4E487B7100000000000000000000000000000000000000000000000000000000 PUSH1 0x0 MSTORE PUSH1 0x41 PUSH1 0x4 MSTORE PUSH1 0x24 PUSH1 0x0 REVERT JUMPDEST PUSH32 0x4E487B7100000000000000000000000000000000000000000000000000000000 PUSH1 0x0 MSTORE PUSH1 0x32 PUSH1 0x4 MSTORE PUSH1 0x24 PUSH1 0x0 REVERT JUMPDEST PUSH1 0x0 PUSH2 0xFFFF DUP3 AND SWAP1 POP SWAP2 SWAP1 POP JUMP JUMPDEST PUSH1 0x0 PUSH2 0xAFD DUP3 PUSH2 0xAE4 JUMP JUMPDEST SWAP2 POP PUSH2 0xB08 DUP4 PUSH2 0xAE4 JUMP JUMPDEST SWAP3 POP DUP2 PUSH2 0xFFFF DIV DUP4 GT DUP3 ISZERO ISZERO AND ISZERO PUSH2 0xB23 JUMPI PUSH2 0xB22 PUSH2 0x92A JUMP JUMPDEST JUMPDEST DUP3 DUP3 MUL SWAP1 POP SWAP3 SWAP2 POP POP JUMP JUMPDEST PUSH1 0x0 PUSH2 0xB39 DUP3 PUSH2 0xAE4 JUMP JUMPDEST SWAP2 POP PUSH2 0xB44 DUP4 PUSH2 0xAE4 JUMP JUMPDEST SWAP3 POP DUP3 PUSH2 0xFFFF SUB DUP3 GT ISZERO PUSH2 0xB5B JUMPI PUSH2 0xB5A PUSH2 0x92A JUMP JUMPDEST JUMPDEST DUP3 DUP3 ADD SWAP1 POP SWAP3 SWAP2 POP POP JUMP JUMPDEST PUSH1 0x0 DUP2 SWAP1 POP SWAP3 SWAP2 POP POP JUMP JUMPDEST PUSH32 0x19457468657265756D205369676E6564204D6573736167653A0A333200000000 PUSH1 0x0 DUP3 ADD MSTORE POP JUMP JUMPDEST PUSH1 0x0 PUSH2 0xBA7 PUSH1 0x1C DUP4 PUSH2 0xB66 JUMP JUMPDEST SWAP2 POP PUSH2 0xBB2 DUP3 PUSH2 0xB71 JUMP JUMPDEST PUSH1 0x1C DUP3 ADD SWAP1 POP SWAP2 SWAP1 POP JUMP JUMPDEST PUSH1 0x0 DUP2 SWAP1 POP SWAP2 SWAP1 POP JUMP JUMPDEST PUSH1 0x0 DUP2 SWAP1 POP SWAP2 SWAP1 POP JUMP JUMPDEST PUSH2 0xBE2 PUSH2 0xBDD DUP3 PUSH2 0xBBD JUMP JUMPDEST PUSH2 0xBC7 JUMP JUMPDEST DUP3 MSTORE POP POP JUMP JUMPDEST PUSH1 0x0 PUSH2 0xBF3 DUP3 PUSH2 0xB9A JUMP JUMPDEST SWAP2 POP PUSH2 0xBFF DUP3 DUP5 PUSH2 0xBD1 JUMP JUMPDEST PUSH1 0x20 DUP3 ADD SWAP2 POP DUP2 SWAP1 POP SWAP3 SWAP2 POP POP JUMP JUMPDEST PUSH32 0x5369676E6572206E6F7420617574686F72697A65640000000000000000000000 PUSH1 0x0 DUP3 ADD MSTORE POP JUMP JUMPDEST PUSH1 0x0 PUSH2 0xC44 PUSH1 0x15 DUP4 PUSH2 0x9AF JUMP JUMPDEST SWAP2 POP PUSH2 0xC4F DUP3 PUSH2 0xC0E JUMP JUMPDEST PUSH1 0x20 DUP3 ADD SWAP1 POP SWAP2 SWAP1 POP JUMP JUMPDEST PUSH1 0x0 PUSH1 0x20 DUP3 ADD SWAP1 POP DUP2 DUP2 SUB PUSH1 0x0 DUP4 ADD MSTORE PUSH2 0xC73 DUP2 PUSH2 0xC37 JUMP JUMPDEST SWAP1 POP SWAP2 SWAP1 POP JUMP JUMPDEST PUSH32 0x446174612074696D657374616D7020697320696E76616C696400000000000000 PUSH1 0x0 DUP3 ADD MSTORE POP JUMP JUMPDEST PUSH1 0x0 PUSH2 0xCB0 PUSH1 0x19 DUP4 PUSH2 0x9AF JUMP JUMPDEST SWAP2 POP PUSH2 0xCBB DUP3 PUSH2 0xC7A JUMP JUMPDEST PUSH1 0x20 DUP3 ADD SWAP1 POP SWAP2 SWAP1 POP JUMP JUMPDEST PUSH1 0x0 PUSH1 0x20 DUP3 ADD SWAP1 POP DUP2 DUP2 SUB PUSH1 0x0 DUP4 ADD MSTORE PUSH2 0xCDF DUP2 PUSH2 0xCA3 JUMP JUMPDEST SWAP1 POP SWAP2 SWAP1 POP JUMP JUMPDEST PUSH32 0x4E487B7100000000000000000000000000000000000000000000000000000000 PUSH1 0x0 MSTORE PUSH1 0x21 PUSH1 0x4 MSTORE PUSH1 0x24 PUSH1 0x0 REVERT JUMPDEST PUSH32 0x45434453413A20696E76616C6964207369676E61747572650000000000000000 PUSH1 0x0 DUP3 ADD MSTORE POP JUMP JUMPDEST PUSH1 0x0 PUSH2 0xD4B PUSH1 0x18 DUP4 PUSH2 0x9AF JUMP JUMPDEST SWAP2 POP PUSH2 0xD56 DUP3 PUSH2 0xD15 JUMP JUMPDEST PUSH1 0x20 DUP3 ADD SWAP1 POP SWAP2 SWAP1 POP JUMP JUMPDEST PUSH1 0x0 PUSH1 0x20 DUP3 ADD SWAP1 POP DUP2 DUP2 SUB PUSH1 0x0 DUP4 ADD MSTORE PUSH2 0xD7A DUP2 PUSH2 0xD3E JUMP JUMPDEST SWAP1 POP SWAP2 SWAP1 POP JUMP JUMPDEST PUSH32 0x45434453413A20696E76616C6964207369676E6174757265206C656E67746800 PUSH1 0x0 DUP3 ADD MSTORE POP JUMP JUMPDEST PUSH1 0x0 PUSH2 0xDB7 PUSH1 0x1F DUP4 PUSH2 0x9AF JUMP JUMPDEST SWAP2 POP PUSH2 0xDC2 DUP3 PUSH2 0xD81 JUMP JUMPDEST PUSH1 0x20 DUP3 ADD SWAP1 POP SWAP2 SWAP1 POP JUMP JUMPDEST PUSH1 0x0 PUSH1 0x20 DUP3 ADD SWAP1 POP DUP2 DUP2 SUB PUSH1 0x0 DUP4 ADD MSTORE PUSH2 0xDE6 DUP2 PUSH2 0xDAA JUMP JUMPDEST SWAP1 POP SWAP2 SWAP1 POP JUMP JUMPDEST PUSH32 0x45434453413A20696E76616C6964207369676E6174757265202773272076616C PUSH1 0x0 DUP3 ADD MSTORE PUSH32 0x7565000000000000000000000000000000000000000000000000000000000000 PUSH1 0x20 DUP3 ADD MSTORE POP JUMP JUMPDEST PUSH1 0x0 PUSH2 0xE49 PUSH1 0x22 DUP4 PUSH2 0x9AF JUMP JUMPDEST SWAP2 POP PUSH2 0xE54 DUP3 PUSH2 0xDED JUMP JUMPDEST PUSH1 0x40 DUP3 ADD SWAP1 POP SWAP2 SWAP1 POP JUMP JUMPDEST PUSH1 0x0 PUSH1 0x20 DUP3 ADD SWAP1 POP DUP2 DUP2 SUB PUSH1 0x0 DUP4 ADD MSTORE PUSH2 0xE78 DUP2 PUSH2 0xE3C JUMP JUMPDEST SWAP1 POP SWAP2 SWAP1 POP JUMP JUMPDEST PUSH2 0xE88 DUP2 PUSH2 0xBBD JUMP JUMPDEST DUP3 MSTORE POP POP JUMP JUMPDEST PUSH1 0x0 PUSH1 0xFF DUP3 AND SWAP1 POP SWAP2 SWAP1 POP JUMP JUMPDEST PUSH2 0xEA4 DUP2 PUSH2 0xE8E JUMP JUMPDEST DUP3 MSTORE POP POP JUMP JUMPDEST PUSH1 0x0 PUSH1 0x80 DUP3 ADD SWAP1 POP PUSH2 0xEBF PUSH1 0x0 DUP4 ADD DUP8 PUSH2 0xE7F JUMP JUMPDEST PUSH2 0xECC PUSH1 0x20 DUP4 ADD DUP7 PUSH2 0xE9B JUMP JUMPDEST PUSH2 0xED9 PUSH1 0x40 DUP4 ADD DUP6 PUSH2 0xE7F JUMP JUMPDEST PUSH2 0xEE6 PUSH1 0x60 DUP4 ADD DUP5 PUSH2 0xE7F JUMP JUMPDEST SWAP6 SWAP5 POP POP POP POP POP JUMP INVALID LOG2 PUSH5 0x6970667358 0x22 SLT KECCAK256 BYTE PUSH12 0x2EA523F90E8AF2F7E0D3C498 DUP4 JUMPDEST DUP7 0xCA PUSH2 0x60BC 0xC8 SWAP13 0xB7 GASPRICE SUB PUSH23 0xB4537F54FB64736F6C634300080D003300000000000000 "
		},
		"gasEstimates": {
			"creation": {
				"codeDepositCost": "775400",
				"executionCost": "5818",
				"totalCost": "781218"
			},
			"external": {
				"getMaxBlockTimestampDelay()": "359",
				"getMaxDataTimestampDelay()": "403",
				"getValue()": "infinite",
				"isSignerAuthorized(address)": "693",
				"isTimestampValid(uint256)": "infinite"
			}
		},
		"methodIdentifiers": {
			"getMaxBlockTimestampDelay()": "5118af5a",
			"getMaxDataTimestampDelay()": "f31a210a",
			"getValue()": "20965255",
			"isSignerAuthorized(address)": "11c89b10",
			"isTimestampValid(uint256)": "75058205"
		}
	},
	"abi": [
		{
			"inputs": [],
			"name": "getMaxBlockTimestampDelay",
			"outputs": [
				{
					"internalType": "uint256",
					"name": "",
					"type": "uint256"
				}
			],
			"stateMutability": "view",
			"type": "function"
		},
		{
			"inputs": [],
			"name": "getMaxDataTimestampDelay",
			"outputs": [
				{
					"internalType": "uint256",
					"name": "",
					"type": "uint256"
				}
			],
			"stateMutability": "view",
			"type": "function"
		},
		{
			"inputs": [],
			"name": "getValue",
			"outputs": [
				{
					"internalType": "uint256",
					"name": "",
					"type": "uint256"
				}
			],
			"stateMutability": "view",
			"type": "function"
		},
		{
			"inputs": [
				{
					"internalType": "address",
					"name": "_receviedSigner",
					"type": "address"
				}
			],
			"name": "isSignerAuthorized",
			"outputs": [
				{
					"internalType": "bool",
					"name": "",
					"type": "bool"
				}
			],
			"stateMutability": "view",
			"type": "function"
		},
		{
			"inputs": [
				{
					"internalType": "uint256",
					"name": "_receivedTimestamp",
					"type": "uint256"
				}
			],
			"name": "isTimestampValid",
			"outputs": [
				{
					"internalType": "bool",
					"name": "",
					"type": "bool"
				}
			],
			"stateMutability": "view",
			"type": "function"
		}
	]
}