{
	"data": {
		"bytecode": {
			"linkReferences": {},
			"object": "60806040526001600855604051620042da380380620042da8339810160408190526200002b91620003e2565b803380600060405180608001604052806043815260200162004297604391396200005581620002b9565b506001600160a01b038216620000b25760405162461bcd60e51b815260206004820152601860248201527f43616e6e6f7420736574206f776e657220746f207a65726f000000000000000060448201526064015b60405180910390fd5b600a80546001600160a01b0319166001600160a01b0384811691909117909155811615620000e557620000e581620002cb565b50505060006040518060600160405280602d81526020016200426a602d913960408051808201909152600a8152692f7374616e64696e677360b01b6020820152909150601262000136848262000529565b50620001e481620001dd601280546200014f906200049a565b80601f01602080910402602001604051908101604052809291908181526020018280546200017d906200049a565b8015620001ce5780601f10620001a257610100808354040283529160200191620001ce565b820191906000526020600020905b815481529060010190602001808311620001b057829003601f168201915b50899493505062000377915050565b9062000377565b601190620001f3908262000529565b50600680546001600160a01b03191673326c977e6efc84e512bb9c30f76e30c160ed06fb179055600780546001600160a01b0319167320cac2354359919c15950dea3033a7712b6ecf8c1790557f3364323532396365323661373463396439653539333735306439343935306339600f55600a6200027b670de0b6b3a76400006001620005f5565b6200028791906200061b565b60105550506015805460ff60a01b1933166001600160a81b031990911617600160a01b17905550504260145562000671565b6002620002c7828262000529565b5050565b336001600160a01b03821603620003255760405162461bcd60e51b815260206004820152601760248201527f43616e6e6f74207472616e7366657220746f2073656c660000000000000000006044820152606401620000a9565b600b80546001600160a01b0319166001600160a01b03838116918217909255600a54604051919216907fed8889f560326eb138920d842192f0eb3dd22b4f139c87a2c57538e05bae127890600090a350565b606082826040516020016200038e9291906200063e565b60405160208183030381529060405290505b92915050565b634e487b7160e01b600052604160045260246000fd5b60005b83811015620003d9578181015183820152602001620003bf565b50506000910152565b600060208284031215620003f557600080fd5b81516001600160401b03808211156200040d57600080fd5b818401915084601f8301126200042257600080fd5b815181811115620004375762000437620003a6565b604051601f8201601f19908116603f01168101908382118183101715620004625762000462620003a6565b816040528281528760208487010111156200047c57600080fd5b6200048f836020830160208801620003bc565b979650505050505050565b600181811c90821680620004af57607f821691505b602082108103620004d057634e487b7160e01b600052602260045260246000fd5b50919050565b601f8211156200052457600081815260208120601f850160051c81016020861015620004ff5750805b601f850160051c820191505b8181101562000520578281556001016200050b565b5050505b505050565b81516001600160401b03811115620005455762000545620003a6565b6200055d816200055684546200049a565b84620004d6565b602080601f8311600181146200059557600084156200057c5750858301515b600019600386901b1c1916600185901b17855562000520565b600085815260208120601f198616915b82811015620005c657888601518255948401946001909101908401620005a5565b5085821015620005e55787850151600019600388901b60f8161c191681555b5050505050600190811b01905550565b8082028115828204841417620003a057634e487b7160e01b600052601160045260246000fd5b6000826200063957634e487b7160e01b600052601260045260246000fd5b500490565b6000835162000652818460208801620003bc565b83519083019062000668818360208801620003bc565b01949350505050565b613be980620006816000396000f3fe6080604052600436106101ed5760003560e01c806379ba50971161010d578063c3bf0680116100a0578063e985e9c51161006f578063e985e9c51461058c578063eb685c47146105ac578063f242432a146105cc578063f2fde38b146105ec578063f81b5c5b1461060c57600080fd5b8063c3bf068014610514578063d9b2929714610534578063dfbf53ae14610549578063e6a72acf1461055f57600080fd5b80638dc654a2116100dc5780638dc654a2146104aa578063a22cb465146104bf578063bd85b039146104df578063be71248a1461050c57600080fd5b806379ba50971461043557806383197ef01461044a5780638bcbba711461045f5780638da5cb5b1461048c57600080fd5b806322f3e2d4116101855780634f558e79116101545780634f558e79146103a6578063543e062c146103d5578063731133e91461040d57806378a7d3af1461042057600080fd5b806322f3e2d4146103005780632eb2c2d614610321578063392ffaec146103415780634e1273f41461037957600080fd5b80630df71602116101c15780630df716021461028d5780630e89341c146102ad5780631f7fdffa146102da57806321466eb5146102ed57600080fd5b8062fdd58e146101f257806301a3694e1461022557806301ffc9a71461023b57806302fe53051461026b575b600080fd5b3480156101fe57600080fd5b5061021261020d366004612d57565b610622565b6040519081526020015b60405180910390f35b34801561023157600080fd5b50610212600d5481565b34801561024757600080fd5b5061025b610256366004612d97565b6106bb565b604051901515815260200161021c565b34801561027757600080fd5b5061028b610286366004612e53565b61070b565b005b34801561029957600080fd5b5061028b6102a8366004612e9b565b600c55565b3480156102b957600080fd5b506102cd6102c8366004612e9b565b61071f565b60405161021c9190612f04565b61028b6102e8366004612fcb565b6107b3565b61028b6102fb366004613063565b610a6b565b34801561030c57600080fd5b5060155461025b90600160a01b900460ff1681565b34801561032d57600080fd5b5061028b61033c366004613098565b610da7565b34801561034d57600080fd5b5061021261035c366004613141565b601760209081526000928352604080842090915290825290205481565b34801561038557600080fd5b5061039961039436600461316d565b610df3565b60405161021c9190613267565b3480156103b257600080fd5b5061025b6103c1366004612e9b565b600090815260036020526040902054151590565b3480156103e157600080fd5b506103f56103f036600461327a565b610f1c565b6040516001600160a01b03909116815260200161021c565b61028b61041b36600461329c565b610f54565b34801561042c57600080fd5b506102126110e6565b34801561044157600080fd5b5061028b611295565b34801561045657600080fd5b5061028b611343565b34801561046b57600080fd5b5061047f61047a366004612e9b565b6113a8565b60405161021c91906132f0565b34801561049857600080fd5b50600a546001600160a01b03166103f5565b3480156104b657600080fd5b5061028b611413565b3480156104cb57600080fd5b5061028b6104da36600461334b565b611554565b3480156104eb57600080fd5b506102126104fa366004612e9b565b60009081526003602052604090205490565b61028b611563565b34801561052057600080fd5b5061028b61052f36600461327a565b611717565b34801561054057600080fd5b506102cd611814565b34801561055557600080fd5b50610212600c5481565b34801561056b57600080fd5b5061021261057a366004612e9b565b60166020526000908152604090205481565b34801561059857600080fd5b5061025b6105a7366004613382565b6118a2565b3480156105b857600080fd5b5061028b6105c736600461327a565b6118d0565b3480156105d857600080fd5b5061028b6105e73660046133ac565b611946565b3480156105f857600080fd5b5061028b610607366004613410565b61198b565b34801561061857600080fd5b50610212600e5481565b60006001600160a01b0383166106925760405162461bcd60e51b815260206004820152602a60248201527f455243313135353a2061646472657373207a65726f206973206e6f742061207660448201526930b634b21037bbb732b960b11b60648201526084015b60405180910390fd5b506000818152602081815260408083206001600160a01b03861684529091529020545b92915050565b60006001600160e01b03198216636cdb3d1360e11b14806106ec57506001600160e01b031982166303a24d0760e21b145b806106b557506301ffc9a760e01b6001600160e01b03198316146106b5565b61071361199c565b61071c816119f1565b50565b60606002805461072e9061342b565b80601f016020809104026020016040519081016040528092919081815260200182805461075a9061342b565b80156107a75780601f1061077c576101008083540402835291602001916107a7565b820191906000526020600020905b81548152906001019060200180831161078a57829003601f168201915b50505050509050919050565b601554600160a01b900460ff166107dc5760405162461bcd60e51b81526004016106899061345f565b60005b8351811015610a3f57620186a061081b85838151811061080157610801613483565b602002602001015160009081526003602052604090205490565b84838151811061082d5761082d613483565b602002602001015161083f91906134af565b11156108875760405162461bcd60e51b81526020600482015260176024820152760546865204e46542072656163686564206974732063617604c1b6044820152606401610689565b601483828151811061089b5761089b613483565b602002602001015111156108c15760405162461bcd60e51b8152600401610689906134c2565b6108d684828151811061080157610801613483565b600003610910576064601660008684815181106108f5576108f5613483565b60200260200101518152602001908152602001600020819055505b82818151811061092257610922613483565b60200260200101516016600086848151811061094057610940613483565b6020026020010151815260200190815260200160002054610961919061350e565b3410156109a25760405162461bcd60e51b815260206004820152600f60248201526e53656e64206d6f7265206d6f6e657960881b6044820152606401610689565b8281815181106109b4576109b4613483565b602002602001015160646109c8919061350e565b601660008684815181106109de576109de613483565b602002602001015181526020019081526020016000206000828254610a0391906134af565b92505081905550610a2d848281518110610a1f57610a1f613483565b6020026020010151866119fd565b80610a3781613525565b9150506107df565b50610a4c84848484611bce565b610a5633306118a2565b610a6557610a65306001611554565b50505050565b601554600160a01b900460ff16610a945760405162461bcd60e51b81526004016106899061345f565b60008381526017602090815260408083206001600160a01b03851684529091529020543414610b115760405162461bcd60e51b815260206004820152602360248201527f5468652076616c75652073656e74206d757374206d617463682074686520707260448201526269636560e81b6064820152608401610689565b610b1b8184610622565b821115610b6a5760405162461bcd60e51b815260206004820152601760248201527f596f752063616e2774206275792074686174206d7563680000000000000000006044820152606401610689565b600c5415610bd15760405162461bcd60e51b815260206004820152602e60248201527f576520616c7265616479206861766520612077696e6e65722c20746865206d6160448201526d1c9ad95d081a5cc818db1bdcd95960921b6064820152608401610689565b60008381526017602090815260408083206001600160a01b0385168085529252909120546108fc906103e890610c09906103e761350e565b610c139190613554565b6040518115909202916000818181858888f19350505050158015610c3b573d6000803e3d6000fd5b5060155460008481526017602090815260408083206001600160a01b0386811685529252909120549116906108fc9061271090610c7990600561350e565b610c839190613554565b6040518115909202916000818181858888f19350505050158015610cab573d6000803e3d6000fd5b506040516001600160a01b0382166024820152336044820152606481018490526084810183905260a060a4820152600060c4820181905290309060e40160408051601f198184030181529181526020820180516001600160e01b0316637921219560e11b17905251610d1d9190613568565b6000604051808303816000865af19150503d8060008114610d5a576040519150601f19603f3d011682016040523d82523d6000602084013e610d5f565b606091505b5050905080610a655760405162461bcd60e51b8152602060048201526014602482015273119d5b98dd1a5bdb8818d85b1b0819985a5b195960621b6044820152606401610689565b6001600160a01b038516331480610dc35750610dc385336118a2565b610ddf5760405162461bcd60e51b815260040161068990613584565b610dec8585858585611d28565b5050505050565b60608151835114610e585760405162461bcd60e51b815260206004820152602960248201527f455243313135353a206163636f756e747320616e6420696473206c656e677468604482015268040dad2e6dac2e8c6d60bb1b6064820152608401610689565b600083516001600160401b03811115610e7357610e73612db4565b604051908082528060200260200182016040528015610e9c578160200160208202803683370190505b50905060005b8451811015610f1457610ee7858281518110610ec057610ec0613483565b6020026020010151858381518110610eda57610eda613483565b6020026020010151610622565b828281518110610ef957610ef9613483565b6020908102919091010152610f0d81613525565b9050610ea2565b509392505050565b60186020528160005260406000208181548110610f3857600080fd5b6000918252602090912001546001600160a01b03169150829050565b601554600160a01b900460ff16610f7d5760405162461bcd60e51b81526004016106899061345f565b600083815260036020526040902054620186a090610f9b90846134af565b1115610fe35760405162461bcd60e51b81526020600482015260176024820152760546865204e46542072656163686564206974732063617604c1b6044820152606401610689565b60148211156110045760405162461bcd60e51b8152600401610689906134c2565b60008381526003602052604090205460000361102d576000838152601660205260409020606490555b60008381526016602052604090205461104790839061350e565b3410156110885760405162461bcd60e51b815260206004820152600f60248201526e53656e64206d6f7265206d6f6e657960881b6044820152606401610689565b61109484848484611ed2565b61109e33306118a2565b6110ad576110ad306001611554565b6110b882606461350e565b600084815260166020526040812080549091906110d69084906134af565b90915550610a65905083856119fd565b6000806110fd600f543063c3bf068060e01b611fbb565b90506111b96040518060400160405280600381526020016219d95d60ea1b8152506011805461112b9061342b565b80601f01602080910402602001604051908101604052809291908181526020018280546111579061342b565b80156111a45780601f10611179576101008083540402835291602001916111a4565b820191906000526020600020905b81548152906001019060200180831161118757829003601f168201915b505050505083611fe09092919063ffffffff16565b6111e8604051806040016040528060068152602001656c656167756560d01b8152506012805461112b9061342b565b611234604051806040016040528060068152602001653bb4b73732b960d11b815250604051806040016040528060018152602001603160f81b81525083611fe09092919063ffffffff16565b611283604051806040016040528060048152602001630e0c2e8d60e31b815250604051806040016040528060068152602001651c995cdd5b1d60d21b81525083611fe09092919063ffffffff16565b61128f81601054611ffe565b91505090565b600b546001600160a01b031633146112e85760405162461bcd60e51b815260206004820152601660248201527526bab9ba10313290383937b837b9b2b21037bbb732b960511b6044820152606401610689565b600a80546001600160a01b031980821633908117909355600b805490911690556040516001600160a01b03909116919082907f8be0079c531659141344cd1fd0a4f28419497f9722a3daafe3b4186f6b6457e090600090a350565b6014546113549063020f58006134af565b421161135f57600080fd5b6015546040516001600160a01b03909116904780156108fc02916000818181858888f19350505050158015611398573d6000803e3d6000fd5b506015805460ff60a01b19169055565b6000818152601860209081526040918290208054835181840281018401909452808452606093928301828280156107a757602002820191906000526020600020905b81546001600160a01b031681526001909101906020018083116113ea5750505050509050919050565b61141b61199c565b600061142f6006546001600160a01b031690565b6040516370a0823160e01b81523060048201529091506001600160a01b0382169063a9059cbb90339083906370a0823190602401602060405180830381865afa158015611480573d6000803e3d6000fd5b505050506040513d601f19601f820116820180604052508101906114a491906135d2565b6040516001600160e01b031960e085901b1681526001600160a01b03909216600483015260248201526044016020604051808303816000875af11580156114ef573d6000803e3d6000fd5b505050506040513d601f19601f8201168201806040525081019061151391906135eb565b61071c5760405162461bcd60e51b81526020600482015260126024820152712ab730b13632903a37903a3930b739b332b960711b6044820152606401610689565b61155f33838361201f565b5050565b601554600160a01b900460ff1661158c5760405162461bcd60e51b81526004016106899061345f565b600c546000036115d35760405162461bcd60e51b81526020600482015260126024820152712a3432b9329034b9903737903bb4b73732b960711b6044820152606401610689565b600c546000908152600360205260409020546116315760405162461bcd60e51b815260206004820152601e60248201527f4e6f206f6e65206d696e746564207468652077696e6e65722773204e465400006044820152606401610689565b600c546000908152600360205260408120549047905b611652600c546113a8565b5181101561170557600c54600090815260186020526040812080548390811061167d5761167d613483565b6000918252602082200154600c546001600160a01b0390911692506116a3908390610622565b90506001600160a01b0382166108fc866116bd848861350e565b6116c79190613554565b6040518115909202916000818181858888f193505050501580156116ef573d6000803e3d6000fd5b50505080806116fd90613525565b915050611647565b50506015805460ff60a01b1916905550565b60008281526009602052604090205482906001600160a01b031633146117905760405162461bcd60e51b815260206004820152602860248201527f536f75726365206d75737420626520746865206f7261636c65206f6620746865604482015267081c995c5d595cdd60c21b6064820152608401610689565b60008181526009602052604080822080546001600160a01b03191690555182917f7cc135e0cebb02c3480ae5d74d377283180a2601f8f644edf7987b009316c63a91a2827f6bfeb73ba8570ae80f056bf59812d9afe8a31702946bea5ea54fe8a3888f8b8e8360405161180591815260200190565b60405180910390a250600c5550565b601280546118219061342b565b80601f016020809104026020016040519081016040528092919081815260200182805461184d9061342b565b801561189a5780601f1061186f5761010080835404028352916020019161189a565b820191906000526020600020905b81548152906001019060200180831161187d57829003601f168201915b505050505081565b6001600160a01b03918216600090815260016020908152604080832093909416825291909152205460ff1690565b60006118dc3384610622565b116119295760405162461bcd60e51b815260206004820152601760248201527f596f7520646f6e277420686176652074686973204e46540000000000000000006044820152606401610689565b600091825260176020908152604080842033855290915290912055565b6001600160a01b038516331480611962575061196285336118a2565b61197e5760405162461bcd60e51b815260040161068990613584565b610dec85858585856120ff565b61199361199c565b61071c81612116565b600a546001600160a01b031633146119ef5760405162461bcd60e51b815260206004820152601660248201527527b7363c9031b0b63630b1363290313c9037bbb732b960511b6044820152606401610689565b565b600261155f828261364e565b6000805b600084815260186020526040902054811015611b8b57600084815260186020526040902080546001600160a01b038516919083908110611a4357611a43613483565b6000918252602090912001546001600160a01b031603611a6257600191505b60008481526018602052604090208054611aa2919083908110611a8757611a87613483565b6000918252602090912001546001600160a01b031685610622565b600003611b795760008481526018602052604090208054611ac59060019061370d565b81548110611ad557611ad5613483565b60009182526020808320909101548683526018909152604090912080546001600160a01b039092169183908110611b0e57611b0e613483565b600091825260208083209190910180546001600160a01b0319166001600160a01b039490941693909317909255858152601890915260409020805480611b5657611b56613720565b600082815260209020810160001990810180546001600160a01b03191690550190555b80611b8381613525565b915050611a01565b5080611bc95760008381526018602090815260408220805460018101825590835291200180546001600160a01b0319166001600160a01b0384161790555b505050565b6001600160a01b038416611bf45760405162461bcd60e51b815260040161068990613736565b8151835114611c155760405162461bcd60e51b815260040161068990613777565b33611c25816000878787876121c0565b60005b8451811015611cc057838181518110611c4357611c43613483565b6020026020010151600080878481518110611c6057611c60613483565b602002602001015181526020019081526020016000206000886001600160a01b03166001600160a01b031681526020019081526020016000206000828254611ca891906134af565b90915550819050611cb881613525565b915050611c28565b50846001600160a01b031660006001600160a01b0316826001600160a01b03167f4a39dc06d4c0dbc64b70af90fd698a233a518aa5d07e595d983b8c0526c8f7fb8787604051611d119291906137bf565b60405180910390a4610dec816000878787876121ce565b8151835114611d495760405162461bcd60e51b815260040161068990613777565b6001600160a01b038416611d6f5760405162461bcd60e51b8152600401610689906137e4565b33611d7e8187878787876121c0565b60005b8451811015611e64576000858281518110611d9e57611d9e613483565b602002602001015190506000858381518110611dbc57611dbc613483565b602090810291909101810151600084815280835260408082206001600160a01b038e168352909352919091205490915081811015611e0c5760405162461bcd60e51b815260040161068990613829565b6000838152602081815260408083206001600160a01b038e8116855292528083208585039055908b16825281208054849290611e499084906134af565b9250508190555050505080611e5d90613525565b9050611d81565b50846001600160a01b0316866001600160a01b0316826001600160a01b03167f4a39dc06d4c0dbc64b70af90fd698a233a518aa5d07e595d983b8c0526c8f7fb8787604051611eb49291906137bf565b60405180910390a4611eca8187878787876121ce565b505050505050565b6001600160a01b038416611ef85760405162461bcd60e51b815260040161068990613736565b336000611f0485612329565b90506000611f1185612329565b9050611f22836000898585896121c0565b6000868152602081815260408083206001600160a01b038b16845290915281208054879290611f529084906134af565b909155505060408051878152602081018790526001600160a01b03808a1692600092918716917fc3d58168c5ae7397731d063d5bbf3d657854427343f4c083240f7aacaa2d0f62910160405180910390a4611fb283600089898989612374565b50505050505050565b611fc3612d00565b611fcb612d00565b611fd78186868661242f565b95945050505050565b6080830151611fef9083612475565b6080830151611bc99082612475565b600754600090612018906001600160a01b0316848461248c565b9392505050565b816001600160a01b0316836001600160a01b0316036120925760405162461bcd60e51b815260206004820152602960248201527f455243313135353a2073657474696e6720617070726f76616c20737461747573604482015268103337b91039b2b63360b91b6064820152608401610689565b6001600160a01b03838116600081815260016020908152604080832094871680845294825291829020805460ff191686151590811790915591519182527f17307eab39ab6107e8899845ad3d59bd9653f200f220920489ca2b5937696c31910160405180910390a3505050565b61210c858585858561251f565b610dec83856119fd565b336001600160a01b0382160361216e5760405162461bcd60e51b815260206004820152601760248201527f43616e6e6f74207472616e7366657220746f2073656c660000000000000000006044820152606401610689565b600b80546001600160a01b0319166001600160a01b03838116918217909255600a54604051919216907fed8889f560326eb138920d842192f0eb3dd22b4f139c87a2c57538e05bae127890600090a350565b611eca868686868686612657565b6001600160a01b0384163b15611eca5760405163bc197c8160e01b81526001600160a01b0385169063bc197c81906122129089908990889088908890600401613873565b6020604051808303816000875af192505050801561224d575060408051601f3d908101601f1916820190925261224a918101906138d1565b60015b6122f9576122596138ee565b806308c379a003612292575061226d61390a565b806122785750612294565b8060405162461bcd60e51b81526004016106899190612f04565b505b60405162461bcd60e51b815260206004820152603460248201527f455243313135353a207472616e7366657220746f206e6f6e2d455243313135356044820152732932b1b2b4bb32b91034b6b83632b6b2b73a32b960611b6064820152608401610689565b6001600160e01b0319811663bc197c8160e01b14611fb25760405162461bcd60e51b815260040161068990613993565b6040805160018082528183019092526060916000919060208083019080368337019050509050828160008151811061236357612363613483565b602090810291909101015292915050565b6001600160a01b0384163b15611eca5760405163f23a6e6160e01b81526001600160a01b0385169063f23a6e61906123b890899089908890889088906004016139db565b6020604051808303816000875af19250505080156123f3575060408051601f3d908101601f191682019092526123f0918101906138d1565b60015b6123ff576122596138ee565b6001600160e01b0319811663f23a6e6160e01b14611fb25760405162461bcd60e51b815260040161068990613993565b612437612d00565b61244785608001516101006127d0565b50508284526001600160a01b03821660208501526001600160e01b031981166040850152835b949350505050565b6124828260038351612835565b611bc9828261293c565b60085460009061249d8160016134af565b600855835160408086015160808701515191516000936320214ca360e11b936124d59386938493923092918a91600191602401613a20565b60408051601f198184030181529190526020810180516001600160e01b03166001600160e01b031990931692909217909152905061251586838684612963565b9695505050505050565b6001600160a01b0384166125455760405162461bcd60e51b8152600401610689906137e4565b33600061255185612329565b9050600061255e85612329565b905061256e8389898585896121c0565b6000868152602081815260408083206001600160a01b038c168452909152902054858110156125af5760405162461bcd60e51b815260040161068990613829565b6000878152602081815260408083206001600160a01b038d8116855292528083208985039055908a168252812080548892906125ec9084906134af565b909155505060408051888152602081018890526001600160a01b03808b16928c821692918816917fc3d58168c5ae7397731d063d5bbf3d657854427343f4c083240f7aacaa2d0f62910160405180910390a461264c848a8a8a8a8a612374565b505050505050505050565b6001600160a01b0385166126de5760005b83518110156126dc5782818151811061268357612683613483565b6020026020010151600360008684815181106126a1576126a1613483565b6020026020010151815260200190815260200160002060008282546126c691906134af565b909155506126d5905081613525565b9050612668565b505b6001600160a01b038416611eca5760005b8351811015611fb257600084828151811061270c5761270c613483565b60200260200101519050600084838151811061272a5761272a613483565b60200260200101519050600060036000848152602001908152602001600020549050818110156127ad5760405162461bcd60e51b815260206004820152602860248201527f455243313135353a206275726e20616d6f756e74206578636565647320746f74604482015267616c537570706c7960c01b6064820152608401610689565b600092835260036020526040909220910390556127c981613525565b90506126ef565b6040805180820190915260608152600060208201526127f0602083613a88565b1561281857612800602083613a88565b61280b90602061370d565b61281590836134af565b91505b506020828101829052604080518085526000815290920101905290565b6017816001600160401b03161161285957610a658360e0600585901b168317612ac1565b60ff816001600160401b0316116128955761287f836018611fe0600586901b1617612ac1565b50610a65836001600160401b0383166001612ae6565b61ffff816001600160401b0316116128d2576128bc836019611fe0600586901b1617612ac1565b50610a65836001600160401b0383166002612ae6565b63ffffffff816001600160401b031611612911576128fb83601a611fe0600586901b1617612ac1565b50610a65836001600160401b0383166004612ae6565b61292683601b611fe0600586901b1617612ac1565b50610a65836001600160401b0383166008612ae6565b60408051808201909152606081526000602082015261201883846000015151848551612b0c565b6040516bffffffffffffffffffffffff193060601b1660208201526034810184905260009060540160408051808303601f1901815282825280516020918201206000818152600990925291812080546001600160a01b0319166001600160a01b038a1617905590925082917fb5e6e01e79f91267dc17b4e6314d5d4d03593d2ceee0fbb452b750bd70ea5af99190a2600654604051630200057560e51b81526001600160a01b0390911690634000aea090612a2690889087908790600401613a9c565b6020604051808303816000875af1158015612a45573d6000803e3d6000fd5b505050506040513d601f19601f82011682018060405250810190612a6991906135eb565b61246d5760405162461bcd60e51b815260206004820152602360248201527f756e61626c6520746f207472616e73666572416e6443616c6c20746f206f7261604482015262636c6560e81b6064820152608401610689565b6040805180820190915260608152600060208201526120188384600001515184612bf6565b60408051808201909152606081526000602082015261246d848560000151518585612c51565b6040805180820190915260608152600060208201528251821115612b2f57600080fd5b6020850151612b3e83866134af565b1115612b7157612b7185612b6187602001518786612b5c91906134af565b612cd2565b612b6c90600261350e565b612ce9565b600080865180518760208301019350808887011115612b905787860182525b505050602084015b60208410612bd05780518252612baf6020836134af565b9150612bbc6020826134af565b9050612bc960208561370d565b9350612b98565b51815160001960208690036101000a019081169019919091161790525083949350505050565b60408051808201909152606081526000602082015283602001518310612c2b57612c2b8485602001516002612b6c919061350e565b8351805160208583010184815350808503612c47576001810182525b5093949350505050565b6040805180820190915260608152600060208201526020850151612c7585846134af565b1115612c8957612c8985612b6186856134af565b60006001612c9984610100613ba7565b612ca3919061370d565b9050855183868201018583198251161781525080518487011115612cc75783860181525b509495945050505050565b600081831115612ce35750816106b5565b50919050565b8151612cf583836127d0565b50610a65838261293c565b6040805160a0810182526000808252602080830182905282840182905260608084018390528451808601909552845283015290608082015290565b80356001600160a01b0381168114612d5257600080fd5b919050565b60008060408385031215612d6a57600080fd5b612d7383612d3b565b946020939093013593505050565b6001600160e01b03198116811461071c57600080fd5b600060208284031215612da957600080fd5b813561201881612d81565b634e487b7160e01b600052604160045260246000fd5b601f8201601f191681016001600160401b0381118282101715612def57612def612db4565b6040525050565b60006001600160401b03831115612e0f57612e0f612db4565b604051612e26601f8501601f191660200182612dca565b809150838152848484011115612e3b57600080fd5b83836020830137600060208583010152509392505050565b600060208284031215612e6557600080fd5b81356001600160401b03811115612e7b57600080fd5b8201601f81018413612e8c57600080fd5b61246d84823560208401612df6565b600060208284031215612ead57600080fd5b5035919050565b60005b83811015612ecf578181015183820152602001612eb7565b50506000910152565b60008151808452612ef0816020860160208601612eb4565b601f01601f19169290920160200192915050565b6020815260006120186020830184612ed8565b60006001600160401b03821115612f3057612f30612db4565b5060051b60200190565b600082601f830112612f4b57600080fd5b81356020612f5882612f17565b604051612f658282612dca565b83815260059390931b8501820192828101915086841115612f8557600080fd5b8286015b84811015612fa05780358352918301918301612f89565b509695505050505050565b600082601f830112612fbc57600080fd5b61201883833560208501612df6565b60008060008060808587031215612fe157600080fd5b612fea85612d3b565b935060208501356001600160401b038082111561300657600080fd5b61301288838901612f3a565b9450604087013591508082111561302857600080fd5b61303488838901612f3a565b9350606087013591508082111561304a57600080fd5b5061305787828801612fab565b91505092959194509250565b60008060006060848603121561307857600080fd5b833592506020840135915061308f60408501612d3b565b90509250925092565b600080600080600060a086880312156130b057600080fd5b6130b986612d3b565b94506130c760208701612d3b565b935060408601356001600160401b03808211156130e357600080fd5b6130ef89838a01612f3a565b9450606088013591508082111561310557600080fd5b61311189838a01612f3a565b9350608088013591508082111561312757600080fd5b5061313488828901612fab565b9150509295509295909350565b6000806040838503121561315457600080fd5b8235915061316460208401612d3b565b90509250929050565b6000806040838503121561318057600080fd5b82356001600160401b038082111561319757600080fd5b818501915085601f8301126131ab57600080fd5b813560206131b882612f17565b6040516131c58282612dca565b83815260059390931b85018201928281019150898411156131e557600080fd5b948201945b8386101561320a576131fb86612d3b565b825294820194908201906131ea565b9650508601359250508082111561322057600080fd5b5061322d85828601612f3a565b9150509250929050565b600081518084526020808501945080840160005b83811015612cc75781518752958201959082019060010161324b565b6020815260006120186020830184613237565b6000806040838503121561328d57600080fd5b50508035926020909101359150565b600080600080608085870312156132b257600080fd5b6132bb85612d3b565b9350602085013592506040850135915060608501356001600160401b038111156132e457600080fd5b61305787828801612fab565b6020808252825182820181905260009190848201906040850190845b818110156133315783516001600160a01b03168352928401929184019160010161330c565b50909695505050505050565b801515811461071c57600080fd5b6000806040838503121561335e57600080fd5b61336783612d3b565b915060208301356133778161333d565b809150509250929050565b6000806040838503121561339557600080fd5b61339e83612d3b565b915061316460208401612d3b565b600080600080600060a086880312156133c457600080fd5b6133cd86612d3b565b94506133db60208701612d3b565b9350604086013592506060860135915060808601356001600160401b0381111561340457600080fd5b61313488828901612fab565b60006020828403121561342257600080fd5b61201882612d3b565b600181811c9082168061343f57607f821691505b602082108103612ce357634e487b7160e01b600052602260045260246000fd5b6020808252600a90820152694e6f742061637469766560b01b604082015260600190565b634e487b7160e01b600052603260045260246000fd5b634e487b7160e01b600052601160045260246000fd5b808201808211156106b5576106b5613499565b6020808252602c908201527f596f752063616e206f6e6c79206d696e7420323020696e207468652073616d6560408201526b103a3930b739b0b1ba34b7b760a11b606082015260800190565b80820281158282048414176106b5576106b5613499565b60006001820161353757613537613499565b5060010190565b634e487b7160e01b600052601260045260246000fd5b6000826135635761356361353e565b500490565b6000825161357a818460208701612eb4565b9190910192915050565b6020808252602e908201527f455243313135353a2063616c6c6572206973206e6f7420746f6b656e206f776e60408201526d195c881bdc88185c1c1c9bdd995960921b606082015260800190565b6000602082840312156135e457600080fd5b5051919050565b6000602082840312156135fd57600080fd5b81516120188161333d565b601f821115611bc957600081815260208120601f850160051c8101602086101561362f5750805b601f850160051c820191505b81811015611eca5782815560010161363b565b81516001600160401b0381111561366757613667612db4565b61367b81613675845461342b565b84613608565b602080601f8311600181146136b057600084156136985750858301515b600019600386901b1c1916600185901b178555611eca565b600085815260208120601f198616915b828110156136df578886015182559484019460019091019084016136c0565b50858210156136fd5787850151600019600388901b60f8161c191681555b5050505050600190811b01905550565b818103818111156106b5576106b5613499565b634e487b7160e01b600052603160045260246000fd5b60208082526021908201527f455243313135353a206d696e7420746f20746865207a65726f206164647265736040820152607360f81b606082015260800190565b60208082526028908201527f455243313135353a2069647320616e6420616d6f756e7473206c656e677468206040820152670dad2e6dac2e8c6d60c31b606082015260800190565b6040815260006137d26040830185613237565b8281036020840152611fd78185613237565b60208082526025908201527f455243313135353a207472616e7366657220746f20746865207a65726f206164604082015264647265737360d81b606082015260800190565b6020808252602a908201527f455243313135353a20696e73756666696369656e742062616c616e636520666f60408201526939103a3930b739b332b960b11b606082015260800190565b6001600160a01b0386811682528516602082015260a06040820181905260009061389f90830186613237565b82810360608401526138b18186613237565b905082810360808401526138c58185612ed8565b98975050505050505050565b6000602082840312156138e357600080fd5b815161201881612d81565b600060033d11156139075760046000803e5060005160e01c5b90565b600060443d10156139185790565b6040516003193d81016004833e81513d6001600160401b03816024840111818411171561394757505050505090565b828501915081518181111561395f5750505050505090565b843d87010160208285010111156139795750505050505090565b61398860208286010187612dca565b509095945050505050565b60208082526028908201527f455243313135353a204552433131353552656365697665722072656a656374656040820152676420746f6b656e7360c01b606082015260800190565b6001600160a01b03868116825285166020820152604081018490526060810183905260a060808201819052600090613a1590830184612ed8565b979650505050505050565b6001600160a01b0389811682526020820189905260408201889052861660608201526001600160e01b03198516608082015260a0810184905260c0810183905261010060e08201819052600090613a7983820185612ed8565b9b9a5050505050505050505050565b600082613a9757613a9761353e565b500690565b60018060a01b0384168152826020820152606060408201526000611fd76060830184612ed8565b600181815b80851115613afe578160001904821115613ae457613ae4613499565b80851615613af157918102915b93841c9390800290613ac8565b509250929050565b600082613b15575060016106b5565b81613b22575060006106b5565b8160018114613b385760028114613b4257613b5e565b60019150506106b5565b60ff841115613b5357613b53613499565b50506001821b6106b5565b5060208310610133831016604e8410600b8410161715613b81575081810a6106b5565b613b8b8383613ac3565b8060001904821115613b9f57613b9f613499565b029392505050565b60006120188383613b0656fea264697066735822122021af6f327691194f7676d2bb6daeb310478d19863454166a0bdcb3114c5728c164736f6c63430008130033687474703a2f2f6170692e666f6f7462616c6c2d646174612e6f72672f76342f636f6d7065746974696f6e732f68747470733a2f2f697066732e696f2f697066732f516d554e4c4c73504143437a31764c7851566b5871714c5835523158333435717166486273663637687641334e6e",
			"opcodes": "PUSH1 0x80 PUSH1 0x40 MSTORE PUSH1 0x1 PUSH1 0x8 SSTORE PUSH1 0x40 MLOAD PUSH3 0x42DA CODESIZE SUB DUP1 PUSH3 0x42DA DUP4 CODECOPY DUP2 ADD PUSH1 0x40 DUP2 SWAP1 MSTORE PUSH3 0x2B SWAP2 PUSH3 0x3E2 JUMP JUMPDEST DUP1 CALLER DUP1 PUSH1 0x0 PUSH1 0x40 MLOAD DUP1 PUSH1 0x80 ADD PUSH1 0x40 MSTORE DUP1 PUSH1 0x43 DUP2 MSTORE PUSH1 0x20 ADD PUSH3 0x4297 PUSH1 0x43 SWAP2 CODECOPY PUSH3 0x55 DUP2 PUSH3 0x2B9 JUMP JUMPDEST POP PUSH1 0x1 PUSH1 0x1 PUSH1 0xA0 SHL SUB DUP3 AND PUSH3 0xB2 JUMPI PUSH1 0x40 MLOAD PUSH3 0x461BCD PUSH1 0xE5 SHL DUP2 MSTORE PUSH1 0x20 PUSH1 0x4 DUP3 ADD MSTORE PUSH1 0x18 PUSH1 0x24 DUP3 ADD MSTORE PUSH32 0x43616E6E6F7420736574206F776E657220746F207A65726F0000000000000000 PUSH1 0x44 DUP3 ADD MSTORE PUSH1 0x64 ADD JUMPDEST PUSH1 0x40 MLOAD DUP1 SWAP2 SUB SWAP1 REVERT JUMPDEST PUSH1 0xA DUP1 SLOAD PUSH1 0x1 PUSH1 0x1 PUSH1 0xA0 SHL SUB NOT AND PUSH1 0x1 PUSH1 0x1 PUSH1 0xA0 SHL SUB DUP5 DUP2 AND SWAP2 SWAP1 SWAP2 OR SWAP1 SWAP2 SSTORE DUP2 AND ISZERO PUSH3 0xE5 JUMPI PUSH3 0xE5 DUP2 PUSH3 0x2CB JUMP JUMPDEST POP POP POP PUSH1 0x0 PUSH1 0x40 MLOAD DUP1 PUSH1 0x60 ADD PUSH1 0x40 MSTORE DUP1 PUSH1 0x2D DUP2 MSTORE PUSH1 0x20 ADD PUSH3 0x426A PUSH1 0x2D SWAP2 CODECOPY PUSH1 0x40 DUP1 MLOAD DUP1 DUP3 ADD SWAP1 SWAP2 MSTORE PUSH1 0xA DUP2 MSTORE PUSH10 0x2F7374616E64696E6773 PUSH1 0xB0 SHL PUSH1 0x20 DUP3 ADD MSTORE SWAP1 SWAP2 POP PUSH1 0x12 PUSH3 0x136 DUP5 DUP3 PUSH3 0x529 JUMP JUMPDEST POP PUSH3 0x1E4 DUP2 PUSH3 0x1DD PUSH1 0x12 DUP1 SLOAD PUSH3 0x14F SWAP1 PUSH3 0x49A JUMP JUMPDEST DUP1 PUSH1 0x1F ADD PUSH1 0x20 DUP1 SWAP2 DIV MUL PUSH1 0x20 ADD PUSH1 0x40 MLOAD SWAP1 DUP2 ADD PUSH1 0x40 MSTORE DUP1 SWAP3 SWAP2 SWAP1 DUP2 DUP2 MSTORE PUSH1 0x20 ADD DUP3 DUP1 SLOAD PUSH3 0x17D SWAP1 PUSH3 0x49A JUMP JUMPDEST DUP1 ISZERO PUSH3 0x1CE JUMPI DUP1 PUSH1 0x1F LT PUSH3 0x1A2 JUMPI PUSH2 0x100 DUP1 DUP4 SLOAD DIV MUL DUP4 MSTORE SWAP2 PUSH1 0x20 ADD SWAP2 PUSH3 0x1CE JUMP JUMPDEST DUP3 ADD SWAP2 SWAP1 PUSH1 0x0 MSTORE PUSH1 0x20 PUSH1 0x0 KECCAK256 SWAP1 JUMPDEST DUP2 SLOAD DUP2 MSTORE SWAP1 PUSH1 0x1 ADD SWAP1 PUSH1 0x20 ADD DUP1 DUP4 GT PUSH3 0x1B0 JUMPI DUP3 SWAP1 SUB PUSH1 0x1F AND DUP3 ADD SWAP2 JUMPDEST POP DUP10 SWAP5 SWAP4 POP POP PUSH3 0x377 SWAP2 POP POP JUMP JUMPDEST SWAP1 PUSH3 0x377 JUMP JUMPDEST PUSH1 0x11 SWAP1 PUSH3 0x1F3 SWAP1 DUP3 PUSH3 0x529 JUMP JUMPDEST POP PUSH1 0x6 DUP1 SLOAD PUSH1 0x1 PUSH1 0x1 PUSH1 0xA0 SHL SUB NOT AND PUSH20 0x326C977E6EFC84E512BB9C30F76E30C160ED06FB OR SWAP1 SSTORE PUSH1 0x7 DUP1 SLOAD PUSH1 0x1 PUSH1 0x1 PUSH1 0xA0 SHL SUB NOT AND PUSH20 0x20CAC2354359919C15950DEA3033A7712B6ECF8C OR SWAP1 SSTORE PUSH32 0x3364323532396365323661373463396439653539333735306439343935306339 PUSH1 0xF SSTORE PUSH1 0xA PUSH3 0x27B PUSH8 0xDE0B6B3A7640000 PUSH1 0x1 PUSH3 0x5F5 JUMP JUMPDEST PUSH3 0x287 SWAP2 SWAP1 PUSH3 0x61B JUMP JUMPDEST PUSH1 0x10 SSTORE POP POP PUSH1 0x15 DUP1 SLOAD PUSH1 0xFF PUSH1 0xA0 SHL NOT CALLER AND PUSH1 0x1 PUSH1 0x1 PUSH1 0xA8 SHL SUB NOT SWAP1 SWAP2 AND OR PUSH1 0x1 PUSH1 0xA0 SHL OR SWAP1 SSTORE POP POP TIMESTAMP PUSH1 0x14 SSTORE PUSH3 0x671 JUMP JUMPDEST PUSH1 0x2 PUSH3 0x2C7 DUP3 DUP3 PUSH3 0x529 JUMP JUMPDEST POP POP JUMP JUMPDEST CALLER PUSH1 0x1 PUSH1 0x1 PUSH1 0xA0 SHL SUB DUP3 AND SUB PUSH3 0x325 JUMPI PUSH1 0x40 MLOAD PUSH3 0x461BCD PUSH1 0xE5 SHL DUP2 MSTORE PUSH1 0x20 PUSH1 0x4 DUP3 ADD MSTORE PUSH1 0x17 PUSH1 0x24 DUP3 ADD MSTORE PUSH32 0x43616E6E6F74207472616E7366657220746F2073656C66000000000000000000 PUSH1 0x44 DUP3 ADD MSTORE PUSH1 0x64 ADD PUSH3 0xA9 JUMP JUMPDEST PUSH1 0xB DUP1 SLOAD PUSH1 0x1 PUSH1 0x1 PUSH1 0xA0 SHL SUB NOT AND PUSH1 0x1 PUSH1 0x1 PUSH1 0xA0 SHL SUB DUP4 DUP2 AND SWAP2 DUP3 OR SWAP1 SWAP3 SSTORE PUSH1 0xA SLOAD PUSH1 0x40 MLOAD SWAP2 SWAP3 AND SWAP1 PUSH32 0xED8889F560326EB138920D842192F0EB3DD22B4F139C87A2C57538E05BAE1278 SWAP1 PUSH1 0x0 SWAP1 LOG3 POP JUMP JUMPDEST PUSH1 0x60 DUP3 DUP3 PUSH1 0x40 MLOAD PUSH1 0x20 ADD PUSH3 0x38E SWAP3 SWAP2 SWAP1 PUSH3 0x63E JUMP JUMPDEST PUSH1 0x40 MLOAD PUSH1 0x20 DUP2 DUP4 SUB SUB DUP2 MSTORE SWAP1 PUSH1 0x40 MSTORE SWAP1 POP JUMPDEST SWAP3 SWAP2 POP POP JUMP JUMPDEST PUSH4 0x4E487B71 PUSH1 0xE0 SHL PUSH1 0x0 MSTORE PUSH1 0x41 PUSH1 0x4 MSTORE PUSH1 0x24 PUSH1 0x0 REVERT JUMPDEST PUSH1 0x0 JUMPDEST DUP4 DUP2 LT ISZERO PUSH3 0x3D9 JUMPI DUP2 DUP2 ADD MLOAD DUP4 DUP3 ADD MSTORE PUSH1 0x20 ADD PUSH3 0x3BF JUMP JUMPDEST POP POP PUSH1 0x0 SWAP2 ADD MSTORE JUMP JUMPDEST PUSH1 0x0 PUSH1 0x20 DUP3 DUP5 SUB SLT ISZERO PUSH3 0x3F5 JUMPI PUSH1 0x0 DUP1 REVERT JUMPDEST DUP2 MLOAD PUSH1 0x1 PUSH1 0x1 PUSH1 0x40 SHL SUB DUP1 DUP3 GT ISZERO PUSH3 0x40D JUMPI PUSH1 0x0 DUP1 REVERT JUMPDEST DUP2 DUP5 ADD SWAP2 POP DUP5 PUSH1 0x1F DUP4 ADD SLT PUSH3 0x422 JUMPI PUSH1 0x0 DUP1 REVERT JUMPDEST DUP2 MLOAD DUP2 DUP2 GT ISZERO PUSH3 0x437 JUMPI PUSH3 0x437 PUSH3 0x3A6 JUMP JUMPDEST PUSH1 0x40 MLOAD PUSH1 0x1F DUP3 ADD PUSH1 0x1F NOT SWAP1 DUP2 AND PUSH1 0x3F ADD AND DUP2 ADD SWAP1 DUP4 DUP3 GT DUP2 DUP4 LT OR ISZERO PUSH3 0x462 JUMPI PUSH3 0x462 PUSH3 0x3A6 JUMP JUMPDEST DUP2 PUSH1 0x40 MSTORE DUP3 DUP2 MSTORE DUP8 PUSH1 0x20 DUP5 DUP8 ADD ADD GT ISZERO PUSH3 0x47C JUMPI PUSH1 0x0 DUP1 REVERT JUMPDEST PUSH3 0x48F DUP4 PUSH1 0x20 DUP4 ADD PUSH1 0x20 DUP9 ADD PUSH3 0x3BC JUMP JUMPDEST SWAP8 SWAP7 POP POP POP POP POP POP POP JUMP JUMPDEST PUSH1 0x1 DUP2 DUP2 SHR SWAP1 DUP3 AND DUP1 PUSH3 0x4AF JUMPI PUSH1 0x7F DUP3 AND SWAP2 POP JUMPDEST PUSH1 0x20 DUP3 LT DUP2 SUB PUSH3 0x4D0 JUMPI PUSH4 0x4E487B71 PUSH1 0xE0 SHL PUSH1 0x0 MSTORE PUSH1 0x22 PUSH1 0x4 MSTORE PUSH1 0x24 PUSH1 0x0 REVERT JUMPDEST POP SWAP2 SWAP1 POP JUMP JUMPDEST PUSH1 0x1F DUP3 GT ISZERO PUSH3 0x524 JUMPI PUSH1 0x0 DUP2 DUP2 MSTORE PUSH1 0x20 DUP2 KECCAK256 PUSH1 0x1F DUP6 ADD PUSH1 0x5 SHR DUP2 ADD PUSH1 0x20 DUP7 LT ISZERO PUSH3 0x4FF JUMPI POP DUP1 JUMPDEST PUSH1 0x1F DUP6 ADD PUSH1 0x5 SHR DUP3 ADD SWAP2 POP JUMPDEST DUP2 DUP2 LT ISZERO PUSH3 0x520 JUMPI DUP3 DUP2 SSTORE PUSH1 0x1 ADD PUSH3 0x50B JUMP JUMPDEST POP POP POP JUMPDEST POP POP POP JUMP JUMPDEST DUP2 MLOAD PUSH1 0x1 PUSH1 0x1 PUSH1 0x40 SHL SUB DUP2 GT ISZERO PUSH3 0x545 JUMPI PUSH3 0x545 PUSH3 0x3A6 JUMP JUMPDEST PUSH3 0x55D DUP2 PUSH3 0x556 DUP5 SLOAD PUSH3 0x49A JUMP JUMPDEST DUP5 PUSH3 0x4D6 JUMP JUMPDEST PUSH1 0x20 DUP1 PUSH1 0x1F DUP4 GT PUSH1 0x1 DUP2 EQ PUSH3 0x595 JUMPI PUSH1 0x0 DUP5 ISZERO PUSH3 0x57C JUMPI POP DUP6 DUP4 ADD MLOAD JUMPDEST PUSH1 0x0 NOT PUSH1 0x3 DUP7 SWAP1 SHL SHR NOT AND PUSH1 0x1 DUP6 SWAP1 SHL OR DUP6 SSTORE PUSH3 0x520 JUMP JUMPDEST PUSH1 0x0 DUP6 DUP2 MSTORE PUSH1 0x20 DUP2 KECCAK256 PUSH1 0x1F NOT DUP7 AND SWAP2 JUMPDEST DUP3 DUP2 LT ISZERO PUSH3 0x5C6 JUMPI DUP9 DUP7 ADD MLOAD DUP3 SSTORE SWAP5 DUP5 ADD SWAP5 PUSH1 0x1 SWAP1 SWAP2 ADD SWAP1 DUP5 ADD PUSH3 0x5A5 JUMP JUMPDEST POP DUP6 DUP3 LT ISZERO PUSH3 0x5E5 JUMPI DUP8 DUP6 ADD MLOAD PUSH1 0x0 NOT PUSH1 0x3 DUP9 SWAP1 SHL PUSH1 0xF8 AND SHR NOT AND DUP2 SSTORE JUMPDEST POP POP POP POP POP PUSH1 0x1 SWAP1 DUP2 SHL ADD SWAP1 SSTORE POP JUMP JUMPDEST DUP1 DUP3 MUL DUP2 ISZERO DUP3 DUP3 DIV DUP5 EQ OR PUSH3 0x3A0 JUMPI PUSH4 0x4E487B71 PUSH1 0xE0 SHL PUSH1 0x0 MSTORE PUSH1 0x11 PUSH1 0x4 MSTORE PUSH1 0x24 PUSH1 0x0 REVERT JUMPDEST PUSH1 0x0 DUP3 PUSH3 0x639 JUMPI PUSH4 0x4E487B71 PUSH1 0xE0 SHL PUSH1 0x0 MSTORE PUSH1 0x12 PUSH1 0x4 MSTORE PUSH1 0x24 PUSH1 0x0 REVERT JUMPDEST POP DIV SWAP1 JUMP JUMPDEST PUSH1 0x0 DUP4 MLOAD PUSH3 0x652 DUP2 DUP5 PUSH1 0x20 DUP9 ADD PUSH3 0x3BC JUMP JUMPDEST DUP4 MLOAD SWAP1 DUP4 ADD SWAP1 PUSH3 0x668 DUP2 DUP4 PUSH1 0x20 DUP9 ADD PUSH3 0x3BC JUMP JUMPDEST ADD SWAP5 SWAP4 POP POP POP POP JUMP JUMPDEST PUSH2 0x3BE9 DUP1 PUSH3 0x681 PUSH1 0x0 CODECOPY PUSH1 0x0 RETURN INVALID PUSH1 0x80 PUSH1 0x40 MSTORE PUSH1 0x4 CALLDATASIZE LT PUSH2 0x1ED JUMPI PUSH1 0x0 CALLDATALOAD PUSH1 0xE0 SHR DUP1 PUSH4 0x79BA5097 GT PUSH2 0x10D JUMPI DUP1 PUSH4 0xC3BF0680 GT PUSH2 0xA0 JUMPI DUP1 PUSH4 0xE985E9C5 GT PUSH2 0x6F JUMPI DUP1 PUSH4 0xE985E9C5 EQ PUSH2 0x58C JUMPI DUP1 PUSH4 0xEB685C47 EQ PUSH2 0x5AC JUMPI DUP1 PUSH4 0xF242432A EQ PUSH2 0x5CC JUMPI DUP1 PUSH4 0xF2FDE38B EQ PUSH2 0x5EC JUMPI DUP1 PUSH4 0xF81B5C5B EQ PUSH2 0x60C JUMPI PUSH1 0x0 DUP1 REVERT JUMPDEST DUP1 PUSH4 0xC3BF0680 EQ PUSH2 0x514 JUMPI DUP1 PUSH4 0xD9B29297 EQ PUSH2 0x534 JUMPI DUP1 PUSH4 0xDFBF53AE EQ PUSH2 0x549 JUMPI DUP1 PUSH4 0xE6A72ACF EQ PUSH2 0x55F JUMPI PUSH1 0x0 DUP1 REVERT JUMPDEST DUP1 PUSH4 0x8DC654A2 GT PUSH2 0xDC JUMPI DUP1 PUSH4 0x8DC654A2 EQ PUSH2 0x4AA JUMPI DUP1 PUSH4 0xA22CB465 EQ PUSH2 0x4BF JUMPI DUP1 PUSH4 0xBD85B039 EQ PUSH2 0x4DF JUMPI DUP1 PUSH4 0xBE71248A EQ PUSH2 0x50C JUMPI PUSH1 0x0 DUP1 REVERT JUMPDEST DUP1 PUSH4 0x79BA5097 EQ PUSH2 0x435 JUMPI DUP1 PUSH4 0x83197EF0 EQ PUSH2 0x44A JUMPI DUP1 PUSH4 0x8BCBBA71 EQ PUSH2 0x45F JUMPI DUP1 PUSH4 0x8DA5CB5B EQ PUSH2 0x48C JUMPI PUSH1 0x0 DUP1 REVERT JUMPDEST DUP1 PUSH4 0x22F3E2D4 GT PUSH2 0x185 JUMPI DUP1 PUSH4 0x4F558E79 GT PUSH2 0x154 JUMPI DUP1 PUSH4 0x4F558E79 EQ PUSH2 0x3A6 JUMPI DUP1 PUSH4 0x543E062C EQ PUSH2 0x3D5 JUMPI DUP1 PUSH4 0x731133E9 EQ PUSH2 0x40D JUMPI DUP1 PUSH4 0x78A7D3AF EQ PUSH2 0x420 JUMPI PUSH1 0x0 DUP1 REVERT JUMPDEST DUP1 PUSH4 0x22F3E2D4 EQ PUSH2 0x300 JUMPI DUP1 PUSH4 0x2EB2C2D6 EQ PUSH2 0x321 JUMPI DUP1 PUSH4 0x392FFAEC EQ PUSH2 0x341 JUMPI DUP1 PUSH4 0x4E1273F4 EQ PUSH2 0x379 JUMPI PUSH1 0x0 DUP1 REVERT JUMPDEST DUP1 PUSH4 0xDF71602 GT PUSH2 0x1C1 JUMPI DUP1 PUSH4 0xDF71602 EQ PUSH2 0x28D JUMPI DUP1 PUSH4 0xE89341C EQ PUSH2 0x2AD JUMPI DUP1 PUSH4 0x1F7FDFFA EQ PUSH2 0x2DA JUMPI DUP1 PUSH4 0x21466EB5 EQ PUSH2 0x2ED JUMPI PUSH1 0x0 DUP1 REVERT JUMPDEST DUP1 PUSH3 0xFDD58E EQ PUSH2 0x1F2 JUMPI DUP1 PUSH4 0x1A3694E EQ PUSH2 0x225 JUMPI DUP1 PUSH4 0x1FFC9A7 EQ PUSH2 0x23B JUMPI DUP1 PUSH4 0x2FE5305 EQ PUSH2 0x26B JUMPI JUMPDEST PUSH1 0x0 DUP1 REVERT JUMPDEST CALLVALUE DUP1 ISZERO PUSH2 0x1FE JUMPI PUSH1 0x0 DUP1 REVERT JUMPDEST POP PUSH2 0x212 PUSH2 0x20D CALLDATASIZE PUSH1 0x4 PUSH2 0x2D57 JUMP JUMPDEST PUSH2 0x622 JUMP JUMPDEST PUSH1 0x40 MLOAD SWAP1 DUP2 MSTORE PUSH1 0x20 ADD JUMPDEST PUSH1 0x40 MLOAD DUP1 SWAP2 SUB SWAP1 RETURN JUMPDEST CALLVALUE DUP1 ISZERO PUSH2 0x231 JUMPI PUSH1 0x0 DUP1 REVERT JUMPDEST POP PUSH2 0x212 PUSH1 0xD SLOAD DUP2 JUMP JUMPDEST CALLVALUE DUP1 ISZERO PUSH2 0x247 JUMPI PUSH1 0x0 DUP1 REVERT JUMPDEST POP PUSH2 0x25B PUSH2 0x256 CALLDATASIZE PUSH1 0x4 PUSH2 0x2D97 JUMP JUMPDEST PUSH2 0x6BB JUMP JUMPDEST PUSH1 0x40 MLOAD SWAP1 ISZERO ISZERO DUP2 MSTORE PUSH1 0x20 ADD PUSH2 0x21C JUMP JUMPDEST CALLVALUE DUP1 ISZERO PUSH2 0x277 JUMPI PUSH1 0x0 DUP1 REVERT JUMPDEST POP PUSH2 0x28B PUSH2 0x286 CALLDATASIZE PUSH1 0x4 PUSH2 0x2E53 JUMP JUMPDEST PUSH2 0x70B JUMP JUMPDEST STOP JUMPDEST CALLVALUE DUP1 ISZERO PUSH2 0x299 JUMPI PUSH1 0x0 DUP1 REVERT JUMPDEST POP PUSH2 0x28B PUSH2 0x2A8 CALLDATASIZE PUSH1 0x4 PUSH2 0x2E9B JUMP JUMPDEST PUSH1 0xC SSTORE JUMP JUMPDEST CALLVALUE DUP1 ISZERO PUSH2 0x2B9 JUMPI PUSH1 0x0 DUP1 REVERT JUMPDEST POP PUSH2 0x2CD PUSH2 0x2C8 CALLDATASIZE PUSH1 0x4 PUSH2 0x2E9B JUMP JUMPDEST PUSH2 0x71F JUMP JUMPDEST PUSH1 0x40 MLOAD PUSH2 0x21C SWAP2 SWAP1 PUSH2 0x2F04 JUMP JUMPDEST PUSH2 0x28B PUSH2 0x2E8 CALLDATASIZE PUSH1 0x4 PUSH2 0x2FCB JUMP JUMPDEST PUSH2 0x7B3 JUMP JUMPDEST PUSH2 0x28B PUSH2 0x2FB CALLDATASIZE PUSH1 0x4 PUSH2 0x3063 JUMP JUMPDEST PUSH2 0xA6B JUMP JUMPDEST CALLVALUE DUP1 ISZERO PUSH2 0x30C JUMPI PUSH1 0x0 DUP1 REVERT JUMPDEST POP PUSH1 0x15 SLOAD PUSH2 0x25B SWAP1 PUSH1 0x1 PUSH1 0xA0 SHL SWAP1 DIV PUSH1 0xFF AND DUP2 JUMP JUMPDEST CALLVALUE DUP1 ISZERO PUSH2 0x32D JUMPI PUSH1 0x0 DUP1 REVERT JUMPDEST POP PUSH2 0x28B PUSH2 0x33C CALLDATASIZE PUSH1 0x4 PUSH2 0x3098 JUMP JUMPDEST PUSH2 0xDA7 JUMP JUMPDEST CALLVALUE DUP1 ISZERO PUSH2 0x34D JUMPI PUSH1 0x0 DUP1 REVERT JUMPDEST POP PUSH2 0x212 PUSH2 0x35C CALLDATASIZE PUSH1 0x4 PUSH2 0x3141 JUMP JUMPDEST PUSH1 0x17 PUSH1 0x20 SWAP1 DUP2 MSTORE PUSH1 0x0 SWAP3 DUP4 MSTORE PUSH1 0x40 DUP1 DUP5 KECCAK256 SWAP1 SWAP2 MSTORE SWAP1 DUP3 MSTORE SWAP1 KECCAK256 SLOAD DUP2 JUMP JUMPDEST CALLVALUE DUP1 ISZERO PUSH2 0x385 JUMPI PUSH1 0x0 DUP1 REVERT JUMPDEST POP PUSH2 0x399 PUSH2 0x394 CALLDATASIZE PUSH1 0x4 PUSH2 0x316D JUMP JUMPDEST PUSH2 0xDF3 JUMP JUMPDEST PUSH1 0x40 MLOAD PUSH2 0x21C SWAP2 SWAP1 PUSH2 0x3267 JUMP JUMPDEST CALLVALUE DUP1 ISZERO PUSH2 0x3B2 JUMPI PUSH1 0x0 DUP1 REVERT JUMPDEST POP PUSH2 0x25B PUSH2 0x3C1 CALLDATASIZE PUSH1 0x4 PUSH2 0x2E9B JUMP JUMPDEST PUSH1 0x0 SWAP1 DUP2 MSTORE PUSH1 0x3 PUSH1 0x20 MSTORE PUSH1 0x40 SWAP1 KECCAK256 SLOAD ISZERO ISZERO SWAP1 JUMP JUMPDEST CALLVALUE DUP1 ISZERO PUSH2 0x3E1 JUMPI PUSH1 0x0 DUP1 REVERT JUMPDEST POP PUSH2 0x3F5 PUSH2 0x3F0 CALLDATASIZE PUSH1 0x4 PUSH2 0x327A JUMP JUMPDEST PUSH2 0xF1C JUMP JUMPDEST PUSH1 0x40 MLOAD PUSH1 0x1 PUSH1 0x1 PUSH1 0xA0 SHL SUB SWAP1 SWAP2 AND DUP2 MSTORE PUSH1 0x20 ADD PUSH2 0x21C JUMP JUMPDEST PUSH2 0x28B PUSH2 0x41B CALLDATASIZE PUSH1 0x4 PUSH2 0x329C JUMP JUMPDEST PUSH2 0xF54 JUMP JUMPDEST CALLVALUE DUP1 ISZERO PUSH2 0x42C JUMPI PUSH1 0x0 DUP1 REVERT JUMPDEST POP PUSH2 0x212 PUSH2 0x10E6 JUMP JUMPDEST CALLVALUE DUP1 ISZERO PUSH2 0x441 JUMPI PUSH1 0x0 DUP1 REVERT JUMPDEST POP PUSH2 0x28B PUSH2 0x1295 JUMP JUMPDEST CALLVALUE DUP1 ISZERO PUSH2 0x456 JUMPI PUSH1 0x0 DUP1 REVERT JUMPDEST POP PUSH2 0x28B PUSH2 0x1343 JUMP JUMPDEST CALLVALUE DUP1 ISZERO PUSH2 0x46B JUMPI PUSH1 0x0 DUP1 REVERT JUMPDEST POP PUSH2 0x47F PUSH2 0x47A CALLDATASIZE PUSH1 0x4 PUSH2 0x2E9B JUMP JUMPDEST PUSH2 0x13A8 JUMP JUMPDEST PUSH1 0x40 MLOAD PUSH2 0x21C SWAP2 SWAP1 PUSH2 0x32F0 JUMP JUMPDEST CALLVALUE DUP1 ISZERO PUSH2 0x498 JUMPI PUSH1 0x0 DUP1 REVERT JUMPDEST POP PUSH1 0xA SLOAD PUSH1 0x1 PUSH1 0x1 PUSH1 0xA0 SHL SUB AND PUSH2 0x3F5 JUMP JUMPDEST CALLVALUE DUP1 ISZERO PUSH2 0x4B6 JUMPI PUSH1 0x0 DUP1 REVERT JUMPDEST POP PUSH2 0x28B PUSH2 0x1413 JUMP JUMPDEST CALLVALUE DUP1 ISZERO PUSH2 0x4CB JUMPI PUSH1 0x0 DUP1 REVERT JUMPDEST POP PUSH2 0x28B PUSH2 0x4DA CALLDATASIZE PUSH1 0x4 PUSH2 0x334B JUMP JUMPDEST PUSH2 0x1554 JUMP JUMPDEST CALLVALUE DUP1 ISZERO PUSH2 0x4EB JUMPI PUSH1 0x0 DUP1 REVERT JUMPDEST POP PUSH2 0x212 PUSH2 0x4FA CALLDATASIZE PUSH1 0x4 PUSH2 0x2E9B JUMP JUMPDEST PUSH1 0x0 SWAP1 DUP2 MSTORE PUSH1 0x3 PUSH1 0x20 MSTORE PUSH1 0x40 SWAP1 KECCAK256 SLOAD SWAP1 JUMP JUMPDEST PUSH2 0x28B PUSH2 0x1563 JUMP JUMPDEST CALLVALUE DUP1 ISZERO PUSH2 0x520 JUMPI PUSH1 0x0 DUP1 REVERT JUMPDEST POP PUSH2 0x28B PUSH2 0x52F CALLDATASIZE PUSH1 0x4 PUSH2 0x327A JUMP JUMPDEST PUSH2 0x1717 JUMP JUMPDEST CALLVALUE DUP1 ISZERO PUSH2 0x540 JUMPI PUSH1 0x0 DUP1 REVERT JUMPDEST POP PUSH2 0x2CD PUSH2 0x1814 JUMP JUMPDEST CALLVALUE DUP1 ISZERO PUSH2 0x555 JUMPI PUSH1 0x0 DUP1 REVERT JUMPDEST POP PUSH2 0x212 PUSH1 0xC SLOAD DUP2 JUMP JUMPDEST CALLVALUE DUP1 ISZERO PUSH2 0x56B JUMPI PUSH1 0x0 DUP1 REVERT JUMPDEST POP PUSH2 0x212 PUSH2 0x57A CALLDATASIZE PUSH1 0x4 PUSH2 0x2E9B JUMP JUMPDEST PUSH1 0x16 PUSH1 0x20 MSTORE PUSH1 0x0 SWAP1 DUP2 MSTORE PUSH1 0x40 SWAP1 KECCAK256 SLOAD DUP2 JUMP JUMPDEST CALLVALUE DUP1 ISZERO PUSH2 0x598 JUMPI PUSH1 0x0 DUP1 REVERT JUMPDEST POP PUSH2 0x25B PUSH2 0x5A7 CALLDATASIZE PUSH1 0x4 PUSH2 0x3382 JUMP JUMPDEST PUSH2 0x18A2 JUMP JUMPDEST CALLVALUE DUP1 ISZERO PUSH2 0x5B8 JUMPI PUSH1 0x0 DUP1 REVERT JUMPDEST POP PUSH2 0x28B PUSH2 0x5C7 CALLDATASIZE PUSH1 0x4 PUSH2 0x327A JUMP JUMPDEST PUSH2 0x18D0 JUMP JUMPDEST CALLVALUE DUP1 ISZERO PUSH2 0x5D8 JUMPI PUSH1 0x0 DUP1 REVERT JUMPDEST POP PUSH2 0x28B PUSH2 0x5E7 CALLDATASIZE PUSH1 0x4 PUSH2 0x33AC JUMP JUMPDEST PUSH2 0x1946 JUMP JUMPDEST CALLVALUE DUP1 ISZERO PUSH2 0x5F8 JUMPI PUSH1 0x0 DUP1 REVERT JUMPDEST POP PUSH2 0x28B PUSH2 0x607 CALLDATASIZE PUSH1 0x4 PUSH2 0x3410 JUMP JUMPDEST PUSH2 0x198B JUMP JUMPDEST CALLVALUE DUP1 ISZERO PUSH2 0x618 JUMPI PUSH1 0x0 DUP1 REVERT JUMPDEST POP PUSH2 0x212 PUSH1 0xE SLOAD DUP2 JUMP JUMPDEST PUSH1 0x0 PUSH1 0x1 PUSH1 0x1 PUSH1 0xA0 SHL SUB DUP4 AND PUSH2 0x692 JUMPI PUSH1 0x40 MLOAD PUSH3 0x461BCD PUSH1 0xE5 SHL DUP2 MSTORE PUSH1 0x20 PUSH1 0x4 DUP3 ADD MSTORE PUSH1 0x2A PUSH1 0x24 DUP3 ADD MSTORE PUSH32 0x455243313135353A2061646472657373207A65726F206973206E6F7420612076 PUSH1 0x44 DUP3 ADD MSTORE PUSH10 0x30B634B21037BBB732B9 PUSH1 0xB1 SHL PUSH1 0x64 DUP3 ADD MSTORE PUSH1 0x84 ADD JUMPDEST PUSH1 0x40 MLOAD DUP1 SWAP2 SUB SWAP1 REVERT JUMPDEST POP PUSH1 0x0 DUP2 DUP2 MSTORE PUSH1 0x20 DUP2 DUP2 MSTORE PUSH1 0x40 DUP1 DUP4 KECCAK256 PUSH1 0x1 PUSH1 0x1 PUSH1 0xA0 SHL SUB DUP7 AND DUP5 MSTORE SWAP1 SWAP2 MSTORE SWAP1 KECCAK256 SLOAD JUMPDEST SWAP3 SWAP2 POP POP JUMP JUMPDEST PUSH1 0x0 PUSH1 0x1 PUSH1 0x1 PUSH1 0xE0 SHL SUB NOT DUP3 AND PUSH4 0x6CDB3D13 PUSH1 0xE1 SHL EQ DUP1 PUSH2 0x6EC JUMPI POP PUSH1 0x1 PUSH1 0x1 PUSH1 0xE0 SHL SUB NOT DUP3 AND PUSH4 0x3A24D07 PUSH1 0xE2 SHL EQ JUMPDEST DUP1 PUSH2 0x6B5 JUMPI POP PUSH4 0x1FFC9A7 PUSH1 0xE0 SHL PUSH1 0x1 PUSH1 0x1 PUSH1 0xE0 SHL SUB NOT DUP4 AND EQ PUSH2 0x6B5 JUMP JUMPDEST PUSH2 0x713 PUSH2 0x199C JUMP JUMPDEST PUSH2 0x71C DUP2 PUSH2 0x19F1 JUMP JUMPDEST POP JUMP JUMPDEST PUSH1 0x60 PUSH1 0x2 DUP1 SLOAD PUSH2 0x72E SWAP1 PUSH2 0x342B JUMP JUMPDEST DUP1 PUSH1 0x1F ADD PUSH1 0x20 DUP1 SWAP2 DIV MUL PUSH1 0x20 ADD PUSH1 0x40 MLOAD SWAP1 DUP2 ADD PUSH1 0x40 MSTORE DUP1 SWAP3 SWAP2 SWAP1 DUP2 DUP2 MSTORE PUSH1 0x20 ADD DUP3 DUP1 SLOAD PUSH2 0x75A SWAP1 PUSH2 0x342B JUMP JUMPDEST DUP1 ISZERO PUSH2 0x7A7 JUMPI DUP1 PUSH1 0x1F LT PUSH2 0x77C JUMPI PUSH2 0x100 DUP1 DUP4 SLOAD DIV MUL DUP4 MSTORE SWAP2 PUSH1 0x20 ADD SWAP2 PUSH2 0x7A7 JUMP JUMPDEST DUP3 ADD SWAP2 SWAP1 PUSH1 0x0 MSTORE PUSH1 0x20 PUSH1 0x0 KECCAK256 SWAP1 JUMPDEST DUP2 SLOAD DUP2 MSTORE SWAP1 PUSH1 0x1 ADD SWAP1 PUSH1 0x20 ADD DUP1 DUP4 GT PUSH2 0x78A JUMPI DUP3 SWAP1 SUB PUSH1 0x1F AND DUP3 ADD SWAP2 JUMPDEST POP POP POP POP POP SWAP1 POP SWAP2 SWAP1 POP JUMP JUMPDEST PUSH1 0x15 SLOAD PUSH1 0x1 PUSH1 0xA0 SHL SWAP1 DIV PUSH1 0xFF AND PUSH2 0x7DC JUMPI PUSH1 0x40 MLOAD PUSH3 0x461BCD PUSH1 0xE5 SHL DUP2 MSTORE PUSH1 0x4 ADD PUSH2 0x689 SWAP1 PUSH2 0x345F JUMP JUMPDEST PUSH1 0x0 JUMPDEST DUP4 MLOAD DUP2 LT ISZERO PUSH2 0xA3F JUMPI PUSH3 0x186A0 PUSH2 0x81B DUP6 DUP4 DUP2 MLOAD DUP2 LT PUSH2 0x801 JUMPI PUSH2 0x801 PUSH2 0x3483 JUMP JUMPDEST PUSH1 0x20 MUL PUSH1 0x20 ADD ADD MLOAD PUSH1 0x0 SWAP1 DUP2 MSTORE PUSH1 0x3 PUSH1 0x20 MSTORE PUSH1 0x40 SWAP1 KECCAK256 SLOAD SWAP1 JUMP JUMPDEST DUP5 DUP4 DUP2 MLOAD DUP2 LT PUSH2 0x82D JUMPI PUSH2 0x82D PUSH2 0x3483 JUMP JUMPDEST PUSH1 0x20 MUL PUSH1 0x20 ADD ADD MLOAD PUSH2 0x83F SWAP2 SWAP1 PUSH2 0x34AF JUMP JUMPDEST GT ISZERO PUSH2 0x887 JUMPI PUSH1 0x40 MLOAD PUSH3 0x461BCD PUSH1 0xE5 SHL DUP2 MSTORE PUSH1 0x20 PUSH1 0x4 DUP3 ADD MSTORE PUSH1 0x17 PUSH1 0x24 DUP3 ADD MSTORE PUSH23 0x546865204E46542072656163686564206974732063617 PUSH1 0x4C SHL PUSH1 0x44 DUP3 ADD MSTORE PUSH1 0x64 ADD PUSH2 0x689 JUMP JUMPDEST PUSH1 0x14 DUP4 DUP3 DUP2 MLOAD DUP2 LT PUSH2 0x89B JUMPI PUSH2 0x89B PUSH2 0x3483 JUMP JUMPDEST PUSH1 0x20 MUL PUSH1 0x20 ADD ADD MLOAD GT ISZERO PUSH2 0x8C1 JUMPI PUSH1 0x40 MLOAD PUSH3 0x461BCD PUSH1 0xE5 SHL DUP2 MSTORE PUSH1 0x4 ADD PUSH2 0x689 SWAP1 PUSH2 0x34C2 JUMP JUMPDEST PUSH2 0x8D6 DUP5 DUP3 DUP2 MLOAD DUP2 LT PUSH2 0x801 JUMPI PUSH2 0x801 PUSH2 0x3483 JUMP JUMPDEST PUSH1 0x0 SUB PUSH2 0x910 JUMPI PUSH1 0x64 PUSH1 0x16 PUSH1 0x0 DUP7 DUP5 DUP2 MLOAD DUP2 LT PUSH2 0x8F5 JUMPI PUSH2 0x8F5 PUSH2 0x3483 JUMP JUMPDEST PUSH1 0x20 MUL PUSH1 0x20 ADD ADD MLOAD DUP2 MSTORE PUSH1 0x20 ADD SWAP1 DUP2 MSTORE PUSH1 0x20 ADD PUSH1 0x0 KECCAK256 DUP2 SWAP1 SSTORE POP JUMPDEST DUP3 DUP2 DUP2 MLOAD DUP2 LT PUSH2 0x922 JUMPI PUSH2 0x922 PUSH2 0x3483 JUMP JUMPDEST PUSH1 0x20 MUL PUSH1 0x20 ADD ADD MLOAD PUSH1 0x16 PUSH1 0x0 DUP7 DUP5 DUP2 MLOAD DUP2 LT PUSH2 0x940 JUMPI PUSH2 0x940 PUSH2 0x3483 JUMP JUMPDEST PUSH1 0x20 MUL PUSH1 0x20 ADD ADD MLOAD DUP2 MSTORE PUSH1 0x20 ADD SWAP1 DUP2 MSTORE PUSH1 0x20 ADD PUSH1 0x0 KECCAK256 SLOAD PUSH2 0x961 SWAP2 SWAP1 PUSH2 0x350E JUMP JUMPDEST CALLVALUE LT ISZERO PUSH2 0x9A2 JUMPI PUSH1 0x40 MLOAD PUSH3 0x461BCD PUSH1 0xE5 SHL DUP2 MSTORE PUSH1 0x20 PUSH1 0x4 DUP3 ADD MSTORE PUSH1 0xF PUSH1 0x24 DUP3 ADD MSTORE PUSH15 0x53656E64206D6F7265206D6F6E6579 PUSH1 0x88 SHL PUSH1 0x44 DUP3 ADD MSTORE PUSH1 0x64 ADD PUSH2 0x689 JUMP JUMPDEST DUP3 DUP2 DUP2 MLOAD DUP2 LT PUSH2 0x9B4 JUMPI PUSH2 0x9B4 PUSH2 0x3483 JUMP JUMPDEST PUSH1 0x20 MUL PUSH1 0x20 ADD ADD MLOAD PUSH1 0x64 PUSH2 0x9C8 SWAP2 SWAP1 PUSH2 0x350E JUMP JUMPDEST PUSH1 0x16 PUSH1 0x0 DUP7 DUP5 DUP2 MLOAD DUP2 LT PUSH2 0x9DE JUMPI PUSH2 0x9DE PUSH2 0x3483 JUMP JUMPDEST PUSH1 0x20 MUL PUSH1 0x20 ADD ADD MLOAD DUP2 MSTORE PUSH1 0x20 ADD SWAP1 DUP2 MSTORE PUSH1 0x20 ADD PUSH1 0x0 KECCAK256 PUSH1 0x0 DUP3 DUP3 SLOAD PUSH2 0xA03 SWAP2 SWAP1 PUSH2 0x34AF JUMP JUMPDEST SWAP3 POP POP DUP2 SWAP1 SSTORE POP PUSH2 0xA2D DUP5 DUP3 DUP2 MLOAD DUP2 LT PUSH2 0xA1F JUMPI PUSH2 0xA1F PUSH2 0x3483 JUMP JUMPDEST PUSH1 0x20 MUL PUSH1 0x20 ADD ADD MLOAD DUP7 PUSH2 0x19FD JUMP JUMPDEST DUP1 PUSH2 0xA37 DUP2 PUSH2 0x3525 JUMP JUMPDEST SWAP2 POP POP PUSH2 0x7DF JUMP JUMPDEST POP PUSH2 0xA4C DUP5 DUP5 DUP5 DUP5 PUSH2 0x1BCE JUMP JUMPDEST PUSH2 0xA56 CALLER ADDRESS PUSH2 0x18A2 JUMP JUMPDEST PUSH2 0xA65 JUMPI PUSH2 0xA65 ADDRESS PUSH1 0x1 PUSH2 0x1554 JUMP JUMPDEST POP POP POP POP JUMP JUMPDEST PUSH1 0x15 SLOAD PUSH1 0x1 PUSH1 0xA0 SHL SWAP1 DIV PUSH1 0xFF AND PUSH2 0xA94 JUMPI PUSH1 0x40 MLOAD PUSH3 0x461BCD PUSH1 0xE5 SHL DUP2 MSTORE PUSH1 0x4 ADD PUSH2 0x689 SWAP1 PUSH2 0x345F JUMP JUMPDEST PUSH1 0x0 DUP4 DUP2 MSTORE PUSH1 0x17 PUSH1 0x20 SWAP1 DUP2 MSTORE PUSH1 0x40 DUP1 DUP4 KECCAK256 PUSH1 0x1 PUSH1 0x1 PUSH1 0xA0 SHL SUB DUP6 AND DUP5 MSTORE SWAP1 SWAP2 MSTORE SWAP1 KECCAK256 SLOAD CALLVALUE EQ PUSH2 0xB11 JUMPI PUSH1 0x40 MLOAD PUSH3 0x461BCD PUSH1 0xE5 SHL DUP2 MSTORE PUSH1 0x20 PUSH1 0x4 DUP3 ADD MSTORE PUSH1 0x23 PUSH1 0x24 DUP3 ADD MSTORE PUSH32 0x5468652076616C75652073656E74206D757374206D6174636820746865207072 PUSH1 0x44 DUP3 ADD MSTORE PUSH3 0x696365 PUSH1 0xE8 SHL PUSH1 0x64 DUP3 ADD MSTORE PUSH1 0x84 ADD PUSH2 0x689 JUMP JUMPDEST PUSH2 0xB1B DUP2 DUP5 PUSH2 0x622 JUMP JUMPDEST DUP3 GT ISZERO PUSH2 0xB6A JUMPI PUSH1 0x40 MLOAD PUSH3 0x461BCD PUSH1 0xE5 SHL DUP2 MSTORE PUSH1 0x20 PUSH1 0x4 DUP3 ADD MSTORE PUSH1 0x17 PUSH1 0x24 DUP3 ADD MSTORE PUSH32 0x596F752063616E2774206275792074686174206D756368000000000000000000 PUSH1 0x44 DUP3 ADD MSTORE PUSH1 0x64 ADD PUSH2 0x689 JUMP JUMPDEST PUSH1 0xC SLOAD ISZERO PUSH2 0xBD1 JUMPI PUSH1 0x40 MLOAD PUSH3 0x461BCD PUSH1 0xE5 SHL DUP2 MSTORE PUSH1 0x20 PUSH1 0x4 DUP3 ADD MSTORE PUSH1 0x2E PUSH1 0x24 DUP3 ADD MSTORE PUSH32 0x576520616C7265616479206861766520612077696E6E65722C20746865206D61 PUSH1 0x44 DUP3 ADD MSTORE PUSH14 0x1C9AD95D081A5CC818DB1BDCD959 PUSH1 0x92 SHL PUSH1 0x64 DUP3 ADD MSTORE PUSH1 0x84 ADD PUSH2 0x689 JUMP JUMPDEST PUSH1 0x0 DUP4 DUP2 MSTORE PUSH1 0x17 PUSH1 0x20 SWAP1 DUP2 MSTORE PUSH1 0x40 DUP1 DUP4 KECCAK256 PUSH1 0x1 PUSH1 0x1 PUSH1 0xA0 SHL SUB DUP6 AND DUP1 DUP6 MSTORE SWAP3 MSTORE SWAP1 SWAP2 KECCAK256 SLOAD PUSH2 0x8FC SWAP1 PUSH2 0x3E8 SWAP1 PUSH2 0xC09 SWAP1 PUSH2 0x3E7 PUSH2 0x350E JUMP JUMPDEST PUSH2 0xC13 SWAP2 SWAP1 PUSH2 0x3554 JUMP JUMPDEST PUSH1 0x40 MLOAD DUP2 ISZERO SWAP1 SWAP3 MUL SWAP2 PUSH1 0x0 DUP2 DUP2 DUP2 DUP6 DUP9 DUP9 CALL SWAP4 POP POP POP POP ISZERO DUP1 ISZERO PUSH2 0xC3B JUMPI RETURNDATASIZE PUSH1 0x0 DUP1 RETURNDATACOPY RETURNDATASIZE PUSH1 0x0 REVERT JUMPDEST POP PUSH1 0x15 SLOAD PUSH1 0x0 DUP5 DUP2 MSTORE PUSH1 0x17 PUSH1 0x20 SWAP1 DUP2 MSTORE PUSH1 0x40 DUP1 DUP4 KECCAK256 PUSH1 0x1 PUSH1 0x1 PUSH1 0xA0 SHL SUB DUP7 DUP2 AND DUP6 MSTORE SWAP3 MSTORE SWAP1 SWAP2 KECCAK256 SLOAD SWAP2 AND SWAP1 PUSH2 0x8FC SWAP1 PUSH2 0x2710 SWAP1 PUSH2 0xC79 SWAP1 PUSH1 0x5 PUSH2 0x350E JUMP JUMPDEST PUSH2 0xC83 SWAP2 SWAP1 PUSH2 0x3554 JUMP JUMPDEST PUSH1 0x40 MLOAD DUP2 ISZERO SWAP1 SWAP3 MUL SWAP2 PUSH1 0x0 DUP2 DUP2 DUP2 DUP6 DUP9 DUP9 CALL SWAP4 POP POP POP POP ISZERO DUP1 ISZERO PUSH2 0xCAB JUMPI RETURNDATASIZE PUSH1 0x0 DUP1 RETURNDATACOPY RETURNDATASIZE PUSH1 0x0 REVERT JUMPDEST POP PUSH1 0x40 MLOAD PUSH1 0x1 PUSH1 0x1 PUSH1 0xA0 SHL SUB DUP3 AND PUSH1 0x24 DUP3 ADD MSTORE CALLER PUSH1 0x44 DUP3 ADD MSTORE PUSH1 0x64 DUP2 ADD DUP5 SWAP1 MSTORE PUSH1 0x84 DUP2 ADD DUP4 SWAP1 MSTORE PUSH1 0xA0 PUSH1 0xA4 DUP3 ADD MSTORE PUSH1 0x0 PUSH1 0xC4 DUP3 ADD DUP2 SWAP1 MSTORE SWAP1 ADDRESS SWAP1 PUSH1 0xE4 ADD PUSH1 0x40 DUP1 MLOAD PUSH1 0x1F NOT DUP2 DUP5 SUB ADD DUP2 MSTORE SWAP2 DUP2 MSTORE PUSH1 0x20 DUP3 ADD DUP1 MLOAD PUSH1 0x1 PUSH1 0x1 PUSH1 0xE0 SHL SUB AND PUSH4 0x79212195 PUSH1 0xE1 SHL OR SWAP1 MSTORE MLOAD PUSH2 0xD1D SWAP2 SWAP1 PUSH2 0x3568 JUMP JUMPDEST PUSH1 0x0 PUSH1 0x40 MLOAD DUP1 DUP4 SUB DUP2 PUSH1 0x0 DUP7 GAS CALL SWAP2 POP POP RETURNDATASIZE DUP1 PUSH1 0x0 DUP2 EQ PUSH2 0xD5A JUMPI PUSH1 0x40 MLOAD SWAP2 POP PUSH1 0x1F NOT PUSH1 0x3F RETURNDATASIZE ADD AND DUP3 ADD PUSH1 0x40 MSTORE RETURNDATASIZE DUP3 MSTORE RETURNDATASIZE PUSH1 0x0 PUSH1 0x20 DUP5 ADD RETURNDATACOPY PUSH2 0xD5F JUMP JUMPDEST PUSH1 0x60 SWAP2 POP JUMPDEST POP POP SWAP1 POP DUP1 PUSH2 0xA65 JUMPI PUSH1 0x40 MLOAD PUSH3 0x461BCD PUSH1 0xE5 SHL DUP2 MSTORE PUSH1 0x20 PUSH1 0x4 DUP3 ADD MSTORE PUSH1 0x14 PUSH1 0x24 DUP3 ADD MSTORE PUSH20 0x119D5B98DD1A5BDB8818D85B1B0819985A5B1959 PUSH1 0x62 SHL PUSH1 0x44 DUP3 ADD MSTORE PUSH1 0x64 ADD PUSH2 0x689 JUMP JUMPDEST PUSH1 0x1 PUSH1 0x1 PUSH1 0xA0 SHL SUB DUP6 AND CALLER EQ DUP1 PUSH2 0xDC3 JUMPI POP PUSH2 0xDC3 DUP6 CALLER PUSH2 0x18A2 JUMP JUMPDEST PUSH2 0xDDF JUMPI PUSH1 0x40 MLOAD PUSH3 0x461BCD PUSH1 0xE5 SHL DUP2 MSTORE PUSH1 0x4 ADD PUSH2 0x689 SWAP1 PUSH2 0x3584 JUMP JUMPDEST PUSH2 0xDEC DUP6 DUP6 DUP6 DUP6 DUP6 PUSH2 0x1D28 JUMP JUMPDEST POP POP POP POP POP JUMP JUMPDEST PUSH1 0x60 DUP2 MLOAD DUP4 MLOAD EQ PUSH2 0xE58 JUMPI PUSH1 0x40 MLOAD PUSH3 0x461BCD PUSH1 0xE5 SHL DUP2 MSTORE PUSH1 0x20 PUSH1 0x4 DUP3 ADD MSTORE PUSH1 0x29 PUSH1 0x24 DUP3 ADD MSTORE PUSH32 0x455243313135353A206163636F756E747320616E6420696473206C656E677468 PUSH1 0x44 DUP3 ADD MSTORE PUSH9 0x40DAD2E6DAC2E8C6D PUSH1 0xBB SHL PUSH1 0x64 DUP3 ADD MSTORE PUSH1 0x84 ADD PUSH2 0x689 JUMP JUMPDEST PUSH1 0x0 DUP4 MLOAD PUSH1 0x1 PUSH1 0x1 PUSH1 0x40 SHL SUB DUP2 GT ISZERO PUSH2 0xE73 JUMPI PUSH2 0xE73 PUSH2 0x2DB4 JUMP JUMPDEST PUSH1 0x40 MLOAD SWAP1 DUP1 DUP3 MSTORE DUP1 PUSH1 0x20 MUL PUSH1 0x20 ADD DUP3 ADD PUSH1 0x40 MSTORE DUP1 ISZERO PUSH2 0xE9C JUMPI DUP2 PUSH1 0x20 ADD PUSH1 0x20 DUP3 MUL DUP1 CALLDATASIZE DUP4 CALLDATACOPY ADD SWAP1 POP JUMPDEST POP SWAP1 POP PUSH1 0x0 JUMPDEST DUP5 MLOAD DUP2 LT ISZERO PUSH2 0xF14 JUMPI PUSH2 0xEE7 DUP6 DUP3 DUP2 MLOAD DUP2 LT PUSH2 0xEC0 JUMPI PUSH2 0xEC0 PUSH2 0x3483 JUMP JUMPDEST PUSH1 0x20 MUL PUSH1 0x20 ADD ADD MLOAD DUP6 DUP4 DUP2 MLOAD DUP2 LT PUSH2 0xEDA JUMPI PUSH2 0xEDA PUSH2 0x3483 JUMP JUMPDEST PUSH1 0x20 MUL PUSH1 0x20 ADD ADD MLOAD PUSH2 0x622 JUMP JUMPDEST DUP3 DUP3 DUP2 MLOAD DUP2 LT PUSH2 0xEF9 JUMPI PUSH2 0xEF9 PUSH2 0x3483 JUMP JUMPDEST PUSH1 0x20 SWAP1 DUP2 MUL SWAP2 SWAP1 SWAP2 ADD ADD MSTORE PUSH2 0xF0D DUP2 PUSH2 0x3525 JUMP JUMPDEST SWAP1 POP PUSH2 0xEA2 JUMP JUMPDEST POP SWAP4 SWAP3 POP POP POP JUMP JUMPDEST PUSH1 0x18 PUSH1 0x20 MSTORE DUP2 PUSH1 0x0 MSTORE PUSH1 0x40 PUSH1 0x0 KECCAK256 DUP2 DUP2 SLOAD DUP2 LT PUSH2 0xF38 JUMPI PUSH1 0x0 DUP1 REVERT JUMPDEST PUSH1 0x0 SWAP2 DUP3 MSTORE PUSH1 0x20 SWAP1 SWAP2 KECCAK256 ADD SLOAD PUSH1 0x1 PUSH1 0x1 PUSH1 0xA0 SHL SUB AND SWAP2 POP DUP3 SWAP1 POP JUMP JUMPDEST PUSH1 0x15 SLOAD PUSH1 0x1 PUSH1 0xA0 SHL SWAP1 DIV PUSH1 0xFF AND PUSH2 0xF7D JUMPI PUSH1 0x40 MLOAD PUSH3 0x461BCD PUSH1 0xE5 SHL DUP2 MSTORE PUSH1 0x4 ADD PUSH2 0x689 SWAP1 PUSH2 0x345F JUMP JUMPDEST PUSH1 0x0 DUP4 DUP2 MSTORE PUSH1 0x3 PUSH1 0x20 MSTORE PUSH1 0x40 SWAP1 KECCAK256 SLOAD PUSH3 0x186A0 SWAP1 PUSH2 0xF9B SWAP1 DUP5 PUSH2 0x34AF JUMP JUMPDEST GT ISZERO PUSH2 0xFE3 JUMPI PUSH1 0x40 MLOAD PUSH3 0x461BCD PUSH1 0xE5 SHL DUP2 MSTORE PUSH1 0x20 PUSH1 0x4 DUP3 ADD MSTORE PUSH1 0x17 PUSH1 0x24 DUP3 ADD MSTORE PUSH23 0x546865204E46542072656163686564206974732063617 PUSH1 0x4C SHL PUSH1 0x44 DUP3 ADD MSTORE PUSH1 0x64 ADD PUSH2 0x689 JUMP JUMPDEST PUSH1 0x14 DUP3 GT ISZERO PUSH2 0x1004 JUMPI PUSH1 0x40 MLOAD PUSH3 0x461BCD PUSH1 0xE5 SHL DUP2 MSTORE PUSH1 0x4 ADD PUSH2 0x689 SWAP1 PUSH2 0x34C2 JUMP JUMPDEST PUSH1 0x0 DUP4 DUP2 MSTORE PUSH1 0x3 PUSH1 0x20 MSTORE PUSH1 0x40 SWAP1 KECCAK256 SLOAD PUSH1 0x0 SUB PUSH2 0x102D JUMPI PUSH1 0x0 DUP4 DUP2 MSTORE PUSH1 0x16 PUSH1 0x20 MSTORE PUSH1 0x40 SWAP1 KECCAK256 PUSH1 0x64 SWAP1 SSTORE JUMPDEST PUSH1 0x0 DUP4 DUP2 MSTORE PUSH1 0x16 PUSH1 0x20 MSTORE PUSH1 0x40 SWAP1 KECCAK256 SLOAD PUSH2 0x1047 SWAP1 DUP4 SWAP1 PUSH2 0x350E JUMP JUMPDEST CALLVALUE LT ISZERO PUSH2 0x1088 JUMPI PUSH1 0x40 MLOAD PUSH3 0x461BCD PUSH1 0xE5 SHL DUP2 MSTORE PUSH1 0x20 PUSH1 0x4 DUP3 ADD MSTORE PUSH1 0xF PUSH1 0x24 DUP3 ADD MSTORE PUSH15 0x53656E64206D6F7265206D6F6E6579 PUSH1 0x88 SHL PUSH1 0x44 DUP3 ADD MSTORE PUSH1 0x64 ADD PUSH2 0x689 JUMP JUMPDEST PUSH2 0x1094 DUP5 DUP5 DUP5 DUP5 PUSH2 0x1ED2 JUMP JUMPDEST PUSH2 0x109E CALLER ADDRESS PUSH2 0x18A2 JUMP JUMPDEST PUSH2 0x10AD JUMPI PUSH2 0x10AD ADDRESS PUSH1 0x1 PUSH2 0x1554 JUMP JUMPDEST PUSH2 0x10B8 DUP3 PUSH1 0x64 PUSH2 0x350E JUMP JUMPDEST PUSH1 0x0 DUP5 DUP2 MSTORE PUSH1 0x16 PUSH1 0x20 MSTORE PUSH1 0x40 DUP2 KECCAK256 DUP1 SLOAD SWAP1 SWAP2 SWAP1 PUSH2 0x10D6 SWAP1 DUP5 SWAP1 PUSH2 0x34AF JUMP JUMPDEST SWAP1 SWAP2 SSTORE POP PUSH2 0xA65 SWAP1 POP DUP4 DUP6 PUSH2 0x19FD JUMP JUMPDEST PUSH1 0x0 DUP1 PUSH2 0x10FD PUSH1 0xF SLOAD ADDRESS PUSH4 0xC3BF0680 PUSH1 0xE0 SHL PUSH2 0x1FBB JUMP JUMPDEST SWAP1 POP PUSH2 0x11B9 PUSH1 0x40 MLOAD DUP1 PUSH1 0x40 ADD PUSH1 0x40 MSTORE DUP1 PUSH1 0x3 DUP2 MSTORE PUSH1 0x20 ADD PUSH3 0x19D95D PUSH1 0xEA SHL DUP2 MSTORE POP PUSH1 0x11 DUP1 SLOAD PUSH2 0x112B SWAP1 PUSH2 0x342B JUMP JUMPDEST DUP1 PUSH1 0x1F ADD PUSH1 0x20 DUP1 SWAP2 DIV MUL PUSH1 0x20 ADD PUSH1 0x40 MLOAD SWAP1 DUP2 ADD PUSH1 0x40 MSTORE DUP1 SWAP3 SWAP2 SWAP1 DUP2 DUP2 MSTORE PUSH1 0x20 ADD DUP3 DUP1 SLOAD PUSH2 0x1157 SWAP1 PUSH2 0x342B JUMP JUMPDEST DUP1 ISZERO PUSH2 0x11A4 JUMPI DUP1 PUSH1 0x1F LT PUSH2 0x1179 JUMPI PUSH2 0x100 DUP1 DUP4 SLOAD DIV MUL DUP4 MSTORE SWAP2 PUSH1 0x20 ADD SWAP2 PUSH2 0x11A4 JUMP JUMPDEST DUP3 ADD SWAP2 SWAP1 PUSH1 0x0 MSTORE PUSH1 0x20 PUSH1 0x0 KECCAK256 SWAP1 JUMPDEST DUP2 SLOAD DUP2 MSTORE SWAP1 PUSH1 0x1 ADD SWAP1 PUSH1 0x20 ADD DUP1 DUP4 GT PUSH2 0x1187 JUMPI DUP3 SWAP1 SUB PUSH1 0x1F AND DUP3 ADD SWAP2 JUMPDEST POP POP POP POP POP DUP4 PUSH2 0x1FE0 SWAP1 SWAP3 SWAP2 SWAP1 PUSH4 0xFFFFFFFF AND JUMP JUMPDEST PUSH2 0x11E8 PUSH1 0x40 MLOAD DUP1 PUSH1 0x40 ADD PUSH1 0x40 MSTORE DUP1 PUSH1 0x6 DUP2 MSTORE PUSH1 0x20 ADD PUSH6 0x6C6561677565 PUSH1 0xD0 SHL DUP2 MSTORE POP PUSH1 0x12 DUP1 SLOAD PUSH2 0x112B SWAP1 PUSH2 0x342B JUMP JUMPDEST PUSH2 0x1234 PUSH1 0x40 MLOAD DUP1 PUSH1 0x40 ADD PUSH1 0x40 MSTORE DUP1 PUSH1 0x6 DUP2 MSTORE PUSH1 0x20 ADD PUSH6 0x3BB4B73732B9 PUSH1 0xD1 SHL DUP2 MSTORE POP PUSH1 0x40 MLOAD DUP1 PUSH1 0x40 ADD PUSH1 0x40 MSTORE DUP1 PUSH1 0x1 DUP2 MSTORE PUSH1 0x20 ADD PUSH1 0x31 PUSH1 0xF8 SHL DUP2 MSTORE POP DUP4 PUSH2 0x1FE0 SWAP1 SWAP3 SWAP2 SWAP1 PUSH4 0xFFFFFFFF AND JUMP JUMPDEST PUSH2 0x1283 PUSH1 0x40 MLOAD DUP1 PUSH1 0x40 ADD PUSH1 0x40 MSTORE DUP1 PUSH1 0x4 DUP2 MSTORE PUSH1 0x20 ADD PUSH4 0xE0C2E8D PUSH1 0xE3 SHL DUP2 MSTORE POP PUSH1 0x40 MLOAD DUP1 PUSH1 0x40 ADD PUSH1 0x40 MSTORE DUP1 PUSH1 0x6 DUP2 MSTORE PUSH1 0x20 ADD PUSH6 0x1C995CDD5B1D PUSH1 0xD2 SHL DUP2 MSTORE POP DUP4 PUSH2 0x1FE0 SWAP1 SWAP3 SWAP2 SWAP1 PUSH4 0xFFFFFFFF AND JUMP JUMPDEST PUSH2 0x128F DUP2 PUSH1 0x10 SLOAD PUSH2 0x1FFE JUMP JUMPDEST SWAP2 POP POP SWAP1 JUMP JUMPDEST PUSH1 0xB SLOAD PUSH1 0x1 PUSH1 0x1 PUSH1 0xA0 SHL SUB AND CALLER EQ PUSH2 0x12E8 JUMPI PUSH1 0x40 MLOAD PUSH3 0x461BCD PUSH1 0xE5 SHL DUP2 MSTORE PUSH1 0x20 PUSH1 0x4 DUP3 ADD MSTORE PUSH1 0x16 PUSH1 0x24 DUP3 ADD MSTORE PUSH22 0x26BAB9BA10313290383937B837B9B2B21037BBB732B9 PUSH1 0x51 SHL PUSH1 0x44 DUP3 ADD MSTORE PUSH1 0x64 ADD PUSH2 0x689 JUMP JUMPDEST PUSH1 0xA DUP1 SLOAD PUSH1 0x1 PUSH1 0x1 PUSH1 0xA0 SHL SUB NOT DUP1 DUP3 AND CALLER SWAP1 DUP2 OR SWAP1 SWAP4 SSTORE PUSH1 0xB DUP1 SLOAD SWAP1 SWAP2 AND SWAP1 SSTORE PUSH1 0x40 MLOAD PUSH1 0x1 PUSH1 0x1 PUSH1 0xA0 SHL SUB SWAP1 SWAP2 AND SWAP2 SWAP1 DUP3 SWAP1 PUSH32 0x8BE0079C531659141344CD1FD0A4F28419497F9722A3DAAFE3B4186F6B6457E0 SWAP1 PUSH1 0x0 SWAP1 LOG3 POP JUMP JUMPDEST PUSH1 0x14 SLOAD PUSH2 0x1354 SWAP1 PUSH4 0x20F5800 PUSH2 0x34AF JUMP JUMPDEST TIMESTAMP GT PUSH2 0x135F JUMPI PUSH1 0x0 DUP1 REVERT JUMPDEST PUSH1 0x15 SLOAD PUSH1 0x40 MLOAD PUSH1 0x1 PUSH1 0x1 PUSH1 0xA0 SHL SUB SWAP1 SWAP2 AND SWAP1 SELFBALANCE DUP1 ISZERO PUSH2 0x8FC MUL SWAP2 PUSH1 0x0 DUP2 DUP2 DUP2 DUP6 DUP9 DUP9 CALL SWAP4 POP POP POP POP ISZERO DUP1 ISZERO PUSH2 0x1398 JUMPI RETURNDATASIZE PUSH1 0x0 DUP1 RETURNDATACOPY RETURNDATASIZE PUSH1 0x0 REVERT JUMPDEST POP PUSH1 0x15 DUP1 SLOAD PUSH1 0xFF PUSH1 0xA0 SHL NOT AND SWAP1 SSTORE JUMP JUMPDEST PUSH1 0x0 DUP2 DUP2 MSTORE PUSH1 0x18 PUSH1 0x20 SWAP1 DUP2 MSTORE PUSH1 0x40 SWAP2 DUP3 SWAP1 KECCAK256 DUP1 SLOAD DUP4 MLOAD DUP2 DUP5 MUL DUP2 ADD DUP5 ADD SWAP1 SWAP5 MSTORE DUP1 DUP5 MSTORE PUSH1 0x60 SWAP4 SWAP3 DUP4 ADD DUP3 DUP3 DUP1 ISZERO PUSH2 0x7A7 JUMPI PUSH1 0x20 MUL DUP3 ADD SWAP2 SWAP1 PUSH1 0x0 MSTORE PUSH1 0x20 PUSH1 0x0 KECCAK256 SWAP1 JUMPDEST DUP2 SLOAD PUSH1 0x1 PUSH1 0x1 PUSH1 0xA0 SHL SUB AND DUP2 MSTORE PUSH1 0x1 SWAP1 SWAP2 ADD SWAP1 PUSH1 0x20 ADD DUP1 DUP4 GT PUSH2 0x13EA JUMPI POP POP POP POP POP SWAP1 POP SWAP2 SWAP1 POP JUMP JUMPDEST PUSH2 0x141B PUSH2 0x199C JUMP JUMPDEST PUSH1 0x0 PUSH2 0x142F PUSH1 0x6 SLOAD PUSH1 0x1 PUSH1 0x1 PUSH1 0xA0 SHL SUB AND SWAP1 JUMP JUMPDEST PUSH1 0x40 MLOAD PUSH4 0x70A08231 PUSH1 0xE0 SHL DUP2 MSTORE ADDRESS PUSH1 0x4 DUP3 ADD MSTORE SWAP1 SWAP2 POP PUSH1 0x1 PUSH1 0x1 PUSH1 0xA0 SHL SUB DUP3 AND SWAP1 PUSH4 0xA9059CBB SWAP1 CALLER SWAP1 DUP4 SWAP1 PUSH4 0x70A08231 SWAP1 PUSH1 0x24 ADD PUSH1 0x20 PUSH1 0x40 MLOAD DUP1 DUP4 SUB DUP2 DUP7 GAS STATICCALL ISZERO DUP1 ISZERO PUSH2 0x1480 JUMPI RETURNDATASIZE PUSH1 0x0 DUP1 RETURNDATACOPY RETURNDATASIZE PUSH1 0x0 REVERT JUMPDEST POP POP POP POP PUSH1 0x40 MLOAD RETURNDATASIZE PUSH1 0x1F NOT PUSH1 0x1F DUP3 ADD AND DUP3 ADD DUP1 PUSH1 0x40 MSTORE POP DUP2 ADD SWAP1 PUSH2 0x14A4 SWAP2 SWAP1 PUSH2 0x35D2 JUMP JUMPDEST PUSH1 0x40 MLOAD PUSH1 0x1 PUSH1 0x1 PUSH1 0xE0 SHL SUB NOT PUSH1 0xE0 DUP6 SWAP1 SHL AND DUP2 MSTORE PUSH1 0x1 PUSH1 0x1 PUSH1 0xA0 SHL SUB SWAP1 SWAP3 AND PUSH1 0x4 DUP4 ADD MSTORE PUSH1 0x24 DUP3 ADD MSTORE PUSH1 0x44 ADD PUSH1 0x20 PUSH1 0x40 MLOAD DUP1 DUP4 SUB DUP2 PUSH1 0x0 DUP8 GAS CALL ISZERO DUP1 ISZERO PUSH2 0x14EF JUMPI RETURNDATASIZE PUSH1 0x0 DUP1 RETURNDATACOPY RETURNDATASIZE PUSH1 0x0 REVERT JUMPDEST POP POP POP POP PUSH1 0x40 MLOAD RETURNDATASIZE PUSH1 0x1F NOT PUSH1 0x1F DUP3 ADD AND DUP3 ADD DUP1 PUSH1 0x40 MSTORE POP DUP2 ADD SWAP1 PUSH2 0x1513 SWAP2 SWAP1 PUSH2 0x35EB JUMP JUMPDEST PUSH2 0x71C JUMPI PUSH1 0x40 MLOAD PUSH3 0x461BCD PUSH1 0xE5 SHL DUP2 MSTORE PUSH1 0x20 PUSH1 0x4 DUP3 ADD MSTORE PUSH1 0x12 PUSH1 0x24 DUP3 ADD MSTORE PUSH18 0x2AB730B13632903A37903A3930B739B332B9 PUSH1 0x71 SHL PUSH1 0x44 DUP3 ADD MSTORE PUSH1 0x64 ADD PUSH2 0x689 JUMP JUMPDEST PUSH2 0x155F CALLER DUP4 DUP4 PUSH2 0x201F JUMP JUMPDEST POP POP JUMP JUMPDEST PUSH1 0x15 SLOAD PUSH1 0x1 PUSH1 0xA0 SHL SWAP1 DIV PUSH1 0xFF AND PUSH2 0x158C JUMPI PUSH1 0x40 MLOAD PUSH3 0x461BCD PUSH1 0xE5 SHL DUP2 MSTORE PUSH1 0x4 ADD PUSH2 0x689 SWAP1 PUSH2 0x345F JUMP JUMPDEST PUSH1 0xC SLOAD PUSH1 0x0 SUB PUSH2 0x15D3 JUMPI PUSH1 0x40 MLOAD PUSH3 0x461BCD PUSH1 0xE5 SHL DUP2 MSTORE PUSH1 0x20 PUSH1 0x4 DUP3 ADD MSTORE PUSH1 0x12 PUSH1 0x24 DUP3 ADD MSTORE PUSH18 0x2A3432B9329034B9903737903BB4B73732B9 PUSH1 0x71 SHL PUSH1 0x44 DUP3 ADD MSTORE PUSH1 0x64 ADD PUSH2 0x689 JUMP JUMPDEST PUSH1 0xC SLOAD PUSH1 0x0 SWAP1 DUP2 MSTORE PUSH1 0x3 PUSH1 0x20 MSTORE PUSH1 0x40 SWAP1 KECCAK256 SLOAD PUSH2 0x1631 JUMPI PUSH1 0x40 MLOAD PUSH3 0x461BCD PUSH1 0xE5 SHL DUP2 MSTORE PUSH1 0x20 PUSH1 0x4 DUP3 ADD MSTORE PUSH1 0x1E PUSH1 0x24 DUP3 ADD MSTORE PUSH32 0x4E6F206F6E65206D696E746564207468652077696E6E65722773204E46540000 PUSH1 0x44 DUP3 ADD MSTORE PUSH1 0x64 ADD PUSH2 0x689 JUMP JUMPDEST PUSH1 0xC SLOAD PUSH1 0x0 SWAP1 DUP2 MSTORE PUSH1 0x3 PUSH1 0x20 MSTORE PUSH1 0x40 DUP2 KECCAK256 SLOAD SWAP1 SELFBALANCE SWAP1 JUMPDEST PUSH2 0x1652 PUSH1 0xC SLOAD PUSH2 0x13A8 JUMP JUMPDEST MLOAD DUP2 LT ISZERO PUSH2 0x1705 JUMPI PUSH1 0xC SLOAD PUSH1 0x0 SWAP1 DUP2 MSTORE PUSH1 0x18 PUSH1 0x20 MSTORE PUSH1 0x40 DUP2 KECCAK256 DUP1 SLOAD DUP4 SWAP1 DUP2 LT PUSH2 0x167D JUMPI PUSH2 0x167D PUSH2 0x3483 JUMP JUMPDEST PUSH1 0x0 SWAP2 DUP3 MSTORE PUSH1 0x20 DUP3 KECCAK256 ADD SLOAD PUSH1 0xC SLOAD PUSH1 0x1 PUSH1 0x1 PUSH1 0xA0 SHL SUB SWAP1 SWAP2 AND SWAP3 POP PUSH2 0x16A3 SWAP1 DUP4 SWAP1 PUSH2 0x622 JUMP JUMPDEST SWAP1 POP PUSH1 0x1 PUSH1 0x1 PUSH1 0xA0 SHL SUB DUP3 AND PUSH2 0x8FC DUP7 PUSH2 0x16BD DUP5 DUP9 PUSH2 0x350E JUMP JUMPDEST PUSH2 0x16C7 SWAP2 SWAP1 PUSH2 0x3554 JUMP JUMPDEST PUSH1 0x40 MLOAD DUP2 ISZERO SWAP1 SWAP3 MUL SWAP2 PUSH1 0x0 DUP2 DUP2 DUP2 DUP6 DUP9 DUP9 CALL SWAP4 POP POP POP POP ISZERO DUP1 ISZERO PUSH2 0x16EF JUMPI RETURNDATASIZE PUSH1 0x0 DUP1 RETURNDATACOPY RETURNDATASIZE PUSH1 0x0 REVERT JUMPDEST POP POP POP DUP1 DUP1 PUSH2 0x16FD SWAP1 PUSH2 0x3525 JUMP JUMPDEST SWAP2 POP POP PUSH2 0x1647 JUMP JUMPDEST POP POP PUSH1 0x15 DUP1 SLOAD PUSH1 0xFF PUSH1 0xA0 SHL NOT AND SWAP1 SSTORE POP JUMP JUMPDEST PUSH1 0x0 DUP3 DUP2 MSTORE PUSH1 0x9 PUSH1 0x20 MSTORE PUSH1 0x40 SWAP1 KECCAK256 SLOAD DUP3 SWAP1 PUSH1 0x1 PUSH1 0x1 PUSH1 0xA0 SHL SUB AND CALLER EQ PUSH2 0x1790 JUMPI PUSH1 0x40 MLOAD PUSH3 0x461BCD PUSH1 0xE5 SHL DUP2 MSTORE PUSH1 0x20 PUSH1 0x4 DUP3 ADD MSTORE PUSH1 0x28 PUSH1 0x24 DUP3 ADD MSTORE PUSH32 0x536F75726365206D75737420626520746865206F7261636C65206F6620746865 PUSH1 0x44 DUP3 ADD MSTORE PUSH8 0x81C995C5D595CDD PUSH1 0xC2 SHL PUSH1 0x64 DUP3 ADD MSTORE PUSH1 0x84 ADD PUSH2 0x689 JUMP JUMPDEST PUSH1 0x0 DUP2 DUP2 MSTORE PUSH1 0x9 PUSH1 0x20 MSTORE PUSH1 0x40 DUP1 DUP3 KECCAK256 DUP1 SLOAD PUSH1 0x1 PUSH1 0x1 PUSH1 0xA0 SHL SUB NOT AND SWAP1 SSTORE MLOAD DUP3 SWAP2 PUSH32 0x7CC135E0CEBB02C3480AE5D74D377283180A2601F8F644EDF7987B009316C63A SWAP2 LOG2 DUP3 PUSH32 0x6BFEB73BA8570AE80F056BF59812D9AFE8A31702946BEA5EA54FE8A3888F8B8E DUP4 PUSH1 0x40 MLOAD PUSH2 0x1805 SWAP2 DUP2 MSTORE PUSH1 0x20 ADD SWAP1 JUMP JUMPDEST PUSH1 0x40 MLOAD DUP1 SWAP2 SUB SWAP1 LOG2 POP PUSH1 0xC SSTORE POP JUMP JUMPDEST PUSH1 0x12 DUP1 SLOAD PUSH2 0x1821 SWAP1 PUSH2 0x342B JUMP JUMPDEST DUP1 PUSH1 0x1F ADD PUSH1 0x20 DUP1 SWAP2 DIV MUL PUSH1 0x20 ADD PUSH1 0x40 MLOAD SWAP1 DUP2 ADD PUSH1 0x40 MSTORE DUP1 SWAP3 SWAP2 SWAP1 DUP2 DUP2 MSTORE PUSH1 0x20 ADD DUP3 DUP1 SLOAD PUSH2 0x184D SWAP1 PUSH2 0x342B JUMP JUMPDEST DUP1 ISZERO PUSH2 0x189A JUMPI DUP1 PUSH1 0x1F LT PUSH2 0x186F JUMPI PUSH2 0x100 DUP1 DUP4 SLOAD DIV MUL DUP4 MSTORE SWAP2 PUSH1 0x20 ADD SWAP2 PUSH2 0x189A JUMP JUMPDEST DUP3 ADD SWAP2 SWAP1 PUSH1 0x0 MSTORE PUSH1 0x20 PUSH1 0x0 KECCAK256 SWAP1 JUMPDEST DUP2 SLOAD DUP2 MSTORE SWAP1 PUSH1 0x1 ADD SWAP1 PUSH1 0x20 ADD DUP1 DUP4 GT PUSH2 0x187D JUMPI DUP3 SWAP1 SUB PUSH1 0x1F AND DUP3 ADD SWAP2 JUMPDEST POP POP POP POP POP DUP2 JUMP JUMPDEST PUSH1 0x1 PUSH1 0x1 PUSH1 0xA0 SHL SUB SWAP2 DUP3 AND PUSH1 0x0 SWAP1 DUP2 MSTORE PUSH1 0x1 PUSH1 0x20 SWAP1 DUP2 MSTORE PUSH1 0x40 DUP1 DUP4 KECCAK256 SWAP4 SWAP1 SWAP5 AND DUP3 MSTORE SWAP2 SWAP1 SWAP2 MSTORE KECCAK256 SLOAD PUSH1 0xFF AND SWAP1 JUMP JUMPDEST PUSH1 0x0 PUSH2 0x18DC CALLER DUP5 PUSH2 0x622 JUMP JUMPDEST GT PUSH2 0x1929 JUMPI PUSH1 0x40 MLOAD PUSH3 0x461BCD PUSH1 0xE5 SHL DUP2 MSTORE PUSH1 0x20 PUSH1 0x4 DUP3 ADD MSTORE PUSH1 0x17 PUSH1 0x24 DUP3 ADD MSTORE PUSH32 0x596F7520646F6E277420686176652074686973204E4654000000000000000000 PUSH1 0x44 DUP3 ADD MSTORE PUSH1 0x64 ADD PUSH2 0x689 JUMP JUMPDEST PUSH1 0x0 SWAP2 DUP3 MSTORE PUSH1 0x17 PUSH1 0x20 SWAP1 DUP2 MSTORE PUSH1 0x40 DUP1 DUP5 KECCAK256 CALLER DUP6 MSTORE SWAP1 SWAP2 MSTORE SWAP1 SWAP2 KECCAK256 SSTORE JUMP JUMPDEST PUSH1 0x1 PUSH1 0x1 PUSH1 0xA0 SHL SUB DUP6 AND CALLER EQ DUP1 PUSH2 0x1962 JUMPI POP PUSH2 0x1962 DUP6 CALLER PUSH2 0x18A2 JUMP JUMPDEST PUSH2 0x197E JUMPI PUSH1 0x40 MLOAD PUSH3 0x461BCD PUSH1 0xE5 SHL DUP2 MSTORE PUSH1 0x4 ADD PUSH2 0x689 SWAP1 PUSH2 0x3584 JUMP JUMPDEST PUSH2 0xDEC DUP6 DUP6 DUP6 DUP6 DUP6 PUSH2 0x20FF JUMP JUMPDEST PUSH2 0x1993 PUSH2 0x199C JUMP JUMPDEST PUSH2 0x71C DUP2 PUSH2 0x2116 JUMP JUMPDEST PUSH1 0xA SLOAD PUSH1 0x1 PUSH1 0x1 PUSH1 0xA0 SHL SUB AND CALLER EQ PUSH2 0x19EF JUMPI PUSH1 0x40 MLOAD PUSH3 0x461BCD PUSH1 0xE5 SHL DUP2 MSTORE PUSH1 0x20 PUSH1 0x4 DUP3 ADD MSTORE PUSH1 0x16 PUSH1 0x24 DUP3 ADD MSTORE PUSH22 0x27B7363C9031B0B63630B1363290313C9037BBB732B9 PUSH1 0x51 SHL PUSH1 0x44 DUP3 ADD MSTORE PUSH1 0x64 ADD PUSH2 0x689 JUMP JUMPDEST JUMP JUMPDEST PUSH1 0x2 PUSH2 0x155F DUP3 DUP3 PUSH2 0x364E JUMP JUMPDEST PUSH1 0x0 DUP1 JUMPDEST PUSH1 0x0 DUP5 DUP2 MSTORE PUSH1 0x18 PUSH1 0x20 MSTORE PUSH1 0x40 SWAP1 KECCAK256 SLOAD DUP2 LT ISZERO PUSH2 0x1B8B JUMPI PUSH1 0x0 DUP5 DUP2 MSTORE PUSH1 0x18 PUSH1 0x20 MSTORE PUSH1 0x40 SWAP1 KECCAK256 DUP1 SLOAD PUSH1 0x1 PUSH1 0x1 PUSH1 0xA0 SHL SUB DUP6 AND SWAP2 SWAP1 DUP4 SWAP1 DUP2 LT PUSH2 0x1A43 JUMPI PUSH2 0x1A43 PUSH2 0x3483 JUMP JUMPDEST PUSH1 0x0 SWAP2 DUP3 MSTORE PUSH1 0x20 SWAP1 SWAP2 KECCAK256 ADD SLOAD PUSH1 0x1 PUSH1 0x1 PUSH1 0xA0 SHL SUB AND SUB PUSH2 0x1A62 JUMPI PUSH1 0x1 SWAP2 POP JUMPDEST PUSH1 0x0 DUP5 DUP2 MSTORE PUSH1 0x18 PUSH1 0x20 MSTORE PUSH1 0x40 SWAP1 KECCAK256 DUP1 SLOAD PUSH2 0x1AA2 SWAP2 SWAP1 DUP4 SWAP1 DUP2 LT PUSH2 0x1A87 JUMPI PUSH2 0x1A87 PUSH2 0x3483 JUMP JUMPDEST PUSH1 0x0 SWAP2 DUP3 MSTORE PUSH1 0x20 SWAP1 SWAP2 KECCAK256 ADD SLOAD PUSH1 0x1 PUSH1 0x1 PUSH1 0xA0 SHL SUB AND DUP6 PUSH2 0x622 JUMP JUMPDEST PUSH1 0x0 SUB PUSH2 0x1B79 JUMPI PUSH1 0x0 DUP5 DUP2 MSTORE PUSH1 0x18 PUSH1 0x20 MSTORE PUSH1 0x40 SWAP1 KECCAK256 DUP1 SLOAD PUSH2 0x1AC5 SWAP1 PUSH1 0x1 SWAP1 PUSH2 0x370D JUMP JUMPDEST DUP2 SLOAD DUP2 LT PUSH2 0x1AD5 JUMPI PUSH2 0x1AD5 PUSH2 0x3483 JUMP JUMPDEST PUSH1 0x0 SWAP2 DUP3 MSTORE PUSH1 0x20 DUP1 DUP4 KECCAK256 SWAP1 SWAP2 ADD SLOAD DUP7 DUP4 MSTORE PUSH1 0x18 SWAP1 SWAP2 MSTORE PUSH1 0x40 SWAP1 SWAP2 KECCAK256 DUP1 SLOAD PUSH1 0x1 PUSH1 0x1 PUSH1 0xA0 SHL SUB SWAP1 SWAP3 AND SWAP2 DUP4 SWAP1 DUP2 LT PUSH2 0x1B0E JUMPI PUSH2 0x1B0E PUSH2 0x3483 JUMP JUMPDEST PUSH1 0x0 SWAP2 DUP3 MSTORE PUSH1 0x20 DUP1 DUP4 KECCAK256 SWAP2 SWAP1 SWAP2 ADD DUP1 SLOAD PUSH1 0x1 PUSH1 0x1 PUSH1 0xA0 SHL SUB NOT AND PUSH1 0x1 PUSH1 0x1 PUSH1 0xA0 SHL SUB SWAP5 SWAP1 SWAP5 AND SWAP4 SWAP1 SWAP4 OR SWAP1 SWAP3 SSTORE DUP6 DUP2 MSTORE PUSH1 0x18 SWAP1 SWAP2 MSTORE PUSH1 0x40 SWAP1 KECCAK256 DUP1 SLOAD DUP1 PUSH2 0x1B56 JUMPI PUSH2 0x1B56 PUSH2 0x3720 JUMP JUMPDEST PUSH1 0x0 DUP3 DUP2 MSTORE PUSH1 0x20 SWAP1 KECCAK256 DUP2 ADD PUSH1 0x0 NOT SWAP1 DUP2 ADD DUP1 SLOAD PUSH1 0x1 PUSH1 0x1 PUSH1 0xA0 SHL SUB NOT AND SWAP1 SSTORE ADD SWAP1 SSTORE JUMPDEST DUP1 PUSH2 0x1B83 DUP2 PUSH2 0x3525 JUMP JUMPDEST SWAP2 POP POP PUSH2 0x1A01 JUMP JUMPDEST POP DUP1 PUSH2 0x1BC9 JUMPI PUSH1 0x0 DUP4 DUP2 MSTORE PUSH1 0x18 PUSH1 0x20 SWAP1 DUP2 MSTORE PUSH1 0x40 DUP3 KECCAK256 DUP1 SLOAD PUSH1 0x1 DUP2 ADD DUP3 SSTORE SWAP1 DUP4 MSTORE SWAP2 KECCAK256 ADD DUP1 SLOAD PUSH1 0x1 PUSH1 0x1 PUSH1 0xA0 SHL SUB NOT AND PUSH1 0x1 PUSH1 0x1 PUSH1 0xA0 SHL SUB DUP5 AND OR SWAP1 SSTORE JUMPDEST POP POP POP JUMP JUMPDEST PUSH1 0x1 PUSH1 0x1 PUSH1 0xA0 SHL SUB DUP5 AND PUSH2 0x1BF4 JUMPI PUSH1 0x40 MLOAD PUSH3 0x461BCD PUSH1 0xE5 SHL DUP2 MSTORE PUSH1 0x4 ADD PUSH2 0x689 SWAP1 PUSH2 0x3736 JUMP JUMPDEST DUP2 MLOAD DUP4 MLOAD EQ PUSH2 0x1C15 JUMPI PUSH1 0x40 MLOAD PUSH3 0x461BCD PUSH1 0xE5 SHL DUP2 MSTORE PUSH1 0x4 ADD PUSH2 0x689 SWAP1 PUSH2 0x3777 JUMP JUMPDEST CALLER PUSH2 0x1C25 DUP2 PUSH1 0x0 DUP8 DUP8 DUP8 DUP8 PUSH2 0x21C0 JUMP JUMPDEST PUSH1 0x0 JUMPDEST DUP5 MLOAD DUP2 LT ISZERO PUSH2 0x1CC0 JUMPI DUP4 DUP2 DUP2 MLOAD DUP2 LT PUSH2 0x1C43 JUMPI PUSH2 0x1C43 PUSH2 0x3483 JUMP JUMPDEST PUSH1 0x20 MUL PUSH1 0x20 ADD ADD MLOAD PUSH1 0x0 DUP1 DUP8 DUP5 DUP2 MLOAD DUP2 LT PUSH2 0x1C60 JUMPI PUSH2 0x1C60 PUSH2 0x3483 JUMP JUMPDEST PUSH1 0x20 MUL PUSH1 0x20 ADD ADD MLOAD DUP2 MSTORE PUSH1 0x20 ADD SWAP1 DUP2 MSTORE PUSH1 0x20 ADD PUSH1 0x0 KECCAK256 PUSH1 0x0 DUP9 PUSH1 0x1 PUSH1 0x1 PUSH1 0xA0 SHL SUB AND PUSH1 0x1 PUSH1 0x1 PUSH1 0xA0 SHL SUB AND DUP2 MSTORE PUSH1 0x20 ADD SWAP1 DUP2 MSTORE PUSH1 0x20 ADD PUSH1 0x0 KECCAK256 PUSH1 0x0 DUP3 DUP3 SLOAD PUSH2 0x1CA8 SWAP2 SWAP1 PUSH2 0x34AF JUMP JUMPDEST SWAP1 SWAP2 SSTORE POP DUP2 SWAP1 POP PUSH2 0x1CB8 DUP2 PUSH2 0x3525 JUMP JUMPDEST SWAP2 POP POP PUSH2 0x1C28 JUMP JUMPDEST POP DUP5 PUSH1 0x1 PUSH1 0x1 PUSH1 0xA0 SHL SUB AND PUSH1 0x0 PUSH1 0x1 PUSH1 0x1 PUSH1 0xA0 SHL SUB AND DUP3 PUSH1 0x1 PUSH1 0x1 PUSH1 0xA0 SHL SUB AND PUSH32 0x4A39DC06D4C0DBC64B70AF90FD698A233A518AA5D07E595D983B8C0526C8F7FB DUP8 DUP8 PUSH1 0x40 MLOAD PUSH2 0x1D11 SWAP3 SWAP2 SWAP1 PUSH2 0x37BF JUMP JUMPDEST PUSH1 0x40 MLOAD DUP1 SWAP2 SUB SWAP1 LOG4 PUSH2 0xDEC DUP2 PUSH1 0x0 DUP8 DUP8 DUP8 DUP8 PUSH2 0x21CE JUMP JUMPDEST DUP2 MLOAD DUP4 MLOAD EQ PUSH2 0x1D49 JUMPI PUSH1 0x40 MLOAD PUSH3 0x461BCD PUSH1 0xE5 SHL DUP2 MSTORE PUSH1 0x4 ADD PUSH2 0x689 SWAP1 PUSH2 0x3777 JUMP JUMPDEST PUSH1 0x1 PUSH1 0x1 PUSH1 0xA0 SHL SUB DUP5 AND PUSH2 0x1D6F JUMPI PUSH1 0x40 MLOAD PUSH3 0x461BCD PUSH1 0xE5 SHL DUP2 MSTORE PUSH1 0x4 ADD PUSH2 0x689 SWAP1 PUSH2 0x37E4 JUMP JUMPDEST CALLER PUSH2 0x1D7E DUP2 DUP8 DUP8 DUP8 DUP8 DUP8 PUSH2 0x21C0 JUMP JUMPDEST PUSH1 0x0 JUMPDEST DUP5 MLOAD DUP2 LT ISZERO PUSH2 0x1E64 JUMPI PUSH1 0x0 DUP6 DUP3 DUP2 MLOAD DUP2 LT PUSH2 0x1D9E JUMPI PUSH2 0x1D9E PUSH2 0x3483 JUMP JUMPDEST PUSH1 0x20 MUL PUSH1 0x20 ADD ADD MLOAD SWAP1 POP PUSH1 0x0 DUP6 DUP4 DUP2 MLOAD DUP2 LT PUSH2 0x1DBC JUMPI PUSH2 0x1DBC PUSH2 0x3483 JUMP JUMPDEST PUSH1 0x20 SWAP1 DUP2 MUL SWAP2 SWAP1 SWAP2 ADD DUP2 ADD MLOAD PUSH1 0x0 DUP5 DUP2 MSTORE DUP1 DUP4 MSTORE PUSH1 0x40 DUP1 DUP3 KECCAK256 PUSH1 0x1 PUSH1 0x1 PUSH1 0xA0 SHL SUB DUP15 AND DUP4 MSTORE SWAP1 SWAP4 MSTORE SWAP2 SWAP1 SWAP2 KECCAK256 SLOAD SWAP1 SWAP2 POP DUP2 DUP2 LT ISZERO PUSH2 0x1E0C JUMPI PUSH1 0x40 MLOAD PUSH3 0x461BCD PUSH1 0xE5 SHL DUP2 MSTORE PUSH1 0x4 ADD PUSH2 0x689 SWAP1 PUSH2 0x3829 JUMP JUMPDEST PUSH1 0x0 DUP4 DUP2 MSTORE PUSH1 0x20 DUP2 DUP2 MSTORE PUSH1 0x40 DUP1 DUP4 KECCAK256 PUSH1 0x1 PUSH1 0x1 PUSH1 0xA0 SHL SUB DUP15 DUP2 AND DUP6 MSTORE SWAP3 MSTORE DUP1 DUP4 KECCAK256 DUP6 DUP6 SUB SWAP1 SSTORE SWAP1 DUP12 AND DUP3 MSTORE DUP2 KECCAK256 DUP1 SLOAD DUP5 SWAP3 SWAP1 PUSH2 0x1E49 SWAP1 DUP5 SWAP1 PUSH2 0x34AF JUMP JUMPDEST SWAP3 POP POP DUP2 SWAP1 SSTORE POP POP POP POP DUP1 PUSH2 0x1E5D SWAP1 PUSH2 0x3525 JUMP JUMPDEST SWAP1 POP PUSH2 0x1D81 JUMP JUMPDEST POP DUP5 PUSH1 0x1 PUSH1 0x1 PUSH1 0xA0 SHL SUB AND DUP7 PUSH1 0x1 PUSH1 0x1 PUSH1 0xA0 SHL SUB AND DUP3 PUSH1 0x1 PUSH1 0x1 PUSH1 0xA0 SHL SUB AND PUSH32 0x4A39DC06D4C0DBC64B70AF90FD698A233A518AA5D07E595D983B8C0526C8F7FB DUP8 DUP8 PUSH1 0x40 MLOAD PUSH2 0x1EB4 SWAP3 SWAP2 SWAP1 PUSH2 0x37BF JUMP JUMPDEST PUSH1 0x40 MLOAD DUP1 SWAP2 SUB SWAP1 LOG4 PUSH2 0x1ECA DUP2 DUP8 DUP8 DUP8 DUP8 DUP8 PUSH2 0x21CE JUMP JUMPDEST POP POP POP POP POP POP JUMP JUMPDEST PUSH1 0x1 PUSH1 0x1 PUSH1 0xA0 SHL SUB DUP5 AND PUSH2 0x1EF8 JUMPI PUSH1 0x40 MLOAD PUSH3 0x461BCD PUSH1 0xE5 SHL DUP2 MSTORE PUSH1 0x4 ADD PUSH2 0x689 SWAP1 PUSH2 0x3736 JUMP JUMPDEST CALLER PUSH1 0x0 PUSH2 0x1F04 DUP6 PUSH2 0x2329 JUMP JUMPDEST SWAP1 POP PUSH1 0x0 PUSH2 0x1F11 DUP6 PUSH2 0x2329 JUMP JUMPDEST SWAP1 POP PUSH2 0x1F22 DUP4 PUSH1 0x0 DUP10 DUP6 DUP6 DUP10 PUSH2 0x21C0 JUMP JUMPDEST PUSH1 0x0 DUP7 DUP2 MSTORE PUSH1 0x20 DUP2 DUP2 MSTORE PUSH1 0x40 DUP1 DUP4 KECCAK256 PUSH1 0x1 PUSH1 0x1 PUSH1 0xA0 SHL SUB DUP12 AND DUP5 MSTORE SWAP1 SWAP2 MSTORE DUP2 KECCAK256 DUP1 SLOAD DUP8 SWAP3 SWAP1 PUSH2 0x1F52 SWAP1 DUP5 SWAP1 PUSH2 0x34AF JUMP JUMPDEST SWAP1 SWAP2 SSTORE POP POP PUSH1 0x40 DUP1 MLOAD DUP8 DUP2 MSTORE PUSH1 0x20 DUP2 ADD DUP8 SWAP1 MSTORE PUSH1 0x1 PUSH1 0x1 PUSH1 0xA0 SHL SUB DUP1 DUP11 AND SWAP3 PUSH1 0x0 SWAP3 SWAP2 DUP8 AND SWAP2 PUSH32 0xC3D58168C5AE7397731D063D5BBF3D657854427343F4C083240F7AACAA2D0F62 SWAP2 ADD PUSH1 0x40 MLOAD DUP1 SWAP2 SUB SWAP1 LOG4 PUSH2 0x1FB2 DUP4 PUSH1 0x0 DUP10 DUP10 DUP10 DUP10 PUSH2 0x2374 JUMP JUMPDEST POP POP POP POP POP POP POP JUMP JUMPDEST PUSH2 0x1FC3 PUSH2 0x2D00 JUMP JUMPDEST PUSH2 0x1FCB PUSH2 0x2D00 JUMP JUMPDEST PUSH2 0x1FD7 DUP2 DUP7 DUP7 DUP7 PUSH2 0x242F JUMP JUMPDEST SWAP6 SWAP5 POP POP POP POP POP JUMP JUMPDEST PUSH1 0x80 DUP4 ADD MLOAD PUSH2 0x1FEF SWAP1 DUP4 PUSH2 0x2475 JUMP JUMPDEST PUSH1 0x80 DUP4 ADD MLOAD PUSH2 0x1BC9 SWAP1 DUP3 PUSH2 0x2475 JUMP JUMPDEST PUSH1 0x7 SLOAD PUSH1 0x0 SWAP1 PUSH2 0x2018 SWAP1 PUSH1 0x1 PUSH1 0x1 PUSH1 0xA0 SHL SUB AND DUP5 DUP5 PUSH2 0x248C JUMP JUMPDEST SWAP4 SWAP3 POP POP POP JUMP JUMPDEST DUP2 PUSH1 0x1 PUSH1 0x1 PUSH1 0xA0 SHL SUB AND DUP4 PUSH1 0x1 PUSH1 0x1 PUSH1 0xA0 SHL SUB AND SUB PUSH2 0x2092 JUMPI PUSH1 0x40 MLOAD PUSH3 0x461BCD PUSH1 0xE5 SHL DUP2 MSTORE PUSH1 0x20 PUSH1 0x4 DUP3 ADD MSTORE PUSH1 0x29 PUSH1 0x24 DUP3 ADD MSTORE PUSH32 0x455243313135353A2073657474696E6720617070726F76616C20737461747573 PUSH1 0x44 DUP3 ADD MSTORE PUSH9 0x103337B91039B2B633 PUSH1 0xB9 SHL PUSH1 0x64 DUP3 ADD MSTORE PUSH1 0x84 ADD PUSH2 0x689 JUMP JUMPDEST PUSH1 0x1 PUSH1 0x1 PUSH1 0xA0 SHL SUB DUP4 DUP2 AND PUSH1 0x0 DUP2 DUP2 MSTORE PUSH1 0x1 PUSH1 0x20 SWAP1 DUP2 MSTORE PUSH1 0x40 DUP1 DUP4 KECCAK256 SWAP5 DUP8 AND DUP1 DUP5 MSTORE SWAP5 DUP3 MSTORE SWAP2 DUP3 SWAP1 KECCAK256 DUP1 SLOAD PUSH1 0xFF NOT AND DUP7 ISZERO ISZERO SWAP1 DUP2 OR SWAP1 SWAP2 SSTORE SWAP2 MLOAD SWAP2 DUP3 MSTORE PUSH32 0x17307EAB39AB6107E8899845AD3D59BD9653F200F220920489CA2B5937696C31 SWAP2 ADD PUSH1 0x40 MLOAD DUP1 SWAP2 SUB SWAP1 LOG3 POP POP POP JUMP JUMPDEST PUSH2 0x210C DUP6 DUP6 DUP6 DUP6 DUP6 PUSH2 0x251F JUMP JUMPDEST PUSH2 0xDEC DUP4 DUP6 PUSH2 0x19FD JUMP JUMPDEST CALLER PUSH1 0x1 PUSH1 0x1 PUSH1 0xA0 SHL SUB DUP3 AND SUB PUSH2 0x216E JUMPI PUSH1 0x40 MLOAD PUSH3 0x461BCD PUSH1 0xE5 SHL DUP2 MSTORE PUSH1 0x20 PUSH1 0x4 DUP3 ADD MSTORE PUSH1 0x17 PUSH1 0x24 DUP3 ADD MSTORE PUSH32 0x43616E6E6F74207472616E7366657220746F2073656C66000000000000000000 PUSH1 0x44 DUP3 ADD MSTORE PUSH1 0x64 ADD PUSH2 0x689 JUMP JUMPDEST PUSH1 0xB DUP1 SLOAD PUSH1 0x1 PUSH1 0x1 PUSH1 0xA0 SHL SUB NOT AND PUSH1 0x1 PUSH1 0x1 PUSH1 0xA0 SHL SUB DUP4 DUP2 AND SWAP2 DUP3 OR SWAP1 SWAP3 SSTORE PUSH1 0xA SLOAD PUSH1 0x40 MLOAD SWAP2 SWAP3 AND SWAP1 PUSH32 0xED8889F560326EB138920D842192F0EB3DD22B4F139C87A2C57538E05BAE1278 SWAP1 PUSH1 0x0 SWAP1 LOG3 POP JUMP JUMPDEST PUSH2 0x1ECA DUP7 DUP7 DUP7 DUP7 DUP7 DUP7 PUSH2 0x2657 JUMP JUMPDEST PUSH1 0x1 PUSH1 0x1 PUSH1 0xA0 SHL SUB DUP5 AND EXTCODESIZE ISZERO PUSH2 0x1ECA JUMPI PUSH1 0x40 MLOAD PUSH4 0xBC197C81 PUSH1 0xE0 SHL DUP2 MSTORE PUSH1 0x1 PUSH1 0x1 PUSH1 0xA0 SHL SUB DUP6 AND SWAP1 PUSH4 0xBC197C81 SWAP1 PUSH2 0x2212 SWAP1 DUP10 SWAP1 DUP10 SWAP1 DUP9 SWAP1 DUP9 SWAP1 DUP9 SWAP1 PUSH1 0x4 ADD PUSH2 0x3873 JUMP JUMPDEST PUSH1 0x20 PUSH1 0x40 MLOAD DUP1 DUP4 SUB DUP2 PUSH1 0x0 DUP8 GAS CALL SWAP3 POP POP POP DUP1 ISZERO PUSH2 0x224D JUMPI POP PUSH1 0x40 DUP1 MLOAD PUSH1 0x1F RETURNDATASIZE SWAP1 DUP2 ADD PUSH1 0x1F NOT AND DUP3 ADD SWAP1 SWAP3 MSTORE PUSH2 0x224A SWAP2 DUP2 ADD SWAP1 PUSH2 0x38D1 JUMP JUMPDEST PUSH1 0x1 JUMPDEST PUSH2 0x22F9 JUMPI PUSH2 0x2259 PUSH2 0x38EE JUMP JUMPDEST DUP1 PUSH4 0x8C379A0 SUB PUSH2 0x2292 JUMPI POP PUSH2 0x226D PUSH2 0x390A JUMP JUMPDEST DUP1 PUSH2 0x2278 JUMPI POP PUSH2 0x2294 JUMP JUMPDEST DUP1 PUSH1 0x40 MLOAD PUSH3 0x461BCD PUSH1 0xE5 SHL DUP2 MSTORE PUSH1 0x4 ADD PUSH2 0x689 SWAP2 SWAP1 PUSH2 0x2F04 JUMP JUMPDEST POP JUMPDEST PUSH1 0x40 MLOAD PUSH3 0x461BCD PUSH1 0xE5 SHL DUP2 MSTORE PUSH1 0x20 PUSH1 0x4 DUP3 ADD MSTORE PUSH1 0x34 PUSH1 0x24 DUP3 ADD MSTORE PUSH32 0x455243313135353A207472616E7366657220746F206E6F6E2D45524331313535 PUSH1 0x44 DUP3 ADD MSTORE PUSH20 0x2932B1B2B4BB32B91034B6B83632B6B2B73A32B9 PUSH1 0x61 SHL PUSH1 0x64 DUP3 ADD MSTORE PUSH1 0x84 ADD PUSH2 0x689 JUMP JUMPDEST PUSH1 0x1 PUSH1 0x1 PUSH1 0xE0 SHL SUB NOT DUP2 AND PUSH4 0xBC197C81 PUSH1 0xE0 SHL EQ PUSH2 0x1FB2 JUMPI PUSH1 0x40 MLOAD PUSH3 0x461BCD PUSH1 0xE5 SHL DUP2 MSTORE PUSH1 0x4 ADD PUSH2 0x689 SWAP1 PUSH2 0x3993 JUMP JUMPDEST PUSH1 0x40 DUP1 MLOAD PUSH1 0x1 DUP1 DUP3 MSTORE DUP2 DUP4 ADD SWAP1 SWAP3 MSTORE PUSH1 0x60 SWAP2 PUSH1 0x0 SWAP2 SWAP1 PUSH1 0x20 DUP1 DUP4 ADD SWAP1 DUP1 CALLDATASIZE DUP4 CALLDATACOPY ADD SWAP1 POP POP SWAP1 POP DUP3 DUP2 PUSH1 0x0 DUP2 MLOAD DUP2 LT PUSH2 0x2363 JUMPI PUSH2 0x2363 PUSH2 0x3483 JUMP JUMPDEST PUSH1 0x20 SWAP1 DUP2 MUL SWAP2 SWAP1 SWAP2 ADD ADD MSTORE SWAP3 SWAP2 POP POP JUMP JUMPDEST PUSH1 0x1 PUSH1 0x1 PUSH1 0xA0 SHL SUB DUP5 AND EXTCODESIZE ISZERO PUSH2 0x1ECA JUMPI PUSH1 0x40 MLOAD PUSH4 0xF23A6E61 PUSH1 0xE0 SHL DUP2 MSTORE PUSH1 0x1 PUSH1 0x1 PUSH1 0xA0 SHL SUB DUP6 AND SWAP1 PUSH4 0xF23A6E61 SWAP1 PUSH2 0x23B8 SWAP1 DUP10 SWAP1 DUP10 SWAP1 DUP9 SWAP1 DUP9 SWAP1 DUP9 SWAP1 PUSH1 0x4 ADD PUSH2 0x39DB JUMP JUMPDEST PUSH1 0x20 PUSH1 0x40 MLOAD DUP1 DUP4 SUB DUP2 PUSH1 0x0 DUP8 GAS CALL SWAP3 POP POP POP DUP1 ISZERO PUSH2 0x23F3 JUMPI POP PUSH1 0x40 DUP1 MLOAD PUSH1 0x1F RETURNDATASIZE SWAP1 DUP2 ADD PUSH1 0x1F NOT AND DUP3 ADD SWAP1 SWAP3 MSTORE PUSH2 0x23F0 SWAP2 DUP2 ADD SWAP1 PUSH2 0x38D1 JUMP JUMPDEST PUSH1 0x1 JUMPDEST PUSH2 0x23FF JUMPI PUSH2 0x2259 PUSH2 0x38EE JUMP JUMPDEST PUSH1 0x1 PUSH1 0x1 PUSH1 0xE0 SHL SUB NOT DUP2 AND PUSH4 0xF23A6E61 PUSH1 0xE0 SHL EQ PUSH2 0x1FB2 JUMPI PUSH1 0x40 MLOAD PUSH3 0x461BCD PUSH1 0xE5 SHL DUP2 MSTORE PUSH1 0x4 ADD PUSH2 0x689 SWAP1 PUSH2 0x3993 JUMP JUMPDEST PUSH2 0x2437 PUSH2 0x2D00 JUMP JUMPDEST PUSH2 0x2447 DUP6 PUSH1 0x80 ADD MLOAD PUSH2 0x100 PUSH2 0x27D0 JUMP JUMPDEST POP POP DUP3 DUP5 MSTORE PUSH1 0x1 PUSH1 0x1 PUSH1 0xA0 SHL SUB DUP3 AND PUSH1 0x20 DUP6 ADD MSTORE PUSH1 0x1 PUSH1 0x1 PUSH1 0xE0 SHL SUB NOT DUP2 AND PUSH1 0x40 DUP6 ADD MSTORE DUP4 JUMPDEST SWAP5 SWAP4 POP POP POP POP JUMP JUMPDEST PUSH2 0x2482 DUP3 PUSH1 0x3 DUP4 MLOAD PUSH2 0x2835 JUMP JUMPDEST PUSH2 0x1BC9 DUP3 DUP3 PUSH2 0x293C JUMP JUMPDEST PUSH1 0x8 SLOAD PUSH1 0x0 SWAP1 PUSH2 0x249D DUP2 PUSH1 0x1 PUSH2 0x34AF JUMP JUMPDEST PUSH1 0x8 SSTORE DUP4 MLOAD PUSH1 0x40 DUP1 DUP7 ADD MLOAD PUSH1 0x80 DUP8 ADD MLOAD MLOAD SWAP2 MLOAD PUSH1 0x0 SWAP4 PUSH4 0x20214CA3 PUSH1 0xE1 SHL SWAP4 PUSH2 0x24D5 SWAP4 DUP7 SWAP4 DUP5 SWAP4 SWAP3 ADDRESS SWAP3 SWAP2 DUP11 SWAP2 PUSH1 0x1 SWAP2 PUSH1 0x24 ADD PUSH2 0x3A20 JUMP JUMPDEST PUSH1 0x40 DUP1 MLOAD PUSH1 0x1F NOT DUP2 DUP5 SUB ADD DUP2 MSTORE SWAP2 SWAP1 MSTORE PUSH1 0x20 DUP2 ADD DUP1 MLOAD PUSH1 0x1 PUSH1 0x1 PUSH1 0xE0 SHL SUB AND PUSH1 0x1 PUSH1 0x1 PUSH1 0xE0 SHL SUB NOT SWAP1 SWAP4 AND SWAP3 SWAP1 SWAP3 OR SWAP1 SWAP2 MSTORE SWAP1 POP PUSH2 0x2515 DUP7 DUP4 DUP7 DUP5 PUSH2 0x2963 JUMP JUMPDEST SWAP7 SWAP6 POP POP POP POP POP POP JUMP JUMPDEST PUSH1 0x1 PUSH1 0x1 PUSH1 0xA0 SHL SUB DUP5 AND PUSH2 0x2545 JUMPI PUSH1 0x40 MLOAD PUSH3 0x461BCD PUSH1 0xE5 SHL DUP2 MSTORE PUSH1 0x4 ADD PUSH2 0x689 SWAP1 PUSH2 0x37E4 JUMP JUMPDEST CALLER PUSH1 0x0 PUSH2 0x2551 DUP6 PUSH2 0x2329 JUMP JUMPDEST SWAP1 POP PUSH1 0x0 PUSH2 0x255E DUP6 PUSH2 0x2329 JUMP JUMPDEST SWAP1 POP PUSH2 0x256E DUP4 DUP10 DUP10 DUP6 DUP6 DUP10 PUSH2 0x21C0 JUMP JUMPDEST PUSH1 0x0 DUP7 DUP2 MSTORE PUSH1 0x20 DUP2 DUP2 MSTORE PUSH1 0x40 DUP1 DUP4 KECCAK256 PUSH1 0x1 PUSH1 0x1 PUSH1 0xA0 SHL SUB DUP13 AND DUP5 MSTORE SWAP1 SWAP2 MSTORE SWAP1 KECCAK256 SLOAD DUP6 DUP2 LT ISZERO PUSH2 0x25AF JUMPI PUSH1 0x40 MLOAD PUSH3 0x461BCD PUSH1 0xE5 SHL DUP2 MSTORE PUSH1 0x4 ADD PUSH2 0x689 SWAP1 PUSH2 0x3829 JUMP JUMPDEST PUSH1 0x0 DUP8 DUP2 MSTORE PUSH1 0x20 DUP2 DUP2 MSTORE PUSH1 0x40 DUP1 DUP4 KECCAK256 PUSH1 0x1 PUSH1 0x1 PUSH1 0xA0 SHL SUB DUP14 DUP2 AND DUP6 MSTORE SWAP3 MSTORE DUP1 DUP4 KECCAK256 DUP10 DUP6 SUB SWAP1 SSTORE SWAP1 DUP11 AND DUP3 MSTORE DUP2 KECCAK256 DUP1 SLOAD DUP9 SWAP3 SWAP1 PUSH2 0x25EC SWAP1 DUP5 SWAP1 PUSH2 0x34AF JUMP JUMPDEST SWAP1 SWAP2 SSTORE POP POP PUSH1 0x40 DUP1 MLOAD DUP9 DUP2 MSTORE PUSH1 0x20 DUP2 ADD DUP9 SWAP1 MSTORE PUSH1 0x1 PUSH1 0x1 PUSH1 0xA0 SHL SUB DUP1 DUP12 AND SWAP3 DUP13 DUP3 AND SWAP3 SWAP2 DUP9 AND SWAP2 PUSH32 0xC3D58168C5AE7397731D063D5BBF3D657854427343F4C083240F7AACAA2D0F62 SWAP2 ADD PUSH1 0x40 MLOAD DUP1 SWAP2 SUB SWAP1 LOG4 PUSH2 0x264C DUP5 DUP11 DUP11 DUP11 DUP11 DUP11 PUSH2 0x2374 JUMP JUMPDEST POP POP POP POP POP POP POP POP POP JUMP JUMPDEST PUSH1 0x1 PUSH1 0x1 PUSH1 0xA0 SHL SUB DUP6 AND PUSH2 0x26DE JUMPI PUSH1 0x0 JUMPDEST DUP4 MLOAD DUP2 LT ISZERO PUSH2 0x26DC JUMPI DUP3 DUP2 DUP2 MLOAD DUP2 LT PUSH2 0x2683 JUMPI PUSH2 0x2683 PUSH2 0x3483 JUMP JUMPDEST PUSH1 0x20 MUL PUSH1 0x20 ADD ADD MLOAD PUSH1 0x3 PUSH1 0x0 DUP7 DUP5 DUP2 MLOAD DUP2 LT PUSH2 0x26A1 JUMPI PUSH2 0x26A1 PUSH2 0x3483 JUMP JUMPDEST PUSH1 0x20 MUL PUSH1 0x20 ADD ADD MLOAD DUP2 MSTORE PUSH1 0x20 ADD SWAP1 DUP2 MSTORE PUSH1 0x20 ADD PUSH1 0x0 KECCAK256 PUSH1 0x0 DUP3 DUP3 SLOAD PUSH2 0x26C6 SWAP2 SWAP1 PUSH2 0x34AF JUMP JUMPDEST SWAP1 SWAP2 SSTORE POP PUSH2 0x26D5 SWAP1 POP DUP2 PUSH2 0x3525 JUMP JUMPDEST SWAP1 POP PUSH2 0x2668 JUMP JUMPDEST POP JUMPDEST PUSH1 0x1 PUSH1 0x1 PUSH1 0xA0 SHL SUB DUP5 AND PUSH2 0x1ECA JUMPI PUSH1 0x0 JUMPDEST DUP4 MLOAD DUP2 LT ISZERO PUSH2 0x1FB2 JUMPI PUSH1 0x0 DUP5 DUP3 DUP2 MLOAD DUP2 LT PUSH2 0x270C JUMPI PUSH2 0x270C PUSH2 0x3483 JUMP JUMPDEST PUSH1 0x20 MUL PUSH1 0x20 ADD ADD MLOAD SWAP1 POP PUSH1 0x0 DUP5 DUP4 DUP2 MLOAD DUP2 LT PUSH2 0x272A JUMPI PUSH2 0x272A PUSH2 0x3483 JUMP JUMPDEST PUSH1 0x20 MUL PUSH1 0x20 ADD ADD MLOAD SWAP1 POP PUSH1 0x0 PUSH1 0x3 PUSH1 0x0 DUP5 DUP2 MSTORE PUSH1 0x20 ADD SWAP1 DUP2 MSTORE PUSH1 0x20 ADD PUSH1 0x0 KECCAK256 SLOAD SWAP1 POP DUP2 DUP2 LT ISZERO PUSH2 0x27AD JUMPI PUSH1 0x40 MLOAD PUSH3 0x461BCD PUSH1 0xE5 SHL DUP2 MSTORE PUSH1 0x20 PUSH1 0x4 DUP3 ADD MSTORE PUSH1 0x28 PUSH1 0x24 DUP3 ADD MSTORE PUSH32 0x455243313135353A206275726E20616D6F756E74206578636565647320746F74 PUSH1 0x44 DUP3 ADD MSTORE PUSH8 0x616C537570706C79 PUSH1 0xC0 SHL PUSH1 0x64 DUP3 ADD MSTORE PUSH1 0x84 ADD PUSH2 0x689 JUMP JUMPDEST PUSH1 0x0 SWAP3 DUP4 MSTORE PUSH1 0x3 PUSH1 0x20 MSTORE PUSH1 0x40 SWAP1 SWAP3 KECCAK256 SWAP2 SUB SWAP1 SSTORE PUSH2 0x27C9 DUP2 PUSH2 0x3525 JUMP JUMPDEST SWAP1 POP PUSH2 0x26EF JUMP JUMPDEST PUSH1 0x40 DUP1 MLOAD DUP1 DUP3 ADD SWAP1 SWAP2 MSTORE PUSH1 0x60 DUP2 MSTORE PUSH1 0x0 PUSH1 0x20 DUP3 ADD MSTORE PUSH2 0x27F0 PUSH1 0x20 DUP4 PUSH2 0x3A88 JUMP JUMPDEST ISZERO PUSH2 0x2818 JUMPI PUSH2 0x2800 PUSH1 0x20 DUP4 PUSH2 0x3A88 JUMP JUMPDEST PUSH2 0x280B SWAP1 PUSH1 0x20 PUSH2 0x370D JUMP JUMPDEST PUSH2 0x2815 SWAP1 DUP4 PUSH2 0x34AF JUMP JUMPDEST SWAP2 POP JUMPDEST POP PUSH1 0x20 DUP3 DUP2 ADD DUP3 SWAP1 MSTORE PUSH1 0x40 DUP1 MLOAD DUP1 DUP6 MSTORE PUSH1 0x0 DUP2 MSTORE SWAP1 SWAP3 ADD ADD SWAP1 MSTORE SWAP1 JUMP JUMPDEST PUSH1 0x17 DUP2 PUSH1 0x1 PUSH1 0x1 PUSH1 0x40 SHL SUB AND GT PUSH2 0x2859 JUMPI PUSH2 0xA65 DUP4 PUSH1 0xE0 PUSH1 0x5 DUP6 SWAP1 SHL AND DUP4 OR PUSH2 0x2AC1 JUMP JUMPDEST PUSH1 0xFF DUP2 PUSH1 0x1 PUSH1 0x1 PUSH1 0x40 SHL SUB AND GT PUSH2 0x2895 JUMPI PUSH2 0x287F DUP4 PUSH1 0x18 PUSH2 0x1FE0 PUSH1 0x5 DUP7 SWAP1 SHL AND OR PUSH2 0x2AC1 JUMP JUMPDEST POP PUSH2 0xA65 DUP4 PUSH1 0x1 PUSH1 0x1 PUSH1 0x40 SHL SUB DUP4 AND PUSH1 0x1 PUSH2 0x2AE6 JUMP JUMPDEST PUSH2 0xFFFF DUP2 PUSH1 0x1 PUSH1 0x1 PUSH1 0x40 SHL SUB AND GT PUSH2 0x28D2 JUMPI PUSH2 0x28BC DUP4 PUSH1 0x19 PUSH2 0x1FE0 PUSH1 0x5 DUP7 SWAP1 SHL AND OR PUSH2 0x2AC1 JUMP JUMPDEST POP PUSH2 0xA65 DUP4 PUSH1 0x1 PUSH1 0x1 PUSH1 0x40 SHL SUB DUP4 AND PUSH1 0x2 PUSH2 0x2AE6 JUMP JUMPDEST PUSH4 0xFFFFFFFF DUP2 PUSH1 0x1 PUSH1 0x1 PUSH1 0x40 SHL SUB AND GT PUSH2 0x2911 JUMPI PUSH2 0x28FB DUP4 PUSH1 0x1A PUSH2 0x1FE0 PUSH1 0x5 DUP7 SWAP1 SHL AND OR PUSH2 0x2AC1 JUMP JUMPDEST POP PUSH2 0xA65 DUP4 PUSH1 0x1 PUSH1 0x1 PUSH1 0x40 SHL SUB DUP4 AND PUSH1 0x4 PUSH2 0x2AE6 JUMP JUMPDEST PUSH2 0x2926 DUP4 PUSH1 0x1B PUSH2 0x1FE0 PUSH1 0x5 DUP7 SWAP1 SHL AND OR PUSH2 0x2AC1 JUMP JUMPDEST POP PUSH2 0xA65 DUP4 PUSH1 0x1 PUSH1 0x1 PUSH1 0x40 SHL SUB DUP4 AND PUSH1 0x8 PUSH2 0x2AE6 JUMP JUMPDEST PUSH1 0x40 DUP1 MLOAD DUP1 DUP3 ADD SWAP1 SWAP2 MSTORE PUSH1 0x60 DUP2 MSTORE PUSH1 0x0 PUSH1 0x20 DUP3 ADD MSTORE PUSH2 0x2018 DUP4 DUP5 PUSH1 0x0 ADD MLOAD MLOAD DUP5 DUP6 MLOAD PUSH2 0x2B0C JUMP JUMPDEST PUSH1 0x40 MLOAD PUSH12 0xFFFFFFFFFFFFFFFFFFFFFFFF NOT ADDRESS PUSH1 0x60 SHL AND PUSH1 0x20 DUP3 ADD MSTORE PUSH1 0x34 DUP2 ADD DUP5 SWAP1 MSTORE PUSH1 0x0 SWAP1 PUSH1 0x54 ADD PUSH1 0x40 DUP1 MLOAD DUP1 DUP4 SUB PUSH1 0x1F NOT ADD DUP2 MSTORE DUP3 DUP3 MSTORE DUP1 MLOAD PUSH1 0x20 SWAP2 DUP3 ADD KECCAK256 PUSH1 0x0 DUP2 DUP2 MSTORE PUSH1 0x9 SWAP1 SWAP3 MSTORE SWAP2 DUP2 KECCAK256 DUP1 SLOAD PUSH1 0x1 PUSH1 0x1 PUSH1 0xA0 SHL SUB NOT AND PUSH1 0x1 PUSH1 0x1 PUSH1 0xA0 SHL SUB DUP11 AND OR SWAP1 SSTORE SWAP1 SWAP3 POP DUP3 SWAP2 PUSH32 0xB5E6E01E79F91267DC17B4E6314D5D4D03593D2CEEE0FBB452B750BD70EA5AF9 SWAP2 SWAP1 LOG2 PUSH1 0x6 SLOAD PUSH1 0x40 MLOAD PUSH4 0x2000575 PUSH1 0xE5 SHL DUP2 MSTORE PUSH1 0x1 PUSH1 0x1 PUSH1 0xA0 SHL SUB SWAP1 SWAP2 AND SWAP1 PUSH4 0x4000AEA0 SWAP1 PUSH2 0x2A26 SWAP1 DUP9 SWAP1 DUP8 SWAP1 DUP8 SWAP1 PUSH1 0x4 ADD PUSH2 0x3A9C JUMP JUMPDEST PUSH1 0x20 PUSH1 0x40 MLOAD DUP1 DUP4 SUB DUP2 PUSH1 0x0 DUP8 GAS CALL ISZERO DUP1 ISZERO PUSH2 0x2A45 JUMPI RETURNDATASIZE PUSH1 0x0 DUP1 RETURNDATACOPY RETURNDATASIZE PUSH1 0x0 REVERT JUMPDEST POP POP POP POP PUSH1 0x40 MLOAD RETURNDATASIZE PUSH1 0x1F NOT PUSH1 0x1F DUP3 ADD AND DUP3 ADD DUP1 PUSH1 0x40 MSTORE POP DUP2 ADD SWAP1 PUSH2 0x2A69 SWAP2 SWAP1 PUSH2 0x35EB JUMP JUMPDEST PUSH2 0x246D JUMPI PUSH1 0x40 MLOAD PUSH3 0x461BCD PUSH1 0xE5 SHL DUP2 MSTORE PUSH1 0x20 PUSH1 0x4 DUP3 ADD MSTORE PUSH1 0x23 PUSH1 0x24 DUP3 ADD MSTORE PUSH32 0x756E61626C6520746F207472616E73666572416E6443616C6C20746F206F7261 PUSH1 0x44 DUP3 ADD MSTORE PUSH3 0x636C65 PUSH1 0xE8 SHL PUSH1 0x64 DUP3 ADD MSTORE PUSH1 0x84 ADD PUSH2 0x689 JUMP JUMPDEST PUSH1 0x40 DUP1 MLOAD DUP1 DUP3 ADD SWAP1 SWAP2 MSTORE PUSH1 0x60 DUP2 MSTORE PUSH1 0x0 PUSH1 0x20 DUP3 ADD MSTORE PUSH2 0x2018 DUP4 DUP5 PUSH1 0x0 ADD MLOAD MLOAD DUP5 PUSH2 0x2BF6 JUMP JUMPDEST PUSH1 0x40 DUP1 MLOAD DUP1 DUP3 ADD SWAP1 SWAP2 MSTORE PUSH1 0x60 DUP2 MSTORE PUSH1 0x0 PUSH1 0x20 DUP3 ADD MSTORE PUSH2 0x246D DUP5 DUP6 PUSH1 0x0 ADD MLOAD MLOAD DUP6 DUP6 PUSH2 0x2C51 JUMP JUMPDEST PUSH1 0x40 DUP1 MLOAD DUP1 DUP3 ADD SWAP1 SWAP2 MSTORE PUSH1 0x60 DUP2 MSTORE PUSH1 0x0 PUSH1 0x20 DUP3 ADD MSTORE DUP3 MLOAD DUP3 GT ISZERO PUSH2 0x2B2F JUMPI PUSH1 0x0 DUP1 REVERT JUMPDEST PUSH1 0x20 DUP6 ADD MLOAD PUSH2 0x2B3E DUP4 DUP7 PUSH2 0x34AF JUMP JUMPDEST GT ISZERO PUSH2 0x2B71 JUMPI PUSH2 0x2B71 DUP6 PUSH2 0x2B61 DUP8 PUSH1 0x20 ADD MLOAD DUP8 DUP7 PUSH2 0x2B5C SWAP2 SWAP1 PUSH2 0x34AF JUMP JUMPDEST PUSH2 0x2CD2 JUMP JUMPDEST PUSH2 0x2B6C SWAP1 PUSH1 0x2 PUSH2 0x350E JUMP JUMPDEST PUSH2 0x2CE9 JUMP JUMPDEST PUSH1 0x0 DUP1 DUP7 MLOAD DUP1 MLOAD DUP8 PUSH1 0x20 DUP4 ADD ADD SWAP4 POP DUP1 DUP9 DUP8 ADD GT ISZERO PUSH2 0x2B90 JUMPI DUP8 DUP7 ADD DUP3 MSTORE JUMPDEST POP POP POP PUSH1 0x20 DUP5 ADD JUMPDEST PUSH1 0x20 DUP5 LT PUSH2 0x2BD0 JUMPI DUP1 MLOAD DUP3 MSTORE PUSH2 0x2BAF PUSH1 0x20 DUP4 PUSH2 0x34AF JUMP JUMPDEST SWAP2 POP PUSH2 0x2BBC PUSH1 0x20 DUP3 PUSH2 0x34AF JUMP JUMPDEST SWAP1 POP PUSH2 0x2BC9 PUSH1 0x20 DUP6 PUSH2 0x370D JUMP JUMPDEST SWAP4 POP PUSH2 0x2B98 JUMP JUMPDEST MLOAD DUP2 MLOAD PUSH1 0x0 NOT PUSH1 0x20 DUP7 SWAP1 SUB PUSH2 0x100 EXP ADD SWAP1 DUP2 AND SWAP1 NOT SWAP2 SWAP1 SWAP2 AND OR SWAP1 MSTORE POP DUP4 SWAP5 SWAP4 POP POP POP POP JUMP JUMPDEST PUSH1 0x40 DUP1 MLOAD DUP1 DUP3 ADD SWAP1 SWAP2 MSTORE PUSH1 0x60 DUP2 MSTORE PUSH1 0x0 PUSH1 0x20 DUP3 ADD MSTORE DUP4 PUSH1 0x20 ADD MLOAD DUP4 LT PUSH2 0x2C2B JUMPI PUSH2 0x2C2B DUP5 DUP6 PUSH1 0x20 ADD MLOAD PUSH1 0x2 PUSH2 0x2B6C SWAP2 SWAP1 PUSH2 0x350E JUMP JUMPDEST DUP4 MLOAD DUP1 MLOAD PUSH1 0x20 DUP6 DUP4 ADD ADD DUP5 DUP2 MSTORE8 POP DUP1 DUP6 SUB PUSH2 0x2C47 JUMPI PUSH1 0x1 DUP2 ADD DUP3 MSTORE JUMPDEST POP SWAP4 SWAP5 SWAP4 POP POP POP POP JUMP JUMPDEST PUSH1 0x40 DUP1 MLOAD DUP1 DUP3 ADD SWAP1 SWAP2 MSTORE PUSH1 0x60 DUP2 MSTORE PUSH1 0x0 PUSH1 0x20 DUP3 ADD MSTORE PUSH1 0x20 DUP6 ADD MLOAD PUSH2 0x2C75 DUP6 DUP5 PUSH2 0x34AF JUMP JUMPDEST GT ISZERO PUSH2 0x2C89 JUMPI PUSH2 0x2C89 DUP6 PUSH2 0x2B61 DUP7 DUP6 PUSH2 0x34AF JUMP JUMPDEST PUSH1 0x0 PUSH1 0x1 PUSH2 0x2C99 DUP5 PUSH2 0x100 PUSH2 0x3BA7 JUMP JUMPDEST PUSH2 0x2CA3 SWAP2 SWAP1 PUSH2 0x370D JUMP JUMPDEST SWAP1 POP DUP6 MLOAD DUP4 DUP7 DUP3 ADD ADD DUP6 DUP4 NOT DUP3 MLOAD AND OR DUP2 MSTORE POP DUP1 MLOAD DUP5 DUP8 ADD GT ISZERO PUSH2 0x2CC7 JUMPI DUP4 DUP7 ADD DUP2 MSTORE JUMPDEST POP SWAP5 SWAP6 SWAP5 POP POP POP POP POP JUMP JUMPDEST PUSH1 0x0 DUP2 DUP4 GT ISZERO PUSH2 0x2CE3 JUMPI POP DUP2 PUSH2 0x6B5 JUMP JUMPDEST POP SWAP2 SWAP1 POP JUMP JUMPDEST DUP2 MLOAD PUSH2 0x2CF5 DUP4 DUP4 PUSH2 0x27D0 JUMP JUMPDEST POP PUSH2 0xA65 DUP4 DUP3 PUSH2 0x293C JUMP JUMPDEST PUSH1 0x40 DUP1 MLOAD PUSH1 0xA0 DUP2 ADD DUP3 MSTORE PUSH1 0x0 DUP1 DUP3 MSTORE PUSH1 0x20 DUP1 DUP4 ADD DUP3 SWAP1 MSTORE DUP3 DUP5 ADD DUP3 SWAP1 MSTORE PUSH1 0x60 DUP1 DUP5 ADD DUP4 SWAP1 MSTORE DUP5 MLOAD DUP1 DUP7 ADD SWAP1 SWAP6 MSTORE DUP5 MSTORE DUP4 ADD MSTORE SWAP1 PUSH1 0x80 DUP3 ADD MSTORE SWAP1 JUMP JUMPDEST DUP1 CALLDATALOAD PUSH1 0x1 PUSH1 0x1 PUSH1 0xA0 SHL SUB DUP2 AND DUP2 EQ PUSH2 0x2D52 JUMPI PUSH1 0x0 DUP1 REVERT JUMPDEST SWAP2 SWAP1 POP JUMP JUMPDEST PUSH1 0x0 DUP1 PUSH1 0x40 DUP4 DUP6 SUB SLT ISZERO PUSH2 0x2D6A JUMPI PUSH1 0x0 DUP1 REVERT JUMPDEST PUSH2 0x2D73 DUP4 PUSH2 0x2D3B JUMP JUMPDEST SWAP5 PUSH1 0x20 SWAP4 SWAP1 SWAP4 ADD CALLDATALOAD SWAP4 POP POP POP JUMP JUMPDEST PUSH1 0x1 PUSH1 0x1 PUSH1 0xE0 SHL SUB NOT DUP2 AND DUP2 EQ PUSH2 0x71C JUMPI PUSH1 0x0 DUP1 REVERT JUMPDEST PUSH1 0x0 PUSH1 0x20 DUP3 DUP5 SUB SLT ISZERO PUSH2 0x2DA9 JUMPI PUSH1 0x0 DUP1 REVERT JUMPDEST DUP2 CALLDATALOAD PUSH2 0x2018 DUP2 PUSH2 0x2D81 JUMP JUMPDEST PUSH4 0x4E487B71 PUSH1 0xE0 SHL PUSH1 0x0 MSTORE PUSH1 0x41 PUSH1 0x4 MSTORE PUSH1 0x24 PUSH1 0x0 REVERT JUMPDEST PUSH1 0x1F DUP3 ADD PUSH1 0x1F NOT AND DUP2 ADD PUSH1 0x1 PUSH1 0x1 PUSH1 0x40 SHL SUB DUP2 GT DUP3 DUP3 LT OR ISZERO PUSH2 0x2DEF JUMPI PUSH2 0x2DEF PUSH2 0x2DB4 JUMP JUMPDEST PUSH1 0x40 MSTORE POP POP JUMP JUMPDEST PUSH1 0x0 PUSH1 0x1 PUSH1 0x1 PUSH1 0x40 SHL SUB DUP4 GT ISZERO PUSH2 0x2E0F JUMPI PUSH2 0x2E0F PUSH2 0x2DB4 JUMP JUMPDEST PUSH1 0x40 MLOAD PUSH2 0x2E26 PUSH1 0x1F DUP6 ADD PUSH1 0x1F NOT AND PUSH1 0x20 ADD DUP3 PUSH2 0x2DCA JUMP JUMPDEST DUP1 SWAP2 POP DUP4 DUP2 MSTORE DUP5 DUP5 DUP5 ADD GT ISZERO PUSH2 0x2E3B JUMPI PUSH1 0x0 DUP1 REVERT JUMPDEST DUP4 DUP4 PUSH1 0x20 DUP4 ADD CALLDATACOPY PUSH1 0x0 PUSH1 0x20 DUP6 DUP4 ADD ADD MSTORE POP SWAP4 SWAP3 POP POP POP JUMP JUMPDEST PUSH1 0x0 PUSH1 0x20 DUP3 DUP5 SUB SLT ISZERO PUSH2 0x2E65 JUMPI PUSH1 0x0 DUP1 REVERT JUMPDEST DUP2 CALLDATALOAD PUSH1 0x1 PUSH1 0x1 PUSH1 0x40 SHL SUB DUP2 GT ISZERO PUSH2 0x2E7B JUMPI PUSH1 0x0 DUP1 REVERT JUMPDEST DUP3 ADD PUSH1 0x1F DUP2 ADD DUP5 SGT PUSH2 0x2E8C JUMPI PUSH1 0x0 DUP1 REVERT JUMPDEST PUSH2 0x246D DUP5 DUP3 CALLDATALOAD PUSH1 0x20 DUP5 ADD PUSH2 0x2DF6 JUMP JUMPDEST PUSH1 0x0 PUSH1 0x20 DUP3 DUP5 SUB SLT ISZERO PUSH2 0x2EAD JUMPI PUSH1 0x0 DUP1 REVERT JUMPDEST POP CALLDATALOAD SWAP2 SWAP1 POP JUMP JUMPDEST PUSH1 0x0 JUMPDEST DUP4 DUP2 LT ISZERO PUSH2 0x2ECF JUMPI DUP2 DUP2 ADD MLOAD DUP4 DUP3 ADD MSTORE PUSH1 0x20 ADD PUSH2 0x2EB7 JUMP JUMPDEST POP POP PUSH1 0x0 SWAP2 ADD MSTORE JUMP JUMPDEST PUSH1 0x0 DUP2 MLOAD DUP1 DUP5 MSTORE PUSH2 0x2EF0 DUP2 PUSH1 0x20 DUP7 ADD PUSH1 0x20 DUP7 ADD PUSH2 0x2EB4 JUMP JUMPDEST PUSH1 0x1F ADD PUSH1 0x1F NOT AND SWAP3 SWAP1 SWAP3 ADD PUSH1 0x20 ADD SWAP3 SWAP2 POP POP JUMP JUMPDEST PUSH1 0x20 DUP2 MSTORE PUSH1 0x0 PUSH2 0x2018 PUSH1 0x20 DUP4 ADD DUP5 PUSH2 0x2ED8 JUMP JUMPDEST PUSH1 0x0 PUSH1 0x1 PUSH1 0x1 PUSH1 0x40 SHL SUB DUP3 GT ISZERO PUSH2 0x2F30 JUMPI PUSH2 0x2F30 PUSH2 0x2DB4 JUMP JUMPDEST POP PUSH1 0x5 SHL PUSH1 0x20 ADD SWAP1 JUMP JUMPDEST PUSH1 0x0 DUP3 PUSH1 0x1F DUP4 ADD SLT PUSH2 0x2F4B JUMPI PUSH1 0x0 DUP1 REVERT JUMPDEST DUP2 CALLDATALOAD PUSH1 0x20 PUSH2 0x2F58 DUP3 PUSH2 0x2F17 JUMP JUMPDEST PUSH1 0x40 MLOAD PUSH2 0x2F65 DUP3 DUP3 PUSH2 0x2DCA JUMP JUMPDEST DUP4 DUP2 MSTORE PUSH1 0x5 SWAP4 SWAP1 SWAP4 SHL DUP6 ADD DUP3 ADD SWAP3 DUP3 DUP2 ADD SWAP2 POP DUP7 DUP5 GT ISZERO PUSH2 0x2F85 JUMPI PUSH1 0x0 DUP1 REVERT JUMPDEST DUP3 DUP7 ADD JUMPDEST DUP5 DUP2 LT ISZERO PUSH2 0x2FA0 JUMPI DUP1 CALLDATALOAD DUP4 MSTORE SWAP2 DUP4 ADD SWAP2 DUP4 ADD PUSH2 0x2F89 JUMP JUMPDEST POP SWAP7 SWAP6 POP POP POP POP POP POP JUMP JUMPDEST PUSH1 0x0 DUP3 PUSH1 0x1F DUP4 ADD SLT PUSH2 0x2FBC JUMPI PUSH1 0x0 DUP1 REVERT JUMPDEST PUSH2 0x2018 DUP4 DUP4 CALLDATALOAD PUSH1 0x20 DUP6 ADD PUSH2 0x2DF6 JUMP JUMPDEST PUSH1 0x0 DUP1 PUSH1 0x0 DUP1 PUSH1 0x80 DUP6 DUP8 SUB SLT ISZERO PUSH2 0x2FE1 JUMPI PUSH1 0x0 DUP1 REVERT JUMPDEST PUSH2 0x2FEA DUP6 PUSH2 0x2D3B JUMP JUMPDEST SWAP4 POP PUSH1 0x20 DUP6 ADD CALLDATALOAD PUSH1 0x1 PUSH1 0x1 PUSH1 0x40 SHL SUB DUP1 DUP3 GT ISZERO PUSH2 0x3006 JUMPI PUSH1 0x0 DUP1 REVERT JUMPDEST PUSH2 0x3012 DUP9 DUP4 DUP10 ADD PUSH2 0x2F3A JUMP JUMPDEST SWAP5 POP PUSH1 0x40 DUP8 ADD CALLDATALOAD SWAP2 POP DUP1 DUP3 GT ISZERO PUSH2 0x3028 JUMPI PUSH1 0x0 DUP1 REVERT JUMPDEST PUSH2 0x3034 DUP9 DUP4 DUP10 ADD PUSH2 0x2F3A JUMP JUMPDEST SWAP4 POP PUSH1 0x60 DUP8 ADD CALLDATALOAD SWAP2 POP DUP1 DUP3 GT ISZERO PUSH2 0x304A JUMPI PUSH1 0x0 DUP1 REVERT JUMPDEST POP PUSH2 0x3057 DUP8 DUP3 DUP9 ADD PUSH2 0x2FAB JUMP JUMPDEST SWAP2 POP POP SWAP3 SWAP6 SWAP2 SWAP5 POP SWAP3 POP JUMP JUMPDEST PUSH1 0x0 DUP1 PUSH1 0x0 PUSH1 0x60 DUP5 DUP7 SUB SLT ISZERO PUSH2 0x3078 JUMPI PUSH1 0x0 DUP1 REVERT JUMPDEST DUP4 CALLDATALOAD SWAP3 POP PUSH1 0x20 DUP5 ADD CALLDATALOAD SWAP2 POP PUSH2 0x308F PUSH1 0x40 DUP6 ADD PUSH2 0x2D3B JUMP JUMPDEST SWAP1 POP SWAP3 POP SWAP3 POP SWAP3 JUMP JUMPDEST PUSH1 0x0 DUP1 PUSH1 0x0 DUP1 PUSH1 0x0 PUSH1 0xA0 DUP7 DUP9 SUB SLT ISZERO PUSH2 0x30B0 JUMPI PUSH1 0x0 DUP1 REVERT JUMPDEST PUSH2 0x30B9 DUP7 PUSH2 0x2D3B JUMP JUMPDEST SWAP5 POP PUSH2 0x30C7 PUSH1 0x20 DUP8 ADD PUSH2 0x2D3B JUMP JUMPDEST SWAP4 POP PUSH1 0x40 DUP7 ADD CALLDATALOAD PUSH1 0x1 PUSH1 0x1 PUSH1 0x40 SHL SUB DUP1 DUP3 GT ISZERO PUSH2 0x30E3 JUMPI PUSH1 0x0 DUP1 REVERT JUMPDEST PUSH2 0x30EF DUP10 DUP4 DUP11 ADD PUSH2 0x2F3A JUMP JUMPDEST SWAP5 POP PUSH1 0x60 DUP9 ADD CALLDATALOAD SWAP2 POP DUP1 DUP3 GT ISZERO PUSH2 0x3105 JUMPI PUSH1 0x0 DUP1 REVERT JUMPDEST PUSH2 0x3111 DUP10 DUP4 DUP11 ADD PUSH2 0x2F3A JUMP JUMPDEST SWAP4 POP PUSH1 0x80 DUP9 ADD CALLDATALOAD SWAP2 POP DUP1 DUP3 GT ISZERO PUSH2 0x3127 JUMPI PUSH1 0x0 DUP1 REVERT JUMPDEST POP PUSH2 0x3134 DUP9 DUP3 DUP10 ADD PUSH2 0x2FAB JUMP JUMPDEST SWAP2 POP POP SWAP3 SWAP6 POP SWAP3 SWAP6 SWAP1 SWAP4 POP JUMP JUMPDEST PUSH1 0x0 DUP1 PUSH1 0x40 DUP4 DUP6 SUB SLT ISZERO PUSH2 0x3154 JUMPI PUSH1 0x0 DUP1 REVERT JUMPDEST DUP3 CALLDATALOAD SWAP2 POP PUSH2 0x3164 PUSH1 0x20 DUP5 ADD PUSH2 0x2D3B JUMP JUMPDEST SWAP1 POP SWAP3 POP SWAP3 SWAP1 POP JUMP JUMPDEST PUSH1 0x0 DUP1 PUSH1 0x40 DUP4 DUP6 SUB SLT ISZERO PUSH2 0x3180 JUMPI PUSH1 0x0 DUP1 REVERT JUMPDEST DUP3 CALLDATALOAD PUSH1 0x1 PUSH1 0x1 PUSH1 0x40 SHL SUB DUP1 DUP3 GT ISZERO PUSH2 0x3197 JUMPI PUSH1 0x0 DUP1 REVERT JUMPDEST DUP2 DUP6 ADD SWAP2 POP DUP6 PUSH1 0x1F DUP4 ADD SLT PUSH2 0x31AB JUMPI PUSH1 0x0 DUP1 REVERT JUMPDEST DUP2 CALLDATALOAD PUSH1 0x20 PUSH2 0x31B8 DUP3 PUSH2 0x2F17 JUMP JUMPDEST PUSH1 0x40 MLOAD PUSH2 0x31C5 DUP3 DUP3 PUSH2 0x2DCA JUMP JUMPDEST DUP4 DUP2 MSTORE PUSH1 0x5 SWAP4 SWAP1 SWAP4 SHL DUP6 ADD DUP3 ADD SWAP3 DUP3 DUP2 ADD SWAP2 POP DUP10 DUP5 GT ISZERO PUSH2 0x31E5 JUMPI PUSH1 0x0 DUP1 REVERT JUMPDEST SWAP5 DUP3 ADD SWAP5 JUMPDEST DUP4 DUP7 LT ISZERO PUSH2 0x320A JUMPI PUSH2 0x31FB DUP7 PUSH2 0x2D3B JUMP JUMPDEST DUP3 MSTORE SWAP5 DUP3 ADD SWAP5 SWAP1 DUP3 ADD SWAP1 PUSH2 0x31EA JUMP JUMPDEST SWAP7 POP POP DUP7 ADD CALLDATALOAD SWAP3 POP POP DUP1 DUP3 GT ISZERO PUSH2 0x3220 JUMPI PUSH1 0x0 DUP1 REVERT JUMPDEST POP PUSH2 0x322D DUP6 DUP3 DUP7 ADD PUSH2 0x2F3A JUMP JUMPDEST SWAP2 POP POP SWAP3 POP SWAP3 SWAP1 POP JUMP JUMPDEST PUSH1 0x0 DUP2 MLOAD DUP1 DUP5 MSTORE PUSH1 0x20 DUP1 DUP6 ADD SWAP5 POP DUP1 DUP5 ADD PUSH1 0x0 JUMPDEST DUP4 DUP2 LT ISZERO PUSH2 0x2CC7 JUMPI DUP2 MLOAD DUP8 MSTORE SWAP6 DUP3 ADD SWAP6 SWAP1 DUP3 ADD SWAP1 PUSH1 0x1 ADD PUSH2 0x324B JUMP JUMPDEST PUSH1 0x20 DUP2 MSTORE PUSH1 0x0 PUSH2 0x2018 PUSH1 0x20 DUP4 ADD DUP5 PUSH2 0x3237 JUMP JUMPDEST PUSH1 0x0 DUP1 PUSH1 0x40 DUP4 DUP6 SUB SLT ISZERO PUSH2 0x328D JUMPI PUSH1 0x0 DUP1 REVERT JUMPDEST POP POP DUP1 CALLDATALOAD SWAP3 PUSH1 0x20 SWAP1 SWAP2 ADD CALLDATALOAD SWAP2 POP JUMP JUMPDEST PUSH1 0x0 DUP1 PUSH1 0x0 DUP1 PUSH1 0x80 DUP6 DUP8 SUB SLT ISZERO PUSH2 0x32B2 JUMPI PUSH1 0x0 DUP1 REVERT JUMPDEST PUSH2 0x32BB DUP6 PUSH2 0x2D3B JUMP JUMPDEST SWAP4 POP PUSH1 0x20 DUP6 ADD CALLDATALOAD SWAP3 POP PUSH1 0x40 DUP6 ADD CALLDATALOAD SWAP2 POP PUSH1 0x60 DUP6 ADD CALLDATALOAD PUSH1 0x1 PUSH1 0x1 PUSH1 0x40 SHL SUB DUP2 GT ISZERO PUSH2 0x32E4 JUMPI PUSH1 0x0 DUP1 REVERT JUMPDEST PUSH2 0x3057 DUP8 DUP3 DUP9 ADD PUSH2 0x2FAB JUMP JUMPDEST PUSH1 0x20 DUP1 DUP3 MSTORE DUP3 MLOAD DUP3 DUP3 ADD DUP2 SWAP1 MSTORE PUSH1 0x0 SWAP2 SWAP1 DUP5 DUP3 ADD SWAP1 PUSH1 0x40 DUP6 ADD SWAP1 DUP5 JUMPDEST DUP2 DUP2 LT ISZERO PUSH2 0x3331 JUMPI DUP4 MLOAD PUSH1 0x1 PUSH1 0x1 PUSH1 0xA0 SHL SUB AND DUP4 MSTORE SWAP3 DUP5 ADD SWAP3 SWAP2 DUP5 ADD SWAP2 PUSH1 0x1 ADD PUSH2 0x330C JUMP JUMPDEST POP SWAP1 SWAP7 SWAP6 POP POP POP POP POP POP JUMP JUMPDEST DUP1 ISZERO ISZERO DUP2 EQ PUSH2 0x71C JUMPI PUSH1 0x0 DUP1 REVERT JUMPDEST PUSH1 0x0 DUP1 PUSH1 0x40 DUP4 DUP6 SUB SLT ISZERO PUSH2 0x335E JUMPI PUSH1 0x0 DUP1 REVERT JUMPDEST PUSH2 0x3367 DUP4 PUSH2 0x2D3B JUMP JUMPDEST SWAP2 POP PUSH1 0x20 DUP4 ADD CALLDATALOAD PUSH2 0x3377 DUP2 PUSH2 0x333D JUMP JUMPDEST DUP1 SWAP2 POP POP SWAP3 POP SWAP3 SWAP1 POP JUMP JUMPDEST PUSH1 0x0 DUP1 PUSH1 0x40 DUP4 DUP6 SUB SLT ISZERO PUSH2 0x3395 JUMPI PUSH1 0x0 DUP1 REVERT JUMPDEST PUSH2 0x339E DUP4 PUSH2 0x2D3B JUMP JUMPDEST SWAP2 POP PUSH2 0x3164 PUSH1 0x20 DUP5 ADD PUSH2 0x2D3B JUMP JUMPDEST PUSH1 0x0 DUP1 PUSH1 0x0 DUP1 PUSH1 0x0 PUSH1 0xA0 DUP7 DUP9 SUB SLT ISZERO PUSH2 0x33C4 JUMPI PUSH1 0x0 DUP1 REVERT JUMPDEST PUSH2 0x33CD DUP7 PUSH2 0x2D3B JUMP JUMPDEST SWAP5 POP PUSH2 0x33DB PUSH1 0x20 DUP8 ADD PUSH2 0x2D3B JUMP JUMPDEST SWAP4 POP PUSH1 0x40 DUP7 ADD CALLDATALOAD SWAP3 POP PUSH1 0x60 DUP7 ADD CALLDATALOAD SWAP2 POP PUSH1 0x80 DUP7 ADD CALLDATALOAD PUSH1 0x1 PUSH1 0x1 PUSH1 0x40 SHL SUB DUP2 GT ISZERO PUSH2 0x3404 JUMPI PUSH1 0x0 DUP1 REVERT JUMPDEST PUSH2 0x3134 DUP9 DUP3 DUP10 ADD PUSH2 0x2FAB JUMP JUMPDEST PUSH1 0x0 PUSH1 0x20 DUP3 DUP5 SUB SLT ISZERO PUSH2 0x3422 JUMPI PUSH1 0x0 DUP1 REVERT JUMPDEST PUSH2 0x2018 DUP3 PUSH2 0x2D3B JUMP JUMPDEST PUSH1 0x1 DUP2 DUP2 SHR SWAP1 DUP3 AND DUP1 PUSH2 0x343F JUMPI PUSH1 0x7F DUP3 AND SWAP2 POP JUMPDEST PUSH1 0x20 DUP3 LT DUP2 SUB PUSH2 0x2CE3 JUMPI PUSH4 0x4E487B71 PUSH1 0xE0 SHL PUSH1 0x0 MSTORE PUSH1 0x22 PUSH1 0x4 MSTORE PUSH1 0x24 PUSH1 0x0 REVERT JUMPDEST PUSH1 0x20 DUP1 DUP3 MSTORE PUSH1 0xA SWAP1 DUP3 ADD MSTORE PUSH10 0x4E6F7420616374697665 PUSH1 0xB0 SHL PUSH1 0x40 DUP3 ADD MSTORE PUSH1 0x60 ADD SWAP1 JUMP JUMPDEST PUSH4 0x4E487B71 PUSH1 0xE0 SHL PUSH1 0x0 MSTORE PUSH1 0x32 PUSH1 0x4 MSTORE PUSH1 0x24 PUSH1 0x0 REVERT JUMPDEST PUSH4 0x4E487B71 PUSH1 0xE0 SHL PUSH1 0x0 MSTORE PUSH1 0x11 PUSH1 0x4 MSTORE PUSH1 0x24 PUSH1 0x0 REVERT JUMPDEST DUP1 DUP3 ADD DUP1 DUP3 GT ISZERO PUSH2 0x6B5 JUMPI PUSH2 0x6B5 PUSH2 0x3499 JUMP JUMPDEST PUSH1 0x20 DUP1 DUP3 MSTORE PUSH1 0x2C SWAP1 DUP3 ADD MSTORE PUSH32 0x596F752063616E206F6E6C79206D696E7420323020696E207468652073616D65 PUSH1 0x40 DUP3 ADD MSTORE PUSH12 0x103A3930B739B0B1BA34B7B7 PUSH1 0xA1 SHL PUSH1 0x60 DUP3 ADD MSTORE PUSH1 0x80 ADD SWAP1 JUMP JUMPDEST DUP1 DUP3 MUL DUP2 ISZERO DUP3 DUP3 DIV DUP5 EQ OR PUSH2 0x6B5 JUMPI PUSH2 0x6B5 PUSH2 0x3499 JUMP JUMPDEST PUSH1 0x0 PUSH1 0x1 DUP3 ADD PUSH2 0x3537 JUMPI PUSH2 0x3537 PUSH2 0x3499 JUMP JUMPDEST POP PUSH1 0x1 ADD SWAP1 JUMP JUMPDEST PUSH4 0x4E487B71 PUSH1 0xE0 SHL PUSH1 0x0 MSTORE PUSH1 0x12 PUSH1 0x4 MSTORE PUSH1 0x24 PUSH1 0x0 REVERT JUMPDEST PUSH1 0x0 DUP3 PUSH2 0x3563 JUMPI PUSH2 0x3563 PUSH2 0x353E JUMP JUMPDEST POP DIV SWAP1 JUMP JUMPDEST PUSH1 0x0 DUP3 MLOAD PUSH2 0x357A DUP2 DUP5 PUSH1 0x20 DUP8 ADD PUSH2 0x2EB4 JUMP JUMPDEST SWAP2 SWAP1 SWAP2 ADD SWAP3 SWAP2 POP POP JUMP JUMPDEST PUSH1 0x20 DUP1 DUP3 MSTORE PUSH1 0x2E SWAP1 DUP3 ADD MSTORE PUSH32 0x455243313135353A2063616C6C6572206973206E6F7420746F6B656E206F776E PUSH1 0x40 DUP3 ADD MSTORE PUSH14 0x195C881BDC88185C1C1C9BDD9959 PUSH1 0x92 SHL PUSH1 0x60 DUP3 ADD MSTORE PUSH1 0x80 ADD SWAP1 JUMP JUMPDEST PUSH1 0x0 PUSH1 0x20 DUP3 DUP5 SUB SLT ISZERO PUSH2 0x35E4 JUMPI PUSH1 0x0 DUP1 REVERT JUMPDEST POP MLOAD SWAP2 SWAP1 POP JUMP JUMPDEST PUSH1 0x0 PUSH1 0x20 DUP3 DUP5 SUB SLT ISZERO PUSH2 0x35FD JUMPI PUSH1 0x0 DUP1 REVERT JUMPDEST DUP2 MLOAD PUSH2 0x2018 DUP2 PUSH2 0x333D JUMP JUMPDEST PUSH1 0x1F DUP3 GT ISZERO PUSH2 0x1BC9 JUMPI PUSH1 0x0 DUP2 DUP2 MSTORE PUSH1 0x20 DUP2 KECCAK256 PUSH1 0x1F DUP6 ADD PUSH1 0x5 SHR DUP2 ADD PUSH1 0x20 DUP7 LT ISZERO PUSH2 0x362F JUMPI POP DUP1 JUMPDEST PUSH1 0x1F DUP6 ADD PUSH1 0x5 SHR DUP3 ADD SWAP2 POP JUMPDEST DUP2 DUP2 LT ISZERO PUSH2 0x1ECA JUMPI DUP3 DUP2 SSTORE PUSH1 0x1 ADD PUSH2 0x363B JUMP JUMPDEST DUP2 MLOAD PUSH1 0x1 PUSH1 0x1 PUSH1 0x40 SHL SUB DUP2 GT ISZERO PUSH2 0x3667 JUMPI PUSH2 0x3667 PUSH2 0x2DB4 JUMP JUMPDEST PUSH2 0x367B DUP2 PUSH2 0x3675 DUP5 SLOAD PUSH2 0x342B JUMP JUMPDEST DUP5 PUSH2 0x3608 JUMP JUMPDEST PUSH1 0x20 DUP1 PUSH1 0x1F DUP4 GT PUSH1 0x1 DUP2 EQ PUSH2 0x36B0 JUMPI PUSH1 0x0 DUP5 ISZERO PUSH2 0x3698 JUMPI POP DUP6 DUP4 ADD MLOAD JUMPDEST PUSH1 0x0 NOT PUSH1 0x3 DUP7 SWAP1 SHL SHR NOT AND PUSH1 0x1 DUP6 SWAP1 SHL OR DUP6 SSTORE PUSH2 0x1ECA JUMP JUMPDEST PUSH1 0x0 DUP6 DUP2 MSTORE PUSH1 0x20 DUP2 KECCAK256 PUSH1 0x1F NOT DUP7 AND SWAP2 JUMPDEST DUP3 DUP2 LT ISZERO PUSH2 0x36DF JUMPI DUP9 DUP7 ADD MLOAD DUP3 SSTORE SWAP5 DUP5 ADD SWAP5 PUSH1 0x1 SWAP1 SWAP2 ADD SWAP1 DUP5 ADD PUSH2 0x36C0 JUMP JUMPDEST POP DUP6 DUP3 LT ISZERO PUSH2 0x36FD JUMPI DUP8 DUP6 ADD MLOAD PUSH1 0x0 NOT PUSH1 0x3 DUP9 SWAP1 SHL PUSH1 0xF8 AND SHR NOT AND DUP2 SSTORE JUMPDEST POP POP POP POP POP PUSH1 0x1 SWAP1 DUP2 SHL ADD SWAP1 SSTORE POP JUMP JUMPDEST DUP2 DUP2 SUB DUP2 DUP2 GT ISZERO PUSH2 0x6B5 JUMPI PUSH2 0x6B5 PUSH2 0x3499 JUMP JUMPDEST PUSH4 0x4E487B71 PUSH1 0xE0 SHL PUSH1 0x0 MSTORE PUSH1 0x31 PUSH1 0x4 MSTORE PUSH1 0x24 PUSH1 0x0 REVERT JUMPDEST PUSH1 0x20 DUP1 DUP3 MSTORE PUSH1 0x21 SWAP1 DUP3 ADD MSTORE PUSH32 0x455243313135353A206D696E7420746F20746865207A65726F20616464726573 PUSH1 0x40 DUP3 ADD MSTORE PUSH1 0x73 PUSH1 0xF8 SHL PUSH1 0x60 DUP3 ADD MSTORE PUSH1 0x80 ADD SWAP1 JUMP JUMPDEST PUSH1 0x20 DUP1 DUP3 MSTORE PUSH1 0x28 SWAP1 DUP3 ADD MSTORE PUSH32 0x455243313135353A2069647320616E6420616D6F756E7473206C656E67746820 PUSH1 0x40 DUP3 ADD MSTORE PUSH8 0xDAD2E6DAC2E8C6D PUSH1 0xC3 SHL PUSH1 0x60 DUP3 ADD MSTORE PUSH1 0x80 ADD SWAP1 JUMP JUMPDEST PUSH1 0x40 DUP2 MSTORE PUSH1 0x0 PUSH2 0x37D2 PUSH1 0x40 DUP4 ADD DUP6 PUSH2 0x3237 JUMP JUMPDEST DUP3 DUP2 SUB PUSH1 0x20 DUP5 ADD MSTORE PUSH2 0x1FD7 DUP2 DUP6 PUSH2 0x3237 JUMP JUMPDEST PUSH1 0x20 DUP1 DUP3 MSTORE PUSH1 0x25 SWAP1 DUP3 ADD MSTORE PUSH32 0x455243313135353A207472616E7366657220746F20746865207A65726F206164 PUSH1 0x40 DUP3 ADD MSTORE PUSH5 0x6472657373 PUSH1 0xD8 SHL PUSH1 0x60 DUP3 ADD MSTORE PUSH1 0x80 ADD SWAP1 JUMP JUMPDEST PUSH1 0x20 DUP1 DUP3 MSTORE PUSH1 0x2A SWAP1 DUP3 ADD MSTORE PUSH32 0x455243313135353A20696E73756666696369656E742062616C616E636520666F PUSH1 0x40 DUP3 ADD MSTORE PUSH10 0x39103A3930B739B332B9 PUSH1 0xB1 SHL PUSH1 0x60 DUP3 ADD MSTORE PUSH1 0x80 ADD SWAP1 JUMP JUMPDEST PUSH1 0x1 PUSH1 0x1 PUSH1 0xA0 SHL SUB DUP7 DUP2 AND DUP3 MSTORE DUP6 AND PUSH1 0x20 DUP3 ADD MSTORE PUSH1 0xA0 PUSH1 0x40 DUP3 ADD DUP2 SWAP1 MSTORE PUSH1 0x0 SWAP1 PUSH2 0x389F SWAP1 DUP4 ADD DUP7 PUSH2 0x3237 JUMP JUMPDEST DUP3 DUP2 SUB PUSH1 0x60 DUP5 ADD MSTORE PUSH2 0x38B1 DUP2 DUP7 PUSH2 0x3237 JUMP JUMPDEST SWAP1 POP DUP3 DUP2 SUB PUSH1 0x80 DUP5 ADD MSTORE PUSH2 0x38C5 DUP2 DUP6 PUSH2 0x2ED8 JUMP JUMPDEST SWAP9 SWAP8 POP POP POP POP POP POP POP POP JUMP JUMPDEST PUSH1 0x0 PUSH1 0x20 DUP3 DUP5 SUB SLT ISZERO PUSH2 0x38E3 JUMPI PUSH1 0x0 DUP1 REVERT JUMPDEST DUP2 MLOAD PUSH2 0x2018 DUP2 PUSH2 0x2D81 JUMP JUMPDEST PUSH1 0x0 PUSH1 0x3 RETURNDATASIZE GT ISZERO PUSH2 0x3907 JUMPI PUSH1 0x4 PUSH1 0x0 DUP1 RETURNDATACOPY POP PUSH1 0x0 MLOAD PUSH1 0xE0 SHR JUMPDEST SWAP1 JUMP JUMPDEST PUSH1 0x0 PUSH1 0x44 RETURNDATASIZE LT ISZERO PUSH2 0x3918 JUMPI SWAP1 JUMP JUMPDEST PUSH1 0x40 MLOAD PUSH1 0x3 NOT RETURNDATASIZE DUP2 ADD PUSH1 0x4 DUP4 RETURNDATACOPY DUP2 MLOAD RETURNDATASIZE PUSH1 0x1 PUSH1 0x1 PUSH1 0x40 SHL SUB DUP2 PUSH1 0x24 DUP5 ADD GT DUP2 DUP5 GT OR ISZERO PUSH2 0x3947 JUMPI POP POP POP POP POP SWAP1 JUMP JUMPDEST DUP3 DUP6 ADD SWAP2 POP DUP2 MLOAD DUP2 DUP2 GT ISZERO PUSH2 0x395F JUMPI POP POP POP POP POP POP SWAP1 JUMP JUMPDEST DUP5 RETURNDATASIZE DUP8 ADD ADD PUSH1 0x20 DUP3 DUP6 ADD ADD GT ISZERO PUSH2 0x3979 JUMPI POP POP POP POP POP POP SWAP1 JUMP JUMPDEST PUSH2 0x3988 PUSH1 0x20 DUP3 DUP7 ADD ADD DUP8 PUSH2 0x2DCA JUMP JUMPDEST POP SWAP1 SWAP6 SWAP5 POP POP POP POP POP JUMP JUMPDEST PUSH1 0x20 DUP1 DUP3 MSTORE PUSH1 0x28 SWAP1 DUP3 ADD MSTORE PUSH32 0x455243313135353A204552433131353552656365697665722072656A65637465 PUSH1 0x40 DUP3 ADD MSTORE PUSH8 0x6420746F6B656E73 PUSH1 0xC0 SHL PUSH1 0x60 DUP3 ADD MSTORE PUSH1 0x80 ADD SWAP1 JUMP JUMPDEST PUSH1 0x1 PUSH1 0x1 PUSH1 0xA0 SHL SUB DUP7 DUP2 AND DUP3 MSTORE DUP6 AND PUSH1 0x20 DUP3 ADD MSTORE PUSH1 0x40 DUP2 ADD DUP5 SWAP1 MSTORE PUSH1 0x60 DUP2 ADD DUP4 SWAP1 MSTORE PUSH1 0xA0 PUSH1 0x80 DUP3 ADD DUP2 SWAP1 MSTORE PUSH1 0x0 SWAP1 PUSH2 0x3A15 SWAP1 DUP4 ADD DUP5 PUSH2 0x2ED8 JUMP JUMPDEST SWAP8 SWAP7 POP POP POP POP POP POP POP JUMP JUMPDEST PUSH1 0x1 PUSH1 0x1 PUSH1 0xA0 SHL SUB DUP10 DUP2 AND DUP3 MSTORE PUSH1 0x20 DUP3 ADD DUP10 SWAP1 MSTORE PUSH1 0x40 DUP3 ADD DUP9 SWAP1 MSTORE DUP7 AND PUSH1 0x60 DUP3 ADD MSTORE PUSH1 0x1 PUSH1 0x1 PUSH1 0xE0 SHL SUB NOT DUP6 AND PUSH1 0x80 DUP3 ADD MSTORE PUSH1 0xA0 DUP2 ADD DUP5 SWAP1 MSTORE PUSH1 0xC0 DUP2 ADD DUP4 SWAP1 MSTORE PUSH2 0x100 PUSH1 0xE0 DUP3 ADD DUP2 SWAP1 MSTORE PUSH1 0x0 SWAP1 PUSH2 0x3A79 DUP4 DUP3 ADD DUP6 PUSH2 0x2ED8 JUMP JUMPDEST SWAP12 SWAP11 POP POP POP POP POP POP POP POP POP POP POP JUMP JUMPDEST PUSH1 0x0 DUP3 PUSH2 0x3A97 JUMPI PUSH2 0x3A97 PUSH2 0x353E JUMP JUMPDEST POP MOD SWAP1 JUMP JUMPDEST PUSH1 0x1 DUP1 PUSH1 0xA0 SHL SUB DUP5 AND DUP2 MSTORE DUP3 PUSH1 0x20 DUP3 ADD MSTORE PUSH1 0x60 PUSH1 0x40 DUP3 ADD MSTORE PUSH1 0x0 PUSH2 0x1FD7 PUSH1 0x60 DUP4 ADD DUP5 PUSH2 0x2ED8 JUMP JUMPDEST PUSH1 0x1 DUP2 DUP2 JUMPDEST DUP1 DUP6 GT ISZERO PUSH2 0x3AFE JUMPI DUP2 PUSH1 0x0 NOT DIV DUP3 GT ISZERO PUSH2 0x3AE4 JUMPI PUSH2 0x3AE4 PUSH2 0x3499 JUMP JUMPDEST DUP1 DUP6 AND ISZERO PUSH2 0x3AF1 JUMPI SWAP2 DUP2 MUL SWAP2 JUMPDEST SWAP4 DUP5 SHR SWAP4 SWAP1 DUP1 MUL SWAP1 PUSH2 0x3AC8 JUMP JUMPDEST POP SWAP3 POP SWAP3 SWAP1 POP JUMP JUMPDEST PUSH1 0x0 DUP3 PUSH2 0x3B15 JUMPI POP PUSH1 0x1 PUSH2 0x6B5 JUMP JUMPDEST DUP2 PUSH2 0x3B22 JUMPI POP PUSH1 0x0 PUSH2 0x6B5 JUMP JUMPDEST DUP2 PUSH1 0x1 DUP2 EQ PUSH2 0x3B38 JUMPI PUSH1 0x2 DUP2 EQ PUSH2 0x3B42 JUMPI PUSH2 0x3B5E JUMP JUMPDEST PUSH1 0x1 SWAP2 POP POP PUSH2 0x6B5 JUMP JUMPDEST PUSH1 0xFF DUP5 GT ISZERO PUSH2 0x3B53 JUMPI PUSH2 0x3B53 PUSH2 0x3499 JUMP JUMPDEST POP POP PUSH1 0x1 DUP3 SHL PUSH2 0x6B5 JUMP JUMPDEST POP PUSH1 0x20 DUP4 LT PUSH2 0x133 DUP4 LT AND PUSH1 0x4E DUP5 LT PUSH1 0xB DUP5 LT AND OR ISZERO PUSH2 0x3B81 JUMPI POP DUP2 DUP2 EXP PUSH2 0x6B5 JUMP JUMPDEST PUSH2 0x3B8B DUP4 DUP4 PUSH2 0x3AC3 JUMP JUMPDEST DUP1 PUSH1 0x0 NOT DIV DUP3 GT ISZERO PUSH2 0x3B9F JUMPI PUSH2 0x3B9F PUSH2 0x3499 JUMP JUMPDEST MUL SWAP4 SWAP3 POP POP POP JUMP JUMPDEST PUSH1 0x0 PUSH2 0x2018 DUP4 DUP4 PUSH2 0x3B06 JUMP INVALID LOG2 PUSH5 0x6970667358 0x22 SLT KECCAK256 0x21 0xAF PUSH16 0x327691194F7676D2BB6DAEB310478D19 DUP7 CALLVALUE SLOAD AND PUSH11 0xBDCB3114C5728C164736F PUSH13 0x63430008130033687474703A2F 0x2F PUSH2 0x7069 0x2E PUSH7 0x6F6F7462616C6C 0x2D PUSH5 0x6174612E6F PUSH19 0x672F76342F636F6D7065746974696F6E732F68 PUSH21 0x7470733A2F2F697066732E696F2F697066732F516D SSTORE 0x4E 0x4C 0x4C PUSH20 0x504143437A31764C7851566B5871714C58355231 PC CALLER CALLVALUE CALLDATALOAD PUSH18 0x7166486273663637687641334E6E00000000 "
		},
		"gasEstimates": {
			"creation": {
				"codeDepositCost": "3067400",
				"executionCost": "infinite",
				"totalCost": "infinite"
			},
			"external": {
				"acceptOwnership()": "52354",
				"balanceOf(address,uint256)": "2723",
				"balanceOfBatch(address[],uint256[])": "infinite",
				"buyToken(uint256,uint256,address)": "infinite",
				"destroy()": "infinite",
				"exists(uint256)": "2495",
				"fulfillParameters(bytes32,uint256)": "51497",
				"getOwnersList(uint256)": "infinite",
				"isActive()": "2373",
				"isApprovedForAll(address,address)": "infinite",
				"league()": "infinite",
				"mint(address,uint256,uint256,bytes)": "infinite",
				"mintBatch(address,uint256[],uint256[],bytes)": "infinite",
				"mintPrice(uint256)": "2538",
				"owner()": "2443",
				"payWinner()": "infinite",
				"requestWinner()": "infinite",
				"safeBatchTransferFrom(address,address,uint256[],uint256[],bytes)": "infinite",
				"safeTransferFrom(address,address,uint256,uint256,bytes)": "infinite",
				"setApprovalForAll(address,bool)": "26779",
				"setTokenPrice(uint256,uint256)": "24909",
				"setURI(string)": "infinite",
				"setWinner(uint256)": "22358",
				"supportsInterface(bytes4)": "623",
				"tokenOwners(uint256,uint256)": "4772",
				"totalSupply(uint256)": "2516",
				"transferOwnership(address)": "30546",
				"transferPrice(uint256,address)": "2696",
				"uri(uint256)": "infinite",
				"winner()": "2373",
				"winner2()": "2353",
				"winner3()": "2416",
				"withdrawLink()": "infinite"
			},
			"internal": {
				"_beforeTokenTransfer(address,address,address,uint256[] memory,uint256[] memory,bytes memory)": "infinite",
				"_safeTransferFrom(address,address,uint256,uint256,bytes memory)": "infinite",
				"updateOwnersList(uint256,address)": "infinite"
			}
		},
		"methodIdentifiers": {
			"acceptOwnership()": "79ba5097",
			"balanceOf(address,uint256)": "00fdd58e",
			"balanceOfBatch(address[],uint256[])": "4e1273f4",
			"buyToken(uint256,uint256,address)": "21466eb5",
			"destroy()": "83197ef0",
			"exists(uint256)": "4f558e79",
			"fulfillParameters(bytes32,uint256)": "c3bf0680",
			"getOwnersList(uint256)": "8bcbba71",
			"isActive()": "22f3e2d4",
			"isApprovedForAll(address,address)": "e985e9c5",
			"league()": "d9b29297",
			"mint(address,uint256,uint256,bytes)": "731133e9",
			"mintBatch(address,uint256[],uint256[],bytes)": "1f7fdffa",
			"mintPrice(uint256)": "e6a72acf",
			"owner()": "8da5cb5b",
			"payWinner()": "be71248a",
			"requestWinner()": "78a7d3af",
			"safeBatchTransferFrom(address,address,uint256[],uint256[],bytes)": "2eb2c2d6",
			"safeTransferFrom(address,address,uint256,uint256,bytes)": "f242432a",
			"setApprovalForAll(address,bool)": "a22cb465",
			"setTokenPrice(uint256,uint256)": "eb685c47",
			"setURI(string)": "02fe5305",
			"setWinner(uint256)": "0df71602",
			"supportsInterface(bytes4)": "01ffc9a7",
			"tokenOwners(uint256,uint256)": "543e062c",
			"totalSupply(uint256)": "bd85b039",
			"transferOwnership(address)": "f2fde38b",
			"transferPrice(uint256,address)": "392ffaec",
			"uri(uint256)": "0e89341c",
			"winner()": "dfbf53ae",
			"winner2()": "01a3694e",
			"winner3()": "f81b5c5b",
			"withdrawLink()": "8dc654a2"
		}
	},
	"abi": [
		{
			"inputs": [
				{
					"internalType": "string",
					"name": "_league",
					"type": "string"
				}
			],
			"stateMutability": "payable",
			"type": "constructor"
		},
		{
			"anonymous": false,
			"inputs": [
				{
					"indexed": true,
					"internalType": "address",
					"name": "account",
					"type": "address"
				},
				{
					"indexed": true,
					"internalType": "address",
					"name": "operator",
					"type": "address"
				},
				{
					"indexed": false,
					"internalType": "bool",
					"name": "approved",
					"type": "bool"
				}
			],
			"name": "ApprovalForAll",
			"type": "event"
		},
		{
			"anonymous": false,
			"inputs": [
				{
					"indexed": true,
					"internalType": "bytes32",
					"name": "id",
					"type": "bytes32"
				}
			],
			"name": "ChainlinkCancelled",
			"type": "event"
		},
		{
			"anonymous": false,
			"inputs": [
				{
					"indexed": true,
					"internalType": "bytes32",
					"name": "id",
					"type": "bytes32"
				}
			],
			"name": "ChainlinkFulfilled",
			"type": "event"
		},
		{
			"anonymous": false,
			"inputs": [
				{
					"indexed": true,
					"internalType": "bytes32",
					"name": "id",
					"type": "bytes32"
				}
			],
			"name": "ChainlinkRequested",
			"type": "event"
		},
		{
			"anonymous": false,
			"inputs": [
				{
					"indexed": true,
					"internalType": "address",
					"name": "from",
					"type": "address"
				},
				{
					"indexed": true,
					"internalType": "address",
					"name": "to",
					"type": "address"
				}
			],
			"name": "OwnershipTransferRequested",
			"type": "event"
		},
		{
			"anonymous": false,
			"inputs": [
				{
					"indexed": true,
					"internalType": "address",
					"name": "from",
					"type": "address"
				},
				{
					"indexed": true,
					"internalType": "address",
					"name": "to",
					"type": "address"
				}
			],
			"name": "OwnershipTransferred",
			"type": "event"
		},
		{
			"anonymous": false,
			"inputs": [
				{
					"indexed": true,
					"internalType": "bytes32",
					"name": "requestId",
					"type": "bytes32"
				},
				{
					"indexed": false,
					"internalType": "uint256",
					"name": "winner",
					"type": "uint256"
				}
			],
			"name": "RequestWinner",
			"type": "event"
		},
		{
			"anonymous": false,
			"inputs": [
				{
					"indexed": true,
					"internalType": "address",
					"name": "operator",
					"type": "address"
				},
				{
					"indexed": true,
					"internalType": "address",
					"name": "from",
					"type": "address"
				},
				{
					"indexed": true,
					"internalType": "address",
					"name": "to",
					"type": "address"
				},
				{
					"indexed": false,
					"internalType": "uint256[]",
					"name": "ids",
					"type": "uint256[]"
				},
				{
					"indexed": false,
					"internalType": "uint256[]",
					"name": "values",
					"type": "uint256[]"
				}
			],
			"name": "TransferBatch",
			"type": "event"
		},
		{
			"anonymous": false,
			"inputs": [
				{
					"indexed": true,
					"internalType": "address",
					"name": "operator",
					"type": "address"
				},
				{
					"indexed": true,
					"internalType": "address",
					"name": "from",
					"type": "address"
				},
				{
					"indexed": true,
					"internalType": "address",
					"name": "to",
					"type": "address"
				},
				{
					"indexed": false,
					"internalType": "uint256",
					"name": "id",
					"type": "uint256"
				},
				{
					"indexed": false,
					"internalType": "uint256",
					"name": "value",
					"type": "uint256"
				}
			],
			"name": "TransferSingle",
			"type": "event"
		},
		{
			"anonymous": false,
			"inputs": [
				{
					"indexed": false,
					"internalType": "string",
					"name": "value",
					"type": "string"
				},
				{
					"indexed": true,
					"internalType": "uint256",
					"name": "id",
					"type": "uint256"
				}
			],
			"name": "URI",
			"type": "event"
		},
		{
			"inputs": [],
			"name": "acceptOwnership",
			"outputs": [],
			"stateMutability": "nonpayable",
			"type": "function"
		},
		{
			"inputs": [
				{
					"internalType": "address",
					"name": "account",
					"type": "address"
				},
				{
					"internalType": "uint256",
					"name": "id",
					"type": "uint256"
				}
			],
			"name": "balanceOf",
			"outputs": [
				{
					"internalType": "uint256",
					"name": "",
					"type": "uint256"
				}
			],
			"stateMutability": "view",
			"type": "function"
		},
		{
			"inputs": [
				{
					"internalType": "address[]",
					"name": "accounts",
					"type": "address[]"
				},
				{
					"internalType": "uint256[]",
					"name": "ids",
					"type": "uint256[]"
				}
			],
			"name": "balanceOfBatch",
			"outputs": [
				{
					"internalType": "uint256[]",
					"name": "",
					"type": "uint256[]"
				}
			],
			"stateMutability": "view",
			"type": "function"
		},
		{
			"inputs": [
				{
					"internalType": "uint256",
					"name": "id",
					"type": "uint256"
				},
				{
					"internalType": "uint256",
					"name": "amount",
					"type": "uint256"
				},
				{
					"internalType": "address",
					"name": "nftOwner",
					"type": "address"
				}
			],
			"name": "buyToken",
			"outputs": [],
			"stateMutability": "payable",
			"type": "function"
		},
		{
			"inputs": [],
			"name": "destroy",
			"outputs": [],
			"stateMutability": "nonpayable",
			"type": "function"
		},
		{
			"inputs": [
				{
					"internalType": "uint256",
					"name": "id",
					"type": "uint256"
				}
			],
			"name": "exists",
			"outputs": [
				{
					"internalType": "bool",
					"name": "",
					"type": "bool"
				}
			],
			"stateMutability": "view",
			"type": "function"
		},
		{
			"inputs": [
				{
					"internalType": "bytes32",
					"name": "_requestId",
					"type": "bytes32"
				},
				{
					"internalType": "uint256",
					"name": "_winner",
					"type": "uint256"
				}
			],
			"name": "fulfillParameters",
			"outputs": [],
			"stateMutability": "nonpayable",
			"type": "function"
		},
		{
			"inputs": [
				{
					"internalType": "uint256",
					"name": "id",
					"type": "uint256"
				}
			],
			"name": "getOwnersList",
			"outputs": [
				{
					"internalType": "address[]",
					"name": "",
					"type": "address[]"
				}
			],
			"stateMutability": "view",
			"type": "function"
		},
		{
			"inputs": [],
			"name": "isActive",
			"outputs": [
				{
					"internalType": "bool",
					"name": "",
					"type": "bool"
				}
			],
			"stateMutability": "view",
			"type": "function"
		},
		{
			"inputs": [
				{
					"internalType": "address",
					"name": "account",
					"type": "address"
				},
				{
					"internalType": "address",
					"name": "operator",
					"type": "address"
				}
			],
			"name": "isApprovedForAll",
			"outputs": [
				{
					"internalType": "bool",
					"name": "",
					"type": "bool"
				}
			],
			"stateMutability": "view",
			"type": "function"
		},
		{
			"inputs": [],
			"name": "league",
			"outputs": [
				{
					"internalType": "string",
					"name": "",
					"type": "string"
				}
			],
			"stateMutability": "view",
			"type": "function"
		},
		{
			"inputs": [
				{
					"internalType": "address",
					"name": "account",
					"type": "address"
				},
				{
					"internalType": "uint256",
					"name": "id",
					"type": "uint256"
				},
				{
					"internalType": "uint256",
					"name": "amount",
					"type": "uint256"
				},
				{
					"internalType": "bytes",
					"name": "data",
					"type": "bytes"
				}
			],
			"name": "mint",
			"outputs": [],
			"stateMutability": "payable",
			"type": "function"
		},
		{
			"inputs": [
				{
					"internalType": "address",
					"name": "to",
					"type": "address"
				},
				{
					"internalType": "uint256[]",
					"name": "ids",
					"type": "uint256[]"
				},
				{
					"internalType": "uint256[]",
					"name": "amounts",
					"type": "uint256[]"
				},
				{
					"internalType": "bytes",
					"name": "data",
					"type": "bytes"
				}
			],
			"name": "mintBatch",
			"outputs": [],
			"stateMutability": "payable",
			"type": "function"
		},
		{
			"inputs": [
				{
					"internalType": "uint256",
					"name": "",
					"type": "uint256"
				}
			],
			"name": "mintPrice",
			"outputs": [
				{
					"internalType": "uint256",
					"name": "",
					"type": "uint256"
				}
			],
			"stateMutability": "view",
			"type": "function"
		},
		{
			"inputs": [],
			"name": "owner",
			"outputs": [
				{
					"internalType": "address",
					"name": "",
					"type": "address"
				}
			],
			"stateMutability": "view",
			"type": "function"
		},
		{
			"inputs": [],
			"name": "payWinner",
			"outputs": [],
			"stateMutability": "payable",
			"type": "function"
		},
		{
			"inputs": [],
			"name": "requestWinner",
			"outputs": [
				{
					"internalType": "bytes32",
					"name": "requestId",
					"type": "bytes32"
				}
			],
			"stateMutability": "nonpayable",
			"type": "function"
		},
		{
			"inputs": [
				{
					"internalType": "address",
					"name": "from",
					"type": "address"
				},
				{
					"internalType": "address",
					"name": "to",
					"type": "address"
				},
				{
					"internalType": "uint256[]",
					"name": "ids",
					"type": "uint256[]"
				},
				{
					"internalType": "uint256[]",
					"name": "amounts",
					"type": "uint256[]"
				},
				{
					"internalType": "bytes",
					"name": "data",
					"type": "bytes"
				}
			],
			"name": "safeBatchTransferFrom",
			"outputs": [],
			"stateMutability": "nonpayable",
			"type": "function"
		},
		{
			"inputs": [
				{
					"internalType": "address",
					"name": "from",
					"type": "address"
				},
				{
					"internalType": "address",
					"name": "to",
					"type": "address"
				},
				{
					"internalType": "uint256",
					"name": "id",
					"type": "uint256"
				},
				{
					"internalType": "uint256",
					"name": "amount",
					"type": "uint256"
				},
				{
					"internalType": "bytes",
					"name": "data",
					"type": "bytes"
				}
			],
			"name": "safeTransferFrom",
			"outputs": [],
			"stateMutability": "nonpayable",
			"type": "function"
		},
		{
			"inputs": [
				{
					"internalType": "address",
					"name": "operator",
					"type": "address"
				},
				{
					"internalType": "bool",
					"name": "approved",
					"type": "bool"
				}
			],
			"name": "setApprovalForAll",
			"outputs": [],
			"stateMutability": "nonpayable",
			"type": "function"
		},
		{
			"inputs": [
				{
					"internalType": "uint256",
					"name": "id",
					"type": "uint256"
				},
				{
					"internalType": "uint256",
					"name": "price",
					"type": "uint256"
				}
			],
			"name": "setTokenPrice",
			"outputs": [],
			"stateMutability": "nonpayable",
			"type": "function"
		},
		{
			"inputs": [
				{
					"internalType": "string",
					"name": "newuri",
					"type": "string"
				}
			],
			"name": "setURI",
			"outputs": [],
			"stateMutability": "nonpayable",
			"type": "function"
		},
		{
			"inputs": [
				{
					"internalType": "uint256",
					"name": "id",
					"type": "uint256"
				}
			],
			"name": "setWinner",
			"outputs": [],
			"stateMutability": "nonpayable",
			"type": "function"
		},
		{
			"inputs": [
				{
					"internalType": "bytes4",
					"name": "interfaceId",
					"type": "bytes4"
				}
			],
			"name": "supportsInterface",
			"outputs": [
				{
					"internalType": "bool",
					"name": "",
					"type": "bool"
				}
			],
			"stateMutability": "view",
			"type": "function"
		},
		{
			"inputs": [
				{
					"internalType": "uint256",
					"name": "",
					"type": "uint256"
				},
				{
					"internalType": "uint256",
					"name": "",
					"type": "uint256"
				}
			],
			"name": "tokenOwners",
			"outputs": [
				{
					"internalType": "address",
					"name": "",
					"type": "address"
				}
			],
			"stateMutability": "view",
			"type": "function"
		},
		{
			"inputs": [
				{
					"internalType": "uint256",
					"name": "id",
					"type": "uint256"
				}
			],
			"name": "totalSupply",
			"outputs": [
				{
					"internalType": "uint256",
					"name": "",
					"type": "uint256"
				}
			],
			"stateMutability": "view",
			"type": "function"
		},
		{
			"inputs": [
				{
					"internalType": "address",
					"name": "to",
					"type": "address"
				}
			],
			"name": "transferOwnership",
			"outputs": [],
			"stateMutability": "nonpayable",
			"type": "function"
		},
		{
			"inputs": [
				{
					"internalType": "uint256",
					"name": "",
					"type": "uint256"
				},
				{
					"internalType": "address",
					"name": "",
					"type": "address"
				}
			],
			"name": "transferPrice",
			"outputs": [
				{
					"internalType": "uint256",
					"name": "",
					"type": "uint256"
				}
			],
			"stateMutability": "view",
			"type": "function"
		},
		{
			"inputs": [
				{
					"internalType": "uint256",
					"name": "",
					"type": "uint256"
				}
			],
			"name": "uri",
			"outputs": [
				{
					"internalType": "string",
					"name": "",
					"type": "string"
				}
			],
			"stateMutability": "view",
			"type": "function"
		},
		{
			"inputs": [],
			"name": "winner",
			"outputs": [
				{
					"internalType": "uint256",
					"name": "",
					"type": "uint256"
				}
			],
			"stateMutability": "view",
			"type": "function"
		},
		{
			"inputs": [],
			"name": "winner2",
			"outputs": [
				{
					"internalType": "uint256",
					"name": "",
					"type": "uint256"
				}
			],
			"stateMutability": "view",
			"type": "function"
		},
		{
			"inputs": [],
			"name": "winner3",
			"outputs": [
				{
					"internalType": "uint256",
					"name": "",
					"type": "uint256"
				}
			],
			"stateMutability": "view",
			"type": "function"
		},
		{
			"inputs": [],
			"name": "withdrawLink",
			"outputs": [],
			"stateMutability": "nonpayable",
			"type": "function"
		}
	]
}