{
	".deps/npm/@redstone-finance/evm-connector/contracts/data-services/CustomUrlsConsumerBase.sol": {
		"CustomUrlsConsumerBase": {
			"abi": [
				{
					"inputs": [],
					"name": "CalldataMustHaveValidPayload",
					"type": "error"
				},
				{
					"inputs": [],
					"name": "CalldataOverOrUnderFlow",
					"type": "error"
				},
				{
					"inputs": [],
					"name": "CanNotPickMedianOfEmptyArray",
					"type": "error"
				},
				{
					"inputs": [],
					"name": "EachSignerMustProvideTheSameValue",
					"type": "error"
				},
				{
					"inputs": [],
					"name": "EmptyCalldataPointersArr",
					"type": "error"
				},
				{
					"inputs": [],
					"name": "IncorrectUnsignedMetadataSize",
					"type": "error"
				},
				{
					"inputs": [
						{
							"internalType": "uint256",
							"name": "receivedSignersCount",
							"type": "uint256"
						},
						{
							"internalType": "uint256",
							"name": "requiredSignersCount",
							"type": "uint256"
						}
					],
					"name": "InsufficientNumberOfUniqueSigners",
					"type": "error"
				},
				{
					"inputs": [],
					"name": "InvalidCalldataPointer",
					"type": "error"
				},
				{
					"inputs": [
						{
							"internalType": "address",
							"name": "receivedSigner",
							"type": "address"
						}
					],
					"name": "SignerNotAuthorised",
					"type": "error"
				},
				{
					"inputs": [
						{
							"internalType": "uint256",
							"name": "receivedTimestampSeconds",
							"type": "uint256"
						},
						{
							"internalType": "uint256",
							"name": "blockTimestamp",
							"type": "uint256"
						}
					],
					"name": "TimestampFromTooLongFuture",
					"type": "error"
				},
				{
					"inputs": [
						{
							"internalType": "uint256",
							"name": "receivedTimestampSeconds",
							"type": "uint256"
						},
						{
							"internalType": "uint256",
							"name": "blockTimestamp",
							"type": "uint256"
						}
					],
					"name": "TimestampIsTooOld",
					"type": "error"
				},
				{
					"inputs": [
						{
							"internalType": "uint256[]",
							"name": "values",
							"type": "uint256[]"
						}
					],
					"name": "aggregateValues",
					"outputs": [
						{
							"internalType": "uint256",
							"name": "",
							"type": "uint256"
						}
					],
					"stateMutability": "view",
					"type": "function"
				},
				{
					"inputs": [
						{
							"internalType": "address",
							"name": "signerAddress",
							"type": "address"
						}
					],
					"name": "getAuthorisedSignerIndex",
					"outputs": [
						{
							"internalType": "uint8",
							"name": "",
							"type": "uint8"
						}
					],
					"stateMutability": "view",
					"type": "function"
				},
				{
					"inputs": [],
					"name": "getUniqueSignersThreshold",
					"outputs": [
						{
							"internalType": "uint8",
							"name": "",
							"type": "uint8"
						}
					],
					"stateMutability": "view",
					"type": "function"
				},
				{
					"inputs": [
						{
							"internalType": "uint256",
							"name": "receivedTimestampMilliseconds",
							"type": "uint256"
						}
					],
					"name": "validateTimestamp",
					"outputs": [],
					"stateMutability": "view",
					"type": "function"
				}
			],
			"devdoc": {
				"kind": "dev",
				"methods": {
					"aggregateValues(uint256[])": {
						"details": "This function may be overridden by the child consumer contract. It should aggregate values from different signers to a single uint value. By default, it calculates the median value",
						"params": {
							"values": "An array of uint256 values from different signers"
						},
						"returns": {
							"_0": "Result of the aggregation in the form of a single number"
						}
					},
					"getUniqueSignersThreshold()": {
						"details": "This function should be overridden by the child consumer contract.",
						"returns": {
							"_0": "The minimum required value of unique authorised signers"
						}
					},
					"validateTimestamp(uint256)": {
						"details": "This function may be overridden by the child consumer contract. It should validate the timestamp against the current time (block.timestamp) It should revert with a helpful message if the timestamp is not valid",
						"params": {
							"receivedTimestampMilliseconds": "Timestamp extracted from calldata"
						}
					}
				},
				"version": 1
			},
			"evm": {
				"assembly": "    /* \".deps/npm/@redstone-finance/evm-connector/contracts/data-services/CustomUrlsConsumerBase.sol\":114:666  contract CustomUrlsConsumerBase is RedstoneConsumerNumericBase {... */\n  mstore(0x40, 0x80)\n  callvalue\n  dup1\n  iszero\n  tag_1\n  jumpi\n  0x00\n  dup1\n  revert\ntag_1:\n  pop\n  dataSize(sub_0)\n  dup1\n  dataOffset(sub_0)\n  0x00\n  codecopy\n  0x00\n  return\nstop\n\nsub_0: assembly {\n        /* \".deps/npm/@redstone-finance/evm-connector/contracts/data-services/CustomUrlsConsumerBase.sol\":114:666  contract CustomUrlsConsumerBase is RedstoneConsumerNumericBase {... */\n      mstore(0x40, 0x80)\n      callvalue\n      dup1\n      iszero\n      tag_1\n      jumpi\n      0x00\n      dup1\n      revert\n    tag_1:\n      pop\n      jumpi(tag_2, lt(calldatasize, 0x04))\n      shr(0xe0, calldataload(0x00))\n      dup1\n      0x3ce142f5\n      eq\n      tag_3\n      jumpi\n      dup1\n      0xb24ebfcc\n      eq\n      tag_4\n      jumpi\n      dup1\n      0xf50b2efe\n      eq\n      tag_5\n      jumpi\n      dup1\n      0xf90c4924\n      eq\n      tag_6\n      jumpi\n    tag_2:\n      0x00\n      dup1\n      revert\n        /* \".deps/npm/@redstone-finance/evm-connector/contracts/data-services/CustomUrlsConsumerBase.sol\":286:664  function getAuthorisedSignerIndex(address signerAddress)... */\n    tag_3:\n      tag_7\n      0x04\n      dup1\n      calldatasize\n      sub\n      dup2\n      add\n      swap1\n      tag_8\n      swap2\n      swap1\n      tag_9\n      jump\t// in\n    tag_8:\n      tag_10\n      jump\t// in\n    tag_7:\n      mload(0x40)\n      tag_11\n      swap2\n      swap1\n      tag_12\n      jump\t// in\n    tag_11:\n      mload(0x40)\n      dup1\n      swap2\n      sub\n      swap1\n      return\n        /* \".deps/npm/@redstone-finance/evm-connector/contracts/core/RedstoneConsumerBase.sol\":2280:2429  function aggregateValues(uint256[] memory values) public view virtual returns (uint256) {... */\n    tag_4:\n      tag_13\n      0x04\n      dup1\n      calldatasize\n      sub\n      dup2\n      add\n      swap1\n      tag_14\n      swap2\n      swap1\n      tag_15\n      jump\t// in\n    tag_14:\n      tag_16\n      jump\t// in\n    tag_13:\n      mload(0x40)\n      tag_17\n      swap2\n      swap1\n      tag_18\n      jump\t// in\n    tag_17:\n      mload(0x40)\n      dup1\n      swap2\n      sub\n      swap1\n      return\n        /* \".deps/npm/@redstone-finance/evm-connector/contracts/core/RedstoneConsumerBase.sol\":1505:1670  function validateTimestamp(uint256 receivedTimestampMilliseconds) public view virtual {... */\n    tag_5:\n      tag_19\n      0x04\n      dup1\n      calldatasize\n      sub\n      dup2\n      add\n      swap1\n      tag_20\n      swap2\n      swap1\n      tag_21\n      jump\t// in\n    tag_20:\n      tag_22\n      jump\t// in\n    tag_19:\n      stop\n        /* \".deps/npm/@redstone-finance/evm-connector/contracts/data-services/CustomUrlsConsumerBase.sol\":181:282  function getUniqueSignersThreshold() public view virtual override returns (uint8) {... */\n    tag_6:\n      tag_23\n      tag_24\n      jump\t// in\n    tag_23:\n      mload(0x40)\n      tag_25\n      swap2\n      swap1\n      tag_12\n      jump\t// in\n    tag_25:\n      mload(0x40)\n      dup1\n      swap2\n      sub\n      swap1\n      return\n        /* \".deps/npm/@redstone-finance/evm-connector/contracts/data-services/CustomUrlsConsumerBase.sol\":286:664  function getAuthorisedSignerIndex(address signerAddress)... */\n    tag_10:\n        /* \".deps/npm/@redstone-finance/evm-connector/contracts/data-services/CustomUrlsConsumerBase.sol\":401:406  uint8 */\n      0x00\n        /* \".deps/npm/@redstone-finance/evm-connector/contracts/data-services/CustomUrlsConsumerBase.sol\":437:479  0x11fFFc9970c41B9bFB9Aa35Be838d39bce918CfF */\n      0x11fffc9970c41b9bfb9aa35be838d39bce918cff\n        /* \".deps/npm/@redstone-finance/evm-connector/contracts/data-services/CustomUrlsConsumerBase.sol\":420:479  signerAddress == 0x11fFFc9970c41B9bFB9Aa35Be838d39bce918CfF */\n      0xffffffffffffffffffffffffffffffffffffffff\n      and\n        /* \".deps/npm/@redstone-finance/evm-connector/contracts/data-services/CustomUrlsConsumerBase.sol\":420:433  signerAddress */\n      dup3\n        /* \".deps/npm/@redstone-finance/evm-connector/contracts/data-services/CustomUrlsConsumerBase.sol\":420:479  signerAddress == 0x11fFFc9970c41B9bFB9Aa35Be838d39bce918CfF */\n      0xffffffffffffffffffffffffffffffffffffffff\n      and\n      sub\n        /* \".deps/npm/@redstone-finance/evm-connector/contracts/data-services/CustomUrlsConsumerBase.sol\":416:660  if (signerAddress == 0x11fFFc9970c41B9bFB9Aa35Be838d39bce918CfF) {... */\n      tag_27\n      jumpi\n        /* \".deps/npm/@redstone-finance/evm-connector/contracts/data-services/CustomUrlsConsumerBase.sol\":496:497  0 */\n      0x00\n        /* \".deps/npm/@redstone-finance/evm-connector/contracts/data-services/CustomUrlsConsumerBase.sol\":489:497  return 0 */\n      swap1\n      pop\n      jump(tag_26)\n        /* \".deps/npm/@redstone-finance/evm-connector/contracts/data-services/CustomUrlsConsumerBase.sol\":416:660  if (signerAddress == 0x11fFFc9970c41B9bFB9Aa35Be838d39bce918CfF) {... */\n    tag_27:\n        /* \".deps/npm/@redstone-finance/evm-connector/contracts/data-services/CustomUrlsConsumerBase.sol\":531:573  0xdBcC2C6c892C8d3e3Fe4D325fEc810B7376A5Ed6 */\n      0xdbcc2c6c892c8d3e3fe4d325fec810b7376a5ed6\n        /* \".deps/npm/@redstone-finance/evm-connector/contracts/data-services/CustomUrlsConsumerBase.sol\":514:573  signerAddress == 0xdBcC2C6c892C8d3e3Fe4D325fEc810B7376A5Ed6 */\n      0xffffffffffffffffffffffffffffffffffffffff\n      and\n        /* \".deps/npm/@redstone-finance/evm-connector/contracts/data-services/CustomUrlsConsumerBase.sol\":514:527  signerAddress */\n      dup3\n        /* \".deps/npm/@redstone-finance/evm-connector/contracts/data-services/CustomUrlsConsumerBase.sol\":514:573  signerAddress == 0xdBcC2C6c892C8d3e3Fe4D325fEc810B7376A5Ed6 */\n      0xffffffffffffffffffffffffffffffffffffffff\n      and\n      sub\n        /* \".deps/npm/@redstone-finance/evm-connector/contracts/data-services/CustomUrlsConsumerBase.sol\":510:660  if (signerAddress == 0xdBcC2C6c892C8d3e3Fe4D325fEc810B7376A5Ed6) {... */\n      tag_29\n      jumpi\n        /* \".deps/npm/@redstone-finance/evm-connector/contracts/data-services/CustomUrlsConsumerBase.sol\":590:591  1 */\n      0x01\n        /* \".deps/npm/@redstone-finance/evm-connector/contracts/data-services/CustomUrlsConsumerBase.sol\":583:591  return 1 */\n      swap1\n      pop\n      jump(tag_26)\n        /* \".deps/npm/@redstone-finance/evm-connector/contracts/data-services/CustomUrlsConsumerBase.sol\":510:660  if (signerAddress == 0xdBcC2C6c892C8d3e3Fe4D325fEc810B7376A5Ed6) {... */\n    tag_29:\n        /* \".deps/npm/@redstone-finance/evm-connector/contracts/data-services/CustomUrlsConsumerBase.sol\":639:652  signerAddress */\n      dup2\n        /* \".deps/npm/@redstone-finance/evm-connector/contracts/data-services/CustomUrlsConsumerBase.sol\":619:653  SignerNotAuthorised(signerAddress) */\n      mload(0x40)\n      0xec459bc000000000000000000000000000000000000000000000000000000000\n      dup2\n      mstore\n      0x04\n      add\n      tag_31\n      swap2\n      swap1\n      tag_32\n      jump\t// in\n    tag_31:\n      mload(0x40)\n      dup1\n      swap2\n      sub\n      swap1\n      revert\n        /* \".deps/npm/@redstone-finance/evm-connector/contracts/data-services/CustomUrlsConsumerBase.sol\":286:664  function getAuthorisedSignerIndex(address signerAddress)... */\n    tag_26:\n      swap2\n      swap1\n      pop\n      jump\t// out\n        /* \".deps/npm/@redstone-finance/evm-connector/contracts/core/RedstoneConsumerBase.sol\":2280:2429  function aggregateValues(uint256[] memory values) public view virtual returns (uint256) {... */\n    tag_16:\n        /* \".deps/npm/@redstone-finance/evm-connector/contracts/core/RedstoneConsumerBase.sol\":2359:2366  uint256 */\n      0x00\n        /* \".deps/npm/@redstone-finance/evm-connector/contracts/core/RedstoneConsumerBase.sol\":2381:2424  RedstoneDefaultsLib.aggregateValues(values) */\n      tag_34\n        /* \".deps/npm/@redstone-finance/evm-connector/contracts/core/RedstoneConsumerBase.sol\":2417:2423  values */\n      dup3\n        /* \".deps/npm/@redstone-finance/evm-connector/contracts/core/RedstoneConsumerBase.sol\":2381:2416  RedstoneDefaultsLib.aggregateValues */\n      tag_35\n        /* \".deps/npm/@redstone-finance/evm-connector/contracts/core/RedstoneConsumerBase.sol\":2381:2424  RedstoneDefaultsLib.aggregateValues(values) */\n      jump\t// in\n    tag_34:\n        /* \".deps/npm/@redstone-finance/evm-connector/contracts/core/RedstoneConsumerBase.sol\":2374:2424  return RedstoneDefaultsLib.aggregateValues(values) */\n      swap1\n      pop\n        /* \".deps/npm/@redstone-finance/evm-connector/contracts/core/RedstoneConsumerBase.sol\":2280:2429  function aggregateValues(uint256[] memory values) public view virtual returns (uint256) {... */\n      swap2\n      swap1\n      pop\n      jump\t// out\n        /* \".deps/npm/@redstone-finance/evm-connector/contracts/core/RedstoneConsumerBase.sol\":1505:1670  function validateTimestamp(uint256 receivedTimestampMilliseconds) public view virtual {... */\n    tag_22:\n        /* \".deps/npm/@redstone-finance/evm-connector/contracts/core/RedstoneConsumerBase.sol\":1597:1665  RedstoneDefaultsLib.validateTimestamp(receivedTimestampMilliseconds) */\n      tag_37\n        /* \".deps/npm/@redstone-finance/evm-connector/contracts/core/RedstoneConsumerBase.sol\":1635:1664  receivedTimestampMilliseconds */\n      dup2\n        /* \".deps/npm/@redstone-finance/evm-connector/contracts/core/RedstoneConsumerBase.sol\":1597:1634  RedstoneDefaultsLib.validateTimestamp */\n      tag_38\n        /* \".deps/npm/@redstone-finance/evm-connector/contracts/core/RedstoneConsumerBase.sol\":1597:1665  RedstoneDefaultsLib.validateTimestamp(receivedTimestampMilliseconds) */\n      jump\t// in\n    tag_37:\n        /* \".deps/npm/@redstone-finance/evm-connector/contracts/core/RedstoneConsumerBase.sol\":1505:1670  function validateTimestamp(uint256 receivedTimestampMilliseconds) public view virtual {... */\n      pop\n      jump\t// out\n        /* \".deps/npm/@redstone-finance/evm-connector/contracts/data-services/CustomUrlsConsumerBase.sol\":181:282  function getUniqueSignersThreshold() public view virtual override returns (uint8) {... */\n    tag_24:\n        /* \".deps/npm/@redstone-finance/evm-connector/contracts/data-services/CustomUrlsConsumerBase.sol\":256:261  uint8 */\n      0x00\n        /* \".deps/npm/@redstone-finance/evm-connector/contracts/data-services/CustomUrlsConsumerBase.sol\":276:277  2 */\n      0x02\n        /* \".deps/npm/@redstone-finance/evm-connector/contracts/data-services/CustomUrlsConsumerBase.sol\":269:277  return 2 */\n      swap1\n      pop\n        /* \".deps/npm/@redstone-finance/evm-connector/contracts/data-services/CustomUrlsConsumerBase.sol\":181:282  function getUniqueSignersThreshold() public view virtual override returns (uint8) {... */\n      swap1\n      jump\t// out\n        /* \".deps/npm/@redstone-finance/evm-connector/contracts/core/RedstoneDefaultsLib.sol\":1547:1681  function aggregateValues(uint256[] memory values) internal pure returns (uint256) {... */\n    tag_35:\n        /* \".deps/npm/@redstone-finance/evm-connector/contracts/core/RedstoneDefaultsLib.sol\":1620:1627  uint256 */\n      0x00\n        /* \".deps/npm/@redstone-finance/evm-connector/contracts/core/RedstoneDefaultsLib.sol\":1642:1676  NumericArrayLib.pickMedian(values) */\n      tag_41\n        /* \".deps/npm/@redstone-finance/evm-connector/contracts/core/RedstoneDefaultsLib.sol\":1669:1675  values */\n      dup3\n        /* \".deps/npm/@redstone-finance/evm-connector/contracts/core/RedstoneDefaultsLib.sol\":1642:1668  NumericArrayLib.pickMedian */\n      tag_42\n        /* \".deps/npm/@redstone-finance/evm-connector/contracts/core/RedstoneDefaultsLib.sol\":1642:1676  NumericArrayLib.pickMedian(values) */\n      jump\t// in\n    tag_41:\n        /* \".deps/npm/@redstone-finance/evm-connector/contracts/core/RedstoneDefaultsLib.sol\":1635:1676  return NumericArrayLib.pickMedian(values) */\n      swap1\n      pop\n        /* \".deps/npm/@redstone-finance/evm-connector/contracts/core/RedstoneDefaultsLib.sol\":1547:1681  function aggregateValues(uint256[] memory values) internal pure returns (uint256) {... */\n      swap2\n      swap1\n      pop\n      jump\t// out\n        /* \".deps/npm/@redstone-finance/evm-connector/contracts/core/RedstoneDefaultsLib.sol\":584:1543  function validateTimestamp(uint256 receivedTimestampMilliseconds) internal view {... */\n    tag_38:\n        /* \".deps/npm/@redstone-finance/evm-connector/contracts/core/RedstoneDefaultsLib.sol\":1030:1062  uint256 receivedTimestampSeconds */\n      0x00\n        /* \".deps/npm/@redstone-finance/evm-connector/contracts/core/RedstoneDefaultsLib.sol\":1097:1101  1000 */\n      0x03e8\n        /* \".deps/npm/@redstone-finance/evm-connector/contracts/core/RedstoneDefaultsLib.sol\":1065:1094  receivedTimestampMilliseconds */\n      dup3\n        /* \".deps/npm/@redstone-finance/evm-connector/contracts/core/RedstoneDefaultsLib.sol\":1065:1101  receivedTimestampMilliseconds / 1000 */\n      tag_44\n      swap2\n      swap1\n      tag_45\n      jump\t// in\n    tag_44:\n        /* \".deps/npm/@redstone-finance/evm-connector/contracts/core/RedstoneDefaultsLib.sol\":1030:1101  uint256 receivedTimestampSeconds = receivedTimestampMilliseconds / 1000 */\n      swap1\n      pop\n        /* \".deps/npm/@redstone-finance/evm-connector/contracts/core/RedstoneDefaultsLib.sol\":1130:1154  receivedTimestampSeconds */\n      dup1\n        /* \".deps/npm/@redstone-finance/evm-connector/contracts/core/RedstoneDefaultsLib.sol\":1112:1127  block.timestamp */\n      timestamp\n        /* \".deps/npm/@redstone-finance/evm-connector/contracts/core/RedstoneDefaultsLib.sol\":1112:1154  block.timestamp < receivedTimestampSeconds */\n      lt\n        /* \".deps/npm/@redstone-finance/evm-connector/contracts/core/RedstoneDefaultsLib.sol\":1108:1539  if (block.timestamp < receivedTimestampSeconds) {... */\n      iszero\n      tag_46\n      jumpi\n        /* \".deps/npm/@redstone-finance/evm-connector/contracts/core/RedstoneDefaultsLib.sol\":390:399  1 minutes */\n      0x3c\n        /* \".deps/npm/@redstone-finance/evm-connector/contracts/core/RedstoneDefaultsLib.sol\":1196:1211  block.timestamp */\n      timestamp\n        /* \".deps/npm/@redstone-finance/evm-connector/contracts/core/RedstoneDefaultsLib.sol\":1169:1193  receivedTimestampSeconds */\n      dup3\n        /* \".deps/npm/@redstone-finance/evm-connector/contracts/core/RedstoneDefaultsLib.sol\":1169:1211  receivedTimestampSeconds - block.timestamp */\n      tag_47\n      swap2\n      swap1\n      tag_48\n      jump\t// in\n    tag_47:\n        /* \".deps/npm/@redstone-finance/evm-connector/contracts/core/RedstoneDefaultsLib.sol\":1168:1255  (receivedTimestampSeconds - block.timestamp) > DEFAULT_MAX_DATA_TIMESTAMP_AHEAD_SECONDS */\n      gt\n        /* \".deps/npm/@redstone-finance/evm-connector/contracts/core/RedstoneDefaultsLib.sol\":1164:1352  if ((receivedTimestampSeconds - block.timestamp) > DEFAULT_MAX_DATA_TIMESTAMP_AHEAD_SECONDS) {... */\n      iszero\n      tag_49\n      jumpi\n        /* \".deps/npm/@redstone-finance/evm-connector/contracts/core/RedstoneDefaultsLib.sol\":1301:1325  receivedTimestampSeconds */\n      dup1\n        /* \".deps/npm/@redstone-finance/evm-connector/contracts/core/RedstoneDefaultsLib.sol\":1327:1342  block.timestamp */\n      timestamp\n        /* \".deps/npm/@redstone-finance/evm-connector/contracts/core/RedstoneDefaultsLib.sol\":1274:1343  TimestampFromTooLongFuture(receivedTimestampSeconds, block.timestamp) */\n      mload(0x40)\n      0xb6b0916d00000000000000000000000000000000000000000000000000000000\n      dup2\n      mstore\n      0x04\n      add\n      tag_50\n      swap3\n      swap2\n      swap1\n      tag_51\n      jump\t// in\n    tag_50:\n      mload(0x40)\n      dup1\n      swap2\n      sub\n      swap1\n      revert\n        /* \".deps/npm/@redstone-finance/evm-connector/contracts/core/RedstoneDefaultsLib.sol\":1164:1352  if ((receivedTimestampSeconds - block.timestamp) > DEFAULT_MAX_DATA_TIMESTAMP_AHEAD_SECONDS) {... */\n    tag_49:\n        /* \".deps/npm/@redstone-finance/evm-connector/contracts/core/RedstoneDefaultsLib.sol\":1108:1539  if (block.timestamp < receivedTimestampSeconds) {... */\n      jump(tag_52)\n    tag_46:\n        /* \".deps/npm/@redstone-finance/evm-connector/contracts/core/RedstoneDefaultsLib.sol\":317:326  3 minutes */\n      0xb4\n        /* \".deps/npm/@redstone-finance/evm-connector/contracts/core/RedstoneDefaultsLib.sol\":1387:1411  receivedTimestampSeconds */\n      dup2\n        /* \".deps/npm/@redstone-finance/evm-connector/contracts/core/RedstoneDefaultsLib.sol\":1369:1384  block.timestamp */\n      timestamp\n        /* \".deps/npm/@redstone-finance/evm-connector/contracts/core/RedstoneDefaultsLib.sol\":1369:1411  block.timestamp - receivedTimestampSeconds */\n      tag_53\n      swap2\n      swap1\n      tag_48\n      jump\t// in\n    tag_53:\n        /* \".deps/npm/@redstone-finance/evm-connector/contracts/core/RedstoneDefaultsLib.sol\":1368:1455  (block.timestamp - receivedTimestampSeconds) > DEFAULT_MAX_DATA_TIMESTAMP_DELAY_SECONDS */\n      gt\n        /* \".deps/npm/@redstone-finance/evm-connector/contracts/core/RedstoneDefaultsLib.sol\":1364:1539  if ((block.timestamp - receivedTimestampSeconds) > DEFAULT_MAX_DATA_TIMESTAMP_DELAY_SECONDS) {... */\n      iszero\n      tag_54\n      jumpi\n        /* \".deps/npm/@redstone-finance/evm-connector/contracts/core/RedstoneDefaultsLib.sol\":1490:1514  receivedTimestampSeconds */\n      dup1\n        /* \".deps/npm/@redstone-finance/evm-connector/contracts/core/RedstoneDefaultsLib.sol\":1516:1531  block.timestamp */\n      timestamp\n        /* \".deps/npm/@redstone-finance/evm-connector/contracts/core/RedstoneDefaultsLib.sol\":1472:1532  TimestampIsTooOld(receivedTimestampSeconds, block.timestamp) */\n      mload(0x40)\n      0x0321d0b500000000000000000000000000000000000000000000000000000000\n      dup2\n      mstore\n      0x04\n      add\n      tag_55\n      swap3\n      swap2\n      swap1\n      tag_51\n      jump\t// in\n    tag_55:\n      mload(0x40)\n      dup1\n      swap2\n      sub\n      swap1\n      revert\n        /* \".deps/npm/@redstone-finance/evm-connector/contracts/core/RedstoneDefaultsLib.sol\":1364:1539  if ((block.timestamp - receivedTimestampSeconds) > DEFAULT_MAX_DATA_TIMESTAMP_DELAY_SECONDS) {... */\n    tag_54:\n        /* \".deps/npm/@redstone-finance/evm-connector/contracts/core/RedstoneDefaultsLib.sol\":1108:1539  if (block.timestamp < receivedTimestampSeconds) {... */\n    tag_52:\n        /* \".deps/npm/@redstone-finance/evm-connector/contracts/core/RedstoneDefaultsLib.sol\":664:1543  {... */\n      pop\n        /* \".deps/npm/@redstone-finance/evm-connector/contracts/core/RedstoneDefaultsLib.sol\":584:1543  function validateTimestamp(uint256 receivedTimestampMilliseconds) internal view {... */\n      pop\n      jump\t// out\n        /* \".deps/npm/@redstone-finance/evm-connector/contracts/libs/NumericArrayLib.sol\":448:839  function pickMedian(uint256[] memory arr) internal pure returns (uint256) {... */\n    tag_42:\n        /* \".deps/npm/@redstone-finance/evm-connector/contracts/libs/NumericArrayLib.sol\":513:520  uint256 */\n      0x00\n        /* \".deps/npm/@redstone-finance/evm-connector/contracts/libs/NumericArrayLib.sol\":546:547  0 */\n      dup1\n        /* \".deps/npm/@redstone-finance/evm-connector/contracts/libs/NumericArrayLib.sol\":532:535  arr */\n      dup3\n        /* \".deps/npm/@redstone-finance/evm-connector/contracts/libs/NumericArrayLib.sol\":532:542  arr.length */\n      mload\n        /* \".deps/npm/@redstone-finance/evm-connector/contracts/libs/NumericArrayLib.sol\":532:547  arr.length == 0 */\n      sub\n        /* \".deps/npm/@redstone-finance/evm-connector/contracts/libs/NumericArrayLib.sol\":528:601  if (arr.length == 0) {... */\n      tag_57\n      jumpi\n        /* \".deps/npm/@redstone-finance/evm-connector/contracts/libs/NumericArrayLib.sol\":564:594  CanNotPickMedianOfEmptyArray() */\n      mload(0x40)\n      0x9e198af900000000000000000000000000000000000000000000000000000000\n      dup2\n      mstore\n      0x04\n      add\n      mload(0x40)\n      dup1\n      swap2\n      sub\n      swap1\n      revert\n        /* \".deps/npm/@redstone-finance/evm-connector/contracts/libs/NumericArrayLib.sol\":528:601  if (arr.length == 0) {... */\n    tag_57:\n        /* \".deps/npm/@redstone-finance/evm-connector/contracts/libs/NumericArrayLib.sol\":606:615  sort(arr) */\n      tag_58\n        /* \".deps/npm/@redstone-finance/evm-connector/contracts/libs/NumericArrayLib.sol\":611:614  arr */\n      dup3\n        /* \".deps/npm/@redstone-finance/evm-connector/contracts/libs/NumericArrayLib.sol\":606:610  sort */\n      tag_59\n        /* \".deps/npm/@redstone-finance/evm-connector/contracts/libs/NumericArrayLib.sol\":606:615  sort(arr) */\n      jump\t// in\n    tag_58:\n        /* \".deps/npm/@redstone-finance/evm-connector/contracts/libs/NumericArrayLib.sol\":621:640  uint256 middleIndex */\n      0x00\n        /* \".deps/npm/@redstone-finance/evm-connector/contracts/libs/NumericArrayLib.sol\":656:657  2 */\n      0x02\n        /* \".deps/npm/@redstone-finance/evm-connector/contracts/libs/NumericArrayLib.sol\":643:646  arr */\n      dup4\n        /* \".deps/npm/@redstone-finance/evm-connector/contracts/libs/NumericArrayLib.sol\":643:653  arr.length */\n      mload\n        /* \".deps/npm/@redstone-finance/evm-connector/contracts/libs/NumericArrayLib.sol\":643:657  arr.length / 2 */\n      tag_60\n      swap2\n      swap1\n      tag_45\n      jump\t// in\n    tag_60:\n        /* \".deps/npm/@redstone-finance/evm-connector/contracts/libs/NumericArrayLib.sol\":621:657  uint256 middleIndex = arr.length / 2 */\n      swap1\n      pop\n        /* \".deps/npm/@redstone-finance/evm-connector/contracts/libs/NumericArrayLib.sol\":685:686  0 */\n      0x00\n        /* \".deps/npm/@redstone-finance/evm-connector/contracts/libs/NumericArrayLib.sol\":680:681  2 */\n      0x02\n        /* \".deps/npm/@redstone-finance/evm-connector/contracts/libs/NumericArrayLib.sol\":667:670  arr */\n      dup5\n        /* \".deps/npm/@redstone-finance/evm-connector/contracts/libs/NumericArrayLib.sol\":667:677  arr.length */\n      mload\n        /* \".deps/npm/@redstone-finance/evm-connector/contracts/libs/NumericArrayLib.sol\":667:681  arr.length % 2 */\n      tag_61\n      swap2\n      swap1\n      tag_62\n      jump\t// in\n    tag_61:\n        /* \".deps/npm/@redstone-finance/evm-connector/contracts/libs/NumericArrayLib.sol\":667:686  arr.length % 2 == 0 */\n      sub\n        /* \".deps/npm/@redstone-finance/evm-connector/contracts/libs/NumericArrayLib.sol\":663:835  if (arr.length % 2 == 0) {... */\n      tag_63\n      jumpi\n        /* \".deps/npm/@redstone-finance/evm-connector/contracts/libs/NumericArrayLib.sol\":696:707  uint256 sum */\n      0x00\n        /* \".deps/npm/@redstone-finance/evm-connector/contracts/libs/NumericArrayLib.sol\":710:762  SafeMath.add(arr[middleIndex - 1], arr[middleIndex]) */\n      tag_64\n        /* \".deps/npm/@redstone-finance/evm-connector/contracts/libs/NumericArrayLib.sol\":723:726  arr */\n      dup5\n        /* \".deps/npm/@redstone-finance/evm-connector/contracts/libs/NumericArrayLib.sol\":741:742  1 */\n      0x01\n        /* \".deps/npm/@redstone-finance/evm-connector/contracts/libs/NumericArrayLib.sol\":727:738  middleIndex */\n      dup5\n        /* \".deps/npm/@redstone-finance/evm-connector/contracts/libs/NumericArrayLib.sol\":727:742  middleIndex - 1 */\n      tag_65\n      swap2\n      swap1\n      tag_48\n      jump\t// in\n    tag_65:\n        /* \".deps/npm/@redstone-finance/evm-connector/contracts/libs/NumericArrayLib.sol\":723:743  arr[middleIndex - 1] */\n      dup2\n      mload\n      dup2\n      lt\n      tag_66\n      jumpi\n      tag_67\n      tag_68\n      jump\t// in\n    tag_67:\n    tag_66:\n      0x20\n      mul\n      0x20\n      add\n      add\n      mload\n        /* \".deps/npm/@redstone-finance/evm-connector/contracts/libs/NumericArrayLib.sol\":745:748  arr */\n      dup6\n        /* \".deps/npm/@redstone-finance/evm-connector/contracts/libs/NumericArrayLib.sol\":749:760  middleIndex */\n      dup5\n        /* \".deps/npm/@redstone-finance/evm-connector/contracts/libs/NumericArrayLib.sol\":745:761  arr[middleIndex] */\n      dup2\n      mload\n      dup2\n      lt\n      tag_69\n      jumpi\n      tag_70\n      tag_68\n      jump\t// in\n    tag_70:\n    tag_69:\n      0x20\n      mul\n      0x20\n      add\n      add\n      mload\n        /* \".deps/npm/@redstone-finance/evm-connector/contracts/libs/NumericArrayLib.sol\":710:722  SafeMath.add */\n      tag_71\n        /* \".deps/npm/@redstone-finance/evm-connector/contracts/libs/NumericArrayLib.sol\":710:762  SafeMath.add(arr[middleIndex - 1], arr[middleIndex]) */\n      jump\t// in\n    tag_64:\n        /* \".deps/npm/@redstone-finance/evm-connector/contracts/libs/NumericArrayLib.sol\":696:762  uint256 sum = SafeMath.add(arr[middleIndex - 1], arr[middleIndex]) */\n      swap1\n      pop\n        /* \".deps/npm/@redstone-finance/evm-connector/contracts/libs/NumericArrayLib.sol\":783:784  2 */\n      0x02\n        /* \".deps/npm/@redstone-finance/evm-connector/contracts/libs/NumericArrayLib.sol\":777:780  sum */\n      dup2\n        /* \".deps/npm/@redstone-finance/evm-connector/contracts/libs/NumericArrayLib.sol\":777:784  sum / 2 */\n      tag_72\n      swap2\n      swap1\n      tag_45\n      jump\t// in\n    tag_72:\n        /* \".deps/npm/@redstone-finance/evm-connector/contracts/libs/NumericArrayLib.sol\":770:784  return sum / 2 */\n      swap3\n      pop\n      pop\n      pop\n      jump(tag_56)\n        /* \".deps/npm/@redstone-finance/evm-connector/contracts/libs/NumericArrayLib.sol\":663:835  if (arr.length % 2 == 0) {... */\n    tag_63:\n        /* \".deps/npm/@redstone-finance/evm-connector/contracts/libs/NumericArrayLib.sol\":812:815  arr */\n      dup3\n        /* \".deps/npm/@redstone-finance/evm-connector/contracts/libs/NumericArrayLib.sol\":816:827  middleIndex */\n      dup2\n        /* \".deps/npm/@redstone-finance/evm-connector/contracts/libs/NumericArrayLib.sol\":812:828  arr[middleIndex] */\n      dup2\n      mload\n      dup2\n      lt\n      tag_74\n      jumpi\n      tag_75\n      tag_68\n      jump\t// in\n    tag_75:\n    tag_74:\n      0x20\n      mul\n      0x20\n      add\n      add\n      mload\n        /* \".deps/npm/@redstone-finance/evm-connector/contracts/libs/NumericArrayLib.sol\":805:828  return arr[middleIndex] */\n      swap2\n      pop\n      pop\n        /* \".deps/npm/@redstone-finance/evm-connector/contracts/libs/NumericArrayLib.sol\":448:839  function pickMedian(uint256[] memory arr) internal pure returns (uint256) {... */\n    tag_56:\n      swap2\n      swap1\n      pop\n      jump\t// out\n        /* \".deps/npm/@redstone-finance/evm-connector/contracts/libs/NumericArrayLib.sol\":843:1593  function sort(uint256[] memory arr) internal pure {... */\n    tag_59:\n        /* \".deps/npm/@redstone-finance/evm-connector/contracts/libs/NumericArrayLib.sol\":939:942  arr */\n      dup1\n        /* \".deps/npm/@redstone-finance/evm-connector/contracts/libs/NumericArrayLib.sol\":933:943  mload(arr) */\n      mload\n        /* \".deps/npm/@redstone-finance/evm-connector/contracts/libs/NumericArrayLib.sol\":976:996  BYTES_ARR_LEN_VAR_BS */\n      0x20\n        /* \".deps/npm/@redstone-finance/evm-connector/contracts/libs/NumericArrayLib.sol\":971:974  arr */\n      dup3\n        /* \".deps/npm/@redstone-finance/evm-connector/contracts/libs/NumericArrayLib.sol\":967:997  add(arr, BYTES_ARR_LEN_VAR_BS) */\n      add\n        /* \".deps/npm/@redstone-finance/evm-connector/contracts/libs/NumericArrayLib.sol\":1048:1064  UINT256_VALUE_BS */\n      0x20\n        /* \".deps/npm/@redstone-finance/evm-connector/contracts/libs/NumericArrayLib.sol\":1037:1046  arrLength */\n      dup3\n        /* \".deps/npm/@redstone-finance/evm-connector/contracts/libs/NumericArrayLib.sol\":1033:1065  mul(arrLength, UINT256_VALUE_BS) */\n      mul\n        /* \".deps/npm/@redstone-finance/evm-connector/contracts/libs/NumericArrayLib.sol\":1022:1031  valuesPtr */\n      dup2\n        /* \".deps/npm/@redstone-finance/evm-connector/contracts/libs/NumericArrayLib.sol\":1018:1066  add(valuesPtr, mul(arrLength, UINT256_VALUE_BS)) */\n      add\n        /* \".deps/npm/@redstone-finance/evm-connector/contracts/libs/NumericArrayLib.sol\":1102:1111  valuesPtr */\n      dup2\n        /* \".deps/npm/@redstone-finance/evm-connector/contracts/libs/NumericArrayLib.sol\":1073:1583  for {... */\n    tag_77:\n        /* \".deps/npm/@redstone-finance/evm-connector/contracts/libs/NumericArrayLib.sol\":1132:1138  endPtr */\n      dup2\n        /* \".deps/npm/@redstone-finance/evm-connector/contracts/libs/NumericArrayLib.sol\":1123:1130  arrIPtr */\n      dup2\n        /* \".deps/npm/@redstone-finance/evm-connector/contracts/libs/NumericArrayLib.sol\":1120:1139  lt(arrIPtr, endPtr) */\n      lt\n        /* \".deps/npm/@redstone-finance/evm-connector/contracts/libs/NumericArrayLib.sol\":1073:1583  for {... */\n      iszero\n      tag_79\n      jumpi\n        /* \".deps/npm/@redstone-finance/evm-connector/contracts/libs/NumericArrayLib.sol\":1258:1267  valuesPtr */\n      dup3\n        /* \".deps/npm/@redstone-finance/evm-connector/contracts/libs/NumericArrayLib.sol\":1227:1575  for {... */\n    tag_80:\n        /* \".deps/npm/@redstone-finance/evm-connector/contracts/libs/NumericArrayLib.sol\":1290:1297  arrIPtr */\n      dup2\n        /* \".deps/npm/@redstone-finance/evm-connector/contracts/libs/NumericArrayLib.sol\":1281:1288  arrJPtr */\n      dup2\n        /* \".deps/npm/@redstone-finance/evm-connector/contracts/libs/NumericArrayLib.sol\":1278:1298  lt(arrJPtr, arrIPtr) */\n      lt\n        /* \".deps/npm/@redstone-finance/evm-connector/contracts/libs/NumericArrayLib.sol\":1227:1575  for {... */\n      iszero\n      tag_82\n      jumpi\n        /* \".deps/npm/@redstone-finance/evm-connector/contracts/libs/NumericArrayLib.sol\":1410:1417  arrIPtr */\n      dup2\n        /* \".deps/npm/@redstone-finance/evm-connector/contracts/libs/NumericArrayLib.sol\":1404:1418  mload(arrIPtr) */\n      mload\n        /* \".deps/npm/@redstone-finance/evm-connector/contracts/libs/NumericArrayLib.sol\":1447:1454  arrJPtr */\n      dup2\n        /* \".deps/npm/@redstone-finance/evm-connector/contracts/libs/NumericArrayLib.sol\":1441:1455  mload(arrJPtr) */\n      mload\n        /* \".deps/npm/@redstone-finance/evm-connector/contracts/libs/NumericArrayLib.sol\":1478:1482  arrJ */\n      dup1\n        /* \".deps/npm/@redstone-finance/evm-connector/contracts/libs/NumericArrayLib.sol\":1472:1476  arrI */\n      dup3\n        /* \".deps/npm/@redstone-finance/evm-connector/contracts/libs/NumericArrayLib.sol\":1469:1483  lt(arrI, arrJ) */\n      lt\n        /* \".deps/npm/@redstone-finance/evm-connector/contracts/libs/NumericArrayLib.sol\":1466:1565  if lt(arrI, arrJ) {... */\n      iszero\n      tag_83\n      jumpi\n        /* \".deps/npm/@redstone-finance/evm-connector/contracts/libs/NumericArrayLib.sol\":1514:1518  arrJ */\n      dup1\n        /* \".deps/npm/@redstone-finance/evm-connector/contracts/libs/NumericArrayLib.sol\":1505:1512  arrIPtr */\n      dup5\n        /* \".deps/npm/@redstone-finance/evm-connector/contracts/libs/NumericArrayLib.sol\":1498:1519  mstore(arrIPtr, arrJ) */\n      mstore\n        /* \".deps/npm/@redstone-finance/evm-connector/contracts/libs/NumericArrayLib.sol\":1548:1552  arrI */\n      dup2\n        /* \".deps/npm/@redstone-finance/evm-connector/contracts/libs/NumericArrayLib.sol\":1539:1546  arrJPtr */\n      dup4\n        /* \".deps/npm/@redstone-finance/evm-connector/contracts/libs/NumericArrayLib.sol\":1532:1553  mstore(arrJPtr, arrI) */\n      mstore\n        /* \".deps/npm/@redstone-finance/evm-connector/contracts/libs/NumericArrayLib.sol\":1466:1565  if lt(arrI, arrJ) {... */\n    tag_83:\n        /* \".deps/npm/@redstone-finance/evm-connector/contracts/libs/NumericArrayLib.sol\":1380:1575  {... */\n      pop\n      pop\n        /* \".deps/npm/@redstone-finance/evm-connector/contracts/libs/NumericArrayLib.sol\":1335:1351  UINT256_VALUE_BS */\n      0x20\n        /* \".deps/npm/@redstone-finance/evm-connector/contracts/libs/NumericArrayLib.sol\":1326:1333  arrJPtr */\n      dup2\n        /* \".deps/npm/@redstone-finance/evm-connector/contracts/libs/NumericArrayLib.sol\":1322:1352  add(arrJPtr, UINT256_VALUE_BS) */\n      add\n        /* \".deps/npm/@redstone-finance/evm-connector/contracts/libs/NumericArrayLib.sol\":1311:1352  arrJPtr := add(arrJPtr, UINT256_VALUE_BS) */\n      swap1\n      pop\n        /* \".deps/npm/@redstone-finance/evm-connector/contracts/libs/NumericArrayLib.sol\":1227:1575  for {... */\n      jump(tag_80)\n    tag_82:\n        /* \".deps/npm/@redstone-finance/evm-connector/contracts/libs/NumericArrayLib.sol\":1231:1277  {... */\n      pop\n        /* \".deps/npm/@redstone-finance/evm-connector/contracts/libs/NumericArrayLib.sol\":1174:1190  UINT256_VALUE_BS */\n      0x20\n        /* \".deps/npm/@redstone-finance/evm-connector/contracts/libs/NumericArrayLib.sol\":1165:1172  arrIPtr */\n      dup2\n        /* \".deps/npm/@redstone-finance/evm-connector/contracts/libs/NumericArrayLib.sol\":1161:1191  add(arrIPtr, UINT256_VALUE_BS) */\n      add\n        /* \".deps/npm/@redstone-finance/evm-connector/contracts/libs/NumericArrayLib.sol\":1150:1191  arrIPtr := add(arrIPtr, UINT256_VALUE_BS) */\n      swap1\n      pop\n        /* \".deps/npm/@redstone-finance/evm-connector/contracts/libs/NumericArrayLib.sol\":1073:1583  for {... */\n      jump(tag_77)\n    tag_79:\n        /* \".deps/npm/@redstone-finance/evm-connector/contracts/libs/NumericArrayLib.sol\":1077:1119  {... */\n      pop\n        /* \".deps/npm/@redstone-finance/evm-connector/contracts/libs/NumericArrayLib.sol\":908:1589  {... */\n      pop\n      pop\n      pop\n        /* \".deps/npm/@redstone-finance/evm-connector/contracts/libs/NumericArrayLib.sol\":843:1593  function sort(uint256[] memory arr) internal pure {... */\n      pop\n      jump\t// out\n        /* \"@openzeppelin/contracts/utils/math/SafeMath.sol\":2755:2851  function add(uint256 a, uint256 b) internal pure returns (uint256) {... */\n    tag_71:\n        /* \"@openzeppelin/contracts/utils/math/SafeMath.sol\":2813:2820  uint256 */\n      0x00\n        /* \"@openzeppelin/contracts/utils/math/SafeMath.sol\":2843:2844  b */\n      dup2\n        /* \"@openzeppelin/contracts/utils/math/SafeMath.sol\":2839:2840  a */\n      dup4\n        /* \"@openzeppelin/contracts/utils/math/SafeMath.sol\":2839:2844  a + b */\n      tag_85\n      swap2\n      swap1\n      tag_86\n      jump\t// in\n    tag_85:\n        /* \"@openzeppelin/contracts/utils/math/SafeMath.sol\":2832:2844  return a + b */\n      swap1\n      pop\n        /* \"@openzeppelin/contracts/utils/math/SafeMath.sol\":2755:2851  function add(uint256 a, uint256 b) internal pure returns (uint256) {... */\n      swap3\n      swap2\n      pop\n      pop\n      jump\t// out\n        /* \"#utility.yul\":7:82   */\n    tag_87:\n        /* \"#utility.yul\":40:46   */\n      0x00\n        /* \"#utility.yul\":73:75   */\n      0x40\n        /* \"#utility.yul\":67:76   */\n      mload\n        /* \"#utility.yul\":57:76   */\n      swap1\n      pop\n        /* \"#utility.yul\":7:82   */\n      swap1\n      jump\t// out\n        /* \"#utility.yul\":88:205   */\n    tag_88:\n        /* \"#utility.yul\":197:198   */\n      0x00\n        /* \"#utility.yul\":194:195   */\n      dup1\n        /* \"#utility.yul\":187:199   */\n      revert\n        /* \"#utility.yul\":211:328   */\n    tag_89:\n        /* \"#utility.yul\":320:321   */\n      0x00\n        /* \"#utility.yul\":317:318   */\n      dup1\n        /* \"#utility.yul\":310:322   */\n      revert\n        /* \"#utility.yul\":334:460   */\n    tag_90:\n        /* \"#utility.yul\":371:378   */\n      0x00\n        /* \"#utility.yul\":411:453   */\n      0xffffffffffffffffffffffffffffffffffffffff\n        /* \"#utility.yul\":404:409   */\n      dup3\n        /* \"#utility.yul\":400:454   */\n      and\n        /* \"#utility.yul\":389:454   */\n      swap1\n      pop\n        /* \"#utility.yul\":334:460   */\n      swap2\n      swap1\n      pop\n      jump\t// out\n        /* \"#utility.yul\":466:562   */\n    tag_91:\n        /* \"#utility.yul\":503:510   */\n      0x00\n        /* \"#utility.yul\":532:556   */\n      tag_118\n        /* \"#utility.yul\":550:555   */\n      dup3\n        /* \"#utility.yul\":532:556   */\n      tag_90\n      jump\t// in\n    tag_118:\n        /* \"#utility.yul\":521:556   */\n      swap1\n      pop\n        /* \"#utility.yul\":466:562   */\n      swap2\n      swap1\n      pop\n      jump\t// out\n        /* \"#utility.yul\":568:690   */\n    tag_92:\n        /* \"#utility.yul\":641:665   */\n      tag_120\n        /* \"#utility.yul\":659:664   */\n      dup2\n        /* \"#utility.yul\":641:665   */\n      tag_91\n      jump\t// in\n    tag_120:\n        /* \"#utility.yul\":634:639   */\n      dup2\n        /* \"#utility.yul\":631:666   */\n      eq\n        /* \"#utility.yul\":621:684   */\n      tag_121\n      jumpi\n        /* \"#utility.yul\":680:681   */\n      0x00\n        /* \"#utility.yul\":677:678   */\n      dup1\n        /* \"#utility.yul\":670:682   */\n      revert\n        /* \"#utility.yul\":621:684   */\n    tag_121:\n        /* \"#utility.yul\":568:690   */\n      pop\n      jump\t// out\n        /* \"#utility.yul\":696:835   */\n    tag_93:\n        /* \"#utility.yul\":742:747   */\n      0x00\n        /* \"#utility.yul\":780:786   */\n      dup2\n        /* \"#utility.yul\":767:787   */\n      calldataload\n        /* \"#utility.yul\":758:787   */\n      swap1\n      pop\n        /* \"#utility.yul\":796:829   */\n      tag_123\n        /* \"#utility.yul\":823:828   */\n      dup2\n        /* \"#utility.yul\":796:829   */\n      tag_92\n      jump\t// in\n    tag_123:\n        /* \"#utility.yul\":696:835   */\n      swap3\n      swap2\n      pop\n      pop\n      jump\t// out\n        /* \"#utility.yul\":841:1170   */\n    tag_9:\n        /* \"#utility.yul\":900:906   */\n      0x00\n        /* \"#utility.yul\":949:951   */\n      0x20\n        /* \"#utility.yul\":937:946   */\n      dup3\n        /* \"#utility.yul\":928:935   */\n      dup5\n        /* \"#utility.yul\":924:947   */\n      sub\n        /* \"#utility.yul\":920:952   */\n      slt\n        /* \"#utility.yul\":917:1036   */\n      iszero\n      tag_125\n      jumpi\n        /* \"#utility.yul\":955:1034   */\n      tag_126\n      tag_88\n      jump\t// in\n    tag_126:\n        /* \"#utility.yul\":917:1036   */\n    tag_125:\n        /* \"#utility.yul\":1075:1076   */\n      0x00\n        /* \"#utility.yul\":1100:1153   */\n      tag_127\n        /* \"#utility.yul\":1145:1152   */\n      dup5\n        /* \"#utility.yul\":1136:1142   */\n      dup3\n        /* \"#utility.yul\":1125:1134   */\n      dup6\n        /* \"#utility.yul\":1121:1143   */\n      add\n        /* \"#utility.yul\":1100:1153   */\n      tag_93\n      jump\t// in\n    tag_127:\n        /* \"#utility.yul\":1090:1153   */\n      swap2\n      pop\n        /* \"#utility.yul\":1046:1163   */\n      pop\n        /* \"#utility.yul\":841:1170   */\n      swap3\n      swap2\n      pop\n      pop\n      jump\t// out\n        /* \"#utility.yul\":1176:1262   */\n    tag_94:\n        /* \"#utility.yul\":1211:1218   */\n      0x00\n        /* \"#utility.yul\":1251:1255   */\n      0xff\n        /* \"#utility.yul\":1244:1249   */\n      dup3\n        /* \"#utility.yul\":1240:1256   */\n      and\n        /* \"#utility.yul\":1229:1256   */\n      swap1\n      pop\n        /* \"#utility.yul\":1176:1262   */\n      swap2\n      swap1\n      pop\n      jump\t// out\n        /* \"#utility.yul\":1268:1380   */\n    tag_95:\n        /* \"#utility.yul\":1351:1373   */\n      tag_130\n        /* \"#utility.yul\":1367:1372   */\n      dup2\n        /* \"#utility.yul\":1351:1373   */\n      tag_94\n      jump\t// in\n    tag_130:\n        /* \"#utility.yul\":1346:1349   */\n      dup3\n        /* \"#utility.yul\":1339:1374   */\n      mstore\n        /* \"#utility.yul\":1268:1380   */\n      pop\n      pop\n      jump\t// out\n        /* \"#utility.yul\":1386:1600   */\n    tag_12:\n        /* \"#utility.yul\":1475:1479   */\n      0x00\n        /* \"#utility.yul\":1513:1515   */\n      0x20\n        /* \"#utility.yul\":1502:1511   */\n      dup3\n        /* \"#utility.yul\":1498:1516   */\n      add\n        /* \"#utility.yul\":1490:1516   */\n      swap1\n      pop\n        /* \"#utility.yul\":1526:1593   */\n      tag_132\n        /* \"#utility.yul\":1590:1591   */\n      0x00\n        /* \"#utility.yul\":1579:1588   */\n      dup4\n        /* \"#utility.yul\":1575:1592   */\n      add\n        /* \"#utility.yul\":1566:1572   */\n      dup5\n        /* \"#utility.yul\":1526:1593   */\n      tag_95\n      jump\t// in\n    tag_132:\n        /* \"#utility.yul\":1386:1600   */\n      swap3\n      swap2\n      pop\n      pop\n      jump\t// out\n        /* \"#utility.yul\":1606:1723   */\n    tag_96:\n        /* \"#utility.yul\":1715:1716   */\n      0x00\n        /* \"#utility.yul\":1712:1713   */\n      dup1\n        /* \"#utility.yul\":1705:1717   */\n      revert\n        /* \"#utility.yul\":1729:1831   */\n    tag_97:\n        /* \"#utility.yul\":1770:1776   */\n      0x00\n        /* \"#utility.yul\":1821:1823   */\n      0x1f\n        /* \"#utility.yul\":1817:1824   */\n      not\n        /* \"#utility.yul\":1812:1814   */\n      0x1f\n        /* \"#utility.yul\":1805:1810   */\n      dup4\n        /* \"#utility.yul\":1801:1815   */\n      add\n        /* \"#utility.yul\":1797:1825   */\n      and\n        /* \"#utility.yul\":1787:1825   */\n      swap1\n      pop\n        /* \"#utility.yul\":1729:1831   */\n      swap2\n      swap1\n      pop\n      jump\t// out\n        /* \"#utility.yul\":1837:2017   */\n    tag_98:\n        /* \"#utility.yul\":1885:1962   */\n      0x4e487b7100000000000000000000000000000000000000000000000000000000\n        /* \"#utility.yul\":1882:1883   */\n      0x00\n        /* \"#utility.yul\":1875:1963   */\n      mstore\n        /* \"#utility.yul\":1982:1986   */\n      0x41\n        /* \"#utility.yul\":1979:1980   */\n      0x04\n        /* \"#utility.yul\":1972:1987   */\n      mstore\n        /* \"#utility.yul\":2006:2010   */\n      0x24\n        /* \"#utility.yul\":2003:2004   */\n      0x00\n        /* \"#utility.yul\":1996:2011   */\n      revert\n        /* \"#utility.yul\":2023:2304   */\n    tag_99:\n        /* \"#utility.yul\":2106:2133   */\n      tag_137\n        /* \"#utility.yul\":2128:2132   */\n      dup3\n        /* \"#utility.yul\":2106:2133   */\n      tag_97\n      jump\t// in\n    tag_137:\n        /* \"#utility.yul\":2098:2104   */\n      dup2\n        /* \"#utility.yul\":2094:2134   */\n      add\n        /* \"#utility.yul\":2236:2242   */\n      dup2\n        /* \"#utility.yul\":2224:2234   */\n      dup2\n        /* \"#utility.yul\":2221:2243   */\n      lt\n        /* \"#utility.yul\":2200:2218   */\n      0xffffffffffffffff\n        /* \"#utility.yul\":2188:2198   */\n      dup3\n        /* \"#utility.yul\":2185:2219   */\n      gt\n        /* \"#utility.yul\":2182:2244   */\n      or\n        /* \"#utility.yul\":2179:2267   */\n      iszero\n      tag_138\n      jumpi\n        /* \"#utility.yul\":2247:2265   */\n      tag_139\n      tag_98\n      jump\t// in\n    tag_139:\n        /* \"#utility.yul\":2179:2267   */\n    tag_138:\n        /* \"#utility.yul\":2287:2297   */\n      dup1\n        /* \"#utility.yul\":2283:2285   */\n      0x40\n        /* \"#utility.yul\":2276:2298   */\n      mstore\n        /* \"#utility.yul\":2066:2304   */\n      pop\n        /* \"#utility.yul\":2023:2304   */\n      pop\n      pop\n      jump\t// out\n        /* \"#utility.yul\":2310:2439   */\n    tag_100:\n        /* \"#utility.yul\":2344:2350   */\n      0x00\n        /* \"#utility.yul\":2371:2391   */\n      tag_141\n      tag_87\n      jump\t// in\n    tag_141:\n        /* \"#utility.yul\":2361:2391   */\n      swap1\n      pop\n        /* \"#utility.yul\":2400:2433   */\n      tag_142\n        /* \"#utility.yul\":2428:2432   */\n      dup3\n        /* \"#utility.yul\":2420:2426   */\n      dup3\n        /* \"#utility.yul\":2400:2433   */\n      tag_99\n      jump\t// in\n    tag_142:\n        /* \"#utility.yul\":2310:2439   */\n      swap2\n      swap1\n      pop\n      jump\t// out\n        /* \"#utility.yul\":2445:2756   */\n    tag_101:\n        /* \"#utility.yul\":2522:2526   */\n      0x00\n        /* \"#utility.yul\":2612:2630   */\n      0xffffffffffffffff\n        /* \"#utility.yul\":2604:2610   */\n      dup3\n        /* \"#utility.yul\":2601:2631   */\n      gt\n        /* \"#utility.yul\":2598:2654   */\n      iszero\n      tag_144\n      jumpi\n        /* \"#utility.yul\":2634:2652   */\n      tag_145\n      tag_98\n      jump\t// in\n    tag_145:\n        /* \"#utility.yul\":2598:2654   */\n    tag_144:\n        /* \"#utility.yul\":2684:2688   */\n      0x20\n        /* \"#utility.yul\":2676:2682   */\n      dup3\n        /* \"#utility.yul\":2672:2689   */\n      mul\n        /* \"#utility.yul\":2664:2689   */\n      swap1\n      pop\n        /* \"#utility.yul\":2744:2748   */\n      0x20\n        /* \"#utility.yul\":2738:2742   */\n      dup2\n        /* \"#utility.yul\":2734:2749   */\n      add\n        /* \"#utility.yul\":2726:2749   */\n      swap1\n      pop\n        /* \"#utility.yul\":2445:2756   */\n      swap2\n      swap1\n      pop\n      jump\t// out\n        /* \"#utility.yul\":2762:2879   */\n    tag_102:\n        /* \"#utility.yul\":2871:2872   */\n      0x00\n        /* \"#utility.yul\":2868:2869   */\n      dup1\n        /* \"#utility.yul\":2861:2873   */\n      revert\n        /* \"#utility.yul\":2885:2962   */\n    tag_103:\n        /* \"#utility.yul\":2922:2929   */\n      0x00\n        /* \"#utility.yul\":2951:2956   */\n      dup2\n        /* \"#utility.yul\":2940:2956   */\n      swap1\n      pop\n        /* \"#utility.yul\":2885:2962   */\n      swap2\n      swap1\n      pop\n      jump\t// out\n        /* \"#utility.yul\":2968:3090   */\n    tag_104:\n        /* \"#utility.yul\":3041:3065   */\n      tag_149\n        /* \"#utility.yul\":3059:3064   */\n      dup2\n        /* \"#utility.yul\":3041:3065   */\n      tag_103\n      jump\t// in\n    tag_149:\n        /* \"#utility.yul\":3034:3039   */\n      dup2\n        /* \"#utility.yul\":3031:3066   */\n      eq\n        /* \"#utility.yul\":3021:3084   */\n      tag_150\n      jumpi\n        /* \"#utility.yul\":3080:3081   */\n      0x00\n        /* \"#utility.yul\":3077:3078   */\n      dup1\n        /* \"#utility.yul\":3070:3082   */\n      revert\n        /* \"#utility.yul\":3021:3084   */\n    tag_150:\n        /* \"#utility.yul\":2968:3090   */\n      pop\n      jump\t// out\n        /* \"#utility.yul\":3096:3235   */\n    tag_105:\n        /* \"#utility.yul\":3142:3147   */\n      0x00\n        /* \"#utility.yul\":3180:3186   */\n      dup2\n        /* \"#utility.yul\":3167:3187   */\n      calldataload\n        /* \"#utility.yul\":3158:3187   */\n      swap1\n      pop\n        /* \"#utility.yul\":3196:3229   */\n      tag_152\n        /* \"#utility.yul\":3223:3228   */\n      dup2\n        /* \"#utility.yul\":3196:3229   */\n      tag_104\n      jump\t// in\n    tag_152:\n        /* \"#utility.yul\":3096:3235   */\n      swap3\n      swap2\n      pop\n      pop\n      jump\t// out\n        /* \"#utility.yul\":3258:3968   */\n    tag_106:\n        /* \"#utility.yul\":3354:3359   */\n      0x00\n        /* \"#utility.yul\":3379:3460   */\n      tag_154\n        /* \"#utility.yul\":3395:3459   */\n      tag_155\n        /* \"#utility.yul\":3452:3458   */\n      dup5\n        /* \"#utility.yul\":3395:3459   */\n      tag_101\n      jump\t// in\n    tag_155:\n        /* \"#utility.yul\":3379:3460   */\n      tag_100\n      jump\t// in\n    tag_154:\n        /* \"#utility.yul\":3370:3460   */\n      swap1\n      pop\n        /* \"#utility.yul\":3480:3485   */\n      dup1\n        /* \"#utility.yul\":3509:3515   */\n      dup4\n        /* \"#utility.yul\":3502:3507   */\n      dup3\n        /* \"#utility.yul\":3495:3516   */\n      mstore\n        /* \"#utility.yul\":3543:3547   */\n      0x20\n        /* \"#utility.yul\":3536:3541   */\n      dup3\n        /* \"#utility.yul\":3532:3548   */\n      add\n        /* \"#utility.yul\":3525:3548   */\n      swap1\n      pop\n        /* \"#utility.yul\":3596:3600   */\n      0x20\n        /* \"#utility.yul\":3588:3594   */\n      dup5\n        /* \"#utility.yul\":3584:3601   */\n      mul\n        /* \"#utility.yul\":3576:3582   */\n      dup4\n        /* \"#utility.yul\":3572:3602   */\n      add\n        /* \"#utility.yul\":3625:3628   */\n      dup6\n        /* \"#utility.yul\":3617:3623   */\n      dup2\n        /* \"#utility.yul\":3614:3629   */\n      gt\n        /* \"#utility.yul\":3611:3733   */\n      iszero\n      tag_156\n      jumpi\n        /* \"#utility.yul\":3644:3723   */\n      tag_157\n      tag_102\n      jump\t// in\n    tag_157:\n        /* \"#utility.yul\":3611:3733   */\n    tag_156:\n        /* \"#utility.yul\":3759:3765   */\n      dup4\n        /* \"#utility.yul\":3742:3962   */\n    tag_158:\n        /* \"#utility.yul\":3776:3782   */\n      dup2\n        /* \"#utility.yul\":3771:3774   */\n      dup2\n        /* \"#utility.yul\":3768:3783   */\n      lt\n        /* \"#utility.yul\":3742:3962   */\n      iszero\n      tag_160\n      jumpi\n        /* \"#utility.yul\":3851:3854   */\n      dup1\n        /* \"#utility.yul\":3880:3917   */\n      tag_161\n        /* \"#utility.yul\":3913:3916   */\n      dup9\n        /* \"#utility.yul\":3901:3911   */\n      dup3\n        /* \"#utility.yul\":3880:3917   */\n      tag_105\n      jump\t// in\n    tag_161:\n        /* \"#utility.yul\":3875:3878   */\n      dup5\n        /* \"#utility.yul\":3868:3918   */\n      mstore\n        /* \"#utility.yul\":3947:3951   */\n      0x20\n        /* \"#utility.yul\":3942:3945   */\n      dup5\n        /* \"#utility.yul\":3938:3952   */\n      add\n        /* \"#utility.yul\":3931:3952   */\n      swap4\n      pop\n        /* \"#utility.yul\":3818:3962   */\n      pop\n        /* \"#utility.yul\":3802:3806   */\n      0x20\n        /* \"#utility.yul\":3797:3800   */\n      dup2\n        /* \"#utility.yul\":3793:3807   */\n      add\n        /* \"#utility.yul\":3786:3807   */\n      swap1\n      pop\n        /* \"#utility.yul\":3742:3962   */\n      jump(tag_158)\n    tag_160:\n        /* \"#utility.yul\":3746:3767   */\n      pop\n        /* \"#utility.yul\":3360:3968   */\n      pop\n      pop\n        /* \"#utility.yul\":3258:3968   */\n      swap4\n      swap3\n      pop\n      pop\n      pop\n      jump\t// out\n        /* \"#utility.yul\":3991:4361   */\n    tag_107:\n        /* \"#utility.yul\":4062:4067   */\n      0x00\n        /* \"#utility.yul\":4111:4114   */\n      dup3\n        /* \"#utility.yul\":4104:4108   */\n      0x1f\n        /* \"#utility.yul\":4096:4102   */\n      dup4\n        /* \"#utility.yul\":4092:4109   */\n      add\n        /* \"#utility.yul\":4088:4115   */\n      slt\n        /* \"#utility.yul\":4078:4200   */\n      tag_163\n      jumpi\n        /* \"#utility.yul\":4119:4198   */\n      tag_164\n      tag_96\n      jump\t// in\n    tag_164:\n        /* \"#utility.yul\":4078:4200   */\n    tag_163:\n        /* \"#utility.yul\":4236:4242   */\n      dup2\n        /* \"#utility.yul\":4223:4243   */\n      calldataload\n        /* \"#utility.yul\":4261:4355   */\n      tag_165\n        /* \"#utility.yul\":4351:4354   */\n      dup5\n        /* \"#utility.yul\":4343:4349   */\n      dup3\n        /* \"#utility.yul\":4336:4340   */\n      0x20\n        /* \"#utility.yul\":4328:4334   */\n      dup7\n        /* \"#utility.yul\":4324:4341   */\n      add\n        /* \"#utility.yul\":4261:4355   */\n      tag_106\n      jump\t// in\n    tag_165:\n        /* \"#utility.yul\":4252:4355   */\n      swap2\n      pop\n        /* \"#utility.yul\":4068:4361   */\n      pop\n        /* \"#utility.yul\":3991:4361   */\n      swap3\n      swap2\n      pop\n      pop\n      jump\t// out\n        /* \"#utility.yul\":4367:4906   */\n    tag_15:\n        /* \"#utility.yul\":4451:4457   */\n      0x00\n        /* \"#utility.yul\":4500:4502   */\n      0x20\n        /* \"#utility.yul\":4488:4497   */\n      dup3\n        /* \"#utility.yul\":4479:4486   */\n      dup5\n        /* \"#utility.yul\":4475:4498   */\n      sub\n        /* \"#utility.yul\":4471:4503   */\n      slt\n        /* \"#utility.yul\":4468:4587   */\n      iszero\n      tag_167\n      jumpi\n        /* \"#utility.yul\":4506:4585   */\n      tag_168\n      tag_88\n      jump\t// in\n    tag_168:\n        /* \"#utility.yul\":4468:4587   */\n    tag_167:\n        /* \"#utility.yul\":4654:4655   */\n      0x00\n        /* \"#utility.yul\":4643:4652   */\n      dup3\n        /* \"#utility.yul\":4639:4656   */\n      add\n        /* \"#utility.yul\":4626:4657   */\n      calldataload\n        /* \"#utility.yul\":4684:4702   */\n      0xffffffffffffffff\n        /* \"#utility.yul\":4676:4682   */\n      dup2\n        /* \"#utility.yul\":4673:4703   */\n      gt\n        /* \"#utility.yul\":4670:4787   */\n      iszero\n      tag_169\n      jumpi\n        /* \"#utility.yul\":4706:4785   */\n      tag_170\n      tag_89\n      jump\t// in\n    tag_170:\n        /* \"#utility.yul\":4670:4787   */\n    tag_169:\n        /* \"#utility.yul\":4811:4889   */\n      tag_171\n        /* \"#utility.yul\":4881:4888   */\n      dup5\n        /* \"#utility.yul\":4872:4878   */\n      dup3\n        /* \"#utility.yul\":4861:4870   */\n      dup6\n        /* \"#utility.yul\":4857:4879   */\n      add\n        /* \"#utility.yul\":4811:4889   */\n      tag_107\n      jump\t// in\n    tag_171:\n        /* \"#utility.yul\":4801:4889   */\n      swap2\n      pop\n        /* \"#utility.yul\":4597:4899   */\n      pop\n        /* \"#utility.yul\":4367:4906   */\n      swap3\n      swap2\n      pop\n      pop\n      jump\t// out\n        /* \"#utility.yul\":4912:5030   */\n    tag_108:\n        /* \"#utility.yul\":4999:5023   */\n      tag_173\n        /* \"#utility.yul\":5017:5022   */\n      dup2\n        /* \"#utility.yul\":4999:5023   */\n      tag_103\n      jump\t// in\n    tag_173:\n        /* \"#utility.yul\":4994:4997   */\n      dup3\n        /* \"#utility.yul\":4987:5024   */\n      mstore\n        /* \"#utility.yul\":4912:5030   */\n      pop\n      pop\n      jump\t// out\n        /* \"#utility.yul\":5036:5258   */\n    tag_18:\n        /* \"#utility.yul\":5129:5133   */\n      0x00\n        /* \"#utility.yul\":5167:5169   */\n      0x20\n        /* \"#utility.yul\":5156:5165   */\n      dup3\n        /* \"#utility.yul\":5152:5170   */\n      add\n        /* \"#utility.yul\":5144:5170   */\n      swap1\n      pop\n        /* \"#utility.yul\":5180:5251   */\n      tag_175\n        /* \"#utility.yul\":5248:5249   */\n      0x00\n        /* \"#utility.yul\":5237:5246   */\n      dup4\n        /* \"#utility.yul\":5233:5250   */\n      add\n        /* \"#utility.yul\":5224:5230   */\n      dup5\n        /* \"#utility.yul\":5180:5251   */\n      tag_108\n      jump\t// in\n    tag_175:\n        /* \"#utility.yul\":5036:5258   */\n      swap3\n      swap2\n      pop\n      pop\n      jump\t// out\n        /* \"#utility.yul\":5264:5593   */\n    tag_21:\n        /* \"#utility.yul\":5323:5329   */\n      0x00\n        /* \"#utility.yul\":5372:5374   */\n      0x20\n        /* \"#utility.yul\":5360:5369   */\n      dup3\n        /* \"#utility.yul\":5351:5358   */\n      dup5\n        /* \"#utility.yul\":5347:5370   */\n      sub\n        /* \"#utility.yul\":5343:5375   */\n      slt\n        /* \"#utility.yul\":5340:5459   */\n      iszero\n      tag_177\n      jumpi\n        /* \"#utility.yul\":5378:5457   */\n      tag_178\n      tag_88\n      jump\t// in\n    tag_178:\n        /* \"#utility.yul\":5340:5459   */\n    tag_177:\n        /* \"#utility.yul\":5498:5499   */\n      0x00\n        /* \"#utility.yul\":5523:5576   */\n      tag_179\n        /* \"#utility.yul\":5568:5575   */\n      dup5\n        /* \"#utility.yul\":5559:5565   */\n      dup3\n        /* \"#utility.yul\":5548:5557   */\n      dup6\n        /* \"#utility.yul\":5544:5566   */\n      add\n        /* \"#utility.yul\":5523:5576   */\n      tag_105\n      jump\t// in\n    tag_179:\n        /* \"#utility.yul\":5513:5576   */\n      swap2\n      pop\n        /* \"#utility.yul\":5469:5586   */\n      pop\n        /* \"#utility.yul\":5264:5593   */\n      swap3\n      swap2\n      pop\n      pop\n      jump\t// out\n        /* \"#utility.yul\":5599:5717   */\n    tag_109:\n        /* \"#utility.yul\":5686:5710   */\n      tag_181\n        /* \"#utility.yul\":5704:5709   */\n      dup2\n        /* \"#utility.yul\":5686:5710   */\n      tag_91\n      jump\t// in\n    tag_181:\n        /* \"#utility.yul\":5681:5684   */\n      dup3\n        /* \"#utility.yul\":5674:5711   */\n      mstore\n        /* \"#utility.yul\":5599:5717   */\n      pop\n      pop\n      jump\t// out\n        /* \"#utility.yul\":5723:5945   */\n    tag_32:\n        /* \"#utility.yul\":5816:5820   */\n      0x00\n        /* \"#utility.yul\":5854:5856   */\n      0x20\n        /* \"#utility.yul\":5843:5852   */\n      dup3\n        /* \"#utility.yul\":5839:5857   */\n      add\n        /* \"#utility.yul\":5831:5857   */\n      swap1\n      pop\n        /* \"#utility.yul\":5867:5938   */\n      tag_183\n        /* \"#utility.yul\":5935:5936   */\n      0x00\n        /* \"#utility.yul\":5924:5933   */\n      dup4\n        /* \"#utility.yul\":5920:5937   */\n      add\n        /* \"#utility.yul\":5911:5917   */\n      dup5\n        /* \"#utility.yul\":5867:5938   */\n      tag_109\n      jump\t// in\n    tag_183:\n        /* \"#utility.yul\":5723:5945   */\n      swap3\n      swap2\n      pop\n      pop\n      jump\t// out\n        /* \"#utility.yul\":5951:6131   */\n    tag_110:\n        /* \"#utility.yul\":5999:6076   */\n      0x4e487b7100000000000000000000000000000000000000000000000000000000\n        /* \"#utility.yul\":5996:5997   */\n      0x00\n        /* \"#utility.yul\":5989:6077   */\n      mstore\n        /* \"#utility.yul\":6096:6100   */\n      0x12\n        /* \"#utility.yul\":6093:6094   */\n      0x04\n        /* \"#utility.yul\":6086:6101   */\n      mstore\n        /* \"#utility.yul\":6120:6124   */\n      0x24\n        /* \"#utility.yul\":6117:6118   */\n      0x00\n        /* \"#utility.yul\":6110:6125   */\n      revert\n        /* \"#utility.yul\":6137:6317   */\n    tag_111:\n        /* \"#utility.yul\":6185:6262   */\n      0x4e487b7100000000000000000000000000000000000000000000000000000000\n        /* \"#utility.yul\":6182:6183   */\n      0x00\n        /* \"#utility.yul\":6175:6263   */\n      mstore\n        /* \"#utility.yul\":6282:6286   */\n      0x11\n        /* \"#utility.yul\":6279:6280   */\n      0x04\n        /* \"#utility.yul\":6272:6287   */\n      mstore\n        /* \"#utility.yul\":6306:6310   */\n      0x24\n        /* \"#utility.yul\":6303:6304   */\n      0x00\n        /* \"#utility.yul\":6296:6311   */\n      revert\n        /* \"#utility.yul\":6323:6508   */\n    tag_45:\n        /* \"#utility.yul\":6363:6364   */\n      0x00\n        /* \"#utility.yul\":6380:6400   */\n      tag_187\n        /* \"#utility.yul\":6398:6399   */\n      dup3\n        /* \"#utility.yul\":6380:6400   */\n      tag_103\n      jump\t// in\n    tag_187:\n        /* \"#utility.yul\":6375:6400   */\n      swap2\n      pop\n        /* \"#utility.yul\":6414:6434   */\n      tag_188\n        /* \"#utility.yul\":6432:6433   */\n      dup4\n        /* \"#utility.yul\":6414:6434   */\n      tag_103\n      jump\t// in\n    tag_188:\n        /* \"#utility.yul\":6409:6434   */\n      swap3\n      pop\n        /* \"#utility.yul\":6453:6454   */\n      dup3\n        /* \"#utility.yul\":6443:6478   */\n      tag_189\n      jumpi\n        /* \"#utility.yul\":6458:6476   */\n      tag_190\n      tag_110\n      jump\t// in\n    tag_190:\n        /* \"#utility.yul\":6443:6478   */\n    tag_189:\n        /* \"#utility.yul\":6500:6501   */\n      dup3\n        /* \"#utility.yul\":6497:6498   */\n      dup3\n        /* \"#utility.yul\":6493:6502   */\n      div\n        /* \"#utility.yul\":6488:6502   */\n      swap1\n      pop\n        /* \"#utility.yul\":6323:6508   */\n      swap3\n      swap2\n      pop\n      pop\n      jump\t// out\n        /* \"#utility.yul\":6514:6705   */\n    tag_48:\n        /* \"#utility.yul\":6554:6558   */\n      0x00\n        /* \"#utility.yul\":6574:6594   */\n      tag_192\n        /* \"#utility.yul\":6592:6593   */\n      dup3\n        /* \"#utility.yul\":6574:6594   */\n      tag_103\n      jump\t// in\n    tag_192:\n        /* \"#utility.yul\":6569:6594   */\n      swap2\n      pop\n        /* \"#utility.yul\":6608:6628   */\n      tag_193\n        /* \"#utility.yul\":6626:6627   */\n      dup4\n        /* \"#utility.yul\":6608:6628   */\n      tag_103\n      jump\t// in\n    tag_193:\n        /* \"#utility.yul\":6603:6628   */\n      swap3\n      pop\n        /* \"#utility.yul\":6647:6648   */\n      dup3\n        /* \"#utility.yul\":6644:6645   */\n      dup3\n        /* \"#utility.yul\":6641:6649   */\n      lt\n        /* \"#utility.yul\":6638:6672   */\n      iszero\n      tag_194\n      jumpi\n        /* \"#utility.yul\":6652:6670   */\n      tag_195\n      tag_111\n      jump\t// in\n    tag_195:\n        /* \"#utility.yul\":6638:6672   */\n    tag_194:\n        /* \"#utility.yul\":6697:6698   */\n      dup3\n        /* \"#utility.yul\":6694:6695   */\n      dup3\n        /* \"#utility.yul\":6690:6699   */\n      sub\n        /* \"#utility.yul\":6682:6699   */\n      swap1\n      pop\n        /* \"#utility.yul\":6514:6705   */\n      swap3\n      swap2\n      pop\n      pop\n      jump\t// out\n        /* \"#utility.yul\":6711:7043   */\n    tag_51:\n        /* \"#utility.yul\":6832:6836   */\n      0x00\n        /* \"#utility.yul\":6870:6872   */\n      0x40\n        /* \"#utility.yul\":6859:6868   */\n      dup3\n        /* \"#utility.yul\":6855:6873   */\n      add\n        /* \"#utility.yul\":6847:6873   */\n      swap1\n      pop\n        /* \"#utility.yul\":6883:6954   */\n      tag_197\n        /* \"#utility.yul\":6951:6952   */\n      0x00\n        /* \"#utility.yul\":6940:6949   */\n      dup4\n        /* \"#utility.yul\":6936:6953   */\n      add\n        /* \"#utility.yul\":6927:6933   */\n      dup6\n        /* \"#utility.yul\":6883:6954   */\n      tag_108\n      jump\t// in\n    tag_197:\n        /* \"#utility.yul\":6964:7036   */\n      tag_198\n        /* \"#utility.yul\":7032:7034   */\n      0x20\n        /* \"#utility.yul\":7021:7030   */\n      dup4\n        /* \"#utility.yul\":7017:7035   */\n      add\n        /* \"#utility.yul\":7008:7014   */\n      dup5\n        /* \"#utility.yul\":6964:7036   */\n      tag_108\n      jump\t// in\n    tag_198:\n        /* \"#utility.yul\":6711:7043   */\n      swap4\n      swap3\n      pop\n      pop\n      pop\n      jump\t// out\n        /* \"#utility.yul\":7049:7225   */\n    tag_62:\n        /* \"#utility.yul\":7081:7082   */\n      0x00\n        /* \"#utility.yul\":7098:7118   */\n      tag_200\n        /* \"#utility.yul\":7116:7117   */\n      dup3\n        /* \"#utility.yul\":7098:7118   */\n      tag_103\n      jump\t// in\n    tag_200:\n        /* \"#utility.yul\":7093:7118   */\n      swap2\n      pop\n        /* \"#utility.yul\":7132:7152   */\n      tag_201\n        /* \"#utility.yul\":7150:7151   */\n      dup4\n        /* \"#utility.yul\":7132:7152   */\n      tag_103\n      jump\t// in\n    tag_201:\n        /* \"#utility.yul\":7127:7152   */\n      swap3\n      pop\n        /* \"#utility.yul\":7171:7172   */\n      dup3\n        /* \"#utility.yul\":7161:7196   */\n      tag_202\n      jumpi\n        /* \"#utility.yul\":7176:7194   */\n      tag_203\n      tag_110\n      jump\t// in\n    tag_203:\n        /* \"#utility.yul\":7161:7196   */\n    tag_202:\n        /* \"#utility.yul\":7217:7218   */\n      dup3\n        /* \"#utility.yul\":7214:7215   */\n      dup3\n        /* \"#utility.yul\":7210:7219   */\n      mod\n        /* \"#utility.yul\":7205:7219   */\n      swap1\n      pop\n        /* \"#utility.yul\":7049:7225   */\n      swap3\n      swap2\n      pop\n      pop\n      jump\t// out\n        /* \"#utility.yul\":7231:7411   */\n    tag_68:\n        /* \"#utility.yul\":7279:7356   */\n      0x4e487b7100000000000000000000000000000000000000000000000000000000\n        /* \"#utility.yul\":7276:7277   */\n      0x00\n        /* \"#utility.yul\":7269:7357   */\n      mstore\n        /* \"#utility.yul\":7376:7380   */\n      0x32\n        /* \"#utility.yul\":7373:7374   */\n      0x04\n        /* \"#utility.yul\":7366:7381   */\n      mstore\n        /* \"#utility.yul\":7400:7404   */\n      0x24\n        /* \"#utility.yul\":7397:7398   */\n      0x00\n        /* \"#utility.yul\":7390:7405   */\n      revert\n        /* \"#utility.yul\":7417:7722   */\n    tag_86:\n        /* \"#utility.yul\":7457:7460   */\n      0x00\n        /* \"#utility.yul\":7476:7496   */\n      tag_206\n        /* \"#utility.yul\":7494:7495   */\n      dup3\n        /* \"#utility.yul\":7476:7496   */\n      tag_103\n      jump\t// in\n    tag_206:\n        /* \"#utility.yul\":7471:7496   */\n      swap2\n      pop\n        /* \"#utility.yul\":7510:7530   */\n      tag_207\n        /* \"#utility.yul\":7528:7529   */\n      dup4\n        /* \"#utility.yul\":7510:7530   */\n      tag_103\n      jump\t// in\n    tag_207:\n        /* \"#utility.yul\":7505:7530   */\n      swap3\n      pop\n        /* \"#utility.yul\":7664:7665   */\n      dup3\n        /* \"#utility.yul\":7596:7662   */\n      0xffffffffffffffffffffffffffffffffffffffffffffffffffffffffffffffff\n        /* \"#utility.yul\":7592:7666   */\n      sub\n        /* \"#utility.yul\":7589:7590   */\n      dup3\n        /* \"#utility.yul\":7586:7667   */\n      gt\n        /* \"#utility.yul\":7583:7690   */\n      iszero\n      tag_208\n      jumpi\n        /* \"#utility.yul\":7670:7688   */\n      tag_209\n      tag_111\n      jump\t// in\n    tag_209:\n        /* \"#utility.yul\":7583:7690   */\n    tag_208:\n        /* \"#utility.yul\":7714:7715   */\n      dup3\n        /* \"#utility.yul\":7711:7712   */\n      dup3\n        /* \"#utility.yul\":7707:7716   */\n      add\n        /* \"#utility.yul\":7700:7716   */\n      swap1\n      pop\n        /* \"#utility.yul\":7417:7722   */\n      swap3\n      swap2\n      pop\n      pop\n      jump\t// out\n\n    auxdata: 0xa2646970667358221220109a1d435797bea2346ac8b06fcc8b315ad9c4a26c993b69492b50aabc28469764736f6c634300080d0033\n}\n",
				"bytecode": {
					"linkReferences": {},
					"object": "608060405234801561001057600080fd5b50610936806100206000396000f3fe608060405234801561001057600080fd5b506004361061004c5760003560e01c80633ce142f514610051578063b24ebfcc14610081578063f50b2efe146100b1578063f90c4924146100cd575b600080fd5b61006b600480360381019061006691906104a1565b6100eb565b60405161007891906104ea565b60405180910390f35b61009b60048036038101906100969190610694565b6101cf565b6040516100a891906106ec565b60405180910390f35b6100cb60048036038101906100c69190610707565b6101e1565b005b6100d56101ed565b6040516100e291906104ea565b60405180910390f35b60007311fffc9970c41b9bfb9aa35be838d39bce918cff73ffffffffffffffffffffffffffffffffffffffff168273ffffffffffffffffffffffffffffffffffffffff160361013d57600090506101ca565b73dbcc2c6c892c8d3e3fe4d325fec810b7376a5ed673ffffffffffffffffffffffffffffffffffffffff168273ffffffffffffffffffffffffffffffffffffffff160361018d57600190506101ca565b816040517fec459bc00000000000000000000000000000000000000000000000000000000081526004016101c19190610743565b60405180910390fd5b919050565b60006101da826101f6565b9050919050565b6101ea81610208565b50565b60006002905090565b6000610201826102d2565b9050919050565b60006103e88261021891906107bc565b90508042101561027a57603c428261023091906107ed565b11156102755780426040517fb6b0916d00000000000000000000000000000000000000000000000000000000815260040161026c929190610821565b60405180910390fd5b6102ce565b60b4814261028891906107ed565b11156102cd5780426040517f0321d0b50000000000000000000000000000000000000000000000000000000081526004016102c4929190610821565b60405180910390fd5b5b5050565b60008082510361030e576040517f9e198af900000000000000000000000000000000000000000000000000000000815260040160405180910390fd5b610317826103c6565b60006002835161032791906107bc565b9050600060028451610339919061084a565b036103a257600061038a8460018461035191906107ed565b815181106103625761036161087b565b5b602002602001015185848151811061037d5761037c61087b565b5b6020026020010151610419565b905060028161039991906107bc565b925050506103c1565b8281815181106103b5576103b461087b565b5b60200260200101519150505b919050565b805160208201602082028101815b8181101561041257825b818110156104065781518151808210156103f9578084528183525b50506020810190506103de565b506020810190506103d4565b5050505050565b6000818361042791906108aa565b905092915050565b6000604051905090565b600080fd5b600080fd5b600073ffffffffffffffffffffffffffffffffffffffff82169050919050565b600061046e82610443565b9050919050565b61047e81610463565b811461048957600080fd5b50565b60008135905061049b81610475565b92915050565b6000602082840312156104b7576104b6610439565b5b60006104c58482850161048c565b91505092915050565b600060ff82169050919050565b6104e4816104ce565b82525050565b60006020820190506104ff60008301846104db565b92915050565b600080fd5b6000601f19601f8301169050919050565b7f4e487b7100000000000000000000000000000000000000000000000000000000600052604160045260246000fd5b6105538261050a565b810181811067ffffffffffffffff821117156105725761057161051b565b5b80604052505050565b600061058561042f565b9050610591828261054a565b919050565b600067ffffffffffffffff8211156105b1576105b061051b565b5b602082029050602081019050919050565b600080fd5b6000819050919050565b6105da816105c7565b81146105e557600080fd5b50565b6000813590506105f7816105d1565b92915050565b600061061061060b84610596565b61057b565b90508083825260208201905060208402830185811115610633576106326105c2565b5b835b8181101561065c578061064888826105e8565b845260208401935050602081019050610635565b5050509392505050565b600082601f83011261067b5761067a610505565b5b813561068b8482602086016105fd565b91505092915050565b6000602082840312156106aa576106a9610439565b5b600082013567ffffffffffffffff8111156106c8576106c761043e565b5b6106d484828501610666565b91505092915050565b6106e6816105c7565b82525050565b600060208201905061070160008301846106dd565b92915050565b60006020828403121561071d5761071c610439565b5b600061072b848285016105e8565b91505092915050565b61073d81610463565b82525050565b60006020820190506107586000830184610734565b92915050565b7f4e487b7100000000000000000000000000000000000000000000000000000000600052601260045260246000fd5b7f4e487b7100000000000000000000000000000000000000000000000000000000600052601160045260246000fd5b60006107c7826105c7565b91506107d2836105c7565b9250826107e2576107e161075e565b5b828204905092915050565b60006107f8826105c7565b9150610803836105c7565b9250828210156108165761081561078d565b5b828203905092915050565b600060408201905061083660008301856106dd565b61084360208301846106dd565b9392505050565b6000610855826105c7565b9150610860836105c7565b9250826108705761086f61075e565b5b828206905092915050565b7f4e487b7100000000000000000000000000000000000000000000000000000000600052603260045260246000fd5b60006108b5826105c7565b91506108c0836105c7565b9250827fffffffffffffffffffffffffffffffffffffffffffffffffffffffffffffffff038211156108f5576108f461078d565b5b82820190509291505056fea2646970667358221220109a1d435797bea2346ac8b06fcc8b315ad9c4a26c993b69492b50aabc28469764736f6c634300080d0033",
					"opcodes": "PUSH1 0x80 PUSH1 0x40 MSTORE CALLVALUE DUP1 ISZERO PUSH2 0x10 JUMPI PUSH1 0x0 DUP1 REVERT JUMPDEST POP PUSH2 0x936 DUP1 PUSH2 0x20 PUSH1 0x0 CODECOPY PUSH1 0x0 RETURN INVALID PUSH1 0x80 PUSH1 0x40 MSTORE CALLVALUE DUP1 ISZERO PUSH2 0x10 JUMPI PUSH1 0x0 DUP1 REVERT JUMPDEST POP PUSH1 0x4 CALLDATASIZE LT PUSH2 0x4C JUMPI PUSH1 0x0 CALLDATALOAD PUSH1 0xE0 SHR DUP1 PUSH4 0x3CE142F5 EQ PUSH2 0x51 JUMPI DUP1 PUSH4 0xB24EBFCC EQ PUSH2 0x81 JUMPI DUP1 PUSH4 0xF50B2EFE EQ PUSH2 0xB1 JUMPI DUP1 PUSH4 0xF90C4924 EQ PUSH2 0xCD JUMPI JUMPDEST PUSH1 0x0 DUP1 REVERT JUMPDEST PUSH2 0x6B PUSH1 0x4 DUP1 CALLDATASIZE SUB DUP2 ADD SWAP1 PUSH2 0x66 SWAP2 SWAP1 PUSH2 0x4A1 JUMP JUMPDEST PUSH2 0xEB JUMP JUMPDEST PUSH1 0x40 MLOAD PUSH2 0x78 SWAP2 SWAP1 PUSH2 0x4EA JUMP JUMPDEST PUSH1 0x40 MLOAD DUP1 SWAP2 SUB SWAP1 RETURN JUMPDEST PUSH2 0x9B PUSH1 0x4 DUP1 CALLDATASIZE SUB DUP2 ADD SWAP1 PUSH2 0x96 SWAP2 SWAP1 PUSH2 0x694 JUMP JUMPDEST PUSH2 0x1CF JUMP JUMPDEST PUSH1 0x40 MLOAD PUSH2 0xA8 SWAP2 SWAP1 PUSH2 0x6EC JUMP JUMPDEST PUSH1 0x40 MLOAD DUP1 SWAP2 SUB SWAP1 RETURN JUMPDEST PUSH2 0xCB PUSH1 0x4 DUP1 CALLDATASIZE SUB DUP2 ADD SWAP1 PUSH2 0xC6 SWAP2 SWAP1 PUSH2 0x707 JUMP JUMPDEST PUSH2 0x1E1 JUMP JUMPDEST STOP JUMPDEST PUSH2 0xD5 PUSH2 0x1ED JUMP JUMPDEST PUSH1 0x40 MLOAD PUSH2 0xE2 SWAP2 SWAP1 PUSH2 0x4EA JUMP JUMPDEST PUSH1 0x40 MLOAD DUP1 SWAP2 SUB SWAP1 RETURN JUMPDEST PUSH1 0x0 PUSH20 0x11FFFC9970C41B9BFB9AA35BE838D39BCE918CFF PUSH20 0xFFFFFFFFFFFFFFFFFFFFFFFFFFFFFFFFFFFFFFFF AND DUP3 PUSH20 0xFFFFFFFFFFFFFFFFFFFFFFFFFFFFFFFFFFFFFFFF AND SUB PUSH2 0x13D JUMPI PUSH1 0x0 SWAP1 POP PUSH2 0x1CA JUMP JUMPDEST PUSH20 0xDBCC2C6C892C8D3E3FE4D325FEC810B7376A5ED6 PUSH20 0xFFFFFFFFFFFFFFFFFFFFFFFFFFFFFFFFFFFFFFFF AND DUP3 PUSH20 0xFFFFFFFFFFFFFFFFFFFFFFFFFFFFFFFFFFFFFFFF AND SUB PUSH2 0x18D JUMPI PUSH1 0x1 SWAP1 POP PUSH2 0x1CA JUMP JUMPDEST DUP2 PUSH1 0x40 MLOAD PUSH32 0xEC459BC000000000000000000000000000000000000000000000000000000000 DUP2 MSTORE PUSH1 0x4 ADD PUSH2 0x1C1 SWAP2 SWAP1 PUSH2 0x743 JUMP JUMPDEST PUSH1 0x40 MLOAD DUP1 SWAP2 SUB SWAP1 REVERT JUMPDEST SWAP2 SWAP1 POP JUMP JUMPDEST PUSH1 0x0 PUSH2 0x1DA DUP3 PUSH2 0x1F6 JUMP JUMPDEST SWAP1 POP SWAP2 SWAP1 POP JUMP JUMPDEST PUSH2 0x1EA DUP2 PUSH2 0x208 JUMP JUMPDEST POP JUMP JUMPDEST PUSH1 0x0 PUSH1 0x2 SWAP1 POP SWAP1 JUMP JUMPDEST PUSH1 0x0 PUSH2 0x201 DUP3 PUSH2 0x2D2 JUMP JUMPDEST SWAP1 POP SWAP2 SWAP1 POP JUMP JUMPDEST PUSH1 0x0 PUSH2 0x3E8 DUP3 PUSH2 0x218 SWAP2 SWAP1 PUSH2 0x7BC JUMP JUMPDEST SWAP1 POP DUP1 TIMESTAMP LT ISZERO PUSH2 0x27A JUMPI PUSH1 0x3C TIMESTAMP DUP3 PUSH2 0x230 SWAP2 SWAP1 PUSH2 0x7ED JUMP JUMPDEST GT ISZERO PUSH2 0x275 JUMPI DUP1 TIMESTAMP PUSH1 0x40 MLOAD PUSH32 0xB6B0916D00000000000000000000000000000000000000000000000000000000 DUP2 MSTORE PUSH1 0x4 ADD PUSH2 0x26C SWAP3 SWAP2 SWAP1 PUSH2 0x821 JUMP JUMPDEST PUSH1 0x40 MLOAD DUP1 SWAP2 SUB SWAP1 REVERT JUMPDEST PUSH2 0x2CE JUMP JUMPDEST PUSH1 0xB4 DUP2 TIMESTAMP PUSH2 0x288 SWAP2 SWAP1 PUSH2 0x7ED JUMP JUMPDEST GT ISZERO PUSH2 0x2CD JUMPI DUP1 TIMESTAMP PUSH1 0x40 MLOAD PUSH32 0x321D0B500000000000000000000000000000000000000000000000000000000 DUP2 MSTORE PUSH1 0x4 ADD PUSH2 0x2C4 SWAP3 SWAP2 SWAP1 PUSH2 0x821 JUMP JUMPDEST PUSH1 0x40 MLOAD DUP1 SWAP2 SUB SWAP1 REVERT JUMPDEST JUMPDEST POP POP JUMP JUMPDEST PUSH1 0x0 DUP1 DUP3 MLOAD SUB PUSH2 0x30E JUMPI PUSH1 0x40 MLOAD PUSH32 0x9E198AF900000000000000000000000000000000000000000000000000000000 DUP2 MSTORE PUSH1 0x4 ADD PUSH1 0x40 MLOAD DUP1 SWAP2 SUB SWAP1 REVERT JUMPDEST PUSH2 0x317 DUP3 PUSH2 0x3C6 JUMP JUMPDEST PUSH1 0x0 PUSH1 0x2 DUP4 MLOAD PUSH2 0x327 SWAP2 SWAP1 PUSH2 0x7BC JUMP JUMPDEST SWAP1 POP PUSH1 0x0 PUSH1 0x2 DUP5 MLOAD PUSH2 0x339 SWAP2 SWAP1 PUSH2 0x84A JUMP JUMPDEST SUB PUSH2 0x3A2 JUMPI PUSH1 0x0 PUSH2 0x38A DUP5 PUSH1 0x1 DUP5 PUSH2 0x351 SWAP2 SWAP1 PUSH2 0x7ED JUMP JUMPDEST DUP2 MLOAD DUP2 LT PUSH2 0x362 JUMPI PUSH2 0x361 PUSH2 0x87B JUMP JUMPDEST JUMPDEST PUSH1 0x20 MUL PUSH1 0x20 ADD ADD MLOAD DUP6 DUP5 DUP2 MLOAD DUP2 LT PUSH2 0x37D JUMPI PUSH2 0x37C PUSH2 0x87B JUMP JUMPDEST JUMPDEST PUSH1 0x20 MUL PUSH1 0x20 ADD ADD MLOAD PUSH2 0x419 JUMP JUMPDEST SWAP1 POP PUSH1 0x2 DUP2 PUSH2 0x399 SWAP2 SWAP1 PUSH2 0x7BC JUMP JUMPDEST SWAP3 POP POP POP PUSH2 0x3C1 JUMP JUMPDEST DUP3 DUP2 DUP2 MLOAD DUP2 LT PUSH2 0x3B5 JUMPI PUSH2 0x3B4 PUSH2 0x87B JUMP JUMPDEST JUMPDEST PUSH1 0x20 MUL PUSH1 0x20 ADD ADD MLOAD SWAP2 POP POP JUMPDEST SWAP2 SWAP1 POP JUMP JUMPDEST DUP1 MLOAD PUSH1 0x20 DUP3 ADD PUSH1 0x20 DUP3 MUL DUP2 ADD DUP2 JUMPDEST DUP2 DUP2 LT ISZERO PUSH2 0x412 JUMPI DUP3 JUMPDEST DUP2 DUP2 LT ISZERO PUSH2 0x406 JUMPI DUP2 MLOAD DUP2 MLOAD DUP1 DUP3 LT ISZERO PUSH2 0x3F9 JUMPI DUP1 DUP5 MSTORE DUP2 DUP4 MSTORE JUMPDEST POP POP PUSH1 0x20 DUP2 ADD SWAP1 POP PUSH2 0x3DE JUMP JUMPDEST POP PUSH1 0x20 DUP2 ADD SWAP1 POP PUSH2 0x3D4 JUMP JUMPDEST POP POP POP POP POP JUMP JUMPDEST PUSH1 0x0 DUP2 DUP4 PUSH2 0x427 SWAP2 SWAP1 PUSH2 0x8AA JUMP JUMPDEST SWAP1 POP SWAP3 SWAP2 POP POP JUMP JUMPDEST PUSH1 0x0 PUSH1 0x40 MLOAD SWAP1 POP SWAP1 JUMP JUMPDEST PUSH1 0x0 DUP1 REVERT JUMPDEST PUSH1 0x0 DUP1 REVERT JUMPDEST PUSH1 0x0 PUSH20 0xFFFFFFFFFFFFFFFFFFFFFFFFFFFFFFFFFFFFFFFF DUP3 AND SWAP1 POP SWAP2 SWAP1 POP JUMP JUMPDEST PUSH1 0x0 PUSH2 0x46E DUP3 PUSH2 0x443 JUMP JUMPDEST SWAP1 POP SWAP2 SWAP1 POP JUMP JUMPDEST PUSH2 0x47E DUP2 PUSH2 0x463 JUMP JUMPDEST DUP2 EQ PUSH2 0x489 JUMPI PUSH1 0x0 DUP1 REVERT JUMPDEST POP JUMP JUMPDEST PUSH1 0x0 DUP2 CALLDATALOAD SWAP1 POP PUSH2 0x49B DUP2 PUSH2 0x475 JUMP JUMPDEST SWAP3 SWAP2 POP POP JUMP JUMPDEST PUSH1 0x0 PUSH1 0x20 DUP3 DUP5 SUB SLT ISZERO PUSH2 0x4B7 JUMPI PUSH2 0x4B6 PUSH2 0x439 JUMP JUMPDEST JUMPDEST PUSH1 0x0 PUSH2 0x4C5 DUP5 DUP3 DUP6 ADD PUSH2 0x48C JUMP JUMPDEST SWAP2 POP POP SWAP3 SWAP2 POP POP JUMP JUMPDEST PUSH1 0x0 PUSH1 0xFF DUP3 AND SWAP1 POP SWAP2 SWAP1 POP JUMP JUMPDEST PUSH2 0x4E4 DUP2 PUSH2 0x4CE JUMP JUMPDEST DUP3 MSTORE POP POP JUMP JUMPDEST PUSH1 0x0 PUSH1 0x20 DUP3 ADD SWAP1 POP PUSH2 0x4FF PUSH1 0x0 DUP4 ADD DUP5 PUSH2 0x4DB JUMP JUMPDEST SWAP3 SWAP2 POP POP JUMP JUMPDEST PUSH1 0x0 DUP1 REVERT JUMPDEST PUSH1 0x0 PUSH1 0x1F NOT PUSH1 0x1F DUP4 ADD AND SWAP1 POP SWAP2 SWAP1 POP JUMP JUMPDEST PUSH32 0x4E487B7100000000000000000000000000000000000000000000000000000000 PUSH1 0x0 MSTORE PUSH1 0x41 PUSH1 0x4 MSTORE PUSH1 0x24 PUSH1 0x0 REVERT JUMPDEST PUSH2 0x553 DUP3 PUSH2 0x50A JUMP JUMPDEST DUP2 ADD DUP2 DUP2 LT PUSH8 0xFFFFFFFFFFFFFFFF DUP3 GT OR ISZERO PUSH2 0x572 JUMPI PUSH2 0x571 PUSH2 0x51B JUMP JUMPDEST JUMPDEST DUP1 PUSH1 0x40 MSTORE POP POP POP JUMP JUMPDEST PUSH1 0x0 PUSH2 0x585 PUSH2 0x42F JUMP JUMPDEST SWAP1 POP PUSH2 0x591 DUP3 DUP3 PUSH2 0x54A JUMP JUMPDEST SWAP2 SWAP1 POP JUMP JUMPDEST PUSH1 0x0 PUSH8 0xFFFFFFFFFFFFFFFF DUP3 GT ISZERO PUSH2 0x5B1 JUMPI PUSH2 0x5B0 PUSH2 0x51B JUMP JUMPDEST JUMPDEST PUSH1 0x20 DUP3 MUL SWAP1 POP PUSH1 0x20 DUP2 ADD SWAP1 POP SWAP2 SWAP1 POP JUMP JUMPDEST PUSH1 0x0 DUP1 REVERT JUMPDEST PUSH1 0x0 DUP2 SWAP1 POP SWAP2 SWAP1 POP JUMP JUMPDEST PUSH2 0x5DA DUP2 PUSH2 0x5C7 JUMP JUMPDEST DUP2 EQ PUSH2 0x5E5 JUMPI PUSH1 0x0 DUP1 REVERT JUMPDEST POP JUMP JUMPDEST PUSH1 0x0 DUP2 CALLDATALOAD SWAP1 POP PUSH2 0x5F7 DUP2 PUSH2 0x5D1 JUMP JUMPDEST SWAP3 SWAP2 POP POP JUMP JUMPDEST PUSH1 0x0 PUSH2 0x610 PUSH2 0x60B DUP5 PUSH2 0x596 JUMP JUMPDEST PUSH2 0x57B JUMP JUMPDEST SWAP1 POP DUP1 DUP4 DUP3 MSTORE PUSH1 0x20 DUP3 ADD SWAP1 POP PUSH1 0x20 DUP5 MUL DUP4 ADD DUP6 DUP2 GT ISZERO PUSH2 0x633 JUMPI PUSH2 0x632 PUSH2 0x5C2 JUMP JUMPDEST JUMPDEST DUP4 JUMPDEST DUP2 DUP2 LT ISZERO PUSH2 0x65C JUMPI DUP1 PUSH2 0x648 DUP9 DUP3 PUSH2 0x5E8 JUMP JUMPDEST DUP5 MSTORE PUSH1 0x20 DUP5 ADD SWAP4 POP POP PUSH1 0x20 DUP2 ADD SWAP1 POP PUSH2 0x635 JUMP JUMPDEST POP POP POP SWAP4 SWAP3 POP POP POP JUMP JUMPDEST PUSH1 0x0 DUP3 PUSH1 0x1F DUP4 ADD SLT PUSH2 0x67B JUMPI PUSH2 0x67A PUSH2 0x505 JUMP JUMPDEST JUMPDEST DUP2 CALLDATALOAD PUSH2 0x68B DUP5 DUP3 PUSH1 0x20 DUP7 ADD PUSH2 0x5FD JUMP JUMPDEST SWAP2 POP POP SWAP3 SWAP2 POP POP JUMP JUMPDEST PUSH1 0x0 PUSH1 0x20 DUP3 DUP5 SUB SLT ISZERO PUSH2 0x6AA JUMPI PUSH2 0x6A9 PUSH2 0x439 JUMP JUMPDEST JUMPDEST PUSH1 0x0 DUP3 ADD CALLDATALOAD PUSH8 0xFFFFFFFFFFFFFFFF DUP2 GT ISZERO PUSH2 0x6C8 JUMPI PUSH2 0x6C7 PUSH2 0x43E JUMP JUMPDEST JUMPDEST PUSH2 0x6D4 DUP5 DUP3 DUP6 ADD PUSH2 0x666 JUMP JUMPDEST SWAP2 POP POP SWAP3 SWAP2 POP POP JUMP JUMPDEST PUSH2 0x6E6 DUP2 PUSH2 0x5C7 JUMP JUMPDEST DUP3 MSTORE POP POP JUMP JUMPDEST PUSH1 0x0 PUSH1 0x20 DUP3 ADD SWAP1 POP PUSH2 0x701 PUSH1 0x0 DUP4 ADD DUP5 PUSH2 0x6DD JUMP JUMPDEST SWAP3 SWAP2 POP POP JUMP JUMPDEST PUSH1 0x0 PUSH1 0x20 DUP3 DUP5 SUB SLT ISZERO PUSH2 0x71D JUMPI PUSH2 0x71C PUSH2 0x439 JUMP JUMPDEST JUMPDEST PUSH1 0x0 PUSH2 0x72B DUP5 DUP3 DUP6 ADD PUSH2 0x5E8 JUMP JUMPDEST SWAP2 POP POP SWAP3 SWAP2 POP POP JUMP JUMPDEST PUSH2 0x73D DUP2 PUSH2 0x463 JUMP JUMPDEST DUP3 MSTORE POP POP JUMP JUMPDEST PUSH1 0x0 PUSH1 0x20 DUP3 ADD SWAP1 POP PUSH2 0x758 PUSH1 0x0 DUP4 ADD DUP5 PUSH2 0x734 JUMP JUMPDEST SWAP3 SWAP2 POP POP JUMP JUMPDEST PUSH32 0x4E487B7100000000000000000000000000000000000000000000000000000000 PUSH1 0x0 MSTORE PUSH1 0x12 PUSH1 0x4 MSTORE PUSH1 0x24 PUSH1 0x0 REVERT JUMPDEST PUSH32 0x4E487B7100000000000000000000000000000000000000000000000000000000 PUSH1 0x0 MSTORE PUSH1 0x11 PUSH1 0x4 MSTORE PUSH1 0x24 PUSH1 0x0 REVERT JUMPDEST PUSH1 0x0 PUSH2 0x7C7 DUP3 PUSH2 0x5C7 JUMP JUMPDEST SWAP2 POP PUSH2 0x7D2 DUP4 PUSH2 0x5C7 JUMP JUMPDEST SWAP3 POP DUP3 PUSH2 0x7E2 JUMPI PUSH2 0x7E1 PUSH2 0x75E JUMP JUMPDEST JUMPDEST DUP3 DUP3 DIV SWAP1 POP SWAP3 SWAP2 POP POP JUMP JUMPDEST PUSH1 0x0 PUSH2 0x7F8 DUP3 PUSH2 0x5C7 JUMP JUMPDEST SWAP2 POP PUSH2 0x803 DUP4 PUSH2 0x5C7 JUMP JUMPDEST SWAP3 POP DUP3 DUP3 LT ISZERO PUSH2 0x816 JUMPI PUSH2 0x815 PUSH2 0x78D JUMP JUMPDEST JUMPDEST DUP3 DUP3 SUB SWAP1 POP SWAP3 SWAP2 POP POP JUMP JUMPDEST PUSH1 0x0 PUSH1 0x40 DUP3 ADD SWAP1 POP PUSH2 0x836 PUSH1 0x0 DUP4 ADD DUP6 PUSH2 0x6DD JUMP JUMPDEST PUSH2 0x843 PUSH1 0x20 DUP4 ADD DUP5 PUSH2 0x6DD JUMP JUMPDEST SWAP4 SWAP3 POP POP POP JUMP JUMPDEST PUSH1 0x0 PUSH2 0x855 DUP3 PUSH2 0x5C7 JUMP JUMPDEST SWAP2 POP PUSH2 0x860 DUP4 PUSH2 0x5C7 JUMP JUMPDEST SWAP3 POP DUP3 PUSH2 0x870 JUMPI PUSH2 0x86F PUSH2 0x75E JUMP JUMPDEST JUMPDEST DUP3 DUP3 MOD SWAP1 POP SWAP3 SWAP2 POP POP JUMP JUMPDEST PUSH32 0x4E487B7100000000000000000000000000000000000000000000000000000000 PUSH1 0x0 MSTORE PUSH1 0x32 PUSH1 0x4 MSTORE PUSH1 0x24 PUSH1 0x0 REVERT JUMPDEST PUSH1 0x0 PUSH2 0x8B5 DUP3 PUSH2 0x5C7 JUMP JUMPDEST SWAP2 POP PUSH2 0x8C0 DUP4 PUSH2 0x5C7 JUMP JUMPDEST SWAP3 POP DUP3 PUSH32 0xFFFFFFFFFFFFFFFFFFFFFFFFFFFFFFFFFFFFFFFFFFFFFFFFFFFFFFFFFFFFFFFF SUB DUP3 GT ISZERO PUSH2 0x8F5 JUMPI PUSH2 0x8F4 PUSH2 0x78D JUMP JUMPDEST JUMPDEST DUP3 DUP3 ADD SWAP1 POP SWAP3 SWAP2 POP POP JUMP INVALID LOG2 PUSH5 0x6970667358 0x22 SLT KECCAK256 LT SWAP11 SAR NUMBER JUMPI SWAP8 0xBE LOG2 CALLVALUE PUSH11 0xC8B06FCC8B315AD9C4A26C SWAP10 EXTCODESIZE PUSH10 0x492B50AABC2846976473 PUSH16 0x6C634300080D00330000000000000000 "
				},
				"gasEstimates": {
					"creation": {
						"codeDepositCost": "471600",
						"executionCost": "505",
						"totalCost": "472105"
					},
					"external": {
						"aggregateValues(uint256[])": "infinite",
						"getAuthorisedSignerIndex(address)": "infinite",
						"getUniqueSignersThreshold()": "387",
						"validateTimestamp(uint256)": "infinite"
					}
				},
				"methodIdentifiers": {
					"aggregateValues(uint256[])": "b24ebfcc",
					"getAuthorisedSignerIndex(address)": "3ce142f5",
					"getUniqueSignersThreshold()": "f90c4924",
					"validateTimestamp(uint256)": "f50b2efe"
				}
			},
			"storageLayout": {
				"storage": [],
				"types": null
			},
			"userdoc": {
				"kind": "user",
				"methods": {},
				"version": 1
			}
		}
	}
}